:10000000F04200201DFE010001CA011001CA0110CA
:1000100001CA011001CA011001CA011001CA011070
:1000200001CA011001CA011001CA011001CA011060
:0C00300001CA011001CA01103FCA0110F2
:10003C00DFF800F0ED8C01100120FFF7F9BF8268AA
:10004C00521C8260426832B10268531C036011700A
:10005C004168491E416070470000000008B400B5BB
:10006C0084B005AB03930023029311B90093019361
:10007C0002E00090481E019003AB694607487844A3
:10008C001A3002F05DFD009911B1009A0021117037
:10009C00002858BF029804B05DF808FBA3FFFFFFCF
:1000AC0010B50A4B1C6824F480641C60090212020F
:1000BC00090CA4B202F4706244EA014442EA014120
:1000CC00C0F387101C600843586010BD14800240B8
:1000DC000149086070470000A402002081B0012093
:1000EC008DF800009DF800000028FBD101B070478E
:0200FC0070474B
:100100003C0000000000000000000000340100007E
:1001100000000000000000000100000000000000DE
:1001200000000000000000000000000001000000CE
:0C013000000000000800000000000000BB
:10013C003400000000000000000000006801000016
:10014C0000000000000000000100000000000000A2
:10015C00010000000000000000000000080000008A
:04016C00000000008F
:1001700030000000000000000000000098010000B6
:10018000040000000000000001000000FFFFFFFF6E
:10019000FF00000001000000080000000000000057
:1001A0002C0000000000000000000000C40100005E
:1001B000040000000000000001000000FFFFFFFF3E
:0C01C000FFFFFFFF08000000000000002F
:1001CC0034050000E401000099A1011095A701106D
:1001DC00A5C2011009B2011045B8011000000000C1
:0801EC00000000002F000000DC
:1001F40028000000000000000000000014020000BD
:100204000000000000000000FFFFFFFF00000000EE
:080214000800000000000000DA
:10021C00300500003002000069C201106DC10110F0
:10022C001FC2011095BA0110000000000000000070
:04023C002D00000091
:10024000300500005402000075C20110A9B601106B
:100250009DBF011049B60110000000000000000021
:040260002E0000006C
:1002640024000000000000000000000080020000E4
:100274000000000000000000000000000800000072
:040284000000000076
:10028800240000000000000000000000A40200009C
:10029800000000000000000000000000080000004E
:0402A8000000000052
:1002AC00240000000000000000000000C802000054
:1002BC000000000001000000000000000800000029
:0402CC00000000002E
:1002D0000000000058090020040000000000000099
:1002E000000000002000000070010000300000004D
:1002F0001C0200007809002004000000000000003B
:10030000000000000C000000300400001800000095
:1003100040020000800900200400000000000000EE
:100320000000000024000000480400001800000045
:1003300000000000C00900200400000000000000D0
:100340000000000010000000A00100002C000000D0
:10035000CC010000C80900200400000000000000DB
:1003600000000000200000006402000024000000E3
:10037000FFFFFFFFE809002004000000000000006C
:100380000000000028000000880200002400000097
:10039000FFFFFFFF100A0020040000000000000023
:1003A00000000000580000003C0100003400000084
:1003B000FFFFFFFF180A00200400000000000000FB
:1003C00000000000100000006004000018000000A1
:1003D000FFFFFFFF200A00200400000000000000D3
:1003E000000000001C000000AC020000240000001F
:1003F000FFFFFFFF280A00200400000000000000AB
:100400000000000038000000F40100002800000097
:10041000FFFFFFFF900A0020040000000000000022
:100420000000000054000000000100003C0000003B
:100430001800000000000000000000004004000060
:080440000800000000000000AC
:100448001800000000000000000000005804000030
:08045800080000000000000094
:100460001800000000000000000000007004000000
:0804700008000000000000007C
:08047800010000002CBF000090
:020480007047C3
:040484000100000073
:0404880000000E0062
:04048C0000000F005D
:040490003200000036
:040494000100000063
:0404980060090020D7
:04049C00000200005A
:0404A0000000000058
:0404A40001CA011078
:0404A8000000000050
:0404AC00000000004C
:0404B0000800000040
:0404B4000000230021
:0404B800880900208F
:0404BC00010000003B
:0404C000D00900203F
:0404C400080000002C
:0404C8000000000030
:0404CC00000000002C
:0404D0000000000028
:0404D4000000000024
:0404D8000000000020
:0404DC00010000001B
:0404E000300A0020BE
:0404E400060000000E
:0404E800010000000F
:0404EC00980A00204A
:0404F0000000000008
:0404F4000000000004
:0404F80000020000FE
:0404FC0000000000FC
:020502002900CE
:020504000100F4
:020506002500CE
:020508002D00C4
:02050A002E00C1
:02050C002F00BE
:02050E000100EA
:0105100001E9
:0805140004000000FCBE000021
:08051C000000000000000000D7
:0405240000000100D2
:0405280000000300CC
:04052C0087C401106F
:04053000380500008A
:040534003805000086
:0405380000000000BF
:04053C00900000002B
:040540009000000027
:0405440000000000B3
:04054800D0090020B6
:04054C0009B90000E9
:040550002000000087
:04055400D4BE000011
:0405580014BD0000CE
:04055C000DC30110BA
:040560004D4A000000
:040564004F4A0000FA
:0405680099C801101D
:04056C009BC8011017
:040570000000000087
:04057400640000001F
:0405780054BC00006F
:04057C006CBC000053
:040580003CBC00007F
:0205840008006D
:0205860009006A
:02058800010070
:02058A0000006F
:01058C00016D
:040590000000000067
:040594000000000063
:04059800000000005F
:04059C00000000005B
:0405A0009949000075
:0405A400B949000051
:0405A800BD4800004A
:0405AC00E34900001F
:0405B00005490000F9
:0405B400DB48000020
:0405B80037490000BF
:0405BC000F4A0000E2
:0405C00081B80000FE
:0405C400CDB90000AD
:0405C800D1B90000A5
:0405CC000800000023
:0405D0002400000003
:0405D400180000000B
:0405D80028000000F7
:0405DC0020000000FB
:0405E0003C000000DB
:0405E4000C00000007
:0405E80034000000DB
:1005EC00E0B50821ADF800100190042100F00FF8DF
:1005FC0008B100200EBD02980EBD00B583B00821D5
:10060C00ADF800100190052100F001F807BDADF820
:10061C0002106846014909680847000024050020BB
:10062C0010B5044600F0F1FB002847D4E068D0F880
:10063C00BC0078BB0920FFF7D3FFE168C1F8BC0010
:10064C0010B96FF04F0010BD94F815340022DB0781
:10065C0006D5012202700720D1F8BC20507002226E
:10066C0094F81504800704D5D1F8BC3003209854B5
:10067C00521C0878012804D0D1F8BC3002209854C0
:10068C00521CD1F8BC30082098540020D1F8BC1072
:10069C0011444870E068D0F8C01019B90FF220016D
:1006AC00C0F8C0101421204601F00CFC002805D421
:1006BC00204600F007F80028C8BF002010BD00003D
:1006CC000107080010B504460020E16881F82900F4
:1006DC00002300F04EF9002818D40122032100F069
:1006EC0016F8002812D40122042100F010F800287A
:1006FC000CD401220B2100F00AF8002806D40022A9
:10070C00062100F004F80028C8BF002010BD2046C8
:10071C0000F022BC2DE9F04F06469BB0F06890F833
:10072C00AC000C4692461D46002728B1304600F01E
:10073C00EDFA002800F1FA80DDF89480B8F1010F91
:10074C0008DAB8F1000F05D018F1010F04BFF068FA
:10075C00D0F8B080D6F80CC02498DCF824C04FF048
:10076C003409002816BF002D0DAD8146DCF800C001
:10077C004346524621463046E04700287BD4F16878
:10078C00207881F82B004346D6F80CC09CF800006A
:10079C00022801BF20788C2801208CF81700DCF887
:1007AC0024C0DCF804C04A4629463046E0470028FD
:1007BC00824600F1BA80F0680178022902BF2178E4
:1007CC008C29C775217851B3062918BF082930D058
:1007DC0016291CBF4029422918D0442925D0462966
:1007EC001CBF4E29502911D052291ED0542918BF94
:1007FC0056290BD0862918BF882907D08E2918BFF7
:10080C00902903D0922918BF94290BD129780A0674
:10081C0001D5FFF711FC890901F001070CE06178A3
:10082C00062909D01730477441E00178082903D113
:10083C00F8E701780429F5D12978173001F03F0148
:10084C0041740DE0ABF101020DF1010105EB0A0061
:10085C0001F036FF9DF800002870ABF101008244D6
:10086C002FB3F7687F6AD7F800C0434602222146AF
:10087C003046E047002859D4F7687F6AD7F804C09F
:10088C004346342269463046E0478346BBF1000FAD
:10089C004CD49DF80000800900F001070BEB0A0016
:1008AC00401E8145CED2F168072081F82800F068FF
:1008BC0090F8280088B3401E052884BF0938012809
:1008CC0019D9801F1AD0801E012814D9801E1ED061
:1008DC00001F13D00B380ED0801E0CD0401E0128E8
:1008EC000CD9C01E0DD0401E05D0401E09D0401E94
:1008FC0001D0801E0ED16FF0130A11E06FF0010AC7
:10090C000EE0304601F0CAFD6FF0090A08E06FF006
:10091C001D0A05E06FF0590A02E0BAF1000F02D58A
:10092C00C6F818A401E0C6F8180450461BB0BDE880
:10093C00F08FC36893F82A30002A14BF194323EAB6
:10094C000101994218BF01F0BDBA0020704738B5BB
:10095C0004460D46E06890F82900884207D02B46E3
:10096C0000F007F8002803D4E06880F82950002034
:10097C0032BD072246F23D3120468BE12DE9F84F7E
:10098C0080460846040091461E464FF0000B08BFF7
:10099C006FF0590032D0092C03D298F80010317046
:1009AC002CE000EBD000009004E0083C6D1C082DFE
:1009BC0002D3761C0027002518F80B0001F0BCFEB2
:1009CC008246E8403843C0B201F0B6FE3070C5F143
:1009DC00080019F80B1001F00101C5F107020AFA21
:1009EC0000F0914041EA0007F8B201F0A5FE092C95
:1009FC0006F8010F0BF1010BD7D20098BDE8F28F6E
:100A0C002DE9F84F002604460F009046994608BF82
:100A1C006FF0590037D0092F04D2007888F8000005
:100A2C00084630E00920B1FBF0F0081A009005E010
:100A3C006D1C093FEDB2082D01DB641C0025A05D87
:100A4C0001F07AFE8246A019407801F075FE8346CB
:100A5C00C5F108010AFA05F02BFA01F21043C0B2F5
:100A6C0001F06AFE08F80600B9F1000F07D0C5F1D5
:100A7C0007002BFA00F101F0010009F80600761CC2
:100A8C00092FD5D20098BDE8F28F0000F8B55B1E97
:100A9C00069C072B06460D4639D8DFE803F004B157
:100AAC00526B868A97BA7078012A03D16070B0783D
:100ABC00207002E02070B0786070F71C17F8010B02
:100ACC00A07017F8010BC4F803003E18401DA84293
:100ADC000BD216F8010B401EC4F811000246314629
:100AEC0004F1150001F0ECFD02E00020C4F8110047
:100AFC00D4F80320082A0CD1387888281FD1072075
:100B0C00C4F803000722791CE01D01F0D9FD002078
:100B1C00F2BD0B2A13D30A20C4F803000322791C5C
:100B2C00E01D01F0CDFD0322791D04F10A0001F056
:100B3C00C7FD042207F1080104F10D00E5E7394671
:100B4C00E2E7B51C04222946204601F0B9FD2D1D13
:100B5C0004222946201D01F0B3FD2E1D032231462F
:100B6C0004F1080001F0ACFDF0780028CFD030790A
:100B7C00E072CCE7707807284BD1B61C04223146C2
:100B8C00204601F09DFD307920710006BFD57079AB
:100B9C0060714006BBD5083D2A46B11D04F10A0020
:100BAC0001F08EFDC4F80650B1E70822314620460C
:100BBC00ABE730782070A11C70786070B078207131
:100BCC00F0786071301D00F0C3FEA0E770782060F3
:100BDC00F51CB078207108222946601D01F070FDCB
:100BEC0005F108060822314604F10D0001F068FDFC
:100BFC00206813288BD306F1080004F11501E2E7F5
:100C0C0016F8010F2070042270786070B11CA01CC3
:100C1C007BE701F0C3BB30B514460FF2440285B03C
:100C2C00054603A81368036003AA080A5070917064
:100C3C0001F036F802AB02200090032203A92846EB
:100C4C00FFF768FD002809D4E868007804280CBF79
:100C5C009DF809009DF808002070002005B030BDFB
:100C6C00060000003EB50FF22804256802AB1D609B
:100C7C008DF80A100B0A01F009F98DF809300021E2
:100C8C008DF80B2000910023042201F0ECF83EBDFE
:100C9C0008000000F8B504460F466FF4C640D54373
:100CAC00C1193E2902EA030617D3FF2A0FD06A4660
:100CBC00394600F0FCFF002827D49DF800009DF871
:100CCC000010284040EA06028A421DD000E01A4675
:100CDC0039462046FFF7C6FFF2BDE168C019014452
:100CEC0091F8303091F86E703B402B40334381F8D3
:100CFC003030E168084490F86E10114380F86E10A3
:100D0C000120E16881F8AC000020F2BDF0B59DB087
:100D1C00044606208DF83C000020E16881F8AC0008
:100D2C00012246F201350FA9E368034493F86E30B3
:100D3C001E0018BFFF2B01D000F05FF8401C3E28AE
:100D4C00F2D3022A30D34FF0FF3001F072FA01F0E7
:100D5C00EEFA00284FD4E16809780020042908BF76
:100D6C000120002102AAE3680B4493F86E6037005F
:100D7C0018BFFF2E15D093F8307012F800C0374012
:100D8C002CEA06063E4383F83060E368175C0B449C
:100D9C0093F83060BE4214BFFF26002683F86E60C5
:100DAC00401C491C3E29DED308208DF80800012286
:100DBC00002002A9E368034493F86E30FF2B0CD19A
:100DCC0000F01BF8E368034493F830308B54002395
:100DDC00E6680644521C86F86E30401C3E28E9D367
:100DEC00022A07D34FF0FF3000F01FFC01F09FFAEE
:100DFC00002800D400201DB0F0BD2B181E04360EA8
:100E0C008E54521C8B54521C70477FB504460FF203
:100E1C00A00000F000FC03AB00F042FF0122042014
:100E2C0001F083FA002841D4022803AD1AD1012025
:100E3C00E1680870E6683178A8786B78012906D0EB
:100E4C00022924D0042918BF082924D02DE00093AE
:100E5C0016219DF80C300FF25C02701CFFF7FEF8A7
:100E6C00052020E004280FD19DF80C00322808BF83
:100E7C000220DDD0332807D16878E668012814BF3A
:100E8C00042008203070D5E76FF007000EE00090CA
:100E9C000FF2300202E000900FF238021621701CA3
:100EAC00FFF7DCF8E87884F81504002004B070BD76
:100EBC0002000000504E353331207625642E256417
:100ECC0000000000504E353332207625642E256408
:100EDC0000000000504E353333207625642E2564F7
:100EEC0000000000002150B110214FF44D628242ED
:100EFC00A1BF491E02EBD2725210022AF7DAC8B215
:100F0C00704738B5044639B1491E0AD0491E1BD06A
:100F1C00491E0B291DD902E0E068C0F8B020002062
:100F2C0032BDE068B03042608068FFF7DBFF0546F9
:100F3C00E068D0F8B400FFF7D5FF01462A462046FA
:100F4C00BDE8384000F079BFE068B03082601046F0
:100F5C00EBE76FF0010032BD2DE9F0410446084685
:100F6C004FF48261C01E66180B28154646F20338F2
:100F7C0046F2023100F28C80DFE800F0061B2D33C4
:100F8C003B494F552B5E707A3278954271D02800D0
:100F9C0014BF802700273B46802200F006F900286A
:100FAC0078D43B46802200F0FFF8002872D43570CC
:100FBC005FE071788D425CD0280014BF00231023B1
:100FCC00102246F20D3100F0F0F8002862D4757052
:100FDC004FE0B5704DE029462046BDE8F04100F0E9
:100FEC0028BF002D14BF08230023082246F23831F5
:100FFC004AE0F5701DB902230122002102E0FF2313
:10100C00FF22FF212046BDE8F04100F043BF002D38
:10101C0014BF08230023082235E0002D14BF04233D
:10102C00002304222FE031798D4222D035712046E5
:10103C00BDE8F04110217CE4DDB10023032200F077
:10104C00B4F8002826D40023032200F0ADF80028C1
:10105C0020D44023402246F2053115E04DB1032344
:10106C00032200F0A2F8002814D4032303220AE080
:10107C000DB900200EE00023702200F096F8002835
:10108C0008D40023702241462046BDE8F04101E619
:10109C006FF00100BDE8F08110B50446E068007EF9
:1010AC00012814D002282AD10021204600F0CDFFBF
:1010BC0000282AD4E0680078022820D16068416FAB
:1010CC0008001CD020468847002818D510BD0021E8
:1010DC00204600F0BAFF002817D40022052100F0AA
:1010EC0075F9002811D4E0680078022807D16068EF
:1010FC00416F080003D020468847002805D42046BD
:10110C0001F0CCF9E1680020087610BD10B50FF2A3
:10111C004C0288B0D2E9003406A90FF24802C1E9AA
:10112C00003404A9D2E90034C1E900344FF4FA7157
:10113C00019102AB07210091082206A9FFF7EAFAF8
:10114C00002809D4072805D1072204A902A801F018
:10115C0077FB08B14FF0FF3008B010BD00006C6990
:10116C00626E6663006C69626E66630010B504465D
:10117C00FFF7A8FAE06890F82000012807D04FF09C
:10118C00FF320121204600F0B7FE00280BD41023BB
:10119C00102246F23C3100F008F8002803D4E16834
:1011AC0001200876002010BD4146204672E54FF024
:1011BC00FF32032100F0A0BE2DE9F24FD8B0044657
:1011CC009DF86051639F3420042D1CBF052D062D06
:1011DC0090461E46049040F0A980E06800780828EC
:1011EC0008BF6FF0070000F0AA8001220D2100F06B
:1011FC00EDF8002835D401220E2100F0E7F8002884
:10120C002FD40122032100F0E1F8002829D4002278
:10121C000B2100F0DBF8002823D46FF013090FF238
:10122C00801A0FF2801B052D1CD103A859460322EE
:10123C0001F046FABAF80000ADF80A0000F0BEF86A
:10124C0003A900F0C1F8002826D49DF808008DF8F9
:10125C000B0000F0B3F80DF10A0100F0B5F800280E
:10126C000FD599E0062D0DD10FF23C1000F0D3F9FB
:10127C000197322000900DF1160300F0AAF8002817
:10128C000AD4049034200090019705AB32464146B5
:10129C0000F09AF8002807D548457DD1E16891F80F
:1012AC00281001293CD077E00490062D0FD102289C
:1012BC0058D10FF2F80000F0AEF9019730200090F1
:1012CC0006AB00F086F8002866D406200490BDF822
:1012DC0060019DF86031049900F069F805A8FFF7EA
:1012EC00D5FB002858D4042D12D1062205A902A83A
:1012FC0001F0F6F90F208DF80900019700200090FD
:10130C000023062202A900F05FF8002844D40490C0
:10131C0012A9204601F0A8F8A8BB6FF04F000EE010
:10132C0094F8130400287FF47EAF1BE0589801F06A
:10133C0039F8014611F1010F04D16FF00100C4F826
:10134C00180429E004A80290039705A801900096C0
:10135C0043460122204600F00FFE01281CDB0498B6
:10136C00022801D2002017E0BDF860019DF8603121
:10137C0000F01DF80498411E0DF11500FFF786FBD7
:10138C000028C5D508E0629820B140F2151212A9C8
:10139C0001F096F99DF8140059B0BDE8F08F0000EB
:1013AC000E0000000600000010000000C400ADF8A4
:1013BC005B0112A80090E068027870470197012049
:1013CC00009002AB02227047204659E0204601F003
:1013DC00CEBA012202A9204652E01CB50024019489
:1013EC00049C0094FFF7E8FE16BD00002DE9F043C5
:1013FC000D460FF2840191461F4687B08046D1E915
:10140C00002305A80024C0E90023B9F1040F05D876
:10141C00DFE809F015040303150005AC404601F0A4
:10142C003DF80E9E0F980490002F03960AD0D7F823
:10143C003F000290009707F10F00019006E06FF05B
:10144C00010015E0002002900190009023464A46CE
:10145C002946404600F044FE0546012D07DB314687
:10146C00404601F001F810B96FF04F0000E028463B
:10147C0007B0BDE8F083000000FFFF000F00000084
:10148C00F0B5044604F211409DB0154602781E4694
:10149C0012B96FF0010022E0407850B140208DF875
:1014AC0008002A4601208DF80900022700F055FAA1
:1014BC0005E042208DF8080000F025F801270021F6
:1014CC002046FFF744FA010009D4239801900FAB92
:1014DC00342000907A1900F029FF010002D5C4F8DD
:1014EC0018040EE0441E5EB12298A04238BF6FF083
:1014FC00040006D322460DF13D01304601F0E0F820
:10150C0020461DB0F0BD2A460DF1090001F0D8B8F7
:10151C0010B5044600F0C2FF2046BDE81040002183
:10152C0000F072BD3EB504460FF244000088ADF8E1
:10153C000A0002254FF47A70019002AB0120009052
:10154C0002220DF10A0100F0F2FE01280DD010F17B
:10155C00140F02BFE16891F82810012902D16FF035
:10156C0009003EBD6D1EE5D13EBD00203EBD000014
:10157C000006FEB504466FF00905E0680078042803
:10158C0017D12046FFF7CEFF064616F1060F18BFFF
:10159C00AE423BD10FF278000088ADF80800002372
:1015AC004FF4FA6001900222002000F0BEFE2E469D
:1015BC002CE0022828D1002200F031F8060025D4B6
:1015CC000FF2500000F027F8022700F02CF801224F
:1015DC0002A9204601F045FA0646012E0CDA16F156
:1015EC00140F02BFE06890F82800012801D12E46A4
:1015FC0003E07F1EE9D100E00026012200F00FF885
:10160C00002803D5064601E06FF002063046FEBD09
:10161C0052000000B20000788DF8080070470B21D2
:10162C002046FFF799BC4FF49670019000230020E0
:10163C000090704770B5044688B0E06801780429C2
:10164C000AD1C1698978092906D02046FFF76AFFBB
:10165C000646304608B070BD94F813540021029130
:10166C0002ABC069D0F8031004AAC01D01F038FA0F
:10167C0000220721FFF7D4FF0028EBD4E068C069F3
:10168C00B0F81301029B03904FF496700190002068
:10169C00009004AA03992046FFF78EFD0646012E02
:1016AC0008BF002605D0002E14BF16F1060F6FF0F0
:1016BC000906002DCDD001220721FFF7B1FF00282C
:1016CC00C7D5C7E72DE9F041054686B0E868C06983
:1016DC0020B96FF00100C5F818042CE06FF0090672
:1016EC0039B1284600F0E5FE18B9C5F81864304643
:1016FC0021E0E868C16991F81321521E072A6FF0A6
:10170C0002046FF0130713D8DFE802F00462779F2E
:10171C00C8E14A434A1C53785FEA836C0ED52846CD
:10172C00FFF727FF0446B44202D1284600F0B6FE6C
:10173C00C5F81844204606B0BDE8F08109780029A8
:10174C0004BF117844291ED119001CD1007804283B
:10175C0003D12846FFF7E6FEE4E70FF2B81000F0DD
:10176C00EDF84FF0FF3000F001F90446012C2DDAB2
:10177C00BC4202BFE86890F82800012824D0B8F1D8
:10178C000108EED1CFE71807D2D52846FFF752FF54
:10179C00C8E7007801281CBF02280428C3D1D8E769
:1017AC000FF2741298CA02A9082298C1C069411D8F
:1017BC0000F0D3F80324FFF736FF0A2200F0C4F838
:1017CC000B2803D0641EF6D13446AEE70024AFE7F5
:1017DC000FF25010FFF71FFF02244FF0FF3000F004
:1017EC00CEF80128F2DAB84202BFE96891F8281065
:1017FC000129E9D0641EF0D194E700780428A8D020
:10180C0000F0AFF804008ED40FF21C1000F096F824
:10181C004FF4967000F0AAF80446012C0CDABC4286
:10182C0002BFE86890F82800012803D0B8F101083D
:10183C00EED102E0344600E0002401220B212846C0
:10184C00FFF78AFB00289DD56CE700F08AF80400AE
:10185C00D9D40FF2D80102A8D1E90023C0E90023A2
:10186C00E868C169042200F078F84FF00208FFF72D
:10187C00DAFE062200F068F80446012C0CDABC42B1
:10188C0002BFE86890F82800012803D0B8F10108DD
:10189C00EDD1D2E73446D0E70024CEE70FF2940026
:1018AC00FFF7B9FE02244FF4967000F068F8012897
:1018BC000BDAB84202BFE96891F82810012902D06E
:1018CC00641EF0D12EE730462CE700202AE70FF2F9
:1018DC006802136802A94FF002080B600DF10901B0
:1018EC00C06900F035F8FFF79EFE032200F02CF8DB
:1018FC000446012C0CDABC4202BFE86890F82800C0
:10190C00012803D0B8F10108EDD10CE734460AE701
:10191C00002408E7300000000A040000000000006A
:10192C000000000078000000BA010000010F000068
:10193C00000000000B0000009F0000000088ADF8C4
:10194C0008004FF00208704702A9284601F089B838
:10195C0002780A7042784A7070470DF10A0000F064
:10196C00AFBE00220B212846FFF7F6BA01900023E8
:10197C0000200090022202A9284601F072B80190C2
:10198C00002300200090012202A9284601F069B82A
:10199C002DE9FC4F97B080460D46FEF793FED8F824
:1019AC000C100220087605F2131400262078401E35
:1019BC0008F2144907D0401E042847D9401F23D0F1
:1019CC00401E23D02BE0E8790126082806BFD5F865
:1019DC00030004286FF0010040F00F81002200F09A
:1019EC0017F9D8F80C000078022818D1A8788006CE
:1019FC0005D599F8000010B10526012200E000225F
:101A0C00202100F006F90AE0012608E0012200F08E
:101A1C00FFF895F843000226012808BF032604238B
:101A2C00042246F205314046FFF734F9002800F154
:101A3C00EC8000270E970D970C970B970A97BA46D8
:101A4C002178491E0FA808D0491E042940F2908025
:101A5C00491F3BD0491E4CD015E069788DF83C10DD
:101A6C000DAA297841700FAF297A8170697AC170FB
:101A7C00A97A0171A978417105F11500D5F81110F9
:101A8C0001F018F80E9022980E9B0890CDF804A047
:101A9C0009A807903A461898069031461798059071
:101AAC000A9804900B9803900C9802900D98009053
:101ABC00404600F0C3FB8346BBF1000F5BD51BF126
:101ACC00060F02D14046FFF7E7FA9DE00822691D98
:101ADC0011A800F0F5FD082205F10D0113A800F086
:101AEC00EFFD05F1150015A9FFF732FF0DF1440AC2
:101AFC00C9E70C95D5F83F100A9111B105F10F010A
:101B0C000B9108218DF83C104770122181700FAF9A
:101B1C003421C170562101714021417101208DF891
:101B2C004400FE2111A84170122181703421C17032
:101B3C00562101717821417190218DF84A101221A2
:101B4C00C171C0210172C1214172C2218172C321B4
:101B5C008DF84F10C4210173C5214173C6218DF836
:101B6C005210C721C1730F210174AB214174BDE721
:101B7C006FF0020041E09DF82400082300210022B0
:101B8C0010F0700005D0102805D0202808BF0321C4
:101B9C0002E0012100E002219DF824C05FEA4C70B4
:101BAC0006D50CF00300012814BF012202220AE022
:101BBC0003201CEA000F08BF012304D00CF0030023
:101BCC00022808BF07232078984291D16378002B14
:101BDC0018BF8B428CD1082805D195F84330002BC7
:101BEC0018BF934284D16170082808BF85F8432040
:101BFC0000F012F820B96FF04F00C9F8040004E0AF
:101C0C00700748BF4FF0000B584619B0BDE8F08F75
:101C1C0004214046FEF78DBE2946404600F024BC08
:101C2C002DE9F04104460FF27400007890B00D4697
:101C3C008DF80800164600F033F89846342000F072
:101C4C007AF80746002F27D46A4646F23C3100F05A
:101C5C002EF8002820D49DF8000000F007000100A9
:101C6C0018BF01217A1E511A00EBC10794F8110418
:101C7C0050B943462A4639460DF10D00FEF7C0FE19
:101C8C000746002F07D507E0964238BF6FF00400D7
:101C9C0002D300F04BF838468EE000008800425426
:101CAC004FF0FF300190704702AA46F23A312046BD
:101CBC00FEF7B1BFF0B5044604F2124091B00D46E8
:101CCC0001781646D1B1E168CA6992F813717F1E8A
:101CDC0005D07F1E052F11D9BF1F08D011E09278B7
:101CEC0092060BD50978022903D1807808B1862099
:101CFC0005E06FF00700C4F8180415E088208DF893
:101D0C0008003420019300F016F8002848BFD4F8DE
:101D1C00180409D4441EA64238BF6FF0040003D344
:101D2C00224600F003F8204611B0F0BD0DF10D0174
:101D3C00284600F0C5BC009003AB012202A9204646
:101D4C00FEF7E8BC2DE9F04190B004460E4615466E
:101D5C001F4602A80FF2FC71342200F0C1FC94F86B
:101D6C00110448B90DF109033A4629463046FEF7ED
:101D7C0005FE002801D51FE0284600F007085FEAA1
:101D8C00080118BF012101EBD00794F8110418B118
:101D9C003A463146FFF7B8FB41462046FEF7D7FDE1
:101DAC00002809D44FF0FF30FFF73FFC7A1C00F0FD
:101DBC00BDFA002858BF284610B0BDE8F081F0B538
:101DCC00044604F211408FB0154602781E4612B933
:101DDC006FF059002BE04278D2B1E268D36993F8E6
:101DEC0013717F1E05D07F1E052F11D9BF1F08D080
:101DFC0011E09B789B060BD51278022A03D1C07890
:101E0C0008B18E2005E06FF00700C4F818040EE04E
:101E1C0090208DF80800FFF776FB002000900196CB
:101E2C0000236A1C00F082FA002858BF28460FB025
:101E3C00F0BD10B50FF6200318E07FB50FF61C04AB
:101E4C0002ABD4E90056C3E900568DF80B108DF89F
:101E5C000C2000F01BF800230021009100F002F888
:101E6C0004B070BD052202A9FEF754BC1C6884B0F6
:101E7C0002AA002314608DF80A10032200F006F861
:101E8C0000210091FFF7EFFF04B010BD4FF0FF31C0
:101E9C0001917047F0B50FF2CC7585B0D5E90067AC
:101EAC0002ACC4E900678DF80A108DF80B20FFF71F
:101EBC00EDFF8DF80C30002100910023FFF7D2FFCD
:101ECC0005B0F0BD3EB504460FF2A0700088ADF829
:101EDC0008000D46FFF7E4FE8DF809500020009035
:101EEC000023022200F022FA002803D4E06880F8D4
:101EFC002A5000203EBD00003EB50FF274742568D8
:101F0C0002AB1D608DF80910C3681C78022C18BF39
:101F1C006FF0020114D14C1E032C0FD8DFE804F033
:101F2C00020C020C022483F8201001920021009173
:101F3C0000232246FEF7A9BE0324F4E76FF001014B
:101F4C00C0F8181408463EBD10B504460FF23860B0
:101F5C00008884B00023ADF808000222FFF7A0FE31
:101F6C0002A90020009000F0E2F9002802D4E268F7
:101F7C000221D17504B010BDF0B587B004460E46F1
:101F8C0017461D4602A80FF20461102200F0A8FBB0
:101F9C0002A8032E47702AD0042E08D0062E1CBF90
:101FAC00072E082E1FD0B6F1FF3F27D003E0E168C3
:101FBC00097801291FD086700C9E2DB13246294616
:101FCC000DF10B0000F07CFB0F980E9F0D9D019006
:101FDC002B4638680090F21C00F0A8F900285CBF72
:101FEC00386028780EE0E1680978042903D194F868
:101FFC0015148907DFD46FF0020001E06FF00100C7
:10200C00C4F8180407B0F0BD10B5044692B0E068EF
:10201C000078082811D10FF2845000F052F80028F3
:10202C0011D4032802D39DF8120008B900200AE04D
:10203C000FF26C5100F02BF803E00FF2386000F057
:10204C0032F800F074F912B010BD10B5044692B01D
:10205C00E068007808280FD10FF2485000F031F8F2
:10206C00002812D403280FD39DF8120060B10FF290
:10207C00385100F00CF803E00FF2FC5000F013F8AC
:10208C0000F055F9002800DD002012B010BD0A68E0
:10209C0003A8002302604FF0FF30019003220020C0
:1020AC00009003A970470088ADF808008DF809105E
:1020BC004FF0FF300190002300200090022202A973
:1020CC00704700788DF8080004AB4FF0FF3001909A
:1020DC0001223420009002A92046FEF71BBB000011
:1020EC002DE9F043A1B080460D46164699460FA83F
:1020FC000FF28851442200F0F3FA022D0FAF0CBFFF
:10210C00012100210424042E797015D8DFE806F093
:10211C0051033D4F51000021B9F1000FB9700BD0A4
:10212C00012D09D1F87840F00100F87004224946DD
:10213C0010A800F0C5FA0824289949B1F87840F0A5
:10214C000200F8700A220FA8001900F0B9FA0A343C
:10215C00DDF8A890B9F1000F1CBF2999002909D00E
:10216C00F87840F00400F8704A460FA8001900F007
:10217C00A7FA4C442C9800F05CF822460FA9404674
:10218C00FEF7C8FA070019D550E00121B9F1000F8C
:10219C00B970D1D0012DCFD1F87840F00100F87092
:1021AC000522494610A800F08BFA0924C4E7022145
:1021BC00ECE76FF00100C8F8180437E00DF10808DF
:1021CC0098F8010000281CBF2B9C002C2CD004F28A
:1021DC00131008214670017004F13F060A22357174
:1021EC000DF10A01204600F06BFA04F10A009DF88B
:1021FC0014100170122F9DF8151041709DF81610D7
:10220C00817098F80F10C1709DF81810017109D3E6
:10221C00A7F1110232600DF1190104F10F0000F069
:10222C004FFA01E00020306098F8010021B0BDE8C1
:10223C00F083019002AB3420009070472DE9F043FD
:10224C00B1B004460D46914698460FA80FF25C318A
:10225C00882200F045FA85210DF13D00002600F0A2
:10226C006BFC0FAFB9F1000F7D7005D0062249460B
:10227C000DF13E0000F024FA399919B1122211A87F
:10228C0000F01EFA3A9921B10A220DF1560000F025
:10229C0017FAE06800783B993C9D012818BF082884
:1022AC0006D175B12A4618A800F00AFA2E4608E0A5
:1022BC0087F8245025B12A460DF1610000F000FA90
:1022CC006E1CE0680078012818BF08280CD00FA8F5
:1022DC003044389F80F8247027B13A464146253067
:1022EC0000F0EEF9781C86194098FFF7A2FF06F172
:1022FC0024020FA900F01BF8002813D43F9911B148
:10230C009DF808200A70441E3E98611E884238BF12
:10231C006FF0040006D33D9822460DF1090100F040
:10232C00CFF9204631B0BDE8F083009002A92046D9
:10233C00FEF7F0B910B50446062A084605D3062266
:10234C000FF2F02100F07CFA18B14FF0FF30C4F816
:10235C00180410BDF8B51D46352D06460C4617461B
:10236C001CD2681CF0702A46C5F1FF00307139464A
:10237C00D4207071B01D00F0A3F92C20002102E0D4
:10238C007A5C801A491CA942FAD371198871002011
:10239C00C87105F1080020600020F2BD6FF05900F3
:1023AC00F2BD000001B49DF80000012806D00228FF
:1023BC0017D0032804D0072815D01FE000201FE0F9
:1023CC009DF80100401E032818D8DFE800F0020435
:1023DC000608032014E0062012E0072010E0082075
:1023EC000EE004200CE09DF80100022802D0032826
:1023FC0002D003E0012003E0022001E04FF0FF30A7
:10240C0001B0704711B1012904D007E0C068BC309D
:10241C00406826E0C068D0F8BC00FAE71EE0000077
:10242C00491E07291AD8DFE801F007130A0A0A0A1D
:10243C0004160FF20C2014E00FF20020FBE7C0682A
:10244C00007804280CBF0FF208200FF20020F2E7EE
:10245C000FF2F410EFE70FF2EC10ECE76FF0010065
:10246C00704710600020704770B50D00044601D114
:10247C00002070BDE068C06908B1FEF7BEF840F2FC
:10248C0015163046FEF7ACF8E168C86128B1324643
:10249C00294600F015F9E068C06970BD10B5044616
:1024AC00E068C06920B1FEF7A8F8E1680020C861B7
:1024BC0010BD80B5C0680B46C169002918BF002B40
:1024CC0001D1002002BD40F21512184600F0B8F9F7
:1024DC00401E8041C00F02BD38B504460D46C420D5
:1024EC00FEF77EF8E06028B300F1240100220D60B5
:1024FC0000F8172B02700122427000200871002294
:10250C00E06800F11C010A6001220A71002180F8C8
:10251C00AC106E303E2100F00FFBE06800F1B00112
:10252C004FF4AF720A6067224A6034228A6000223C
:10253C00CA600A6132BD10B50446FFF7AFFFE06810
:10254C00D0F8BC0008B1FEF758F8E068BDE81040C0
:10255C00FEF753B8900000000000000000000000DF
:10256C00000000000000000000000000000000005F
:10257C00000000000000000000000000000000004F
:10258C00000000000000000016F000004A000000EF
:10259C00000000000000000000000000040000002B
:1025AC004401010004000000520101008C000000F5
:1025BC00000000000000000000000000000000000F
:1025CC0000000000000000000000000000000000FF
:1025DC0000000000000000000000000000000000EF
:1025EC0000000000000000000000000000000000DF
:1025FC0000000000000000000000000000000000CF
:10260C0000000000000000000000000000000000BE
:10261C0000000000000000000000000000000000AE
:10262C00000000000000000000000000000000009E
:10263C00000000000000FF00FF000000010000008F
:10264C000302000003020100010000000100000071
:10265C0004030201000000003201000032020000FD
:10266C000000000032050000000000001200000015
:10267C00140000004400000052000000560000004E
:10268C00000000000000000000000000000000003E
:10269C00000000000000000000000000000000002E
:1026AC00000000000000000000000000000000001E
:1026BC00000000000000000000000000000000000E
:1026CC0062B38B0708D0521E11F8013B00F8013B96
:1026DC0000F024808B07F6D1830740F0208000BFE8
:1026EC00103A07D330B4B1E83810103AA0E83810DB
:1026FC00F9D230BC530724BFB1E80810A0E8081089
:10270C0044BF51F8043B40F8043BD20724BF31F8D6
:10271C00022B20F8022B44BF0B7803707047083A49
:10272C0007D3B1E80810083A40F8043B40F804CB52
:10273C00F7D25307E4E700000FF20401085C70477E
:10274C00008040C020A060E0109050D030B070F0FD
:10275C00088848C828A868E8189858D838B878F86D
:10276C00048444C424A464E4149454D434B474F49D
:10277C000C8C4CCC2CAC6CEC1C9C5CDC3CBC7CFC0D
:10278C00028242C222A262E2129252D232B272F29D
:10279C000A8A4ACA2AAA6AEA1A9A5ADA3ABA7AFA0D
:1027AC00068646C626A666E6169656D636B676F63D
:1027BC000E8E4ECE2EAE6EEE1E9E5EDE3EBE7EFEAD
:1027CC00018141C121A161E1119151D131B171F16D
:1027DC00098949C929A969E9199959D939B979F9DD
:1027EC00058545C525A565E5159555D535B575F50D
:1027FC000D8D4DCD2DAD6DED1D9D5DDD3DBD7DFD7D
:10280C00038343C323A363E3139353D333B373F30C
:10281C000B8B4BCB2BAB6BEB1B9B5BDB3BBB7BFB7C
:10282C00078747C727A767E7179757D737B777F7AC
:10283C000F8F4FCF2FAF6FEF1F9F5FDF3FBF7FFF1C
:10284C000300002013F0030F09D0521E22BF13F80F
:10285C00010B11F801CBB0EB0C00F3D07047121F39
:10286C0022BF53F8040B51F804CB6045F7D0121D6E
:10287C000AD200BA9CFA8CFCB0EB0C0038BF6FF09B
:10288C00000088BF01207047521E22BF13F8010BB5
:10289C0011F801CBB0EB0C00F6D0521C08BF10465F
:1028AC007047000000B583B00821ADF8001001900E
:1028BC000521ADF802106846DFF8DC11096888477D
:1028CC0007BD10B5040084B008BF6FF0010019D02B
:1028DC000820ADF800000420ADF802000820DFF855
:1028EC00B811096801906846884708B9029810B970
:1028FC006FF04F0006E0DFF8A41144600A68026034
:10290C000860002004B010BD10B5044600F04BFF69
:10291C00206028B9BDE810400FF2881000F0B3BF5A
:10292C00DFF87801006820B9BDE81040DFF87001CD
:10293C00C7E710BD38B50446DFF8605103E0016805
:10294C002960FFF7AFFF28680028F8D12046BDE8C2
:10295C00324000F032BFDFF8442112685268D2686E
:10296C000021104710B1416809690847704710B53C
:10297C0000F08CF89B6D1C0002D0BDE8104018478D
:10298C006FF00201C0F81814002010BD10B50446F9
:10299C0000220521FFF7EBFF002832D4012205218C
:1029AC0000F072F800282CD40122072100F06CF8FA
:1029BC00002826D400F066F8002822D401220C212D
:1029CC0000F062F800281CD401220E2100F05CF803
:1029DC00002816D40022082100F056F8002810D444
:1029EC000022092100F050F800280AD400F010F859
:1029FC008169080003D02046BDE81040084700F06C
:102A0C0001F810BD6FF00200C4F8180400207047E4
:102A1C000020C4F818046068704730B583B000F02B
:102A2C002CF8A46A250003D000F008F8A0473EBD9E
:102A3C006FF00201C0F8181400203EBD079D0195EF
:102A4C00069D009570470021C0F818144168C96AAA
:102A5C000A0018BF08476FF00201C0F818140020D4
:102A6C00704730B583B000F008F8246B250003D014
:102A7C00FFF7E4FFA0473EBDDAE70024C0F8184496
:102A8C004468704701220A21204670E70023C0F8F1
:102A9C001834436870470000240500207817002084
:102AAC00A8B300004943616C6C5F6D616C6C6F6323
:102ABC000000000030B581B104780123E50648BF61
:102ACC000223A50648BF5B1C640648BF5B1C8B42F7
:102ADC0003D2C91A1160184430BD0020106030BDFB
:102AEC00F8B50E46072E054617461C4602D00A2E90
:102AFC0009D019E08820387007222946781CFFF786
:102B0C00DFFD08200EE08820387003222946781C4F
:102B1C00FFF7D6FD882038710722E91C781DFFF7D6
:102B2C00CFFD0C202060F1BD324629463846FFF718
:102B3C00C7FD2660F1BD0000002200F0F5BE0000CC
:102B4C002DE9F04FA1B0824601AE002017461D467C
:102B5C007160B0620DF144090AE017F8011B70684E
:102B6C00D0470028706000F0B382B06A401CB0629D
:102B7C003878010001D1B06AACE22528EDD10020F3
:102B8C0030617061B061F0613062706201E040F000
:102B9C00010017F8011F2029F9D023290DD02B296A
:102BAC0004D02D2906D030290AD00CE040F00200C8
:102BBC0080B2EEE740F00400FAE740F00800F7E7D7
:102BCC0040F01000F4E72A290ED12968296051F849
:102BDC00042B2960002A326304D5514240F00400D2
:102BEC00316380B27F1C13E0002131630BE0316B49
:102BFC006FF00043994205D001EB810302EB4301D6
:102C0C00303931637F1C3A78A2F130010A29EED3B6
:102C1C0039782E2903D04FF0FF31F1621FE017F8FD
:102C2C00011F2A2907D1296829607F1C51F8042B20
:102C3C002960F26213E00021F1620BE0F16A6FF09F
:102C4C000043994205D001EB810302EB430130397B
:102C5C00F1627F1C3A78A2F130010A29EED3B086DA
:102C6C000FF6EC20397800F08FFE08B117F8010B45
:102C7C008DF83A009DF83A00682802BF3978682927
:102C8C00622005D06C2804BF38786C2803D17120E1
:102C9C008DF83A007F1C11A8F06017F8014BB4F1C5
:102CAC00250024D02038022840F2C380133800F0CD
:102CBC00E7800B3800F05481401E00F02B81401E41
:102CCC00022840F2B680001F00F02481401F00F063
:102CDC008180401E00F0D480401E26D0C01E0BD038
:102CEC00801E00F0CD80C01E00F0CA8042E125207D
:102CFC008DF84400012046E12868286050F8048BC8
:102D0C002860C6F80880F46A002C04D5404600F010
:102D1C0047FE044607E022460021404600F05CFED8
:102D2C0008B1A0EB080474612EE129682960002227
:102D3C0051F8040B29604FF03C0E0021CDE9000145
:102D4C0011A8B060DDE900019142F46808BF90421F
:102D5C0001D1F26AC2B100F00F033033DBB23A2B6F
:102D6C00A8BF2733AEF101020009A354964640EAEE
:102D7C00017009090022914208BF904204D0B26848
:102D8C0004EB0E039A42E6D304EB0E01B160CEF1D4
:102D9C003C00F16A7061884207DA081AF0614FF65C
:102DAC00EF71B08E0840B086EEE0002940F1EC8067
:102DBC0096F8341001F01401102940F0E580316BC5
:102DCC003269891AF269891A081A0128C0F2DC8062
:102DDC00F061D9E09DF83A0062281AD0682806D034
:102DEC006A280CD06C281CD0712808D019E02868EF
:102DFC00286050F8041B2860B06A0880C4E028687A
:102E0C00286050F8042B2860B06AC117C2E9000191
:102E1C00BAE02868286050F8041B2860B06A087073
:102E2C00B2E02868286050F8041B2860B06A08607B
:102E3C00AAE02868C01D20F007022A60D2E9000130
:102E4C0008322A60CDE90001002902D530692D2114
:102E5C0009E0B08E810702D530692B2103E0C00751
:102E6C0005D53069202109F80010401C306111A8EB
:102E7C0031690844B0602146684600F0EBF983E004
:102E8C009DF83A006C280DD0712818BF6A2809D11A
:102E9C002868C01D20F007022A60D2E90001083220
:102EAC002A6005E02968296051F8040B296000218B
:102EBC00CDE900019DF83A00682803D1DDE9000155
:102ECC0080B20BE0622803D1DDE90001C0B205E05D
:102EDC00742818BF7A2804D1DDE900010021CDE95E
:102EEC00000196F83400000731D5DDE900230020FD
:102EFC00834208BF82422AD044F02000782826D191
:102F0C003069302109F80010401C411C316109F86E
:102F1C0000401CE09DF83A00294600F0DEF8CDE9AF
:102F2C000001DDE9002300218B4202DA30692D21FA
:102F3C0009E0B08E810702D530692B2103E0C00770
:102F4C0005D53069202109F80010401C306111A80A
:102F5C0031690844B0602146684600F0F5F813E08A
:102F6C00012030612868286050F8041B28608DF817
:102F7C00441009E025208DF84400012030611CB17B
:102F8C0089F8014002203061306B3169401AF169D7
:102F9C00401A7169401A316A401AB169401A716A53
:102FAC00A0EB010896F83400400711D42020B8F1AA
:102FBC00010F8DF840000BDB4446012310AA694633
:102FCC00504600F0AEFB002840F08280641EF4D125
:102FDC00D6F810B0BBF1000F11AC0CD014F8011BDB
:102FEC007068D0470028706072D0B06A401CBBF18A
:102FFC00010BB062F2D130208DF84000F469012C45
:10300C0009DB012310AA6946504600F08AFB002810
:10301C005ED1641EF5D1D6F814B0B468BBF1000FC4
:10302C000CD014F8011B7068D047002870604FD08A
:10303C00B06A401CBBF1010BB062F2D130208DF8AC
:10304C004000346A012C09DB012310AA6946504662
:10305C0000F067FB00283BD1641EF5D1B0687169A4
:10306C00D6F818B04418BBF1000F0BD014F8011BA4
:10307C007068D047706058B3B06A401CBBF1010B4C
:10308C00B062F3D130208DF84000746A012C08DB5B
:10309C00012310AA6946504600F043FBC0B9641ED8
:1030AC00F6D196F8340040077FF562AD2020B8F1D8
:1030BC00010F8DF84000FFF65BAD012310AA6946A5
:1030CC00504600F02EFB18B9B8F10108F5D14FE5C8
:1030DC004FF0FF3021B0BDE8F08F622826D0682871
:1030EC001DD06A2808D06C2827D0712804D07428E9
:1030FC0023D07A280CD020E00868C01D20F00700EF
:10310C000860D0E900230830086019461046704763
:10311C000A680A6052F8040B0A60002170470A68BA
:10312C000A6052F8040B0A6000B20BE00A680A60ED
:10313C0052F8040B0A6040B204E00A680A6052F8C4
:10314C00040B0A60C11770472DE9F3430546084686
:10315C002F696F2808BF082405D041F02001782979
:10316C0014BF0A2410243C26D5E90023642818BF78
:10317C0069289046994606D100218B4203DAD8F192
:10318C00000869EB49090020814508BF80450CD136
:10319C00286B50B9082C38D195F83800000734D575
:1031AC0030203B2687F83B002FE0701E009006462F
:1031BC00404649462246E31700F03AFC02F1300043
:1031CC00C0B23A2803DB9DF8041051390818B855E1
:1031DC00494640462246E31700F02AFC80468946C1
:1031EC000020814508BF804503D0E868B9198842A2
:1031FC00DBD3082C09D195F83800000705D5B85D4C
:10320C00302802D0761E3020B855B919E960C6F1C5
:10321C003C00296BA861884208DA081A28624FF62C
:10322C00EF71288F08402887BDE8F38300290ED55D
:10323C0095F8381001F01401102908D1696B6A69EE
:10324C00891A2A6A891A0E1A012EA8BF2E62BDE8A5
:10325C00F38300002DE9F34F8BB0D0E90089006BAC
:10326C00002801AF48BF062005D404BF41F0200060
:10327C00672802D101200B99086340F2FF720B986A
:10328C004168C1F30A50904220D1080302BF0B9849
:10329C00006800280AD10B99032088619DF8300042
:1032AC0061381A2858D30FF2BC4109E00B9903205E
:1032BC0088619DF8300061381A284AD30FF29C417E
:1032CC000B98C0680322FFF7FBF9FFE0012807DA2F
:1032DC000B9800F024FC012802DB00230026ECE014
:1032EC000B9ADFF854B1526840F2FE3161F31E5272
:1032FC000B994A6040F2FE31401A00B247F29751E6
:10330C0048434E4990FBF1F64046494600220023C3
:10331C0000F028FC36B238BF89F00049C6F1070727
:10332C00012F92461BDBF80707D552465B464046F9
:10333C00494600F02FFC8046894650465946524675
:10334C005B467F1000F026FC002F82468B46EAD1AC
:10335C0026E00FF20441B3E70FF20441B0E77F42DD
:10336C000024374D12E0F80707D552465B4620463D
:10337C00294600F00FFC04460D465046594652466D
:10338C005B4600F007FC7F1082468B46002FEAD18B
:10339C004046494622462B4600F0CEFC80468946E4
:1033AC009DF830000B99DFF89CB0096B40F02005BC
:1033BC00662D0CBF06F10A0006204718142FA8BF73
:1033CC00132730208DF804000DF10504012F3BDB91
:1033DC004046494600F0DCFD014604F10802042396
:1033EC004FF00A0CB1FBFCFC0CEB8C04A1EB440180
:1033FC00303102F8011C0A21BCFBF1FE0EEB8E04ED
:10340C00ACEB440430345B1E714602F8024DE7D13C
:10341C00083F012F02F10804D8DB00F0CFFD024673
:10342C000B464046494600F0D7FD00225B4600F0B3
:10343C00B1FB80468946CBE700002440A086010002
:10344C000000F03F84D797410DF10500201A0DF1D3
:10345C00050702E0401E761E7F1C39783029F9D012
:10346C00662D08BF711C03D0652D0CBF01210021F6
:10347C000B9A126B8B181BB29842B8BF03461BB247
:10348C0019001AD4814204DA785C3528A8BF392097
:10349C0000DA30207A18521E00E05B1E12F8014947
:1034AC00491E8442F9D0392802D1785C401C7854EA
:1034BC00002902D57F1E5B1C761C36B29DF830109D
:1034CC000B9800961BB23A4600F003F80DB0BDE81D
:1034DC00F08F2DE9F043054685B01F46D5F83080B6
:1034EC00012F8946164602DA01270FF27C2649F095
:1034FC002000BDF93040662808BF641C16D0672830
:10350C0040F0968014F1040FC0F27F8044457CDAC1
:10351C0095F83800641C000702D44745B8BFB8467C
:10352C0024B2B8EB040848BF4FF0000824B2E86896
:10353C00A969012C27DA4A1C30234354B8F1010F36
:10354C0003DA95F83800000703D5E9682E20885473
:10355C00521C18EB040FB8BFC8F1000424B260422F
:10356C006862A044B845AA61B8BF4746E868AB6931
:10357C003FB2EF613A4631461844FFF7A1F8A8EB89
:10358C000700A862B6E022469742084418DA3A4689
:10359C003146FFF795F8A9697918E01BB8F1010FCE
:1035AC00A961686203DA95F83800000705D5EA6866
:1035BC002E205054E869401CE861C5F8288099E039
:1035CC003146FFF77DF8A86920183F1BB8F1010FB1
:1035DC0003DA95F83810090703D5EA682E2111543F
:1035EC00401CA8613FB2B845B8BF4746E868AB6914
:1035FC003FB23A4631191844FFF762F8A8693818F7
:10360C00A861A8EB0700686274E0474504DA95F8F6
:10361C003810090758BFB846B8F1010848BF4FF039
:10362C000008B9F1670F0CBF4FF065094FF0450961
:10363C00A969EB68481CA861B8F1010F16F8012BB9
:10364C005A5403DA95F83810090719D5EA68431C5F
:10365C00AB612E211154B8F1010F11DB7F1E3FB26B
:10366C00B845B8BF4746E8683FB23A4631461844B9
:10367C00FFF726F8A8693818A861A8EB070068625C
:10368C00E868A9690144200081F8009003D42B203C
:10369C0048708E1C03E02D224A708E1C6442002759
:1036AC000DF1080808E00A22684600F055FD019863
:1036BC0008F8010B7F1C009C21B20129F3DA022FC0
:1036CC0006DA49F02000652804BF302006F8010B0B
:1036DC004FB9302006F8010B07E07F1E02A8C05D31
:1036EC00303006F8010B012FF7DAE868A9690844B5
:1036FC00301AE86195F8380000F0140010280DD14C
:10370C006869A9690818696A0818E9690818A96A32
:10371C000818696B8842BCBF081A286205B0BDE85E
:10372C00F083F8B504460D4616461F46002077B1C7
:10373C0016F8011BA868A047A86030B1E86A401CC5
:10374C00E86200207F1EF3D1F2BD4FF0FF30F2BDD6
:10375C00686A6C747A4C00006E616E004E414E00CB
:10376C00696E6600494E460030000000E0B5082145
:10377C00ADF800100190042100F00FF808B1002002
:10378C000EBD02980EBD00B583B00821ADF8001037
:10379C000190052100F001F807BDADF80210684654
:1037AC0006490968084780B50220FFF7DFFF18B10A
:1037BC00012101700021417002BDE4E724050020C5
:1037CC00DFF800F041AC0110DFF800F0CDA00110E3
:1037DC00DFF800F0D9C10110DFF800F0C1C1011011
:1037EC00DFF800F009B70110DFF800F025B1011087
:1037FC0070474748FFF7E4BF10B500F0FAFC4548A6
:10380C0000F0EFFC444800F0F0FC444800F066FD8A
:10381C00012000F046FE4FF4E13000F089FE1F203D
:10382C0000F09DFE142000F07AFE142000F07AFEC9
:10383C00012000F07AFE032000F0B8FE0CE000F04E
:10384C0098FEC0B200F0A3FE2046441E0028F6D11C
:10385C0000F0A8FE00F0BEFD4FF0FF312C48FFF742
:10386C00B3FF00F0B0FD00F07DFE0446ECE770B550
:10387C0004460D46002603E0A05D00F088FE761C91
:10388C00AE42F9DB70BD10B5044600F089F881B288
:10389C002046BDE81040EAE710B584B004466846FF
:1038AC000C21FFF749F9234618A20B216846FCF7B7
:1038BC00D5FB6846FFF7E7FF1FBD10B598B008238E
:1038CC003C22002109A8FFF783FF154C154904F190
:1038DC005000109000234FF48060119009AA03202F
:1038EC000F902046FFF780FF082324220021684612
:1038FC00FFF772FF01208DF818006A464FF48A60BA
:10390C0000212044FFF76CFF18B010BD25640000A7
:10391C00EC2F0020FD370000FF370000BCB000008A
:10392C009C2B002005380000401810F0030308D031
:10393C00C91A1FD3DB0748BF00F8012D28BF20F898
:10394C00022D130030B414461546103928BF20E957
:10395C003C00FAD8490728BF20E90C0048BF40F8C2
:10396C00042D890028BF20F8022D48BF00F8012D36
:10397C0030BC7047C91818BF00F8012DCB0728BF01
:10398C0000F8012D704700000278C9B28A421AB1C2
:10399C001CBF10F8012FF9E718BF0020704700007A
:1039AC0000F10103810704D010F8011B89B18107D4
:1039BC00FAD10268B2F10131914311F0803F04BF9A
:1039CC0050F8042FF6E710F8011B11B110F8011B89
:1039DC00FBE7C01A70470000C9B2830706D0521E1D
:1039EC0022D310F8013B9942F7D11FE0083A13D3C8
:1039FC0002F1040241EA012141EA014150F8043B81
:103A0C00121F21BF4B40A3F1013C2CEA030C1CF00C
:103A1C00803FF3D0C9B2001F083210F8013B521E90
:103A2C0028BF91EA030FF8D818BF0120401E704739
:103A3C001B4213D1094236D12AB18446B0FBF2F0B5
:103A4C0002FB10C27047FCF715BDFCD3002200230B
:103A5C0070470B000200002100207047904271EB70
:103A6C00030CF6D370B5B1FA81F4B3FA83F52C1BC1
:103A7C00A340C4F1200532FA05F63343A2405FF0AF
:103A8C000046E64002E05B085FEA3202841A71EB02
:103A9C00030524BF204629467641F4D302000B00CF
:103AAC003000002170BD012ACFD970B5140C20D084
:103ABC00B1FA81F4B2FA82F5C4F120046419B4F1BC
:103ACC002006D6D3B2405FF00044F440002502E05B
:103ADC0052085FEA3303C61A71EB020E24BF30465C
:103AEC00714664416D41F3D302000B0020002900A4
:103AFC0070BD0C46B1FBF2F102FB11452D0445EAF9
:103B0C001045B5FBF2F402FB145580B240EA0545B2
:103B1C00B5FBF2F002FB105240EA044070BD30B429
:103B2C00436803F000420121C3F313034360002BED
:103B3C0004BF0368002B08D10DE00368DD0F45EAD4
:103B4C00440444605B000360491E4468E302F4D5FE
:103B5C00C4F31303436043681A434260084630BC05
:103B6C00704700004FF4001C1CEB410F94BF1CEB82
:103B7C00430F09E041EA030C50EA4C0C52EA0C0CDE
:103B8C0003D2994208BF9042704714BF8B428242C5
:103B9C0070470000B0B581EA030C0CF0004C40F209
:103BAC00FF7515EA11541DBF15EA1357AC42AF420D
:103BBC0039E0E41923EA455343F48013C90241F078
:103BCC00004141EA505EC7021100A7FB0202002827
:103BDC004FF00000EEFB01204FF00001E3FB07214A
:103BEC0018BF42F00102401800214941E3FB0E01CD
:103BFC00A4F580640F0302D252004041494154F1B4
:103C0C0001046CDD470872F1004250F1000051EBE9
:103C1C000451A1F580115CBF41EA0C01B0BD4CEA26
:103C2C0005510020B0BD05EA1357AC4214BFAF429A
:103C3C0041E050EA410E1CBF52EA430E02E06146DD
:103C4C000020B0BD24423C441BD15FEA070EF6D0E5
:103C5C00090302BF01460020AEF1140EB1FA81F740
:103C6C00AEEB070401FA07FE0C37C7F1200100FA8E
:103C7C0007F7C8404EEA000E23EA455343F480137D
:103C8C00A2E733F00043B3FA83F704BFB2FA82FE23
:103C9C0077440B3FE41BB7F1200E2FBF02FA0EF353
:103CAC00BB40C7F1200E22FA0EFE38BF43EA0E03CA
:103CBC00BA40641C82E750EA410E14BF52EA430E2C
:103CCC006FF000014FF4001717EB430F8ABF194632
:103CDC0017EB410FB5E74CEA05510020B0BDD4F10C
:103CEC000104B4F120070FDAC4F12007520828BFF1
:103CFC0042F0010210FA07F501FA07F7E1BF2A4377
:103D0C00E0403843E1400FE0352C98DCC7F120044B
:103D1C0052EA400220FA07F218BF42F0010231FACF
:103D2C0007F0A1400A43002172F1004250F100005B
:103D3C0051EB0C01B0BD00002DE9F04140F2FF75D4
:103D4C0081EA030C0CF0004C15EA11541DBF15EA66
:103D5C001357AC42AF42E9E0BC41C1F31301C3F3CA
:103D6C001303801A994143F4801304D2641E40005B
:103D7C00494180185941C90241EA5051B1FBF3F64F
:103D8C0003FB1611A2FB0675D7EBC020A94102D28A
:103D9C00761E80185941C90241EA5051B1FBF3FE1D
:103DAC0003FB1E11A2FB0E75D7EBC020A94103D259
:103DBC00AEF1010E80185941890241EA9051760505
:103DCC0046EA8E2EB1FBF3F603FB1611A2FB067529
:103DDC00D7EB8020A94102D2761E80185941C90226
:103DEC0041EA50514EEA060EB1FBF3F603FB1611F5
:103DFC00A2FB0675D7EBC020A94102D2761E801813
:103E0C005941C90241EA5051B1FBF3F703FB1711B9
:103E1C00A2FB0735D3EBC020A94167F100070CBF0B
:103E2C00004247F0010766F3D5274FEA1E31B80868
:103E3C0014F5806414DDBD0775F1004250EB0E5093
:103E4C0051EB045111F5801F5CBF41EA0C01BDE838
:103E5C00F0814CF07F6141F0E0410020BDE8F08141
:103E6C00BD076D0840EA0E5041F48011D4F10104F5
:103E7C00B4F120060ADAC4F120060200E04001FA8F
:103E8C0006F3E1401843B24015430EE0342C14DC29
:103E9C00C6F1200445EA40056D0820FA06F21543E8
:103EAC0021FA06F0A1400D43002175F1004250F1BA
:103EBC00000051EB0C01BDE8F08100205FEA0C0121
:103ECC00BDE8F081CFB992185B41B3FA83F704BF18
:103EDC00B2FA82F6BF190B3FB7F120062FBF02FAD8
:103EEC0006F3BB40C7F1200622FA06F638BF33436F
:103EFC00BA401CB1E419641E2FE77F4231F0004137
:103F0C00B1FA81F404BFB0FA80F6A4190B3CB4F1F9
:103F1C0020062FBF00FA06F1A140C4F1200620FABA
:103F2C0006F638BF3143A0403C1B16E7AC421ABF23
:103F3C0005EA1357AF4214E050EA41061CBF52EA9F
:103F4C004306BFE750EA4107304661461CBF41EAD1
:103F5C000551BDE8F08152EA430C08BFC143BDE8EE
:103F6C00F08100204FF4001616EB410F98BF16EBB2
:103F7C00430F08BF16EB410F24BFC14305E016EBFE
:103F8C00430F0CBF61464CEA0551BDE8F0810000BF
:103F9C00400D40EAC120490080F00D8040F0004007
:103FAC00490DA1F58061491C05D4D1F11F0154BF05
:103FBC00C840C01770474FF000007047010000BFA9
:103FCC0009D0B0FA80F18840C91CC1F5846109059B
:103FDC0001EBD02140057047F0B44FF0004591EA59
:103FEC00030F44BF6B4000F003BB00BF841A71EB9E
:103FFC00030604D26E40001BB141121973414FF4F9
:10400C00001C1CEB410F34BF7CEB430684E00C0D11
:10401C00A4EB1356362E7DDC012E43DC45EAC3237C
:10402C0043EA525312BFD20292025B08240545EABE
:10403C00C12141EA5051D2EBC020994125D407D17E
:10404C00B0FA80F610FA06F164D00020203608E0B1
:10405C00B1FA81F6B140C6F1200220FA02F2114306
:10406C00B0404FEAF474B4EB465434F001064FEA16
:10407C0074040AD8D6F50016760D04F00044F0400E
:10408C0061FA06F25040F1404840C00A40EA415003
:10409C0021F0004128BF5FEA500550F1000044EBCD
:1040AC00D12137E045EAC323DB0A45EAC121C90A1D
:1040BC00B6F120050EDD42EA0242120CC5F12006D3
:1040CC0003FA06F6EB4042EA06056D42984161F1AF
:1040DC0000010DE062FA06F5F240554063FA06FC69
:1040EC0082EA0C02F3405A406D42904161EB0301AD
:1040FC0011F4801F05D1641E620502D06D00404191
:10410C00494121F48011430875F1004350F100003E
:10411C0041EB0451F0BC70471CEB410F15D223F05E
:10412C00004352EA43060BD04FEA4C0CBCEB410F58
:10413C0004D80C0D661E342EB7DDEBE7801A9941BE
:10414C0050EA410608BF0021E4E708BF1CEB430F0F
:10415C0028BF6FF00001DDE791FBF2F303FB1211B6
:10416C00C0E9003170470000DFF800F049C10110D0
:10417C00DFF800F019C20110DFF800F03DC10110AA
:10418C00DFF800F0DDB20110DFF800F029AF01100C
:10419C00DFF800F099B2011020B108233022002181
:1041AC00FFF7EABF704710B51620FFF7F1FFDFF8F5
:1041BC00F842207818B104F10800FFF701FB6068A1
:1041CC00010000D0FCE010BD80B51D20FFF7E0FF22
:1041DC00DFF8D8020068010002D0BDE802400047B9
:1041EC0001BDDFF8C41248607047DFF8C0120860E8
:1041FC00704710B5DFF8B0428AB0207880B9012042
:10420C0020700823242200216846FFF7E5FA0120DC
:10421C008DF818006A46002104F10800FFF7E0FA57
:10422C000AB010BDF8B50446DFF88452082C24BF40
:10423C00DFF88052083C2F1D6600D7F800C04FF005
:10424C00030E0EFA06FE2CEA0E0C01FA06F646EAEE
:10425C000C063E600126A6402F68F6433740A3406B
:10426C003B432B60090C05F11803A1401D68354038
:10427C002943196019681146BDE8F440DFF838226B
:10428C00D269105C0822491C02290BD8DFE801F026
:10429C000205080046F2080204E042F2080201E0BE
:1042AC0044F2080214E00000DFF80C22D269105C22
:1042BC000022491C02290BD8DFE801F00205080096
:1042CC004FF4C04204E04FF4005201E04FF480423E
:1042DC0000F1804000F501200260704770B5DFF8F6
:1042EC00DC518EB02968490748BF022060D4DFF842
:1042FC00C841DFF8CC6101463022201DFEF7E0F901
:10430C00FF20306001207065628A6169DFF8B401BA
:10431C00FEF7D6F9206A8047DFF8AC01DFF8AC2154
:10432C0042F22B01016042F60B3141604FF4807177
:10433C0011600021416301218161B160B164B06CF5
:10434C00FFF712FF296841F004012960DFF88011A2
:10435C000A6822F07C5242F034520A60FFF708FFE0
:10436C00DFF87001006801A8FFF716FF00F022F8D3
:10437C00DFF86421162104F13400FFF705FF162045
:10438C0000F054FA1620FFF7FBFE01A8FFF704FF1C
:10439C0000F010F8DFF844211D2104F15000FFF764
:1043AC00F3FE1D2000F042FA1D20FFF7E9FE00206D
:1043BC000EB070BD0020ADF81C00009001AB704732
:1043CC00BDE8104000474648022101630168890797
:1043DC00FCD4704710B538498968002048801D20EE
:1043EC0000F024FAFFF7C0FE04461D20FFF7C8FEBC
:1043FC003C486B2101702B2101702046FFE7BDE882
:10440C001040FFF7B5BEF8B504460D46FFF7ACFEFD
:10441C00294E317811B1FFF7ABFE25E00121317047
:10442C00FFF7A6FEE80709D5B0680088318A084373
:10443C00204203D0002030700220F2BD224FF868D9
:10444C00C0070FD50120F863F868C007FCD4E90752
:10445C00B0680BD400218180A9074EBFC480002115
:10446C00C18008E0002030700120F2BD8480318AC8
:10447C0021433182F0E769074EBF0481002101819D
:10448C00162000F0D3F91620FFF77AFE386840F0BA
:10449C0040003860386820F04000386000203070F0
:1044AC00F2BD0721AFE70000181900203C190020CD
:1044BC0000100C4000200C40AC18002010100940DB
:1044CC0000600C4000000E4000500C4000100E40EC
:1044DC00003009402C200940B3410000D5410000B8
:1044EC000C500C4005500C4080B5012301220021DA
:1044FC000420FFF797FEBDE80050002301224FF087
:10450C0001110320FFF78EBE80B501210420FFF7B7
:10451C00CBFEBDE8044001210320FFF7C5BE2649B0
:10452C0008807047254908807047254908807047E6
:10453C00244990B1244A8000B2FBF0F0002201E043
:10454C00521C4008B0F5803FFAD2002312018B6058
:10455C0042F001020A60C8600120886070471B4964
:10456C00088070471A48418800888842B8BF40309C
:10457C000AE0184918480A8830F81200521C402AE0
:10458C0008BF00220A80704780B2401A7047134956
:10459C00134B0A8823F81200501C402808BF002037
:1045AC00088070470F490020088070470E4908802A
:1045BC0000200E4908807047F0000E40F2000E40BB
:1045CC00FC010E4000700C4000366E01EC000E40F9
:1045DC0000020E4002020E4074010E4004020E4016
:1045EC00F4000E40F6010E40EA000E40F8010E40B9
:1045FC00841A71EB030603D2001BB14112197341EB
:10460C004FF4001C1CEB410F34BF7CEB430443E024
:10461C000C0DA4EB1356352E50DC45EAC323DB0AF4
:10462C0045EAC121C912B6F120050DDD63FA05F684
:10463C00EB4086EA0305124218BF45F00105C0188D
:10464C0051F100010CD213E062FA06F5F24055402C
:10465C00F3415A40B340F3405A408018594107D3B4
:10466C0049085FEA30005FEA350528BF45F00105CF
:10467C0001F58011420875F1004250F1000041EB48
:10468C000451F0BC4FF4001C1CEB410F38BF7047B9
:10469C000020090D090570471CEB410F10D252EA9E
:1046AC0043060BD0BCEB410F05D80C0DAB43661E7B
:1046BC00342EB5DD02E0AB4380185941F0BC704795
:1046CC00F0BC7047DFF800F0E3BF0110DFF800F03A
:1046DC0021B30110DFF800F095C00110DFF800F0F5
:1046EC000DA80110DFF800F0BDBE0110FEE7DFF8E9
:1046FC000001007D70476DE038B5FFF7FCFFDFF877
:10470C00F8500446A8680021FFF7E4FF6969081A0D
:10471C00A969814238BF002084F3118832BD2DE98C
:10472C00F041FFF7E8FFDFF8D0500446A8680121FC
:10473C00FFF7D0FF0121A9830021E9836E69296865
:10474C002A68871B801A711A884204D20020A88319
:10475C0084F311882BE084F31188002406E0A61959
:10476C0031460120FFF7BAFF3F1B0446A742F6D2A1
:10477C00FFF7C1FF8046E88B012804D131460020A9
:10478C00FFF7ACFF0446A96914F1010F08BF0846F6
:10479C0003D0E01B814238BF08468119FFF7A2FF06
:1047AC00012028840020A8832E6088F31188BDE89E
:1047BC00F08100218182DFF83C10C0684969884291
:1047CC0004D1DFF85C000068FFF77CBF7047808A7B
:1047DC0070477047DFF84C100968EFF3118081F3D4
:1047EC0011887047F6E7DFF84000806870470000DA
:1047FC00A40100207801002078010020616280F380
:10480C0011882046704738B504460D46FFF7EAFF7D
:10481C00616A2943FFF7F2FFBDE83240FFF756BF4C
:10482C0028BF000034FE0100C801002010280ED360
:10483C00A0F11002DFF83010520901EB82011038A0
:10484C00012200F01F0002FA00F0C1F8800270474C
:10485C00816042607047102804D3DFF80C101038C8
:10486C00C1F8000F7047000000E000E000F0ECB869
:10487C00FFF7B0BFDFF89811C20744BF01220A60EE
:10488C00820744BF4FF480720A60400744BF4FF464
:10489C00803008607047DFF87C21C30748BF116087
:1048AC00830748BF5160400748BF916070470000C4
:1048BC0010B504460020D4E90A2347F69061FFF7AF
:1048CC00B7F80123994228BF4FF0FF3010BD10B547
:1048DC000C4600F0B3FB011D201AB0F1004F05D8B7
:1048EC00081BB0F1004F38BF8C4200D20C46214659
:1048FC00BDE810400120CEE72DE9F04180460A4684
:10490C00D8E90A01D8E90C45A0FB026701FB027744
:10491C00A6196F41340C002244EA07414046FFF7C8
:10492C00D6FFC8E90E67BDE8F081F8B50646FFF77B
:10493C009FFF0446DFF8E050DFF8E0700120E861EB
:10494C00FFF798FFF96A096A142088473069B0F5B7
:10495C00802F34BF0421010C0120FFF79CFF3A6823
:10496C001268232100209047DFF8B4100120086062
:10497C00DFF8B400016821F4E02141F480310160DA
:10498C000120286084F31188F1BD000000F060BBA9
:10499C0010B5DFF89000446800F006F86069A16972
:1049AC00BDE8104008470000012063E7F8B5044655
:1049BC000D4600F04DFBD4E90A6732463B46FFF743
:1049CC0037F83DB1A6FB002306FB013307FB003390
:1049DC00C4E90C23F2BD10B5DFF83C00DFF84C4005
:1049EC00002101600121C16121602068FFF7DCFF1B
:1049FC00DFF848100968096A14208847206810BD40
:104A0C00000080B500F024FB000C40EA014002BD20
:104A1C0004200940182009400000244384010010A0
:104A2C0080022443E4010020002009402C2009408E
:104A3C00DFF81000C088704700000000B0010010C3
:104A4C00FEE77047F001002010B5DFF8240504687C
:104A5C0014F1010F08BF002400F06EFBDFF81415F1
:104A6C00002008600120DFF810150860DFF80C1535
:104A7C00086000F04CFADFF80805006828B1DFF890
:104A8C0004050068204600F022F8DFF8FC14DFF87B
:104A9C00FC2400200860DFF8F80401686FF31B4168
:104AAC0011430160DFF8EC040168C1F30131012905
:104ABC0007D10168DFF8E024114041F400320260B4
:104ACC000160DFF8D80400680028FAD110BD70B579
:104ADC000546DFF8CC0401210160DFF8C814096831
:104AEC000029FAD0DFF8C044DFF8C024C0212160CF
:104AFC005368DFF8BC149B075DBF13681B0C43F0B5
:104B0C00F00372230B70002101639668304600F0AD
:104B1C0031F83146284600F061F8DFF89804816DD1
:104B2C0089B240F20F22914214D201680068C1F39D
:104B3C000361C0F3034001B1491E072805D00628C4
:104B4C000EBF0720801C00F00F0041EA0010DFF8B8
:104B5C0068140870304600F0B2F8DFF86014096889
:104B6C00C96802208847402020600120DFF85014DB
:104B7C00086070BD10B50446DFF848040068C0F347
:104B8C00046000F0C0F92117491C08181628A8BFAA
:104B9C00152004DA6FF009018842B8BF084600F00E
:104BAC001F00DFF8241440F4F8500880DFF81C04D0
:104BBC00006880074FBF44F040640020DFF81014F9
:104BCC000860DFF81004C4F3C06181F001010160DA
:104BDC00C4F3806181F00101816010BD70B50546A0
:104BEC0082B0084600F0F0F80246DFF8EC431821DA
:104BFC0000F062F800F014F980B20090002340F24B
:104C0C00FF322C21204600F0E6FADFF8D063F06882
:104C1C00C0F30D021C2100F04FF8706800F0FC325C
:104C2C00142100F049F83068DFF8B413DFF8B463EE
:104C3C0001EA0002102100F03FF8284600F0FAF8D3
:104C4C0002460C2100F038F8284600F01EF940000E
:104C5C0040F020003072284600F020F940F010009F
:104C6C003072284600F023F90246282100F024F87F
:104C7C00284600F001F9400040F06000F072284630
:104C8C0000F02FF9C00040F080003070284600F092
:104C9C0031F98000DFF8501340F47C40088028463E
:104CAC0000F012F90246082100F006F8DFF83C1378
:104CBC004FF48000086073BD204600F087BAF8B549
:104CCC00810C01F003010129C94CC84D02D0022905
:104CDC002AD026E0216A8A0323D44FF480422A602A
:104CEC006FF08F06C34AD2F8023033404E0A06F0FA
:104CFC0080063343C1F303363343C2F80230C1F3A9
:104D0C000326D2F801301B0946EA0313C2F801301E
:104D1C006FF0E7061368334001F0E70119431160A7
:104D2C0002E04FF000412960B34EB44AB168090764
:104D3C005CBF4021A9624FF400712964800D216A87
:104D4C00C90C01F0030141F0300110F003001170A7
:104D5C0003D0022826D008D326E00121042000F03D
:104D6C005DFAA74800F0F4F822E0012000F078FA90
:104D7C0007463946042000F051FA042000F070FA7E
:104D8C00B842FAD1366826F07F4000F0E1F89D4B2E
:104D9C001B681B684FF060220721300E98474FF4B8
:104DAC0080602860032100E00221042000F036FA24
:104DBC002068954900F03F00087047F618009349A9
:104DCC00088093480068F1BD92490968C1F3836279
:104DDC008303C1F38F2120D4000400164FF6FF7318
:104DEC0007E0490804D11946520804BF01220121E9
:104DFC00401C0028F5D401280FDB490041F00101CB
:104E0C00B1F5803F21BF0121520042F00102102A6E
:104E1C0024BF0F221946401EEDE741EA02407047BD
:104E2C007C48016800680002C1F3870100F44070FF
:104E3C000843704730B55D4C77490A686568ED07E3
:104E4C00C2F30351C2F303430AD42468250501EBD2
:104E5C002571240481F3040103EB247383F304030D
:104E6C001B0443EA015193B21943222824BF02F0D8
:104E7C0080400143084630BD0021202803D36748F9
:104E8C000068C0F30151084670470121222803D362
:104E9C0063480068C0F3007108467047012122285E
:104EAC0003D35F480068C0F3407108467047002187
:104EBC00202807D359480068C10C01F44071C0F395
:104ECC0084500143084670472028564907D353485D
:104EDC00554A0068810A02EA003040EA81510846CE
:104EEC0070470021222803D34D480068C0F3C061ED
:104EFC00084670470021222803D349480068C0F3B4
:104F0C004551084670471628A8BF203870472348DB
:104F1C0000680028FBD14548454A41681268890859
:104F2C00890041F0005141F00401520748BF41F0A3
:104F3C0001010BD4026812F0030F07D041F00302F9
:104F4C004260026802F00302032AFAD14160704702
:104F5C00384982B20A60C0F307404860012088607B
:104F6C00354800680028FBD000208860704700009E
:104F7C001C130050840460425C600C400822044303
:104F8C0080012843000120438C2108400000390196
:104F9C004820034004000940FFFFFCFC0C00684261
:104FAC00101009409402224300600C40AC3F0050AA
:104FBC0056620840BC12005002600840A00100106C
:104FCC0094046042B81200506E6208400000094020
:104FDC0094042A430000204300A00C40701300509E
:104FEC00FFFFFC0041A10C40DCA10C4040A00C4098
:104FFC006C1300500A600840A83F005008A10C40F8
:10500C00BD378600B40100100BB00C4070B00C40E2
:10501C002C20094050130050781300509813005066
:10502C008C13005000803F4000F03F0000400340D4
:10503C00B03F00503C600C4084088C430948016828
:10504C00426803689942FAD1100C40EA014070475B
:10505C0010B5044A136850681468A3421946F9D174
:10506C0010BD00000820094030480068000C00F01A
:10507C000700052828BF4FF0FF3070472C490A68FD
:10508C00C2F30F324BF69A139A424FF0FF3006D10F
:10509C000868000F0B280CBF0420002070474BF64B
:1050AC00BE118A4201D1012070474BF641318A4230
:1050BC0001D1032070474BF620318A4208BF0220F1
:1050CC00704700001A48F8B50068050F19480068C9
:1050DC0000F0FF06802E28BF0026FFF7CFFF042824
:1050EC004FF0FF3406F10A071DD8DFE800F0031279
:1050FC001A1A1B00012D12D0032D06D0072D06D035
:10510C00082D08BF06F116040DE014240BE015243D
:10511C0009E025B1022D08BF06F1140403E00A24AE
:10512C0001E005B93C4660B2F2BD0000941200509B
:10513C0018130050A010005080B5FFF79FFF20B946
:10514C00FFF7C0FF162800DB01BDFEE770B5044673
:10515C000D46164600F03AF9401E8041C00F1A4920
:10516C000A68002AFCD0012E02D0022E02D003E0E5
:10517C00257002E0258000E0256001220A600028ED
:10518C001CBFBDE8704000F025B970BD38B50446B1
:10519C000D4600F01BF9401E8041C00F0A490A68F9
:1051AC00002AFCD0012D02D0022D02D003E024787D
:1051BC0002E0248800E0246801220A6008B100F0B3
:1051CC0009F9204632BD000000800C400B46114608
:1051DC0004221818BAE710B500EB4100102B144646
:1051EC0000F5007002D3103B001D240C029999406D
:1051FC0041EA0441BDE810400422A7E738B51D463A
:10520C000818102D144602D3103D801C240C0221CA
:10521C00FFF7BCFF204080B2E84032BD70B50446B9
:10522C00E00782B00D46624E05D5A8B2009000236F
:10523C00012200F011F8A00705D5A8B200900123B7
:10524C00022200F009F8600705D5ADB200950223E3
:10525C000C2200F001F873BD00213046FFF7BBBFF4
:10526C000146042907BF1D234FF0C0421C234FF0F9
:10527C0080524F483421FFF7C1BF38B50546FFF7C0
:10528C00DDFE4C4CA168401A4FF47A71484305EB93
:10529C00104500F0A3F82169401A48BF404240F67F
:1052AC00B9318D4207D2062805DAA068E16881423F
:1052BC0001D322685AB940494A68D2074FF4FA60C0
:1052CC0017D4086800F0FF007D21484308E0081A55
:1052DC003A494843000C00EB9000904238BF10460E
:1052EC00C82801D2C82032BDB0F57A6F88BF4FF400
:1052FC007A6032BD80B501210320FFF78FFFFFF7E5
:10530C009DFE2C49886001BD80B50120FFF7A8FFE8
:10531C00012819D00023012234212548FFF76EFF04
:10532C0098B100F026F8FFF789FE22498B680A68CD
:10533C00C860A2EB9202C01A204B5843000C0860C4
:10534C00904238BF10460860012002BD10B5002104
:10535C000320FFF763FF0120FFF782FF08B100F085
:10536C0008F8144CFFF76AFE606000F037F8206113
:10537C0010BD1348006800F045B810B511490A6813
:10538C0011490968140424161B384443E41004EB37
:10539C002244120600FB00F3121609065A43584326
:1053AC00091604EBA222484302EBA04010BD0000FA
:1053BC0000A00C4000340020AC3F005040420F00D5
:1053CC008000001090130050A4100050EFF31080D8
:1053DC0072B67047EFF3108062B670470748084A00
:1053EC0081681278006852B2A0F54070C90350432E
:1053FC00C913A1EB201080300012704728500940CF
:10540C000C13005070B50446FFF7E0FF451EAD418C
:10541C00ED0F074E30680028FCD0A047012030600B
:10542C00002D1CBFBDE87040FFF7D4BF70BD00005D
:10543C0000800C40DFF800F085C10110DFF800F0AF
:10544C00C1C20110DFF800F0CDC10110DFF800F08F
:10545C0085B00110DFF800F079B50110DFF800F02D
:10546C00D5C00110DFF800F0E1B5011020B1082320
:10547C0028220021FFF7E6BF704720B10823302215
:10548C000021FEF779BE704738B500F06FFE256835
:10549C000DB129682160FEF76BFE284632BD70B550
:1054AC0004460D462668002028601EB9FEF75CFEF7
:1054BC0025600DE0FEF758FE00E0366831680029E3
:1054CC00FBD1AE4203D1FEF753FE002070BD356018
:1054DC00FEF74EFE012070BD0022DFF8801C01EBB0
:1054EC004211CB7F1B0605D5B1F91C30834201D18B
:1054FC0008467047521C082AEFDB00207047F8B5AD
:10550C0000F034FE0546DFF81C0AC17D0A001CD0F1
:10551C00491EC175C9B2C1B9DFF80C7A082107F16F
:10552C004C00FFF770F984B1B86B7030FFF741F99C
:10553C00B86BDFF82C1CC0680968201A07F1EC0660
:10554C0000F0B4FD3046FFF7BDF82846BDE8F24048
:10555C00FEF70EBE10B50446207B00F00F000228AB
:10556C0002BFDFF8C009007D002817D100F0B4FCA1
:10557C00A1688908A1EB90006FF0704188420DDAA8
:10558C00B0F1704FBCBFDFF8041B0818DFF8981996
:10559C00896BC96801F57A71814200DB002010BD6E
:1055AC0038B5DFF8EC0ADFF8EC2A0168DFF8784947
:1055BC0002EA0105E9430160A90606D540688006A8
:1055CC0003D54FF4005100F090FB15F4602F0BD075
:1055DC00A06905F460210843A061002104F19C003E
:1055EC00BDE83440FFF70FB931BD70B5FEF7BCFD17
:1055FC00DFF834490646A06910F4602F27D0A06963
:10560C00C5012D0EE80748BF002506D4A80748BFE2
:10561C00012502D4680748BF0225681D40B200F07E
:10562C00E2FEA069012105F1110291408843A061BD
:10563C003046FEF79DFD04EB85008668300009D0EE
:10564C00606800224FF00063691DB04702E03046ED
:10565C00FEF78EFDA06920B1002104F19C00FFF73C
:10566C00D2F8E07F80070DD56569280006D0606808
:10567C0000224FF000436FF00101A847E07F00F0DB
:10568C00FD00E07770BD70B500F004FFDFF89858AE
:10569C00DFF8D04AAB6A024690071DD4D3E9040167
:1056AC00104007D0EB629969084398614FF4804130
:1056BC0000F0F8FCA86A002849D16E6A002E46D08A
:1056CC00F068A96B884224D005F14C00BDE870400D
:1056DC004FF48051FFF797B80BB9A86AEAE700209E
:1056EC00A862D3E904019E69024042F002023243EF
:1056FC009A61626982436261E26822EA0100E060B9
:10570C00194605F13000FFF7CAFE022100F0CAFC71
:10571C00E3E7B068FFF71EFFA86418B1A86CBDE8FA
:10572C007040ECE6D6E90401626902436261E2680A
:10573C0041EA0200E0600020E061B0682060E069AE
:10574C000028FCD005F12400FFF79EFEAE6270BD70
:10575C000020D4E6F8B506461446376E1D4607B150
:10576C00B847A00708D4D6E91601204029400022EA
:10577C00914208BF904207D0C6E91A4506F138009D
:10578C00BDE8F240FEF71CB8F1BDFEE780B5FFF7AF
:10579C002AF8DFF894270146906BD26BBDE80840DD
:1057AC00104710B5DFF880470FF23D01E06B8842DF
:1057BC0002D1FFF74DFC206404F14C00BDE8104011
:1057CC000421FFF720B880B500F064FEDFF89819CB
:1057DC00084207D0BDE804404FF00051DFF8A40B9D
:1057EC00FFF711B801BD000038B5042951D1DFF81D
:1057FC003847606AA16B08B1C16803E0E07FC0075D
:10580C0048BF6168A1630846DFF8B42A41680B7889
:10581C001360126809788A421CBF8569002D05D077
:10582C0000224FF000736FF0FF01A847022000F038
:10583C00BBFF112000F0CDFFDFF8E8060121C17697
:10584C00A16B407E097C014204BF0E2000F0C1FF19
:10585C00A06BDFF8101940688268002A04BFC0688A
:10586C00002804D00020C861DFF8C40A086040F2A8
:10587C00FF70DFF8C02A106000208861DFF8E808AC
:10588C0048610FF21100E0631920BDE83240FEF7C9
:10589C0077BC31BD2DE9FF418046880040F19780EF
:1058AC00DFF88456A86B40684068010018BF804739
:1058BC00A86BDFF8B06840688168002904BFC16834
:1058CC00002912D0F1690029FCD00021F161806817
:1058DC00010018BF8047A86B4068C068010018BF62
:1058EC008047DFF8A40A00F0DDFD0020F06108F12C
:1058FC000807DFF8980A3060012000F01BFE002238
:10590C000FF21D10E86340F60A01DFF8180642801A
:10591C000180027B02F0F002027300224260427BA3
:10592C0002F0F00242F00102427300223C686280F5
:10593C0000E014466268002A1CBF13888B42F8D121
:10594C00606040F60302617B01F0F0016173696AEB
:10595C008968098891421CBF40F60402914217D015
:10596C00398BA9B100217983F96108F12C010A78EE
:10597C0002F0F0020A704A7802F0F00242F00102E2
