:020000040000FA
:0600000002011A0227DDD7
:03002B00022F2A77
:03003B00022F4F42
:03004300022ED8B2
:030053000228532D
:03006B00022F0160
:10008300022633E5C754F84401F5C779012200007D
:100093000080FB120086B90003020104E479217891
:1000A30008B800028004F709D8FCE479297802B87B
:1000B30000028004F709D8FCE4900501782C791735
:1000C3008002F0A3D8FCD9FA781A90014A7A01BACF
:1000D30000028007E493A3F608DAF97A2C7B1B90DD
:1000E300014B785C79048015E493A3AD82AE838AD7
:1000F300828B83F0A3AA82AB838D828E83D8E9D9C6
:10010300E77582A27583CF740412012C75829175F1
:100113008300740012012C75D00075813F7518019E
:10012300751905759F00020096C09FF59FE473D073
:100133009F22D083D082C09FE493C0E0740193C018
:10014300E0740293F59F22013E064A067A0674067E
:10015300FF0000B4000028002800283075A000A08C
:1001630000A000A00000080008E001F0001000104B
:10017300001000100010001000500050005000103C
:10018300001000D0070000000000000F0001000570
:1001930000307507001000010081FF00000000FF20
:1001A300FFFFB207D007B807F407FF0202020802F5
:1001B3005000A0000000E8030268860100002D86BD
:1001C3000262860100008F1B025C860100008A0622
:1001D300026286010000901B025A86010000A006FD
:1001E300026286010000911B025886010000A206EC
:1001F300026286010000921B025686080000A306D5
:10020300026286010000931B025486010000941BC6
:10021300FFFF0100FF200268860100002A860262B8
:1002230086010000F91B027C860000000000025ECC
:1002330086030000D3061700AA0FAA0FAA0FAA0F5E
:10024300AA0FAA0FAA0FAA0FAA0FAA0FAA0FAA0FE3
:10025300AA0FD811F611D2111C132E131613020272
:1002630002020202020202010D00000010010268F4
:10027300860100003986026286010000421C0240AA
:10028300860100002211026286010000431C024223
:1002930086010000A584026286010000441C02441A
:1002A300860100006184026286010000451C024849
:1002B300860100006983026286010000461C024A2F
:1002C300860100005783026286010000471C024C2E
:1002D300860100004583026286010000481C024E2D
:1002E300860100007B83026286010000491C0250E4
:1002F300860100006F840262860100004A1C0252DC
:10030300860100004B1C01E803057710020A0A204E
:1003130015FFFFFF00013075030201060000000016
:1003230000000000000000000000000000000000CA
:100333000000000000000000FFFF0600800CE8033F
:10034300FEFF010A4C000215534D5406320096007D
:10035300010A0944617272656E424C45051206003A
:100363000600020A00020201061AFF4C000215539E
:100373004D5400000002030200000000000000FFD3
:10038300FFFFFFCD03DEADBEEFABCDEFFFFFFF0AF7
:100393004368617261637465726973746963203160
:1003A300000243686172616374657269737469639F
:1003B3002032000843686172616374657269737403
:1003C3006963203300104368617261637465726905
:1003D30073746963203400024368617261637465F6
:1003E30072697374696320350016436861726163CF
:1003F300746572697374696320360002688601004C
:10040300003386026286010000731D026E860300BC
:1004130000071B026086010000741D026286010052
:1004230000851D027086010000081B026086010022
:1004330000861D026286010000971D02728602007B
:1004430000091B026086010000981D0262860100FC
:1004530000A91D0274860000000A1B025E860300C9
:10046300000B1B026086010000AA1D0262860100C8
:1004730000BB1D0276860400000D1B02608601008E
:1004830000BC1D026286010000CD1D0278860300B8
:1004930000121B025E86030000271B026086010018
:1004A30000CE1D120135EDC704120135C8C8041270
:1004B3000135B5B304120135C8B304120135E9B3EC
:1004C3000412013554B40412013595B404120135F4
:1004D300B6B404120135F7B4041201358FB5041212
:1004E3000135D7B504120135EEA00412013501A17F
:1004F3000412013532A1041201356CA10412013535
:10050300C5A1041201350CA20412013554A2041230
:10051300013583A204120135B2A204120135E9A206
:100523000412013530A30412013549A30412013525
:100533009EA304120135CCA30412013506A40412B0
:1005430001352EEC0212013531ED021201355EED5B
:1005530002120135AFED02120135D2ED021201355F
:10056300E4ED02120135E7ED0212013525EE021228
:10057300013599EE0212013505EF02120135CDEF77
:1005830002120135E9EF0212013520F002120135A2
:100593005AF002120135F1F00212013543F1021251
:1005A300013574F102120135A5F102120135B2F1E0
:1005B300021201351CF2021201351FF2021201353B
:1005C3002CF2021201352FF20212013586F20212C9
:1005D300013589F202120135C2F202120135C5F268
:1005E30002120135F9F202120135FCF20212013551
:1005F30050F30212013599F302120135A9F30212E5
:100603000135DCF302120135E9F302120135ECF393
:100613000212013554F40212013556F50212013566
:10062300FAF50212013563F602120135A1F6021240
:100633000135B79D03120135B49E031201354A9F5C
:1006430003120135959F03120135F99F03120135FA
:1006530083A0031201353CA1031201355EA40312EA
:100663000135DBA503120135FEA50312013576AE74
:100673000412013596AE04120135B7AF04120135E9
:100683000AB004120135A99104120135D191041263
:100693000135FE910412013536920412013594920C
:1006A30004120135E0920412013547930412013517
:1006B300879304120135C49304120135F293041293
:1006C30001359C9404120135A69404120135B394A8
:1006D30004120135E69404120135F2940412013533
:1006E3000A9504120135149504120135EFCA041258
:1006F3000135FDCA0412013515CB041201352CCB8B
:1007030004120135008002120135AA80021201355C
:10071300BD8102120135398202120135578302125B
:1007230001359383021201352E840212013512859D
:1007330002120135D585021201354D8602120135AB
:10074300DB87021201354C88021201350689021239
:100753000135F88902120135388A02120135EC8A13
:10076300021201351E8B02120135148D021201355E
:100773005B8D02120135798D02120135DF8D021274
:100783000135AE8E02120135728F0212013591913D
:10079300021201359B91021201351BC00312013570
:1007A30005C103120135B0C10312013501C20312A1
:1007B3000135B1C20312013522C30312013507C447
:1007C300031201353BC40312013534C5031201354D
:1007D30071C5031201354DC6031201358CC60312D0
:1007E3000135A8C603120135FFB70412013583B8DA
:1007F30004120135AEB804120135C8B9041201352B
:10080300A29504120135B89504120135D695041248
:100813000135E79604120135F196041201351C984F
:10082300041201351399041201358099041201351C
:100833008A99041201358BD303120135C1D40312F3
:1008430001353BD5031201356BD5031201357ED536
:1008530003120135D5D503120135EAD70312013549
:1008630060D30112013511D4011201352DD40112C7
:100873000135F6D40112013510D5011201351BD50E
:1008830001120135F1D501120135CED60112013520
:100893005ED70112013515D80112013523DB011290
:1008A300013512DD01120135C4DD011201358DDE82
:1008B30001120135D2E1011201357CE20112013549
:1008C300A5E30112013561E50112013501E60112CB
:1008D30001354FE6011201358EE60112013561E75C
:1008E3000112013595E70112013522E801120135A4
:1008F300656C00120135F16C00120135556E001262
:100903000135616E001201359C6E001201350B6FCB
:10091300001201351470001201351D7100120135EA
:10092300E471001201354173001201355F73001247
:1009330001357C73001201354774001201356F7461
:10094300001201353977001201353E770012013567
:10095300577900120135A57900120135157A001275
:100963000135537A001201352F7B00120135EF7BDD
:10097300001201353B7C001201353E7C001201352B
:10098300827C00120135CA7C00120135097D0012F8
:1009930001352B7D001201355F7D00120135C27DCB
:1009A300001201355BEF0312013564EF03120135C9
:1009B30072EF03120135C5EF03120135E4EF0312A1
:1009C300013529F0031201356DF10312013508F2E7
:1009D300031201354CF20312013576F2031201358D
:1009E300E5F2031201352BF303120135A2F30312CF
:1009F300013553F403120135C42F00120135D42FEE
:100A030000120135753000120135D1300012013565
:100A13008E3100120135AA3200120135DC32001288
:100A230001350B3300120135B834001201352F376D
:100A3300001201359F3900120135913A0012013538
:100A43008A3B00120135913D0012013585400012A9
:100A53000135B44100120135B84300120135C844D1
:100A6300001201355746001201354847001201357F
:100A73009647001201350548001201352948001236
:100A830001357A48001201351B4D001201351C4E09
:100A9300001201357D4E00120135A84E00120135BA
:100AA3006E4F0012013565F4031201356FF4031222
:100AB3000135B4F403120135C8F40312013558F5B6
:100AC3000312013591F503120135CCF503120135FB
:100AD300F5F50312013543F60312013558F60312F7
:100AE30001356DF60312013582F603120135C5F6A1
:100AF30003120135DAF603120135EEF6031201355E
:100B030002F70312013517F70312013551F70312E8
:100B1300013575F703120135A1F703120135D8F733
:100B2300031201353AF803120135ACF8031201350B
:100B3300EFF80312013519F90312013544F90312D1
:100B43000135CEC5041201353ABD021201351DBE71
:100B53000212013598BE02120135D3BE02120135CD
:100B630024C002120135ADC002120135C5C2021202
:100B7300013557C50212013509C60212013515C7E1
:100B83000212013588C802120135E1C8021201358B
:100B930038EA031201357BEA03120135FFEA031237
:100BA3000135D2EB03120135A9EE0312013517B15A
:100BB30004120135C4B104120135D1B20412013556
:100BC30010B3041201356AB304120135F7B90412E4
:100BD30001355ABA04120135F7BA041201352CBB98
:100BE300041201355CBB041201357DBB04120135CF
:100BF300B8BB04120135D8BB041201353FFB011207
:100C03000135CBFB011201358AFC01120135A2FD2E
:100C130001120135BCFF011201357DD502120135E8
:100C2300A2D5021201356FD60212013543D7021243
:100C33000135B0D70212013506D802120135A2D808
:100C430002120135D6D902120135B1DA0212013589
:100C530010DB021201359CDB021201350ADC0212A1
:100C6300013596DC0212013599DC02120135E3DC11
:100C73000212013555DD02120135E7DD021201359D
:100C830088DE02120135A8DE02120135F0DE0212FF
:100C9300013539DF0212013555DF021201357BDFE1
:100CA30002120135F5DF0212013503E002120135AC
:100CB30092E002120135FBE002120135B284041204
:100CC30001353785041201357985041201355D86B6
:100CD30004120135CA86041201350E870412013548
:100CE3005287041201357F8704120135A787041246
:100CF3000135DF87041201351D880412013544884C
:100D030004120135BE880412013508890412013525
:100D13007E8601120135778801120135648B011239
:100D23000135B88B01120135E38B01120135BC8CFF
:100D330001120135F78C01120135278D011201359E
:100D43003A8D011201357B8D01120135A88D0112F7
:100D53000135F68D011201352B8E01120135618E9D
:100D630001120135C08E01120135458F0112013583
:100D7300E49101120135CC9301120135089401125B
:100D83000135869501120135CB9501120135CC96BB
:100D930001120135B6980112013539990112013555
:100DA300109A01120135689A011201354A9C011209
:100DB3000135199E011201351E9E01120135EC9E6B
:100DC30001120135839F01120135D1A001120135B2
:100DD300E2A0011201351894031201359194031214
:100DE30001354B9A03120135569B03120135FF9CC3
:100DF300031201358D9D03120135DA4F00120135BF
:100E03005B5000120135885000120135D350001297
:100E13000135D451001201351952001201354552E2
:100E230000120135C153001201354354001201353C
:100E3300925400120135FD5400120135B1550012D0
:100E430001354E5600120135C9560012013553576C
:100E530000120135A65700120135EE580012013574
:100E63006D5A00120135385B00120135455B0012E3
:100E73000135955B00120135A55B00120135C95B95
:100E830000120135CC5B00120135B55C001201354F
:100E9300975D00120135395E00120135D45E0012F0
:100EA3000135FB5E00120135585F00120135AF5F5B
:100EB30000120135FD5F001201354B600012013550
:100EC300B46000120135546100120135F061001263
:100ED30001357D6200120135F26200120135426371
:100EE30000120135A16300120135C86300120135F8
:100EF300826400120135736600120135BC6600126C
:100F03000135EE6600120135656700120135EF68A1
:100F130000120135A36900120135D36900120135AE
:100F2300E86900120135586A00120135996A001206
:100F33000135AE6B001201352F6C00120135588A52
:100F430003120135A38A03120135AF8A0312013557
:100F5300838B031201359A8B03120135D78B03124E
:100F63000135088C03120135408C03120135968C30
:100F730003120135AC8C03120135E88C03120135E1
:100F8300FB8C03120135228D03120135568D03129A
:100F930001357C8E03120135C68F03120135C290D1
:100FA30003120135DF9103120135B92F0012013508
:100FB3000BE503120135B9E803120135EDE903121C
:100FC30001358AC9021201354DCC0212013553CCC9
:100FD3000212013510CF021201356AD10212013516
:100FE30000800412013597800412013555810412E3
:100FF30001357F8104120135B583041201353FBBEE
:10100300011201357ABB01120135BFC70112013547
:101013002BC90112013528CA01120135ADCD0112C8
:10102300013597CE01120135E3CE01120135FDCE14
:10103300011201353ACF0112013545CF01120135B5
:101043004ECF01120135FECF01120135CED0011270
:10105300013515D1011201357BD101120135EDD1D5
:101063000112013518E90112013560EC0112013555
:1010730066EC01120135B9F301120135C6F701120D
:1010830001359499041201352A9A04120135409AC4
:1010930004120135999A04120135DD9A04120135BF
:1010A300179B04120135AF9B041201351E9C0412D9
:1010B3000135279C04120135339C041201354D9CE4
:1010C30004120135779C041201358C9C04120135FE
:1010D300EE9C04120135159D0412013509C7031254
:1010E300013516C70312013530C70312013563C733
:1010F30003120135A1C70312013506C803120135D6
:101103001BC80312013526C80312013533C8031265
:1011130001354AC80312013558C80312013567C89F
:10112300031201357CC80312013591C8031201353E
:101133009CC803120135A8C803120135B5C80312B0
:101143000135C4C803120135CFC803120135F4C8F1
:101153000312013598C903120135A8C903120135D9
:10116300BDC903120135D2C903120135ECC90312FB
:10117300013509CA0312013526CA0312013531CAE2
:1011830003120135DDCA03120135BECB031201354B
:10119300E3CB03120135EECB0312013503CC03126B
:1011A300013517CC0312013578CC031201357ECCFF
:1011B3000312013584CC031201358ACC03120135A5
:1011C300A2CC03120135D5CC0312013500800312E2
:1011D3000135228003120135EA8003120135A4830D
:1011E30003120135BA8403120135DB85031201357D
:1011F300B58603120135648703120135B7AF0212B6
:1012030001354EB002120135E6B002120135D6B1F6
:10121300021201350DB20212013520B2021201355C
:101223008EB20212013529B40212013550B40212F2
:101233000135F2B40212013527B50212013538B572
:1012430002120135B1B502120135D2B502120135D0
:10125300EAB50212013542B7021201354BB9021247
:1012630001359BBB021201359EBC02120135EDBC58
:10127300021201351BA10212013518A20212013517
:1012830003A3021201350DA30212013517A30212A3
:10129300013539A30212013545A30212013597A482
:1012A30002120135C6A402120135F6A50212013558
:1012B30038A60212013564A7021201353AA80212B8
:1012C30001358CA802120135EBA80212013522A9BF
:1012D300021201355DA902120135F8AC0212013583
:1012E30011AD0212013593AD02120135A1AD021207
:1012F3000135F6AD0212013504AE0212013571AEAD
:1013030002120135E3AE0212013529AF0212013593
:101313001EE10212013540E1021201352AE30212F5
:101323000135CFE60212013512E802120135ECE86D
:10133300021201353FFE0312013564FE031201352B
:10134300D5FE03120135EEB703120135F7B70312C9
:10135300013500B80312013531B90312013550BB11
:101363000312013586BB03120135C0BB03120135DD
:10137300F6BB0312013530BC0312013564BC031202
:10138300013590BC03120135D9BC0312013513BDDD
:10139300031201355BBD03120135B1BD03120135E3
:1013A300E6BD0312013541BE031201357BBE0312B4
:1013B3000135CCBE0312013502BF031201353CBF18
:1013C300031201356ABF031201358DBF03120135C4
:1013D30027CD0412013553CD04120135AECD0412CD
:1013E3000135B8CD04120135C8CD04120135B1D988
:1013F30003120135F5D90312013579DA03120135E8
:10140300C0DA031201354EDB0312013585DB03120B
:101413000135EADB0312013547DC0312013573DDC5
:101423000312013576DD031201356FDE0312013538
:10143300BBDE03120135FADE0312013536DF031278
:10144300013524AB041201354BAB041201352ED008
:101453000412013505A1011201358BA301120135D7
:1014630038A50112013599A50112013543A60112D0
:101473000135B3A60112013541A701120135C8A7F1
:1014830001120135F1A70112013543AC01120135F7
:10149300BBAC01120135BDAD01120135F7AD01122F
:1014A30001353AAE011201351EB00112013551B0BA
:1014B30001120135ABB001120135F8B0011201354B
:1014C30045B101120135A2B10112013515B2011264
:1014D30001354AB2011201357FB201120135A0B2C2
:1014E30001120135C7B301120135E0B30112013511
:1014F30015B50112013542B50112013586B5011248
:101503000135CBB501120135E8B5011201351EB61F
:1015130001120135F5B7011201351FB8011201356A
:1015230094B80112013514B90112013592B90112AF
:101533000135D5B90112013510BB01120135A9BF1F
:10154300041201350BC004120135CDC0041201355C
:10155300EEC00412013544C1041201359DD10412B9
:1015630001358DFF02120135CAFF021201358AD1FE
:1015730004120135FAC9041201350ACA04120135ED
:101583002ACA04120135DECA04120135F5C8041251
:10159300013579C904120135E1C904120135B9C411
:1015A30004120135DCC40412013533C504120135BC
:1015B3003EC5041201358BC504120135BDC50412A5
:1015C3000135C0C5041201354889041201356D89FE
:1015D300041201358F8904120135B18904120135D2
:1015E300D789041201350F8A041201353C8A04128B
:1015F3000135038B04120135AF8B04120135DD8BEA
:10160300041201351E8D041201359D8D041201351E
:10161300B78D04120135328E041201350E8F041278
:101623000135C790041201352691041201358C91BE
:1016330004120135F87F00120135CABD04120135C9
:1016430045BF04120135A6BF04120135CAA704120F
:1016530001355AA804120135D8A80412013566A928
:1016630004120135FAA90412013561AA04120135E5
:10167300A3AA04120135A6AA04120135B4AA0412BE
:101683000135C6AA04120135DCAA04120135F2AAF7
:101693000412013500AB0412013516AB04120135F7
:1016A3009A7E00120135067F00120135167F001263
:1016B3000135267F00120135367F00120135527F36
:1016C3000012013520C30412013549C30412013548
:1016D30072C30412013514C40412013530C4041258
:1016E300013572C404120135B6AF03120135C4AF1C
:1016F3000312013506B00312013551B0031201354F
:101703008BB003120135E5B00312013506B10312A4
:10171300013596B303120135A4B303120135F7B3B0
:101723000312013529B40312013538B4031201350C
:10173300ADB40312013537B5031201357FB503127A
:101743000135B6B5031201352BB6031201356DB65B
:1017530003120135B5B603120135C7B603120135BD
:10176300F8B60312013501B703120135C0B70312EE
:10177300013582C104120135D8C10412013566C294
:1017830004120135CEC2041201356EA404120135D0
:1017930098A4041201358CA504120135B1A50412D5
:1017A300013550A604120135DAA604120135E2C64A
:1017B3000412013595C70412013502B6041201352E
:1017C30038B6041201356EB604120135C1B70412DE
:1017D3000135D2CD04120135E8CD04120135F8CD1F
:1017E300041201354ECE041201350FCF0412013518
:1017F3007CCE0412013521A703120135E8A7031299
:10180300013523A80312013553A803120135B1A8EA
:101813000312013505A90312013575A90312013518
:1018230009AA03120135CCAA0312013542AB0312F4
:10183300013586AC0312013509AD0312013570ADD4
:1018430003120135DFAD03120135F6AD0312013585
:101853000CAF0312013556AF031201356CF90312B5
:10186300013581F9031201353CFA0312013580FA7F
:10187300031201359DFA03120135D1FA0312013522
:101883001EFB0312013552FB0312013590FB0312B9
:101893000135BDFD031201352EFE03120135A5915D
:1018A30002120135C2950212013550970212013519
:1018B3007697021201359F97021201352298021280
:1018C3000135AC9902120135AE9A02120135B19A73
:1018D30002120135EE9E02120135269F02120135D6
:1018E300689F021201356CA002120135E6BB041297
:1018F300013516BC04120135ABBC04120135BCBC66
:1019030004120135D2BC041201352FBD0412013576
:101913003FBD0412013558BD041201356FBD0412D9
:10192300013576BD0412013579BD04120135C7F6C0
:1019330002120135D8F602120135D9F70212013528
:10194300FAF70212013523FB0212013554FB02128E
:10195300013563FB02120135E2FB02120135E5FB9F
:1019630002120135C5FC0212013519FD02120135BF
:101973001CFD0212013575FD0212013504FF02122E
:10198300013537FF021201356AFF0212013580FF6C
:10199300021201352AD10412013575CC0412013526
:1019A30088CC04120135C1CC04120135BCCB04121E
:1019B300013538CC0412013557CD0312013560CF00
:1019C300031201353DD1031201356ED103120135E6
:1019D3007DD1031201359CD103120135BCD1031211
:1019E30001351DD30312013535D30312013588D3D5
:1019F3000312013570DF0312013539E1031201359A
:101A030073E20312013596E203120135BEE20312BB
:101A13000135F1E20312013583E40312013593E446
:101A23000312013596E403120135439D0412013577
:101A3300009E041201352E9F04120135ADD004120D
:101A43000135CA7F00120135F3D00412013561D18B
:101A530004120135D8FF02E066701008A3E0667037
:101A63000A08A3E066700408A3E06622C3E79608A9
:101A730009E7960809E7960809E79622C3E096085E
:101A8300A3E09608A3E09608A3E09622C008C3E06B
:101A930096F50808A3E096420808A3E096420808D2
:101AA300A3E09645087001D3D00822080808EAC0CD
:101AB300E0EBC0E086F0E7A4FA180986F0E7A42A71
:101AC300FA180986F0E7A42AFA180986F0E7A42A87
:101AD300FA1986F0E7A4FBE5F02AFA190886F0E77D
:101AE300A42BFBE5F03AFA190886F0E7A42BFBE5F3
:101AF300F03AFA18180986F0E7A4C5F02BFBE43A8C
:101B0300FA1908E7C5F0C6A426F6E5F03BFBE43A6C
:101B1300FA1886F0E7A4F6E5F00826F6E43B08F6A3
:101B2300E43A08F6D0E0FBD0E0FA22E4CFC0E0E4E8
:101B3300CEC0E0E4CDC0E0E4CCC0E075F020E62602
:101B4300F608E633F608E633F608E633F61818180F
:101B5300EC33FCED33FDEE33FEEF33FFC3EC9709BB
:101B6300ED9709EE9709EF97191919400FFFEC97B5
:101B7300FC09ED97FD09EE97FE191906D5F0BFECA8
:101B8300F709EDF709EEF709EFF7191919D0E0FC9A
:101B9300D0E0FDD0E0FED0E0FF226016080808C6C2
:101BA300C313C618C613C618C613C618C613C6D59C
:101BB300E0EA227009080808226016181818C6C33C
:101BC30033C608C633C608C633C608C633C6D5E00F
:101BD300EA22E627F60809E637F60809E637F608A3
:101BE30009E637F622E026F608A3E036F608A3E076
:101BF30036F608A3E036F622E026F008A3E036F036
:101C030008A3E036F008A3E036F022C3E697F6080F
:101C130009E697F60809E697F60809E697F622C358
:101C2300E096F008A3E096F008A3E096F008A3E09E
:101C330096F022E056F608A3E056F608A3E056F61F
:101C430008A3E056F622E056F008A3E056F008A3F6
:101C5300E056F008A3E056F022E0F608A3E0F60809
:101C6300A3E0F608A3E0F622E6F008A3E6F008A353
:101C7300E6F008A3E6F022E0FAA3E0FBA3E0FCA36E
:101C8300E0FD22E0F8A3E0F9A3E0FAA3E0FB22E8F9
:101C9300F0A3E9F0A3EAF0A3EBF022CAC0E0E6F078
:101CA300A308DAFAD0E0FA22CAC0E0E0A3C582CCE6
:101CB300C582C583CDC583F0A3C582CCC582C58348
:101CC300CDC583DAE6D0E0CA22C3E498F8E499F9F3
:101CD300121D0D8026C3E49AFAE49BFBE920E7E991
:101CE300121D0DE498F8E499F922C3E498F8E499F5
:101CF300F9121D0DE498F8E499F9C3E49AFAE49B08
:101D0300FB22EB20E7CFE920E7E0B90010BB000896
:101D1300E88AF084F8AAF022E4FBC8FA22EB7022E6
:101D23007B10C833C8C933C9335007C39AC3DBF226
:101D330080069A50012ADBEAC833F4C8C933F4C9D0
:101D4300FA2275F008E4C833C8C933C933C99AC93C
:101D53009B5004C92AC93BD5F0ECFBC833F4C8E453
:101D6300C9FA22600D08C6A2E713C618C613C6D562
:101D7300E0F322600C08C6C313C618C613C6D5E029
:101D8300F422700422600D18C6C333C608C633C6D6
:101D9300D5E0F41822251810AF08F518400C1519D2
:101DA3008008F51840021519D2AF2200C0D02518BB
:101DB30010AF08F518500C05198008F518500205E6
:101DC30019D2AFD0D0222518F58210AF08F51840EC
:101DD3000C15198008F51840021519D2AF8519831F
:101DE300222518F582E43519F583222518F8E43500
:101DF30019F9222518FAE43519FB222518FCE435D4
:101E030019FD22E4732518C582C0E0E51934FFC526
:101E130083C0E0E518C3958224F810AF08858319C1
:101E23008582188008858319858218D2AFCEF0A3E6
:101E3300E520F0A37808E608F0A3DEFAEFF0A3E5C7
:101E43008124FAF8E608F0A3E608F0A3E608F0A375
:101E53000808E608F0A3E608F0A315811581D0E091
:101E6300FED0E0F8158115811581E8C0E0EEC0E0F1
:101E7300222518C582C0E0E51934FFC583C0E0E51B
:101E830018C3958224F910AF0885831985821880B9
:101E930008858319858218D2AFCEF0A3E520F0A37D
:101EA3007808E608F0A3DEFAEFF0A3E58124FBF857
:101EB300E608F0A3E608F0A30808E608F0A3E6089E
:101EC300F0A315811581D0E0FED0E0F815811581CE
:101ED300E8C0E0EEC0E022851983851882E0A3FE06
:101EE300E0A3F5207808E0A3F608DFFAE0A3FFE01B
:101EF300A3C0E0E0A3C0E0E0A3C0E0E0A3C0E0E053
:101F0300A3C0E010AF0885821885831980088582F5
:101F130018858319D2AFD083D08202013285198309
:101F2300851882E0A3FEE0A3F5207808E0A3F60875
:101F3300DFFAE0A3FFE0A3C0E0E0A3C0E0E0A3C0BA
:101F4300E0E0A3C0E010AF088582188583198008FC
:101F5300858218858319D2AFD083D08222C0D02541
:101F630018C582C0E0E51934FFC583C0E0E518C396
:101F7300958224F310AF088583198582188008851C
:101F83008319858218D2AFC8F0A3E9F0A3EAF0A3BE
:101F9300EBF0A37908E709F0A3D8FAECF0A3EDF08E
:101FA300A3EEF0A3EFF0A3D0E0F0A3D0E0F0A3D032
:101FB300E0F0A3E520F0A3E5F0F0A32285198385E3
:101FC3001882E0C0E0A3E0F9A3E0FAA3E0FBA37862
:101FD30008E0F608A3DFFAE0FCA3E0FDA3E0FEA31C
:101FE300E0FFA3E0C0E0A3E0C0E0A3E0F5D0A3E0FE
:101FF300F520A3E0A3F5F010AF08858319858218B7
:102003008008858319858218D2AFD082D083D0E02F
:10201300F8D0E03274048006740280027401C0E0D8
:10202300F404121DC9D0E0121C9E227404800474AF
:10203300028000CCC0E0EDC0E0E518C39CCCAD1934
:1020430050011D10AF068C188D1980068C188D1940
:10205300D2AF121CABD0E0FDD0E0FC22D083D08203
:10206300E9C0E0E493A3C386F0C5F095F0F908E472
:1020730093A386F0C5F095F0700BE493A3C3994046
:1020830005E9048002A3E475F002A42582F582E544
:10209300F03583F583D0E0F9E493A3C0E0E493C083
:1020A300E022D083D082ECC0E0EDC0E0E493A3FC57
:1020B300E493A3FDED4C600D1220F1EC24FFFCED45
:1020C30034FFFD80EFE493A3FCE493A3FDED4C60A8
:1020D3000D122130EC24FFFCED34FFFD80EFD0E046
:1020E300FDD0E0FCE493A3C0E0E493C0E022C0E0B1
:1020F300C3E49396087401939618400FE4936670B3
:102103000808740193661870007019A3A3C3E493BD
:1021130096087401939618A3A3400DD0E0D0E0D0A5
:10212300E00220E1A3A3A3A3A3A3D0E022C0E0C0C5
:10213300F088F0E4936670080874019366187000E1
:10214300A8F0A3A3700BD0F0D0E0D0E0D0E0022041
:08215300E1A3A3D0F0D0E022CB
:10215C0074F6121E74EAFEEBFF8C088D09EE243423
:10216C00F8E43FF9E8FCE9FDEE2435122478FAEEA8
:10217C002437122478F88508F0A4C885F00A85095C
:10218C00F0A4250AF9EA28F8E439F97A257B00123B
:10219C001D0DEA8C828D83F0FA131313541FF8EE85
:1021AC0028F8E43FF9E8245DF582E439F583E0C0D2
:1021BC00E074075AF8D0E0B800028004C313D8FCCE
:1021CC00A2E0EE50082434F582E43F801824361245
:1021DC002478F5F0EA84A8F0EE28F8E43FF9E82436
:1021EC0038F582E439F583E0F97F03021F2074F798
:1021FC00121E74EAFEEBFFEE2434122478C0E0EEDB
:10220C002435F582E43FF583D0E0F08E828F83A3F2
:10221C00A3A3A3A3A3A3C082C0838E828F83A3A3F3
:10222C00A3A3A3E0F8A3E0F9D083D082E0C398F590
:10223C0008A3E099F509EE247F1224786401703E1E
:10224C00EE2480F582E43FF583C082C0838E828FBA
:10225C0083A3A3A3A3A3E0240108A3E03400F9D033
:10226C0083D082E0687003A3E06970127C9A7D0AC7
:10227C00120EEAEE247FF582E43FF583E4F0AC081D
:10228C00AD09EEFAEFFB12215CE9F9122ECA7F02BE
:10229C00021F20C082C083851882851983E0F8A3B1
:1022AC00E0F9C3EA9CEB9D5010C3EC98ED99401BF0
:1022BC00C3EA98EB995014800EC3EA98EB99400747
:1022CC00C3EC98ED994004790180027900D083D059
:1022DC008222EAC39CFAEB9DFB2274EF121E7490CF
:1022EC000743E064086005E06407702A9061C8E069
:1022FC006024900771E0F4601DE0F875F00DA4C83F
:10230C00AAF02AF9747328FE740739FF8E828F8322
:10231C00A3A3A3E070030223F4906060E0C0E0EE9E
:10232C002468F582E43FF583D0E0F0750C34750D2C
:10233C000B750800750900E5D914F50AE5D95403A5
:10234C00F50E60127403650E6043E50A600AEE2414
:10235C006712247870028075900B2FE06401601F67
:10236C0012247560047A0480027A00E50AC39AFA92
:10237C0095E0FB120D228A088B09EA4509700512BB
:10238C0011AE806412247570048A0C8B0DE50A6002
:10239C0012850C82850D83F50BE5D9F0A3150BE5A1
:1023AC000B70F6122475604474FC250AF50A780C3F
:1023BC0012201BAC0AA90EEEFAEFFB120FA474024A
:1023CC00121DAEE97026AA08AB09121778793D8E5A
:1023DC00828F83A3A3A3A3E0FA7B00120B72EEFA05
:1023EC00EFFB120F0E121004790080787403650E47
:1023FC006051850A10751100781012201BAC0CADC1
:10240C000DAA08AB09120F687402121DAEEE2468F7
:10241C0012247864807004747F8001E0F50C780CD1
:10242C0012201FE50EF50C780C12201FA90AAC081F
:10243C00AD09900771E0FA7B00120B427402121D79
:10244C00AE801C900743E06408AC0CAD0D7009EE37
:10245C00FAEFFB120FD48007EEFAEFFB1210761294
:10246C0011BA79017F0A021F20EE2483F582E43F22
:10247C00F583E02274F2121E7474FC121D98EAFEAD
:10248C00EBFF8909A2AFE433F508C2AF02254AE09D
:10249C00601B780C12201BAC0BA90EEEFAEFFB1292
:1024AC000F9E7402121DAE7404250BF50B740125DE
:1024BC000BF5D9850ED9E50B6018F50A850C8285CC
:1024CC000D83E0F5D9A385820C85830D150AE50AE9
:1024DC0070EA75E195EE2463F8E43FF97A007B002D
:1024EC00A2AFE433F50BC2AF88828983E0FCA3E092
:1024FC00FDEC4D603A88828983E0FAA3E0FB8A8286
:10250C008B83E0FCA3E0FD88828983ECF0A3EDF0E3
:10251C008A828B83E4F0A3F088828983E0FCA3E0B9
:10252C00FDEC4D700A88828983A3A3E4F0A3F0E547
:10253C000BA2E092AF121778900AA1E004F0EE24FF
:10254C0063122478F8A3E0F9E8496064EE2463127E
:10255C0024782402F8A3E03400F988828983E58288
:10256C002402F50CE43583F50DE0F50BA3E0F50E34
:10257C00EE2462122478640170369061D0E0F81277
:10258C00247560047C0480027C007480C398FA95E6
:10259C00E0FBE50B2CF8E43400F9E82402F85001D8
:1025AC0009C3EA98EB99A2D265D033400302249B6D
:1025BC00900AA1E0604D900AA2E0F8900AA1E0C355
:1025CC0098500C74026509703A900AA3E060348E3E
:1025DC00828F83A3A3A3A3E0851882851983122677
:1025EC001F7402121DE4E812261F900AA0E028F0C6
:1025FC007402121DFEAA18AB197901120BA2900AD3
:10260C00A1E4F0E508A2E092AF7404121DAE7F07BE
:10261C00021F20F0A3E4F0900AA1E0F822000000D1
:10262C008521878522C622C0E074EB121F60A2AF01
:10263C00E433F508C2AF759B00906182E0A2E050D4
:10264C0030E591A2E0502A7591FE7401652170214C
:10265C001227C61210C41227B412202E122C747416
:10266C0004121DAEE964017005790112110C1222DD
:10267C00E6906182E0A2E5505DE591A2E5505775C8
:10268C0091DF900743E064076005E06408702F1247
:10269C0027C674016521703E1210C41227B4122093
:1026AC002E122C747404121DAEE9640170057901AC
:1026BC0012110C7901EEFAEFFB1224808018E06401
:1026CC000D7013900765E004F064287002E4F07A52
:1026DC0000E0F91211C0906182E0A2E640030227EB
:1026EC0089E591A2E640030227897591BF900743C3
:1026FC00E0640570081210AC1210B880031210B20E
:10270C0075210012112AE9900744F0790012110C7E
:10271C00120E0C7A017B00900742E0F912174890D8
:10272C007803E064427056900B33E014F0704EC2A4
:10273C00AF12274000782AD0E0F618D0E0F6E59FDB
:10274C005407F87005750DFF8003750D7FC4C0E04C
:10275C007829E6F50A08E6550DF50B740B780A1284
:10276C001D76D0E0250AF8906270E0A2E740F8E808
:10277C00C333906272F0906270E0D2E0F0906181AD
:10278C00E0A2E35009E5E9A2E3500375E9F7A3E001
:10279C00A2E75009E591A2E7500375917FE508A2E5
:1027AC00E092AF7F08021FBF8E828F83E0F8A3E018
:1027BC00C82416F582E438F58322900771E0F87589
:1027CC00F00DA4C8AAF02AF9747328FE740739FF17
:1027DC0022C0E0C0D0C082C083906183E0A2E050F0
:1027EC0009E5BFA2E0500375BFFEE0A2E15009E588
:1027FC00BFA2E1500375BFFDE0A2E25009E5BFA204
:10280C00E2500375BFFBE0A2E35009E5BFA2E35021
:10281C000375BFF7E0A2E45009E5BFA2E4500375CD
:10282C00BFEFE0A2E55009E5BFA2E5500375BFDF9D
:10283C00E0A2E65009E5BFA2E6500375BFBFD08306
:10284C00D082D0D0D0E032C0E074F2121F60E5A785
:10285C00A2E6500FE5A1A2E6500953A7BF75A1BF90
:10286C001228A7E5A7A2E5500CE5A1A2E550065356
:10287C00A7DF75A1DFE5A7A2E15009E5A1A2E15010
:10288C000375A1FDE5A7A2E2500CE5A1A2E250065A
:10289C0053A7FB75A1FB7F01021FBF74F7121E74B7
:1028AC00752101900743E0640670151210288A8286
:1028BC008B83A3A3A3A3A3A3E0FAA3E0FB12109A18
:1028CC00A2AFE433FED2AF900749E0640170187AEE
:1028DC00207B00900742E0F91218807A207B009050
:1028EC000742E0F912174E906182E0D2E6F0900BAD
:1028FC0030E0602185C6228016900748E0640170A4
:10290C0008E5C654F84405F5C653BEFC12262C74D3
:10291C0001652160E4EEA2E092AF7F02021F20006D
:10292C008E238F2485822885832785188285198399
:10293C00E0CEA3E0CF852882852783EBC9EAC8EDDA
:10294C00CBECCA75F010C3E833C8E933C9EA33CA13
:10295C00EB33CBC3EA9EF526EB9FF525B35004ABC6
:10296C0025AA26EC33CCED33CDD5F0DAAE23AF244B
:10297C002274E9121E7474FA121D98EAFEEBFF8C95
:10298C000A8D0B1210D0EAF8EBF9ECFAEDFB8E8203
:10299C008F83121C92900743E024F7C394055006D2
:1029AC00751401022AE41210288A088B09EA4509D9
:1029BC007003022AE1EEFCEFFDAA18AB191210CA43
:1029CC00850882850983A3A3780C121C5C908592E0
:1029DC00780C121C368518828519837810121C5CB1
:1029EC009085927810121C36780C7910121A6F5050
:1029FC001F780C7910121C0E908622780C121A8FEC
:102A0C004047850C14850D15850E16850F178045CE
:102A1C00908622851014851115851216851317784A
:102A2C0014790C121C0E7814121A8F501C75140089
:102A3C0075150075160075170178147910121C0E97
:102A4C007814790C121BD5800C7514017515007552
:102A5C00160075170074097814121BB690861E7830
:102A6C000C121C5C7814790C121B2E8508828509BB
:102A7C0083A3A3A3A3A3A3122B02121D0D880C895D
:102A8C000DE4F50EF50F7814790C121BD5740412A5
:102A9C001DE4122B02121D0DE8FA8A0CE4F50D78D8
:102AAC0014790C121A6F50077814790C121C0E90B2
:102ABC000743E06408600AE064066005E0640570A2
:102ACC002090861A7814121A8F501690856A7814F2
:102ADC00121BE8800C75140075150075160075171F
:102AEC0000850A82850B837814121C6B7406121DE8
:102AFC00AE7F10021F20E0F8A3E0F97AD07B03220E
:102B0C0074F7121E741210E2900B2EE06401701018
:102B1C00906245E4F0A3F053F4F343FE0C5390F3AE
:102B2C00121088E5C654B84441F5C6E59E54476476
:102B3C004170F8906185740FF0900B2CE0F47002EA
:102B4C00A3E0604E900B2DE0600814601B14602E07
:102B5C008040750801750900900B2CE07808121D57
:102B6C0085E508F45280802A750801750900900BE0
:102B7C002CE07808121D85E508F452908014750835
:102B8C0001750900900B2CE07808121D85E508F4FE
:102B9C0052A079007F02021F2074F7121E74E9FE06
:102BAC00EAFF1210E274016E700C7A807B009007C1
:102BBC0042E0F9121748902FBCE493F46008E493B8
:102BCC00F9120E00800953C6B8E59E544770FA12EC
:102BDC00108E900B2EE064017003120E24900B2CBF
:102BEC00E0F47002A3E0604B900B2DE060081460E1
:102BFC001A14602C803D750801750900900B2CE0AF
:102C0C007808121D85E50842808028750801750931
:102C1C0000900B2CE07808121D85E508429080137B
:102C2C00750801750900900B2CE07808121D85E5DC
:102C3C000842A01210288A088B09A808A909E8499B
:102C4C006014E5E170FCE82414F582E439F583E0C6
:102C5C00F46003E0F5E174016F700A7A01900742A9
:102C6C00E0F91217DE022BA074F1121E748A088B85
:102C7C00098C0A8D0B9085927808121C36740F12F1
:102C8C001DE4780C121C5C908592780C121C367822
:102C9C0008790C121A6F90862250107808790C1251
:102CAC001C0E7808121A8F4014800E780C790812BA
:102CBC001C0E780C121A8F50047901800279007F57
:102CCC0008021F2074ED121E748A088B098C0A8D61
:102CDC000B9085927808121C367413121DE4780C34
:102CEC00121C5C908592780C121C36780C790812A8
:102CFC001A6F40117808790C121C0EAA08AB09AC9B
:102D0C000AAD0B8022751000751100751200751339
:102D1C00017810790C121C0E78107908121BD5AAA8
:102D2C0010AB11AC12AD137F0C021F209085927862
:102D3C0008121C5C8A828B837808121C497F04025F
:102D4C001F2074F5121E748C828D837808121C5C03
:102D5C008A828B837808121C22122DA6C3E09CF069
:102D6C00A3E09D122D9840229085FA7808121C5CE5
:102D7C008A828B837808121BFB8A828B83A3A3A382
:102D8C00A3E02420F0A3E0344EF080A0F0888289E8
:102D9C0083C3E09420A3E0944E22EA2404F8E43B9D
:102DAC00F98C828D83A3A3A3A3E0FCA3E0FD88820E
:102DBC0089832274F5121E74E9FE900ABCE0FAA312
:102DCC00E0FBEE29F8E433F9743328F58274843986
:102DDC00F583E02AF508A3E03BF509780812201BDF
:102DEC0090856E121C7A12292C7402121DAE8A0860
:102DFC008B098C0A8D0B74107808121B9DAA08ABDA
:102E0C00097F04021F2074F1121E748A0C8B0D8C26
:102E1C000E8D0F7411121DE41220327411121DE468
:102E2C00E02401F508A3E03400F509E4F50AF50BFC
:102E3C00780C7908121AAE9086127808121C5C78FD
:102E4C000C7908121AAEAA0CAB0DAC0EAD0F1229F0
:102E5C002C7402121DAE8B09EA450960047A0180BC
:102E6C00027A00EC2AFCE43DFD7413121DE4E0F838
:102E7C00A3E0F9E8FEE9FFECF8EDF97A717B0212B8
:102E8C001D0D88088909E4F50AF50B8E828F83786D
:102E9C0008121C6BECF8EDF97A717B02121D0D8A8D
:102EAC00088B0974057808121D858E828F83A3A365
:102EBC00A3A3E508F0A3E509F07F08021F20C08258
:102ECC00C083E9906000F0D083D08222C0E074F21D
:102EDC00121F60A2AFE433FED2AFC2C0E5D1A2E4B0
:102EEC00500675D10F12169A751A00EEA2E092AF29
:102EFC007F01021FBFC0E074F2121F60A2AFE43367
:102F0C00FED2AFE589A2E150031215B6758900C255
:102F1C00C5751A00EEA2E092AF7F01021FBFC0E0A0
:102F2C00C0D0E8C0E0E9C0E0A2AFE433F8D2AFC251
:102F3C00C7751A00A2E092AFD0E0F9D0E0F8D0D07B
:102F4C00D0E032C0E0C0D0E8C0E0E9C0E0EAC0E0C8
:102F5C00C082C083A2AFE433FAD2AF9013C2E0F8C0
:102F6C00A3E0687008539AFBA374018022C2E99015
:102F7C0013C2E0F8740128F0744228F582E434138B
:102F8C00F583E0F5C19013C2E0C394804002E4F0F5
:102F9C00EAA2E092AFD083D082D0E0FAD0E0F9D0B0
:102FAC00E0F8D0D0D0E032C2AF02000022020132F1
:102FBC00FFFFFFFFFFFFFFFFC082C083E9901BF8FC
:102FCC00F0D083D08202013274F6121E08E990060A
:102FDC00B5F0900715E0F508750900740278081231
:102FEC001D85AA08AB091217C69006B61239879030
:102FFC0006B6123D74606F900715E075F003A4FAE5
:10300C00ABF01217C69006D31239879006D3123D37
:10301C0074700B9006B6123D451217CC8048900682
:10302C00D3124CD97AFF7BFF12153E7A0080198A95
:10303C000875090074027808121D8512478174FF07
:10304C00123187E4F0A3F00A900715E0F8EAC39870
:10305C0040DD7905120A109006B5E0F91208FC7AE9
:10306C009A7B0A120CC202482474F4121E088A08B5
:10307C008B09EB548060479006B5E0F91217308A43
:10308C000A8B0BAE0AAF0BEE4F602A8E828F83E059
:10309C0064B0701A120A22E960148E828F83A3A383
:1030AC00A3A3E0F9EE2405FAE43FFB1209F2EEFAD1
:1030BC00EFFB12171EAA08E5096480FB80047A0056
:1030CC007B000232D774F2121E0874FB121D98EAB0
:1030DC00FEEBFFEE4F60457403121DE4EEF0A3EF20
:1030EC00F0851882851983ECF0A3EDF07402121DA3
:1030FC00E4E9F0AA18AB191208F6E9F50870757432
:10310C0013121DE4E0F50AA3E0F50BE50A450B608C
:10311C00638E828F83123710EE4F70057508028014
:10312C00537A067B001217C68A0C8B0DA80CA90DBE
:10313C00E8497005750813803B88828983E4123155
:10314C0087EEF0A3EF1232A3E50AF0A3E50BF090A3
:10315C0006B912329C9006B96017E0FCA3E080031C
:10316C00EAFCEBFD8C828D8312329C70F38C828D89
:10317C008312439CA9087405024F59F0A3124CBB4F
:10318C00A32274F2121E088908890C750D007403B1
:10319C00780C121D85850C0A850D0B9006B8F090E5
:1031AC0006B61241A712329A602E1217CC79008003
:1031BC001D890C750D007402780C121D859006B6D5
:1031CC001246408882F583A3A3E4F0A3F00990078C
:1031DC0015E0F8E9C39840D9900715E0FA850AF094
:1031EC00A4CAA8F0850BF0A428FB1217C68A0C8B76
:1031FC000DAE0CAF0DEE4F7003023290900715E040
:10320C00FC850AF0A4CCA8F0850BF0A428FD79006D
:10321C001217067C0080318D0C750D007403780C30
:10322C00121D858A828B8312329588828983E4F001
:10323C001232A2A3A3F0A3F00DEDC3950840D8EE73
:10324C00250AFEEF350BFF0C900715E0F8ECC39840
:10325C0050288C0C750D007402780C121D8590068C
:10326C00B6123295E82402500109FAE9FB8A828BE6
:10327C0083EEF0A3EFF07D0080BFE5089006B8F078
:10328C00790080027913024F5C124644F922A3A301
:10329C00123D49EA4B22A3124CBBA3A3A32274F404
:1032AC00121E087900EAA2E0501F750858750985AE
:1032BC00780812201B79107C047D007AFA7B1B1293
:1032CC000A0A7402121DAEE9F980007F04021EDAAC
:1032DC00C082C0839006B9123D74601C88828983B9
:1032EC00A3A3E06A7003A3E06B8882898370E8A3D0
:1032FC00A3A3A3123D4580047A007B00022FCD745A
:10330C00F2121E0874FD121D98EAFEEBFF8518825E
:10331C00851983E4F0A3F07402121DE47401F01219
:10332C003D717014120BF61217C69006BC12398739
:10333C00123D71700302349D123A87EE2404F50A93
:10334C00E43FF50B850A82F583E024FE603C24FC07
:10335C00607424FE607E24FE70030233ED24FE7044
:10336C00030233FA24FE700302340724FE700302B6
:10337C00341424FE700302342124FC700302344202
:10338C0024FE700302345A023496120BF69006BED9
:10339C00EAF0A3EB1234A91204F4E96003023496A8
:1033AC009006BE1220328E828F83A3A3A3A3A312F6
:1033BC004CD9850882850983123D451209DA7402BD
:1033CC00121DAE023496AC18AD19EEFAEFFB120AD0
:1033DC0028023465AC18AD19EEFAEFFB120A2E80F8
:1033EC0078AC18AD19EEFAEFFB120A34806BAC18FE
:1033FC00AD19EEFAEFFB120A3A805EAC18AD19EE7D
:10340C00FAEFFB120A408051AC18AD19EEFAEFFB43
:10341C00120A4680447402121DEE880C890D780C39
:10342C0012201B7402121DFEEEFAEFFB120A4C74F2
:10343C0002121DAE8023AC18AD19EEFAEFFB120A86
:10344C0052E9F870167402121DE4E4F0803CAC18DA
:10345C00AD19EEFAEFFB120A58E9F8E8602C8E82EF
:10346C008F83A3E064146022850A82850B83E0902D
:10347C0006BEF0851882851983123D459006BF1251
:10348C003987E8A31234A91204EEEEFAEFFB120905
:10349C00B07402121DE4E0F97403024F59F07CBEC3
:1034AC007D06850882850983123D492274E8121E27
:1034BC000874FA121D987404121DE4ECF0A3EDF0DC
:1034CC008A128B13EA2405F50EE43513F50FEA2462
:1034DC0002F510E43513F511851082F583123D4584
:1034EC0012062C8A0A8B0B7508007C037D00790070
:1034FC007ABE7B06121706E50E2402F516E4350F8C
:10350C00F5177402121DEE880C890D780C12201B15
:10351C00850E82850F83A3A3A3A3E0F50C750D0084
:10352C00780C12201BE50E2405F50CE4350FF50D77
:10353C00780C12201B85168285178312404C1209B9
:10354C00147406121DAE8A0C8B0DE50C450D700320
:10355C000236D98020851882851983E08882898378
:10356C00F00508851882851983A3E0C0E012371A8C
:10357C00D0E0F00508E50A24FBFAE50B34FFFBC3A9
:10358C00E5089AE49B40030236D97E007F00851241
:10359C0082851383A3A3A3A3E0F509780912201F46
:1035AC00E4F514F515781412201B7514BB7515066B
:1035BC00781412201B9006BC1220327409121DE4E0
:1035CC00122032E50A24F9F9AC0CAD0D8510828578
:1035DC001183123D45120A827409121DAEE9600373
:1035EC0002367A850E82850F83A3A3A3A3A3A3A37C
:1035FC00E0F89006BBE0687075E0F5148E15781451
:10360C0012201B124CD6850E82850F83A3A3A3A375
:10361C00A3A3A3A3123D451217007402121DAEE919
:10362C00604C9006BF123D74703BE4F51478141294
:10363C00201B7CFF7DFF7907851082851183123D4D
:10364C00451209EC7402121DAE123D7A7017850EEC
:10365C0082850F83124E737404121DE412473412C8
:10366C00407D02370D850C82850D83123710A8180A
:10367C00A91988148915781412201B7404121DE4DE
:10368C0012203285168285178312397D1209207417
:10369C0004121DAE8A0C8B0DEE4F700302355612C0
:1036AC00371AEE123725124033EF123725F8A3E004
:1036BC003400F9E50C450D6003023561888289837D
:1036CC0074FFF0050812371A74FFF00508E508605E
:1036DC001A1313543F12398D120500E96009900634
:1036EC00BF123D4512177879008016850E82850F22
:1036FC0083124E737404121DE412473412439C79E6
:10370C000A024006A3A3A3A3E0FEA3E0FF22A8089D
:10371C009006BFE02812403322F00508089006BF3F
:10372C00E0282274E8121E0874FA121D9874021212
:10373C001DE41239877404121DE4ECF0A3EDF0744F
:10374C0002121DE4E0240512401CE0F50CA3E0F588
:10375C000D7402121DE4E02402F510A3E03400F510
:10376C0011851082F583123D4512062C75080075E3
:10377C000900EA24FCFEEB34FFFF8008050CE50C85
:10378C007002050DA808C3EE98EF9400500302399F
:10379C0039A818A919880E890F780E12201B8514C8
:1037AC0082851583A3A3A3A3124CDD12201BE51461
:1037BC002405F50EE43515F50F780E12201B851433
:1037CC008285158312397B1209147406121DAE8A78
:1037DC000E8B0FEA450F7003023939EA2404F516F3
:1037EC00E4350FF517851682F583E0F50CA3E0F5AB
:1037FC000D851882851983124CD98A828B83A3A3D9
:10380C00A3E0F9851082851183123D45120902E966
:10381C00F50960030239397402121DE4124043F5B4
:10382C0009780912201FE4F512F513781212201BE7
:10383C007512BB751306781212201B9006BC122051
:10384C00327407121DE4122032EEF9AC0EAD0F8566
:10385C001082851183123D45120A827409121DAE25
:10386C00E9F5096003023939E508703FE4F50EF516
:10387C000F780E12201B7CFF7DFF79098510828545
:10388C001183123D451209EC7402121DAE124069EF
:10389C00700D7404121DE4123970791102396D9097
:1038AC0006BBE024029006BFF080149006BFE0FA3D
:1038BC009006BBE0790024025001096A497072A895
:1038CC00089006BBE0FAE82AFAE43400FBEE9AEF23
:1038DC009B405A851682851783E0C0E09006C01283
:1038EC00371FD0E0F00508851682851783A3E0C04A
:1038FC00E0089006C012371FD0E0F005089006BB18
:10390C00124CDD12201B124CD6A8081240101216B5
:10391C00EE7402121DAE9006BBE02508F50874FF8C
:10392C00650C700474FF650D6003023788E5086050
:10393C001F9006BFE0F5F0E5088412398D120506DC
:10394C00E960099006C0123D451217787900801184
:10395C00E509700375090A7404121DE4123970A983
:10396C00090240061241ABE50CF0A3E50DF022A3D1
:10397C00A3124F68AA0CAB0D22A3A3EAF0A3EBF0A1
:10398C00229006BEF07CBE7D0685108285118312C6
:10399C003D492274EC121E0874FC121D981244ACA2
:1039AC007402121DFE123D3F12091A8A0C8B0DEA8D
:1039BC00450D7003023A77123A87A818A919881096
:1039CC008911781012201B7CFF7DFF790B850882F2
:1039DC00850983123D451209EC7402121DAE123B8F
:1039EC007D700C850A82850B8312407A023A848E94
:1039FC00828F83A3A3A3A3E0F512781212201FE4F5
:103A0C00F512F513781212201B7512BE7513067879
:103A1C001212201B781012201B7409121DE41220A4
:103A2C00327409121DE4E0F9AC0CAD0D85088285E9
:103A3C000983123D45120A827409121DAEE9FE700B
:103A4C00157CBE7D06850882850983123D451205CD
:103A5C000CE97009802074166E70027E009006BF0F
:103A6C00123D45121778EE7004800B7E01850A8298
:103A7C00850B83124399EEF90243AEEE2402F5084E
:103A8C00E43FF5092274EC121E0874FC121D98EA2E
:103A9C00FEEBFF8C0E8D0FEE2405F508E43FF509C7
:103AAC007402121DFE850882850983123D45120998
:103ABC001A8A0C8B0DEA450D7003023B6DEE240245
:103ACC00F50AE43FF50BA818A9198810891178108C
:103ADC0012201B7CFF7DFF790D123D3F1209EC7407
:103AEC0002121DAE123B7D700B8508828509831274
:103AFC00407A807A8E828F83A3A3A3A3E0F51278F9
:103B0C001212201F850882850983A3A31220327507
:103B1C0012BE751306781212201B781012201B741B
:103B2C0009121DE41220327409121DE4E0F9123D51
:103B3C003B120A827409121DAEE9FE700F7CBE7D29
:103B4C0006123D3F120512E97009802074166E7042
:103B5C00027E009006BF123D45121778EE7004806D
:103B6C000B7E01850882850983124399EEF9024385
:103B7C00AE123D84F510A3E0F511EA45112274E86C
:103B8C00121E0874FE121D988A168B178C148D1534
:103B9C00EA2405F50CE43517F50DEA2402F50EE4DC
:103BAC003517F50F850E82F583123D4512062C8ACA
:103BBC00088B09750B007C037D0079007ABE7B06AF
:103BCC00121706750A00E50814F5100424FFF50811
:103BDC00E50934FFF50980549006BEE0FA9006BB67
:103BEC00E0F8EA28F8E43400F9E50898E50999507A
:103BFC000D9006BEE0F8E510C3989006BBF0E0F51A
:103C0C0012751300781212201B124CD69006BFE0CE
:103C1C002AFAA3E03400FB1216EE7402121DAE90C9
:103C2C0006BBE0F89006BEE028F0050A850C8285FC
:103C3C000D83A3A31246504003023D209006BEE024
:103C4C00C39508E495094003023D20AE0AEE2EFE12
:103C5C00E433FF123D5FAC18AD19124CF1E439FBA3
:103C6C0012091A8A128B13AC12AD13EC4D701B7522
:103C7C000B01123D4F12439D9006BF12329C600304
:103C8C00121778A90B7402024008851682851783D7
:103C9C00A3A3A3A3E0F50B780B12201FE4F512F5F8
:103CAC0013781212201B7512BB7513067812122092
:103CBC001B9006BC1220327407121DE4122032A98C
:103CCC0010850E82850F83123D45120A82740912EB
:103CDC001DAEE9F50B709B9006BF123D746003029C
:103CEC003BE4E4F512F513781212201B7CFF7DFFE8
:103CFC00790F850E82850F83123D451209EC7402F3
:103D0C00121DAE123D7A6003023BE4123D4F12408D
:103D1C007E023C917CBE7D06850E82850F83123D12
:103D2C0045120518E96003023C847900023C91AC11
:103D3C000CAD0D850A82850B83123D4922E0FAA356
:103D4C00E0FB22123D5FE0FAA3E0F9EA85148285DC
:103D5C00158322850C82850D83E02EF8A3E03FF9B4
:103D6C0088828983229006BC124E77E84922123D44
:103D7C0084F8A3E0F9E849229006BFEAF0A3EBF03F
:103D8C009006BFE02274E8121E0874FA121D987493
:103D9C0004121DE41239878C168D177404121DE45D
:103DAC00E02405F50EA3E03400F50F7404121DE4B5
:103DBC00E0240212401C123D4512062C8A0A8B0B81
:103DCC007F007E00A818A919880889097808122094
:103DDC001B850E82850F83A3A3A3A3E0F5088E0990
:103DEC00780812201BE50E2405F508E4350FF509BB
:103DFC00780812201B850E82850F83A3A312404CDA
:103E0C001209147406121DAE8A0C8B0D80291240F7
:103E1C003DF00F12403DF00F9006BB12438812206C
:103E2C001B124CD6EFF81240101216EE7402121D33
:103E3C00AE9006BBE02FFFE50C450D7003023ECCA7
:103E4C008518828519831244BEA3A3A3E0F98514B7
:103E5C0082851583123D45120902E9FEE50C240406
:103E6C00F510E4350DF511EE70507404121DE412CA
:103E7C004043F508780812201FE4F508F509780886
:103E8C0012201B7508BB750906780812201B9006BA
:103E9C00BC1220327407121DE4122032E50A24FAF7
:103EAC00F9AC0CAD0D851482851583123D45120AB3
:103EBC00827409121DAEE9FE603912405912439CFE
:103ECC00EF7003023FF39006BFE0F5F0EF8490062D
:103EDC00BEF07CBE7D06851482851583123D45128D
:103EEC00051EE960099006C0123D4512177879004D
:103EFC000240068F08EF703BE4F512F513781212AE
:103F0C00201B7CFF7DFF7911851482851583123D62
:103F1C00451209EC7402121DAE1240697009124070
:103F2C005912407D0240069006BBE024049006BF67
:103F3C00F080359006BBE0F89006BFE0FAE8240468
:103F4C00FCE43400FDEC6A4D6003023ED2E50A2429
:103F5C00FAFAE50B34FFFBE50828F8E43400F9EA3B
:103F6C0098EB995003023ED2851082851183E0C0F4
:103F7C00E09006C0E02FF8A3E034008882F583D0EF
:103F8C00E0F00F851082851183A3E0C0E012402A77
:103F9C00D0E0F00F7402121DEE880889097808121F
:103FAC00201B7402121DE4122032850E82850F83B1
:103FBC0012397B1209207404121DAE8A0C8B0DEA87
:103FCC00450D7003023E1A7402121DE4E0C0E012AB
:103FDC00402AD0E0F00F7402121DE4A3E0C0E012FE
:103FEC00402AD0E0023E22EE70027E0A850E8285C7
:103FFC000F8312405F12439CEEF97406121DAE7FC4
:10400C0010021EDA9006C0E028FAA3E03400FB226E
:10401C00F514A3E03400F515851482F583221240C3
:10402C002E229006C0E02FFAA3E034008A82F5839A
:10403C002212402E74FF221241ABA3A3A3A3E022B1
:10404C00124F68850E82850F83123D49228510829E
:10405C00851183124E77851682851783229006C0B0
:10406C00EAF0A3EBF09006C0124E77E84922124317
:10407C00A2E8F0A3E9F079112274EA121E0874FE8A
:10408C00121D988A088B098C128D13EA2405FEE404
:10409C003509FFAC18AD198E828F83123D4512097C
:1040AC001A8A0C8B0DEE2406F50EE43FF50FEA454B
:1040BC000D700302417DE5082402F50AE43509F58B
:1040CC000B8A828B83A3A3A3E0A2E55028851882D8
:1040DC00851983123D45120A768A108B11EA451117
:1040EC0060207912123D3B851082851183121E06C9
:1040FC00E9F50C707F850E82850F83E0600979529B
:10410C008011750C0E806D850882850983A3A3A38D
:10411C00A3E0F9E4F508F509780812201B8E828FCC
:10412C0083A3A3E0F508780812201B8E828F83A34B
:10413C00A3A31220328E828F83124CD9123D3F12D0
:10414C000A887406121DAEE9F50C7011850E828575
:10415C000F83E0702D123D3F1205248025741665E7
:10416C000C7011750C007418121DE41241A7E48038
:10417C0010750C01124E6F851282851383E8F0A323
:10418C00E9F0850E82850F83E0600479008002A936
:10419C000C7402121DAE7F0E021EDA1241AB22E02D
:1041AC00F8A3E0F58388822274EC121E0874F712CF
:1041BC001D988A0A8B0B8C108D11EA2405FEE435B0
:1041CC000BFF750C00AC18AD198E828F83123D4518
:1041DC0012091A8A088B09EA45097003024373E530
:1041EC000A2402F50A5002050B8A828B83A3A3A32F
:1041FC00E0A2E5502F851882851983123D45120ADD
:10420C00768A0C8B0DEA450D604F7912AC08AD091E
:10421C00123D3F850C82850D83121E06E9F50C605C
:10422C0003024376850A82850B83E0F508A3E0F54B
:10423C0009AA08FB120A6AEA4B70197AFF7BFF1273
:10424C000A6AEA4B70030243698A828B83E508F0A1
:10425C00A3E509F07508008008750C0E024376057D
:10426C00089006B8E0F8E508C39840030243698556
:10427C00080E750F007403780E121D858A828B83CD
:10428C00A3A3E0250EF8A3E0350F12473D70D08EA6
:10429C00828F831243911239878E828F83A3A3124C
:1042AC004391123985EE2404F508E43FF50985089D
:1042BC0082F583E088828983A3A3A3A3F0A3E4F00F
:1042CC00EE2405F50EE43FF50F850E82F5831243BF
:1042DC0091A3A3A3A3123985751207751300781245
:1042EC0012201BEEFCEFFD7404121DF61216EE7478
:1042FC0002121DAEE4F512781212201B850882857D
:10430C000983E0FC7D007917123D3F1209EC740221
:10431C00121DAE7407121DE41239877407121DE4C6
:10432C00E0FA4B603D850882850983124388122090
:10433C001B850E82850F83124CD91216EE74021255
:10434C001DAE7402121DFE123D3F12052AE96026B5
:10435C007407121DE4123D451217788019750C096B
:10436C008008750C118003750C01124E6F8510823C
:10437C0085118312439CA90C74098028E0F50875FB
:10438C000900780822123D4988828983221243A2AF
:10439C00E8F0A3E9F022E0F8A3E0F9850E82850F9E
:1043AC0083227404121DAE7F0C021EDA74EC121EF2
:1043BC00081244AC751000EE2402F50CE43FF50D28
:1043CC00850C82F583123D45120A6A8A088B09EA2C
:1043DC0045097003024490850A82850B83E06401D1
:1043EC006003024485AC08AD09AA0AAB0B120A5E45
:1043FC00E9606E850882850983123712EE2406F572
:10440C000AE43FF50B8E828F83A3A31220328E8297
:10441C008F83A3A3A3A3122032850A82850B831258
:10442C00203279188E828F831244BE123D45120AB7
:10443C00887406121DAEE9F8741668700B850A8232
:10444C00850B83E4F0A38014E860128E828F8312B4
:10445C003D45850E82850F83EAF0A3EBF088108032
:10446C0018780E12201BAC08AD09EEFAEFFB120AFD
:10447C00647402121DAEE9F510AA08AB09120A7099
:10448C00E510700E850C82850D83123D45120530AA
:10449C008009741665107003751000A9100243B3DF
:1044AC00EAFEEBFF8C0E8D0FEE2405F50AE43FF5CA
:1044BC000B22124F68850C82850D832274EA121E22
:1044CC00087508007509007E007F00750A00EC2451
:1044DC0002F510E43DF5118035EC65087003ED65CF
:1044EC0009600302457D88828983A3A3E06A700377
:1044FC00A3E06B707C88828983A3A3A3A3124E7361
:10450C00EE28FEEF39FFEA28FAEB39FB050A1246D2
:10451C004D503A850A0C750D007403780C121D85EC
:10452C0085108285118312464012473D601FE508B5
:10453C00450970A58C088D098882898312371088EB
:10454C00828983A3A3E02EFAA3E03F80BEE50AC3D1
:10455C009402500302463B750800750900EE4F604B
:10456C0010EEFAEFFB1217728A0E8B0FEA450F70E2
:10457C0005790002463D750B00024610850B0C7543
:10458C000D007403780C121D85851082851183E053
:10459C00250CF50CA3E0350DF50DE50C2406F514F2
:1045AC00E4350DF515851482F5831247426042E51A
:1045BC000C2404F512E4350DF513851282F58312E3
:1045CC002032E50E2508FAE50F3509FB1216EE74BC
:1045DC0002121DAE851282851383E02508F508A30F
:1045EC00E03509F509851482851583123D451217AE
:1045FC0078E50B600D7C087D007900AA0CAB0D12E0
:10460C001706050BE50BC3950A5003024588851068
:10461C0082851183124E7388828983A3A3A3A3A3DB
:10462C00A3E50EF0A3E50F1232A3EEF0A3EFF079A1
:10463C00010241A212464422E0250CF8A3E0350DFC
:10464C00229006B8E0F8E50AC3982274F0121E080E
:10465C008A0E8B0F8C0A8D0B750D00750C0080501B
:10466C007916EE2406F508E43FF5098E828F83A3B4
:10467C00A31220328E828F83A3A3A3A31220328590
:10468C000882850983122032850E82850F83A3A3AD
:10469C00123D45120A887406121DAEE9F50D74160A
:1046AC00650D706C850882850983E4F0A3F0050C18
:1046BC009006B8E0F8E50CC3985066AA0C8A087509
:1046CC00090074037808121D85850A82850B83A363
:1046DC00A312478CE8FEE9FF8E828F83124742605B
:1046EC0040EA2401F508E43400F5099006B8E065C9
:1046FC00087002E509601488828983A3A3A3A3A38D
:10470C00A3A3A3123D74600302466C791802466E93
:10471C00E9609B124E6F7410121DE4124734124361
:10472C009CA90D7F08021EDAE0FAA3E0F5838A82C9
:10473C0022F988828983124F68EC4D2274F6121E7E
:10474C00087C0080010C900715E0F8ECC398501E13
:10475C008C0875090074027808121D85124781E0D7
:10476C006A7003A3E06B70DDE8FAE9FB80047A0061
:10477C007B000248249006B612478C8882898322DB
:10478C00E02508F8A3E03509F92274F2121E088A14
:10479C00088B09750A0080278E828F83A3A3A3A39D
:1047AC0012329A60031217787C087D007900EEFAB9
:1047BC00EFFB1217068E828F83E4F0A3F0050A122A
:1047CC00464D5027850A0C750D007403780C121D8C
:1047DC0085850882850983A3A3E0250CFEA3E0351B
:1047EC000DFF8E828F83123D7470AD850882850912
:1047FC008374FFF0A3F0024F5C74F6121E08120AC9
:10480C001C8A828B83E582458370067A007B00804C
:10481C0007A3A3A3A3123D457F02021EDA74F41270
:10482C001E0889088C828D83E06402703C124E1243
:10483C00FEA3E0F9EEF8740268700374296970291C
:10484C00750A02750B00780A12201B7410121DE4F5
:10485C001220327410121DE4122032A908121544D1
:10486C007406121DAEE9F9800279010232D774E8A0
:10487C00121E0874FB121D98E9851882851983F0A5
:10488C008A168B17ECFEEDFF7510008E828F83A3BA
:10489C00A3A3E0A2E4502D741D121DE4123D451299
:1048AC000A768A828B83E58245837003024CB17948
:1048BC000AEEFCEFFDAA16AB17121E06E9F5106006
:1048CC0003024CB4741F121DE4E0F508A3E0F509D3
:1048DC007421121DE4E0F50AA3E0F50B7423121DFC
:1048EC00E4E0F50EA3E0F50F8E828F83E0640260A6
:1048FC0003024C52A3124E73850882850983A3854B
:10490C008212858313EE2406F50CE43FF50D8882A4
:10491C008983124CF1F514E439F51578141220A59D
:10492C00010000280128544907000228194A0328CD
:10493C0087490029484B0129734B0229144B032941
:10494C00484B0429EC4B524CE50E450F6003024CCE
:10495C004D850C82850D83124E73E8FAE9FB8A8231
:10496C008B83E0850A82850B83124CFC12201B8AF8
:10497C00828B83A3E0FCA3E0024BD6E50E450F60CF
:10498C0003024C4D850A82850B837401F0124CE6B0
:10499C00850882850983F07C007D008E828F83A33D
:1049AC00A3A3A3E02401FAA3E03400FB12091AEA42
:1049BC004B60408A828B83E02402F8850A82850B47
:1049CC0083E028F0EA2404F8E43BF988828983E048
:1049DC00851282851383124D0A124CFC12201B8AFD
:1049EC00828B83A3124CD9E5082403FAE43509FB26
:1049FC00024BDB850A82850B83E02404F07C047D6A
:104A0C00007900AA12AB13121706024CB4E50E453E
:104A1C000F6003024C4D124CE6FEA3E0FF850A82A8
:104A2C00850B837404F0EE850882850983F0EF858D
:104A3C001282851383F07403121DFEEEFAEFFB1243
:104A4C00091A8A0C8B0DEA450D7003024AF78A820B
:104A5C008B83A3A31237107401121DEE880E890FDD
:104A6C00780E12201B7405121DE41220327CFF7D7F
:104A7C00FF1209207404121DAE8B0FEA450F703320
:104A8C00850C82850D83124CDD12201B850C8285D2
:104A9C000D83A31220327C027D007A667B8612067F
:104AAC001A7404121DAEE9700A7401121DE474FF2D
:104ABC00F0A3F08E828F83E064027039750C02755E
:104ACC000D00780C12201B8E828F83A3124CD9E51B
:104ADC00082404FAE43509FB1216EE7402121DAE1A
:104AEC00850A82850B83E0240280097401121DE47F
:104AFC00EEF0A3EFF07401121DE4124CCB74011212
:104B0C001DE4124CC2024C47E50E450F6003024CEB
:104B1C004D850C82850D83124F61AA16AB171215A9
:104B2C004A850A82850B837402F085088285098385
:104B3C00EAF0851282851383EB024C4AE50E450F91
:104B4C006003024C4D124CE6F8A3E0F9850A82850D
:104B5C000B837402F0E8850882850983F0E98512DD
:104B6C0082851383024C4A850C82850D83123D4548
:104B7C001216E8EAFAF8C3950EE4950F405CE86566
:104B8C000E450F70047A008021851882851983E008
:104B9C00FCE50E2CFCE4350FFDC3EC98ED940050B5
:104BAC0003E08005E50ECAC39AFAEA850A82850BF2
:104BBC0083F08A0A750B00780A12201B850C8285FB
:104BCC000D83E0250EFCA3E0350FFDAA08AB0912FE
:104BDC0016EE7402121DAE024CB4751007024CB4E2
:104BEC00E50E450F705B850C82850D83124E738527
:104BFC000A82850B837407F088828983124CC31256
:104C0C004CBBE0851282851383F0E82402FAE43968
:104C1C00FB8A828B83124CCB8A828B83124CC2A36D
:104C2C00A31232A2124CD0F0E82405F850010988E6
:104C3C00828983124CD0A3124D0AA3A3A3A3F080A4
:104C4C006775100B8062741D121DE4123D45120A2B
:104C5C001C8A828B83E5824583604A124E73880CD2
:104C6C00890DE8450D603E7425121DE4E0F51078C1
:104C7C001012201F780E12201B780A12201B7808A5
:104C8C0012201B7407121DE4E0F9EEFCEFFDAA16CE
:104C9C00AB17850C82850D83121E067407121DAE90
:104CAC00E9F510800375100EA9107405024008F088
:104CBC0088828983A322A3E0850882850983221236
:104CCC004D11F022124D11A3A3229006BC124F6875
:104CDC0022E0F50E750F00780E22850C82850D836F
:104CEC001241ABE022E0FAA3E0F8E4C8F9EA28228A
:104CFC00F08A828B83E0F50A750B00780A22124C3D
:104D0C00BB124D1122E0850882850983A3A322746E
:104D1C00EE121E0874FE121D988A088B09ECFEED2B
:104D2C00FF890AAC18AD19EEFAEFFB12091A8A0CBE
:104D3C008B0DEA450D7003024E038518828519838D
:104D4C00123D45120A1C8A828B83E58245837003CF
:104D5C00024DFEA3A3124E73880E890FE8450F7007
:104D6C0003024DFE7414121DE4E0F510A3E0F511DE
:104D7C00E50AF50B780B12201F7419121DE4122092
:104D8C0032781012201B741B121DE4E0F9AC0CAD30
:104D9C000DAA08AB09850E82850F83121E067405B9
:104DAC00121DAEE9F50B705274FE650A604C850C51
:104DBC0082850D83E064027041124E12FAA3E0F971
:104DCC00EAF87402687003742969702E8510828564
:104DDC001183124CF1F50CE439F50D780C12201BF3
:104DEC00EEFCEFFDAA08AB09120AA07402121DAE6C
:104DFC008008750B0E8003750B01A90B7402121D34
:104E0C00AE7F0A021EDAA3124E7788828983E022D3
:104E1C0074F6121E0874FE121D98740C121DE41206
:104E2C004E73E8851882851983F07401121DE4E92C
:104E3C00F0E4F508F509780812201B7508027808CB
:104E4C0012201B7404121DEE8808890978081220A0
:104E5C001B79FE120A887406121DAE7402121DAE66
:104E6C000248248E828F83124E7722E0F8A3E0F959
:104E7C002274F7121E08EAFEEBFF89089006D31283
:104E8C004CD912154AEA5402600BA908EEFAEFFB52
:104E9C0012090E800279017F01021EDA74F2121ED1
:104EAC000874FE121D98EAFEEBFF890A7401650A6C
:104EBC0060147402650A6003024F577901120CE00A
:104ECC00E96003024F57EEFAEFFB120A6AEA4B60F5
:104EDC0003120A70A818A9198808890978081220E1
:104EEC001B750802750900780812201B75085E7581
:104EFC000986780812201B7CFF7DFF7A017B00124B
:104F0C0009147406121DAE8038850882850983A3A6
:104F1C00A3A3A3A3A3124F61EEFAEFFB12153EE479
:104F2C00F50CF50D780C12201B7402121DE41220E6
:104F3C00327CFF7DFFAA08AB091209207404121DF4
:104F4C00AE8A088B09E508450970BE7402121DAEC5
:104F5C007F06021EDA1241AB124F6822E0FCA3E07E
:104F6C00FD2274F4121E088A088B09ECFEEDFF90EA
:104F7C001BF8E0F4604B7A097B00121718EA4B60BF
:104F8C00408A828B8374B1F0A3E4124FD0F08A82F2
:104F9C008B83A3A3E508F0A3E509124FD0A3EEF091
:104FAC00A3EFF0740C121DE4124E738A828B83A350
:104FBC00A3A3A3A3A3A312439C901BF8E0F912177D
:104FCC00240232D7F08A828B83A3A3A3A322C082AC
:104FDC00C0839061907404F0A37448F0A37402F041
:104FEC009061807440F09061BC7403F090618774A0
:104FFC0019F0906265741BF0906249E0C3941390B1
:10500C00619C40107409F09060667401F090619F8F
:10501C007428800D740BF0906066E4F090619F74BE
:10502C002CF01251C77009C2919007477467800524
:10503C009007477461F012523B902FBCE493F460DC
:10504C0006E493F9120E0079051211A202548BC0DA
:10505C0082C083E9540FF9906185E0696012E5C65E
:10506C0054B84441F5C6E59E5447644170F8E9F0E4
:10507C0053C6B8E59E544770FA02548BC082C08365
:10508C00A8A853A87E906181E4F0A3F0A3F0C2BA63
:10509C00539AFEC289759B00C2C275E900759100D6
:1050AC0075BF0075A91175B905906181F0A374C025
:1050BC00F0A3E4F0D2BA439A0174805842A8025487
:1050CC008BF0A3F002548BC082C08374F8121D982D
:1050DC00900745126C1D70030251BF900745E054B8
:1050EC004060177908AA18AB19120F4AAA18AB1905
:1050FC00120B2A900745E054BFF0E0548060107901
:10510C000C7A547B0B120F4A900745E0547FF0E069
:10511C00A2E0501E1251C77009C2919007477467E4
:10512C0080059007477461F0120B30900745E054EE
:10513C00FEF0E05402601E12520C7009D2919007DE
:10514C004774718005900747746AF0120B30900712
:10515C0045E054FDF0E054046010902FC012523E14
:10516C00120B36900745E054FBF0E05408601090A9
:10517C002FC112523E120B36900745E054F7F0E067
:10518C005410600D12523B120B36900745E054EF51
:10519C00F0E05420600A120B36900745E054DFF023
:1051AC00A3E05401600D120E24120B3C900746E054
:1051BC0054FEF07408121DAE02548B90619A125476
:1051CC0030900B2EE0640122C082C083E96005148C
:1051DC00601780291251C77009C2919007477467F4
:1051EC00801A9007477461801312520C7009D29187
:1051FC0090074774718005900747746AF002548BCE
:10520C0090619A125422900B2EE0640122C082C04D
:10521C0083E9600814600A14600C8010902FC08021
:10522C0008902FC18003902FC212523E02548B90D3
:10523C002FC2E493906186F02274EA121E0874F473
:10524C00121D989085D6AC18AD197404121CAB9035
:10525C002FC093F460030253B7907808E0C3940214
:10526C00500302539B90852A7404121DFE7408127D
:10527C001CABA818A919881489157404121DEE8882
:10528C00088909AE08AF097510FF7511FF750EFF7F
:10529C007C00750C48750D78801274086C700302D4
:1052AC00533174096C607E740A6C6079850C82854C
:1052BC000D837808121C5C8E828F83A909E50AC9BC
:1052CC00F8881274187808121B9DE5124508F8C36B
:1052DC00E098A3E099850C82850D837808121C5CFC
:1052EC0040188E828F8374187808121B9DE5124526
:1052FC0008F8E0C398F8A3E0801A74187808121B19
:10530C009DE5124508FAE9FB8E828F83125F54EA01
:10531C00C398F8EB99F9C3E89510E99511500688F4
:10532C001089118C0E0CE50C2404F50C5002050DA3
:10533C00ECC3941350030252A674FF6510700474EE
:10534C00FF65116024850E0874027808121D85749F
:10535C00482508F58274783509F5837808121C5CA9
:10536C00851482851583E508F0EE2402FE50010FAA
:10537C00851482851583A3858214858315740C127C
:10538C001DE4E5826E7003E5836F60030252937532
:10539C000801750900780812201B7402121DFE7A90
:1053AC00F07B0B1215927402121DAE740C121DAE12
:1053BC007F0E021EDAC082C0839061AE7468F0A3C7
:1053CC00746AF090624574FBF0A304F053F4FD434F
:1053DC00FE02900B2E7401F09061A0E0643A906193
:1053EC009A7019125430740164017009C2919007BB
:1053FC00477467801E90074774618017125422749B
:10540C000164017009D2919007477471800590076F
:10541C0047746A0250CF743FF0A3745AF09061A0A5
:10542C00747FF0227433F0A37455F09061A0743A39
:10543C00F0227F04021EDAC082C083900B0CE06461
:10544C00017011900B12E064016027E07006A3E07C
:10545C006401601E900B23E064017008900B29E03E
:10546C006401600E900AB6E06401700A900ABBE019
:10547C006004790C800279008005E0F9122ECAD004
:10548C0083D082020132C082C08375E1F1900AB9E7
:10549C00E0604B14600914604F14604714704E1296
:1054AC000E36900AA8E0F97AA97B0A1210EE9085C4
:1054BC00BA121C7A12113C90858E121C7A1210FAB8
:1054CC00900ABAE0F91211067901121196900AA607
:1054DC0012579A7466F0A3740EF0790080A1120E24
:1054EC003C80BF120E4280BA120E4880B5791280F1
:1054FC00EB74F4121E0875D90D900AAFE0A2E0E42B
:10550C00331313F8900AA81258A5484401F5D9751D
:10551C0082A975830A1256AD7004E583640A70F58E
:10552C007582B075830A12589A64B67004E5836468
:10553C000A70F375E195900AAFE0F97AB07B0A1224
:10554C0010F4901C1C74D6F0A3740D12561812583B
:10555C00C574F4F0A3740D1258D8900AB9E0640124
:10556C00900AA6700B1255AB121C5C9085DA800960
:10557C001255AB121C5C9086027808121BE89085C1
:10558C00927808121C3612563F7808121C6B900A3F
:10559C00A61258AC741312574E7402F002543E12F9
:1055AC00675F78082274F7121E08125697F5D975A2
:1055BC0082A975830A1256AD7004E583640A70F5EE
:1055CC00900ABFE0600A78C0790AFA125742DAFBF7
:1055DC001257311256AD7004E583640A70F5900AC7
:1055EC00DFE0600A78E0790AFA125742DAFB75E1DB
:1055FC0095901C1C74E2F0A3740D125618125622CE
:10560C00741212574E7401F0FF021EDA125A5174C2
:10561C00DCF0A3740D221258CBF0A374F4F0A37435
:10562C000D1258DC12563F74FF126662900AA612D5
:10563C0058B022900AA6125894240EF582E438F53C
:10564C00832274F7121E081256974402F5D97582FC
:10565C00A975830A1256AD7004E583640A70F5903F
:10566C000ABFE0600A78C0790AFA125742DAFB7571
:10567C00E195901C1C1256B3F0A31256B31256258A
:10568C00741412574E7404F0026046900ABF1256FE
:10569C009E22E02407F5D9900AA8E0C4333354C005
:1056AC002212589E64AF2274EE1256C01256C0F0ED
:1056BC00A3740D22F0A3740DF0A374EE2274F712F0
:1056CC001E081256974406F5D97582A975830A12DD
:1056DC0056AD7004E583640A70F5900ABFE0600A69
:1056EC0078C0790AFA125742DAFB1257311256ADCA
:1056FC007004E583640A70F5900ADFE0600A78E0D4
:10570C00790AFA125742DAFB75E195901C1C74E881
:10571C00F0A3740D125A4A125622741512574E7475
:10572C0003F0026046900ADF12569E4404F5D975C8
:10573C0082A975830A2288828983125FF8A882A9BC
:10574C008322F090074322C082C083900B167425ED
:10575C00F0900B147401F0A3E4F07A01FB12111811
:10576C00900B0212579A7472F0A3740EF0900B13F4
:10577C00E064017016900B12E07010790112117E2A
:10578C00121148121178790012118A02548B125896
:10579C0094241AF582E438F5832274F6121E0874E8
:1057AC00FA121D98900B0BE064017008120E4E90CB
:1057BC000B0BE4F075E1F1900B021258942415F5E3
:1057CC0082E438F5837401F0900B0DE064017049AC
:1057DC00908546AC18AD197406121CAB75D90D909A
:1057EC000B041258A54403F5D975820575830B1269
:1057FC00589A640B7004E583640B70F3A818A9190C
:10580C001257427406121DE4E582687003E5836941
:10581C0070EE75E19579018002790012111E901CD1
:10582C001C74E0F0A3740FF0A374E6F0A3740F12D1
:10583C0058BC1258BC1258C51258D1F0A374ECF0D5
:10584C00A3740F1258D8900B04E0F97A057B0B1255
:10585C0010EE900B16E0F9122ECA79011211249059
:10586C0085BA121C7A12113C90858E121C7A121079
:10587C00FA7900121196900B021258AC741612574A
:10588C004E7405F0040260ACE0F8A3E0C822125894
:10589C009E22E0F5D9A3E58222E0C4333354C02222
:1058AC001258B0221258942414F582E438F583224D
:1058BC00F0A374E0F0A3740F221258CBF0A32212C1
:1058CC0058CF22F0A374AAF0A3740F221258DC2232
:1058DC00F0901C2A1258D1125A551258D11258CF86
:1058EC00F02274F7121E088908A808E875F00DA4B8
:1058FC00C8AAF02AF9747328FE740739FF900B1BA1
:10590C00E0F97A1C7B0B1210EE900B29E0702579D4
:10591C0000121160EE240CF582EF3401F583E07077
:10592C0004790080027901EE2406FAEF3401FB12AF
:10593C0010F48005790112116075E1F175D923908D
:10594C000B1B1258A54405F5D975821C75830B12D7
:10595C00589A64227004E583640B70F375D9007552
:10596C00D90075D90075D90075D90075D900EE2408
:10597C0022125E13125E327003E9658370F6EE2418
:10598C0026125E1E2403F8E43583F9125E3270038E
:10599C00E9658370F6EE242B125E27242C125E2709
:1059AC00242D125E27242E125E27242F125E27240C
:1059BC0030125E272431125E272432125E272433E4
:1059CC00125E27245D125E1E2405F8E43583F9125D
:1059DC005E327003E9658370F6EE2437126B8B54DC
:1059EC001FF8EE242A126B8BC43354E048F5D9759A
:1059FC00E195901C1C74B0F0A3740FF0A374B6F076
:105A0C00A3740F125A4AF0A374BCF0A3740F12586B
:105A1C00D8900B28E0F9122ECA9085BA121C7A1273
:105A2C00113C90858E121C7A1210FA90600DE4F0E5
:105A3C0079011211969007437406F0026046125ACF
:105A4C00511258D122125A5522125A6274AAF0A33A
:105A5C00740F125A6222F0A374AAF0A3740FF0A36D
:105A6C002274EC121E08900B1912675B7810121C32
:105A7C005C900B2AE0FAF875F00DA4C8ACF02CF988
:105A8C001268D4FFEE2EFEEF33FF8E0CF50D750E63
:105A9C0000750F0085100885110985120A85130BF6
:105AAC009086027808121BE87808122017851008D7
:105ABC0085110985120A85130B7808790C121BD5F0
:105ACC007810790C121B2EE4F50EF50F7808790C72
:105ADC00121C0E8A0C750D007403780C121D85783F
:105AEC0008790C121BD59085927808121C36AA08DE
:105AFC00AB09AC0AAD0B122CD07404121DAE8A0883
:105B0C008B09A808A909C3EE98EF995006E82EF85E
:105B1C00E93FF9E890600EF0E9A3F0EEA3F0EFA3F3
