:020000040000FA
:0600000002011A02277143
:03002B00022EBEE4
:03003B00022EE3AF
:03004300022E6C1E
:030053000227E79A
:03006B00022E95CD
:100083000225C7E5C754F84401F5C77901220000EA
:100093000080FB120086B90003020104E479217891
:1000A30008B800028004F709D8FCE479297802B87B
:1000B30000028004F709D8FCE4900501781B791746
:1000C3008002F0A3D8FCD9FA781A90014A7A01BACF
:1000D30000028007E493A3F608DAF97A1B7B1B90EE
:1000E300014B785C79048015E493A3AD82AE838AD7
:1000F300828B83F0A3AA82AB838D828E83D8E9D9C6
:10010300E77582587583C0740412012C758291754A
:100113008300740012012C75D00075813F7518019E
:10012300751905759F00020096C09FF59FE473D073
:100133009F22D083D082C09FE493C0E0740193C018
:10014300E0740293F59F22013E064A067A0674067E
:10015300FF0000B4000028002800283075A000A08C
:1001630000A000A00000080008E001F0001000104B
:10017300001000100010001000500050005000103C
:10018300001000D0070000000000000F0001000570
:1001930000307507001000010081FF00000000FF20
:1001A300FFFFB207D007B807F407FF0202020802F5
:1001B3005000A0000000E803027A820100003682AA
:1001C3000252820100007E1B023E820100008A0669
:1001D3000252820100007F1B023C82010000A00644
:1001E300025282010000801B024482010000A20629
:1001F300025282010000811B024882080000A3060C
:10020300025282010000821B027882010000831BDC
:10021300FFFF0100FF20027A8201000033820252B5
:1002230082010000E81B025082000000000002402F
:1002330082030000D3061700AA0FAA0FAA0FAA0F62
:10024300AA0FAA0FAA0FAA0FAA0FAA0FAA0FAA0FE3
:10025300AA0FD811F611D2111C132E131613020272
:1002630002020202020202010D0000001001027AE2
:10027300820100003982025282010000311C0266B1
:10028300820100002211025282010000321C02642A
:10029300820100002D81025282010000331C0262A0
:1002A300820100001F81025282010000341C02609F
:1002B30082010000CF80025282010000351C025EE1
:1002C30082010000BD80025282010000361C025CE4
:1002D30082010000AB80025282010000371C025AE7
:1002E300820100009980025282010000381C0256EC
:1002F300820100001181025282010000391C025464
:10030300820100003A1C01E803057710020A0A2063
:1003130015FFFFFF00013075030201060000000016
:1003230000000000000000000000000000000000CA
:100333000000000000000000FFFF0600800CE8033F
:10034300FEFF01014C000215534D54063200960086
:10035300010A0944617272656E424C45051206003A
:100363000600020A00020201061AFF4C000215539E
:100373004D5400000002030200000000000000FFD3
:10038300FFFFFFCD03DEADBEEFABCDEFFFFFFF0AF7
:100393004368617261637465726973746963203160
:1003A300000243686172616374657269737469639F
:1003B3002032000843686172616374657269737403
:1003C3006963203300104368617261637465726905
:1003D30073746963203400024368617261637465F6
:1003E30072697374696320350016436861726163CF
:1003F3007465726973746963203600027A8201003E
:10040300003082025282010000621D026C820300EE
:1004130000F61A024282010000631D0252820100AB
:1004230000741D026E82010000F71A02428201006D
:1004330000751D025282010000861D0270820200B7
:1004430000F81A024282010000871D025282010055
:1004530000981D027282000000F91A024082030014
:1004630000FA1A024282010000991D025282010021
:1004730000AA1D027482040000FC1A0242820100D9
:1004830000AB1D025282010000BC1D0276820300F4
:1004930000011B024082030000161B02428201007E
:1004A30000BD1D12013513B704120135EEB7041256
:1004B300013518A6041201352BA6041201354CA6EA
:1004C30004120135B7A604120135F8A6041201354A
:1004D30019A7041201355AA704120135F2A7041211
:1004E30001353AA80412013551930412013564937E
:1004F30004120135959304120135CF93041201358B
:100503002894041201356F9404120135B794041230
:100513000135E694041201351595041201354C9505
:1005230004120135939504120135AC95041201357B
:100533000196041201352F960412013569960412AF
:1005430001352EEC0212013531ED021201355EED5B
:1005530002120135AFED02120135D2ED021201355F
:10056300E4ED02120135E7ED0212013525EE021228
:10057300013599EE0212013505EF02120135CDEF77
:1005830002120135E9EF0212013520F002120135A2
:100593005AF002120135F1F00212013543F1021251
:1005A300013574F102120135A5F102120135B2F1E0
:1005B300021201351CF2021201351FF2021201353B
:1005C3002CF2021201352FF20212013586F20212C9
:1005D300013589F202120135C2F202120135C5F268
:1005E30002120135F9F202120135FCF20212013551
:1005F30050F30212013599F302120135A9F30212E5
:100603000135DCF302120135E9F302120135ECF393
:100613000212013554F40212013556F50212013566
:10062300FAF50212013563F602120135A1F6021240
:100633000135B79D03120135B49E031201354A9F5C
:1006430003120135959F03120135F99F03120135FA
:1006530083A0031201353CA1031201355EA40312EA
:100663000135DBA503120135FEA503120135D9A01F
:1006730004120135F9A0041201351AA2041201353E
:100683006DA2041201350C84041201353484041262
:100693000135618404120135998404120135F7840C
:1006A30004120135438504120135AA85041201356C
:1006B300EA85041201352786041201355586041292
:1006C3000135FF86041201350987041201351687A7
:1006D3000412013549870412013555870412013587
:1006E3006D870412013577870412013509BB0412A3
:1006F300013517BB041201352FBB0412013546BB6C
:1007030004120135008002120135AA80021201355C
:10071300BD8102120135398202120135578302125B
:1007230001359383021201352E840212013512859D
:1007330002120135D585021201354D8602120135AB
:10074300DB87021201354C88021201350689021239
:100753000135F88902120135388A02120135EC8A13
:10076300021201351E8B02120135148D021201355E
:100773005B8D02120135798D02120135DF8D021274
:100783000135AE8E02120135728F0212013591913D
:10079300021201359B9102120135EFAE03120135AE
:1007A300D9AF0312013584B003120135D5B003125A
:1007B300013585B103120135F6B103120135DBB200
:1007C300031201350FB30312013508B403120135C7
:1007D30045B40312013521B50312013560B5031287
:1007E30001357CB50312013562AA04120135E6AA6C
:1007F3000412013511AB041201352BAC041201357F
:100803000588041201351B88041201353988041246
:1008130001354A89041201355489041201357F8A4E
:1008230004120135768B04120135E38B0412013572
:10083300ED8B041201352BBC0312013561BD03128C
:100843000135DBBD031201350BBE031201351EBE9C
:100853000312013575BE031201358AC00312013537
:100863005ECF011201350FD0011201352BD00112D9
:100873000135F4D0011201350ED10112013519D120
:1008830001120135EFD101120135CCD2011201352C
:100893005CD30112013513D40112013521D70112A2
:1008A300013510D901120135C2D9011201358BDA94
:1008B30001120135D0DD011201357ADE0112013555
:1008C300A3DF011201355FE101120135FFE10112DE
:1008D30001354DE2011201358CE2011201355FE36E
:1008E3000112013593E30112013520E401120135B0
:1008F300F96B00120135856C00120135E96D0012A8
:100903000135F56D00120135306E001201359F6E11
:1009130000120135A86F00120135B17000120135C4
:10092300787100120135D57200120135F37200128D
:100933000135107300120135DB73001201350374A6
:1009430000120135CD7600120135D2760012013541
:10095300EB7800120135397900120135A9790012BB
:100963000135E77900120135C37A00120135837B23
:1009730000120135CF7B00120135D27B0012013505
:10098300167C001201355E7C001201359D7C00123D
:100993000135BF7C00120135F37C00120135567D11
:1009A3000012013509DE0312013512DE031201358F
:1009B30020DE0312013573DE0312013592DE0312CA
:1009C3000135D7DE031201351BE003120135B6E012
:1009D30003120135FAE00312013524E10312013554
:1009E30093E103120135D9E10312013550E20312F9
:1009F300013501E303120135582F00120135682F29
:100A0300001201350930001201356530001201353D
:100A13002231001201353E320012013570320012CC
:100A230001359F32001201354C3400120135C336B3
:100A330000120135333900120135253A0012013510
:100A43001E3B00120135253D0012013519400012ED
:100A530001354841001201354C43001201355C4415
:100A630000120135EB4500120135DC460012013559
:100A73002A4700120135994700120135BD4700127C
:100A830001350E4800120135AF4C00120135B04D4F
:100A930000120135114E001201353C4E0012013592
:100AA300024F0012013513E3031201351DE3031254
:100AB300013562E30312013576E30312013506E4DF
:100AC300031201353FE4031201357AE403120135C1
:100AD300A3E403120135F1E40312013506E5031221
:100AE30001351BE50312013530E50312013573E5CA
:100AF3000312013588E5031201359CE50312013524
:100B0300B0E503120135C5E503120135FFE5031214
:100B1300013523E6031201354FE60312013586E65C
:100B230003120135E8E6031201355AE703120135D2
:100B33009DE703120135C7E703120135F2E70312FC
:100B43000135FFB5041201353ABD021201351DBE50
:100B53000212013598BE02120135D3BE02120135CD
:100B630024C002120135ADC002120135C5C2021202
:100B7300013557C50212013509C60212013515C7E1
:100B83000212013588C802120135E1C8021201358B
:100B9300E6D80312013529D903120135ADD9031261
:100BA300013580DA0312013557DD031201357AA3CB
:100BB3000412013527A40412013534A504120135AA
:100BC30073A504120135CDA5041201355AAC0412E4
:100BD3000135BDAC041201355AAD041201358FAD98
:100BE30004120135BFAD04120135E0AD0412013525
:100BF3001BAE041201353BAE04120135F4F10312AE
:100C0300013580F2031201353FF30312013557F426
:100C13000312013571F6031201357DD50212013538
:100C2300A2D5021201356FD60212013543D7021243
:100C33000135B0D70212013506D802120135A2D808
:100C430002120135D6D902120135B1DA0212013589
:100C530010DB021201359CDB021201350ADC0212A1
:100C6300013596DC0212013599DC02120135E3DC11
:100C73000212013555DD02120135E7DD021201359D
:100C830088DE02120135A8DE02120135F0DE0212FF
:100C9300013539DF0212013555DF021201357BDFE1
:100CA30002120135F5DF0212013503E002120135AC
:100CB30092E002120135FBE0021201355AFB0312E6
:100CC3000135DFFB0312013521FC0312013505FD5C
:100CD3000312013572FD03120135B6FD031201350E
:100CE300FAFD0312013527FE031201354FFE0312ED
:100CF300013587FE03120135C5FE03120135ECFEF3
:100D03000312013566FF03120135B0FF03120135EB
:100D13007C8201120135758401120135628701124B
:100D23000135B68701120135E18701120135BA8811
:100D330001120135F58801120135258901120135AA
:100D4300388901120135798901120135A689011209
:100D53000135F48901120135298A011201355F8AAF
:100D630001120135BE8A01120135438B011201358F
:100D7300E28D01120135CA8F01120135069001126D
:100D83000135849101120135C99101120135CA92CD
:100D930001120135B4940112013537950112013561
:100DA3000E9601120135669601120135489801121B
:100DB3000135179A011201351C9A01120135EA9A7D
:100DC30001120135819B01120135CF9C01120135BE
:100DD300E09C01120135189403120135919403121A
:100DE30001354B9A03120135569B03120135FF9CC3
:100DF300031201358D9D031201356E4F001201352B
:100E0300EF4F001201351C500012013567500012DC
:100E13000135685100120135AD5100120135D95128
:100E230000120135555300120135D7530012013515
:100E33002654001201359154001201354555001214
:100E43000135E255001201355D5600120135E756B2
:100E5300001201353A57001201358258001201354C
:100E6300015A00120135CC5A00120135D95A001229
:100E73000135295B00120135395B001201355D5BD9
:100E830000120135605B00120135495C0012013527
:100E93002B5D00120135CD5D00120135685E001235
:100EA30001358F5E00120135EC5E00120135435FA0
:100EB30000120135915F00120135DF5F0012013529
:100EC300486000120135E8600012013584610012A8
:100ED3000135116200120135866200120135D662B6
:100EE300001201353563001201355C6300120135D0
:100EF30016640012013507660012013550660012B0
:100F03000135826600120135F966001201358368E6
:100F13000012013537690012013567690012013586
:100F23007C6900120135EC69001201352D6A00124B
:100F33000135426B00120135C36B00120135588A2B
:100F430003120135A38A03120135AF8A0312013557
:100F5300838B031201359A8B03120135D78B03124E
:100F63000135088C03120135408C03120135968C30
:100F730003120135AC8C03120135E88C03120135E1
:100F8300FB8C03120135228D03120135568D03129A
:100F930001357C8E03120135C68F03120135C290D1
:100FA30003120135DF91031201354D2F0012013574
:100FB300B9D30312013567D7031201359BD8031246
:100FC30001358AC9021201354DCC0212013553CCC9
:100FD3000212013510CF021201356AD10212013516
:100FE300A8F6031201353FF703120135FDF703128B
:100FF300013527F8031201355DFA031201353DB7B8
:101003000112013578B701120135BDC30112013553
:1010130029C50112013526C601120135ABC90112DA
:10102300013595CA01120135E1CA01120135FBCA26
:101033000112013538CB0112013543CB01120135C1
:101043004CCB01120135FCCB01120135CCCC011282
:10105300013513CD0112013579CD01120135EBCDE7
:101063000112013516E5011201355EE80112013561
:1010730064E801120135B7EF01120135C4F301121F
:101083000135F78B041201358D8C04120135A38CC5
:1010930004120135FC8C04120135408D0412013514
:1010A3007A8D04120135128E04120135818E0412D9
:1010B30001358A8E04120135968E04120135B08EE5
:1010C30004120135DA8E04120135EF8E0412013554
:1010D300518F04120135788F04120135DDB50312E7
:1010E3000135EAB50312013504B60312013537B6EB
:1010F3000312013575B603120135DAB60312013551
:10110300EFB603120135FAB60312013507B703121E
:1011130001351EB7031201352CB7031201353BB756
:101123000312013550B70312013565B703120135B8
:1011330070B7031201357CB70312013589B7031267
:10114300013598B703120135A3B703120135C8B7A8
:10115300031201356CB8031201357CB80312013553
:1011630091B803120135A6B803120135C0B80312B2
:101173000135DDB803120135FAB80312013505B99B
:1011830003120135B1B90312013592BA03120135C5
:10119300B7BA03120135C2BA03120135D7BA031223
:1011A3000135EBBA031201354CBB0312013552BBB7
:1011B3000312013558BB031201355EBB031201351F
:1011C30076BB03120135A9BB03120135008003125C
:1011D3000135228003120135EA8003120135A4830D
:1011E30003120135BA8403120135DB85031201357D
:1011F300B58603120135648703120135B7AF0212B6
:1012030001354EB002120135E6B002120135D6B1F6
:10121300021201350DB20212013520B2021201355C
:101223008EB20212013529B40212013550B40212F2
:101233000135F2B40212013527B50212013538B572
:1012430002120135B1B502120135D2B502120135D0
:10125300EAB50212013542B7021201354BB9021247
:1012630001359BBB021201359EBC02120135EDBC58
:10127300021201351BA10212013518A20212013517
:1012830003A3021201350DA30212013517A30212A3
:10129300013539A30212013545A30212013597A482
:1012A30002120135C6A402120135F6A50212013558
:1012B30038A60212013564A7021201353AA80212B8
:1012C30001358CA802120135EBA80212013522A9BF
:1012D300021201355DA902120135F8AC0212013583
:1012E30011AD0212013593AD02120135A1AD021207
:1012F3000135F6AD0212013504AE0212013571AEAD
:1013030002120135E3AE0212013529AF0212013593
:101313001EE10212013540E1021201352AE30212F5
:101323000135CFE60212013512E802120135ECE86D
:10133300021201352E7E00120135537E0012013553
:10134300C47E00120135C7F602120135D0F602122F
:101353000135D9F6021201350AF80212013529FACC
:10136300021201355FFA0212013599FA02120135B0
:10137300CFFA0212013509FB021201353DFB0212BD
:10138300013569FB02120135B2FB02120135ECFB98
:101393000212013534FC021201358AFC02120135B6
:1013A300BFFC021201351AFD0212013554FD02126F
:1013B3000135A5FD02120135DBFD0212013515FED3
:1013C3000212013543FE0212013566FE0212013597
:1013D30041BD041201356DBD04120135C8BD0412AF
:1013E3000135D2BD04120135E2BD0412013552C8E4
:1013F3000312013596C8031201351AC903120135C8
:1014030061C903120135EFC90312013526CA03125C
:1014130001358BCA03120135E8CA0312013514CC16
:101423000312013517CC0312013510CD0312013518
:101433005CCD031201359BCD03120135D7CD0312C9
:101443000135879D04120135AE9D04120135E4C0B8
:1014530004120135039D01120135899F01120135E3
:1014630036A10112013597A10112013541A20112E2
:101473000135B1A2011201353FA301120135C6A303
:1014830001120135EFA30112013541A80112013503
:10149300B9A801120135BBA901120135F5A9011241
:1014A300013538AA011201351CAC011201354FACCC
:1014B30001120135A9AC01120135F6AC0112013557
:1014C30043AD01120135A0AD0112013513AE011276
:1014D300013548AE011201357DAE011201359EAED4
:1014E30001120135C5AF01120135DEAF011201351D
:1014F30013B10112013540B10112013584B101125A
:101503000135C9B101120135E6B1011201351CB231
:1015130001120135F3B3011201351DB40112013576
:1015230092B40112013512B50112013590B50112C1
:101533000135D3B5011201350EB70112013528B0BB
:10154300041201358AB0041201354CB1041201357D
:101553006DB104120135C3B10412013549C204123D
:10156300013563C104120135A0C104120135E47FC2
:101573000012013517BA0412013527BA04120135D6
:1015830044BA04120135F8BA041201351BB8041227
:1015930001359FB80412013507B904120135EAB4C5
:1015A300041201350DB50412013564B50412013579
:1015B3006FB504120135BCB504120135EEB5041242
:1015C3000135F1B5041201350080041201351A808A
:1015D300041201359580041201357181041201351D
:1015E3002A8304120135898304120135EF8304121F
:1015F3000135F87F0012013549AE04120135C4AF3D
:101603000412013525B0041201352D9A0412013557
:10161300BD9A041201353B9B04120135C99B041288
:1016230001355D9C04120135C49C04120135069DED
:1016330004120135099D04120135179D0412013569
:10164300299D041201353F9D04120135559D041255
:101653000135639D04120135799D0412013596BE4F
:101663000412013502BF0412013512BF0412013501
:1016730022BF0412013520B90412013549B90412FD
:10168300013572B9041201358EB904120135D0B98E
:101693000412013511CE031201351FCE0312013599
:1016A30061CE03120135ACCE03120135E6CE03122F
:1016B300013540CF0312013561CF031201356FCFDE
:1016C30003120135C2CF03120135F4CF03120135E2
:1016D30003D00312013578D00312013502D103126E
:1016E30001354AD10312013581D103120135F6D1F7
:1016F3000312013538D20312013580D203120135AA
:1017030092D203120135C3D203120135CCD2031294
:1017130001358BD30312013501B20412013557B2DF
:1017230004120135E5B2041201354DB3041201353B
:10173300D19604120135FB9604120135EF9704127A
:101743000135149804120135B398041201353D99FB
:1017530004120135F4FE02120135A7FF021201350E
:1017630065A8041201359BA804120135D1A80412FF
:10177300013524AA04120135ECBD0412013502BE61
:101783000412013512BE0412013568BE041201357C
:1017930032BF04120135C5BF041201353DF70112F2
:1017A300013504F8011201353FF8011201356FF8D4
:1017B30001120135CDF80112013521F9011201356C
:1017C30091F90112013525FA01120135E8FA0112E6
:1017D30001355EFB01120135A2FC0112013525FD25
:1017E300011201358CFD01120135FBFD011201359A
:1017F30012FE0112013528FF0112013572FF011299
:10180300013521ED0312013536ED03120135F1EDFA
:101813000312013535EE0312013552EE0312013581
:1018230086EE03120135D3EE0312013507EF0312DF
:10183300013545EF0312013572F103120135E3F16E
:1018430003120135A59102120135C2950212013529
:101853005097021201357697021201359F970212B3
:101863000135229802120135AC9902120135AE9A64
:1018730002120135B19A02120135EE9E02120135B0
:10188300269F02120135689F021201356CA00212D5
:1018930001359FB304120135CFB304120135E7B309
:1018A30004120135FDB3041201355AB40412013593
:1018B3006AB40412013583B4041201359AB40412D4
:1018C3000135A1B404120135A4B40412013521A7D2
:1018D3000312013534A70312013535A8031201356C
:1018E30056A80312013566AB0312013597AB0312F9
:1018F3000135A6AB0312013525AC0312013528AC23
:1019030003120135A6AC03120135A9AC031201354C
:10191300ACAC0312013505AD0312013566AE0312FB
:10192300013599AE03120135CCAE03120135E2AE97
:1019330003120135F4C1041201358FBC04120135C1
:10194300A2BC04120135DBBC04120135D6BB041260
:10195300013552BC0412013551C20312013551C481
:10196300031201351EC6031201354FC6031201359A
:101973005EC6031201357DC6031201359DC60312EF
:101983000135EDC70312013505C8031201354FC8F0
:10199300031201351AE803120135D5E903120135A3
:1019A3000FEB0312013532EB031201355AEB03122D
:1019B30001358DEB0312013596EC03120135A9ECC9
:1019C30003120135ACEC03120135A68F0412013565
:1019D300639004120135919104120135AEC10412D2
:1019E3000135D2FF011201352BC204E066701008E5
:1019F300A3E066700A08A3E066700408A3E0662209
:101A0300C3E7960809E7960809E7960809E79622C7
:101A1300C3E09608A3E09608A3E09608A3E0962205
:101A2300C008C3E096F50808A3E096420808A3E0BF
:101A330096420808A3E09645087001D3D00822080F
:101A43000808EAC0E0EBC0E086F0E7A4FA180986CC
:101A5300F0E7A42AFA180986F0E7A42AFA180986F7
:101A6300F0E7A42AFA1986F0E7A4FBE5F02AFA19AD
:101A73000886F0E7A42BFBE5F03AFA190886F0E7AD
:101A8300A42BFBE5F03AFA18180986F0E7A4C5F091
:101A93002BFBE43AFA1908E7C5F0C6A426F6E5F0ED
:101AA3003BFBE43AFA1886F0E7A4F6E5F00826F6DD
:101AB300E43B08F6E43A08F6D0E0FBD0E0FA22E48F
:101AC300CFC0E0E4CEC0E0E4CDC0E0E4CCC0E0753C
:101AD300F020E626F608E633F608E633F608E633A2
:101AE300F6181818EC33FCED33FDEE33FEEF33FF3D
:101AF300C3EC9709ED9709EE9709EF971919194068
:101B03000FFFEC97FC09ED97FD09EE97FE191906F7
:101B1300D5F0BFECF709EDF709EEF709EFF719195F
:101B230019D0E0FCD0E0FDD0E0FED0E0FF2260164B
:101B3300080808C6C313C618C613C618C613C618A2
:101B4300C613C6D5E0EA22700908080822601618F1
:101B53001818C6C333C608C633C608C633C608C674
:101B630033C6D5E0EA22E627F60809E637F6080980
:101B7300E637F60809E637F622E026F608A3E0364C
:101B8300F608A3E036F608A3E036F622E026F008CE
:101B9300A3E036F008A3E036F008A3E036F022C352
:101BA300E697F60809E697F60809E697F60809E6C0
:101BB30097F622C3E096F008A3E096F008A3E09618
:101BC300F008A3E096F022E056F608A3E056F608E4
:101BD300A3E056F608A3E056F622E056F008A3E089
:101BE30056F008A3E056F008A3E056F022E0F6080A
:101BF300A3E0F608A3E0F608A3E0F622E6F008A3C4
:101C0300E6F008A3E6F008A3E6F022E0FAA3E0FB7F
:101C1300A3E0FCA3E0FD22E0F8A3E0F9A3E0FAA32C
:101C2300E0FB22E8F0A3E9F0A3EAF0A3EBF022CA79
:101C3300C0E0E6F0A308DAFAD0E0FA22CAC0E0E096
:101C4300A3C582CCC582C583CDC583F0A3C582CC91
:101C5300C582C583CDC583DAE6D0E0CA22C3E49842
:101C6300F8E499F9121CA18026C3E49AFAE49BFBD9
:101C7300E920E7E9121CA1E498F8E499F922C3E406
:101C830098F8E499F9121CA1E498F8E499F9C3E4EB
:101C93009AFAE49BFB22EB20E7CFE920E7E0B900C7
:101CA30010BB0008E88AF084F8AAF022E4FBC8FA23
:101CB30022EB70227B10C833C8C933C9335007C322
:101CC3009AC3DBF280069A50012ADBEAC833F4C8D0
:101CD300C933F4C9FA2275F008E4C833C8C933C953
:101CE30033C99AC99B5004C92AC93BD5F0ECFBC838
:101CF30033F4C8E4C9FA22600D08C6A2E713C61874
:101D0300C613C6D5E0F322600C08C6C313C618C6B3
:101D130013C6D5E0F422700422600D18C6C333C67F
:101D230008C633C6D5E0F41822251810AF08F518F5
:101D3300400C15198008F51840021519D2AF22007E
:101D4300C0D0251810AF08F518500C05198008F5F8
:101D53001850020519D2AFD0D0222518F58210AF42
:101D630008F518400C15198008F51840021519D20A
:101D7300AF851983222518F582E43519F5832225C9
:101D830018F8E43519F9222518FAE43519FB222548
:101D930018FCE43519FD22E4732518C582C0E0E57B
:101DA3001934FFC583C0E0E518C3958224F810AF4A
:101DB300088583198582188008858319858218D23E
:101DC300AFCEF0A3E520F0A37808E608F0A3DEFA8F
:101DD300EFF0A3E58124FAF8E608F0A3E608F0A300
:101DE300E608F0A30808E608F0A3E608F0A31581C7
:101DF3001581D0E0FED0E0F8158115811581E8C08A
:101E0300E0EEC0E0222518C582C0E0E51934FFC525
:101E130083C0E0E518C3958224F910AF08858319C0
:101E23008582188008858319858218D2AFCEF0A3E6
:101E3300E520F0A37808E608F0A3DEFAEFF0A3E5C7
:101E43008124FBF8E608F0A3E608F0A30808E608F7
:101E5300F0A3E608F0A315811581D0E0FED0E0F8E9
:101E630015811581E8C0E0EEC0E02285198385184D
:101E730082E0A3FEE0A3F5207808E0A3F608DFFAEA
:101E8300E0A3FFE0A3C0E0E0A3C0E0E0A3C0E0E084
:101E9300A3C0E0E0A3C0E010AF08858218858319D2
:101EA3008008858218858319D2AFD083D08202013E
:101EB30032851983851882E0A3FEE0A3F520780814
:101EC300E0A3F608DFFAE0A3FFE0A3C0E0E0A3C0CD
:101ED300E0E0A3C0E0E0A3C0E010AF08858218856E
:101EE30083198008858218858319D2AFD083D08265
:101EF30022C0D02518C582C0E0E51934FFC583C0D0
:101F0300E0E518C3958224F310AF08858319858211
:101F1300188008858319858218D2AFC8F0A3E9F029
:101F2300A3EAF0A3EBF0A37908E709F0A3D8FAEC4E
:101F3300F0A3EDF0A3EEF0A3EFF0A3D0E0F0A3D075
:101F4300E0F0A3D0E0F0A3E520F0A3E5F0F0A322B6
:101F5300851983851882E0C0E0A3E0F9A3E0FAA322
:101F6300E0FBA37808E0F608A3DFFAE0FCA3E0FDBA
:101F7300A3E0FEA3E0FFA3E0C0E0A3E0C0E0A3E092
:101F8300F5D0A3E0F520A3E0A3F5F010AF08858317
:101F9300198582188008858319858218D2AFD0826B
:101FA300D083D0E0F8D0E03274048006740280025B
:101FB3007401C0E0F404121D5DD0E0121C322274DF
:101FC30004800474028000CCC0E0EDC0E0E518C3D7
:101FD3009CCCAD1950011D10AF068C188D198006CD
:101FE3008C188D19D2AF121C3FD0E0FDD0E0FC223B
:101FF300D083D082E9C0E0E493A3C386F0C5F09513
:10200300F0F908E493A386F0C5F095F0700BE49320
:10201300A3C3994005E9048002A3E475F002A42553
:1020230082F582E5F03583F583D0E0F9E493A3C02C
:10203300E0E493C0E022D083D082ECC0E0EDC0E0C6
:10204300E493A3FCE493A3FDED4C600D122085EC17
:1020530024FFFCED34FFFD80EFE493A3FCE493A3A2
:10206300FDED4C600D1220C4EC24FFFCED34FFFDAC
:1020730080EFD0E0FDD0E0FCE493A3C0E0E493C0A4
:10208300E022C0E0C3E49396087401939618400FCE
:10209300E49366700808740193661870007019A3BE
:1020A300A3C3E49396087401939618A3A3400DD099
:1020B300E0D0E0D0E0022075A3A3A3A3A3A3D0E0C4
:1020C30022C0E0C0F088F0E49366700808740193BE
:1020D30066187000A8F0A3A3700BD0F0D0E0D0E096
:0C20E300D0E0022075A3A3D0F0D0E022D2
:1020F00074F6121E08EAFEEBFF8C088D09EE2434FC
:10210000F8E43FF9E8FCE9FDEE243512240CFAEE80
:10211000243712240CF88508F0A4C885F00A850934
:10212000F0A4250AF9EA28F8E439F97A257B0012A7
:102130001CA1EA8C828D83F0FA131313541FF8EE5E
:1021400028F8E43FF9E8245DF582E439F583E0C03E
:10215000E074075AF8D0E0B800028004C313D8FC3A
:10216000A2E0EE50082434F582E43F8018243612B1
:10217000240CF5F0EA84A8F0EE28F8E43FF9E8240E
:1021800038F582E439F583E0F97F03021EB474F771
:10219000121E08EAFEEBFFEE243412240CC0E0EE1F
:1021A0002435F582E43FF583D0E0F08E828F83A35F
:1021B000A3A3A3A3A3A3C082C0838E828F83A3A360
:1021C000A3A3A3E0F8A3E0F9D083D082E0C398F5FD
:1021D00008A3E099F509EE247F12240C6401703EF7
:1021E000EE2480F582E43FF583C082C0838E828F27
:1021F00083A3A3A3A3A3E0240108A3E03400F9D0A0
:1022000083D082E0687003A3E06970127C9A7D0A33
:10221000120EEAEE247FF582E43FF583E4F0AC0889
:10222000AD09EEFAEFFB1220F0E9F9122E5E7F0203
:10223000021EB4C082C083851882851983E0F8A38A
:10224000E0F9C3EA9CEB9D5010C3EC98ED99401B5C
:10225000C3EA98EB995014800EC3EA98EB994007B3
:10226000C3EC98ED994004790180027900D083D0C5
:102270008222EAC39CFAEB9DFB2274EF121E0890A7
:102280000743E064086005E06407702A9061C8E0D5
:102290006024900771E0F4601DE0F875F00DA4C8AB
:1022A000AAF02AF9747328FE740739FF8E828F838F
:1022B000A3A3A3E07003022388906060E0C0E0EE77
:1022C0002468F582E43FF583D0E0F0750C34750D99
:1022D0000B750800750900E5D914F50AE5D9540312
:1022E000F50E60127403650E6043E50A600AEE2481
:1022F0006712240C70028075900B2FE06401601F40
:1023000012240960047A0480027A00E50AC39AFA6A
:1023100095E0FB120D228A088B09EA450970051227
:1023200011AE806412240970048A0C8B0DE50A60DA
:1023300012850C82850D83F50BE5D9F0A3150BE50D
:102340000B70F6122409604474FC250AF50A780C17
:10235000121FAFAC0AA90EEEFAEFFB120FA4740223
:10236000121D42E97026AA08AB0912171E793D8E8C
:10237000828F83A3A3A3A3E0FA7B00120B72EEFA71
:10238000EFFB120F0E121004790080787403650EB3
:102390006051850A107511007810121FAFAC0CAD9A
:1023A0000DAA08AB09120F687402121D42EE2468D0
:1023B00012240C64807004747F8001E0F50C780CAA
:1023C000121FB3E50EF50C780C121FB3A90AAC0866
:1023D000AD09900771E0FA7B00120B427402121DE6
:1023E00042801C900743E06408AC0CAD0D7009EE10
:1023F000FAEFFB120FD48007EEFAEFFB1210761201
:1024000011BA79017F0A021EB4EE2483F582E43FFB
:10241000F583E02274F2121E0874FC121D2CEAFEF1
:10242000EBFF8909A2AFE433F508C2AF0224DEE076
:10243000601B780C121FAFAC0BA90EEEFAEFFB126B
:102440000F9E7402121D427404250BF50B740125B6
:102450000BF5D9850ED9E50B6018F50A850C828538
:102460000D83E0F5D9A385820C85830D150AE50A55
:1024700070EA75E195EE2463F8E43FF97A007B0099
:10248000A2AFE433F50BC2AF88828983E0FCA3E0FE
:10249000FDEC4D603A88828983E0FAA3E0FB8A82F2
:1024A0008B83E0FCA3E0FD88828983ECF0A3EDF050
:1024B0008A828B83E4F0A3F088828983E0FCA3E026
:1024C000FDEC4D700A88828983A3A3E4F0A3F0E5B4
:1024D0000BA2E092AF12171E900AA1E004F0EE24C6
:1024E0006312240CF8A3E0F9E8496064EE24631257
:1024F000240C2402F8A3E03400F988828983E58261
:102500002402F50CE43583F50DE0F50BA3E0F50EA0
:10251000EE246212240C640170369061D0E0F8124F
:10252000240960047C0480027C007480C398FA95BE
:10253000E0FBE50B2CF8E43400F9E82402F8500144
:1025400009C3EA98EB99A2D265D033400302242F45
:10255000900AA1E0604D900AA2E0F8900AA1E0C3C1
:1025600098500C74026509703A900AA3E060348EAA
:10257000828F83A3A3A3A3E08518828519831225E4
:10258000B37402121D78E81225B3900AA0E028F077
:102590007402121D92AA18AB197901120BA2900AAB
:1025A000A1E4F0E508A2E092AF7404121D427F0797
:1025B000021EB4F0A3E4F0900AA1E0F822000000AB
:1025C0008521878522C622C0E074EB121EF4A2AFDB
:1025D000E433F508C2AF759B00906182E0A2E05041
:1025E00030E591A2E0502A7591FE740165217021B9
:1025F00012275A1210C4122748121FC2122C087434
:1026000004121D42E964017005790112110C1222B5
:102610007A906182E0A2E5505DE591A2E5505775A0
:1026200091DF900743E064076005E06408702F12B3
:10263000275A74016521703E1210C4122748121FD8
:10264000C2122C087404121D42E96401700579015C
:1026500012110C7901EEFAEFFB1224148018E064D9
:102660000D7013900765E004F064287002E4F07ABE
:1026700000E0F91211C0906182E0A2E64003022757
:102680001DE591A2E6400302271D7591BF90074307
:10269000E0640570081210AC1210B880031210B27A
:1026A00075210012112AE9900744F0790012110CEB
:1026B000120E0C7A017B00900742E0F91216EE90A0
:1026C0007803E064427056900B33E014F0704EC211
:1026D000AF1226D400782AD0E0F618D0E0F6E59FB5
:1026E0005407F87005750DFF8003750D7FC4C0E0B9
:1026F0007829E6F50A08E6550DF50B740B780A12F1
:102700001D0AD0E0250AF8906270E0A2E740F8E8E0
:10271000C333906272F0906270E0D2E0F090618119
:10272000E0A2E35009E5E9A2E3500375E9F7A3E06D
:10273000A2E75009E591A2E7500375917FE508A251
:10274000E092AF7F08021F538E828F83E0F8A3E0F0
:10275000C82416F582E438F58322900771E0F875F5
:10276000F00DA4C8AAF02AF9747328FE740739FF83
:1027700022C0E0C0D0C082C083906183E0A2E0505C
:1027800009E5BFA2E0500375BFFEE0A2E15009E5F4
:10279000BFA2E1500375BFFDE0A2E25009E5BFA270
:1027A000E2500375BFFBE0A2E35009E5BFA2E3508E
:1027B0000375BFF7E0A2E45009E5BFA2E45003753A
:1027C000BFEFE0A2E55009E5BFA2E5500375BFDF0A
:1027D000E0A2E65009E5BFA2E6500375BFBFD08373
:1027E000D082D0D0D0E032C0E074F2121EF4E5A75F
:1027F000A2E6500FE5A1A2E6500953A7BF75A1BFFD
:1028000012283BE5A7A2E5500CE5A1A2E55006532E
:10281000A7DF75A1DFE5A7A2E15009E5A1A2E1507C
:102820000375A1FDE5A7A2E2500CE5A1A2E25006C6
:1028300053A7FB75A1FB7F01021F5374F7121E08FB
:10284000752101900743E0640670151210288A82F2
:102850008B83A3A3A3A3A3A3E0FAA3E0FB12109A84
:10286000A2AFE433FED2AF900749E0640170187A5A
:10287000207B00900742E0F91218267A207B009016
:102880000742E0F91216F4906182E0D2E6F0900B74
:1028900030E0602185C6228016900748E064017010
:1028A00008E5C654F84405F5C653BEFC1225C074AD
:1028B00001652160E4EEA2E092AF7F02021EB40047
:1028C0008E238F2485822885832785188285198306
:1028D000E0CEA3E0CF852882852783EBC9EAC8ED47
:1028E000CBECCA75F010C3E833C8E933C9EA33CA80
:1028F000EB33CBC3EA9EF526EB9FF525B35004AB33
:1029000025AA26EC33CCED33CDD5F0DAAE23AF24B7
:102910002274E9121E0874FA121D2CEAFEEBFF8CD9
:102920000A8D0B1210D0EAF8EBF9ECFAEDFB8E826F
:102930008F83121C26900743E024F7C394055006AA
:10294000751401022A781210288A088B09EA4509B1
:102950007003022A75EEFCEFFDAA18AB191210CA1B
:10296000850882850983A3A3780C121BF09081D877
:10297000780C121BCA8518828519837810121BF0F7
:102980009081D87810121BCA780C7910121A035053
:102990001F780C7910121BA2908184780C121A23D4
:1029A0004047850C14850D15850E16850F1780453B
:1029B000908184851014851115851216851317785A
:1029C00014790C121BA27814121A23501C751400CF
:1029D00075150075160075170178147910121BA271
:1029E0007814790C121B69800C751401751500752B
:1029F000160075170074097814121B4A90818878A4
:102A00000C121BF07814790C121AC2850882850901
:102A100083A3A3A3A3A3A3122A96121CA1880C89A3
:102A20000DE4F50EF50F7814790C121B697404127D
:102A30001D78122A96121CA1E8FA8A0CE4F50D788A
:102A400014790C121A0350077814790C121BA290F7
:102A50000743E06408600AE064066005E06405700E
:102A60002090818C7814121A23501690819078143B
:102A7000121B7C800C7514007515007516007517F7
:102A800000850A82850B837814121BFF7406121DC1
:102A9000427F10021EB4E0F8A3E0F97AD07B032253
:102AA00074F7121E081210E2900B2EE064017010F1
:102AB000906245E4F0A3F053F4F343FE0C5390F31B
:102AC000121088E5C654B84441F5C6E59E544764E3
:102AD0004170F8906185740FF0900B2CE0F4700257
:102AE000A3E0604E900B2DE0600814601B14602E74
:102AF0008040750801750900900B2CE07808121DC4
:102B000019E508F45280802A750801750900900BB8
:102B10002CE07808121D19E508F45290801475080D
:102B200001750900900B2CE07808121D19E508F4D6
:102B300052A079007F02021EB474F7121E08E9FE4B
:102B4000EAFF1210E274016E700C7A807B0090072D
:102B500042E0F91216EE902F50E493F46008E493EB
:102B6000F9120E00800953C6B8E59E544770FA1258
:102B7000108E900B2EE064017003120E24900B2C2B
:102B8000E0F47002A3E0604B900B2DE0600814604D
:102B90001A14602C803D750801750900900B2CE01B
:102BA0007808121D19E5084280802875080175090A
:102BB00000900B2CE07808121D19E5084290801354
:102BC000750801750900900B2CE07808121D19E5B5
:102BD0000842A01210288A088B09A808A909E84908
:102BE0006014E5E170FCE82414F582E439F583E033
:102BF000F46003E0F5E174016F700A7A0190074216
:102C0000E0F9121784022B3474F1121E088A088B23
:102C1000098C0A8D0B9081D87808121BCA740F1288
:102C20001D78780C121BF09081D8780C121BCA7892
:102C300008790C121A0390818450107808790C12CC
:102C40001BA27808121A234014800E780C790812FF
:102C50001BA2780C121A2350047901800279007F9C
:102C600008021EB474ED121E088A088B098C0A8DA6
:102C70000B9081D87808121BCA7413121D78780C37
:102C8000121BF09081D8780C121BCA780C790812AC
:102C90001A0340117808790C121BA2AA08AB09ACE0
:102CA0000AAD0B80227510007511007512007513A6
:102CB000017810790C121BA278107908121B69AAEE
:102CC00010AB11AC12AD137F0C021EB49081D878FA
:102CD00008121BF08A828B837808121BDD7F0402A6
:102CE0001EB474F5121E088C828D837808121BF0B6
:102CF0008A828B837808121BB6122D3AC3E09CF0AF
:102D0000A3E09D122D2C40229082007808121BF027
:102D10008A828B837808121B8F8A828B83A3A3A35A
:102D2000A3E02420F0A3E0344EF080A0F088828954
:102D300083C3E09420A3E0944E22EA2404F8E43B09
:102D4000F98C828D83A3A3A3A3E0FCA3E0FD88827A
:102D500089832274F5121E08E9FE900ABCE0FAA3EA
:102D6000E0FBEE29F8E433F974E128F58274803948
:102D7000F583E02AF508A3E03BF5097808121FAFB8
:102D80009081FC121C0E1228C07402121D428A0887
:102D90008B098C0A8D0B74107808121B31AA08ABB2
:102DA000097F04021EB474F1121E088A0C8B0D8C6C
:102DB0000E8D0F7411121D78121FC67411121D781A
:102DC000E02401F508A3E03400F509E4F50AF50B69
:102DD000780C7908121A4290819C7808121BF078BE
:102DE0000C7908121A42AA0CAB0DAC0EAD0F1228CA
:102DF000C07402121D428B09EA450960047A018001
:102E0000027A00EC2AFCE43DFD7413121D78E0F810
:102E1000A3E0F9E8FEE9FFECF8EDF97A717B021224
:102E20001CA188088909E4F50AF50B8E828F837846
:102E300008121BFFECF8EDF97A717B02121CA18AD3
:102E4000088B0974057808121D198E828F83A3A33D
:102E5000A3A3E508F0A3E509F07F08021EB4C08231
:102E6000C083E9906000F0D083D08222C0E074F289
:102E7000121EF4A2AFE433FED2AFC2C0E5D1A2E489
:102E8000500675D10F121658751A00EEA2E092AFD7
:102E90007F01021F53C0E074F2121EF4A2AFE433AC
:102EA000FED2AFE589A2E150031215B6758900C2C2
:102EB000C5751A00EEA2E092AF7F01021F53C0E079
:102EC000C0D0E8C0E0E9C0E0A2AFE433F8D2AFC2BE
:102ED000C7751A00A2E092AFD0E0F9D0E0F8D0D0E8
:102EE000D0E032C0E0C0D0E8C0E0E9C0E0EAC0E035
:102EF000C082C083A2AFE433FAD2AF9013BFE0F830
:102F0000A3E0687008539AFBA374018022C2E99081
:102F100013BFE0F8740128F0743F28F582E43413FD
:102F2000F583E0F5C19013BFE0C394804002E4F064
:102F3000EAA2E092AFD083D082D0E0FAD0E0F9D01C
:102F4000E0F8D0D0D0E032C2AF020000220201325D
:102F5000FFFFFFFFFFFFFFFFC082C083E9901BE779
:102F6000F0D083D08202013274F6121D9CE99006E3
:102F7000B5F0900715E0F50875090074027808129D
:102F80001D19AA08AB0912176C9006B612391B90CE
:102F900006B6123D08606F900715E075F003A4FABD
:102FA000ABF012176C9006D312391B9006D3123D6A
:102FB00008700B9006B6123CD91217728048900622
:102FC000D3124C6D7AFF7BFF12153E7A0080198A6E
:102FD0000875090074027808121D1912471574FF4C
:102FE00012311BE4F0A3F00A900715E0F8EAC39849
:102FF00040DD7905120A109006B5E0F91208FC7A56
:103000009A7B0A120CC20247B874F4121D9C8A08FB
:103010008B09EB548060479006B5E0F91216D68A0A
:103020000A8B0BAE0AAF0BEE4F602A8E828F83E0C5
:1030300064B0701A120A22E960148E828F83A3A3EF
:10304000A3A3E0F9EE2405FAE43FFB1209F2EEFA3D
:10305000EFFB1216C4AA08E5096480FB80047A001D
:103060007B0002326B74F2121D9C74FB121D2CEA61
:10307000FEEBFFEE4F60457403121D78EEF0A3EFF8
:10308000F0851882851983ECF0A3EDF07402121D0F
:1030900078E9F0AA18AB191208F6E9F5087075740A
:1030A00013121D78E0F50AA3E0F50BE50A450B6065
:1030B000638E828F831236A4EE4F700575080280EE
:1030C000537A067B0012176C8A0C8B0DA80CA90D85
:1030D000E8497005750813803B88828983E41231C2
:1030E0001BEEF0A3EF123237E50AF0A3E50BF090E8
:1030F00006B91232309006B96017E0FCA3E08003F5
:10310000EAFCEBFD8C828D8312323070F38C828D61
:1031100083124330A9087405024EEDF0A3124C4F00
:10312000A32274F2121D9C8908890C750D0074038A
:10313000780C121D19850C0A850D0B9006B8F090BD
:1031400006B612413B12322E602E121772790080A1
:103150001D890C750D007402780C121D199006B6AD
:103160001245D48882F583A3A3E4F0A3F009900765
:1031700015E0F8E9C39840D9900715E0FA850AF000
:10318000A4CAA8F0850BF0A428FB12176C8A0C8B3C
:103190000DAE0CAF0DEE4F7003023224900715E018
:1031A000FC850AF0A4CCA8F0850BF0A428FD7900DA
:1031B0001216B27C0080318D0C750D007403780CF2
:1031C000121D198A828B8312322988828983E4F046
:1031D000123236A3A3F0A3F00DEDC3950840D8EE4C
:1031E000250AFEEF350BFF0C900715E0F8ECC398AD
:1031F00050288C0C750D007402780C121D19900665
:10320000B6123229E82402500109FAE9FB8A828BBE
:1032100083EEF0A3EFF07D0080BFE5089006B8F0E4
:10322000790080027913024EF01245D8F922A3A347
:10323000123CDDEA4B22A3124C4FA3A3A32274F449
:10324000121D9C7900EAA2E0501F75085E75098185
:103250007808121FAF79107C047D007AE97B1B127D
:103260000A0A7402121D42E9F980007F04021E6EF0
:10327000C082C0839006B9123D08601C8882898391
:10328000A3A3E06A7003A3E06B8882898370E8A33C
:10329000A3A3A3123CD980047A007B00022F61749F
:1032A000F2121D9C74FD121D2CEAFEEBFF851882A4
:1032B000851983E4F0A3F07402121D787401F012F2
:1032C0003D057014120BF612176C9006BC12391BD8
:1032D000123D057003023431123A1BEE2404F50A44
:1032E000E43FF50B850A82F583E024FE603C24FC74
:1032F000607424FE607E24FE700302338124FE701D
:103300000302338E24FE700302339B24FE700302FB
:1033100033A824FE70030233B524FC70030233D6B5
:1033200024FE70030233EE02342A120BF69006BE1E
:10333000EAF0A3EB12343D1204F4E9600302342AEC
:103340009006BE121FC68E828F83A3A3A3A3A312CF
:103350004C6D850882850983123CD91209DA740202
:10336000121D4202342AAC18AD19EEFAEFFB120A14
:10337000280233F9AC18AD19EEFAEFFB120A2E80D1
:1033800078AC18AD19EEFAEFFB120A34806BAC186A
:10339000AD19EEFAEFFB120A3A805EAC18AD19EEE9
:1033A000FAEFFB120A408051AC18AD19EEFAEFFBB0
:1033B000120A4680447402121D82880C890D780C12
:1033C000121FAF7402121D92EEFAEFFB120A4C7438
:1033D00002121D428023AC18AD19EEFAEFFB120A5F
:1033E00052E9F870167402121D78E4F0803CAC18B3
:1033F000AD19EEFAEFFB120A58E9F8E8602C8E825C
:103400008F83A3E064146022850A82850B83E09099
:1034100006BEF0851882851983123CD99006BF122A
:10342000391BE8A312343D1204EEEEFAEFFB120949
:10343000B07402121D78E0F97403024EEDF07CBE08
:103440007D06850882850983123CDD2274E8121D01
:103450009C74FA121D2C7404121D78ECF0A3EDF08C
:103460008A128B13EA2405F50EE43513F50FEA24CE
:1034700002F510E43513F511851082F583123CD95D
:1034800012062C8A0A8B0B7508007C037D007900DC
:103490007ABE7B061216B2E50E2402F516E4350F4D
:1034A000F5177402121D82880C890D780C121FAF5B
:1034B000850E82850F83A3A3A3A3E0F50C750D00F1
:1034C000780C121FAFE50E2405F50CE4350FF50D51
:1034D000780C121FAF851682851783123FE0120900
:1034E000147406121D428A0C8B0DE50C450D7003F9
:1034F00002366D8020851882851983E08882898351
:10350000F00508851882851983A3E0C0E01236AE65
:10351000D0E0F00508E50A24FBFAE50B34FFFBC315
:10352000E5089AE49B400302366D7E007F00851219
:1035300082851383A3A3A3A3E0F5097809121FB31F
:10354000E4F514F5157814121FAF7514BB75150644
:103550007814121FAF9006BC121FC67409121D7892
:10356000121FC6E50A24F9F9AC0CAD0D8510828551
:103570001183123CD9120A827409121D42E96003B8
:1035800002360E850E82850F83A3A3A3A3A3A3A354
:10359000E0F89006BBE0687075E0F5148E157814BD
:1035A000121FAF124C6A850E82850F83A3A3A3A3BB
:1035B000A3A3A3A3123CD91216AC7402121D42E9B4
:1035C000604C9006BF123D08703BE4F5147814126D
:1035D0001FAF7CFF7DFF7907851082851183123C28
:1035E000D91209EC7402121D42123D0E7017850E9D
:1035F00082850F83124E077404121D781246C8127A
:1036000040110236A1850C82850D831236A4A818BC
:10361000A919881489157814121FAF7404121D7823
:10362000121FC6851682851783123911120920745C
:1036300004121D428A0C8B0DEE4F70030234EA1205
:1036400036AEEE1236B9123FC7EF1236B9F8A3E024
:103650003400F9E50C450D60030234F58882898356
:1036600074FFF005081236AE74FFF00508E5086037
:103670001A1313543F123921120500E9600990060C
:10368000BF123CD912171E79008016850E82850F55
:1036900083124E077404121D781246C81243307903
:1036A0000A023F9AA3A3A3A3E0FEA3E0FF22A80877
:1036B0009006BFE028123FC722F00508089006BF19
:1036C000E0282274E8121D9C74FA121D2C74021258
:1036D0001D7812391B7404121D78ECF0A3EDF07400
:1036E00002121D78E02405123FB0E0F50CA3E0F5CE
:1036F0000D7402121D78E02402F510A3E03400F5E9
:1037000011851082F583123CD912062C75080075BC
:103710000900EA24FCFEEB34FFFF8008050CE50CF1
:103720007002050DA808C3EE98EF9400500302380C
:10373000CDA818A919880E890F780E121FAF85140D
:1037400082851583A3A3A3A3124C71121FAFE514A6
:103750002405F50EE43515F50F780E121FAF85140C
:103760008285158312390F1209147406121D428ABC
:103770000E8B0FEA450F70030238CDEA2404F516CC
:10378000E4350FF517851682F583E0F50CA3E0F517
:103790000D851882851983124C6D8A828B83A3A3B1
:1037A000A3E0F9851082851183123CD9120902E940
:1037B000F50960030238CD7402121D78123FD7F567
:1037C000097809121FB3E4F512F5137812121FAF2E
:1037D0007512BB7513067812121FAF9006BC121F2C
:1037E000C67407121D78121FC6EEF9AC0EAD0F8518
:1037F0001082851183123CD9120A827409121D426B
:10380000E9F50960030238CDE508703FE4F50EF5EF
:103810000F780E121FAF7CFF7DFF7909851082851E
:103820001183123CD91209EC7402121D42123FFDA1
:10383000700D7404121D7812390479110239019047
:1038400006BBE024029006BFF080149006BFE0FAA9
:103850009006BBE0790024025001096A497072A801
:10386000089006BBE0FAE82AFAE43400FBEE9AEF8F
:103870009B405A851682851783E0C0E09006C012EF
:1038800036B3D0E0F00508851682851783A3E0C023
:10389000E0089006C01236B3D0E0F005089006BBF1
:1038A000124C71121FAF124C6AA808123FA41216D4
:1038B0009A7402121D429006BBE02508F50874FFB9
:1038C000650C700474FF650D600302371CE5086029
:1038D0001F9006BFE0F5F0E50884123921120506B5
:1038E000E960099006C0123CD912171E79008011B8
:1038F000E509700375090A7404121D78123904A9C8
:1039000009023F9A12413FE50CF0A3E50DF022A316
:10391000A3124EFCAA0CAB0D22A3A3EAF0A3EBF07A
:10392000229006BEF07CBE7D068510828511831232
:103930003CDD2274EC121D9C74FC121D2C124440C0
:103940007402121D92123CD312091A8A0C8B0DEAD2
:10395000450D7003023A0B123A1BA818A9198810DA
:1039600089117810121FAF7CFF7DFF790B850882CB
:10397000850983123CD91209EC7402121D42123BD4
:1039800011700C850A82850B8312400E023A188E44
:10399000828F83A3A3A3A3E0F5127812121FB3E4CE
:1039A000F512F5137812121FAF7512BE7513067853
:1039B00012121FAF7810121FAF7409121D78121F58
:1039C000C67409121D78E0F9AC0CAD0D850882852E
:1039D0000983123CD9120A827409121D42E9FE7051
:1039E000157CBE7D06850882850983123CD91205A7
:1039F0000CE97009802074166E70027E009006BF7C
:103A0000123CD912171EEE7004800B7E01850A82CB
:103A1000850B8312432DEEF9024342EE2402F50892
:103A2000E43FF5092274EC121D9C74FC121D2CEA73
:103A3000FEEBFF8C0E8D0FEE2405F508E43FF50933
:103A40007402121D92850882850983123CD91209DD
:103A50001A8A0C8B0DEA450D7003023B01EE24021D
:103A6000F50AE43FF50BA818A919881089117810F8
:103A7000121FAF7CFF7DFF790D123CD31209EC744D
:103A800002121D42123B11700B85088285098312B8
:103A9000400E807A8E828F83A3A3A3A3E0F51278D1
:103AA00012121FB3850882850983A3A3121FC6754E
:103AB00012BE7513067812121FAF7810121FAF7462
:103AC00009121D78121FC67409121D78E0F9123C04
:103AD000CF120A827409121D42E9FE700F7CBE7D6E
:103AE00006123CD3120512E97009802074166E701C
:103AF000027E009006BF123CD912171EEE700480A1
:103B00000B7E0185088285098312432DEEF902435D
:103B100042123D18F510A3E0F511EA45112274E8B0
:103B2000121D9C74FE121D2C8A168B178C148D1579
:103B3000EA2405F50CE43517F50DEA2402F50EE448
:103B40003517F50F850E82F583123CD912062C8AA3
:103B5000088B09750B007C037D0079007ABE7B061B
:103B60001216B2750A00E50814F5100424FFF508D2
:103B7000E50934FFF50980549006BEE0FA9006BBD3
:103B8000E0F8EA28F8E43400F9E50898E5099950E6
:103B90000D9006BEE0F8E510C3989006BBF0E0F586
:103BA000127513007812121FAF124C6A9006BFE014
:103BB0002AFAA3E03400FB12169A7402121D4290F6
:103BC00006BBE0F89006BEE028F0050A850C828569
:103BD0000D83A3A31245E44003023CB49006BEE06B
:103BE000C39508E495094003023CB4AE0AEE2EFEEC
:103BF000E433FF123CF3AC18AD19124C85E439FBE9
:103C000012091A8A128B13AC12AD13EC4D701B758E
:103C10000B01123CE31243319006BF1232306003B5
:103C200012171EA90B7402023F9C8516828517830A
:103C3000A3A3A3A3E0F50B780B121FB3E4F512F5D1
:103C4000137812121FAF7512BB7513067812121F6C
:103C5000AF9006BC121FC67407121D78121FC6A9AA
:103C600010850E82850F83123CD9120A82740912C4
:103C70001D42E9F50B709B9006BF123D08600302E0
:103C80003B78E4F512F5137812121FAF7CFF7DFF2D
:103C9000790F850E82850F83123CD91209EC7402CC
:103CA000121D42123D0E6003023B78123CE31240AB
:103CB00012023C257CBE7D06850E82850F83123C58
:103CC000D9120518E96003023C187900023C25ACC2
:103CD0000CAD0D850A82850B83123CDD22E0FAA330
:103CE000E0FB22123CF3E0FAA3E0F9EA85148285B6
:103CF000158322850C82850D83E02EF8A3E03FF921
:103D000088828983229006BC124E0BE84922123D1C
:103D100018F8A3E0F9E849229006BFEAF0A3EBF017
:103D20009006BFE02274E8121D9C74FA121D2C74D8
:103D300004121D7812391B8C168D177404121D780D
:103D4000E02405F50EA3E03400F50F7404121D788D
:103D5000E02402123FB0123CD912062C8A0A8B0BC7
:103D60007F007E00A818A919880889097808121F01
:103D7000AF850E82850F83A3A3A3A3E0F5088E0968
:103D80007808121FAFE50E2405F508E4350FF50994
:103D90007808121FAF850E82850F83A3A3123FE020
:103DA0001209147406121D428A0C8B0D8029123FD1
:103DB000D1F00F123FD1F00F9006BB12431C121F1F
:103DC000AF124C6AEFF8123FA412169A7402121D39
:103DD000429006BBE02FFFE50C450D7003023E60EC
:103DE000851882851983124452A3A3A3E0F9851490
:103DF00082851583123CD9120902E9FEE50C2404E0
:103E0000F510E4350DF511EE70507404121D7812A2
:103E10003FD7F5087808121FB3E4F508F5097808CC
:103E2000121FAF7508BB7509067808121FAF900600
:103E3000BC121FC67407121D78121FC6E50A24FAA9
:103E4000F9AC0CAD0D851482851583123CD9120A8C
:103E5000827409121D42E9FE6039123FED124330AF
:103E6000EF7003023F879006BFE0F5F0EF84900605
:103E7000BEF07CBE7D06851482851583123CD91266
:103E8000051EE960099006C0123CD912171E790080
:103E9000023F9A8F08EF703BE4F512F51378121287
:103EA0001FAF7CFF7DFF7911851482851583123C3D
:103EB000D91209EC7402121D42123FFD7009123F23
:103EC000ED124011023F9A9006BBE024049006BF19
:103ED000F080359006BBE0F89006BFE0FAE82404D5
:103EE000FCE43400FDEC6A4D6003023E66E50A2402
:103EF000FAFAE50B34FFFBE50828F8E43400F9EAA8
:103F000098EB995003023E66851082851183E0C0CC
:103F1000E09006C0E02FF8A3E034008882F583D05B
:103F2000E0F00F851082851183A3E0C0E0123FBE50
:103F3000D0E0F00F7402121D8288088909780812F7
:103F40001FAF7402121D78121FC6850E82850F8363
:103F500012390F1209207404121D428A0C8B0DEACB
:103F6000450D7003023DAE7402121D78E0C0E012F0
:103F70003FBED0E0F00F7402121D78A3E0C0E01243
:103F80003FBED0E0023DB6EE70027E0A850E82850D
:103F90000F83123FF3124330EEF97406121D427F75
:103FA00010021E6E9006C0E028FAA3E03400FB2247
:103FB000F514A3E03400F515851482F58322123F31
:103FC000C2229006C0E02FFAA3E034008A82F58373
:103FD00022123FC274FF2212413FA3A3A3A3E022F7
:103FE000124EFC850E82850F83123CDD22851082E5
:103FF000851183124E0B851682851783229006C089
:10400000EAF0A3EBF09006C0124E0BE849221243EF
:1040100036E8F0A3E9F079112274EA121D9C74FECF
:10402000121D2C8A088B098C128D13EA2405FEE4DC
:104030003509FFAC18AD198E828F83123CD9120955
:104040001A8A0C8B0DEE2406F50EE43FF50FEA45B7
:104050000D7003024111E5082402F50AE43509F563
:104060000B8A828B83A3A3A3E0A2E5502885188244
:10407000851983123CD9120A768A108B11EA4511F0
:1040800060207912123CCF851082851183121D9A0F
:10409000E9F50C707F850E82850F83E06009795207
:1040A0008011750C0E806D850882850983A3A3A3FA
:1040B000A3E0F9E4F508F5097808121FAF8E828FA6
:1040C00083A3A3E0F5087808121FAF8E828F83A325
:1040D000A3A3121FC68E828F83124C6D123CD31283
:1040E0000A887406121D42E9F50C7011850E82854E
:1040F0000F83E0702D123CD31205248025741665C1
:104100000C7011750C007418121D7812413BE4807C
:1041100010750C01124E03851282851383E8F0A3FB
:10412000E9F0850E82850F83E0600479008002A9A2
:104130000C7402121D427F0E021E6E12413F22E0DD
:10414000F8A3E0F58388822274EC121D9C74F712A8
:104150001D2C8A0A8B0B8C108D11EA2405FEE43588
:104160000BFF750C00AC18AD198E828F83123CD9F1
:1041700012091A8A088B09EA45097003024307E508
:104180000A2402F50A5002050B8A828B83A3A3A39B
:10419000E0A2E5502F851882851983123CD9120AB6
:1041A000768A0C8B0DEA450D604F7912AC08AD098B
:1041B000123CD3850C82850D83121D9AE9F50C60A3
:1041C0000302430A850A82850B83E0F508A3E0F524
:1041D00009AA08FB120A6AEA4B70197AFF7BFF12E0
:1041E0000A6AEA4B70030242FD8A828B83E508F07B
:1041F000A3E509F07508008008750C0E02430A0556
:10420000089006B8E0F8E508C39840030242FD852F
:10421000080E750F007403780E121D198A828B83A5
:10422000A3A3E0250EF8A3E0350F1246D170D08E7F
:10423000828F8312432512391B8E828F83A3A31290
:104240004325123919EE2404F508E43FF5098508E1
:1042500082F583E088828983A3A3A3A3F0A3E4F07B
:10426000EE2405F50EE43FF50F850E82F58312432B
:1042700025A3A3A3A3123919751207751300781289
:10428000121FAFEEFCEFFD7404121D8A12169A7411
:1042900002121D42E4F5127812121FAF85088285C2
:1042A0000983E0FC7D007917123CD31209EC7402FB
:1042B000121D427407121D7812391B7407121D78E3
:1042C000E0FA4B603D85088285098312431C121F6A
:1042D000AF850E82850F83124C6D12169A740212EE
:1042E0001D427402121D92123CD312052AE9602667
:1042F0007407121D78123CD912171E8019750C090B
:104300008008750C118003750C01124E0385108214
:10431000851183124330A90C74098028E0F50875D3
:104320000900780822123CDD8882898322124336F4
:10433000E8F0A3E9F022E0F8A3E0F9850E82850F0A
:1043400083227404121D427F0C021E6E74EC121D37
:104350009C124440751000EE2402F50CE43FF50D6C
:10436000850C82F583123CD9120A6A8A088B09EA05
:1043700045097003024424850A82850B83E06401A9
:104380006003024419AC08AD09AA0AAB0B120A5E1D
:10439000E9606E8508828509831236A6EE2406F54B
:1043A0000AE43FF50B8E828F83A3A3121FC68E8271
:1043B0008F83A3A3A3A3121FC6850A82850B831232
:1043C0001FC679188E828F83124452123CD9120A6A
:1043D000887406121D42E9F8741668700B850A820B
:1043E000850B83E4F0A38014E860128E828F831221
:1043F0003CD9850E82850F83EAF0A3EBF08810800C
:1044000018780E121FAFAC08AD09EEFAEFFB120AD6
:10441000647402121D42E9F510AA08AB09120A7071
:10442000E510700E850C82850D83123CD912053083
:104430008009741665107003751000A910024347B7
:10444000EAFEEBFF8C0E8D0FEE2405F50AE43FF536
:104450000B22124EFC850C82850D832274EA121DFC
:104460009C7508007509007E007F00750A00EC2429
:1044700002F510E43DF5118035EC65087003ED653B
:1044800009600302451188828983A3A3E06A70034F
:10449000A3E06B707C88828983A3A3A3A3124E0739
:1044A000EE28FEEF39FFEA28FAEB39FB050A124540
:1044B000E1503A850A0C750D007403780C121D1931
:1044C0008510828511831245D41246D1601FE508FC
:1044D000450970A58C088D09888289831236A488C5
:1044E000828983A3A3E02EFAA3E03F80BEE50AC33E
:1044F000940250030245CF750800750900EE4F6025
:1045000010EEFAEFFB1217188A0E8B0FEA450F70A8
:104510000579000245D1750B000245A4850B0C7589
:104520000D007403780C121D19851082851183E02B
:10453000250CF50CA3E0350DF50DE50C2406F5145E
:10454000E4350DF515851482F5831246D66042E5F3
:104550000C2404F512E4350DF513851282F583124F
:104560001FC6E50E2508FAE50F3509FB12169A74E9
:1045700002121D42851282851383E02508F508A3E7
:10458000E03509F509851482851583123CD9121787
:104590001EE50B600D7C087D007900AA0CAB0D12A6
:1045A00016B2050BE50BC3950A500302451C851096
:1045B00082851183124E0788828983A3A3A3A3A3B4
:1045C000A3E50EF0A3E50F123237EEF0A3EFF0797A
:1045D000010241361245D822E0250CF8A3E0350D42
:1045E000229006B8E0F8E50AC3982274F0121D9CE8
:1045F0008A0E8B0F8C0A8D0B750D00750C00805088
:104600007916EE2406F508E43FF5098E828F83A320
:10461000A3121FC68E828F83A3A3A3A3121FC685D6
:104620000882850983121FC6850E82850F83A3A386
:10463000123CD9120A887406121D42E9F50D74164F
:10464000650D706C850882850983E4F0A3F0050C84
:104650009006B8E0F8E50CC3985066AA0C8A087575
:10466000090074037808121D19850A82850B83A33B
:10467000A3124720E8FEE9FF8E828F831246D660A0
:1046800040EA2401F508E43400F5099006B8E06535
:10469000087002E509601488828983A3A3A3A3A3F9
:1046A000A3A3A3123D086003024600791802460244
:1046B000E9609B124E037410121D781246C8124313
:1046C00030A90D7F08021E6EE0FAA3E0F5838A820E
:1046D00022F988828983124EFCEC4D2274F6121D59
:1046E0009C7C0080010C900715E0F8ECC398501EEC
:1046F0008C0875090074027808121D19124715E01C
:104700006A7003A3E06B70DDE8FAE9FB80047A00CD
:104710007B000247B89006B6124720888289832220
:10472000E02508F8A3E03509F92274F2121D9C8AED
:10473000088B09750A0080278E828F83A3A3A3A309
:1047400012322E600312171E7C087D007900EEFAEB
:10475000EFFB1216B28E828F83E4F0A3F0050A12EB
:1047600045E15027850A0C750D007403780C121D65
:1047700019850882850983A3A3E0250CFEA3E035F3
:104780000DFF8E828F83123D0870AD8508828509EA
:104790008374FFF0A3F0024EF074F6121D9C120A0F
:1047A0001C8A828B83E582458370067A007B0080B9
:1047B00007A3A3A3A3123CD97F02021E6E74F412B6
:1047C0001D9C89088C828D83E06402703C124DA68A
:1047D000FEA3E0F9EEF87402687003742969702989
:1047E000750A02750B00780A121FAF7410121D783B
:1047F000121FC67410121D78121FC6A90812154484
:104800007406121D42E9F98002790102326B74E8E4
:10481000121D9C74FB121D2CE9851882851983F0EA
:104820008A168B17ECFEEDFF7510008E828F83A326
:10483000A3A3E0A2E4502D741D121D78123CD912DE
:104840000A768A828B83E58245837003024C457920
:104850000AEEFCEFFDAA16AB17121D9AE9F51060DF
:1048600003024C48741F121D78E0F508A3E0F50917
:104870007421121D78E0F50AA3E0F50B7423121DD4
:1048800078E0F50EA3E0F50F8E828F83E06402607E
:1048900003024BE6A3124E07850882850983A38590
:1048A0008212858313EE2406F50CE43FF50D888211
:1048B0008983124C85F514E439F5157814122039E2
:1048C000010000280128E84807000228AD49032814
:1048D0001B490029DC4A0129074B0229A84A032960
:1048E000DC4A0429804BE64BE50E450F6003024B82
:1048F000E1850C82850D83124E07E8FAE9FB8A8276
:104900008B83E0850A82850B83124C90121FAF8A3D
:10491000828B83A3E0FCA3E0024B6AE50E450F60A7
:1049200003024BE1850A82850B837401F0124C7AF5
:10493000850882850983F07C007D008E828F83A3A9
:10494000A3A3A3E02401FAA3E03400FB12091AEAAE
:104950004B60408A828B83E02402F8850A82850BB3
:1049600083E028F0EA2404F8E43BF988828983E0B4
:10497000851282851383124C9E124C90121FAF8AAF
:10498000828B83A3124C6DE5082403FAE43509FBFE
:10499000024B6F850A82850B83E02404F07C047D42
:1049A000007900AA12AB131216B2024C48E50E456C
:1049B0000F6003024BE1124C7AFEA3E0FF850A82EE
:1049C000850B837404F0EE850882850983F0EF85FA
:1049D0001282851383F07403121D92EEFAEFFB121C
:1049E000091A8A0C8B0DEA450D7003024A8B8A82E4
:1049F0008B83A3A31236A47401121D82880E890F23
:104A0000780E121FAF7405121D78121FC67CFF7D31
:104A1000FF1209207404121D428B0FEA450F7033F8
:104A2000850C82850D83124C71121FAF850C828517
:104A30000D83A3121FC67C027D007A4A7B82120678
:104A40001A7404121D42E9700A7401121D7874FF71
:104A5000F0A3F08E828F83E064027039750C0275CA
:104A60000D00780C121FAF8E828F83A3124C6DE560
:104A7000082404FAE43509FB12169A7402121D4246
:104A8000850A82850B83E0240280097401121D7857
:104A9000EEF0A3EFF07401121D78124C5F74011256
:104AA0001D78124C56024BDBE50E450F6003024B9E
:104AB000E1850C82850D83124EF5AA16AB171215EF
:104AC0004A850A82850B837402F0850882850983F2
:104AD000EAF0851282851383EB024BDEE50E450F6B
:104AE0006003024BE1124C7AF8A3E0F9850A828553
:104AF0000B837402F0E8850882850983F0E985124A
:104B000082851383024BDE850C82850D83123CD98E
:104B1000121694EAFAF8C3950EE4950F405CE86526
:104B20000E450F70047A008021851882851983E074
:104B3000FCE50E2CFCE4350FFDC3EC98ED94005021
:104B400003E08005E50ECAC39AFAEA850A82850B5E
:104B500083F08A0A750B00780A121FAF850C8285D4
:104B60000D83E0250EFCA3E0350FFDAA08AB09126A
:104B7000169A7402121D42024C48751007024C48E6
:104B8000E50E450F705B850C82850D83124E0785FF
:104B90000A82850B837407F088828983124C57122E
:104BA0004C4FE0851282851383F0E82402FAE43941
:104BB000FB8A828B83124C5F8A828B83124C56A3B2
:104BC000A3123236124C64F0E82405F8500109882B
:104BD000828983124C64A3124C9EA3A3A3A3F080EA
:104BE0006775100B8062741D121D78123CD9120A71
:104BF0001C8A828B83E5824583604A124E07880CAB
:104C0000890DE8450D603E7425121D78E0F5107899
:104C100010121FB3780E121FAF780A121FAF780858
:104C2000121FAF7407121D78E0F9EEFCEFFDAA1613
:104C3000AB17850C82850D83121D9A7407121D42D5
:104C4000E9F510800375100EA9107405023F9CF061
:104C500088828983A322A3E08508828509832212A2
:104C60004CA5F022124CA5A3A3229006BC124EFC28
:104C700022E0F50E750F00780E22850C82850D83DB
:104C800012413FE022E0FAA3E0F8E4C8F9EA282262
:104C9000F08A828B83E0F50A750B00780A22124CA9
:104CA0004F124CA522E0850882850983A3A32274B4
:104CB000EE121D9C74FE121D2C8A088B09ECFEED71
:104CC000FF890AAC18AD19EEFAEFFB12091A8A0C2B
:104CD0008B0DEA450D7003024D9785188285198367
:104CE000123CD9120A1C8A828B83E58245837003A9
:104CF000024D92A3A3124E07880E890FE8450F704C
:104D000003024D927414121D78E0F510A3E0F51122
:104D1000E50AF50B780B121FB37419121D78121FD8
:104D2000C67810121FAF741B121D78E0F9AC0CADE1
:104D30000DAA08AB09850E82850F83121D9A740592
:104D4000121D42E9F50B705274FE650A604C850C29
:104D500082850D83E064027041124DA6FAA3E0F94A
:104D6000EAF87402687003742969702E85108285D0
:104D70001183124C85F50CE439F50D780C121FAF38
:104D8000EEFCEFFDAA08AB09120AA07402121D4244
:104D90008008750B0E8003750B01A90B7402121DA0
:104DA000427F0A021E6EA3124E0B88828983E02284
:104DB00074F6121D9C74FE121D2C740C121D7812B8
:104DC0004E07E8851882851983F07401121D78E971
:104DD000F0E4F508F5097808121FAF7508027808A5
:104DE000121FAF7404121D82880889097808121FE7
:104DF000AF79FE120A887406121D427402121D4217
:104E00000247B88E828F83124E0B22E0F8A3E0F99E
:104E10002274F7121D9CEAFEEBFF89089006D3125C
:104E20004C6D12154AEA5402600BA908EEFAEFFB2A
:104E300012090E800279017F01021E6E74F2121DAA
:104E40009C74FE121D2CEAFEEBFF890A7401650AB0
:104E500060147402650A6003024EEB7901120CE0E3
:104E6000E96003024EEBEEFAEFFB120A6AEA4B60CE
:104E700003120A70A818A919880889097808121F4E
:104E8000AF7508027509007808121FAF75084075E4
:104E900009827808121FAF7CFF7DFF7A017B001228
:104EA00009147406121D428038850882850983A37F
:104EB000A3A3A3A3A3124EF5EEFAEFFB12153EE453
:104EC000F50CF50D780C121FAF7402121D78121F2D
:104ED000C67CFF7DFFAA08AB091209207404121DCD
:104EE000428A088B09E508450970BE7402121D420A
:104EF0007F06021E6E12413F124EFC22E0FCA3E030
:104F0000FD2274F4121D9C8A088B09ECFEEDFF90C3
:104F10001BE7E0F4604B7A097B001216BEEA4B6097
:104F2000408A828B8374B1F0A3E4124F64F08A82CA
:104F30008B83A3A3E508F0A3E509124F64A3EEF069
:104F4000A3EFF0740C121D78124E078A828B83A394
:104F5000A3A3A3A3A3A3124330901BE7E0F9121667
:104F6000CA02326BF08A828B83A3A3A3A322C082DE
:104F7000C0839061907404F0A37448F0A37402F0AD
:104F80009061807440F09061BC7403F0906187740C
:104F900019F0906265741BF0906249E0C39413901D
:104FA000619C40107409F09060667401F090619FFC
:104FB0007428800D740BF0906066E4F090619F742B
:104FC0002CF012515B7009C29190074774678005FD
:104FD0009007477461F01251CF902F50E493F46022
:104FE00006E493F9120E0079051211A202541FC0B3
:104FF00082C083E9540FF9906185E0696012E5C6CB
:1050000054B84441F5C6E59E5447644170F8E9F050
:1050100053C6B8E59E544770FA02541FC082C0833D
:10502000A8A853A87E906181E4F0A3F0A3F0C2BACF
:10503000539AFEC289759B00C2C275E90075910042
:1050400075BF0075A91175B905906181F0A374C091
:10505000F0A3E4F0D2BA439A0174805842A80254F3
:105060001FF0A3F002541FC082C08374F8121D2CDD
:10507000900745126BB17003025153900745E054FD
:105080004060177908AA18AB19120F4AAA18AB1971
:10509000120B2A900745E054BFF0E054806010796D
:1050A0000C7A547B0B120F4A900745E0547FF0E0D6
:1050B000A2E0501E12515B7009C2919007477467BD
:1050C00080059007477461F0120B30900745E0545B
:1050D000FEF0E05402601E1251A07009D2919007B8
:1050E0004774718005900747746AF0120B3090077F
:1050F00045E054FDF0E054046010902F541251D25A
:10510000120B36900745E054FBF0E0540860109015
:105110002F551251D2120B36900745E054F7F0E0AC
:105120005410600D1251CF120B36900745E054EF2A
:10513000F0E05420600A120B36900745E054DFF08F
:10514000A3E05401600D120E24120B3C900746E0C0
:1051500054FEF07408121D4202541F90619A1253BB
:10516000C4900B2EE0640122C082C083E960051464
:105170006017802912515B7009C2919007477467CC
:10518000801A900747746180131251A07009D29160
:1051900090074774718005900747746AF002541FA6
:1051A00090619A1253B6900B2EE0640122C082C027
:1051B00083E9600814600A14600C8010902F5480FA
:1051C00008902F558003902F561251D202541F90F1
:1051D0002F56E493906186F02274EA121D9C74F4B9
:1051E000121D2C908208AC18AD197404121C3F904B
:1051F0002F5493F4600302534B907808E0C3940259
:10520000500302532F9081447404121D92740812AB
:105210001C3FA818A919881489157404121D8288C6
:10522000088909AE08AF097510FF7511FF750EFFEB
:105230007C00750C48750D78801274086C70030240
:1052400052C574096C607E740A6C6079850C828525
:105250000D837808121BF08E828F83A909E50AC995
:10526000F8881274187808121B31E5124508F8C343
:10527000E098A3E099850C82850D837808121BF0D5
:1052800040188E828F8374187808121B31E51245FE
:1052900008F8E0C398F8A3E0801A74187808121B85
:1052A00031E5124508FAE9FB8E828F83125EE8EA47
:1052B000C398F8EB99F9C3E89510E9951150068861
:1052C0001089118C0E0CE50C2404F50C5002050D10
:1052D000ECC39413500302523A74FF6510700474C7
:1052E000FF65116024850E0874027808121D197478
:1052F000482508F58274783509F5837808121BF083
:10530000851482851583E508F0EE2402FE50010F16
:10531000851482851583A3858214858315740C12E8
:105320001D78E5826E7003E5836F60030252277576
:1053300008017509007808121FAF7402121D927AD5
:10534000D57B0B1215927402121D42740C121D4271
:105350007F0E021E6EC082C0839061AE7468F0A39F
:10536000746AF090624574FBF0A304F053F4FD43BB
:10537000FE02900B2E7401F09061A0E0643A9061FF
:105380009A70191253C4740164017009C291900794
:10539000477467801E900747746180171253B67474
:1053A0000164017009D291900747747180059007DC
:1053B00047746A025063743FF0A3745AF09061A07E
:1053C000747FF0227433F0A37455F09061A0743AA6
:1053D000F0227F04021E6EC082C083900B0CE0643A
:1053E000017011900B12E064016027E07006A3E0E9
:1053F0006401601E900B23E064017008900B29E0AB
:105400006401600E900AB6E06401700A900ABBE085
:105410006004790C800279008005E0F9122E5ED0DC
:1054200083D082020132C082C08375E1F1900AB953
:10543000E0604B14600914604F14604714704E1202
:105440000E36900AA8E0F97AA97B0A1210EE908134
:10545000E4121C0E12113C9081DC121C0E1210FA88
:10546000900ABAE0F91211067901121196900AA673
:1054700012572E7466F0A3740EF0790080A1120EFC
:105480003C80BF120E4280BA120E4880B57912805D
:10549000EB74F4121D9C75D90D900AAFE0A2E0E404
:1054A000331313F8900AA8125839484401F5D975F6
:1054B00082A975830A1256417004E583640A70F567
:1054C0007582B075830A12582E64B67004E5836441
:1054D0000A70F375E195900AAFE0F97AB07B0A1291
:1054E00010F4901C0B74D6F0A3740D1255AC125826
:1054F0005974F4F0A3740D12586C900AB9E0640169
:10550000900AA6700B12553F121BF09081F480098F
:1055100012553F121BF09081F07808121B7C90818D
:10552000D87808121BCA1255D37808121BFF900AAC
:10553000A612584074131256E27402F00253D212AB
:1055400066F378082274F7121D9C12562BF5D97554
:1055500082A975830A1256417004E583640A70F5C6
:10556000900ABFE0600A78C0790AFA1256D6DAFBD0
:105570001256C51256417004E583640A70F5900A0C
:10558000DFE0600A78E0790AFA1256D6DAFB75E1B4
:1055900095901C0B74E2F0A3740D1255AC1255B625
:1055A00074121256E27401F0FF021E6E1259E57475
:1055B000DCF0A3740D2212585FF0A374F4F0A3740E
:1055C0000D1258701255D374FF1265F6900AA61288
:1055D000584422900AA6125828240EF582E438F581
:1055E000832274F7121D9C12562B4402F5D9758242
:1055F000A975830A1256417004E583640A70F59018
:105600000ABFE0600A78C0790AFA1256D6DAFB754A
:10561000E195901C0B125647F0A31256471255B94C
:1056200074141256E27404F0025FDA900ABF125644
:105630003222E02407F5D9900AA8E0C4333354C0DD
:105640002212583264AF2274EE125654125654F09D
:10565000A3740D22F0A3740DF0A374EE2274F7125C
:105660001D9C12562B4406F5D97582A975830A1222
:1056700056417004E583640A70F5900ABFE0600A41
:1056800078C0790AFA1256D6DAFB1256C51256417C
:105690007004E583640A70F5900ADFE0600A78E040
:1056A000790AFA1256D6DAFB75E195901C0B74E86C
:1056B000F0A3740D1259DE1255B674151256E27429
:1056C00003F0025FDA900ADF1256324404F5D9750E
:1056D00082A975830A2288828983125F8CA882A995
:1056E0008322F090074322C082C083900B1674255A
:1056F000F0900B147401F0A3E4F07A01FB1211187E
:10570000900B0212572E7472F0A3740EF0900B13CC
:10571000E064017016900B12E07010790112117E96
:10572000121148121178790012118A02541F12586E
:1057300028241AF582E438F5832274F6121D9C742D
:10574000FA121D2C900B0BE064017008120E4E90A3
:105750000B0BE4F075E1F1900B021258282415F5BB
:1057600082E438F5837401F0900B0DE06401704918
:10577000908158AC18AD197406121C3F75D90D9064
:105780000B041258394403F5D975820575830B1241
:10579000582E640B7004E583640B70F3A818A919E4
:1057A0001256D67406121D78E582687003E5836987
:1057B00070EE75E19579018002790012111E901C3E
:1057C0000B74E0F0A3740FF0A374E6F0A3740F124F
:1057D0005850125850125859125865F0A374ECF0F2
:1057E000A3740F12586C900B04E0F97A057B0B122E
:1057F00010EE900B16E0F9122E5E79011211249032
:1058000081E4121C0E12113C9081DC121C0E12104D
:10581000FA7900121196900B021258407416125623
:10582000E27405F004026040E0F8A3E0C8221258D8
:105830003222E0F5D9A3E58222E0C4333354C022FA
:10584000125844221258282414F582E438F5832291
:10585000F0A374E0F0A3740F2212585FF0A3221299
:10586000586322F0A374AAF0A3740F221258702276
:10587000F0901C191258651259E9125865125863B4
:10588000F02274F7121D9C8908A808E875F00DA491
:10589000C8AAF02AF9747328FE740739FF900B1B0D
:1058A000E0F97A1C7B0B1210EE900B29E070257941
:1058B00000121160EE240CF582EF3401F583E070E4
:1058C00004790080027901EE2406FAEF3401FB121C
:1058D00010F48005790112116075E1F175D92390FA
:1058E0000B1B1258394405F5D975821C75830B12B0
:1058F000582E64227004E583640B70F375D900752B
:10590000D90075D90075D90075D90075D900EE2474
:1059100022125DA7125DC67003E9658370F6EE245E
:1059200026125DB22403F8E43583F9125DC67003D4
:10593000E9658370F6EE242B125DBB242C125DBB4F
:10594000242D125DBB242E125DBB242F125DBB24BF
:1059500030125DBB2431125DBB2432125DBB243397
:10596000125DBB245D125DB22405F8E43583F912A3
:105970005DC67003E9658370F6EE2437126B1F5421
:105980001FF8EE242A126B1FC43354E048F5D97572
:10599000E195901C0B74B0F0A3740FF0A374B6F0F3
:1059A000A3740F1259DEF0A374BCF0A3740F125845
:1059B0006C900B28E0F9122E5E9081E4121C0E12FE
:1059C000113C9081DC121C0E1210FA90600DE4F074
:1059D00079011211969007437406F0025FDA1259AA
:1059E000E5125865221259E9221259F674AAF0A359
:1059F000740F1259F622F0A374AAF0A3740FF0A347
:105A00002274EC121D9C900B191266EF7810121B79
:105A1000F0900B2AE0FAF875F00DA4C8ACF02CF960
:105A2000126868FFEE2EFEEF33FF8E0CF50D750E3B
:105A300000750F0085100885110985120A85130B62
:105A40009081F07808121B7C7808121FAB85100833
:105A500085110985120A85130B7808790C121B69C8
:105A60007810790C121AC2E4F50EF50F7808790C4B
:105A7000121BA28A0C750D007403780C121D197884
:105A800008790C121B699081D87808121BCAAA08E1
:105A9000AB09AC0AAD0B122C647404121D428A08C7
:105AA0008B09A808A909C3EE98EF995006E82EF8CB
:105AB000E93FF9E890600EF0E9A3F0EEA3F0EFA360
:105AC000F090600D74C1F07F0C021E6EC082C08326
:105AD000900AA6125B5002506174F7121D9C900749
:105AE00071126877747328F8740739F9E82405FA95
:105AF000E439FB8A828B8312693188828983A3A36C
:105B0000A3A3A3A3A3A3A3ECF0A3ED125C42A3A3BE
:105B1000A3A3A3A3E024FFF8A3E034FFF98A828BB8
:105B200083E8F0A3E9F0025FDAC082C083900B0241
