:020000040000FA
:0600000002011A0230812A
:03002B000237CECB
:03003B000237F396
:0300430002377C05
:030053000230F781
:03006B000237A5B4
:10008300022ED7E5C754F84401F5C77901220000D1
:100093000080FB120086B90003020104E479217891
:1000A30008B800028004F709D8FCE479297802B87B
:1000B30000028004F709D8FCE490050178FA791668
:1000C3008002F0A3D8FCD9FA781A90014A7A01BACF
:1000D30000028007E493A3F608DAF97AFA7B1A9010
:1000E300014B78A679048015E493A3AD82AE838A8D
:1000F300828B83F0A3AA82AB838D828E83D8E9D9C6
:10010300E77582317583F5740412012C758291753C
:100113008300740012012C75D00075813F7518019E
:10012300751905759F00020096C09FF59FE473D073
:100133009F22D083D082C09FE493C0E0740193C018
:10014300E0740293F59F220188069406C406BE0656
:10015300FF0000B4000028002800283075A000A08C
:1001630000A000A00000080008E001F0001000104B
:10017300001000100010001000500050005000103C
:10018300001000D0070000000000000F0001000570
:1001930000307507001000010081FF00000000FF20
:1001A300FFFFFC071A0802083E08FF0202020802CA
:1001B3005000A0000000E80302D1890100008489F7
:1001C30002B3890100005D1B02AD890100008A06AC
:1001D30002B3890100005E1B02AB89010000A00687
:1001E30002B3890100005F1B029989010000A20686
:1001F30002B389010000601B029589080000A30671
:1002030002B389010000611B029789010000621B90
:10021300FFFF0100FF2002D189010000878902B39B
:1002230089010000C71B02D389000000000002BF40
:1002330089030000D3061700F40FF40FF40FF40F33
:10024300F40FF40FF40FF40FF40FF40FF40FF40F93
:10025300F40F221240121C12661378136013020269
:1002630002020202020202010D000000100102D18B
:1002730089010000818902B389010000101C029FDB
:1002830089010000221102B389010000111C02A39D
:1002930089010000048802B389010000121C02A531
:1002A30089010000A78702B389010000131C02A77C
:1002B30089010000998602B389010000141C02A978
:1002C30089010000518602B389010000151C02B5A3
:1002D30089010000878602B389010000161C02B75A
:1002E300890100003F8602B389010000171C02BB8D
:1002F300890100008B8702B389010000181C02BD2D
:1003030089010000191C01E803057710020A0A6A33
:1003130015FFFFFF00013075030201060000000016
:1003230000000000000000000000000000000000CA
:100333000000000000000000FFFF0600800CE8033F
:100343000201061AFF4C000215534D54000000022F
:100353000301010A1E0E10000000000000CDFEFF85
:10036300010A4C000215534D540632009600010A4F
:100373000944617272656E424C450512060006001F
:10038300020A00020A4368617261637465726973E9
:10039300746963203100024368617261637465723A
:1003A300697374696320320008436861726163741E
:1003B3006572697374696320330010436861726105
:1003C30063746572697374696320340002436861FE
:1003D30072616374657269737469632035001643CF
:1003E300686172616374657269737469632036004E
:1003F30002D1890100008A8902B389010000361DF8
:1004030002C589030000D51A02B989010000371D0E
:1004130002B389010000481D02C789010000D61AF2
:1004230002B989010000491D02B3890100005A1D68
:1004330002C989020000D71A02B9890100005B1DB5
:1004430002B3890100006C1D02CB89000000D81A99
:1004530002BF89030000D91A02B9890100006D1D8A
:1004630002B3890100007E1D02CD89040000DB1A5E
:1004730002B9890100007F1D02B389010000901DAC
:1004830002CF89030000E01A02BF89030000F51AB6
:1004930002B989010000911D3031323334353637CA
:1004A300383941424344454600286E756C6C2070D0
:1004B3006F696E74657229003031323334353637E3
:1004C3003839616263646566003F3F3F0000008026
:1004D3007F0000803F00000000F9021550B743BAC7
:1004E300510000204100E7DB2E0000A0401201353F
:1004F300F8FE02120135D3FF02120135A9D8041206
:100503000135BCD804120135DDD80412013548D9B0
:100513000412013589D904120135AAD9041201350F
:10052300EBD90412013583DA04120135CBDA041254
:10053300013590C804120135A3C804120135D4C88B
:10054300041201350EC90412013567C904120135BD
:10055300AEC904120135F6C90412013525CA0412C5
:10056300013554CA041201358BCA04120135D2CAAB
:1005730004120135EBCA0412013540CB04120135D4
:100583006ECB04120135A8CB041201350975001294
:1005930001350C76001201353976001201358A7661
:1005A30000120135AD7600120135BF760012013518
:1005B300C2760012013500770012013574770012FC
:1005C3000135E07700120135A87800120135C478AF
:1005D30000120135FB78001201353579001201351F
:1005E300CC79001201351E7A001201354F7A0012C0
:1005F3000135807A001201358D7A00120135F77AC0
:1006030000120135FA7A00120135077B0012013519
:100613000A7B00120135617B00120135647B0012F5
:1006230001359D7B00120135A07B00120135D47B7F
:1006330000120135D77B001201352B7C00120135E6
:10064300747C00120135847C00120135B77C0012E2
:100653000135C47C00120135C77C001201352F7DA2
:1006630000120135317E00120135D57E00120135AD
:100673003E7F001201357C7F0012013568B40312FE
:10068300013565B503120135FBB50312013546B6D5
:1006930003120135AAB60312013534B7031201352B
:1006A300EDB7031201350FBB031201358CBC0312E6
:1006B3000135AFBC031201353AFD031201355AFD72
:1006C300031201357BFE03120135CEFE0312013501
:1006D3004BB90412013573B904120135A0B90412E0
:1006E3000135D8B90412013536BA0412013582BA7C
:1006F30004120135E9BA0412013529BB041201358C
:1007030066BB0412013594BB041201353EBC0412CE
:10071300013548BC0412013555BC0412013588BCAF
:100723000412013594BC04120135ACBC041201352A
:10073300B6BC04120135DDEF04120135EBEF0412F0
:10074300013503F0041201351AF004120135279222
:1007530002120135D19202120135E49302120135DE
:100763006094021201357E9502120135BA95021288
:100773000135559602120135399702120135FC975E
:1007830002120135749802120135029A02120135E0
:10079300739A021201352D9B021201351F9C02121E
:1007A30001355F9C02120135139D02120135459DEF
:1007B300021201353B9F02120135829F021201355D
:1007C300A09F0212013506A002120135D5A0021224
:1007D300013599A102120135B8A302120135C2A352
:1007E300021201350AF802120135F4F8021201353A
:1007F3009FF902120135F0F902120135A0FA021233
:10080300013511FB02120135F6FB021201352AFCF8
:100813000212013523FD0212013560FD021201357A
:100823003CFE021201357BFE0212013597FE0212D5
:100833000135F3DC0412013577DD04120135A2DD45
:1008430004120135BCDE0412013544BD0412013526
:100853005ABD0412013578BD0412013589BE041254
:10086300013593BE04120135BEBF04120135B5C074
:100873000412013522C1041201352CC104120135C1
:1008830007F7031201353DF803120135B7F80312D8
:100893000135E7F803120135FAF80312013551F96E
:1008A3000312013566FB03120135B7D60112013578
:1008B30068D70112013584D7011201354DD80112D1
:1008C300013567D80112013572D80112013548D9B3
:1008D3000112013525DA01120135B5DA01120135AC
:1008E3006CDB011201357ADE0112013569E0011278
:1008F30001351BE101120135E4E10112013529E55E
:1009030001120135D3E501120135FCE6011201356F
:10091300B8E80112013558E901120135A6E90112BF
:100923000135E5E901120135B8EA01120135ECEAB6
:100933000112013579EB011201356FEC011201351A
:10094300FBEC011201355FEE011201356BEE011272
:100953000135A6EE0112013515EF011201351EF026
:100963000112013527F101120135EEF101120135B2
:100973004BF30112013569F30112013586F30112BC
:10098300013551F40112013579F40112013543F7B0
:100993000112013548F70112013561F901120135E0
:1009A300AFF9011201351FFA011201355DFA011287
:1009B300013539FB01120135F9FB0112013545FC03
:1009C3000112013548FC011201358CFC011201357D
:1009D300D4FC0112013513FD0112013535FD01125D
:1009E300013569FD01120135CCFD011201350F906E
:1009F30004120135189004120135269004120135B2
:100A0300799004120135989004120135DD90041297
:100A13000135219204120135BC9204120135009371
:100A2300041201352A9304120135999304120135F6
:100A3300DF9304120135569404120135079504120D
:100A4300013568380012013578380012013519393B
:100A530000120135753900120135323A00120135A1
:100A63004E3B00120135803B00120135AF3B0012B3
:100A730001355C3D00120135D33F0012013543427D
:100A8300001201353543001201352E4400120135A1
:100A9300354600120135294900120135584A001222
:100AA30001355C4C001201356C4D00120135FB4ED3
:100AB30000120135EC4F001201353A500012013596
:100AC300A95000120135CD50001201351E510012FC
:100AD3000135BF5500120135C056001201352157AB
:100AE300001201354C57001201351258001201351E
:100AF30019950412013523950412013568950412E2
:100B030001357C95041201350C9604120135459686
:100B130004120135809604120135A9960412013599
:100B2300F796041201350C9704120135219704122C
:100B330001353697041201357997041201358E97E2
:100B430004120135A29704120135B6970412013538
:100B5300CB97041201350598041201352998041224
:100B630001355598041201358C9804120135EE981D
:100B730004120135609904120135A3990412013559
:100B8300CD9904120135F89904120135C4EB04120E
:100B93000135C7DF02120135AAE00212013525E152
:100BA3000212013560E102120135B1E20212013590
:100BB3003AE30212013552E502120135E4E702126B
:100BC300013596E802120135A2E90212013515EB4F
:100BD300021201356EEB02120135EC8A0412013563
:100BE3002F8B04120135B38B04120135868C04124A
:100BF30001355D8F041201350BD604120135B8D6C9
:100C030004120135C5D70412013504D80412013585
:100C13005ED804120135EBDE041201354EDF0412F7
:100C23000135EBDF0412013520E00412013550E0F9
:100C33000412013571E004120135ACE004120135F0
:100C4300CCE004120135F39E041201357F9F041298
:100C530001353EA00412013556A10412013570A3DB
:100C6300041201350080031201352580031201357A
:100C7300F28003120135C681031201353382031258
:100C83000135898203120135258303120135598405
:100C9300031201353485031201359385031201359F
:100CA3001F86031201358D8603120135198703123E
:100CB30001351C8703120135668703120135D88776
:100CC300031201356A88031201350B8903120135BA
:100CD3002B8903120135738903120135BC89031271
:100CE3000135D88903120135FE8903120135788A4B
:100CF30003120135868A03120135158B0312013560
:100D03007E8B0312013559A804120135DEA80412A3
:100D1300013520A90412013504AA0412013571AA70
:100D230004120135B5AA04120135F9AA04120135DA
:100D330026AB041201354EAB0412013586AB041207
:100D43000135C4AB04120135EBAB0412013565ACBC
:100D530004120135AFAC04120135D58901120135F6
:100D6300CE8B01120135BB8E011201350F8F01129B
:100D730001353A8F011201351390011201354E905E
:100D8300011201357E900112013591900112013556
:100D9300D29001120135FF90011201354D910112DC
:100DA3000135829101120135B89101120135179273
:100DB300011201359C92011201353B950112013557
:100DC3002397011201355F9701120135DD98011256
:100DD3000135229901120135239A011201350D9C27
:100DE30001120135909C01120135679D01120135F5
:100DF300BF9D01120135A19F0112013570A101129E
:100E0300013575A10112013543A201120135DAA2A0
:100E13000112013528A40112013539A4011201354B
:100E2300C9AA0312013542AB03120135FCB0031208
:100E3300013507B203120135B0B3031201353EB4D5
:100E4300031201357E5800120135FF580012013597
:100E53002C5900120135775900120135785A0012C6
:100E63000135BD5A00120135E95A00120135655C9E
:100E730000120135E75C00120135365D00120135C1
:100E8300A15D00120135555E00120135F25E0012BC
:100E930001356D5F00120135F75F001201354A60BD
:100EA3000012013592610012013511630012013500
:100EB300DC6300120135E963001201353964001265
:100EC30001354964001201356D6400120135706407
:100ED300001201355965001201353B6600120135D8
:100EE300DD66001201357867001201359F67001235
:100EF3000135FC6700120135536800120135A16802
:100F030000120135EF6800120135586900120135EE
:100F1300F86900120135946A00120135216B001241
:100F23000135966B00120135E66B00120135456CF5
:100F3300001201356C6C00120135266D001201356B
:100F4300176F00120135606F00120135926F0012A6
:100F53000135097000120135937100120135477292
:100F6300001201357772001201358C7200120135BF
:100F7300FC72001201353D730012013552740012E8
:100F83000135D3740012013509A10312013554A1AF
:100F93000312013560A10312013534A20312013596
:100FA3004BA20312013588A203120135B9A2031221
:100FB3000135F1A20312013547A3031201355DA3E5
:100FC3000312013599A303120135ACA303120135B2
:100FD300D3A30312013507A4031201352DA5031270
:100FE300013577A60312013573A70312013590A8C3
:100FF300031201355D3800120135BF850412013536
:101003006D8904120135A18A0412013517EC02120D
:101013000135DAEE02120135E0EE021201359DF1DF
:1010230002120135F7F302120135A7A304120135A9
:101033003EA404120135FCA40412013526A50412B2
:1010430001355CA70412013596BE01120135D1BEEC
:101053000112013516CB0112013582CC0112013583
:101063007FCD0112013504D101120135EED10112F8
:1010730001353AD20112013554D20112013591D210
:10108300011201359CD201120135A5D2011201359D
:1010930055D30112013525D4011201356CD4011247
:1010A3000135D2D40112013544D501120135008036
:1010B300021201354883021201354E8302120135B3
:1010C300A18A02120135AE8E0212013536C1041215
:1010D3000135CCC104120135E2C1041201353BC212
:1010E300041201357FC204120135B9C2041201355D
:1010F30051C304120135C0C304120135C9C304121C
:101103000135D5C304120135EFC30412013519C4E7
:10111300041201352EC40412013590C404120135A2
:10112300B7C404120135B9F003120135C6F0031236
:101133000135E0F00312013513F10312013551F1CA
:1011430003120135B6F103120135CBF10312013558
:10115300D6F103120135E3F103120135FAF103125B
:10116300013508F20312013517F2031201352CF28F
:101173000312013541F2031201354CF2031201351A
:1011830058F20312013565F20312013574F20312AA
:1011930001357FF203120135A4F20312013548F33E
:1011A3000312013558F3031201356DF303120135B0
:1011B30082F3031201359CF303120135B9F30312D1
:1011C3000135D6F303120135E1F3031201358DF432
:1011D300031201356EF50312013593F50312013540
:1011E3009EF503120135B3F503120135C7F503125A
:1011F300013528F6031201352EF60312013534F6B4
:10120300031201353AF60312013552F60312013582
:1012130085F603120135B19603120135D3960312F5
:1012230001359B9703120135559A031201356B9BC8
:10123300031201358C9C03120135669D031201359F
:10124300159E0312013544D202120135DBD202127C
:10125300013573D30212013563D4021201359AD4D6
:1012630002120135ADD4021201351BD5021201352C
:10127300B6D602120135DDD6021201357FD702122E
:101283000135B4D702120135C5D7021201353ED854
:10129300021201355FD80212013577D802120135E7
:1012A300CFD902120135D8DB0212013528DE021232
:1012B30001352BDF021201357ADF02120135A8C393
:1012C30002120135A5C40212013590C5021201357F
:1012D3009AC502120135A4C502120135C6C5021210
:1012E3000135D2C50212013524C70212013553C795
:1012F3000212013583C802120135C5C80212013535
:10130300F1C902120135C7CA0212013519CB021203
:10131300013578CB02120135AFCB02120135EACB8E
:101323000212013585CF021201359ECF021201351B
:1013330020D0021201352ED00212013583D00212C1
:10134300013591D002120135FED00212013570D160
:1013530002120135B6D102120135A18B03120135F8
:10136300C38B03120135AD8D031201355291031264
:1013730001359592031201356F930312013592E4FF
:1013830004120135B7E40412013528E504120135CE
:101393008CE80312013595E8031201359EE8031228
:1013A3000135CFE903120135EEEB0312013524ECCD
:1013B300031201355EEC0312013594EC031201357F
:1013C300CEEC0312013502ED031201352EED0312AB
:1013D300013577ED03120135B1ED03120135F9ED56
:1013E300031201354FEE0312013584EE031201356A
:1013F300DFEE0312013519EF031201356AEF031211
:101403000135A0EF03120135DAEF0312013508F0BD
:10141300031201352BF00312013520F204120135BA
:101423004CF204120135A7F204120135B1F2041291
:101433000135C1F2041201350080041201354480E4
:1014430004120135C880041201350F8104120135DD
:101453009D8104120135D4810412013539820412AD
:101463000135968204120135C28304120135C58306
:1014730004120135BE84041201350A8504120135B4
:10148300498504120135858504120135C6D204123B
:101493000135EDD204120135BDF5041201355CA40A
:1014A30001120135E2A6011201358FA8011201359F
:1014B300F0A8011201359AA9011201350AAA0112F5
:1014C300013598AA011201351FAB0112013548AB52
:1014D300011201359AAF0112013512B00112013523
:1014E30014B1011201354EB10112013591B101124E
:1014F300013575B301120135A8B30112013502B4E8
:10150300011201354FB4011201359CB401120135AA
:10151300F9B4011201356CB501120135A1B50112FF
:101523000135D6B501120135F7B5011201351EB7E4
:101533000112013537B7011201356CB801120135BB
:1015430099B801120135DDB80112013522B9011232
:1015530001353FB90112013575B9011201354CBB93
:101563000112013576BB01120135EBBB01120135C6
:101573006BBC01120135E9BC011201352CBD01120E
:10158300013567BE01120135B9E2041201351BE3CF
:1015930004120135DDE304120135FEE304120135C3
:1015A30054E404120135AAF004120135BBF004120D
:1015B30001355EF104120135A27F00120135DF7F90
:1015C30000120135E8FF01120135E8EE041201357E
:1015D300F8EE0412013518EF04120135CCEF0412B2
:1015E3000135E3ED0412013567EE04120135CFEE48
:1015F30004120135AFEA04120135D2EA04120135AF
:1016030029EB0412013534EB0412013581EB04128A
:101613000135B3EB04120135B6EB04120135EFAC1F
:101623000412013514AD0412013536AD041201352F
:1016330058AD041201357EAD04120135B6AD041266
:101643000135E3AD04120135AAAE0412013556AFDC
:101653000412013584AF04120135C5B004120135FB
:1016630044B1041201355EB104120135D9B104123B
:101673000135B5B2041201356EB404120135CDB48F
:101683000412013533B504120135F87F0012013518
:10169300DAE00412013555E204120135B6E2041210
:1016A30001356CCF04120135FCCF041201357AD019
:1016B3000412013508D1041201359CD104120135FD
:1016C30003D20412013545D20412013548D2041263
:1016D300013556D20412013568D2041201357ED287
:1016E3000412013594D204120135A2D20412013539
:1016F300B8D2041201357FE904120135EBE9041273
:101703000135FBE9041201350BEA041201351BEA2A
:101713000412013537EA04120135E6E704120135F4
:101723000FE80412013538E804120135DAE804122F
:101733000135F6E80412013538E90412013554E0A5
:101743000312013562E003120135A4E003120135EF
:10175300EFE00312013529E10312013583E103129E
:101763000135A4E10312013534E40312013542E4E7
:101773000312013595E403120135C7E40312013561
:10178300D6E4031201354BE503120135D5E5031207
:1017930001351DE60312013554E603120135C9E68E
:1017A300031201350BE70312013553E70312013529
:1017B30065E70312013596E7031201359FE703122C
:1017C30001355EE80312013548E6041201359EE651
:1017D300041201352CE70412013594E70412013594
:1017E30010CC041201353ACC041201352ECD04126B
:1017F300013553CD04120135F2CD041201357CCEEF
:1018030004120135D8EC041201358BED04120135B5
:10181300F6DA041201352CDB0412013562DB041203
:101823000135B5DC04120135CBF204120135E1F2C6
:1018330004120135F1F20412013547F304120135A4
:101843000BF4041201359EF40412013508C7031288
:101853000135CFC7031201350AC8031201353AC84F
:101863000312013598C803120135ECC80312013580
:101873005CC903120135F0C903120135B3CA03125F
:10188300013529CB031201356DCC03120135F0CCA0
:101893000312013557CD03120135C6CD03120135AD
:1018A300DDCD03120135F3CE031201353DCF031213
:1018B3000135209A04120135359A04120135F09A44
:1018C30004120135349B04120135519B0412013576
:1018D300859B04120135D29B04120135069C041228
:1018E3000135449C04120135719E04120135E29EB8
:1018F3000412013532B4021201354FB80212013518
:10190300DDB90212013503BA021201352CBA0212F3
:101913000135AFBA0212013539BC021201353BBDA4
:10192300021201353EBD021201357BC1021201359F
:10193300B3C102120135F5C102120135F9C2021217
:10194300013550B50412013580B50412013515B6C1
:101953000412013526B6041201353CB604120135D2
:1019630099B604120135B9B804120135C9B8041285
:101973000135E4B804120135FBB80412013502B98C
:101983000412013505B9041201359DCF0312013547
:10199300FCCF0312013579D003120135F8D00312BD
:1019A3000135FDD00312013573D5031201350DD670
:1019B300031201359AD603120135EFD6031201350E
:1019C30007D70312013593D703120135BDD703128D
:1019D3000135D2BD03120135E2BD03120135F2BD5B
:1019E3000312013503BE0312013504BF031201358F
:1019F30025BF03120135A3C203120135D4C203125A
:101A03000135E3C20312013562C30312013565C315
:101A13000312013540C40312013594C40312013586
:101A230097C403120135F0C4031201357FC60312B4
:101A33000135B2C603120135E5C603120135FBC6F3
:101A43000312013582F6041201356EF104120135D9
:101A530081F104120135BAF104120135A4FE011219
:101A63000135B4FE0112013530FF01120135ABFF20
:101A73000112013506D80312013504DA03120135C8
:101A830067DC0312013598DC03120135A7DC03126E
:101A93000135C6DC03120135D6DD0312013537DF0C
:101AA300031201358EDF03120135E1DF0312013525
:101AB300E5C404120135A2C504120135D0C60412CF
:101AC3000135CCA302120135DFA8021201353CF621
:101AD30004120135F0F60412013575F304120135D1
:101AE3009FF304120135B9F6041201351CF70412F1
:101AF3000135DBFF03E066701008A3E066700A0897
:101B0300A3E066700408A3E06622C008C3E096F56C
:101B13000808A3E096420808A3E096420808A3E059
:101B2300964208A2D265D033E5087001D3D00822CB
:101B3300C3E7960809E7960809E7960809E7962296
:101B4300C3E09608A3E09608A3E09608A3E09622D4
:101B5300C008C3E096F50808A3E096420808A3E08E
:101B630096420808A3E09645087001D3D0082208DE
:101B73000808E630E71112242C121B8A080808C64D
:101B83004480C618181822181818E9799EC608CA7E
:101B9300C608CBC608CCC6C370207996CACBCC7016
:101BA30019798ECBCC70137986CC700EF9802ACA42
:101BB30033CACB33CBCC33CC331930E7F2CCCBCADB
:101BC3003350147004EA30E00DE4CA3ACACB3BCB7D
:101BD300CC3CCC500209C3E913C6CC182313C6CBA3
:101BE30018C6CA18C6F922121C2A20F01430E72B93
:101BF30074FFFCFBFA747F8022E4FCFBFA748080A0
:101C03001AB48008BC00F2BB00EF800F50EBF9E47C
:101C1300C39AFAE49BFBE49CFCE499C6CC18C6CBBC
:101C230018C6CA18C6F922E4C9C608CAC608CBC66C
:101C3300D3330308CCC63392F0C3947F402E941859
:101C43004019C9B90704CACBCC225025C309CA33EA
:101C5300CACB33CBCC33CC33D9F422F4600DC9CC0B
:101C6300C313CB13CBCA13CAD9F6CC22E4FCFBFAB9
:101C73002214FCFBFA22E62618461846184622E7E9
:101C83002719471947194722181818E608460870F4
:101C930009E626087005E633F4220822191919E724
:101CA3000947097009E727097005E733F422092278
:101CB300E6084608C3134608336002E633F422E716
:101CC300094709C3134709336002E733F422121C9F
:101CD300B36025121CC26020121C797003021C829F
:101CE300080808E76670101819E766700A1819E7FC
:101CF3006670041819E76622F422121CB3601C12E2
:101D03001CC26017121C797007121C827001D32247
:101D1300C0D0121C827006D0D0B322C32233D0D0DD
:101D2300501430E0F6C3E7960809E7960809E796EA
:101D33000809E796B32220E0D5E6970809E6970855
:101D430009E6970809E697B322121CB3601B121C1D
:101D5300C26016121C797007121C82600CB322C079
:101D6300D0121C827005D0D022C32233D0D050139E
:101D730030E0EBC3E7960809E7960809E7960809F8
:101D8300E7962220E0E4E6970809E6970809E69734
:101D93000809E6972200121CB3604F121CC260129E
:101DA300E7548066F6121C8B7011121C82703B097B
:101DB3000909F4F618F618F618F622121C9F701586
:101DC300121C7908080860EAE6447FF61876801842
:101DD300E4F618F622121C796016121C827012E4C3
:101DE300F608F608F608E65480F6090909181818E3
:101DF30022EAC0E0EBC0E0ECC0E0EDC0E0E687F033
:101E0300A4FBACF008E687F0A42CFCE435F0FA1848
:101E130009E687F0A42C4B60027401CA35F0FCE498
:101E230033FB09E687F0D2F7A42CCB35F0FC190875
:101E3300E687F0A42BCC35F0FBE433FD0819E687E5
:101E4300F0D2E7A42C4ACB35F0CD3400FC09E68769
:101E5300F0D2E7A42DCC35F0FDE433FA0918E68778
:101E6300F0D2F7A42CCD35F0CA3400FC08E687F095
:101E7300D2E7D2F7A42ACC35F07A7E20E70B0ACB3F
:101E830033CBCD33CDCC33CC33CB3350147004EDC3
:101E930030E00ED2F1E4CD3DCDCC3CCC3B5005DA65
:101EA30005C2F1EB547FC63308E63392F0FBE73308
:101EB30009E733C39A502D2B70190C0D4C4D701537
:101EC3001806E608C333700D20F10AA2F013F6E4F6
:101ED30018800B4024E4F630F002768018F618F6EA
:101EE30018F68024D33B14501074FFA2F013F61895
:101EF3007680E418F618F6800FA2F013F618E6338E
:101F030003F618ECF618EDF6D0E0FDD0E0FCD0E0D7
:101F1300FBD0E0FA22121CC26046121CB3603DE9FA
:101F2300687008F618F618F618F622748067F71228
:101F33001F4C090909748067F722121CB3601D1234
:101F43001CC27005191919801A121C8B701F121CE0
:101F53009FC37003E667331919194007181818222D
:101F630008080874FFF618F618F618F622121C9FD4
:101F73006017121C82702192F0121C79701950178D
:101F830020F014080808090909E7F61819E7F618F4
:101F930019E7F61819E7F622121C7960E6E869706A
:101FA3001F0808E62480F608E436F618547FB47F49
:101FB3000CE654806007F6E418F618F62218182287
:101FC300E9C6CC08C6CD08C6CE08C6CFC0E0E8C077
:101FD300E0EAC0E0EBC0E009E9F809E7FA09E7FB4A
:101FE300E6F918E6F8C3EC98ED99EE9AEBC2E7F53B
:101FF300F0EFC2E795F0500E600CEBCFFBEACEFAA0
:10200300E9CDF9E8CCF8EAA2E7D2E7FAEB33FB1320
:10201300F5F0EEA2E7D2E7FEEF33FFC5F013A2E738
:1020230030E601B313C5F0C3C0E0C0F07F00C39B2B
:10203300FB605E9418600F401D14601AD0E023F912
:10204300D0E0F802211E8AF0E9486003D2F0E4AF41
:10205300F0FAF9F8803BEB30E40D89F0EA6003D243
:10206300F0E4AFF0F9CAF8EB30E30D88F0EF60026B
:10207300D2F0AFF0E4CAC9F8EB54076014FBC3EA2B
:1020830013FAE913F9E813F8EF135002D2E0FFDB78
:10209300EDD0E0C0E030E739C3E49FFFF5F0EC9802
:1020A300FC42F0ED99FD42F0EE9AFE42F0D0E0F9E9
:1020B300D0E0F8E5F0607AE923F9EE20E742D802B0
:1020C3008067C3EF33FFEC33FCED33FDEE33FE806B
:1020D300EAEC28FCED39FDEE3AFED0E023F9D0E03E
:1020E300F84002801BC3EE13FEED13FDEC13FCEF6F
:1020F300135002D2E0FF08B800067F7F74FF802EE2
:10210300EF3350178CF020F00260100CBC000C0D64
:10211300BD00080EBE000408E860DFE933E813FFE2
:10212300EE2313FE4F4D4C8008E95480FFE4FEFD7F
:10213300FCEE33EF33F47004FCFD7E80D0E0FBD083
:10214300E0FAD0E0F8D0E0CFC618CEC618CDC61856
:10215300CCC6F922121CB3700418181822121CC220
:10216300700D74FFF61819F61819F61819F622E708
:10217300548066F6121C79700F121C8270F014F6EC
:1021830008F608F608F680D1121C82700CF608F6E1
:1021930008768008E6447F80EC121CA2700C121CA7
:1021A3008E60BFE65480F6E480BB121C8E70051966
:1021B300191980A5E869700C763F18768018F6180F
:1021C300F6E8F922E6CDC0E018ECC0E0E633CD3303
:1021D300CDD313F6E719FCE7191933CC33C3947F36
:1021E300400ECD9D502408E65480F6E418F6800F87
:1021F300F4043D14501408E6447FF6187680E4187E
:10220300F618F6D0E0FCD0E0FD22CCD313CCFD18B9
:10221300E4C6CBC0E018E4C6CAC0E00808ED08C6AF
:1022230033E613F618E433C675F003C3CA97CA0935
:10223300CB97CB199C40047D08802EBD000302235D
:102243000016B6FF050606081618C3CA33CACB33F1
:10225300CB33CA27CA09CB37CB193CC37D08803E91
:10226300187D0820E75CC633C6CA33CACB33CB33E9
:10227300DDF1D5F0EB30E77BCA97CA09CB974ACBA0
:10228300199C406F4B7025E620E0218066187D087D
:10229300C3CA97CA09CB97CB199CD3C633C6CA33D3
:1022A300CACB33CB3350C9DDE7D5F0E1D3E4C6362F
:1022B300C608C636C608C636C608C636C6181818AF
:1022C3008031C3CA97CA09CB97CB199CB34097C631
:1022D30033C6CA33CACB33CB33DD34D5F02EC6A2D3
:1022E300E0C640C8CA27CA09CB37194A70BECB3CDF
:1022F300B480B90808E63308E633601F181818D00D
:10230300E0FAD0E0FBD0E0FCD0E0FD22187D08CA63
:1023130027CA09CB37CB193CD3808013F618E4B610
:102323007F11F618B6FF0EF618C60470D2080876A9
:102333008080CAF618F618F680C5080808EAC0E0D7
:10234300EBC0E086F0E7A4FA180986F0E7A42AFABE
:10235300180986F0E7A42AFA180986F0E7A42AFAEE
:102363001986F0E7A4FBE5F02AFA190886F0E7A43A
:102373002BFBE5F03AFA190886F0E7A42BFBE5F00E
:102383003AFA18180986F0E7A4C5F02BFBE43AFAE9
:102393001908E7C5F0C6A426F6E5F03BFBE43AFAD4
:1023A3001886F0E7A4F6E5F00826F6E43B08F6E421
:1023B3003A08F6D0E0FBD0E0FA22E4CFC0E0E4CE66
:1023C300C0E0E4CDC0E0E4CCC0E075F020E626F642
:1023D30008E633F608E633F608E633F6181818EC81
:1023E30033FCED33FDEE33FEEF33FFC3EC9709ED22
:1023F3009709EE9709EF97191919400FFFEC97FC0E
:1024030009ED97FD09EE97FE191906D5F0BFECF714
:1024130009EDF709EEF709EFF7191919D0E0FCD028
:10242300E0FDD0E0FED0E0FF22181818E4C396F6D2
:1024330008E496F608E496F608E496F62260160891
:102443000808C6C313C618C613C618C613C618C6CB
:1024530013C6D5E0EA227009080808226016181886
:1024630018C6C333C608C633C608C633C608C63340
:10247300C6D5E0EA22E627F60809E637F60809E6B4
:1024830037F60809E637F622E026F608A3E036F623
:1024930008A3E036F608A3E036F622E026F008A308
:1024A300E036F008A3E036F008A3E036F022C3E6F6
:1024B30097F60809E697F60809E697F60809E697F6
:1024C300F622C3E096F008A3E096F008A3E096F0A6
:1024D30008A3E096F022E056F608A3E056F608A318
:1024E300E056F608A3E056F622E056F008A3E056BD
:1024F300F008A3E056F008A3E056F022E0F608A3A4
:10250300E0F608A3E0F608A3E0F622E6F008A3E667
:10251300F008A3E6F008A3E6F022E0FAA3E0FBA3A9
:10252300E0FCA3E0FD22E0F8A3E0F9A3E0FAA3E0D6
:10253300FB22E8F0A3E9F0A3EAF0A3EBF022CAC080
:10254300E0E6F0A308DAFAD0E0FA22CAC0E0E0A39A
:10255300C582CCC582C583CDC583F0A3C582CCC556
:1025630082C583CDC583DAE6D0E0CA22C3E498F8F6
:10257300E499F91225B08026C3E49AFAE49BFBE9B7
:1025830020E7E91225B0E498F8E499F922C3E49826
:10259300F8E499F91225B0E498F8E499F9C3E49AB8
:1025A300FAE49BFB22EB20E7CFE920E7E0B9001038
:1025B300BB0008E88AF084F8AAF022E4FBC8FA22F8
:1025C300EB70227B10C833C8C933C9335007C39A91
:1025D300C3DBF280069A50012ADBEAC833F4C8C988
:1025E30033F4C9FA2275F008E4C833C8C933C933D0
:1025F300C99AC99B5004C92AC93BD5F0ECFBC8331F
:10260300F4C8E4C9FA22600D08C6A2E713C618C6C7
:1026130013C6D5E0F322600C08C6C313C618C6134D
:10262300C6D5E0F422700422600D18C6C333C60871
:10263300C633C6D5E0F41822251810AF08F51840A4
:102643000C15198008F51840021519D2AF2200C0E5
:10265300D0251810AF08F518500C05198008F51887
:1026630050020519D2AFD0D0222518F58210AF0839
:10267300F518400C15198008F51840021519D2AF4A
:10268300851983222518F582E43519F58322251847
:10269300F8E43519F9222518FAE43519FB2225182F
:1026A300FCE43519FD22E4732518C582C0E0E51961
:1026B30034FFC583C0E0E518C3958224F810AF0842
:1026C3008583198582188008858319858218D2AF7E
:1026D300CEF0A3E520F0A37808E608F0A3DEFAEF36
:1026E300F0A3E58124FAF8E608F0A3E608F0A3E6F0
:1026F30008F0A30808E608F0A3E608F0A31581157F
:1027030081D0E0FED0E0F8158115811581E8C0E0A5
:10271300EEC0E0222518C582C0E0E51934FFC58369
:10272300C0E0E518C3958224F910AF0885831985A5
:1027330082188008858319858218D2AFCEF0A3E56D
:1027430020F0A37808E608F0A3DEFAEFF0A3E58112
:1027530024FBF8E608F0A3E608F0A30808E608F06F
:10276300A3E608F0A315811581D0E0FED0E0F815AB
:10277300811581E8C0E0EEC0E022851983851882C7
:10278300E0A3FEE0A3F5207808E0A3F608DFFAE073
:10279300A3FFE0A3C0E0E0A3C0E0E0A3C0E0E0A3A8
:1027A300C0E0E0A3C0E010AF0885821885831980DC
:1027B30008858218858319D2AFD083D08202013273
:1027C300851983851882E0A3FEE0A3F5207808E04D
:1027D300A3F608DFFAE0A3FFE0A3C0E0E0A3C0E0B4
:1027E300E0A3C0E0E0A3C0E010AF088582188583B2
:1027F300198008858218858319D2AFD083D08222AD
:10280300C0D02518C582C0E0E51934FFC583C0E0F8
:10281300E518C3958224F310AF08858319858218C0
:102823008008858319858218D2AFC8F0A3E9F0A385
:10283300EAF0A3EBF0A37908E709F0A3D8FAECF0E8
:10284300A3EDF0A3EEF0A3EFF0A3D0E0F0A3D0E06C
:10285300F0A3D0E0F0A3E520F0A3E5F0F0A32285F8
:102863001983851882E0C0E0A3E0F9A3E0FAA3E0AE
:10287300FBA37808E0F608A3DFFAE0FCA3E0FDA3DE
:10288300E0FEA3E0FFA3E0C0E0A3E0C0E0A3E0F527
:10289300D0A3E0F520A3E0A3F5F010AF08858319DA
:1028A3008582188008858319858218D2AFD082D09B
:1028B30083D0E0F8D0E0327404800674028002749E
:1028C30001C0E0F40412266CD0E012254122740406
:1028D300800474028000CCC0E0EDC0E0E518C39C26
:1028E300CCAD1950011D10AF068C188D1980068CC4
:1028F300188D19D2AF12254ED0E0FDD0E0FC22D0C6
:1029030083D082E9C0E0E493A3C386F0C5F095F0D9
:10291300F908E493A386F0C5F095F0700BE493A354
:10292300C3994005E9048002A3E475F002A425825B
:10293300F582E5F03583F583D0E0F9E493A3C0E0B5
:10294300E493C0E022D083D082ECC0E0EDC0E0E4A9
:1029530093A3FCE493A3FDED4C600D122994EC24A6
:10296300FFFCED34FFFD80EFE493A3FCE493A3FDB0
:10297300ED4C600D1229D3EC24FFFCED34FFFD80F8
:10298300EFD0E0FDD0E0FCE493A3C0E0E493C0E02B
:1029930022C0E0C3E49396087401939618400FE4B1
:1029A3009366700808740193661870007019A3A3E6
:1029B300C3E49396087401939618A3A3400DD0E043
:1029C300D0E0D0E0022984A3A3A3A3A3A3D0E02251
:1029D300C0E0C0F088F0E493667008087401936661
:1029E300187000A8F0A3A3700BD0F0D0E0D0E0D013
:0B29F300E0022984A3A3D0F0D0E02272
:102A000074F6122717EAFEEBFF8C088D09EE2434CA
:102A1000F8E43FF9E8FCE9FDEE2435122D1CFAEE4E
:102A20002437122D1CF88508F0A4C885F00A850902
:102A3000F0A4250AF9EA28F8E439F97A257B00128E
:102A400025B0EA8C828D83F0FA131313541FF8EE2D
:102A500028F8E43FF9E8245DF582E439F583E0C025
:102A6000E074075AF8D0E0B800028004C313D8FC21
:102A7000A2E0EE50082434F582E43F801824361298
:102A80002D1CF5F0EA84A8F0EE28F8E43FF9E824DC
:102A900038F582E439F583E0F97F030227C374F740
:102AA000122717EAFEEBFFEE2434122D1CC0E0EED5
:102AB0002435F582E43FF583D0E0F08E828F83A346
:102AC000A3A3A3A3A3A3C082C0838E828F83A3A347
:102AD000A3A3A3E0F8A3E0F9D083D082E0C398F5E4
:102AE00008A3E099F509EE247F122D1C6401703EC5
:102AF000EE2480F582E43FF583C082C0838E828F0E
:102B000083A3A3A3A3A3E0240108A3E03400F9D086
:102B100083D082E0687003A3E06970127C9A7D0A1A
:102B2000120F34EE247FF582E43FF583E4F0AC0825
:102B3000AD09EEFAEFFB122A00E9F912376E7F02B7
:102B40000227C3C082C083851882851983E0F8A359
:102B5000E0F9C3EA9CEB9D5010C3EC98ED99401B43
:102B6000C3EA98EB995014800EC3EA98EB9940079A
:102B7000C3EC98ED994004790180027900D083D0AC
:102B80008222EAC39CFAEB9DFB2274EF1227179076
:102B90000743E064086005E06407702A9061C8E0BC
:102BA0006024900771E0F4601DE0F875F00DA4C892
:102BB000AAF02AF9747328FE740739FF8E828F8376
:102BC000A3A3A3E07003022C98906060E0C0E0EE45
:102BD0002468F582E43FF583D0E0F0750C34750D80
:102BE0000B750800750900E5D914F50AE5D95403F9
:102BF000F50E60127403650E6043E50A600AEE2468
:102C000067122D1C70028075900B2FE06401601F0D
:102C1000122D1960047A0480027A00E50AC39AFA38
:102C200095E0FB120D6C8A088B09EA4509700512C4
:102C300011F88064122D1970048A0C8B0DE50A605E
:102C400012850C82850D83F50BE5D9F0A3150BE5F4
:102C50000B70F6122D19604474FC250AF50A780CE5
:102C60001228BEAC0AA90EEEFAEFFB120FEE7402A8
:102C7000122651E97026AA08AB091217CE793D8EAB
:102C8000828F83A3A3A3A3E0FA7B00120BBCEEFA0E
:102C9000EFFB120F5812104E790080787403650E06
:102CA0006051850A1075110078101228BEAC0CAD69
:102CB0000DAA08AB09120FB27402122651EE246855
:102CC000122D1C64807004747F8001E0F50C780C78
:102CD0001228C2E50EF50C780C1228C2A90AAC081D
:102CE000AD09900771E0FA7B00120B8C740212267A
:102CF00051801C900743E06408AC0CAD0D7009EEE8
:102D0000FAEFFB12101E8007EEFAEFFB1210C01252
:102D1000120479017F0A0227C3EE2483F582E43F7F
:102D2000F583E02274F212271774FC12263BEAFEA8
:102D3000EBFF8909A2AFE433F508C2AF022DEEE044
:102D4000601B780C1228BEAC0BA90EEEFAEFFB123A
:102D50000FE874021226517404250BF50B7401253B
:102D60000BF5D9850ED9E50B6018F50A850C82851F
:102D70000D83E0F5D9A385820C85830D150AE50A3C
:102D800070EA75E195EE2463F8E43FF97A007B0080
:102D9000A2AFE433F50BC2AF88828983E0FCA3E0E5
:102DA000FDEC4D603A88828983E0FAA3E0FB8A82D9
:102DB0008B83E0FCA3E0FD88828983ECF0A3EDF037
:102DC0008A828B83E4F0A3F088828983E0FCA3E00D
:102DD000FDEC4D700A88828983A3A3E4F0A3F0E59B
:102DE0000BA2E092AF1217CE900AA1E004F0EE24FD
:102DF00063122D1CF8A3E0F9E8496064EE24631225
:102E00002D1C2402F8A3E03400F988828983E5822E
:102E10002402F50CE43583F50DE0F50BA3E0F50E87
:102E2000EE2462122D1C640170369061D0E0F8121D
:102E30002D1960047C0480027C007480C398FA958C
:102E4000E0FBE50B2CF8E43400F9E82402F850012B
:102E500009C3EA98EB99A2D265D0334003022D3F13
:102E6000900AA1E0604D900AA2E0F8900AA1E0C3A8
:102E700098500C74026509703A900AA3E060348E91
:102E8000828F83A3A3A3A3E0851882851983122EC2
:102E9000C37402122687E8122EC3900AA0E028F01D
:102EA00074021226A1AA18AB197901120BEC900A30
:102EB000A1E4F0E508A2E092AF74041226517F0766
:102EC0000227C3F0A3E4F0900AA1E0F8220000007A
:102ED0008521878522C622C0E074EB122803A2AFA9
:102EE000E433F508C2AF759B00906182E0A2E05028
:102EF00030E591A2E0502A7591FE740165217021A0
:102F000012306A12110E1230581228D1123518746C
:102F100004122651E9640170057901121156122B31
:102F20008A906182E0A2E5505DE591A2E550577577
:102F300091DF900743E064076005E06408702F129A
:102F4000306A74016521703E12110E123058122839
:102F5000D11235187404122651E964017005790103
:102F60001211567901EEFAEFFB122D248018E0645D
:102F70000D7013900765E004F064287002E4F07AA5
:102F800000E0F912120A906182E0A2E640030230EA
:102F90002DE591A2E6400302302D7591BF900743C5
:102FA000E0640570081210F612110280031210FC82
:102FB000752100121174E9900744F079001211563E
:102FC000120E567A017B00900742E0F912179E908C
:102FD0007803E064427056900B33E014F0704EC2F8
:102FE000AF122FE400782AD0E0F618D0E0F6E59F83
:102FF0005407F87005750DFF8003750D7FC4C0E0A0
:103000007829E6F50A08E6550DF50B740B780A12D7
:103010002619D0E0250AF8906270E0A2E740F8E8AF
:10302000C333906272F0906270E0D2E0F090618100
:10303000E0A2E35009E5E9A2E3500375E9F7A3E054
:10304000A2E75009E591A2E7500375917FE508A238
:10305000E092AF7F080228628E828F83E0F8A3E0BF
:10306000C82416F582E438F58322900771E0F875DC
:10307000F00DA4C8AAF02AF9747328FE740739FF6A
:1030800022C0E0C0D0C082C083906183E0A2E05043
:1030900009E5BFA2E0500375BFFEE0A2E15009E5DB
:1030A000BFA2E1500375BFFDE0A2E25009E5BFA257
:1030B000E2500375BFFBE0A2E35009E5BFA2E35075
:1030C0000375BFF7E0A2E45009E5BFA2E450037521
:1030D000BFEFE0A2E55009E5BFA2E5500375BFDFF1
:1030E000E0A2E65009E5BFA2E6500375BFBFD0835A
:1030F000D082D0D0D0E032C0E074F2122803E5A72D
:10310000A2E6500FE5A1A2E6500953A7BF75A1BFE3
:1031100012314BE5A7A2E5500CE5A1A2E5500653FC
:10312000A7DF75A1DFE5A7A2E15009E5A1A2E15063
:103130000375A1FDE5A7A2E2500CE5A1A2E25006AD
:1031400053A7FB75A1FB7F0102286274F7122717B2
:10315000752101900743E0640670151210728A828F
:103160008B83A3A3A3A3A3A3E0FAA3E0FB1210E421
:10317000A2AFE433FED2AF900749E0640170187A41
:10318000207B00900742E0F91218D67A207B00904D
:103190000742E0F91217A4906182E0D2E6F0900BAA
:1031A00030E0602185C6228016900748E0640170F7
:1031B00008E5C654F84405F5C653BEFC122ED0747B
:1031C00001652160E4EEA2E092AF7F020227C30016
:1031D0008E238F24858228858327851882851983ED
:1031E000E0CEA3E0CF852882852783EBC9EAC8ED2E
:1031F000CBECCA75F010C3E833C8E933C9EA33CA67
:10320000EB33CBC3EA9EF526EB9FF525B35004AB19
:1032100025AA26EC33CCED33CDD5F0DAAE23AF249E
:103220002274E912271774FA12263BEAFEEBFF8C90
:103230000A8D0B12111AEAF8EBF9ECFAEDFB8E820B
:103240008F83122535900743E024F7C39405500679
:103250007514010233881210728A088B09EA450935
:103260007003023385EEFCEFFDAA18AB191211149E
:10327000850882850983A3A3780C1224FF9088E235
:10328000780C1224D985188285198378101224FFAE
:103290009088E278101224D9780C7910121B3350E0
:1032A0001F780C79101224B190892A780C121B53C4
:1032B0004047850C14850D15850E16850F17804522
:1032C00090892A8510148511158512168513177893
:1032D00014790C1224B17814121B53501C7514006D
:1032E000751500751600751701781479101224B140
:1032F0007814790C122478800C75140175150075FA
:1033000016007517007409781412245990896A7888
:103310000C1224FF7814790C1223BD8508828509CC
:1033200083A3A3A3A3A3A31233A61225B0880C8959
:103330000DE4F50EF50F7814790C1224787404124C
:1033400026871233A61225B0E8FA8A0CE4F50D7828
:1033500014790C121B3350077814790C1224B19095
:103360000743E06408600AE064066005E0640570F5
:103370002090891E7814121B53501690891A7814C5
:1033800012248B800C7514007515007516007517C6
:1033900000850A82850B83781412250E7406122686
:1033A000517F100227C3E0F8A3E0F97AD07B032213
:1033B00074F712271712112C900B2EE06401701075
:1033C000906245E4F0A3F053F4F343FE0C5390F302
:1033D0001210D2E5C654B84441F5C6E59E54476480
:1033E0004170F8906185740FF0900B2CE0F470023E
:1033F000A3E0604E900B2DE0600814601B14602E5B
:103400008040750801750900900B2CE078081226A1
:1034100028E508F45280802A750801750900900B90
:103420002CE07808122628E508F4529080147508DC
:1034300001750900900B2CE07808122628E508F4A5
:1034400052A079007F020227C374F7122717E9FE02
:10345000EAFF12112C74016E700C7A807B009007C9
:1034600042E0F912179E903860E493F46008E49308
:10347000F9120E4A800953C6B8E59E544770FA12F5
:1034800010D8900B2EE064017003120E6E900B2C7E
:10349000E0F47002A3E0604B900B2DE06008146034
:1034A0001A14602C803D750801750900900B2CE002
:1034B0007808122628E508428080287508017509D9
:1034C00000900B2CE07808122628E5084290801323
:1034D000750801750900900B2CE07808122628E584
:1034E0000842A01210728A088B09A808A909E849A5
:1034F0006014E5E170FCE82414F582E439F583E01A
:10350000F46003E0F5E174016F700A7A01900742FC
:10351000E0F912183402344474F11227178A088B28
:10352000098C0A8D0B9088E278081224D9740F1246
:103530002687780C1224FF9088E2780C1224D97820
:1035400008790C121B3390892A50107808790C12D4
:1035500024B17808121B534014800E780C7908129D
:1035600024B1780C121B5350047901800279007F3A
:10357000080227C374ED1227178A088B098C0A8D5D
:103580000B9088E278081224D97413122687780CDD
:103590001224FF9088E2780C1224D9780C79081252
:1035A0001B3340117808790C1224B1AA08AB09AC7E
:1035B0000AAD0B802275100075110075120075138D
:1035C000017810790C1224B178107908122478AAA5
:1035D00010AB11AC12AD137F0C0227C39088E278B8
:1035E000081224FF8A828B8378081224EC7F04025D
:1035F00027C374F51227178C828D8378081224FF55
:103600008A828B8378081224C512364AC3E09CF064
:10361000A3E09D12363C40229088C278081224FF15
:103620008A828B83780812249E8A828B83A3A3A329
:10363000A3E02420F0A3E0344EF080A0F08882893B
:1036400083C3E09420A3E0944E22EA2404F8E43BF0
:10365000F98C828D83A3A3A3A3E0FCA3E0FD888261
:1036600089832274F5122717E9FE900ABCE0FAA3B9
:10367000E0FBEE29F8E433F9740F28F582748739FA
:10368000F583E02AF508A3E03BF50978081228BE87
:103690009088D612251D1231D074021226518A0844
:1036A0008B098C0A8D0B74107808122440AA08AB81
:1036B000097F040227C374F11227178A0C8B0D8C23
:1036C0000E8D0F74111226871228D57411122687B9
:1036D000E02401F508A3E03400F509E4F50AF50B50
:1036E000780C790812233D90890A78081224FF7813
:1036F0000C790812233DAA0CAB0DAC0EAD0F1231A4
:10370000D074021226518B09EA450960047A0180BF
:10371000027A00EC2AFCE43DFD7413122687E0F8DF
:10372000A3E0F9E8FEE9FFECF8EDF97A717B02120B
:1037300025B088088909E4F50AF50B8E828F837815
:103740000812250EECF8EDF97A717B021225B08A89
:10375000088B09740578081226288E828F83A3A30C
:10376000A3A3E508F0A3E509F07F080227C3C08200
:10377000C083E9906000F0D083D08222C0E074F270
:10378000122803A2AFE433FED2AFC2C0E5D1A2E457
:10379000500675D10F1216F0751A00EEA2E092AF26
:1037A0007F01022862C0E074F2122803A2AFE43362
:1037B000FED2AFE589A2E1500312160C758900C252
:1037C000C5751A00EEA2E092AF7F01022862C0E048
:1037D000C0D0E8C0E0E9C0E0A2AFE433F8D2AFC2A5
:1037E000C7751A00A2E092AFD0E0F9D0E0F8D0D0CF
:1037F000D0E032C0E0C0D0E8C0E0E9C0E0EAC0E01C
:10380000C082C083A2AFE433FAD2AF9013C2E0F813
:10381000A3E0687008539AFBA374018022C2E99068
:1038200013C2E0F8740128F0744228F582E43413DE
:10383000F583E0F5C19013C2E0C394804002E4F048
:10384000EAA2E092AFD083D082D0E0FAD0E0F9D003
:10385000E0F8D0D0D0E032C2AF0200002202013244
:10386000FFFFFFFFFFFFFFFFC082C083E9901BC681
:10387000F0D083D08202013274F61226ABE99006B2
:10388000B5F0900715E0F508750900740278081284
:103890002628AA08AB0912181C9006B612422B90D3
:1038A00006B6124618606F900715E075F003A4FA8B
:1038B000ABF012181C9006D312422B9006D312467E
:1038C00018700B9006B61245E9121822804890062F
:1038D000D312557D7AFF7BFF1215887A0080198AF2
:1038E000087509007402780812262812502574FF02
:1038F000123A2BE4F0A3F00A900715E0F8EAC39817
:1039000040DD7905120A5A9006B5E0F91209467AA7
:10391000E47B0A120D0C0250C874F41226AB8A081C
:103920008B09EB548060479006B5E0F91217868A40
:103930000A8B0BAE0AAF0BEE4F602A8E828F83E0AC
:1039400064B0701A120A6CE960148E828F83A3A38C
:10395000A3A3E0F9EE2405FAE43FFB120A3CEEFAD9
:10396000EFFB121774AA08E5096480FB80047A0053
:103970007B00023B7B74F21226AB74FB12263BEAFF
:10398000FEEBFFEE4F60457403122687EEF0A3EFC7
:10399000F0851882851983ECF0A3EDF074021226ED
:1039A00087E9F0AA18AB19120940E9F50870757497
:1039B00013122687E0F50AA3E0F50BE50A450B6034
:1039C000638E828F83123FB4EE4F700575080280BC
:1039D000537A067B0012181C8A0C8B0DA80CA90DBB
:1039E000E8497005750813803B88828983E4123AA0
:1039F0002BEEF0A3EF123B47E50AF0A3E50BF090A6
:103A000006B9123B409006B96017E0FCA3E08003C2
:103A1000EAFCEBFD8C828D83123B4070F38C828D2F
:103A200083124C40A90874050257FDF0A312555F9C
:103A3000A32274F21226AB8908890C750D00740359
:103A4000780C122628850C0A850D0B9006B8F0908C
:103A500006B6124A4B123B3E602E121822790080A5
:103A60001D890C750D007402780C1226289006B67C
:103A7000124EE48882F583A3A3E4F0A3F009900733
:103A800015E0F8E9C39840D9900715E0FA850AF0E7
:103A9000A4CAA8F0850BF0A428FB12181C8A0C8B72
:103AA0000DAE0CAF0DEE4F7003023B34900715E0E6
:103AB000FC850AF0A4CCA8F0850BF0A428FD7900C1
:103AC00012175C7C0080318D0C750D007403780C2E
:103AD0001226288A828B83123B3988828983E4F0FC
:103AE000123B46A3A3F0A3F00DEDC3950840D8EE1A
:103AF000250AFEEF350BFF0C900715E0F8ECC39894
:103B000050288C0C750D007402780C122628900633
:103B1000B6123B39E82402500109FAE9FB8A828B8C
:103B200083EEF0A3EFF07D0080BFE5089006B8F0CB
:103B3000790080027913025800124EE8F922A3A3FB
:103B40001245EDEA4B22A312555FA3A3A32274F4FE
:103B50001226AB7900EAA2E0501F75089E7509880D
:103B600078081228BE79107C047D007AC87B1B126D
:103B70000A547402122651E9F980007F0402277D5D
:103B8000C082C0839006B9124618601C888289835F
:103B9000A3A3E06A7003A3E06B8882898370E8A323
:103BA000A3A3A31245E980047A007B000238717454
:103BB000F21226AB74FD12263BEAFEEBFF8518825B
:103BC000851983E4F0A3F074021226877401F012C1
:103BD00046157014120C4012181C9006BC12422B91
:103BE0001246157003023D4112432BEE2404F50AE0
:103BF000E43FF50B850A82F583E024FE603C24FC5B
:103C0000607424FE607E24FE7003023C9124FE70EA
:103C100003023C9E24FE7003023CAB24FE700302B0
:103C20003CB824FE7003023CC524FC7003023CE651
:103C300024FE7003023CFE023D3A120C409006BE88
:103C4000EAF0A3EB123D4D12053EE96003023D3A56
:103C50009006BE1228D58E828F83A3A3A3A3A3129E
:103C6000557D8508828509831245E9120A2474026C
:103C7000122651023D3AAC18AD19EEFAEFFB120ACA
:103C800072023D09AC18AD19EEFAEFFB120A78800A
:103C900078AC18AD19EEFAEFFB120A7E806BAC1807
:103CA000AD19EEFAEFFB120A84805EAC18AD19EE86
:103CB000FAEFFB120A8A8051AC18AD19EEFAEFFB4D
:103CC000120A9080447402122691880C890D780C97
:103CD0001228BE74021226A1EEFAEFFB120A9674A5
:103CE000021226518023AC18AD19EEFAEFFB120A2E
:103CF0009CE9F870167402122687E4F0803CAC1838
:103D0000AD19EEFAEFFB120AA2E9F8E8602C8E82F8
:103D10008F83A3E064146022850A82850B83E09080
:103D200006BEF08518828519831245E99006BF12F8
:103D3000422BE8A3123D4D120538EEFAEFFB1209B3
:103D4000FA7402122687E0F974030257FDF07CBE74
:103D50007D068508828509831245ED2274E81226C6
:103D6000AB74FA12263B7404122687ECF0A3EDF034
:103D70008A128B13EA2405F50EE43513F50FEA24B5
:103D800002F510E43513F511851082F5831245E92B
:103D90001206768A0A8B0B7508007C037D00790079
:103DA0007ABE7B0612175CE50E2402F516E4350F89
:103DB000F5177402122691880C890D780C1228BE12
:103DC000850E82850F83A3A3A3A3E0F50C750D00D8
:103DD000780C1228BEE50E2405F50CE4350FF50D20
:103DE000780C1228BE8516828517831248F01209B6
:103DF0005E74061226518A0C8B0DE50C450D70037E
:103E0000023F7D8020851882851983E0888289831E
:103E1000F00508851882851983A3E0C0E0123FBE33
:103E2000D0E0F00508E50A24FBFAE50B34FFFBC3FC
:103E3000E5089AE49B4003023F7D7E007F008512E7
:103E400082851383A3A3A3A3E0F50978091228C2EE
:103E5000E4F514F51578141228BE7514BB75150613
:103E600078141228BE9006BC1228D5740912268731
:103E70001228D5E50A24F9F9AC0CAD0D8510828520
:103E800011831245E9120ACC7409122651E9600324
:103E9000023F1E850E82850F83A3A3A3A3A3A3A322
:103EA000E0F89006BBE0687075E0F5148E157814A4
:103EB0001228BE12557A850E82850F83A3A3A3A371
:103EC000A3A3A3A31245E91217567402122651E9BF
:103ED000604C9006BF124618703BE4F5147814123B
:103EE00028BE7CFF7DFF79078510828511831245EE
:103EF000E9120A36740212265112461E7017850EF8
:103F000082850F831257177404122687124FD81216
:103F10004921023FB1850C82850D83123FB4A81858
:103F2000A9198814891578141228BE7404122687DA
:103F30001228D585168285178312422112096A74C8
:103F4000041226518A0C8B0DEE4F7003023DFA12BB
:103F50003FBEEE123FC91248D7EF123FC9F8A3E0A7
:103F60003400F9E50C450D6003023E058882898323
:103F700074FFF00508123FBE74FFF00508E5086005
:103F80001A1313543F12423112054AE96009900690
:103F9000BF1245E91217CE79008016850E82850F73
:103FA000831257177404122687124FD8124C407987
:103FB0000A0248AAA3A3A3A3E0FEA3E0FF22A80845
:103FC0009006BFE0281248D722F00508089006BFE7
:103FD000E0282274E81226AB74FA12263B7402120F
:103FE000268712422B7404122687ECF0A3EDF0749E
:103FF00002122687E024051248C0E0F50CA3E0F584
:104000000D7402122687E02402F510A3E03400F5B7
:1040100011851082F5831245E91206767508007540
:104020000900EA24FCFEEB34FFFF8008050CE50CD8
:104030007002050DA808C3EE98EF940050030241EA
:10404000DDA818A919880E890F780E1228BE8514CC
:1040500082851583A3A3A3A31255811228BEE5145C
:104060002405F50EE43515F50F780E1228BE8514DB
:104070008285158312421F12095E74061226518A28
:104080000E8B0FEA450F70030241DDEA2404F5169A
:10409000E4350FF517851682F583E0F50CA3E0F5FE
:1040A0000D85188285198312557D8A828B83A3A37F
:1040B000A3E0F98510828511831245E912094CE9C4
:1040C000F50960030241DD74021226871248E7F504
:1040D0000978091228C2E4F512F51378121228BEE5
:1040E0007512BB75130678121228BE9006BC1228F2
:1040F000D574071226871228D5EEF9AC0EAD0F85C0
:1041000010828511831245E9120ACC7409122651D6
:10411000E9F50960030241DDE508703FE4F50EF5BD
:104120000F780E1228BE7CFF7DFF790985108285ED
:1041300011831245E9120A36740212265112490DF2
:10414000700D7404122687124214791102421190E4
:1041500006BBE024029006BFF080149006BFE0FA90
:104160009006BBE0790024025001096A497072A8E8
:10417000089006BBE0FAE82AFAE43400FBEE9AEF76
:104180009B405A851682851783E0C0E09006C012D6
:104190003FC3D0E0F00508851682851783A3E0C0F1
:1041A000E0089006C0123FC3D0E0F005089006BBBF
:1041B0001255811228BE12557AA8081248B4121757
:1041C0004474021226519006BBE02508F50874FFDE
:1041D000650C700474FF650D600302402CE50860F7
:1041E0001F9006BFE0F5F0E5088412423112055039
:1041F000E960099006C01245E91217CE79008011D6
:10420000E509700375090A7404122687124214A97D
:10421000090248AA124A4FE50CF0A3E50DF022A3CB
:10422000A312580CAA0CAB0D22A3A3EAF0A3EBF047
:10423000229006BEF07CBE7D068510828511831219
:1042400045ED2274EC1226AB74FC12263B124D5045
:1042500074021226A11245E31209648A0C8B0DEA3E
:10426000450D700302431B12432BA818A91988108F
:10427000891178101228BE7CFF7DFF790B8508829A
:104280008509831245E9120A367402122651124436
:1042900021700C850A82850B8312491E0243288EE9
:1042A000828F83A3A3A3A3E0F51278121228C2E49D
:1042B000F512F51378121228BE7512BE7513067822
:1042C000121228BE78101228BE74091226871228EE
:1042D000D57409122687E0F9AC0CAD0D85088285EE
:1042E00009831245E9120ACC7409122651E9FE70BD
:1042F000157CBE7D068508828509831245E9120575
:1043000056E97009802074166E70027E009006BF18
:104310001245E91217CEEE7004800B7E01850A82E9
:10432000850B83124C3DEEF9024C52EE2402F50847
:10433000E43FF5092274EC1226AB74FC12263BEA2A
:10434000FEEBFF8C0E8D0FEE2405F508E43FF5091A
:1043500074021226A18508828509831245E9120993
:10436000648A0C8B0DEA450D7003024411EE2402A1
:10437000F50AE43FF50BA818A919881089117810DF
:104380001228BE7CFF7DFF790D1245E3120A3674B8
:1043900002122651124421700B850882850983126E
:1043A000491E807A8E828F83A3A3A3A3E0F512789F
:1043B000121228C2850882850983A3A31228D57505
:1043C00012BE75130678121228BE78101228BE7419
:1043D000091226871228D57409122687E0F912459A
:1043E000DF120ACC7409122651E9FE700F7CBE7DE3
:1043F000061245E312055CE97009802074166E70A0
:10440000027E009006BF1245E91217CEEE700480BE
:104410000B7E01850882850983124C3DEEF9024C22
:1044200052124628F510A3E0F511EA45112274E86E
:104430001226AB74FE12263B8A168B178C148D1530
:10444000EA2405F50CE43517F50DEA2402F50EE42F
:104450003517F50F850E82F5831245E91206768A27
:10446000088B09750B007C037D0079007ABE7B0602
:1044700012175C750A00E50814F5100424FFF5080E
:10448000E50934FFF50980549006BEE0FA9006BBBA
:10449000E0F8EA28F8E43400F9E50898E5099950CD
:1044A0000D9006BEE0F8E510C3989006BBF0E0F56D
:1044B0001275130078121228BE12557A9006BFE0CA
:1044C0002AFAA3E03400FB1217447402122651901A
:1044D00006BBE0F89006BEE028F0050A850C828550
:1044E0000D83A3A3124EF440030245C49006BEE020
:1044F000C39508E4950940030245C4AE0AEE2EFEBA
:10450000E433FF124603AC18AD19125595E439FB9C
:104510001209648A128B13AC12AD13EC4D701B752B
:104520000B011245F3124C419006BF123B40600351
:104530001217CEA90B74020248AC85168285178328
:10454000A3A3A3A3E0F50B780B1228C2E4F512F5A0
:104550001378121228BE7512BB7513067812122832
:10456000BE9006BC1228D574071226871228D5A93A
:1045700010850E82850F831245E9120ACC74091248
:104580002651E9F50B709B9006BF12461860030296
:104590004488E4F512F51378121228BE7CFF7DFFE3
:1045A000790F850E82850F831245E9120A3674024F
:1045B00012265112461E60030244881245F3124926
:1045C000220245357CBE7D06850E82850F8312450D
:1045D000E9120562E960030245287900024535AC1D
:1045E0000CAD0D850A82850B831245ED22E0FAA3FE
:1045F000E0FB22124603E0FAA3E0F9EA8514828583
:10460000158322850C82850D83E02EF8A3E03FF907
:1046100088828983229006BC12571BE849221246E1
:1046200028F8A3E0F9E849229006BFEAF0A3EBF0EE
:104630009006BFE02274E81226AB74FA12263B748F
:104640000412268712422B8C168D177404122687AB
:10465000E02405F50EA3E03400F50F74041226875C
:10466000E024021248C01245E91206768A0A8B0B32
:104670007F007E00A818A9198808890978081228DF
:10468000BE850E82850F83A3A3A3A3E0F5088E0940
:1046900078081228BEE50E2405F508E4350FF50963
:1046A00078081228BE850E82850F83A3A31248F0D6
:1046B00012095E74061226518A0C8B0D802912484D
:1046C000E1F00F1248E1F00F9006BB124C2C1228BB
:1046D000BE12557AEFF81248B4121744740212262B
:1046E000519006BBE02FFFE50C450D7003024770AB
:1046F000851882851983124D62A3A3A3E0F985145E
:10470000828515831245E912094CE9FEE50C240463
:10471000F510E4350DF511EE705074041226871271
:1047200048E7F50878081228C2E4F508F509780882
:104730001228BE7508BB75090678081228BE9006B7
:10474000BC1228D574071226871228D5E50A24FA48
:10475000F9AC0CAD0D8514828515831245E9120A5A
:10476000CC7409122651E9FE60391248FD124C4002
:10477000EF70030248979006BFE0F5F0EF849006D3
:10478000BEF07CBE7D068514828515831245E91234
:104790000568E960099006C01245E91217CE790054
:1047A0000248AA8F08EF703BE4F512F51378121255
:1047B00028BE7CFF7DFF7911851482851583124503
:1047C000E9120A36740212265112490D7009124874
:1047D000FD1249210248AA9006BBE024049006BFBE
:1047E000F080359006BBE0F89006BFE0FAE82404BC
:1047F000FCE43400FDEC6A4D6003024776E50A24D0
:10480000FAFAE50B34FFFBE50828F8E43400F9EA8E
:1048100098EB995003024776851082851183E0C09A
:10482000E09006C0E02FF8A3E034008882F583D042
:10483000E0F00F851082851183A3E0C0E01248CE1E
:10484000D0E0F00F740212269188088909780812C6
:1048500028BE74021226871228D5850E82850F8302
:1048600012421F12096A74041226518A0C8B0DEA37
:10487000450D70030246BE7402122687E0C0E012A6
:1048800048CED0E0F00F7402122687A3E0C0E012F9
:1048900048CED0E00246C6EE70027E0A850E8285C2
:1048A0000F83124903124C40EEF974061226517F11
:1048B0001002277D9006C0E028FAA3E03400FB2216
:1048C000F514A3E03400F515851482F5832212480F
:1048D000D2229006C0E02FFAA3E034008A82F5834A
:1048E000221248D274FF22124A4FA3A3A3A3E022AC
:1048F00012580C850E82850F831245ED2285108299
:1049000085118312571B851682851783229006C056
:10491000EAF0A3EBF09006C012571BE84922124CB4
:1049200046E8F0A3E9F079112274EA1226AB74FE8E
:1049300012263B8A088B098C128D13EA2405FEE4AB
:104940003509FFAC18AD198E828F831245E9120923
:10495000648A0C8B0DEE2406F50EE43FF50FEA4554
:104960000D7003024A21E5082402F50AE43509F531
:104970000B8A828B83A3A3A3E0A2E550288518822B
:104980008519831245E9120AC08A108B11EA451174
:10499000602079121245DF8510828511831226A9C5
:1049A000E9F50C707F850E82850F83E060097952EE
:1049B0008011750C0E806D850882850983A3A3A3E1
:1049C000A3E0F9E4F508F50978081228BE8E828F75
:1049D00083A3A3E0F50878081228BE8E828F83A3F4
:1049E000A3A31228D58E828F8312557D1245E31220
:1049F0000AD27406122651E9F50C7011850E8285D3
:104A00000F83E0702D1245E312056E802574166544
:104A10000C7011750C007418122687124A4BE48032
:104A200010750C01125713851282851383E8F0A3C9
:104A3000E9F0850E82850F83E0600479008002A989
:104A40000C74021226517F0E02277D124A4F22E07B
:104A5000F8A3E0F58388822274EC1226AB74F71277
:104A6000263B8A0A8B0B8C108D11EA2405FEE43557
:104A70000BFF750C00AC18AD198E828F831245E9BF
:104A80001209648A088B09EA45097003024C17E58C
:104A90000A2402F50A5002050B8A828B83A3A3A382
:104AA000E0A2E5502F8518828519831245E9120A84
:104AB000C08A0C8B0DEA450D604F7912AC08AD0928
:104AC0001245E3850C82850D831226A9E9F50C6059
:104AD00003024C1A850A82850B83E0F508A3E0F5F2
:104AE00009AA08FB120AB4EA4B70197AFF7BFF127D
:104AF0000AB4EA4B7003024C0D8A828B83E508F0FE
:104B0000A3E509F07508008008750C0E024C1A0523
:104B1000089006B8E0F8E508C3984003024C0D85FC
:104B2000080E750F007403780E1226288A828B8374
:104B3000A3A3E0250EF8A3E0350F124FE170D08E4D
:104B4000828F83124C3512422B8E828F83A3A31245
:104B50004C35124229EE2404F508E43FF509850896
:104B600082F583E088828983A3A3A3A3F0A3E4F062
:104B7000EE2405F50EE43FF50F850E82F583124C09
:104B800035A3A3A3A3124229751207751300781247
:104B90001228BEEEFCEFFD7404122699121744741D
:104BA00002122651E4F51278121228BE8508828579
:104BB0000983E0FC7D0079171245E3120A3674027E
:104BC000122651740712268712422B740712268769
:104BD000E0FA4B603D850882850983124C2C12282F
:104BE000BE850E82850F8312557D12174474021202
:104BF000265174021226A11245E3120574E96026BB
:104C000074071226871245E91217CE8019750C0910
:104C10008008750C118003750C01125713851082E2
:104C2000851183124C40A90C74098028E0F50875A1
:104C300009007808221245ED8882898322124C46A9
:104C4000E8F0A3E9F022E0F8A3E0F9850E82850FF1
:104C5000832274041226517F0C02277D74EC1226E5
:104C6000AB124D50751000EE2402F50CE43FF50D2B
:104C7000850C82F5831245E9120AB48A088B09EA89
:104C800045097003024D34850A82850B83E0640177
:104C90006003024D29AC08AD09AA0AAB0B120AA8A1
:104CA000E9606E850882850983123FB6EE2406F519
:104CB0000AE43FF50B8E828F83A3A31228D58E8240
:104CC0008F83A3A3A3A31228D5850A82850B831201
:104CD00028D579188E828F83124D621245E9120A07
:104CE000D27406122651E9F8741668700B850A8290
:104CF000850B83E4F0A38014E860128E828F831208
:104D000045E9850E82850F83EAF0A3EBF0881080D9
:104D100018780E1228BEAC08AD09EEFAEFFB120AA5
:104D2000AE7402122651E9F510AA08AB09120ABAAC
:104D3000E510700E850C82850D831245E912057A07
:104D40008009741665107003751000A910024C5785
:104D5000EAFEEBFF8C0E8D0FEE2405F50AE43FF51D
:104D60000B2212580C850C82850D832274EA1226C0
:104D7000AB7508007509007E007F00750A00EC2401
:104D800002F510E43DF5118035EC65087003ED6522
:104D9000096003024E2188828983A3A3E06A70031D
:104DA000A3E06B707C88828983A3A3A3A312571707
:104DB000EE28FEEF39FFEA28FAEB39FB050A124E1E
:104DC000F1503A850A0C750D007403780C122628F0
:104DD000851082851183124EE4124FE1601FE508B1
:104DE000450970A58C088D0988828983123FB48893
:104DF000828983A3A3E02EFAA3E03F80BEE50AC325
:104E000094025003024EDF750800750900EE4F60F2
:104E100010EEFAEFFB1217C88A0E8B0FEA450F70DF
:104E2000057900024EE1750B00024EB4850B0C753E
:104E30000D007403780C122628851082851183E0FA
:104E4000250CF50CA3E0350DF50DE50C2406F51445
:104E5000E4350DF515851482F583124FE66042E5C1
:104E60000C2404F512E4350DF513851282F5831236
:104E700028D5E50E2508FAE50F3509FB121744740D
:104E800002122651851282851383E02508F508A3B6
:104E9000E03509F5098514828515831245E9121755
:104EA000CEE50B600D7C087D007900AA0CAB0D12DD
:104EB000175C050BE50BC3950A5003024E2C8510B9
:104EC0008285118312571788828983A3A3A3A3A382
:104ED000A3E50EF0A3E50F123B47EEF0A3EFF07948
:104EE00001024A46124EE822E0250CF8A3E0350DF7
:104EF000229006B8E0F8E50AC3982274F01226ABB7
:104F00008A0E8B0F8C0A8D0B750D00750C0080506E
:104F10007916EE2406F508E43FF5098E828F83A307
:104F2000A31228D58E828F83A3A3A3A31228D5858D
:104F300008828509831228D5850E82850F83A3A355
:104F40001245E9120AD27406122651E9F50D7416BB
:104F5000650D706C850882850983E4F0A3F0050C6B
:104F60009006B8E0F8E50CC3985066AA0C8A08755C
:104F7000090074037808122628850A82850B83A30A
:104F8000A3125030E8FEE9FF8E828F83124FE66055
:104F900040EA2401F508E43400F5099006B8E0651C
:104FA000087002E509601488828983A3A3A3A3A3E0
:104FB000A3A3A31246186003024F107918024F12E0
:104FC000E9609B1257137410122687124FD8124CA7
:104FD00040A90D7F0802277DE0FAA3E0F5838A82CD
:104FE00022F98882898312580CEC4D2274F612261D
:104FF000AB7C0080010C900715E0F8ECC398501EC4
:105000008C0875090074027808122628125025E0D1
:105010006A7003A3E06B70DDE8FAE9FB80047A00B4
:105020007B000250C89006B61250308882898322D5
:10503000E02508F8A3E03509F92274F21226AB8ABC
:10504000088B09750A0080278E828F83A3A3A3A3F0
:10505000123B3E60031217CE7C087D007900EEFA09
:10506000EFFB12175C8E828F83E4F0A3F0050A1227
:105070004EF15027850A0C750D007403780C12262A
:1050800028850882850983A3A3E0250CFEA3E035CB
:105090000DFF8E828F8312461870AD8508828509B8
:1050A0008374FFF0A3F002580074F61226AB120AC4
:1050B000668A828B83E582458370067A007B008056
:1050C00007A3A3A3A31245E97F0202277D74F4126C
:1050D00026AB89088C828D83E06402703C1256B640
:1050E000FEA3E0F9EEF87402687003742969702970
:1050F000750A02750B00780A1228BE7410122687F2
:105100001228D574101226871228D5A90812158ED8
:105110007406122651E9F980027901023B7B74E89A
:105120001226AB74FB12263BE9851882851983F0A1
:105130008A168B17ECFEEDFF7510008E828F83A30D
:10514000A3A3E0A2E4502D741D1226871245E91294
:105150000AC08A828B83E5824583700302555579A4
:105160000AEEFCEFFDAA16AB171226A9E9F51060AE
:1051700003025558741F122687E0F508A3E0F509CD
:105180007421122687E0F50AA3E0F50B742312269A
:1051900087E0F50EA3E0F50F8E828F83E064026056
:1051A000030254F6A3125717850882850983A38545
:1051B0008212858313EE2406F50CE43FF50D8882F8
:1051C0008983125595F514E439F515781412294898
:1051D000010000280128F85107000228BD520328C9
:1051E0002B520029EC53012917540229B8530329E3
:1051F000EC5304299054F654E50E450F6003025415
:10520000F1850C82850D83125717E8FAE9FB8A8233
:105210008B83E0850A82850B831255A01228BE8AF3
:10522000828B83A3E0FCA3E002547AE50E450F6075
:10523000030254F1850A82850B837401F012558AAA
:10524000850882850983F07C007D008E828F83A390
:10525000A3A3A3E02401FAA3E03400FB120964EA4B
:105260004B60408A828B83E02402F8850A82850B9A
:1052700083E028F0EA2404F8E43BF988828983E09B
:105280008512828513831255AE1255A01228BE8A4C
:10529000828B83A312557DE5082403FAE43509FBCC
:1052A00002547F850A82850B83E02404F07C047D10
:1052B000007900AA12AB1312175C025558E50E458F
:1052C0000F60030254F112558AFEA3E0FF850A82A3
:1052D000850B837404F0EE850882850983F0EF85E1
:1052E0001282851383F074031226A1EEFAEFFB12EB
:1052F00009648A0C8B0DEA450D700302539B8A8268
:105300008B83A3A3123FB47401122691880E890FD8
:10531000780E1228BE74051226871228D57CFF7DD0
:10532000FF12096A74041226518B0FEA450F70337D
:10533000850C82850D831255811228BE850C8285CD
:105340000D83A31228D57C027D007AA17B891206E9
:10535000647404122651E9700A740112268774FFDE
:10536000F0A3F08E828F83E064027039750C0275B1
:105370000D00780C1228BE8E828F83A312557DE516
:10538000082404FAE43509FB12174474021226516A
:10539000850A82850B83E024028009740112268726
:1053A000EEF0A3EFF0740112268712556F7401120C
:1053B00026871255660254EBE50E450F6003025432
:1053C000F1850C82850D83125805AA16AB171215AC
:1053D00094850A82850B837402F08508828509838F
:1053E000EAF0851282851383EB0254EEE50E450F39
:1053F00060030254F112558AF8A3E0F9850A828508
:105400000B837402F0E8850882850983F0E9851230
:10541000828513830254EE850C82850D831245E943
:1054200012173EEAFAF8C3950EE4950F405CE86562
:105430000E450F70047A008021851882851983E05B
:10544000FCE50E2CFCE4350FFDC3EC98ED94005008
:1054500003E08005E50ECAC39AFAEA850A82850B45
:1054600083F08A0A750B00780A1228BE850C8285A3
:105470000D83E0250EFCA3E0350FFDAA08AB091251
:1054800017447402122651025558751007025558D8
:10549000E50E450F705B850C82850D8312571785CD
:1054A0000A82850B837407F08882898312556712FC
:1054B000555FE0851282851383F0E82402FAE4390F
:1054C000FB8A828B8312556F8A828B83125566A367
:1054D000A3123B46125574F0E82405F850010988E0
:1054E000828983125574A31255AEA3A3A3A3F0809F
:1054F0006775100B8062741D1226871245E9120A27
:10550000668A828B83E5824583604A125717880C2E
:10551000890DE8450D603E7425122687E0F5107868
:10552000101228C2780E1228BE780A1228BE7808F7
:105530001228BE7407122687E0F9EEFCEFFDAA16CA
:10554000AB17850C82850D831226A974071226518C
:10555000E9F510800375100EA91074050248ACF02F
:1055600088828983A322A3E0850882850983221289
:1055700055B5F0221255B5A3A3229006BC12580CC3
:1055800022E0F50E750F00780E22850C82850D83C2
:10559000124A4FE022E0FAA3E0F8E4C8F9EA282230
:1055A000F08A828B83E0F50A750B00780A22125587
:1055B0005F1255B522E0850882850983A3A3227472
:1055C000EE1226AB74FE12263B8A088B09ECFEED28
:1055D000FF890AAC18AD19EEFAEFFB1209648A0CC8
:1055E0008B0DEA450D70030256A785188285198335
:1055F0001245E9120A668A828B83E582458370032D
:105600000256A2A3A3125717880E890FE8450F7000
:10561000030256A27414122687E0F510A3E0F511D8
:10562000E50AF50B780B1228C27419122687122886
:10563000D578101228BE741B122687E0F9AC0CAD89
:105640000DAA08AB09850E82850F831226A9740561
:10565000122651E9F50B705274FE650A604C850CF8
:1056600082850D83E0640270411256B6FAA3E0F918
:10567000EAF87402687003742969702E85108285B7
:105680001183125595F50CE439F50D780C1228BEEE
:10569000EEFCEFFDAA08AB09120AEA7402122651C9
:1056A0008008750B0E8003750B01A90B740212267E
:1056B000517F0A02277DA312571B88828983E0222B
:1056C00074F61226AB74FE12263B740C1226871257
:1056D0005717E8851882851983F07401122687E927
:1056E000F0E4F508F50978081228BE750802780874
:1056F0001228BE7404122691880889097808122895
:10570000BE79FE120AD27406122651740212265174
:105710000250C88E828F8312571B22E0F8A3E0F953
:105720002274F71226ABEAFEEBFF89089006D3122B
:10573000557D121594EA5402600BA908EEFAEFFBAE
:10574000120958800279017F0102277D74F2122626
:10575000AB74FE12263BEAFEEBFF890A7401650A70
:1057600060147402650A60030257FB7901120D2A66
:10577000E960030257FBEEFAEFFB120AB4EA4B6052
:1057800003120ABAA818A9198808890978081228E2
:10579000BE75080275090078081228BE7508BF7525
:1057A000098978081228BE7CFF7DFF7A017B0012F0
:1057B000095E74061226518038850882850983A304
:1057C000A3A3A3A3A3125805EEFAEFFB121588E4D6
:1057D000F50CF50D780C1228BE74021226871228DB
:1057E000D57CFF7DFFAA08AB0912096A7404122652
:1057F000518A088B09E508450970BE7402122651CA
:105800007F0602277D124A4F12580C22E0FCA3E0CB
:10581000FD2274F41226AB8A088B09ECFEEDFF9092
:105820001BC6E0F4604B7A097B0012176EEA4B60EE
:10583000408A828B8374B1F0A3E4125874F08A8298
:105840008B83A3A3E508F0A3E509125874A3EEF037
:10585000A3EFF0740C1226871257178A828B83A34A
:10586000A3A3A3A3A3A3124C40901BC6E0F9121755
:105870007A023B7BF08A828B83A3A3A3A322C082FC
:10588000C0839061907404F0A37448F0A37402F094
:105890009061807440F09061BC7403F090618774F3
:1058A00019F0906265741BF0906249E0C394139004
:1058B000619C40107409F09060667401F090619FE3
:1058C0007428800D740BF0906066E4F090619F7412
:1058D0002CF0125A6B7009C29190074774678005CB
:1058E0009007477461F0125ADF903860E493F460D7
:1058F00006E493F9120E4A79051211EC025D2FC0ED
:1059000082C083E9540FF9906185E0696012E5C6B1
:1059100054B84441F5C6E59E5447644170F8E9F037
:1059200053C6B8E59E544770FA025D2FC082C0830B
:10593000A8A853A87E906181E4F0A3F0A3F0C2BAB6
:10594000539AFEC289759B00C2C275E90075910029
:1059500075BF0075A91175B905906181F0A374C078
:10596000F0A3E4F0D2BA439A0174805842A8025DD1
:105970002FF0A3F0025D2FC082C08374F812263B83
:105980009007451274C17003025A63900745E054B2
:105990004060177908AA18AB19120F94AA18AB190E
:1059A000120B74900745E054BFF0E054806010790A
:1059B0000C7A547B0B120F94900745E0547FF0E073
:1059C000A2E0501E125A6B7009C29190074774678B
:1059D00080059007477461F0120B7A900745E054F8
:1059E000FEF0E05402601E125AB07009D291900786
:1059F0004774718005900747746AF0120B7A90071C
:105A000045E054FDF0E054046010903864125AE20E
:105A1000120B80900745E054FBF0E05408601090B2
:105A20003865125AE2120B80900745E054F7F0E017
:105A30005410600D125ADF120B80900745E054EFAE
:105A4000F0E05420600A120B80900745E054DFF02C
:105A5000A3E05401600D120E6E120B86900746E013
:105A600054FEF07408122651025D2F90619A125C68
:105A7000D4900B2EE0640122C082C083E96005143B
:105A800060178029125A6B7009C29190074774679A
:105A9000801A90074774618013125AB07009D2912E
:105AA00090074774718005900747746AF0025D2F74
:105AB00090619A125CC6900B2EE0640122C082C0F5
:105AC00083E9600814600A14600C801090386480C8
:105AD000089038658003903866125AE2025D2F9074
:105AE0003866E493906186F02274EA1226AB74F46F
:105AF00012263B90897AAC18AD19740412254E9089
:105B0000386493F46003025C5B907808E0C394020D
:105B10005003025C3F90886F74041226A17408122F
:105B2000254EA818A919881489157404122691887D
