:20000000483F0020A54B000001CA011001CA011001CA011001CA011001CA011001CA011021
:1C00200001CA011001CA011001CA011001CA011001CA011001CA01103FCA011082
:20003C00F8B50D46EEB2290824BF26494D40264BB400195985EA01020240C2F3006C234A1B
:20005C0000EA05078143FF323A4000F4E0270A43B7F5E02F01D1510E15D300F4E0215CEAC8
:20007C00010710D002F4E027B7F5A02707D0B7F5803704BF22F4003242F4A02203E022F4D6
:20009C00803242F4C0221A51114CC10D04D3A4F18001C5F380528A55000E11D300F01AF89A
:2000BC00290E03D201210022B14002E00121B1400A46503423688B431A43226000F00EF8EC
:2000DC00F8BDC046006000A000100840007F077F80200240DFF800F049C10110DFF800F061
:0400FC0019C2011014
:200100003C000000000000000000000034010000000000000000000001000000000000006D
:1C01200000000000000000000000000001000000000000000800000000000000BA
:20013C00340000000000000000000000680100000000000000000000010000000000000005
:14015C00010000000000000000000000080000000000000086
:2001700030000000000000000000000098010000040000000000000001000000FFFFFFFFA5
:10019000FF00000001000000080000000000000057
:2001A0002C0000000000000000000000C4010000040000000000000001000000FFFFFFFF4D
:0C01C000FFFFFFFF08000000000000002F
:2001CC0034050000E401000099A1011095A70110A5C2011009B2011045B80110000000000B
:0801EC00000000002F000000DC
:2001F400280000000000000000000000140200000000000000000000FFFFFFFF00000000B1
:080214000800000000000000DA
:20021C00300500003002000069C201106DC101101FC2011095BA011000000000000000008E
:04023C002D00000091
:20024000300500005402000075C20110A9B601109DBF011049B601100000000000000000DE
:040260002E0000006C
:200264002400000000000000000000008002000000000000000000000000000008000000CC
:040284000000000076
:20028800240000000000000000000000A40200000000000000000000000000000800000084
:0402A8000000000052
:2002AC00240000000000000000000000C8020000000000000100000000000000080000003B
:0402CC00000000002E
:2002D000000000000C1200200400000000000000000000002000000070010000300000000B
:2002F0001C020000141200200400000000000000000000000C00000030040000180000002E
:20031000400200001C120020040000000000000000000000240000004804000018000000B1
:20033000000000002412002004000000000000000000000010000000A00100002C00000076
:20035000CC0100002C120020040000000000000000000000200000006402000024000000B4
:20037000FFFFFFFF3412002004000000000000000000000028000000880200002400000031
:20039000FFFFFFFF3C120020040000000000000000000000580000003C0100003400000016
:2003B000FFFFFFFF441200200400000000000000000000001000000060040000180000002B
:2003D000FFFFFFFF4C1200200400000000000000000000001C000000AC02000024000000A1
:2003F000FFFFFFFF5412002004000000000000000000000038000000F40100002800000012
:20041000FFFFFFFF5C12002004000000000000000000000054000000000100003C000000AD
:1804300018000000000000000000000040040000080000000000000050
:1804480018000000000000000000000058040000080000000000000020
:18046000180000000000000000000000700400000800000000000000F0
:0804780001000000A072000069
:0404800006F083BC43
:040484000100000073
:0404880000000E0062
:04048C0000000F005D
:040490003200000036
:040494000100000063
:0404980050110020DF
:04049C00000200005A
:0404A0000000000058
:0404A40001CA011078
:0404A8000000000050
:0404AC00000000004C
:0404B0000800000040
:0404B4000000230021
:0404B80038100020D8
:0404BC00010000003B
:0404C000681100209F
:0404C400080000002C
:0404C8000000000030
:0404CC00000000002C
:0404D0000000000028
:0404D4000000000024
:0404D8000000000020
:0404DC00010000001B
:0404E000A010002048
:0404E400060000000E
:0404E800010000000F
:0404EC00A40F002039
:0404F0000000000008
:0404F4000000000004
:0404F80000020000FE
:0404FC0000000000FC
:02050000704742
:020502002900CE
:020504000100F4
:020506002500CE
:020508002D00C4
:02050A002E00C1
:02050C002F00BE
:02050E000100EA
:0105100001E9
:08051400030000006872000002
:08051C000000000000000000D7
:0405240000000100D2
:0405280000000300CC
:04052C0087C401106F
:04053000380500008A
:040534003805000086
:0405380000000000BF
:04053C00900000002B
:040540009000000027
:0405440000000000B3
:040548006811002016
:04054C00136A00002E
:040550002000000087
:040554001072000021
:04055800D871000056
:04055C000DC30110BA
:040560007B520000CA
:04056400BF5F000075
:0405680099C801101D
:04056C009BC8011017
:040570000000000087
:04057400D77100003B
:0405780028710000E6
:04057C0040710000CA
:0405800010710000F6
:0205840008006D
:0205860009006A
:02058800010070
:02058A0000006F
:01058C00016D
:040590000000000067
:040594000000000063
:04059800000000005F
:04059C00000000005B
:0405A0000B6E0000DE
:0405A4000D520000F4
:0405A8004D5F0000A3
:0405AC00C95800002A
:0405B000B75600003A
:0405B400F9580000F2
:0405B800DD3D000025
:0405BC00F36B0000DD
:0405C00045420000B0
:0405C40011C8011049
:0405C80021C8011035
:0405CC000800000023
:0405D0002400000003
:0405D400180000000B
:0405D80028000000F7
:0405DC0020000000FB
:0405E0003C000000DB
:0405E4000C00000007
:0405E80034000000DB
:2005EC002DE9FE43B04C0F460646F80B80F03781B80880F0C9806069B90F69D2A07A002849
:20060C004AD138094AD3002501266570A748267206F0F0FAA6492A4604F14C0006F0DCFB60
:20062C00607901281FD1A079E8B9DFF88882266AD4F81490D8F8000070B106F081F9A0EB35
:20064C0009004346000B8619E0611868B6EBC01F28BF256208D2266204F1C8004FF00051F4
:20066C0006F00AF931E0667104F1380140F60900088094F8450000F0F00040F0010084F83A
:20068C004500658794F8440000F0F00084F84400E563894E316018E0380914D2B80BC0F06B
:2006AC00FB8004F1280006F0A2FB061C08D0706830B17568F068B6F91C1082A20CCAA84757
:2006CC0027F40057E8E00020A07227F00807E3E0D8B1042005F072FEB8B106F031F9A0611D
:2006EC006169814226BF401A401E401A000BF060F06840F6C41100F58D708142F06003D3D1
:20070C0040F2EE22824200D9F1600025D6F818C06561BCF1000F0FD094F8450010F00F0F82
:20072C000AD1708C40F60901814205D167A20CCA30466FF48071E047604904F14C002A46D3
:20074C0006F04AFBA07950B10220ADF80000684605F052FDA571BDF80800A4F8A00001204F
:20076C0060702079A846401C2071192084F8078006F0BAF9756925B156A20CCA30464146C5
:20078C00A84727F0005787E004F13009484606F02EFB061C5AD004F04FFD4FF00008B269C0
:2007AC00C6F818807068B8B1F07F42F00202002300F00700401E07D0401E03D0801E06D1FC
:2007CC0046A002E047A000E048A090E80C007568F068B6F91C10A847FFF784FC0546B4F9A5
:2007EC003600401C6FF31F30E086206B1F30017801F07F010170484605F0D2FF2846FFF757
:20080C0075FCF068B0F99410B4F9362091421DD1217801291AD090F8965095B9056885B1E6
:20082C00E1680968B1F1FF3F10D0254909687030B5FBF1F106F0B0FBF068703006F0A8FBEF
:20084C0004E080F89680404603F09AFC484606F0CEFA27F0020708B147F002071CE0FFF7B4
:20086C0041FC014604F12C0006F0C1FA0646B5690846FFF73BFCA8080CD25EB1B069A84390
:20088C00B061706830B12A46F068B6F91C1075680023A84727F4804727B104F1C8003946FA
:2008AC0005F0EAFFBDE8FE8388080020A93C000075600000F01C002000100440BD2200005F
:2008CC009872000000000000200000000000000000000002000000000000000400000000DC
:2008EC0000000010000000000000004000000000000000202DE9FE430646DFF8DC82DFF8CD
:20090C00DC92B2780024101C00F03581801E00F00D81401E012840F2E180801E00F0A88051
:20092C00401E7BD0401E59D0083800F04681801E40F046814546B08895F83E70ADF800004C
:20094C00052F45D001208DF80A0005F1CC0006F050FA95F83E0001281BD0042819D0032871
:20096C0006D0022804D0F28831897089B38907E0B5F84020B5F84210B5F84400B5F8463027
:20098C00ADF80220ADF80410ADF80600ADF8083020E0B5F84000F1888842D8BF081CADF8B3
:2009AC0002003189B5F842008842D8BF081CADF804007189B5F844008842D8BF081CADF83D
:2009CC000600B5F84630B0898342D8BF031CDDE78DF80A40684606F025F9F1E0454605F187
:2009EC00F00006F006FA7078002840F0E980F088E882308928837089688305F1CC0006F07A
:200A0C006BF8002840F0DC80AB6A002B00F0D8801B68E88A298B6A8B9847D1E0B08805F0D0
:200A2C00B6FA45462146062205F1380002F0F0FDEC822C836C83B079687305F1CC0006F00B
:200A4C00D8F905F1F00006F0D4F901244FF6FF706F79A8824FB9B079082814BF04200520A8
:200A6C00A870204605F0CCFEAAE00320A870A7E0707858BB311D0A68454605F1380002600B
:200A8C00898881800627AF707089A882F089E882308A2883708A6883F0784446287394F883
:200AAC003E00012818BF02280AD11F2004F09AF94FF47A71024604F1CC00514304F030FB37
:200ACC00F0787289311D04F0D7FA7BE0707831286FD14D4604202870204623E07778002FE2
:200AEC0067D14546698AA878032A13D02A796F7921B9012A14BF6C712C7106E0174304D013
:200B0C0005F1A80004F00CFBA878072814BF0420062007E0062807D02879002808BF032421
:200B2C00DAD00220A8704DE00724D5E77078751C00283ED14246F7789078D1799FB9022836
:200B4C0016D0072814D0062802D1517901290FD103280DD002F1A80005F0BEFF40B901204C
:200B6C0005F04EFE04E08732204603F0E3FC28702878F0B924E07078D8B945460220102117
:200B8C0005F1480204F0E0FC0320102105F1580204F0DAFCF61C05F12C00B78831688780B8
:200BAC0005F1680201600120A979A87003F0C2FC40B108204D46287004E0B08806F026F8E8
:200BCC00012C06D14546686A18B1016809B1A8788847BDE8FE83C0466C0500206E0500207D
:200BEC00F8B5A0F2013517460E46022D40F20C818649874C874A884B2D1F0F2D04D9143DD9
:200C0C004AD0AD1E1CD011E0DFE815F0BA00B500EB00DB00AE00A700FE009F00980010006B
:200C2C001000900086007A006F006200282880F2EB80022E40F0E880398804F033FBF8BDAA
:200C4C00012E40F0E1800A469078012800F0DC80D1783878D07081B9002800F0D580107893
:200C6C00012800F0A080042800F09D80062800F09A80052800F09780F8BD3878002840F0CD
:200C8C00C3801078032800F09980072800F09680052800F09380F8BD012E40F0B5803878EB
:200CAC00012840F0B180254605F1F00005F014FF002840F0A98004F13E01002002F006FE7A
:200CCC00002840F0A18004F1CC0006F092F8F8BD022E40F0998038880A28C0F29580B0F5C2
:200CEC00486F00F39180114614E0022E40F08C803888B0F5FA7F80F2878011460880F8BD8B
:200D0C00022E40F08180388806287DDBB0F5486F7ADC1946891CF1E7022E75D1388806282E
:200D2C0072DBB0F5486F6FDC1946E7E7012E6BD13878062868DA1146891F0CE0012E63D1AD
:200D4C003878042860DA093105E0012E5CD13878082859DA08310870F8BD012E54D1387879
:200D6C00042851DAC91DF6E7012E4DD1387804284ADC891DEFE7022E46D138881031BDE796
:200D8C00012E41D10A46D07801283DD091783878907061B9002837D01078012803D0042886
:200DAC0018BF052830D1012005F02AFDF8BD387850BB1078022818BF052825D105F03CFE9A
:200DCC00F8BD254600211F2205F18704204602F01FFC39463246204602F01AF90020EE71B0
:200DEC000EE0254600211F2205F16804204602F00FFC39463246204602F00AF90120AE71D5
:200E0C003146224603F096FBF8BDC0466E0500206C050020B0050020AC0500202DE9F04F89
:200E2C000128ADF1140D40F0F280DFF81492D9F8DC00012840F0E9800220C9F8DC0006F07B
:200E4C00A3F80290012003F0FBFD20B101210646C9F8DC10D5E006F093F803906E484FF0A3
:200E6C000008C0F80080012005F0A8FA012818BFCDF8008004D1404603F038FA01200090F8
:200E8C0066486E4CC0F800801934D4F8FF0F112005F004FF00280CBF46460126102005F08B
:200EAC00FDFE08B146F002060F2005F0F7FE08B146F004060B2005F0F1FE30B1584800682A
:200ECC005849006B0246088890470A2005F0E6FE0028404618BF01204FF0805B0BF5DC7537
:200EEC0028B128685049006B0246088890474F480127076028688069014646F020008847BF
:200F0C004B48076005F0C4FE00F001010191400815D2484805F021FE8246BAF1040FF8D06F
:200F2C00BAF1010F06D1DBF8D801406802464148032190474049086820F0030008604046F9
:200F4C0000F080F82868D4F8FF1F806B8047019801280ED0BAF1010F06D1DBF8D80140686B
:200F6C0002463448394690473349086840F0030008602A4807602868406901463046884726
:200F8C000B2005F08BFE28B128682649C06A0246088890470A2005F081FE28B12868224979
:200FAC00C06A024608889047204807600322C9F8DC201F4BC3F800802868406B01463046FE
:200FCC0088470128F8D1042003F03AFD124807601A48D4F8FF1F01688909FCD3009801285E
:200FEC0002D1384603F082F905F04CFE082003F027FD06460398C9F8DC7005F0BDFF03F010
:20100C0035F8029805F0B4FF02E0042600E00126304605B0BDE8F08F0C40094000022243F7
:20102C00B8010010A6700000A27000002820086080010443004003402422084014100940BD
:20104C00B00D00202DE9F84FDFF8E8B10746ABF13500DFF8D4910068800880F0D68004F0D6
:20106C00A7FE064677480830D0F8008000254FEA28725FEA985002F101020AD2C6F13E0044
:20108C0016F10A0F4FEAE000D8BF08208242B8BF021C624BD3F87C01C0F3046005F056FD9F
:2010AC0004461868C0F3044005F050FD12198246162A05DA12F10A0FB8BF6FF0090200E032
:2010CC001522574B574802F01F0141F4F8511980006810F0030F18BF0125C00828BF45F008
:2010EC0002050FB145F00405494691F90700301A052804DA8879A84208BF888865D0DFF89C
:20110C002CE10F2EA6F10F0C25DB0CEB0610A0F1F00C4FEA2C27072F88BF07273C46062C42
:20112C0088BF06245EF82400042303EB84037446E3581B1A03F0FF04E80824BFC3F307204C
:20114C000444A80824BFC3F307400444680828BF04EB136401E0002427465EF827E0E808E7
:20116C000EF0FF0324BFCEF307200344A80824BFCEF307400344680828BF03EB1E63A4B253
:20118C00ACEB0727BAEB020004FB07F404F1800403EB1423D8BF0120342208F0FF074243AE
:2011AC007A43B2FBF3F04FF6FF72824238BF101C802E80B2888005DA16F1800FB8BF6FF006
:2011CC007F0600E07F26CE718D71194A12681F280A604FF0000208D340F2FF11814206D235
:2011EC004008521C8142FBD301E01F208880124F0F38000942EAC00247EA0200CBF8FB0FD5
:20120C000026CBF8FF6FBDE8F88F0D4F0B4E494608203760891D0870BDE8F88F3C11005055
:20122C006E62084024220840F41C00209C130050082009403500094000E7A480301009404A
:20124C00FDFDA400AC3F00502DE9F0411C4615468C4208BF854282BF00230022E5E0002CD2
:20126C0008BF002D0AD100290EBF00286FF000006FF0000100F0E1F8BDE8F0815FF0000880
:20128C005FF0000E002C08BF8D429CBF2C1C0025070C47EA01470E0CB44208BFBD429EBF9C
:2012AC005FEA044444EA15445FEA0545070A47EA01670E0AB44208BFBD429EBF5FEA04242B
:2012CC0044EA15645FEA0525470847EAC1774E08B44208BFBD4200F29380870847EA817761
:2012EC008E08B44208BFBD427CD8C70847EA4177CE08B44208BFBD4266D8070947EA0177FB
:20130C000E09B44208BFBD4250D8470947EAC1674E09B44208BFBD423AD8870947EA81674F
:20132C008E09B44208BFBD4224D8C70947EA4167CE09B44208BFBD420DD8E60146EA55665F
:20134C00EF01B14208BFB84201D3C01BB14158EB08085EEB0E0EA60146EA95664FEA8517DD
:20136C00B14208BFB84201D3C01BB14158EB08084EEB0E0E660146EAD5666F01B14208BF68
:20138C00B84201D3C01BB14158EB08084EEB0E0E260146EA15762F01B14208BFB84201D364
:2013AC00C01BB14158EB08085EEB0E0EE60046EA5576EF00B14208BFB84201D3C01BB14177
:2013CC0058EB08084EEB0E0EA60046EA9576AF00B14208BFB84201D3C01BB14158EB080821
:2013EC004EEB0E0E660046EAD5766F00B14208BFB84201D3C01BB14158EB08085EEB0E0E2F
:20140C00A14208BFA84201D3401BA14158EB08085EEB0E0EA34208BFAA423EBF2D0A45EA68
:20142C000465240A89D3734642461E4617460B46024631463846BDE8F08170472DE9F04109
:20144C00ADF1280D04F08CFC05F0C2F9704E41F2883204236F49F06006F16C0003F084FAD3
:20146C0000241F200621746003F01CFF5020ADF8060001258DF80050ADF8024029468DF803
:20148C0004506A46ADF80A404FF44870ADF808004FF47A70ADF80C0040F20530FFF7A0FBCF
:2014AC0040F2063002210DF10202FFF799FB06F14D024FF442701E21FFF792FB06F11C02F7
:2014CC0040F207300721FFF78BFB4FF44470294601AAFFF785FB40F2113002210DF10602D0
:2014EC00FFF77EFB40F21230022102AAFFF778FB40F2133002210DF10A02FFF771FB4FF47E
:20150C004570022103AAFFF76BFB05F091FB0620A02103F0C7FE0720A02103F0C3FE0820FA
:20152C00A02103F0BFFE0920A02103F0BBFE2F460494A0468DF814504FF481608DF815708E
:20154C0004218DF8168004AA8DF8177003F090FE4FF48060294605AA03F08AFE40F20240D4
:20156C0029460DF1150203F083FE40F2034029460DF1160203F07CFE40F2064029460DF11B
:20158C00170203F075FE05F0EEFBFEF773FF05F0CDF904F085FC02268DF8187004248DF869
:2015AC00196003258DF81A501B498DF81B4007A80A680979026006AA01714046394602F02D
:2015CC0083FD38460DF11902014602F07DFD304639460DF11A0202F077FD284639460DF1D5
:2015EC001B0202F071FD2046052107AA02F06CFD05F0CEF904F09CFE04F01AFA05F093FBF5
:20160C0005F099FB05F028FA0AB0BDE8F081C04608020020896900008A7200002DE9F843DF
:20162C00814605F029FB002100B901216B4E30680028FCD06C4D01242D1DEF6A346009B1AE
:20164C0005F020FBDFF89881C7F3072008F1BC01086005F011FB002100B92146306800287D
:20166C00FCD02F68346009B105F00CFBC7F38440C8F8C00005F000FB0146002001B920463C
:20168C00014630680028FCD0ED69346009B105F0F9FAC5F38120C8F8D000B9F5C061C8F867
:2016AC00B81000F0968098F8D80068B9C8F8D410D8F8C000C8F8C800D8F8BC70C8F8C4701B
:2016CC00D8F8D060C8F8CC60D8F8D410D8F8BC60002954BF02206FF00100454605F1C80368
:2016EC001A6801EB41014018411000EB917002EBA0021A60D5F8C810C5F8C46000291CDDE8
:20170C001E293DDDD5F8CC0030B93429B4BF15391E21C5F8C81025E02A29BABFD5F8C80082
:20172C000B381E20C5F8C800D5F8C4003F28B4BF401C3F20C5F8C4001FE0D5F8CC0003282D
:20174C0012D011F10B0FC6BFD5F8C8000B30201CC5F8C800D5F8C4000028CCBF401E0020A7
:20176C00C5F8C400032009E011F1150FC6BFD5F8C8001530201CC5F8C8000020C5F8CC00E1
:20178C00B5F8C400174E30214FF47F4208230090304603F0C5F8009404214FF400321123CF
:2017AC00304603F0BDF8B5F8C80004214FF4F80212230090304603F0B3F8B5F8CC00202195
:2017CC004FF440620A230090304603F0A9F8BDE8F883002088F8D800BDE8F88300800C40CD
:2017EC00B00D002000A00C4000A00C402DE9F04FADF1840D00F044FC03F06EF800260128CC
:20180C0004D104F055FF022808BF012658490868C0F38150012806D151F80C0C0127010E5A
:20182C0007FA01F006435348007804F0D5FA524D2C46286038B1FF2204F1400107467F1EC8
:20184C0001F8012BFBD14D4909684FF0000901F0FF02FE2A1BD0DFF824C101F0FF074A46F4
:20186C000123FF2F0CD0B8427FD903FA07F73E427BD101F0FF0147EA0909611881F840208F
:20188C005CF8041F521C01F0FF07FE2FE9D1092000F0D4FF3948002124220823606001A811
:2018AC0005F062FB4FF0010804F1240001AA8DF81C80414605F054FB236843B30027943561
:2018CC004FF0040BBA4608FA07F0064219D119EA000F04BF07F0FF0141F4C04105D0E019B3
:2018EC00264990F8400051F820102548FEF7A0FBF8B24FF0FF3104F08BFD2368C5F800A0B2
:20190C0001E0C5F800B07F1C2D1D9F42DBD30AA800213022082305F01FFB0025FF20102125
:20192C000AAB1290174A009504F1080005F010FB16A828220823294605F006FB04F1600064
:20194C0016AA1C9510491D952B4605F0F9FA0F4951F80D0C20F4F85040F4005041F80D0CBA
:20196C004746C1F8FF7F0A4E376021B0BDE8F08FB43F0050001D0020001B00208471000003
:20198C00007FC767396400001D4B00000D300940080009402DE9F843674C04F1240005F0A0
:2019AC0026FA15460E460090FEF79CFB05F001078146B6F1FF3F0CD1A06A20B9B4F93600E4
:2019CC00401C06B202E0A06AB0F91C60002084F8A300304604F0F2F80326002800F09B80E7
:2019EC00A16ADFF84081814269D0009FB8422ED03FB100990A68904209D0096800290091D4
:201A0C00F7D1832E41D04846FEF770FB3DE004F1A40004F041FC00980168AA0802D20A6862
:201A2C0002600846002202600091009818B94846FEF75CFB28E0C17F41F00401C17768462E
:201A4C0004F0AEFE0146404603F016FDEDE704F1A40004F021FCA8083ABF606A006800208E
:201A6C0060624846FEF742FB0099C87F40F00400C877684604F094FE0146404603F0FCFC99
:201A8C00009808B1A808EFD28326E07988B9207A012843D0244805F0ADF8022104F1C80079
:201AAC0004F0EAFE6078012838D0204805F0A2F834E004F1C800022104F0DEFE2EE0A908BB
:201ACC0003D3616A009100266662C27F0121B9401143C17705F054FA0446002F14BF144807
:201AEC00144804F089FB4846FEF700FBA80801D3009820B9204605F03FFA83260EE0C17F28
:201B0C0041F00401C177684604F04AFE0146404603F0B2FCECE74846FEF7E8FA3046BDE8A0
:201B2C00F883C046B8080020ED050000E52900000100020401000104880800202DE9FC4128
:201B4C005E4C574D574EDFF860815A4F94F8E410481E0B2861D8DFE800F07B2C43062343C6
:201B6C00062343067664042907D001220A2945F8212C14BF0220032004E02021012045F88E
:201B8C00211C024684F8E200002045F8390C0827C5F8FF7FC5F8F37F45F8392CBDE8FC8157
:201BAC00052914BF09200620002584F8E400356070E094F8E1700120383D002FC5F81B00E5
:201BCC0004BF0620002102D00021F160032084F8E400032045F8010C31603068800859D2DF
:201BEC0094F8E400012503280DD00021404660220523009102F094FE94F8E400062814BF64
:201C0C000A200720D1E702200090002160220523404602F085FE0420C7E705F08DF9BDE845
:201C2C00FC812249002622480E60012505600E2000F09AFD022003F0E1FD84F8E45084F853
:201C4C00E360BDE8FC81002038600C2578601FE01948006800680146202088472C3D41F62C
:201C6C001D560F2000214FF4C072072345F8010C4046C5F803600225009502F051FE404683
:201C8C0000214FF4C072072303F04CF80120386084F8E45004F1780005F07AF9BDE8FC81E1
:201CAC0039400C4038600C4000A00C402C500C4004800C4034600C40A0010010B00D00207D
:201CCC002DE9F84F9A4693460E468146FEF70AFA514C0090B4F93610B4F934000AAF401ABA
:201CEC0040F6F8710140082980F28780B4F93400401C6FF31F30A086B4F9348004F0ACFA3F
:201D0C00054609F1700004F0C7FAAE6085F81EB0C5F804A0A5F81C80C5F80C9097E80C0076
:201D2C0041A003C8002605F110071040194087E8030004F12400EE770768002F50D12946F1
:201D4C0003F09AFB002851D0A9F89480E87F40F08000E87789F89660607A40B1607830B180
:201D6C000120A07266722779A671781C20710098FEF7BCF9A06A00284BD1607860BBE07994
:201D8C00012846D0FEF7AEF90646207A00BBA86802F00AFD224B2149E2681B68086040B9AD
:201DAC003046FEF7A3F904F1C800042104F064FD2FE00968D26804F1A400891AB1FBF3F153
:201DCC0005F0EAF804F1A40005F0E2F830461EE0144901200870F9E7192004F085FE18E0C6
:201DEC0004F12400294603F047FB48B9B4F9340000F6FF706FF31F30A0866FF0010805E0AF
:201E0C00A9F89480E87F40F08000E8770098FEF76DF94046BDE8F88F88080020F01C00200A
:201E2C0098720000EC1C0020F1EFFF9F200000002DE9F041424C474D8046C8F38140401EBD
:201E4C0002D0401E2AD025E0284620300168880C20D24FF4804020603A48D0F802204B0A56
:201E6C00C1F3033703F0800322F08F02134347EA0302C0F80220D0F801300E1266F3030371
:201E8C00C0F80130026801F0E70722F0E70247EA020102E04FF00041204601602A4E06F13D
:201EAC0008000068C0F3C0070FB94020A0624FF40070206404F0F8FD40F0300084F8C8003E
:201ECC00C8F3815038B3401E03D0401E1ED002211DE0012004F072FA07460420394602F07F
:201EEC003DFC042004F06AFA8742FAD1366826F07F4003F053FC15480068036807214FF041
:201F0C006022300E98474FF4806020600321042002F024FC06E00420012102F01FFC0C488C
:201F2C0003F03CFC284600680B4947F6180700F03F0084F8CB0F094E0F803068BDE8F081CB
:201F4C0040A00C400A600840A83F0050B4010010BD3786006C13005070B00C402C20094051
:201F6C002DE9F04F0C464549CA7AADF12C0D84460592487B09900D7900958A7A488B4B8A81
:201F8C000E7B91F805A091F802800492B1F846E008904A7A088B0392CD7807900A7AC88AD8
:201FAC0002920F6A0690CA79888A01928A79E146A9F54079B9F11D0F10D8DFE809F05B55DB
:201FCC0053514F4D4B494643413F3C3A380F34312E2B2923201E1C0F19181716BCF1280FA6
:201FEC0049DA604602F0FEFE21E0099EB246D046CDF814801DE00898079007980690DDF8D1
:20200C0018E005E03831086820608888A08032E070460AE0B1F8440009E0B1F8420004E0F7
:20202C00B1F8400001E091F83E00034612E0208021E0059804900498039001E03231E2E7BA
:20204C00039802900298009006E0019A87310DE068310BE01846EAE7009D0BE02C31D2E7A6
:20206C00276008E0583100E048311022204600F0CFFF00E025700BB0BDE8F08F6C050020C8
:20208C002DE9F041444C94F8E700ADF1280D00286FD1394F387B01250021242284F8E75034
:2020AC007E6884F8E6000823C4F80C6101A804F03FFF002604F10C00069601ABADF8146015
:2020CC002E490796324604F02FFF2D4904F1300001AB324604F028FF2A4904F1540001AB04
:2020EC00324604F021FFB868014628468847DFF89C8025487B7B0078D8F80410C1F3815766
:20210C001BB1032F03D184F8E150032F16D0022F14D0012F26D103201D4C009031464FF00E
:20212C0040521C23204602F0FBFB009531464FF400720923204602F0F3FB13E0022003F039
:20214C0075FB032F0CBF4FF47A7142F21071114800685434B1FBF0F1204604F01DFF204671
:20216C0004F016FFD8F80000C00802D2304603F05DFB0AB0BDE8F08124720000D73B0000A5
:20218C00E931000099350000001D0020B03F005000A00C4098720000B00D00202DE9F043B3
:2021AC000746880FADF1140D75D301F0BBFF3F4D00261C352E60394845F81C0C384804F092
:2021CC0019FD3848BC68B14640F60A0200F13801468790F844300A808046C0F83C9003F046
:2021EC00F00380F8443090F845306680241D03F0F00343F0010380F8453000E01C1D236822
:20220C0013B118888242F9D12160607A00F0F000607208F1240004F0EAFD80680088D21F5A
:20222C0082421DD0521C82421AD007F120000388B3B197F82C2097F82D30C7F8249002F092
:20224C00F00287F82C2003F0F00242F0010287F82D20C8F83C00487B7E8400F0F000487373
:20226C00694603F0D9FF684604F016FC28680028FCD02E60012004F0A1F8012808D0607A89
:20228C0000F0F00040F001006072074804F0B2FCB86845F81C0C05B0BDE8F08301010E04F8
:2022AC00ED050000880800204D43000000100440F8B504F015FA404E3E4F0446A00823D3D9
:2022CC00B96A09B33D4600200B698A69A86204EA0300104340F0020006F1080288610B692B
:2022EC0010689843106001F1100090E80C0030681A1C9043306005F1300003F0BDF8022167
:20230C0005F1C80004F0B8FAB86AA10815D200F110020CCA002122400B40002B08BF002AD8
:20232C000BD0016985690C40F8622C434FF48041846107F1C80004F09FFAB86A002837D1C1
:20234C0007F12404204604F052FD051C30D0F868E968884226D1A86802F026FA174908602B
:20236C00E0B906F1080128690A6810430860326805F1100393E80300081C104330600023AF
:20238C003361A86846F80C0C06F1100000680028FAD0204604F004FABD62F8BD086801F049
:2023AC00EFFEF8BD07F1C8004FF4805104F064FAF8BDC046880800200C100440F01C002052
:2023CC002DE9F047ADF1180D00F084FD3A4D4FF0030908274FF6FF78002605F13E0A2C46DD
:2023EC0003F0DEFF20BB009601A80DF106016A4603F0D9FAE0B9BDF80400102814D1607825
:20240C009DF8061088420FD100980188884509D14088C00B08D3042005F12002014603F0AF
:20242C0093F801E002F0E6F9009808B104F01CF9208A41082DD320F00100637921792082DD
:20244C0053EA010225D073B9207A637A8DF8070005F132018DF808300A680DF109031A6030
:20246C008988998001E08DF80790A07A8DF80F00E37A8DF810300DF1070004F0C1FB38B1BB
:20248C00636AA77023B11A6812B1196838468847208A810807D320F0020020825146304697
:2024AC0001F014FA208AC1089AD320F00400208203F0F4FF94E7C0466C0500202DE9F0433A
:2024CC000646ADF11C0D04F02BFD03F04FF94FF000090546CDF8009004F0F8FB30F0010096
:2024EC0002D00098A84202D16FF0040059E070684C4658B1B0F1FF3F05D001A903F01EF932
:20250C0030B107464CE04FF0FF3000E02046019004F002FD0199012701EB000800E00193F3
:20252C006868019904F0F4FC00282ED003A802F0EDFED8B99DF8100002A902F0CDFE88B9B4
:20254C00B368BDF808009DF81210059A984748B19DF81270B773BDF80800B081059B336106
:20256C004F4612E00599684603F0BAFA0198641CB0F1FF3FD4D00028D2D004F0CDFCB8EB0F
:20258C00000302D001989842C9D2009905F1080003F0D2FB24B1686804F0B6FC641EFAD15D
:2025AC00384607B0BDE8F083F0B5ADF1340DFFF767FD304908682822082340F002000860EC
:2025CC0001A8002104F0C0FC2B4E2C490524002301AA079406F1C80004F0B2FC0021302221
:2025EC00082301A804F0B8FC0025FF271921244AADF81C5001AB099706F14C00009504F037
:20260C00A7FC2822082301A8294604F09DFC1D49079406F1FC0001AA2B4604F091FC01A8B7
:20262C0029463022082304F097FC0124ADF81C40099706F168001A2101AB134A009504F029
:20264C0087FC12492A4606F1A400134604F06CFC0F4804F0CFFA86F8A3507571F571357258
:20266C007572B5727561B4714FF6FF70A6F8A0000DB0F0BD00200940880800205568000013
:20268C0075600000AD2A0000A1430000FD5E0000E529000038B50446084601F097FA0146E7
:2026AC00182002F09BFE03F0A5FE80B200902C4840F2FF3200232C2102F032F904F0FCF9A6
:2026CC0001461C2002F08AFE03F086FE0146142002F084FE04F028F80146102002F07EFE92
:2026EC00204601F0D1F901460C2002F077FE204604F002F81B4D400040F020002870204689
:20270C0004F006F840F010002870204603F094FD0146282002F062FE204604F011F8400075
:20272C0040F06000E870204604F016F8C00040F0800005F8080C204604F01AF8800040F49C
:20274C007C40A5F89300204603F022FA0146082002F044FE4FF48000A5F20911086038BD98
:20276C0000A00C4049A10C402DE9F8430446FDF7B9FC81462D48021992F8ED10491ECFB221
:20278C00002F82F8ED704BD12B4D05EB84052E78698836F07F0788461AD1F10911D24FF002
:2027AC008054D4F8B801806901464046884704F5DC742068406B0146404688470228F8D124
:2027CC0021E000EB8800D0F80011002088471AE04FF08054D4F8B801006A01464046884719
:2027EC00D4F8B801806A014640468847D4F8B801006B01464046884701210D4A0D481160F7
:20280C0001688908FCD306F03F003F2801D0FFF7ABFF687800F03F003F2801D0FFF7A4FFF6
:20282C004846FDF763FCBDE8F883C046B00D00202820086028200840787000002DE9F04139
:20284C000646FDF74FFC2D4D8046A91991F8ED00421C002881F8ED204AD1294C04EB860454
:20286C00277807F03F003F2801D0FFF7E7FF607800F03F003F2801D0FFF7E0FF668837F03A
:20288C007F001AD1F80911D24FF08054D4F8B801406901463046884704F5DC742068406B95
:2028AC000146304688470128F8D121E005EB8605D5F80011012088471AE04FF08054D4F86B
:2028CC00B801C069014630468847D4F8B801406A014630468847D4F8B801C06A0146304657
:2028EC0088470121074A0848116001688908FCD34046FDF7FBFBBDE8F081C046B00D002097
:20290C00787000002820086028200840294A2DE9F04180460126284816600768002FFCD08C
:20292C00294C2A4FC020443C206007F1080001682348890804D20168090C41F0F00100E002
:20294C0072211E4D85F85412002111638768384600F098FE40463946FFF79CFE1C48B03821
:20296C00816D40F20F226FF31F418A4212D901680068C1F30363C0F3034003B15B1E072844
:20298C0005D006280EBF0720801C00F00F0043EA001028703846FFF74BFA0E481438006801
:2029AC00C1680220884740202060064F3E60BDE8F081C046101009409402224302600840F4
:2029CC00AC3F00509404604244600C40A83F00506C130050B4010010042998B54DD1274CB0
:2029EC0004F1240004F003FA40B994F8A300400838BFE06804D3D4F8880000E0C068E0609F
:202A0C0041681F4A09781160416812680978914206D0876927B120A20CCA6FF0FF01B8479B
:202A2C00022002F003FF1120FFF708FF0120E071E068011D007C10B16079012804D00E202D
:202A4C00FFF7FCFEE168091D08680E49083007680FB947681FB10020C8610B4F0F600B4AEF
:202A6C0040F2FF7000271060094C8F6109484C6104F0C0F8192004F043FA98BD88080020B4
:202A8C00D021084000100440510007060000046002000040A92100000000000000000002CD
:202AAC00F8B5FDF71FFB2A4C0746103CD4F89C0010F4602F2BD0D4F89C00400CC5B26808AF
:202ACC0007D2A80803D2E80828BF022502E0012500E000256E1D70B201F086FCD4F89C30C9
:202AEC0005F111010120884023EA00013846C4F89C10FDF7FBFA04EB8500D0F88C704FB1C4
:202B0C00D4F8880013A20CCA3146B84702E03846FDF7ECFAD4F89C0020B104F1FC000021CF
:202B2C0003F0AAFE94F8A30080080FD3D4F8987037B1D4F8880009A20CCA6FF00101B84764
:202B4C0094F8A30000F0FD0084F8A300F8BDC04698080020000000000000000800000000AB
:202B6C00000000802DE9F0412D4C0546A41C20781F4690460E46ADF1380D012803D0FFF702
:202B8C0013FD012020705EB1B8F1000F6E6007D0C5F80880FDF7A6FA617819B1FDF7A6FAEC
:202BAC00002038E0491CC9B26170FDF79FFA01241FB9684603F0D8FE6F4638682860786862
:202BCC00E860387A2874F8686861386900B1A8610021782205F1200000F01AFD05A8002129
:202BEC002422082304F0C0F98DF82C4005F13800002105AA04F0B4F905A8002124220823DC
:202C0C0004F096F905490B9505F17000002205AB04F08AF928460EB0BDE8F0817F6D00005A
:202C2C0088080020F8B504F027F804F031F8044604F00C000C2845D0E0081ED202F0EAFFB5
:202C4C00234E376805460120014603F044FB31686943884211D21F4C8220B0FBF7F0291A9F
:202C6C00204604F099F9204604F092F90120FEF7D5F8204603F010FB25E0200922D21648B0
:202C8C00610939BF016821F00101016841F0010102460160D2F898004FF0805440F003005D
:202CAC00C2F89800D4F8B8018069014620208847D4F8B801094C806B21688047012020603C
:202CCC00206800E030BF03F0DDFF00F0B3FFF8BD98720000BC0D00208C2108402C200940EE
:202CEC002DE9F0410E46294990461C4606AF8C4672680878BB8851783F881278002502EB33
:202D0C00012242F62321521A29D0521E052A18D9921F0CD0263A34D1072F30D8C7F1070024
:202D2C00984298BF83B2674407F1080121E0B84225DBC01B9842D8BF83B22380DCF804007E
:202D4C000BE0F06803F038FE80B2B84217DBC01B9842D8BF83B22380F06839180AE0082FEF
:202D6C000DD8C7F10800984298BF83B207EB0C010F31238040461A4600F04AF903E0072532
:202D8C0001E025800A252846BDE8F081B80A0020264838B550380468B4F1FF3F08BF0024EF
:202DAC0003F0D8FD22481749002510380560012008601549086001F00DFC1448006820B1C5
:202DCC00134800682046FFF7A1FD124812490560124C0A686FF35B4244EA02000860104950
:202DEC000868C0F30130012806D10A680D48104040F400320A6008600B4908680028FCD16B
:202E0C0038BDC0465C600C400822044380012843000120438C210840482003400000390108
:202E2C0004000940FFFFFCFC0C0068426C13005094046042F0B520480127F84201D001F053
:202E4C00FFFC204D204F214EBD4206D203CD0478A4003459401CA047F6E71D48002800D04F
:202E6C008047164D164FBD4202D210CDA047FAE7F0BD03251BE0416808300A1C2A400BD122
:202E8C001A1C2A40AB4305D0046804300C600431043BF9D1131C05D0047801300C7001311A
:202EAC00013BF9D1021C2A4001D0A84304300368002BE0D17047C046FFFFFFFF0000000088
:202ECC0000000000D4790000347A0000CC79000059C501102DE9F84302F056FF244C00254A
:202EEC00A5704FF6FF70A08202F052F91F4E01232A462070314604F1A80001F035FD0223B1
:202F0C002A4604F1CC00314601F02EFD04232A4604F1F000314601F027FD042704F1480869
:202F2C00102240462946E77000F072FB04F1580910224846294600F06BFB04F1200635601F
:202F4C002572072065721021A0724246E572022002F0E0FA032010214A4602F0DBFA384697
:202F6C003246014602F0D6FABDE8F8830D6800006C050020FEB5FEF761FA244C4FF6FF7572
:202F8C0000266C3C03F0FEF9002833D1009601A80DF106016A4602F0EFFC30BBBDF80400CC
:202FAC000127102811D120789DF8061088420CD1009801888D4205D14088000905D302F078
:202FCC0093F802E003F0D0FD0746009868B167B103F026FB09E0E06803F0BFFA071C04D0BA
:202FEC0003F0AEFA384603F003FBE06803F084FF0028F0D06088C108C4D320F004006080D9
:20300C0003F058FE03F0D8FBBCE7C04674020020002A4AD05FEA000C8B071CD1830722D1C1
:20302C00102A08D370B4103A78C978C0103AFBD270BC103238D0042A2CD3082A05D30C2A8E
:20304C0024BF08C908C008C908C008C908C092072AD0920F22E00B780370491C401C521E59
:20306C0022D08B07F7D1C30714D18307D8D0121F12D308C903801B0C4380001D121FF8D2AB
:20308C000AE008C903701B0A43701B0A83701B0AC370001D121FF4D2121D05D00B780370A0
:2030AC00491C401C521EF9D16046704700B5401EADF1240D1CD0C01E13D0401E14D0401E7D
:2030CC003BD103F0F7FD02F047F8401E694680B202F006FA88B305A940F21530FEF740FFFB
:2030EC002BE0174803F085FE142002F0C5FE24E04FF4417007A9FEF733FF00218DF8041072
:20310C009DF81D308DF803109DF81E208DF801309DF81C008DF802209DF81F108DF80000FF
:20312C009DF821308DF805109DF820208DF8073068468DF8062003F06FFC09B000BDC0463F
:20314C00740200202DE9F8432020EFF3118780F31188214CA068012103F0CAFE4FF001091B
:20316C004FF0000865692168A4F81C906A1A2168A4F81E80461B401A904227D387F311887C
:20318C0040464519361A4846294603F0ADFEB042F7D92021EFF3118781F31188E18B012934
:2031AC0003D14046294603F09FFEB0F1FF3F06D0A169801B814238BF081C411901E0A0692E
:2031CC00291803F08DFEA4F820902560A4F81C8087F31188BDE8F883780100202DE998435E
:2031EC00FCF780FF1F4CDFF87880814604F1E000007850B94446A0680146022088470746E3
:20320C00102001F01DFC2FB320E000F001FF002820460FD1144909683222B2FBF1F101B9BD
:20322C00012100F13004204603F0B6FE204603F0AFFE0FE044460022A16880F8E0200220EA
:20324C0088470746102001F0FBFB1FB1A0680146032088474846FCF749FFBDE89883C0468F
:20326C0024720000B00D0020987200002DE9FC41844608AF0878DFF87C803F88FF2402288A
:20328C0029D14E687578307842F6021600EB0520801B1AD04DF2EF65401B18BFB0F1020090
:2032AC0011D177B9012B0AD11078CA681070C968474600258F4214BF02242C1C0EE00D259A
:2032CC000AE00B2508E00A2506E00097604601F0DDFA054600E00125FF2C07D04046001DD0
:2032EC00006818B1016809B1204688472846BDE8FC81C0468C0C002070B51E4DAC680646FB
:20330C0003F0CAF94FF47A71001B4843030C02F04FFD2969401A48BF404240F6B8319B1982
:20332C00994210D306280EDAE9688C420BD8286848B1114A091B51438A0C02EB1141884270
:20334C0088BF011C08E00D49486840080ED208687D2100F0FF004143C82905D3B1F57A6F0E
:20336C0088BF4FF47A6103E0C82101E04FF4FA61084670BDD81C002040420F00AC3F005036
:20338C00F8B5001D84B214F0030002D0241A241DA4B203F0BBF801461948102C47680160D9
:2033AC00C8BF8768388800221646C30BDD0319D126B984420ADD3A46012617E01388C31815
:2033CC009BB29C42138011DC174618469FB1001B80B20428B4BF3C88385344F400443C80B8
:2033EC003F1D08E080F40040002680B2C71938880028DAD10027084603F061FA3846F8BD08
:20340C00D00E0020B0B50446A768ADF1280D27BB0C20FFF7B5FF071C16D06846002124223B
:20342C00082303F085FD002306976A466168ADF810301448059303F04FFD386038B903F013
:20344C0033FA384602F020FB6FF0030018E0E06878602069B860A7600AE003F057F805460F
:20346C00386802F019FF2069B860284603F027FA3868616803F090FD386803F089FD002051
:20348C000AB0B0BD496C0000B0B514460F46FCF729FE85B219480068007808B903F01AF8D8
:2034AC0087B1384602F0E1FB40B114B14FF0FF3020700820FFF758F9002419E038687968BB
:2034CC00BA6803E04FF480700122014602F07EF90B49012008600B4908684008FCD30A48CB
:2034EC0000684168022088470CB10021217004462846FCF7FBFD2046B0BDC046347200002D
:20350C00A802504208800240CC010010F8B50E46044603F035FD0546304602F04FFB071C2C
:20352C0003D1284603F028FD26E0F87F10F0070F1BD113487968884202D07968216678608E
:20354C0010A090E8060004F15807284687E8060003F012FD04F138004FF0FF3103F0D8FC95
:20356C0004F1680696E80300F8BD284603F004FDF87F10F0070FFBD102200021F8BDC046ED
:20358C008146000002000000000000701CB5042002F014FF022818D0032816D01648006803
:2035AC00C0F38150032814BF41F288324FF47A721248144C016854342046B2FBF1F103F0CE
:2035CC00EBFC204603F0E4FC1CBD03200C4C009000214FF040521C23204601F0A1F9012098
:2035EC0000214FF4007209230090204601F098F9022002F003F91CBDB43F0050987200000F
:20360C0000A00C40B00D0020002213460A46194671B510F0030F0BD0002A82BF00F8011B19
:20362C00B2F1010210F0030FF6D1002A08BF71BD11F0FF0141EA0121042A18D341EA01410C
:20364C00082A0FD30E46102A08D30C460D46B2F10F0312F00F0272C0103BFCD812F0080F0A
:20366C0018BF42C012F0040F18BF40F8041B12F0020F18BF20F8021B12F0010F18BF0170A9
:20368C0071BDFEE70246184808B50068C0F3046003F05CFA00EB2270401C162805DA10F1E7
:2036AC000A0FB8BF6FF0090000E015200F49104B00F01F0040F4F85008801868800803D24E
:2036CC000C490020086001E042F040620A49D00E930E80F0010000F00100086083F001003C
:2036EC0000F00100886008BDB81200506E6208400000094094042A430000204338B5054605
:20370C0001201A4C68712879B0B902F0FFFE2178002904BF6FF00704051C15D0491EC9B26D
:20372C00217039B903F0CBF8606802F0F7F80020687118E0054613E002F0E8FE05462078B1
:20374C00FF2805D16FF00604284603F0B8F80BE0401CC0B20128207002D1606802F0F5F8FA
:20376C00284603F0ACF80024204638BD0412002070B50646B079F5680628A5F108052CDAB5
:20378C003079062829DA02F0C1FE154CB27991000C3401EBC20161184968E1B103F08FF850
:2037AC0030792870B0796870307AA870B179880000EBC1002018F1684068083002F090F9AF
:2037CC00B179880000EBC10024186068406803F09BFB002070BD03F072F86FF0020070BD12
:2037EC00000F002038B519491A4C00204822C1F8F30F94F8E200C1F8FF2F20B3012817D05C
:20380C00022807D003281ED151F8310C00F024F80B2016E051F8315C2846FDF7FFFE40F267
:20382C00FF50A84202D8801CA842F1D2082008E051F8310C00F08EFB054800780028E7D06D
:20384C00052084F8E400FEF779F938BD39400C4032720000B00D002038B51A4CA0F5C0602D
:20386C00D4F8B810C4F8D4000029B8BF49420028B8BF4042814220DAB4F8BC00124D3021F7
:20388C004FF47F4208230090284601F049F8B4F8C00004214FF4F80212230090284601F0CB
:2038AC003FF8B4F8D00020214FF440620A230090284601F035F8012000E0002084F8D80065
:2038CC0038BDC046B00D002000A00C402DE9FF410E460546194C7188E08A81420CDCB18877
:2038EC00814209DBF088218B884205D13089618B884208BF18271DD0052001F073FA77886D
:20390C00B388ADF80270F288ADF804303189ADF806208046ADF80810A08AADF80000684671
:20392C0003F07AF9071C05D1A57304F1F000414601F0F6FB38460090BDE8FF816C050020F2
:20394C001A4898B5D0F8781203680F0F03F0FF03802B28BF002300F0BFFF4FF0FF3478B1DE
:20396C00401E07D0401E012802D9801E19D01AE0BFB118E0381C12D0801E14D1143311E0CA
:20398C003846401E0BD0801E07D0001F03D0401E09D1163306E0152405E0142403E00A242F
:2039AC0001E00A335CB2204698BDC046A0100050B0B5ADF1400D03F0E7FA044600213C2221
:2039CC000823684603F084FA114841680691816800680490104818380068002205900D48F7
:2039EC000891694603F070FA071C0DD002F08EFD0546384600F066FE30B1284602F05FFFDD
:203A0C00204603F0B5FA01E000F01AFD10B0B0BDAC6F0000956A0000DC0E0020F8B5174A4B
:203A2C00174B184C121D22F003019C4621605E1A2068256860606768A660002001E025F8CC
:203A4C00020BAB42FBD84FF6FC75B3102A4001EB830323F8040CACEB0202E82315403B8057
:203A6C00EC3DA1F8E850E83144F8081CFFF788FC44F8040C606844F8080CF8BD011D0020F6
:203A8C00483F0020DC0E002038B504461848174D001F02686B68C2F30351C2F303405B08AE
:203AAC0013D22B681D0511EB257103D41029A8BF0F2100E000211B0410EB237303D4102B64
:203ACC00A8BF0F2300E00023184640EA011002F47F4102F0FF03222C41EA004143EA010013
:203AEC0024BF02F08042104338BDC046AC3F00507C13005030B5401E4FF00004ADF12C0D5E
:203B0C000AD0401E04D0401E20D1FEF717F81DE000F0C0FB044619E001A8214624220823CE
:203B2C0003F006FA06940D4DADF8144009490794012201AB05F1780003F0F6F9064A2346D4
:203B4C002C2105F19C00009303F002FA20460BB030BDC046A13E0000F1370000B00D002000
:203B6C002DE9F041054615F8017B90460E461CE0B8F1000F05F101050BD0FF2C09D802203B
:203B8C0015F8011B401E41EA0424F9D101E0042C02D315F8011B00E0394630462246FFF733
:203BAC0037FDA61901E006F8010B15F8010B8742F9D115F8014B002CE9D115F8010B2C7873
:203BCC0000022418D4D1BDE8F08170470146184880B5983000688A0CC0F38367C0F38F2088
:203BEC0022D241F3072100290BD54A420021400805D17F0806BF0127381C4FF6FF70521EA9
:203C0C00F5D1002910DD4FF6FF72400040F00100824207D2780040F001070F2F92BF012098
:203C2C000F27101C491EF0D140EA074080BDC046B8120050164880B507683FB315498B68DB
:203C4C0003EA5300C00E21D2134A106880081DD2486880081AD21068096810F0050F4FEAB1
:203C6C00114101F0F00101F5E0710AD1B9420DD2190F38BF40F00100D90E38BF40F00400A6
:203C8C0003E0B94202D920F00500106080BDC04628500940AC3F00500000094070B50646E1
:203CAC00880F26D301F016F9124802F0A3FF134DA81C0078012803D006F1380003F024F9A3
:203CCC000D4800240460022001F098FD1120FEF74BFD307C10B90E20FEF746FD2846084A4A
:203CEC0004721178447221B11470C830042102F0C3FD70BDE529000000000460880800208F
:203D0C00EC1C0020F0B50E4615460746ADF11C0D03A902F011FA024605921AB30020009002
:203D2C00BDF80C00FF240DF11203294601903846029400F053FA041C0FD16889ADF8100089
:203D4C00700804D3384604A902F02EFC03E0384604A902F0ECFF041C05D004A81B2102F007
:203D6C00F5FA00E01524204607B0F0BD2DE9F84F061C28D01548017800244FF6FF7A81466F
:203D8C001FE0A00036F800B03518DA4515D0AF789FB102F00FF95FEA00080ED0780804D352
:203DAC00584601214246FFF7ADFFA878800804D3288802214246FFF7A5FF99F80010641C78
:203DCC00E4B2A142DDDCBDE8F88FC0466C0500202DE9F8438146EFF31188202080F3118803
:203DEC000125114E114CF561114F6560F86A016A14208847D9F81000810C14BF000C042019
:203E0C00A06138680268232100209047C6F88052206820F4C02040F480302060356088F3D0
:203E2C001188BDE8F883C046000024430020094084010010D0B5044603F072F800F042FCF8
:203E4C00071C08BF6FF002041FD002F05FFB0146A2880F480023243030F80C6F5EB9028051
:203E6C004760A26882602373786820610024084602F025FD09E0964208BF6FF00204F6D073
:203E8C005B1C062BE8D300F0DBFA2046D0BDC046DC0E00201648144A144908B5E430007889
:203EAC00801E0A2807D8DFE800F01814100614100614100609C003F03FF811E01068800816
:203ECC00FCD250688008FCD20AE008688008FCD306E008688008FCD202E010688008FCD3EC
:203EEC00FDF72CFE08BDC04634600C4038600C40B00D002010B5FCF7F5F8114C611C09782C
:203F0C0029B10E490C68FCF7F1F8204610BDFCF7EDF802F015FD0DA20CCA02F089FCA26CFB
:203F2C00002314001B1807A044EB010490E80600C91842EB04021046001C10BD04300440E7
:203F4C0088080020000000127A00000000093D0000000000134910B50A684BF2F521484362
:203F6C00040AC2F38140012806D101F021FF00F093FF604304EB90540C4901F1E500007804
:203F8C0030B90948006820F07F402418640802E0002081F8E50006480460210C41600123F8
:203FAC00836010BDB43F005010200940B00D00203C600C40B0B5044602F088FE30F001007C
:203FCC0008BF6FF004041ED002F0AAFF054602F09DFA01460D480622303030F80C7F6FB153
:203FEC00A388BB4208D1406800680022854208BF0122A260002403E0521EEED14FF0FF3427
:20400C00084602F05CFC2046B0BDC046D00E002008B5012002F0D2F901281DD00F483421C8
:20402C000122002300F07EFE002808BF002014D00B48006801F00CFF02F02EFB0A4A9368AE
:20404C001168D060C01A074BA1EB91014343180C884228BF011C1160012008BD00A00C40A6
:20406C008000001040420F00D81C002098B5154B1B1D18680004070C21D001F099FE1049B1
:20408C0091F90720824205DD10F1800FB8BF6FF07F00C8718C88BC4210D80A68D3F8D40F85
:2040AC00801A801C1F2888BF1F203F1B4008C7404FF6FF70E719B84238BF071C8F8098BD1C
:2040CC00F41C002030100940154B10B3401E1BD0401E14D0401E0AD0401E1FD105291DD1CB
:2040EC00116818460C300160137903717047012914D111781846C1708068FFF737BE012965
:20410C000CD11846801C07E0012907D11846401C02E0012902D11846117801707047C04625
:20412C008C0C002098B5134C0C342068011D4068406810B180472168091D08680830016891
:20414C0009B94768A7B10C4A1C321768002FFCD00023136029B1084680472068001D0068DA
:20416C000830406800B180470448503802F044F898BDC0468808002000100440510007061C
:20418C00F8B50746FBF7AEFF124C06462079E0B1401EC0B22071C0B904F1C800082102F0F4
:2041AC006BFB97B1E068703002F076F8E0680A4DC0683F1A286804F1A405B7FBF0F12846AE
:2041CC0002F0EAFE284602F0E3FE3046FBF78EFFF8BDC0468808002098720000B0B504AF36
:2041EC003F88002F18BF0B2025D1087802281FD14D686C782F7800204FF6F17507EB042703
:20420C007F1B012F0ED9FF1E0CD07F1E1CBF011C0A200FD105241C80C9680B6813600979EB
:20422C001171B0BD01241C80C96809781170B0BD002101201980B0BD1549096821280ADCDC
:20424C00212819D00C380FD00D380FD0001F0FD0C01E0FD01AE0253810D0001F10D0401E8A
:20426C0010D0401E10D011E0086870474868704788687047C8687047086970474869704777
:20428C0088697047C8697047086A704700207047F001002038B5134D95F8E100002410B9C9
:2042AC001148007860B1FBF71DFF95F8E310002906BF012185F8E3100124FBF717FF0CB118
:2042CC00002038BD022001F0B1FA0E20FEF7B6FA01F0B8FE01280EBF0120002085F8E200EF
:2042EC0038BDC046B00D002032720000012838B51ED1012002F062F801281BD002F0E4F9E1
:20430C000D4D0E480122322305F1E00100680A70B3FBF0F404B914463035284601F0BCFF88
:20432C002846214602F038FE284602F031FE01E001F06EF8002038BDB00D002098720000B1
:20434C00084610B500F0005100F00400084317D0012002F033F80E4C01280CD00949096877
:20436C006C3432222046B2FBF1F102F015FE204602F00EFE10BD044802F03CFC03480460ED
:20438C0010BDC04698720000ED05000000100440C008002038B51248104C0168114D0C4050
:2043AC00E1430160A10908D34068800905D328464FF40051C83002F05FFA14F4602F0BD027
:2043CC00284600F19C010A6804F46024FC3014430C60002102F050FA38BDC04620000E0072
:2043EC00081004408808002098B50446FBF77AFE8446104890F8A310C90803D390F8A21066
:20440C00A14213D0B0F8A0300B4F012202FA04F11943A0F8A010391D0B6804F10C07BA4075
:20442C0093430B600F680FB9002101706046FBF75DFE98BD880800200810044000BF704794
:20444C0008B5FFF7FBFFFEE738B50D4C0546A06820B10C48B0F1FF3F00D080470A480068D0
:20446C008047606810B1014628468847206800B18047064800688047FFF7E2FF38BDC0460D
:20448C00D8110020FFFFFFFFFC11002000120020DCB5044602F044FD01F068F9064602F00E
:2044AC0015FC30F0010014BF002E6FF0040017D0606858B1B0F1FF3F05D0694601F03EF917
:2044CC0030B107460BE04FF0FF3000E0002000907068009902F01CFD002700B901273846B7
:2044EC00DCBDFEE7F8B5124C6678E578182001F033FE071C19D00421002202F067FA304676
:20450C0001F06AFD38727D720020B87204F14806FE6004F158033B6104F120027A6101F0E4
:20452C002BFE024A394600F06BFDF8BDA36D00006C0500202DE9F04104461148401C90F8FF
:20454C00008016460D46102001F006FE071C12D00421072202F03AFA404601F03DFD387227
:20456C007C72BD72FE6001F007FE044A394600F047FDBDE8F0810420BDE8F081CD6D000033
:20458C006C050020F8B5044602F0CAFC00F09AF8071C19D001F0BAFF84460D480021243003
:2045AC0030F80C6F6EB94FF6F872028047600025856021717868A060604602F080F9284652
:2045CC00F8BD491C0629EBD3FFF73AFFF8BDC046DC0E00200F4908680028FCD1104A131D8D
:2045EC000D49186820F0030001430C480068C0080CD2106810F0030F0AD041F00300186010
:20460C00106800F003000328FAD101E041F00101196070470C00684204000020B03F0050D0
:20462C0000400340F8B516460C46FBF75BFD02460F484178832554B1641E02D0641E10D08B
:20464C000DE08179012904D0B0F8A01005E0876A0FB9802506E0806A818B318002E0032537
:20466C0000E031701046FBF741FD2846F8BDC046880800202DE998430446276E99469046C9
:20468C0007B1B8470020022100EA090001EA0801002808BF00290BD104F1580090E806006E
:2046AC0008EA010109EA0200002808BF002907D004F1680080E8000304F1380002F024FC0F
:2046CC00BDE898832DE9F843804601F01FFF0F4C03250026814654F80C7F5FB93046C4F857
:2046EC0000800146A6600A4602F0EAFB606018B9FFF7A6FE474501D1264601E06D1EEAD19E
:20470C00484602F0DCF83046BDE8F883DC0E0020B0B5054602F004FC044602F0D7FA30F0CA
:20472C00010008BF6FF0040414D001F0EFFE0A4A002132F80C7F4FB153681B689C4204BF73
:20474C002971002404D0491C0629F2D36FF0040402F0B5F82046B0BD000F00207CB5114DCB
:20476C0004460E46600807D3B0B20021009001220B46284600F0D4F8A00807D3B0B2009028
:20478C00002102220123284600F0CAF8E00807D3B0B2009000210C220223284600F0C0F846
:2047AC007CBDC04600A00C4038B50546287B00F00F00022818D10D4C2078012814D0FFF7E1
:2047CC0099FBA9686FF070458908A1EB900085420ADDB0F1704FBCBF05490844E168C968CA
:2047EC0001F57A71814200DB002038BD88080020F6FFFF1F10B50178A23902D02E391AD01A
:20480C0010BD4179132918D100890C4C01280AD12046F038817B022905D1F03002F0E9FA7B
:20482C0001F0B6FE10BD052000F0DCFA0146204600F076FC10BDFCF75DF810BD5C0600209C
:20484C00F8B506460F4D104F7388002417E0A00000EBC400321851689068D26852B9AF4202
:20486C000BD00A7855F822200346491C08461946904701E0FEF7CCFB7388641CA4B2A342BB
:20488C00E5DCF8BDCC790000D4790000F8B506AF3F880D460646E7B9022B18D15078147832
:2048AC0004EB002434F001000FD1E9680968304602F0CAF8844208BF00200BD0E96809689E
:2048CC003046224601F010FAF8BD8020F8BD0D20F8BD0B20F8BD7047104A1068C0F30F31AB
:2048EC004BF69A10884207D111680B20B0EB117F14BF0020042070472430884208BF01207C
:20490C000BD04BF64130884208BF032005D0213888420CBF02204FF0FF30704718130050C5
:20492C00B0B500EB4100102B04AF00F5007403D3103B00F50174120C3D889D4045EA0245C2
:20494C0002F09AF9002700B90127064A394610680028FCD025600120106009B102F092F936
:20496C00B0BDC04600800C40F0B50D4614461F460646ADF1240D002124220823684602F0E8
:20498C00D7FA00200590ADF8100008484FF47A71A2B26B4600680697B1FBF0F080B229461B
:2049AC004243304602F0C0FA09B0F0BD987200002DE9F04104461E4690460D46142001F091
:2049CC00CBFB071C13D03246032101F0FFFF3C81002038744046FD6001F0FEFA787401F042
:2049EC00CBFB044A394600F00BFBBDE8F0810420BDE8F0818165000038B502F065F8FCF7BD
:204A0C00F5FE4FF08055D5F8D8010C4C036801210A4620469847D5F8D8014268012120468B
:204A2C00904701F075F9FEF7C3FF00F03BF900F08DFA02F041FA002038BDC0460040034017
:204A4C0070B5104C0646204602F068F90025B0B9204602F0C8F90446A06806420AD0E06861
:204A6C00226900210346304698470546012D08BF012005D0204602F0B8F9041CECD1284656
:204A8C0070BDC046B00D00200F4A01461068ADF1080D08B9002010600846801E12D0801E72
:204AAC0010D0401E07D001208DF801009DF801000028FBD106E001208DF800009DF8000083
:204ACC000028FBD102B070470C0200200E48B0B54578848A0E2001F03FFB071C11D0042137
:204AEC000A2201F073FF284601F076FA38727C811320387301F040FB044A394600F080FA64
:204B0C00B0BD0420B0BDC0466C050020C76D00002DE9F04102F0E6F80D4D2B688046A3B1A2
:204B2C0005F194060024012707FA04F018EA000F07D056F8240020B1026812B12146904702
:204B4C002B68641CE4B29C42EED3BDE8F081C046001B00200A460F49F8B5CF788D784E7843
:204B6C000C78002398B1401E10D0401E0DD0401E0AD0401E18BF02230AD108460C30016860
:204B8C0011600079107103E03D462E46344614701846F8BD8C0C00200C4885460C488544BF
:204BAC006F4607208743BD460A486F4607600A48002803D07946491D8E460047FEF73AF91D
:204BCC0001F02AFE02F074F9FEE7C046483F00200004000070120020FD6C00002DE9F04169
:204BEC0004460E48057890460E46102001F0B4FA071C10D03246042101F0E8FE284601F0BD
:204C0C00EBF93872FC6001F0B7FA3946424600F0F7F9BDE8F0810420BDE8F0816D05002033
:204C2C00D0B504463C20FEF7ABFB071C14D000213C22082302F04CF9207AB8616089386284
:204C4C00E068386160683946002202F03DF90646384600F019FF16B96FF00300D0BD002026
:204C6C00D0BD70470E480EB5F0388178062916D1B0F84010ADF80210B0F84230ADF80430F2
:204C8C00B0F84420ADF80620B0F84610ADF80810CC3002F0AEF801206946FEF717FE0EBD3D
:204CAC005C06002000B500213C220823ADF13C0D684602F00DF9094800F5B27107914FF436
:204CCC00DC71089103210691054900236A4600F58A7002F0E9F80FB000BDC0466C05002031
:204CEC00CD230000F8B506460C48006844880579102001F031FA071C0DD00221152201F022
:204D0C006BFF3C81BD72FE6001F036FA044A394600F076F9F8BD0420F8BDC04618020020B8
:204D2C00AD6B0000F8B51E4614460D18102E02D3103EAD1C240C01F09FFF002700B90127CE
:204D4C0007483B460768002FFCD02D88012101600BB101F097FF2C403441A0B2F8BDC046A4
:204D6C0000800C400E4938B5CA68824210D1487801280DD1FBF7B6F90546084801F03CFA16
:204D8C0004462846FBF7B2F904F0FF00012802D06FF07F0038BD4FFAA4F038BD0100030417
:204DAC00880800202DE9F0410446984616460D460E2001F0D1F9071C10D0812038700123C0
:204DCC00FB70BC803D817E81A7F80C8001F0D4F9069A394600F014F9BDE8F0810420BDE87F
:204DEC00F081FEE73EB505460020ADF804000A2001F0B2F9041C0DD00421312201F0E6FD3B
:204E0C00258101F0B9F901A90223044A0091214600F014F9BDF804003EBDC046AF6D000055
:204E2C00F8B5044616460D46142001F095F9071C0FD00421022201F0CFFEBC60BD8110207A
:204E4C00B8733E6101F098F9034A394600F0D8F8F8BD0420F8BDC046916B000070B504466F
:204E6C00606810F07F4F18BF6FF0020011D101F04DFB084D0646287828B1686800F04EFD18
:204E8C00606800F062FD60686860304601F017FD002070BD041200200D4938B5D1F8EC3237
:204EAC0009681B3800FB00F409060A1643F3072100FB01F519066043091661434243891210
:204ECC0001EBE50101EBA24000EB234038BDC046A41000500C49086820F0020040F400705E
:204EEC0008600A48032140F8041C41F230018160012101605022826001604FF4CA628260A2
:204F0C00016040F80C1C7047000004600C410440F0B5044605AFADF10C0D03B9084B97E830
:204F2C0060008DE86000FCF7CBFE011C44BF05A003C802D42046FEF7E9FA03B0F0BDC0466A
:204F4C0081460000000000000000008000B500213C220823ADF13C0D684601F0B9FF084811
:204F6C0000F1E00107914FF42171089101210691044900236A46903001F096FF0FB000BDB2
:204F8C0008020020812F000038B50446FBF7AAF805460B48401C007868B1204601F02CF959
:204FAC0004462846FBF7A2F804F0FF04012C0CBF8120022038BD2846FBF798F8012038BDF4
:204FCC0088080020B0B504460D46102001F0C4F8071C10D02146062201F0FEFD00203881DF
:204FEC0015247C81054AFA6001F0C6F839462A4600F006F8B0BD0420B0BDC04640020020D4
:20500C001CB51446CA78012A02D18A880A4B1A8000F0A8FD30B9002000906946204601F0E4
:20502C0078F918B101F048FA044603E00098447801F00EFB20461CBDE411002038B51C46D9
:20504C00154600F08FFDB0B9002000906946284601F05FF978B90099487848B90846C179DB
:20506C008C4205D10146049889682246FDF7D0FF009801F0EDFA38BDF8B5044616460D4676
:20508C00142001F069F8071C0ED00121142201F0A3FD3C72FD603E820420B87401F06CF824
:2050AC00024A3946FFF7ACFFF8BDC0469F6B000010B504460B4802680023D9075008014348
:2050CC00D007801A4FF47A729941FCF7BDF8002908BFB0F1004F28BF6FF00040606000205C
:2050EC0010BDC0469872000038B50C4C103C206990B161780830491C6170FFF7F3FD0546F4
:20510C00162D09D0042D07D020694088002100F0A5FC284600F0B0FE38BDC046180200201B
:20512C0038B50D46044601F06CFE10B1204601F0B3F8084800684FF47A71B1FBF0F080B217
:20514C0005FB00F1204601F027FF204601F020FF38BDC046987200001CB500208DF80400E0
:20516C00082000F0F9FF041C0CD00121182201F033FD01F001F801A90123044A009121469C
:20518C00FFF75CFF9DF804001CBDC046C96B00001CB500208DF80400082000F0DDFF041C78
:2051AC000CD00121122201F017FD00F0E5FF01A90123044A00912146FFF740FF9DF80400F6
:2051CC001CBDC046D76B0000F8B505460B48183804780E460A2000F0BFFF071C0CD02946F1
:2051EC00324601F0F9FC204600F0F6FE387200F0C3FF394600F0B6FCF8BDC0462002002081
:20520C002DE9B0430F46044601F0F9FD04F1280292E800034B464246FCF716F805460B46A1
:20522C002A464046494601F003FB17B1303484E803002846BDE8B08398B50146886840F653
:20524C00030320271A46521C02E040687F1EFFB260B15FB10488A34218BFA242F5D1C9680B
:20526C001CC820311CC189C881E8890098BDFEE7F8B5044616460D46102000F06DFF071C3E
:20528C000CD00421362201F0A1FB3C817D81FE6000F072FF024A3946FFF7B2FEF8BDC04676
:2052AC00916D000070B505460E460C2000F054FF041C0CD00421302201F088FB258166813D
:2052CC0000F05AFF034A2146FFF79AFE70BD042070BDC046BB6D0000024680B5062A0CDAF8
:2052EC00094F900000EBC20007F10C02175A13181FB14FF6F870B84202D14FF0FF3080BD76
:20530C0018880880002080BD000F002010B5044601F006FE00F02AFA002808BF6FF0040063
:20532C000DD0083000F056FBA06038B110F8081C217110F8070CA071002010BD022010BD5C
:20534C0010B5044600212C220823ADF1300D684601F0C2FCE0200890A168606800236A4624
:20536C0001F09EFD002818BF002001D1FFF768F80CB010BD10B5044600212C220823ADF17E
:20538C00300D684601F0A8FCE068A1680890606800236A4601F084FD002818BF002001D19A
:2053AC00FFF74EF80CB010BD10B5044601F0AEF8094B0022014633F80C0F30B1A04208BFE9
:2053CC00D4B203D0521C062AF5D3FF24084601F076FA204610BDC046000F0020B0B50A4C0D
:2053EC000D46241801F048FC002700B90127074A394610680028FCD025600120106009B1C9
:20540C0001F040FCB0BDC04600A00C4000800C4008B503200021FFF7A1F9012000F0CEFFB9
:20542C0018B10648006800F013FD01F035F9044B083B586000F0BCFC186108BD8000001002
:20544C00E01C002038B5FAF74DFE05460948E030007838B106480024342101222346FFF7A5
:20546C0061FC00B101242846FAF740FE204638BD00A00C40B00D0020F8B5064637680D4641
:20548C0000242C601FB9FAF72DFE374608E0FAF729FE00E03F6839680029FBD1BD4201D0F2
:2054AC003D600124FAF722FE2046F8BD10B504466078162804D16088082100F0CFFA30B14D
:2054CC00217904F1080000F041FF012010BD012000F0D2FC01480460002010BD1802002058
:2054EC0070B505460E46102000F036FE041C0CD00121192201F070FB2581E66000F03CFEBD
:20550C00034A2146FFF77CFD70BD042070BDC046BB6B0000F8B5044616460D46102000F0EC
:20552C001BFE071C0CD00521012201F04FFA3C727D72FE6000F020FE024A3946FFF760FD9D
:20554C00F8BDC046D96D0000F8B5044616460D46102000F001FE071C0CD00521022201F03F
:20556C0035FA3C727D72FE6000F006FE024A3946FFF746FDF8BDC046DF6D000038B50546BE
:20558C000C2000F0E9FD041C0DD02946002201F023FB4FF0FF30A06000F0EEFD034A214663
:2055AC00FFF72EFD38BD042038BDC0460F5A0000F8B5044616460D460C2000F0CDFD071C92
:2055CC000DD02A46042101F001FA3C810520B87200F0D2FD39463246FFF712FDF8BD0420C1
:2055EC00F8BDF8B5044616460D46102000F0B4FD071C0DD02A46042101F0E8F9BC600020D0
:20560C00F86000F0B9FD39463246FFF7F9FCF8BD0420F8BD1078802811D1508840F27F6114
:20562C0081420CD190883F21B1EBA02F07D1C0F3C211042903D100F07F00834201D0002057
:20564C007047012070471078802811D1508840F27F6181420CD190883F21B1EBA02F07D158
:20566C00C0F3C211032903D100F07F00834201D000207047012070471078802811D15088FA
:20568C0040F27F6181420CD190883F21B1EBA02F07D1C0F3C211052903D100F07F008342D5
:2056AC0001D0002070470120704770B5044604F128020CCA0846002101F0BAF804F13002C1
:2056CC0092E860002D1846EB0106290C3004014300F00CF9383484E8600070BD10B5401E3D
:2056EC0014460DD0401E09D0801E05D0001F01D0FEF7A6FE052004E0002002E0042000E025
:20570C000220226821469047002010BD10B50446A1686068086001F029FB38B10549A36807
:20572C00054A096800F080FB002010BD6FF0030010BDC04694720000E95600000A4A10B5B2
:20574C0012680C464FF47A710023A1FB0001FBF77BFD002908BFB0F1004F2EBF6FF00200EB
:20576C002060002010BDC0469872000038B5054600F0CCFE084C03220146243C54F80C0F27
:20578C0018B1A84202D0521EF8D10024084601F096F8204638BDC046000F00200949020466
:2057AC0080B5120C41F8082CC0F3074041F8040C0120086004480768002FFCD00020086013
:2057CC0080BDC04644600C4084088C4310B50A4C2368C1F30F2102F00F02C0F3871009044B
:2057EC0040EA022023F4806323601B041B0C0B4323600143616010BD1480024010B5044606
:20580C00FAF770FC084BE21892F8E810491EC9B282F8E81021B99A680121A1408A439A6056
:20582C00FAF764FC10BDC046B00D002038B50446FAF758FC084A02F108031D680121A14007
:20584C0012192943196092F8E810491C82F8E810FAF74CFC38BDC046B00D002010B501F00C
:20586C008FFB01F091FB032001F016FB06481030006830B1034C204601F098F8204601F08C
:20588C0092F810BDB1690000A401002008B501F035FA012801D0FEF724FE074801F0F8FAA6
:2058AC0000F0F4FB01F0F0FA01F0EAFA01F0E4FA01F0DEFA08BDC04669580000084910B513
:2058CC00002008600120C861064CA062A16A206005480068016A14208847A06A10BDC0460B
:2058EC000000244304200940B001001010B50C4600F0D2FE211AB1F1004F08D8011B091DE2
:20590C00C90F05D1001DA04288BF041C00E0041D01481830046010BD0020094038B5044604
:20592C0001250DE0C0F11F0005FA00F1052881EA040403DB401FFCF717FF01E0FFF75EFF6E
:20594C00B4FA84F02028EDD138BD38B5044601250DE0C0F11F0005FA00F1052881EA040474
:20596C0003DB401FFCF76AFF01E0FFF75FFFB4FA84F02028EDD138BD7FB50646082014462E
:20598C000D46ADF800000920ADF80200684600F0A1FBBDF8041031809DF8061029700299A0
:2059AC00216000907FBD7FB50646082014460D46ADF800000920ADF80200684600F08AFBA1
:2059CC00BDF8041031809DF8061029700299216000907FBD98B5044600F098FD2168002947
:2059EC0008BF002709D00F4657F80C2C2260002347F80C3CFF2401F8024C00F060FF384695
:205A0C0098BD1078911D802810D1508840F27F6383420BD19088032818BF042806D109783B
:205A2C0031F0100014BF1129012000D00020704710B50C2000F090FB041C0BD001210422A5
:205A4C0001F0CAF804480C30A06000F095FB214600F088F810BDC0462002002038B505465B
:205A6C000848103800780C4600F0B6FAC2B204482946234600904FF61840FFF793F938BDDC
:205A8C00636D00001802002010B5044600F03EFD074934F8042C6FF3DF3224F8042C4A6899
:205AAC000860241F944238BF4C6000F008FF10BDD00E00200EB50820ADF800000420ADF89B
:205ACC0002000648007880000190684600F002FB002814BF002002980EBDC0466C0500202F
:205AEC0038B50C46054600F011FD002144F80C1C296811B92C6006E0114651F80C2C002ABE
:205B0C00FAD141F80C4C00F0DAFE38BD10B5044660680C3080B2FDF733FC50B1A1880023AB
:205B2C000181FF22036000F10C0182721846A16010BD6FF0030010BD38B50546FFF7E6FBF7
:205B4C00041C0DD128796946FFF7C6FB28B1A86800F072FD6FF0050038BDBDF80000A880B6
:205B6C00204638BD00B5ADF1140D8DF8040003910822ADF80020ADF802201020ADF806009C
:205B8C0002208DF80800684600F0A4FA05B000BD202838BF07480BD30748016808038215D6
:205BAC00920500F47C1001F00F01104340EA01307047C04600803F409813005009490246C2
:205BCC000823C87F30F07F0005D0B1F91C00824208BF081C04D05B1E01F12001F1D100201C
:205BEC007047C046B8090020B0B504460D46082000F0B2FA071C0BD0812038700123FB705F
:205C0C00BC8000F0B9FA39462A46FFF7F9F9B0BD0420B0BD38B52020EFF3118580F3118813
:205C2C00064CA068002101F063F96169081AA169814238BF002085F3118838BD7801002021
:205C4C0010B50C46ADF1180D02900821ADF8001019216846ADF802104FF0FF31019100F05E
:205C6C0039FA0499216006B010BD02464FF0FF307AB1116819B140290BD3890B09D15168B2
:205C8C0019B10B0A05D0090E03D191680F2998BF0020704770B515460C46064600F02BFAC7
:205CAC00011C03D1284600F0AFFC70BD8D60304601F0DAF814B1204601F026F970BD80B5EE
:205CCC00107802AF80280DD1508840F27F61814208D19088834205D138789179884208BF75
:205CEC00012000D0002080BD70B515460E46044600F012F948B94FF6FF70314600F00CF910
:205D0C00002808BF112002D004808570002070BD084A00210320134643F80C1F401E996013
:205D2C00FAD130320620401E22F80C1BFBD100F01BBBC046DC0E002098B50F46044600F0E7
:205D4C00E5FB57B13A4600E00A4652F80C1C0029FAD1216842F80C1C276000F0B0FD98BDD5
:205D6C000EB50820ADF800000120ADF80200684600F0B0F903499DF8040008700298886099
:205D8C000EBDC046080200200EB50820ADF800000120ADF80200684600F09CF903499DF890
:205DAC00040048700298C8610EBDC0466C0500200748816841F31002064991F90010006827
:205DCC00A0F5407041430811121A803210127047285009400C130050084808B52C3003681A
:205DEC00FEF77AFD03F07F03012804D100F060FC022808BF5B1C184608BDC0461813005060
:205E0C0038B5FAF76FF9074C054694F8E000012804D1FEF7FDF8002084F8E0002846FAF763
:205E2C0065F938BDB00D002010B5044610460A46211C14BF0028022006D0C8608A600348E4
:205E4C000B6100F091F8002010BDC046B00D002070B5054600F010FF002400B90124054EBD
:205E6C0030680028FCD0A847012030600CB100F009FF70BD00800C4010B5084C216861B188
:205E8C0020B101F10800097900F060FA103C206900F0C6FB00202061607010BD1802002061
:205EAC0010B5FFF707FE064CA06038B100F034F9044A204611211430FEF7B2FF10BDC0461B
:205ECC008C0C00205072000008B5FAF70BF9064A117880B229B90549096800230B7001231C
:205EEC001370FAF703F908BDD51100203472000010B5084C06492069814202D100F020FD21
:205F0C00606104F1C800042100F0B6FC10BDC046E529000088080020034608460749097837
:205F2C0049B1021F084632F8041F8B4208BF101C02D0401EF7D100207047C0466C05002079
:205F4C0008B5283090E80C0005A003C8FBF77CF9002908BFB0F1FF3F88BF4FF0FF3008BD7C
:205F6C0000000000907E000038B50D46044600F036FF00212A4623461160596851605968BA
:205F8C0001B921460A605A60FAF7B0F838BD38B505460A2000F0E0F8041C09D001211522A6
:205FAC0000F01AFE258100F0E7F82146FFF7DAFD38BD7047074910B5112201F11400C468FE
:205FCC00CB1CA34204D0521E00F11000F7D1002010BDC0468C0C00200EB58DF80600502172
:205FEC00ADF8001068460021ADF8021000F072F8002814BFFF209DF807000EBD0EB5082094
:20600C00ADF800002020ADF802001020ADF80400684600F05FF8002814BF002002980EBD9A
:20602C0038B50D46044600F0B7F802460448016822B1148095704068FFF72CFE38BDC046FF
:20604C001002002006490868002818BF012005D1044B4020012218600020CA617047C046FB
:20606C0004800C402C500C4008B500F039FB00F0804100F00200084305D003484FF00051FD
:20608C00C83000F0F9FB08BD88080020074808B51030006828B1034800F088FC024800F01D
:2060AC0082FC08BD856200006D680000A4010020074810B51030006830B1044C204600F0CD
:2060CC0075FC204600F06FFC10BDC046E3480000A401002010B50446208800F07DF838B1BA
:2060EC00816811B12046884710BD6FF0010010BD4FF0FF3010BD0EB50820ADF800000420CB
:20610C00ADF802000C2001906846FFF7E3FF002814BF002002980EBD01460648007840B10B
:20612C004FF6FF73091F002221F8043F401E8A70FAD170476C0500201CB5064A14683CB101
:20614C00024600911B2301204FF6FF71A0471CBD00201CBDE81100200EB501900821ADF852
:20616C00001068460221ADF80210FFF7B3FF002814BF002002980EBD0EB50820ADF80000C3
:20618C001A20ADF802006846FFF7A4FF002814BFFF209DF804000EBD0EB50820ADF80000BD
:2061AC000420ADF8020001906846FFF793FF002814BF002002980EBD08B542882D2A28BFFC
:2061CC006FF0010004D203490C3151F82210884708BDC046B86F000008B5FFF7E5F8FF2801
:2061EC0008BF002004D0034B810001EBC001581808BDC0460C0F0020064A014610680028AF
:20620C00FCD10023D3611160D0690028FCD0D3615068704700100440064802680A608268AD
:20622C004A60C268406B8A6020F0784040F08050C86070474C130050202838BF002008D359
:20624C0004481C300068C10C01F44071C0F38450084370477C13005006490822C87F30F077
:20626C007F0008BF081C04D0521E01F12001F5D100207047B809002010B5064C206900F043
:20628C00EFFD0146A06800B9E160A068401CA06010BDC046A4010020002181820449C06828
:2062AC004969814203D10348006800F071BE7047780100209C72000010B50446E088FFF7EC
:2062CC0073F8FF2808BF4FF0FF3003D0A0712046FDF74EFA10BD02294FF0000204D001282F
:2062EC0008BF4FF47A7203E0012808BF40F2EE22104670471078802809D1508840F27F6186
:20630C00814204D19088834208BF012000D00020704738B50D460446FFF770FE002818BF80
:20632C006FF0040003D120462946FFF789FC38BD0449887820B90448001F486200F05BBD92
:20634C007047C0466C0500202002002010B504460448001D03681BB10A460120214698473B
:20636C0010BDC046E8110020054808211C38A0F84C1002494165FDF751BBC046C56100004A
:20638C00DC0E00200EB50820ADF800000A20ADF802004FF0FF3001906846FFF79BFE0EBD7F
:2063AC000EB50820ADF800000A20ADF802004FF0FF3001906846FFF78DFE0EBD042807BF85
:2063CC004FF0C0421D234FF080521C2301483421FEF7A8BC00A00C400548083801680348BC
:2063EC00084001F07C4108437047C046FCFCFC007C1300500549983108680968C0F387008E
:20640C0001F0030140EA01207047C046B8120050002948BF0021044A02EB8000026861F38F
:20642C00050202607047C046001008400348016803480160034800F01FBAC046E020024016
:20644C00E0200260601B0020054A0C321268824218BF032002D10846FEF796BD7047C04648
:20646C0088080020054A0C321268824218BF032002D10846FEF788BD7047C04688080020D3
:20648C0010B5F9F72FFE84B200F024F82046F9F72DFE014810BDC046347200000548E23822
:2064AC000078401E03D0401E03D100F071B8FEF7D9BB70475C06002050B110F1040F08BF3E
:2064CC00042006D010F1030F0CBF0220012070470020704705490A68107828B9012010703D
:2064EC0048680068FCF7AAB97047C0463472000008B50548034A416801201060486989698B
:20650C00884708BD04200940E401002010B500F03BFD80B260F30F04F9F7E4FD80B260F38E
:20652C001F44204610BD1CB5044660686946FFF705F920B9009860602046FCF763FF1CBD6E
:20654C0001460888401E04D0401E05D1887800F0CCB98878FCF7AABD704710B5044600F06D
:20656C007BFC844204D0846800F04EF8204610BD002010BD10B51D23FFF765F8012420B966
:20658C001B23FFF760F800B90024204610BD00000448801C0078062818BF072801D1FEF7F8
:2065AC0095BA70476C05002038B50C460546FFF7E3FD02461B2321462846FEF7F9F938BDA1
:2065CC0008B5406810F07F4F18BF6FF0020002D1FFF7A4F9002008BD08B5406810F07F4FC6
:2065EC0018BF6FF0020002D1FFF7AFF9002008BD0EB501900821ADF8001068460521ADF856
:20660C000210FFF767FD0EBD0EB501900821ADF8001068460521ADF80210FFF75BFD0EBD61
:20662C000EB501900821ADF8001068460321ADF80210FFF74FFD0EBD0EB501900821ADF864
:20664C00001068460321ADF80210FFF743FD0EBD0EB501900821ADF8001068460321ADF8EB
:20666C000210FFF737FD0EBD0EB501900821ADF8001068460321ADF80210FFF72BFD0EBD63
:20668C0010B50446A088FCF77BFE0028A06014BF00206FF0030010BD044801684368026837
:2066AC008A42FAD1080440EA1340704708200940044884380068C0F302400428C8BF4FF02F
:2066CC00FF3070471813005008B503200121FEF745F8FFF7E1FF0149086008BDE01C0020B0
:2066EC00044908310868C3430B600A681042FBD17047C04608100440222805D303481030D1
:20670C000068C0F300707047012070477C130050222805D3034810300068C0F34070704745
:20672C00012070477C13005004480C38006800F47C010004000C08437047C0467C13005036
:20674C00202805D303481C300068C0F301507047002070477C130050222805D303481030F0
