:1000000050430020BD88000001CA011001CA011040
:1000100001CA011001CA011001CA011001CA011070
:1000200001CA011001CA011001CA011001CA011060
:0C00300001CA011001CA01103FCA0110F2
:100100003C0000000000000000000000340100007E
:1001100000000000000000000100000000000000DE
:1001200000000000000000000000000001000000CE
:100130000000000008000000000000003400000083
:100140000000000000000000680100000000000046
:10015000000000000100000000000000010000009D
:100160000000000000000000080000000000000087
:1001700030000000000000000000000098010000B6
:10018000040000000000000001000000FFFFFFFF6E
:10019000FF00000001000000080000000000000057
:1001A0002C0000000000000000000000C40100005E
:1001B000040000000000000001000000FFFFFFFF3E
:1001C000FFFFFFFF080000000000000034050000F2
:1001D000E401000099A1011095A70110A5C201102A
:1001E00009B2011045B80110000000000000000035
:1001F0002F000000280000000000000000000000A8
:10020000140200000000000000000000FFFFFFFFDC
:1002100000000000080000000000000030050000A1
:100220003002000069C201106DC101101FC201102F
:1002300095BA011000000000000000002D00000031
:10024000300500005402000075C20110A9B601106B
:100250009DBF011049B60110000000000000000021
:100260002E0000002400000000000000000000003C
:1002700080020000000000000000000000000000FC
:100280000800000000000000240000000000000042
:1002900000000000A40200000000000000000000B8
:1002A0000000000008000000000000002400000022
:1002B0000000000000000000C80200000000000074
:1002C0000100000000000000080000000000000025
:1002D000000000000C0800200400000000000000E6
:1002E000000000002000000070010000300000004D
:1002F0001C0200002C080020040000000000000088
:10030000000000000C000000300400001800000095
:10031000400200003408002004000000000000003B
:100320000000000024000000480400001800000045
:10033000000000007408002004000000000000001D
:100340000000000010000000A00100002C000000D0
:10035000CC0100007C080020040000000000000028
:1003600000000000200000006402000024000000E3
:10037000FFFFFFFF9C0800200400000000000000B9
:100380000000000028000000880200002400000097
:10039000FFFFFFFFC4080020040000000000000071
:1003A00000000000580000003C0100003400000084
:1003B000FFFFFFFFCC080020040000000000000049
:1003C00000000000100000006004000018000000A1
:1003D000FFFFFFFFD4080020040000000000000021
:1003E000000000001C000000AC020000240000001F
:1003F000FFFFFFFFDC0800200400000000000000F9
:100400000000000038000000F40100002800000097
:10041000FFFFFFFF4409002004000000000000006F
:100420000000000054000000000100003C0000003B
:100430001800000000000000000000004004000060
:10044000080000000000000018000000000000008C
:100450000000000058040000080000000000000038
:100460001800000000000000000000007004000000
:1004700008000000000000000100000028890000C2
:100484000100000000000E0000000F003200000018
:100494000100000014080020000200000000000019
:1004A40001CA011000000000000000000800000064
:1004B400000023003C080020010000008408002004
:1004C4000800000000000000000000000000000020
:1004D400000000000000000001000000E40800200B
:1004E40006000000010000004C090020000000008C
:0C04F400000000000002000000000000FA
:0F0502002900010025002D002E002F000100010F
:1005140004000000FC88000000000000000000004F
:10052400000001000000030087C40110380500002A
:10053400380500000000000090000000900000005A
:100544000000000084080020BD33000020000000EB
:10055400D4880000C08600000DC30110651D000092
:10056400671D000099C801109BC80110000000001D
:100574007E2A00000086000018860000E88500003E
:090584000800090001000000015B
:10059000000000000000000000000000000000005B
:1005A0005B1900007B1900007F180000A5190000EE
:1005B000C71800009D180000F9180000CF190000AE
:1005C000353300003D3500004135000008000000D3
:1005D0002400000018000000280000002000000097
:1005E0003C0000000C00000034000000DFF800F0C8
:1005F000C1C10110DFF800F009B70110DFF800F009
:10060000CDA00110DFF800F041AC0110DFF800F0E0
:1006100049C10110DFF800F019C20110DFF800F045
:1006200085C10110DFF800F0C1C20110DFF800F051
:10063000E3BF0110DFF800F03DC10110DFF800F06A
:1006400029AF0110DFF800F0CDC10110DFF800F094
:1006500085B00110DFF800F0DDB20110DFF800F026
:1006600079B50110DFF800F0D5C00110DFF800F017
:10067000E1B5011020B1082328220021FFF7E2BFD5
:10068000704720B1082330220021FFF7D3BF704705
:1006900038B50546FFF7BAFF2C680CB12168296010
:1006A000FFF7B8FF204632BD70B505460E462C68F0
:1006B000002030601CB9FFF7A9FF2E600DE0FFF7A6
:1006C000A5FF00E0246821680029FBD1B44203D1D2
:1006D000FFF7A0FF002070BD2660FFF79BFF012001
:1006E00070BD10B501460022DFF8C00B00EB4210D0
:1006F000C37F1C0603D5B0F91C308B4203D0521CBB
:10070000082AF1DB002010BDF8B500F014FFDFF877
:10071000041A0546C87DE8B1401EC875C0B2C8B904
:10072000DFF8F469082100F012F99CB1B06B703069
:1007300001F036F8B16BDFF8F42BC868116806F1E8
:10074000EC07241AB4FBF1F13846FFF76BFF38468B
:10075000FFF76CFF2846BDE8F240FFF75BBF10B51E
:100760000446207B00F00F00022802BFDFF8A41926
:10077000087D002818D100F0ABFC0146A068800875
:10078000A0EB91006FF0704188420DDAB0F1704F2C
:10079000BCBFDFF888190818DFF87C198A6BD168AC
:1007A00001F57A71814200DB002010BD38B5DFF819
:1007B0007019DFF870090C68DFF85C590440E043F9
:1007C0000860A00606D54868810603D54FF400519D
:1007D00000F06EFD14F4602F0BD0A86904F46024BF
:1007E0000443AC6105F19C00BDE83440002100F0F9
:1007F000FFBF31BD7CB5FFF709FFDFF81C59044688
:10080000A86910F4602F26D0AE69F601360EF00705
:1008100048BF002606D4B00748BF012602D470079F
:1008200048BF0226701D40B200F0EBFEA96901220C
:1008300006F1110082409143A9612046FFF7EAFECC
:1008400005EB860084684CB1686800224FF00063B5
:10085000711DA04702E02046FFF7DCFEA86920B129
:10086000002105F19C0000F0C3FFE87F81070CD553
:100870006C6934B1686800224FF000436FF00101E9
:10088000A047E87F00F0FD00E87773BD7CB501F07C
:1008900075FBDFF88468DFF8D05A8107B16A1DD490
:1008A000D1E90423104007D0F1628A6910438861BE
:1008B0004FF4804100F04BF8B06A002846D1746ACA
:1008C000002C43D0E068B16B884222D006F14C0086
:1008D000BDE87C404FF4805100F08ABF09B9B06A8E
:1008E000EAE70022B262D1E904238C69104040F0AB
:1008F000020020438861686990436861E868984312
:10090000E86006F13000FFF7CFFE022100F01FF88B
:10091000E5E7A068FFF723FFB06418B1B06CBDE84D
:100920007640F1E6D4E904016A6902436A61002075
:10093000EA680A43EA60E861A0682860E86900287C
:10094000FCD006F12400FFF7A3FEB46273BD06F1EC
:100950004C0000F04DBF0020D6E6F8B5074614461F
:100960003E6E1D4606B1B047A00708D4D7E9160170
:10097000204029400022914208BF904207D0C7E999
:100980001A4507F13800BDE8F240FFF73BBEF1BD64
:10099000FEE780B500F026FFDFF87C270146906B6C
:1009A000D26BBDE80840104710B5DFF86C470FF276
:1009B0003D01E06B884202D101F03CFB206404F170
:1009C0004C00BDE81040042100F012BF80B501F0DA
:1009D000D5FADFF89819084207D0BDE804404FF077
:1009E0000051DFF86C0B00F003BF01BD042900D0FB
:1009F000704738B5DFF82057686AA96B08B1C1683D
:100A000003E0E87FC20748BF6968A9630846DFF8CA
:100A1000602941680B781360126809788A421CBF0C
:100A20008469002C05D000224FF000736FF0FF01A5
:100A3000A047022001F042FC112001F054FCDFF835
:100A4000D4060121C176AA6B117C002919BF407E12
:100A500000280E2001F047FCA86BDFF80C29406845
:100A60008168002904BFC068002804D00021D1613A
:100A7000DFF8600A106040F2FF70DFF85C1A08606F
:100A800000219161DFF8E40850610FF21100E86382
:100A90001920BDE83240FFF7DDBD0000F8B506467D
:100AA000880084B040F18680DFF86C46A06B416816
:100AB000486800B18047A06BDFF8AC584268906886
:100AC000002804BFD16800290DD000F075F89068A7
:100AD00000B18047A06B4168C86800B18047DFF86B
:100AE000880A01F053FA0020E861DFF8800A2860E4
:100AF000012001F093FA0FF21910DFF81816E063E5
:100B000040F60A02002048800023087B0A8000F09B
:100B1000F00008734B60487B00F0E4F94873B76855
:100B20007B80786820B10388934218BF0746F8D1CC
:100B3000796040F60302787B00F0F0007873606A19
:100B40008068008890421CBF40F60402904217D093
:100B5000308CA8B100227284726206F12C004378B6
:100B6000027803F0F00302F0F00243F00103027098
:100B7000437006F120004860487B00F0F0004873A5
:100B80006946B06801F02AFA684601F036FAB068A2
:100B900001F032FA00F010F8012001F063FE0128A4
:100BA00006D0787B00F09EF978730FF21900E063AD
:100BB000B068286005B0F0BDE8690028FCD00021CD
:100BC000E9617047DFF8282A114200D170470120FF
:100BD00010B501F047FE0128DFF83C4508D10FF2BF
:100BE0003101DFF83005E163DFF87C17086010BDE4
:100BF000DFF8500A0268EC343221B1FBF2F12046F2
:100C0000FFF710FD2046BDE81040FFF70FBD0000C4
:100C10002DE9FE430C466104DFF8FC5417D5FFF7BD
:100C2000F5FCEE6AB769FFF7F5FCB8070CD45EB1C6
:100C3000B069B843B061706830B1B6F91C10F068A3
:100C400076683A460023B04724F4804423E1A107A4
:100C5000DFF8C06464D52F6B002F59D0B96820200D
:100C600040F6040240F6030300291CBF5FFA80FC33
:100C7000BCF1000F00F01A81B1F800C09C451EBF06
:100C800094454968401EEFD10BE100224FF08043AC
:100C9000B7F91C10F868D7F804C0E047FFF7B6FCB6
:100CA0008046E88E401CC0F30B00E886286BC17FAD
:100CB00001F07F01C17705F13000FFF7E9FC00F09A
:100CC000FBFAB5F93600FA6802F19403B3F90010A3
:100CD000884204BF317D00291AD1987808B910687C
:100CE00020B900209870FFF70FFD11E0A96B0B6889
:100CF00013F1010F0CD0DFF834663168B0FBF1F16D
:100D000002F17000FFF78EFCF8687030FFF78EFC80
:100D1000286B002824F0020401D044F00204BAE059
:100D2000A10005F1800840F6090958D50746286C4E
:100D3000B8B1042001F096FD98B101F07BF9296C5F
:100D4000814228BF401E401A000B00F58D70F860EC
:100D500040F2D761A0F2EE20884224BF40F6C410D2
:100D6000F86000202864D7F818C0BCF1000F0DD03F
:100D7000707B10F00F0F04BF788C484506D100221D
:100D80004FF000736FF480713846E0470022DFF8BF
:100D9000B818404600F042FDB07E50B10221ADF8D7
:100DA0000010684601F0F2F8BDF80800A8830020A2
:100DB000B076012085F820000021F07DF176401CFE
:100DC000F075192000F02DFD7E692EB100224FF044
:100DD000806300213846B04724F000545BE0B07FC8
:100DE00024F0080720B1210744D50020B0773FE068
:100DF00020073FD5002085F8200001203077002013
:100E000001F00CF90FF2E900DFF84018DFF8CC46EA
:100E1000E8630022404600F001FD717E09B1B07E1A
:100E200010B1012171760FE0A86CE8B101F002F970
:100E3000296C6A6C401A02EB10326A64A86CB2EB3F
:100E4000C01F11D3002068640021707BA6F80090B9
:100E500000F048F87073716000207080307B00F003
:100E6000F0003073266003E04FF0005100F020FAEC
:100E70003C4610E0A0040ED5AE6A002E1CBF706880
:100E8000002806D0B6F91C10F068766800222023EE
:100E9000B04724F4005414B1214600F009FABDE82B
:100EA000F783F8681822203001F0A2FDBA6900200B
:100EB000B861786800283FF4F1AEF87F002300F0B5
:100EC0000700012842F0020208D002283FF4DDAEFC
:100ED000042804BF00224FF08053D9E600224FF0CF
:100EE0000053D5E600F0F00040F00100704700002C
:100EF00070B50546880028D501F055F8864CDFF816
:100F00005007844EE063707D18B905F13800FFF793
:100F100079FBDFF8C41500200860022001F064F9B5
:100F2000112001F075F9287C10B90E2001F070F93C
:100F30000020B083307E40B104F14C0000213176B6
:100F40000421BDE8704000F053BC70BD30B58DB0D9
:100F500001F0CBF8DFF8FC06DFF8FC4601686E4DC7
:100F600041F00201016001A8FFF784FBA078DFF8DF
:100F7000EC160790002301AA05F14C00FFF766FB71
:100F800001A8FFF77EFB2178DFF8C0260991002039
:100F9000ADF81C00009001AB192105F18000FFF7AE
:100FA0004DFB01A8FFF766FBE078DFF8B416079069
:100FB000002301AA05F19C00FFF748FB01A8FFF7F9
:100FC00060FB0120ADF81C000021607809900091C1
:100FD00001ABDFF890261A2105F1D000FFF72EFBB8
:100FE00000230022DFF8801605F1EC00FFF736FB46
:100FF000DFF85C06E86301214FF6FF70A8830DB0AF
:10100000DFF8680681760021E9774176C176818331
:101010008177296430BD2DE9F0413E4E8EB0074600
:10102000707D884615461C4618B9FFF78FFF0121D1
:101030007175B8F1000F1CBFC7F80480002D45D0B2
:10104000BD60FFF7E3FAB17D00293DD10122B27501
:10105000FFF7E0FA34B909A80FF24061142201F059
:10106000C7FC09AC206838606068F860207A387482
:10107000E0687861206900B1B861782107F120004B
:1010800001F0FAFC0823242200216846FFF7AEFA9B
:1010900001208DF818006A46002107F13800FFF79B
:1010A000A9FA0823242200216846FFF7B7FA069719
:1010B0006B460022DFF8B81507F17000FFF7CEFA93
:1010C00038460EB0BDE8F081FFF7A4FA0020F8E73B
:1010D00070B5FFF79BFA104A92F8201019B1DFF8AB
:1010E0009825146880E2FFF795FA00F0A3FF10F549
:1010F0000030DFF88825074E41F10001A2FB0045D2
:1011000002FB015531690020221845EB0103184606
:1011100070BD0000DC1A0020CC190020F6FFFF1F74
:101120000810044020000E002DE9F84F04468B46BD
:1011300092469946DFF83C55FFF768FAB5F9341046
:101140008046B5F93600091AC1F30B0108296FF082
:1011500001064FDAA88E5549401CC0F30B00A88643
:10116000B5F93400ADF8000000200206D20C01F100
:101170001F039B5C1F0640F19780401CC2B2082AE7
:10118000F3DB002704F1700000F00AFBC7F808B099
:1011900087F81EA0C7F804902021BDF80000B8838E
:1011A000FC60DDE90A23DFF8D80410401940C7E9E4
:1011B000040104F194090020F87740F6FF74686A8E
:1011C0000028394605F124000CD0FFF76DFA60B114
:1011D000BDF80000A9F80000F87F40F08000F87723
:1011E000404654E0FFF760FA40B9A88E2418C4F3D3
:1011F0000B04AC8600F060F8304653E0BDF8000008
:10120000DFF86864A9F800000021F87F40F0800052
:10121000F87789F80210717F00291CBF95F820002B
:10122000002807D000207077B0760121F07DB177DB
:10123000401CF07500F040F8A96A002930D195F8FB
:10124000200018B1192000F0ECFA29E0F07E38BB3C
:10125000FFF7DCF90446307F10B10121317615E04B
:10126000B868FFF77CFAA864A0B1A96CAA6BDFF894
:10127000D433D0681A6805F1EC06091AB1FBF2F113
:101280003046FFF7CFF93046FFF7D0F92046FFF799
:10129000C1F905E02046FFF7BDF9042100F008F888
:1012A000BDF90000BDE8F28F8F186BE7F80A002047
:1012B00005F14C0000F09CBA4046FFF7ABB92DE9B0
:1012C000F04107460E4614461D46FFF7CBF980460F
:1012D0003046FFF706FA060003D14046FFF7C6F98D
:1012E0000AE0F07F10F0070F09D04046FFF7BEF983
:1012F000F07F10F0070FFBD10220002114E071688D
:10130000DFF88003814202D0716839667060C7E9F6
:1013100016454046FFF7AAF94FF0FF3107F13800B4
:10132000FFF76CF9D7E91A01BDE8F08120890000C8
:10133000DCB5DDE906670446CDE90067180008BFA3
:10134000DFF840332046FFF7EFFE010003D5002011
:101350004FF00041DCBD204602B0BDE8D040022283
:101360004FF0E043ABE700000010044002000040F3
:10137000D021084001E042F002022DE9F843DFF8F5
:10138000F452686A00900F4603261446FFF73EF9B0
:1013900017F1010F04F00108814609D1A86A00285D
:1013A00019BFA96AB1F91C70EF8E7F1C0020E87785
:1013B00038B2FFF796F901007BD0A86A814204F0A9
:1013C000020426D11CB1686A009000226A620122E0
:1013D000C87F02FA08F21043C877FFF743F90646C0
:1013E000B8F1000F14BFDFF8A002DFF8A00200F090
:1013F000CDFD00F081F824B906E000F071F800F0AE
:1014000076F800980028F8D13046FFF72FF98326A8
:1014100051E00098884205F1EC0316D1184600F01F
:10142000BFF9002C12BF0020686A0068686200F0F3
:1014300063F8009800F054F800F059F8009828B3C9
:10144000002CF6D122E0126800920098002835D0D6
:10145000024610688842F6D1184600F0A1F90098BB
:1014600000681CB1009A0021116004E00168009A34
:10147000116000220260009003E000F031F800F0FB
:1014800036F800980028F8D100F036F8832617E0E7
:10149000087F80B9DFF8F811E96305F14C000221FB
:1014A00000F0A6F995F8200028B9DFF8A411E96347
:1014B00001E000F021F83046BDE8F28300F01CF8AE
:1014C000DFF8A811C87E0028E2D00221FFF7F0FE65
:1014D000F1E700005100070600000460001004401E
:1014E000C17F41F00401C1776846FFF7D1B80146DA
:1014F00005F13000FFF7D8B84846FFF78BB838B58C
:1015000000F019F85B49054691F8200070B12046BB
:1015100000F03CFD04462846FFF77CF804F0FF0489
:10152000012C01D1812032BD022032BD2846FFF7B7
:1015300071F8012032BD0446FFF768B80A464D49EC
:101540008B6B984201D0032070470AE00000000036
:10155000181A00200A4647498B6B984201D0032095
:10156000704700211046CAE70100070601010E047A
:1015700070B540498A6B90426FF07F0413D191F8A7
:10158000200080B1FFF742F80646424800F0FEFC1A
:1015900005463046FFF73EF805F0FF00012802D16E
:1015A0002D02281670BD204670BD70B50E4615463A
:1015B000FFF72CF883242F4A1EB1022E0FD006D33A
:1015C00011E0916A49B1926A918B29800CE0274B16
:1015D000997E11B9928B2A8006E0802404E092F86B
:1015E0002010297000E00324FFF714F8204670BD96
:1015F0000400002080B50846FFF773F800B180684A
:1016000002BD38B5FFF797FF1A4AD17F4B0702D5C5
:10161000937F9C4212D00123958B03FA04F10D4372
:101620001D4995830C340A6803FA04F422EA040481
:101630000C60096811B90D4B00221A75BDE83240E3
:10164000FEF7E8BF208900008D080000CD090000EA
:10165000ED090000002009402485000093090000E6
:10166000F5070000AD070000A9090000DC1A002002
:1016700057090000CC1900200430044000093D0047
:10168000F1EFFF9F5B09000001000204010001046B
:10169000110C0000010003040C100440FFFFFFFFC9
:1016A000C4090000010000000000000091090000D2
:1016B000DFF800F021B30110DFF800F095C0011051
:1016C000DFF800F00DA80110DFF800F0BDBE01103A
:1016D000FEE7DFF80C01007D704772E079E070B53D
:1016E000FFF7FBFFDFF804610446B0680021FFF755
:1016F000E3FF05467069451BB069A84238BF002565
:101700002046FFF7EBFF284670BD2DE9F041FFF7BB
:10171000E4FFDFF8D8400746A0680121FFF7CCFFBF
:101720000121A1830021E183656922682168461BAC
:10173000401AAA1A904203D20020A08338462CE017
:101740003846FFF7CBFF002706E07D192946012028
:10175000FFF7B6FFF61B0746BE42F6D2FFF7BDFF06
:101760008046E08B012804D129460020FFF7A8FF1E
:101770000746A06917F1010F08BF064603D0BE1B3C
:10178000B04238BF064671193046FFF79DFF012071
:1017900020840020A08325604046BDE8F0419DE7FD
:1017A00000218182DFF84410C0684A69904204D168
:1017B000DFF85C201068FEF739BF7047808A7047F9
:1017C0007047EFF31180DFF84C100A6882F311883C
:1017D000704780F311887047F3E7FAE700000000D4
:1017E000A4010020DFF830008068704778010020F5
:1017F00038B504460D46FFF7EFFF616A0D43656299
:10180000FFF7EBFF2046BDE83240FFF751BF000075
:10181000248900001C890000C8010020816042600A
:101820007047102804D3DFF80C101038C1F8000FEF
:101830007047000000E000E001F022B9FFF7C1BFEF
:10184000FFF7C7BFDFF89C11C20744BF01220A603F
:10185000820744BF4FF480720A60400744BF4FF4D0
:10186000803008607047DFF88021C30748BF1160EF
:10187000830748BF5160400748BF9160704710B56B
:1018800004460020D4E90A2347F6906101F0F2FBF8
:101890000123994228BF4FF0FF3010BD1CB50C4604
:1018A00000F0BEFB011D201AB0F1004F05D8081B47
:1018B000B0F1004F38BF8C4200D20C462146BDE843
:1018C0001C400120CFE72DE9F04180460A46D8E9C7
:1018D0000A01D8E90C45A0FB026701FB0277A619B3
:1018E0006F41340C002244EA07414046FFF7D6FF1F
:1018F000C8E90E67BDE8F081F8B50646FFF79EFF20
:101900000446DFF8E850DFF8E8700120E861FFF7EF
:1019100099FFF96A0A6A142090473169B1F5802F5E
:1019200034BF0421090C0120FFF79DFF3A681368BA
:10193000232100209847DFF8BC1001200860DFF861
:10194000BC00016821F4E02141F4803101600120F4
:1019500028602046BDE8F24072E700F06BBB10B58E
:10196000DFF894104C6800F006F86069A169BDE8E2
:10197000104008470000012064E7F8B504460D4612
:10198000FFF7EBFFD4E90A6732463B4601F072FBF2
:101990003DB1A6FB002306FB013307FB0033C4E97E
:1019A0000C23F2BD10B5DFF84400DFF854400021ED
:1019B00001600121C16121602068FFF7DCFFDFF8D1
:1019C0005C100A68136A14209847206810BD80B51F
:1019D000DFF844100868FFF7C0FF000C40EA014040
:1019E00002BD0000042009401820094000002443E3
:1019F0008401001080022443E401002000200940FB
:101A00002C2009400146DFF8D004006800281CBFE4
:101A100002898A42F9D17047EC010020B001001020
:101A2000DFF8BC04C088704700F007F80EBD00BFA7
:101A30000EB50023009302ABF6E7F7B58CB01C4659
:101A40001498ADF8180000250E9828B926E10DAAC3
:101A50000CA800F067F96D1C0E980E9900784A1CCE
:101A600001000E9200F015812529F0D11178501C4B
:101A70002D290E9006D101210E98ADF8061000F028
:101A80001DF902E00023ADF80630302904D1012011
:101A9000049000F012F901E0002304934FF0FF32AC
:101AA000029200200A222A29009017D100F010F992
:101AB00000900E98009B00F001F9002B12D5012038
:101AC000ADF806000098404200900BE0009B0E9895
:101AD00002FB03113039009100F0F0F8A1F130065B
:101AE0000A2EF3D32E291BD10020029000F0E5F836
:101AF0002A2911D100F0ECF80290002844BF0021FF
:101B0000029100F0DAF80BE0029802FB0011303984
:101B10000E98029100F0D2F8A1F130060A2EF3D30C
:101B2000049808B1009A04926C2918BF4C2905D179
:101B30000120ADF8040000F0C0F802E00023ADF889
:101B4000043008A80790002264290CA818BF69294E
:101B5000059003920DD1BDF818000028FFD000F0C9
:101B6000B1F86FF009030298049A8242B8BF04905A
:101B700019E00A2375291FBF1023782908236F292C
:101B800003D1BDF8180038B906E0702913D10493C9
:101B900020682060016814E000F094F8049A02982C
:101BA0008242B8BF0490049A059800F097F8079015
:101BB0000599081A2FE0632919D121682160086866
:101BC0000FE0001D206010230598082200F086F821
:101BD000401E07904021017007980599091A03914A
:101BE00035E0091D216007990870012013E0732971
:101BF00013D100F06DF8079010B90FF2283107915A
:101C0000079801F04FFB0390029810F1010F1ED0CE
:101C1000039988421BDA039019E00E98411E0D9833
:101C20000E91022813D3029810F1010F02D00D99E2
:101C3000884201D30D9800E0401CDFF8A8623768A5
:101C400002906B4622460EA90CA8B8474519009988
:101C50000398091ABDF80600009138B902E000F0B7
:101C600028F86D1C0098401E0090F8D50398411E7E
:101C70000391A8B10798401C07900DAA10F8011D08
:101C80000CA800F04FF86D1CF0E700F012F86D1C86
:101C90000AE00C9808B10021017028460FB0F0BD91
:101CA000BDF80600002803D00099491E0091ECD52C
:101CB000D2E60DAA20210CA834E00E9810F8011BE2
:101CC0000E907047206820600168001D20607047FA
:101CD0002168216051F8040B21607047F0B50024A1
:101CE0000025002B44BF5B42002902D54942521E09
:101CF0002D25B1FBF3F60FF2342703FB1611641CFC
:101D0000795C00F8011D31460029F2D19442BEBF32
:101D1000302100F8011D641CF8DB290018BF00F811
:101D2000015DF0BD10B50C46116802290BD3491EA8
:101D30001160016819B14A1C02600C7010BD01F0FD
:101D400003FC00B100E010BD2046BDE8104001F0EA
:101D5000F9BB65490A6810476448016808470000F4
:101D600001207047FEE77047704710B504460B46E8
:101D7000616809B9012010BD206852A200F0BCF8CA
:101D8000A1684118A16061680029C4BF081A606099
:101D9000002010BD00002DE9FC4104468846A088C3
:101DA000164600F022F80746F11B002E01D40A293E
:101DB00004DB236844A200F082F8C719A08980B12F
:101DC000F51BA468002E05D4204601F06BFA401DD7
:101DD000854206DB23460FF26812294600F06FF8B1
:101DE000C7193846BDE8F68100003EB50D463949B1
:101DF00014460A888242034628BF0FF24C1210D2C2
:101E000036490A88824207D3FFF7FCFD2146426823
:101E1000284600F071F83EBD2C4A118831B90FF206
:101E200034122146284600F067F83EBD002C48BF1A
:101E300047F6FF74019400212D4B1C680291009518
:101E40006A462C49A04702983EBD2DE9F843170089
:101E500048BF47F6FF770446884600266CB32088C3
:101E600018B13A46FFF7C1FF0646B91B002923DD2A
:101E7000208820B116A2404600F03EF88619A068DE
:101E8000D0B1656875B1284601F00CFAA7EB0609D8
:101E9000401D814506DB2B460FF2CC02494600F07F
:101EA0000EF88619BF1B122F06DBA3680FF2C002C3
:101EB000394600F004F886193046BDE8F283404602
:101EC0001AE0000025730000257000008A0500005C
:101ED0003A200000762A0000E00A00201E200000C0
:101EE000F0010020348900002C89000030890000B6
:101EF000388900006B1D000008B478B505001ABFD2
:101F00002C68002C00240E4605AB2046FFF790FD00
:101F1000864238BF701E14B129680144296072BC22
:101F20005DF808FB286E756C6C2900003031323387
:101F30003435363738396162636465660000000005
:101F400028272573272900007B6D6F64756C652336
:101F500025647D007B6D6F64756C652D726F706597
:101F60003A25787D00000000222573222C200000F5
:101F70006C696E652025643A2000000021490868DC
:101F8000C2430A600A680242FAD170471E490A68D1
:101F9000002AFCD1CA610860C8690028FCD0002072
:101FA000C86148687047194801686FF00202114023
:101FB00041F40071016003211548816041F2300154
:101FC00041610121C160502141610121C1604FF493
:101FD000CA6141610121C160016070470D4802681A
:101FE0000A6082684A60C2688A60406B20F078406C
:101FF00040F08050C8607047704701461022064884
:1020000000F0E6BC10100440001004400000046022
:10201000004104404C130050180000217047FF7F1E
:1020200009480168426803689942FAD1100C40EAF5
:102030000140704710B5044A136850681468A34201
:102040001946F9D110BD000008200940DFF800F062
:10205000F5C00110DFF800F049BA011020B10823E3
:1020600024220021FEF7DABA704780B501200090E3
:1020700009234FF400720021DFF8080701F0B9FAD4
:1020800001BD80B5002301223421DFF8F80601F0FC
:10209000C3FA00B10120C0B202BDDFF8EC068068CF
:1020A0007047DFF8E416401890F8ED007047002202
:1020B000022904D1012806D140F2EE2203E00128D2
:1020C00008BF4FF47A7210467047DFF8BC06D0F8AC
:1020D000DC007047DFF8B00690F8E61021B1D0F8C8
:1020E0000C01010018BF004770472DE9F041DFF8EF
:1020F000988608F1E1058AB0A879002861D101200D
:10210000A871DFF88866DFF88876307B68717068C0
:10211000C8F80C0101A8FFF7A1FF00200690ADF858
:102120001400079001AB00220FF2F54108F10C00FA
:10213000FEF794FA01AB00220FF2A15108F1300032
:10214000FEF78CFA01AB00220FF2D94108F15400DE
:10215000FEF784FAB16801208847DFF83806007876
:102160007868C0F38154707B20B1032C02D1012028
:10217000287003E0032C18BF022C16D1022000F0B7
:102180009DF8032CDFF810160CBF4FF47A7042F262
:1021900010700968B0FBF1F108F15400FEF742FA43
:1021A00008F15400FEF742FA05E0012C03D100F0DB
:1021B00063FAFFF75AFF386840075CBF002000F061
:1021C0007DF80AB0BDE8F08110B508B1140001D166
:1021D000022010BD8160C26003610146DFF8A805DE
:1021E00001F034FA002010BD10B50446FEF70EFAD7
:1021F000DFF89415621892F8E8305B1E82F8E83038
:10220000DBB223B98A680123A3409A438A6066E05F
:102210002DE9F0410546FEF7F9F98046DFF868152B
:10222000681890F8ED20521E80F8ED20D2B2002AF6
:102230003FD10FF2A050DFF8644500EB85052E7802
:102240006F88300615D52168096A384688472168A5
:10225000896A384688472168096B38468847DFF81D
:10226000401501200860DFF83C0500688007FAD5BA
:1022700012E0700606D501EB87010020D1F80011AD
:10228000884709E021688969384688472168496B91
:10229000384688470228F9D106F03F003F2818BF8A
:1022A000FFF7B6FF687800F03F003F2818BFFFF740
:1022B000AFFF4046BDE8F041FEF7ACB910B50446AB
:1022C000FEF7A4F9DFF8C0148A680123A3401A437B
:1022D0008A60611891F8E820521C81F8E820BDE876
:1022E0001040FEF797B9F8B50646FEF78FF9044699
:1022F000DFF89454701990F8ED104A1C002980F80A
:10230000ED2039D10FF2CC4000EB8607387800F091
:102310003F003F2818BFFFF7E6FF787800F03F0046
:102320003F2818BFFFF7DFFF7E883878DFF86C742E
:1023300001060ED53968C969304688473968496A47
:10234000304688473968C96A3046884700F019F82E
:1023500012E0400606D505EB86010120D1F80011F8
:10236000884709E039684969304688473968496BC8
:10237000304688470128F9D12046BDE8F240FEF7F3
:1023800049B9DFF81C1401200860DFF81804006860
:102390008007FAD570472DE9F04F002483B04FF045
:1023A000000A0128D04618BF012664D1DFF8D8936F
:1023B000D9F8DC0001285DD10220C9F8DC00FFF764
:1023C00045FE0090012000F062F9060054D1FEF7AE
:1023D00049F9DFF8D81301900C60012000F042FAAF
:1023E000012804D1002000F0A7F94FF0010ADFF81E
:1023F000C013DFF8B4030C6000681120FFF751FE32
:1024000008B14FF001081020FFF74BFE08B148F06B
:1024100002080F20FFF745FE08B148F004080B2022
:10242000FFF73FFEDFF8746320B13168096B4FF4AA
:10243000806088470A20FFF734FE20B13168096BBD
:102440004FF481608847DFF85813DFF86873DFF8CE
:1024500068B30120086048F0200031688969884726
:10246000DFF858130120086099F80800C00707D565
:10247000012416E0042673E00120C9F8DC006CE0BA
:10248000584601F005F90546042DF9D0012D04D177
:10249000326A5268032158469047386880088000A5
:1024A0003860002001F0FCF8BF4800683068806B9D
:1024B000804754B9012D04D1326A5268012158462F
:1024C0009047386840F0030038600120B849086040
:1024D00040463168496988470B20FFF7E2FD20B18B
:1024E0003168C96A4FF4806088470A20FFF7D9FD38
:1024F00020B13168C96A4FF481608847A84901203A
:1025000008600020AD4908600320C9F8DC0031688C
:10251000496B404688470128F9D1042000F0B7F8FC
:10252000A24901200860A0480068A548006880060C
:10253000FBD5BAF1000F1CBF012000F0FDF801F03F
:10254000FBF9082000F0A3F806460120C9F8DC00DA
:102550000198FEF78BF801F073F90098FFF77AFD08
:102560003046BDE8FE8F38B50446FEF74FF8054605
:102570002146854801F07EF828464BE030B500241E
:1025800001288BB004D021D303281DD018D31DE01F
:1025900001A8FFF763FD7C4D8A490694ADF814400D
:1025A000079401AB012205F17800FEF757F800947B
:1025B0000023854A2C2105F19C00FEF73FF805E039
:1025C00001F0D6F9044601E001F078FA20460BB09C
:1025D00030BD00F054B938B5FEF718F805466A4822
:1025E00090F8E000012410B1FFF74BFD04462846A7
:1025F000FEF710F8204632BD38B5FEF707F8624DF9
:10260000044695F8E00020B100F080F9002085F83C
:10261000E0002046BDE83240FDF7FCBF00000000AE
:102620007047000010B582B0042000F01BF90228AA
:1026300018BF032807D100F01FF8FFF716FDBDE80B
:1026400016400220D0E56148534900684E4CC0F363
:10265000815003280CBF4FF47A7041F2883009682A
:10266000B0FBF1F104F15400FDF7DCFF04F154007C
:10267000BDE81640FDF7DABF032000901C234FF0A1
:10268000405200213F4800F0B4BF0020704770B5B1
:1026900004463D4E304600F0CFFF002598B9304645
:1026A00000F0D0FF0646B068204207D03269F368D8
:1026B0000021204698470546012D05D0304600F000
:1026C000C3FF0600EFD1284670BD414901280CBF69
:1026D00040F2FF70002008600020704770B5FDF7E1
:1026E00095FF294E294D044696F8E00028B100F0E8
:1026F0000DF968B1002086F8E0000220AD68A84717
:1027000006461020FFF7C3FF8EB10320A8470EE056
:10271000214909683220B0FBF1F101B9012106F12C
:102720003000FDF77FFF06F13000FDF77FFF204608
:10273000BDE87040FDF76EBF38B501281ED100F02E
:1027400091F801281CD000F0D7F80F4C1249012055
:1027500084F8E00032200968B0FBF1F505B90125E5
:1027600004F13000FFF71CF8294604F13000FDF7B2
:1027700059FF04F13000FDF759FF01E000F0E8F8DF
:10278000002032BD00A00C40CC090020E4840000F1
:10279000B03F0050D11E002020890000B801001079
:1027A00028200860282008402C2009400C400940BF
:1027B00000022243242208400040034080010443D9
:1027C00014100940F93B0000C9390000B43F005023
:1027D000000004608F3F00008F3F01008F3F020028
:1027E0008F3F0300903F00018F3F0101903F0002A7
:1027F000903F00038F3F01048F3F00058F120804B4
:102800008F3F00048F3F0006513F00007F3F0100D3
:102810003F3F04003F3F02003F3F01007F3F020077
:1028200070B50446E00782B00D46624E05D5A8B2E9
:1028300000900023012200F011F8A00705D5A8B2EE
:1028400000900123022200F009F8600705D5ADB21F
:10285000009502230C2200F001F873BD00213046E0
:1028600000F0C7BE0146042907BF1D234FF0C04238
:102870001C234FF080524F48342100F0CDBE38B5B4
:102880000546FFF7CDFB4C4CA168401A4FF47A7116
:10289000484305EB104501F085FA2169401A48BF0D
:1028A000404240F6B9318D4207D2062805DAA068C9
:1028B000E168814201D322685AB940494A68D20787
:1028C0004FF4FA6017D4086800F0FF007D214843F8
:1028D00008E0081A3A494843000C00EB9000904287
:1028E00038BF1046C82801D2C82032BDB0F57A6F73
:1028F00088BF4FF47A6032BD80B501210320FFF715
:102900008FFFFFF78DFB2C49886001BD80B501204A
:10291000FFF7A8FF012819D0002301223421254800
:1029200000F07AFE98B100F026F8FFF779FB224913
:102930008B680A68C860A2EB9202C01A204B584309
:10294000000C0860904238BF10460860012002BDAC
:1029500010B500210320FFF763FF0120FFF782FF7E
:1029600008B100F008F8144CFFF75AFB606001F062
:1029700019FA206110BD1348006801F027BA10B59C
:1029800011490A6811490968140424161B38444384
:10299000E41004EB2244120600FB00F312160906B1
:1029A0005A435843091604EBA222484302EBA040C5
:1029B00010BD000000A00C40B01E0020AC3F005035
:1029C00040420F008000001090130050A4100050EF
:1029D00062B38B0708D0521E11F8013B00F8013B8F
:1029E00000F024808B07F6D1830740F0208000BFE1
:1029F000103A07D330B4B1E83810103AA0E83810D4
:102A0000F9D230BC530724BFB1E80810A0E8081081
:102A100044BF51F8043B40F8043BD20724BF31F8CF
:102A2000022B20F8022B44BF0B7803707047121F53
:102A300017D35B0009D151F8043B20F8023B1B0C73
:102A4000121F20F8023BF6D20BE051F8043B00F8CD
:102A5000013B1B0A20F8023B1B0C121F00F8013B34
:102A6000F3D238BF121D521E24BF11F8013B00F8EB
:102A7000013BF8D870470040002201F0C3B90000C4
:102A800010B5DFF82405046814F1010F08BF002415
:102A900001F03AFADFF81415002008600120DFF891
:102AA00010150860DFF80C15086000F04CFADFF82C
:102AB0000805006828B1DFF804050068204600F02A
:102AC00022F8DFF8FC14DFF8FC2400200860DFF8AF
:102AD000F80401686FF31B4111430160DFF8EC0457
:102AE0000168C1F30131012907D10168DFF8E02451
:102AF000114041F4003202600160DFF8D804006840
:102B00000028FAD110BD70B50546DFF8CC040121CC
:102B10000160DFF8C81409680029FAD0DFF8C04462
:102B2000DFF8C024C02121605368DFF8BC149B0784
:102B30005DBF13681B0C43F0F00372230B70002180
:102B400001639668304600F031F83146284600F0BF
:102B500061F8DFF89804816D89B240F20F2291424A
:102B600014D201680068C1F30361C0F3034001B1EE
:102B7000491E072805D006280EBF0720801C00F03C
:102B80000F0041EA0010DFF868140870304600F0CA
:102B9000B2F8DFF860140968C9680220884740204D
:102BA00020600120DFF85014086070BD10B50446A5
:102BB000DFF848040068C0F3046000F0C0F9211792
:102BC000491C08181628A8BF152004DA6FF009015F
:102BD0008842B8BF084600F01F00DFF8241440F414
:102BE000F8500880DFF81C04006880074FBF44F0ED
:102BF00040640020DFF810140860DFF81004C4F30C
:102C0000C06181F001010160C4F3806181F00101C4
:102C1000816010BD70B5054682B0084600F0F0F83E
:102C20000246DFF8EC43182100F062F800F014F9D6
:102C300080B20090002340F2FF322C21204600F0A9
:102C4000D8FCDFF8D063F068C0F30D021C2100F05F
:102C50004FF8706800F0FC32142100F049F8306839
:102C6000DFF8B413DFF8B46301EA0002102100F0CA
:102C70003FF8284600F0FAF802460C2100F038F838
:102C8000284600F01EF9400040F02000307228462F
:102C900000F020F940F010003072284600F023F9CF
:102CA0000246282100F024F8284600F001F94000EF
:102CB00040F06000F072284600F02FF9C00040F0AC
:102CC00080003070284600F031F98000DFF85013A2
:102CD00040F47C400880284600F012F902460821A2
:102CE00000F006F8DFF83C134FF48000086073BD75
:102CF000204600F079BCF8B5810C01F003010129F0
:102D0000C94CC84D02D002292AD026E0216A8A0384
:102D100023D44FF480422A606FF08F06C34AD2F862
:102D2000023033404E0A06F080063343C1F30336C7
:102D30003343C2F80230C1F30326D2F801301B0935
:102D400046EA0313C2F801306FF0E7061368334018
:102D500001F0E7011943116002E04FF000412960E2
:102D6000B34EB44AB16809075CBF4021A9624FF471
:102D700000712964800D216AC90C01F0030141F042
:102D8000300110F00300117003D0022826D008D3C0
:102D900026E001210420FFF743FDA74800F0F4F8E6
:102DA00022E00120FFF75EFD074639460420FFF7C9
:102DB00037FD0420FFF756FDB842FAD1366826F0F9
:102DC0007F4000F0E1F89D4B1B681B684FF06022CC
:102DD0000721300E98474FF480602860032100E0FF
:102DE00002210420FFF71CFD2068954900F03F00F8
:102DF000087047F618009349088093480068F1BDB1
:102E000092490968C1F383628303C1F38F2120D4FF
:102E1000000400164FF6FF7307E0490804D1194675
:102E2000520804BF01220121401C0028F5D40128CA
:102E30000FDB490041F00101B1F5803F21BF0121C5
:102E4000520042F00102102A24BF0F221946401EF0
:102E5000EDE741EA024070477C48016800680002E3
:102E6000C1F3870100F440700843704730B55D4CF2
:102E700077490A686568ED07C2F30351C2F303435B
:102E80000AD42468250501EB2571240481F304018B
:102E900003EB247383F304031B0443EA015193B24D
:102EA0001943222824BF02F080400143084630BD68
:102EB0000021202803D367480068C0F30151084669
:102EC00070470121222803D363480068C0F30071D2
:102ED000084670470121222803D35F480068C0F3E9
:102EE0004071084670470021202807D359480068E0
:102EF000C10C01F44071C0F384500143084670478F
:102F00002028564907D35348554A0068810A02EAE7
:102F1000003040EA8151084670470021222803D33F
:102F20004D480068C0F3C061084670470021222860
:102F300003D349480068C0F3455108467047162836
:102F4000A8BF20387047234800680028FBD14548B7
:102F5000454A416812688908890041F0005141F0F2
:102F60000401520748BF41F001010BD4026812F07E
:102F7000030F07D041F003024260026802F003022F
:102F8000032AFAD141607047384982B20A60C0F31F
:102F90000740486001208860354800680028FBD061
:102FA00000208860704700001C13005084046042B9
:102FB0005C600C4008220443800128430001204348
:102FC0008C210840000039014820034004000940DA
:102FD000FFFFFCFC0C0068421010094094022243E1
:102FE00000600C40AC3F005056620840BC120050DC
:102FF00002600840A001001094046042B812005022
:103000006E6208400000094094042A4300002043F7
:1030100000A00C4070130050FFFFFC0041A10C40C9
:10302000DCA10C4040A00C406C1300500A6008402A
:10303000A83F005008A10C40BD378600B401001025
:103040000BB00C4070B00C402C20094050130050C5
:1030500078130050981300508C13005000803F40AC
:1030600000F03F0000400340B03F00503C600C4087
:1030700084088C43B3BBD9B1B2F5803F7DD2022A1C
:103080001ED98C46B1FBF2F102FB11C31B0443EACB
:103090001043B3FBF2FC02FB1C3380B240EA034353
:1030A000B3FBF2F002FB103240EA0C400023704701
:1030B000022A05D98446B0FBF2F002FB10C2704729
:1030C0004AB105D100F0010249085FEA30007047BB
:1030D00000220023704700F021BF0B0002000021F6
:1030E00000207047904271EB030CF6D3B3F5803F9C
:1030F0002FD2F0B5B3FA83F7B1FA81F4A7F10F0E2E
:103100003D1B5340CEF1200602FA0EF2F34153402C
:10311000B5F10F0746D80F3C2C444140C4F12006BE
:10312000A040F1414140B1FBF3F603FB1611A2FBB5
:103130000645001BA94102D2761E8018594180EA3B
:10314000010221FA0EF362FA0EF200215A403046D3
:10315000F0BD30B4B1FBF3FC03FB1C11A2FB0C452A
:10316000001BA94103D2ACF1010C8018594130BCBD
:1031700002460B46604600217047B2F1807F65D35E
:10318000F0B5B2FA82F7B1FA81F4C7F10F063D1B30
:1031900022FA06F307F1110EF24120355A40B5F13B
:1031A0000F07B8D94140C4F12006A040F141414089
:1031B000B1FBF3FC03FB1C11A2FB0C45001BA94156
:1031C00003D2BCF1010C801859410F2F12D30F3FCD
:1031D000C90341EA5041B1FBF3F603FB1611A2FB10
:1031E0000645D4EBC030A94102D2761E8018594161
:1031F00046EACC3C07B34140C7F12006B840F14154
:103200004140B1FBF3F603FB1611A2FB0645001B80
:10321000A94102D2761E8018594180EA010221FAA2
:103220000EF3C7F1200462FA0EF20CFA07F05A40CE
:103230002CFA04F13043F0BD80EA010221FA0EF3CA
:10324000002162FA0EF260465A40F0BD8C46B1FB96
:10325000F2F102FB11C31B0243EA1063B3FBF2FC61
:1032600002FB1C331B024CEA002043EA1063B3FB51
:10327000F2FC02FB1C331B024CEA002043EA106301
:10328000B3FBF2FC02FB1C331B024CEA002043EAB6
:103290001063B3FBF2FC02FB1C324CEA002000235B
:1032A0007047000000F10103810704D010F8011BF2
:1032B00089B18107FAD10268B2F10131914311F06D
:1032C000803F04BF50F8042FF6E710F8011B11B13E
:1032D00010F8011BFBE7C01A70470000DFF800F090
:1032E0000DC30110DFF800F081C60110DFF800F017
:1032F00095B70110DFF800F08DC20110DFF800F083
:103300003DC20110DFF800F009C30110DFF800F042
:1033100045C00110DFF800F0D1C70110DFF800F060
:1033200067BE0110DFF800F011C80110DFF800F0EF
:1033300021C801100C381F283ED8DFE800F0103DEE
:103340003D3D3D3D3D3D3D3D3D3D3D153D3D3D1AF8
:103350003D3D1F243D3D3D293D3D3D2E3338DFF8A9
:10336000EC01016808687047DFF8E02110684068E8
:103370007047DFF8D811086880687047DFF8CC1113
:103380000868C0687047DFF8C411086800697047B2
:10339000DFF8B811086840697047DFF8B0110868B5
:1033A00080697047DFF8A4110868C0697047DFF8CA
:1033B0009C110868006A70470020704700B589B00A
:1033C00009216846FFF78AFF09B000BD00B581B04A
:1033D000FEF732FADFF87801DFF8782101689142D0
:1033E00018BF00F099F8DFF87001B0F5B26F03D0A4
:1033F00001B05DF804EB90E001B000BD2DE9F041B3
:1034000084B014460A6880461D4600232668177853
:10341000002002F1010C242FC1F800C038D15778E8
:103420000CF101024C2F0A6006D156F8040BAA6871
:103430004146FEF7B0FC25E0462F0DD156F8041B9F
:103440000191414656F8040B0290ADF800306846F1
:10345000AA68FEF7FAFC15E0532F19D156F8040BB1
:10346000E86126602346288B0090EA69A968D8F8AD
:103470000000FEF7E2FAD8F8001011B10144C8F8D4
:10348000001026680021E96001232968091A2960D3
:10349000662F07D1298B002911BF361DF61D26F096
:1034A000070608361BB9E9690F700121E96026603B
:1034B00004B0BDE8F0814FF0FF309060704700B578
:1034C00081B0FEF7ADFA012818BFFEF701F90FF23F
:1034D0001D00FFF707FFFFF709FFFFF70BFFFFF7DF
:1034E0000DFF01B05DF804EBFFF70CBF00B581B034
:1034F000FDF7B8F8FEF7AAFD01B05DF804EB032074
:10350000FFF704BF10B504460320FFF7FFFE204677
:10351000BDE81040FFF7FEBEFEE7FEE700B581B054
:10352000FFF7FCFEDFF83400C06801B05DF804EB83
:10353000FEF7BEB80A490B4888617047FFF7F2BE34
:10354000FFF7F4BEFEF705BCFEF706BCF001002055
:1035500098CA0110704728209005000078010020CB
:10356000440100200004000070B504460D461646D4
:1035700000F0DEF9401E8041C00F1A490A68002A97
:10358000FCD0012E02D0022E02D003E0257002E012
:10359000258000E0256001220A6000281CBFBDE8EC
:1035A000704000F0C9B970BD38B504460D4600F052
:1035B000BFF9401E8041C00F0A490A68002AFCD0AA
:1035C000012D02D0022D02D003E0247802E02488ED
:1035D00000E0246801220A6008B100F0ADF920463D
:1035E00032BD000000800C400B4611460422181822
:1035F000BAE710B500EB4100102B144600F500703F
:1036000002D3103B001D240C0299994041EA044169
:10361000BDE810400422A7E738B51D460818102D54
:10362000144602D3103D801C240C0221FFF7BCFF7E
:10363000204080B2E84032BD006800280CBF012065
:1036400000207047006870470068704738B504462E
:103650000D4600F064FC00212960616869606168C2
:10366000002914BF0D6025606560FFE7BDE83240AA
:1036700000F057BC0B684A68002B0CBF42605A60D0
:103680004A680968002A0CBF016011607047000099
:10369000006801074CBF042000F0030070470000E1
:1036A0002DE9F84F06469348934C0068934D8007E8
:1036B00004D50820A87192482060BFE000F072FB9A
:1036C00080469048006800900027001700F101092B
:1036D0000098800208D4C8F13E00C0100928A8BF95
:1036E00008208145B8BF814687480068C0F3046060
:1036F000FFF725FC824685480068C0F30440FFF7C9
:103700001EFC09EB0A011629A8BF152104DA6FF087
:1037100009029142B8BF114601F01F027C4B42F4EE
:10372000F8521A807B4A126812F0030F18BF012763
:10373000520748BF47F002070EB147F0040795F95A
:103740000720A8EB0202052A02DAAA7997425DD087
:10375000A8F10F0C0026BCF1000FB64607F00102DD
:1037600007F00403DFF8B09123D40CEB0C1C4FEAF4
:103770002C2EBEF1080F28BF4FF0070E7646072EFD
:1037800028BF062609EB860A59F82660DAF804A055
:10379000AAEB060A0AF0FF0613B1CAF3072B5E4430
:1037A0005FEA877B44BFCAF3074B5E440AB106EB6E
:1037B0001A6659F82E9009F0FF0A13B1C9F30723CE
:1037C0009A44BB0744BFC9F307439A440AB10AEBC2
:1037D000196A401AACEB0E220099AF717243803225
:1037E0000128B8BF0120342301F0FF0158430AEB40
:1037F00012224843B0FBF2F0B0F5803F28BF4FF6ED
:10380000FF7008F30708A88085F807804348006820
:10381000A988286000201F2904D21F21A98004E064
:103820004908401CB1F5007FFAD20F39090940EA76
:10383000C1003B490843206000206060BDE8F18F73
:1038400010B53848006884B21CB300F0ABFA2B49BD
:1038500091F90720904205DA6FF07F029042B8BFDD
:103860001046C8718888844201D28C8010BD2B4AD2
:1038700012680B68D21A921C202A28BF1F22231A12
:103880005208D3401818B0F5803F28BF4FF6FF709C
:10389000888010BD2448026802B9704710B5234BD8
:1038A000996801F04060B0F1406F21D01148046880
:1038B000A4071DD45C68A4071AD404681B68C3F36A
:1038C00003531C331B0114F0050F06D09A420FD28C
:1038D0006FF005012140016010BD934208D20A013A
:1038E00058BF44F00104490158BF44F00404046087
:1038F00010BD00000000094030100940C41E002027
:10390000FDFDA400B43F0050B81200503C1100501F
:103910006E620840242208409C1300500820094091
:1039200000E7A4803410094028500940AC3F005003
:10393000EFF3108072B67047EFF3108062B67047F5
:10394000DFF800F099C8011010B50C18FFF7F0FF70
:10395000401E8041C00FDFF8F0130A68002AFCD037
:10396000246801220A6008B1FFF7E6FF204610BD77
:1039700038B5DFF8D843DFF8D8132078897B0025E5
:1039800008430AD0FCF742FEA178002906BF0121B6
:10399000A1700125FCF73EFE0DB1002032BD0220D2
:1039A000FEF78CFC0E20FEF79EFCDFF8A8030168F2
:1039B00009B1012032BDDFF8A023402111600121AF
:1039C000C1610020607032BD70B5DFF88C0382B039
:1039D000002101604821C160DFF8800300F1D804B4
:1039E000A17A002968D00129DFF8742329D1106851
:1039F0004BF2F5214843050ADFF868030068C0F37D
:103A00008140012806D100F0CDF9FEF7B8FF6843E8
:103A100005EB9055607B10B10020607305E0D24843
:103A20000068000215EB10204508D0480560290CFD
:103A3000416001218160C648807B00283AD0052082
:103A400039E0022909D11568284600F0FDF8A5F2F1
:103A5000FF5003282ED308202DE003292CD1116814
:103A600000F1B805A1F5C0612868E961002848BFE8
:103A70004042002948BF49428842A8BF002018DAC6
:103A80006868BB4E80B2009008234FF47F4230211B
:103A90003046FFF7AEFDA86800F072F90421304609
:103AA000FFF7A7FDA86900F071F93046FFF7A1FD07
:103AB000012020700B202073BDE873402DE9F041F8
:103AC000A64CDFF8AC82AB4FAB4EA34804F1E10546
:103AD00082B0E9784A1E0B2A00F28080DFE802F00B
:103AE000062233465B33465B3346636EA34909685F
:103AF0000968202088470F20F860072341F61D50F1
:103B000038614FF4C0720220009000F070F8072373
:103B10004FF4C07200214046FFF77EFD0120306067
:103B2000022044E00120F861287800281DBF002011
:103B3000306103200620E8700320386000207060A8
:103B40007068800734D4E878032804D1022000F09C
:103B50004BF8042007E0002000F046F8E87806283B
:103B60000CBF07200A20E87001201AE0042903D1C5
:103B70002021B961012105E00122BA610A290CBFA7
:103B8000032102216970002139600821C1600160B0
:103B90000120386026E005290CBF06200920E870C6
:103BA0000020706004E00020306070600C20E8703D
:103BB00004F17800BDE8F641FCF738BD0021016052
:103BC0000120644908600E20FEF722FB0220FEF768
:103BD0000BFB0120E8700020A87003E0BDE8F34172
:103BE000FFF7AEBEBDE8F3810090052360220021FF
:103BF0004046FFF7FEBC000080B558495E4891F88A
:103C0000E410891E0A291AD8DFE801F0060A0E1905
:103C10000A0E190A0E19120001688907FCD510E076
:103C200041688907FCD40CE041688907FCD508E0AD
:103C300001688907FCD441688907FCD401E0FFF7DB
:103C40007FFEBDE8014039E7F8B50746484C302112
:103C50002046FFF779FE414E06F1B805C0F3072074
:103C6000686004212046FFF76FFEC0F38440A8601F
:103C700020212046FFF768FEC0F38120A861B7F538
:103C8000C060286002D186F8D800F1BD296996F895
:103C9000D8202AB96A68A968EA60E861AA696A61F5
:103CA000E86900284CBF6FF00102022200EB4000DF
:103CB0001018421000EB927001EBA0006968E960F7
:103CC000012810DA6A69032A04D1153001281DDAA7
:103CD00001201BE00B300128B8BF0120491E48BF5E
:103CE0000021E96007E01F2812DB6A692AB915384C
:103CF0001F28A8BF1E20032109E00B381F28A8BFDA
:103D00001E20491C4029A8BF3F21E96000216961AC
:103D100028610823E86880B200904FF47F42302188
:103D200000F03CF80120009011234FF4003200F025
:103D300034F8286900F024F800F02FF8686900F0E2
:103D400025F800F02BF8F1BD00800C40AD0A0020F2
:103D5000E484000004800C402C500C40CC0900206E
:103D600008400C40B43F0050102009403C600C401B
:103D700000A00C4000400C4034600C40A00100103A
:103D800080B2009012234FF4F802704780B2009086
:103D90000A234FF440622021704704212046FFF798
:103DA00028BC00000748084A81681278006852B2AF
:103DB000A0F54070C9035043C913A1EB2010803017
:103DC00000127047285009400C13005070B504468B
:103DD000FFF7AEFD451EAD41ED0F074E30680028E0
:103DE000FCD0A04701203060002D1CBFBDE8704012
:103DF000FFF7A2BD70BD000000800C4062F30F22EF
:103E000062F31F4200B500BF130096469446103976
:103E100028BFA0E80C50FAD85FEA417C28BF0CC04C
:103E200048BF40F8042BC90728BF20F8022B48BF21
:103E300000F8012B00BD000030480068000C00F0C5
:103E40000700052828BF4FF0FF3070472C490A684B
:103E5000C2F30F324BF69A139A424FF0FF3006D15D
:103E60000868000F0B280CBF0420002070474BF699
:103E7000BE118A4201D1012070474BF641318A427E
:103E800001D1032070474BF620318A4208BF02203F
:103E9000704700001A48F8B50068050F1948006817
:103EA00000F0FF06802E28BF0026FFF7CFFF042872
:103EB0004FF0FF3406F10A071DD8DFE800F00312C7
:103EC0001A1A1B00012D12D0032D06D0072D06D083
:103ED000082D08BF06F116040DE014240BE015248C
:103EE00009E025B1022D08BF06F1140403E00A24FD
:103EF00001E005B93C4660B2F2BD000094120050EA
:103F000018130050A010005080B5FFF79FFF20B994
:103F1000FFF7C0FF162800DB01BDFEE77047FCF786
:103F200075BBFCF777BB0000DFF800F0D9C10110CA
:103F3000DFF800F0ADB50110DFF800F019AE0110A8
:103F4000DFF800F0E5C10110DFF800F085C20110D4
:103F5000DFF800F081C20110DFF800F055C1011058
:103F6000DFF800F043C20110DFF800F079AB011078
:103F7000DFF800F0D9B60110DFF800F0EDB3011062
:103F800020B108232C22002100F02ABD704720B167
:103F900008233C220021FFF7C7BF704780B5FEF71A
:103FA00055F8ADF80000FCF731FBADF802000098C1
:103FB00002BD01B5BDF80200FCF72CFBBDF8000006
:103FC000BDE80240FEF746B838B5DFF8D028DFF884
:103FD000D018DFF8D04892089200891A2161E26077
:103FE00010468B18002501E020F8025B9842FBD3B5
:103FF0008B0802EB8303E82023F8045C10804FF663
:10400000FC700140EC39A2F8E810002002F1E80150
:10401000616000F004F8A060E068606031BDF8B550
:1040200000240026051D15F003001CBF291D0D1AD4
:10403000FFF7B4FF0146DFF86C08ABB20160112B4B
:10404000B4BF426882681088070403D580F400403A
:1040500000261BE0370015D02788B2F800C067445F
:1040600027801FFA85FCBFB267450FD33846C4B11D
:10407000AAB2801A82B2042A0EDBE05245F400454F
:1040800025800DE0984210DA01261446024410887B
:104090000028D9D1002404E0208840F4004020808A
:1040A000241D00F0A3FB2046F2BD1446DFE710B547
:1040B0000446FFF773FFDFF8EC17086034F8042CB0
:1040C000C2F30E0224F8042C221F4B689A4238BF18
:1040D0004A60BDE810406CE738B50446FFF75EFF64
:1040E00000220C23DFF8C0175343CD18A96C21B16F
:1040F0008C4203D0521C032AF3D3F7E0FFF759FF99
:1041000005F1480032BD7CB50546FFF747FF044680
:1041100000210C22DFF890074A438618B06C48B1A2
:10412000854211D0491C0329F3D32046FFF741FFF4
:10413000002076BD3065B56400220021FFF7F8FE4F
:10414000F06408B900F056FC2046FFF732FF06F194
:10415000480076BD38B50446FFF720FF0025DFF89C
:1041600048270C216943515A21B18C4206D06D1C5D
:10417000062DF6D3FFF71DFFFF2032BDFFF719FF15
:10418000E8B232BD10B504462088FFF7E3FFFF28F0
:1041900000D177E10C21DFF81027484310448168F3
:1041A00011B96FF0010010BD2046BDE8104008476E
:1041B00002460FF26470104710B500200C21DFF8A2
:1041C000E826002401FB00F31344401C03289C64F0
:1041D0001C65F7D30020002301FB00F4401C13539F
:1041E0000628F9D3082010800FF215709060BDE802
:1041F0001040E9E678B58FB0FDF728FF0546684620
:10420000FFF7C5FE052040F2B631069008914FF643
:10421000C940DFF898160490059100226946DFF83E
:104220009006FFF789FE040006D0FFF7B7FE0646AA
:104230002046FFF768FF08B900F0DCFB3046FFF7C7
:10424000B8FE2846FDF706FF10B070BDF8B500F0C7
:10425000F1F8FFF758FF04006FF0020623D0FFF7D4
:104260009DFEAB88DFF84076014600220C2000FB63
:1042700002FC07EB0C0EBEF8000030B1834210D0F8
:10428000521C062AF2D300F0B5FB381DAEF8003000
:1042900040F80C40A868CEF808002A7360682861CE
:1042A000CAE200F0A3FA3046F2BD38B500F0C2F819
:1042B000FFF729FF04000DD0FFF770FE0146002232
:1042C0000C23DFF8E40553430344188820B1521C43
:1042D000062AF5D300F08EFB4FF6F87018805C606C
:1042E000002098602A716068A8600846FFF761FEA8
:1042F000002032BD10B5044660680C3080B2FFF774
:104300008EFE00B91AE06168018100210160FF2181
:1043100081720C30A060002010BD80B540680C3860
:1043200011E080B27BE610B50446606880B2FFF70A
:1043300076FEA06000B901E0002010BD6FF0030020
:1043400010BD80B54068FFF7B2FE002002BD38B551
:1043500004460D46FFF722FE002145F80C1C22689A
:1043600012B9256006E00A4652F80C1C0029FAD161
:1043700042F80C5CBDE832401BE62DE9F0410446F2
:104380006FF00208E068A0F10C05A0790628BCBF18
:10439000217906290BDAFFF701FEA279DFF808750B
:1043A0000C26391D7243895819B9FFF702FE4046A1
:1043B00017E0FFF7FEFD20792871A0796871207A57
:1043C000A871381DA279E168724380580830FFF760
:1043D000BEFFA079391D464388594068FCF712F9A1
:1043E0000020BDE8F08170B500F024F8FFF774FEFE
:1043F000040002D16FF0040070BDFFF7CFFDA1688B
:10440000002641B10E46A6F10C010A68A260002206
:104410000A60FF228A72FFF7CCFD3000AE6001D146
:10442000022070BDA6F10C00017929714079A871B4
:10443000002070BD0546FFF783BD062881B00ADA6B
:104440000C22DFF864345043185A00281CBF4FF682
:10445000F873984202D14FF0FF3001E0088000204D
:1044600001B07047811D0079E7E710B50446E08888
:10447000FFF770FEFF2800D104E0A0712046BDE8E0
:1044800010407AE74FF0FF3010BD3EB50546FFF70C
:10449000AAFF040017D128796946FFF7CEFF78B14B
:1044A0000820ADF804000321ADF80610A868DFF875
:1044B00004148A68029001A890476FF005003EBD81
:1044C000BDF80000A88020463EBD30B5DFF8E853B7
:1044D0002A680C464FF47A71A1FB00010023FEF715
:1044E000C9FD002399424FF0004201D8904202D307
:1044F0006FF0020030BD2060002030BD38B5FFF7FE
:1045000099FFFFF7E9FD0446FDF7E3F8002818BF1F
:10451000012800D014B96FF0040032BD686840B9BA
:10452000009000996068FCF769F8401E8041C00F58
:1045300032BD10F1010F08BF4FF0FF30F0D06946D7
:10454000FFF7C3FF0028ECD032BD80B54068FCF710
:1045500059F8002002BD00F04DFA00BF80B5406858
:10456000FFF7F2FC002002BD80B54068FFF7F0FCC9
:10457000002002BD80B5FFF7EFFCFFF7F1FC002043
:1045800002BD80B5FDF762FDFCF740F8002002BDDA
:1045900018B58BB004466846FFF7F2FCE02100F046
:1045A00013F808B900F026FA0BE018B58BB00446F2
:1045B0006846FFF7E5FCE16800F006F808B900F08E
:1045C00019FA00200CB010BD08910023A1686068A2
:1045D0006A46FFF7C9BC10B50446FFF7C9FC606026
:1045E000002010BD0146886849680847F8B50746AD
:1045F0008AB0BC68AF4D6CBB0C20FFF710FD040007
:104600006FF003061ED008232422002101A8FCF726
:1046100005F80020ADF8140006900794002379688F
:10462000A64801AAFFF7A8FC206068B90C21082061
:10463000ADF80210ADF800006846A968884720462A
:10464000FFF735FD304618E0F86860603869A06013
:10465000BC600AE02868804706462068FDF7A0F89D
:104660003869A06030466968884779682068FBF738
:10467000D9FF2068FBF7DAFF00200BB0F0BD1CB5B6
:10468000044669466068FFF720FF20B90098606023
:104690002046FFF7ABFF16BD80B5406810B96FF03C
:1046A000020002BD0068FDF77BF8002002BD8249D0
:1046B0000A6842600020704750B504467E48026890
:1046C0006FF00046A6FB020100234FF47A72FEF75A
:1046D000D1FC002399424FF0004201D8904200D310
:1046E00030466060002050BD2DE9F04186B007469D
:1046F000FFF726FCFFF7F0FC044600200190FCF7D2
:10470000E8FF002818BF012800D014B96FF004009A
:1047100069E0786808B900900BE010F1010F03D14F
:104720004FF0FF31009104E06946FFF7CEFE05002F
:1047300058D1FFF71DFC804600982646012580448D
:10474000002414E0059901A8FFF701FE0099012556
:10475000641C11F1010F0AD0080008D0FFF708FC13
:10476000B8EB000025D00099814222D30090009937
:104770007068FBF743FFE0B103A8FFF734FE0500C4
:10478000E4D19DF8100002A9FFF757FE0028D9D107
:10479000059A9DF81210BDF80800BB6898470028DC
:1047A000D0D0BDF80800B8819DF81200B873059804
:1047B0003861019FFFF7F2FB014657B13A4600E02E
:1047C000024652F80C0C0028FAD1B06842F80C0CE2
:1047D000B76000F00BF8002C03E07068FBF712FFE5
:1047E000641EFAD1284606B0BDE8F0810846FFF7FE
:1047F000E0BBF8B50446FFF7A3FB0646FCF769FFEC
:10480000002818BF01286FF0040512D0FFF7C6FB7F
:1048100001460022244B0C275743D85B38B1D819E6
:1048200047683868B04206D0521C062AF3D3FFF717
:10483000DDFF2846F2BD22710846FFF7BAFB0020D3
:10484000F2BDF8B50446FCF744FF002818BF012864
:1048500002D16FF00400F2BDFFF772FB0546FFF7CF
:104860009DFBA788104B014600220C265643985BFF
:1048700020B1B84207D0521C062AF6D3FFF7B6FF84
:104880004FF0FF30F2BD981940680268AA420CBF91
:1048900001200020A060CFE700000000D81E00200B
:1048A000503F0020981600202C160020A404002061
:1048B000B14100009004002020890000E54500007F
:1048C00070B504463C20FFF7AAFB05006FF0030615
:1048D00011D0FFF75CFB207AA86100226089286272
:1048E0002946E06828616068FFF726FB04462846F1
:1048F000FFF7DDFB0CB9304670BD002070BD000035
:1049000041882D2902D36FF0010070470FF2140285
:1049100052F8211008470000854100009D3F00002B
:10492000B33F00004D420000AB420000F5420000E2
:104930001B43000027430000434300007B4300006B
:10494000E74300006B4400008B440000FD4400007E
:104950004B450000574500005D45000069450000DB
:10496000754500008345000091450000D7450000D3
:104970007F460000AF460000B946000065440000D5
:104980004F7E0000217F0000E9460000F347000051
:10499000ED45000099460000BB7E0000F37E00005C
:1049A000077F000043480000517F0000697F00003E
:1049B000C148000000000000000000005F7F000010
:1049C000777F0000AB450000000000000000000001
:1049D0000000000000000000DFF800F0F1C5011049
:1049E00001B90149FFF7F8BFA0010000DFF800F0AE
:1049F000ED8C01100120FFF7F9BF0000E0B50821A0
:104A0000ADF80010022200F00DF808B100200EBD34
:104A100002980EBDE0B50821ADF80010032200F0A9
:104A200001F807BDADF8022001906846DFF8681371
:104A30000A6810471FB5ADF806108DF808208DF8EC
:104A40000400082400F037F80393ADF80040ADF8F7
:104A500002406846904704B010BD30B585B014469A
:104A6000029108221D46ADF80020192300F023F81A
:104A70000190ADF802306846904714B1BDF80C10B3
:104A8000218015B19DF80E1029700899049A0A60CA
:104A900005B030BDE0B51A21ADF80210082000F0D5
:104AA0000AF8ADF800006846904710B99DF8040078
:104AB0000EBDFF200EBDDFF8E0120A687047E0B5BA
:104AC000ADF800008DF806100020FFF7F4FFADF8F8
:104AD00002006846904710B99DF807000EBDFF2000
:104AE0000EBD50B110F1040F01D10420704710F138
:104AF000030F01D10220704701207047812303700A
:104B000042EAC112002342F47C42C37082807047A3
:104B10008223037081800023C370827170473EB589
:104B20000D462021ADF80210044610220820ADF8F1
:104B30000420ADF800006846FFF7BDFF904720B99C
:104B4000029810B16FF004003EBD009500230022D2
:104B500021464FF0FF30FFF780FF3EBD38B50B46D2
:104B60001446D978012903D19D88DFF830120D80D1
:104B700000F060FA58B9009069462046FFF7CFFF71
:104B800028B900984478FFF745FF204632BD1FE062
:104B900038B51C4615460B4600F04CFAC0B90090DB
:104BA00069462846FFF7BBFF90B900984578280072
:104BB00002BF0098C179A14205D100990498896883
:104BC0002246FDF705FF0098FFF724FF284632BD77
:104BD000FFF787FF32BDF8B505460E46174600F0D1
:104BE000C3F904000ED03A463146FFF791FF29463B
:104BF00000F035FA2072FFF74DFF234601B0BDE803
:104C0000F0405FE0F1BD10220121E4E738B500F08B
:104C100015FA040002D0042201214AE031BD2DE939
:104C2000F04100F0D8F804000FD0142200F019F879
:104C30002572E660278284F81280FFF72BFF214659
:104C4000BDE8F041DFF87C2488E725E038B500F0C6
:104C50002BF8040004D0152200F003F825812BE086
:104C600031BD012154E70022042182E02DE9F04109
:104C700000F0B1F804000FD0022200F010F8A56097
:104C8000A681A773C4F81080FFF704FF2146BDE892
:104C9000F041DFF8342461E70420BDE8F08104210D
:104CA00036E71022022196E705460A20A6E60221F1
:104CB0002EE7FFF72DFFA560FFF7ECFE234601B0BE
:104CC000BDE8304002221021B4E6F8B500F0ABF99F
:104CD00004000AD01522FFF7EAFF00F054FB21463A
:104CE000BDE8F840DFF8E42338E70420F2BD0022F5
:104CF00003213EE01CB50FF2450301930624009406
:104D0000032300F04DF816BD1078802802BF5188AB
:104D100040F27F60814208D19088984202BF00989B
:104D20009179814201D101207047002070471CB564
:104D30000624FFE70094FFF7E7FF16BD0323F6E71D
:104D400081B01078802802BF518840F27F60814294
:104D50000CD19088032818BF042807D19079002827
:104D60001CBF1028112801D1012000E0002001B053
:104D70007047F8B500F063FA04000BD03A463146AC
:104D8000FFF7C6FE00F05EF92146BDE8F840DFF807
:104D90004023E3E60420F2BD98040020E80A002046
:104DA0002DE9F84300F035F804000CD0DDF824902C
:104DB000089A4146FFF7ACFE2581668100F0E5FACE
:104DC0004A4600F07ABAFFE70420BDE8F2830546C0
:104DD0000E460C2012E605460E461746984614204D
:104DE0000CE64246032189E67CB504460D4616468C
:104DF000FFF750FE03461B2000903246294620460E
:104E000000F030F976BD1CB51D24009400F02AF99D
:104E100016BD05460E46174698461020FFF7EEBD14
:104E20002DE9F0478046894615469A461820FFF737
:104E3000E5FD040016D0099E089F002200F061F8ED
:104E400000F00CF9207284F80990A572C4F80CA047
:104E500027616661FFF71EFE2146BDE8F0470FF2AD
:104E600011327BE60420BDE8F0870FF209331122EE
:104E7000002145E10FF201331222F9E7F8B500F005
:104E8000E4F8040010D00A2200F03BF8294600F0B4
:104E9000E6F8207266812773FFF7FCFD2146BDE826
:104EA000F8400FF2D92259E60420F2BD0FF2D123C7
:104EB000062236E12DE9F04180460E4617461D4692
:104EC0001020FFF79BFD040011D0072200F019F815
:104ED00000F0C4F820726672A772E560FFF7DAFD91
:104EE0002146BDE8F0410FF29D22FFF737BED3E621
:104EF0000FF295230822002113E10FF291231022D3
:104F0000ECE00421FFF7FABD70B5FFF760FF040085
:104F10000BD03022FFF7F5FF00F009F82146BDE87D
:104F200070400FF26D22FFF719BE042070BD25817D
:104F30006681FFF7AFBD3EB500210546ADF8041010
:104F400000F012F804000CD03122FFF7DAFF2581BF
:104F5000FFF7A0FD01A9009102230FF2392200F012
:104F600006F8BDF804003EBD0A20FFF747BD214604
:104F7000FFF70EBE1CB500F07BF904000AD0122228
:104F8000FFF76FFEFFF786FD00F005F80FF209222C
:104F9000FFF7EDFF13E001A90091012370471CB555
:104FA00000F066F904000AD01822FFF75AFEFFF756
:104FB00071FDFFF7F0FF0FF2F112FFF7D8FF9DF838
:104FC000040016BD70B500F014F804000BD01922CF
:104FD000FFF747FE00F009F82146BDE870400FF2E8
:104FE000D112FFF7BBBD042070BD2581E660FFF73D
:104FF00051BD05460E461020FFF700BDF8B500F084
:1050000012F804000DD03622FFF77BFF2581668160
:1050100000F0BBF92146BDE8F8400FF29D12FFF702
:105020009DBD0420F2BD05460E4617461020FFF731
:10503000E5BC234602221021FFF7FCBC05460C20EC
:10504000FFF7DCBCA560FFF725BD05460E461746F9
:105050000E20FFF7D3BC25816681A78141465020F1
:10506000FFF72DBD2DE9F041FFF7B5FE040011D08B
:10507000069AFFF7B7FE25812774E660FFF7EEFF7B
:105080006074FFF707FD2146BDE8F0410FF25D12A5
:10509000FFF764BDFFF700BE38B515460D4A14682A
:1050A00034B1009302460B4629460120A04732BD89
:1050B000002032BD0A4608490B6813B101460120A1
:1050C000184770471152000021520000175200008B
:1050D000414D0000AC160020B01600202DE9F04133
:1050E00005460E46174698460C20FFF787FC04003D
:1050F00004D000F012F82581A672EBE0FFF7CCBDDA
:105100002DE9F041FFF785FE040004D000F005F81A
:10511000A560E660DEE0FFF7BFBD3A460421FFF779
:10512000EDBC2DE9F041FFF774FE040007D0FFF756
:10513000F4FF2946FFF793FF2072E660CAE0FFF70D
:10514000ABBD1078802802BF518840F27F60814259
:105150000CD190884FF680710140B1F57E4F04BFAD
:1051600000F07F00984201D1012070470020704775
:105170000023E6E71123E4E71223E2E70A23E0E74E
:105180000623DEE70723DCE70823DAE71023D8E766
:105190003023D6E73123D4E780B5122300930123CF
:1051A000FFF7B2FD02BD000080B51823F6E700004E
:1051B00080B51923F2E700003623C2E71078802873
:1051C00002BF518840F27F6081420DD190884FF636
:1051D000807101404FF68052914204BF00F07F0081
:1051E000984201D1012070470020704770B50446F5
:1051F0000D4616461D23FFF7E1FF18B91B2300F0EB
:1052000003F800B1012070BD324629462046D5E79B
:1052100080B51423C2E780B5152300930223BFE7AE
:1052200080B5022300930423BAE70FF20D0142F286
:105230002F000AE00000000042F22F0352E0054672
:105240000E4617460C20FFF7D9BB70B505460E4633
:1052500000F011F8040009D000F034F8FFF71AFC50
:1052600032462146BDE87040FFF778BC042070BD8F
:1052700000218DF804100820FFF7C0BB2DE9F8438A
:1052800006460F46904699460E20FFF7B7FB0400EE
:1052900007D000F008F82781A4F80A80A4F80C9041
:1052A00008E0FFF791BD089D81202070A6800120B5
:1052B000E0707047FFF7EEFB2A462146BDE8F84351
:1052C000FFF74CBC812121700120E070A580704760
:1052D0002681E760FFF7DEFB42462146BDE8F0414C
:1052E000FFF73CBC1078802802BF518840F27F60F5
:1052F000814204BF9088984201D10120704700206C
:105300007047000038B504461546FFF7A8FE0FF2B7
:1053100015010091C2B22B4621464FF61840FFF707
:10532000ADFF32BD4FF61843DCE70000F8B5FFF7DC
:105330007AFE04000DD0012200F022F82572667278
:1053400000F023F82146BDE8F8400FF27902FFF79C
:1053500005BC0420F2BDF8B5FFF765FE04000DD0D2
:10536000022200F00DF82572667200F00EF8214658
:10537000BDE8F8400FF25102FFF7F0BB0420F2BD88
:105380000521FFF7BBBB2581A672E760FFF782BB53
:105390001078802802BF518840F27F6081420DD191
:1053A00090884FF6807101404FF68062914204BFB1
:1053B00000F07F00984201D1012070470020704723
:1053C000000000000123E3E70223E1E7DFF800F03B
:1053D00025B101102DE9FC4DDFF8B0590F4690467C
:1053E000002440F2013BAB7869792A7995F801A055
:1053F000B0EB0B0640F67B4C32D0761E38D0761ED2
:105400003DD0B61E41D0761E00F07780761E00F0AB
:105410007A80761E00F08680761E00F09580761EDB
:1054200000F09A80761E00F09F80761E00F0A58026
:10543000761E00F0AA80F61E00F0AF80761E00F007
:10544000B480761E00F0B980761E00F0BE80761E15
:1054500000F0C380761F00F0CB80B61E2BD0E1E0B9
:10546000102F40F0DD801022414605F1A40081E0BC
:10547000102F6AD11022414605F1B4007AE0042FC2
:1054800063D1D8F80000E862D7E0012F5DD101298F
:1054900031D098F80000287132B10028F4D1022BE5
:1054A00018D0052BF0D115E00028EDD0012B1ED02F
:1054B000042B1AD11BE0012F47D1012A1BD098F8E9
:1054C0000000687151B1002807D1032B1CBF072BC6
:1054D000052B02D15046FFF70BFDAEE00028FCD0B3
:1054E000012B1CBF042B062B01D0052B02D1012060
:1054F00000F045FCA1E012249FE0022F25D1B8F86E
:105500000000E88399E0202F0DDA05F1CC041F217B
:10551000204600F043FC00F097F8AF7123463A466E
:1055200001210DE0202F7BDA05F1EC041F2120463C
:1055300000F034FC00F088F8EF7123463A46002171
:105540005046FFF7B7FC75E0012F69D198F80000CD
:10555000042865DC287270E0012F61D198F8000002
:1055600004285DDA687268E0062F59D106224146A8
:1055700005F58670FDF72CFA5FE0012F50D198F801
:10558000000007284CDCA87257E0012F48D198F89A
:105590000000042844DAE8724FE0012F40D198F867
:1055A000000005283CDC287447E000F049F837D1BA
:1055B000811F614534D268823FE000F041F82FD16D
:1055C000811F61452CD2A88237E000F039F827D13D
:1055D000B0F5FA7F24DAE8822FE000F031F81FD12D
:1055E000A0F10A0140F67742914219D2288324E0C3
:1055F000012F04BF98F80000012811D105F18000A7
:1056000000F022FC50B905F1100100F06AFB040023
:1056100013D105F15C0000F01EFC0EE016240CE036
:1056200018240AE0282807DA022F05D1B8F800105C
:10563000FFF76AFC044600E002242046BDE8F68D30
:10564000B8F80000022F70473A4641462046FDF761
:10565000BFB938B500244FF440730D46C21ADFF8C5
:105660002C1736D0521E36D0521E37D0521E38D08C
:10567000521E39D0521E3AD0521E3CD0521E3CD03F
:10568000521E3DD0521E3ED0521E3ED0521E3ED023
:10569000521E40D0521E40D0521E40D0921E40D0CA
:1056A000521E40D0521E40D0521E40D0521E40D0FA
:1056B000521E40D0521E45D0521E45D0521E45D0DB
:1056C000921E47D0521E14D0521E41D0521E43D0BB
:1056D00045E0C87841E01022A4312FE01022B43117
:1056E0002CE0C86A286041E00622C43126E008792F
:1056F00033E0487931E0C88B35E08A79CC311DE060
:10570000CA79EC311AE0087A27E0487A25E00622C7
:1057100001F5867112E0887A1FE0C87A1DE0088CD6
:1057200021E0087C1FE0488A1DE0888A1BE0C88AC7
:1057300019E0088B17E0062201F58A712846FDF76B
:1057400047F913E0488C0EE0888C0CE0C88C0AE026
:10575000087B02E0887800E0487B287006E0282873
:1057600003DAFFF7E8FB288000E00224204632BD80
:105770001CB5DFF81846A17881B900B1206304F1A7
:105780002C00019004F1B400009004F1A403E1782E
:1057900060780022FFF744FB002016BD112016BDE3
:1057A000DFF8E8058178062918BF072982B005D1FE
:1057B000018C4078132202B0FFF760BB122002B0C8
:1057C000704700B58FB008233C2200216846FEF7E1
:1057D000ABFBDFF8BC0500F1500107914FF4DC7220
:1057E00003210892069100236A460FF2CD01FFF7CC
:1057F000EDFD0FB000BD7FB50121ADF8021008200E
:10580000DFF89015DFF884450A680FF28D55ADF882
:1058100000000026684690479DF8040060700298DA
:10582000A0620020A0704FF6FF702084FFF7A2FB5B
:1058300020700021012000F037F804F1380000F05A
:10584000CCFA022000F02FF804F15C0000F0C5FA59
:10585000042000F028F804F1800000F0BEFA0420D3
:10586000E07004F1A402002000210023002582E85A
:105870002B0004F1B405E06285E84B0020726072F1
:10588000E1720720A07210210220FFF74FFD2A4687
:1058900010210320FFF74AFD04F12C02042104200B
:1058A000FFF744FD7FBD00210190009100230022FD
:1058B00029467047000000002DE9FF47FFF79BFFD6
:1058C000DFF8C854DFF8CC6405F5867905F1800A65
:1058D0004FF6FF784FF0FF3708200A21ADF800009F
:1058E000ADF802100197684631688847002845D115
:1058F000092100F097F86846316888479DF806103E
:10590000029C00283AD1BDF80400102804BF6A7830
:1059100091422BD12088404509D16088410425D58A
:1059200005F12C0204210420FFF715FD1EE020786C
:10593000A22805D0D02804BF204600F079F815E051
:105940006079132812D12189012904BFA87B02287C
:1059500005D1504600F07FFAFFF722FF06E0052050
:10596000FFF7E9FA0146504600F05EFA34B1032130
:1059700000F058F80194684631688847A88BC10741
:105980002DD54FF6FE710840A88329796879014327
:1059900025D018B103208DF800000BE0297A687A31
:1059A0008DF800108DF80100062249460DF1020025
:1059B000FDF70EF8A87A8DF808006946E87A8DF8A8
:1059C00009006878FFF772FA00281FBF0820A87046
:1059D000286B002803D0016809B108208847A88BEC
:1059E000810708D54FF6FD710840A88305F1100125
:1059F000002000F076F9A88B41070AD54FF6FB711D
:105A00000840A883A87B012804D0022808BFFFF71C
:105A1000C7FE61E700902B8BEA8AA98A688A00F0AA
:105A200095F959E70820ADF80210ADF8000070476D
:105A3000FEB50546DFF85443A978A27863790800DB
:105A400004F58A7604F1800715D002293CD0032999
:105A500018BF04295DD0052900F07F80062900F0D9
:105A6000AB80072900F0CD800F2900F0E5801129D7
:105A700000F0E780F7BD687801001AD104F1A402B4
:105A800010210220FFF767FC04F1B402102103206B
:105A9000FFF761FC0622E91C04F1C400FCF798FF43
:105AA0000120A07004F1CC03A27960780121FFF7F6
:105AB00001FA08B10820A070206B00281FBF016800
:105AC0000029A0788847F7BD6978E1B9E87838B14E
:105AD000E279607804F1EC03FFF7ECF9687012E00A
:105AE000022A18BF072A0ED0062A02D1012B0AD19A
:105AF00001E0032A07D004F1380000F0A5F910B93D
:105B0000012000F03CF968780028DCD00821A17061
:105B1000D2E7687800BB2079032908D1062A08BF9C
:105B20000720C8D000280CBF03200220C3E7E18B68
:105B300031B103430AD004F1380000F075F905E0F3
:105B4000012807BF0020207100206071A07807287D
:105B500014BF04200620AEE7ACE7687830BB06220D
:105B6000291D3046FCF734FF688920840620A07088
:105B7000E8896084288AA084688AE084E8782073B1
:105B8000207C012818BF022809D11F20FFF7D3F974
:105B90004FF47A71414304F15C0000F045F96A89E1
:105BA000E8780423291DFFF73AF885E73128D3D197
