:020000040000FA
:0600000002011A022FE5C7
:03002B0002373663
:03003B0002375E2B
:030043000236E0A2
:0300530002305B1D
:03006B0002370B4E
:10008300022E3BE5C754F84401F5C779012200006D
:100093000080FB120086B90003020104E479217891
:1000A30008B800028004F709D8FCE479297802B87B
:1000B30000028004F709D8FCE4900281782D7917B7
:1000C3008002F0A3D8FCD9FA781A90014A7A01BACF
:1000D30000028007E493A3F608DAF97AAD7B18905F
:1000E300014B789C79048015E493A3AD82AE838A97
:1000F300828B83F0A3AA82AB838D828E83D8E9D9C6
:10010300E77582B0758389740512012C7582917528
:100113008300740012012C75D00075813F7518811E
:10012300751902759F00020096C09FF59FE473D076
:100133009F22D083D082C09FE493C0E0740193C018
:10014300E0740293F59F22017E068A06BA06B4067E
:10015300FF0000B4000028002800283075A000A08C
:1001630000A000A00000080008E001F0001000104B
:10017300001000100010001000500050005000103C
:10018300001000D0070000000000000F0001000570
:1001930000307507001000010081FF00000000FF20
:1001A300FFFFF2071008F8073408FF0202020802F3
:1001B3005000A0000000E80302CA85010000A385E7
:1001C30002C485010000101902BE850100000A0463
:1001D30002C485010000111902BC8501000020043E
:1001E30002C485010000121902BA8501000022042D
:1001F30002C485010000131902B685080000230418
:1002030002C485010000141902B08501000015190C
:10021300FFFF0100FF2002CA85010000A98502C477
:10022300850100007A1902AE85000000000002C0BB
:100233008503000053041700EA0FEA0FEA0FEA0FE1
:10024300EA0FEA0FEA0FEA0FEA0FEA0FEA0FEA0FE3
:10025300EA0F1812361212125C136E1356130202AF
:1002630002020202020202010D000000100102CA92
:1002730085010000898402C485010000C31902B806
:1002830085010000A20E02C485010000C41902B456
:1002930085010000218402C485010000C51902AC58
:1002A30085010000C38302C485010000C61902D082
:1002B30085010000EB8202C485010000C71902D248
:1002C30085010000D98202C485010000C81902D447
:1002D30085010000FD8202C485010000C91902D610
:1002E300850100000F8302C485010000CA1902D8EA
:1002F30085010000DF8302C485010000CB1902DA07
:1003030085010000CC1901E803057710020A0A6091
:1003130015FFFFFF00013075030201060000000016
:1003230000000000000000000000000000000000CA
:100333000000000000000000FFFF0600800CE8033F
:1003430001FEFF014C000215010A09446172726546
:100353006E424C45051206000600020A0002010621
:100363001AFF4C0002154953534D415254000000EB
:1003730001000301010300000000CD03A0050A43AF
:1003830068617261637465726973746963203100B3
:10039300024368617261637465726973746963208F
:1003A30032000843686172616374657269737469CA
:1003B300632033001043686172616374657269730B
:1003C3007469632034000243686172616374657207
:1003D30069737469632035001643686172616374DD
:1003E3006572697374696320360002CA850100006F
:1003F300A08502C485010000E31A02DE8503000024
:10040300881802C285010000E41A02C485010000B5
:10041300F51A02E085010000891802C28501000077
:10042300F61A02C485010000071B02E285020000E0
:100433008A1802C285010000081B02C4850100005E
:10044300191B02E4850000008B1802C0850300001D
:100453008C1802C2850100001A1B02C4850100002A
:100463002B1B02E6850400008E1802C285010000E2
:100473002C1B02C4850100003D1B02E8850300001C
:10048300931802C085030000A81802C2850100006A
:100493003E1B3031323334353637383941424344E9
:1004A300454600286E756C6C20706F696E746572BA
:1004B3002900303132333435363738396162636479
:1004C3006566003F3F3F000000807F0000803FF9EA
:1004D300021550B743BA510000204100E7DB2E005C
:1004E30000A040120135008005120135FA80051283
:1004F3000135C1EF04120135D4EF04120135F5EFD4
:100503000412013560F004120135A1F00412013523
:10051300C2F00412013503F1041201359BF10412F8
:100523000135E3F104120135A8DC04120135BBDC0B
:1005330004120135ECDC0412013526DD0412013509
:100543007FDD04120135C6DD041201350EDE04120F
:1005530001353DDE041201356CDE04120135A3DEE4
:1005630004120135EADE0412013503DF04120135FA
:1005730058DF0412013586DF04120135C0DF04128F
:100583000135A4A203120135A7A303120135D4A395
:100593000312013525A40312013548A403120135C2
:1005A3005AA4031201355DA4031201359BA403125F
:1005B30001350FA5031201357BA50312013543A6AF
:1005C300031201355FA60312013596A60312013506
:1005D300D0A60312013567A703120135B9A7031289
:1005E3000135EAA7031201351BA80312013528A818
:1005F3000312013592A80312013595A803120135A0
:10060300A2A803120135A5A803120135FCA8031201
:100613000135FFA80312013538A9031201353BA99F
:10062300031201356FA90312013572A903120135B3
:10063300C6A9031201350FAA031201351FAA03121B
:10064300013552AA031201355FAA0312013562AACA
:1006530003120135CAAA03120135CCAB03120135CB
:1006630070AC03120135D9AC0312013517AD031277
:10067300013542E9031201353FEA03120135D5EA98
:100683000312013520EB0312013584EB031201350C
:100693000EEC03120135C7EC03120135E9EF031227
:1006A300013566F10312013589F1031201350EE3B9
:1006B300041201352EE3041201354FE4041201350F
:1006C300A2E404120135BDD404120135E5D40412A9
:1006D300013512D5041201354AD504120135A8D5C6
:1006E30004120135F4D5041201355BD60412013529
:1006F3009BD604120135D8D60412013506D704124D
:100703000135B0D704120135BAD704120135C7D762
:1007130004120135FAD70412013506D80412013543
:100723001ED80412013528D804120135608505123C
:1007330001356E85051201358685051201359D85C6
:10074300051201355CA40212013506A5021201351A
:1007530019A60212013595A602120135B3A702129A
:100763000135EFA7021201358AA8021201356EA9DD
:100773000212013531AA02120135A9AA021201356A
:1007830037AC02120135A8AC0212013562AD021278
:10079300013554AE0212013594AE0212013548AF51
:1007A300021201357AAF0212013570B1021201351E
:1007B300B7B102120135D5B1021201353BB20212B3
:1007C30001350AB302120135CEB302120135EDB57C
:1007D30002120135F7B5021201350080041201350A
:1007E300EA8004120135958104120135E681041271
:1007F3000135968204120135078304120135EC8317
:1008030004120135208404120135198504120135BF
:10081300568504120135328604120135718604129D
:1008230001358D860412013547F604120135CBF6E6
:1008330004120135F6F60412013510F804120135DD
:10084300B6D804120135CCD804120135EAD8041203
:100853000135FBD90412013505DA0412013530DB09
:100863000412013527DC0412013594DC041201352E
:100873009EDC041201353C8D04120135728E041284
:100883000135EC8E041201351C8F041201352F8FB4
:1008930004120135868F041201359B910412013530
:1008A30021D501120135D2D501120135EED5011240
:1008B3000135B7D601120135D1D601120135DCD687
:1008C30001120135B2D7011201358FD8011201355A
:1008D3001FD901120135D6D901120135E4DC011209
:1008E3000135D3DE0112013585DF011201354EE0FA
:1008F3000112013593E3011201353DE40112013583
:1009030066E50112013522E701120135C2E7011242
:10091300013510E8011201354FE80112013522E9D2
:100923000112013556E901120135E3E901120135DE
:100933000080021201358C8002120135F08102120F
:100943000135FC8102120135378202120135A6827C
:1009530002120135AF8302120135B8840212013548
:100963007F8502120135DC8602120135FA860212F6
:100973000135178702120135E287021201350A8811
:1009830002120135D48A02120135D98A02120135C5
:10099300F28C02120135408D02120135B08D021224
:1009A3000135EE8D02120135CA8E021201358A8F8E
:1009B30002120135D68F02120135D98F0212013589
:1009C3001D9002120135659002120135A4900212A6
:1009D3000135C69002120135FA90021201355D917C
:1009E30002120135D5A904120135DEA9041201351D
:1009F300ECA9041201353FAA041201355EAA0412C0
:100A03000135A3AA04120135E7AB0412013582AC08
:100A130004120135C6AC04120135F0AC04120135E1
:100A23005FAD04120135A5AD041201351CAE0412ED
:100A33000135CDAE041201356058001201357058EE
:100A4300001201351159001201356D59001201359B
:100A53002A5A00120135465B00120135785B0012F9
:100A63000135A75B00120135545D00120135CB5FE0
:100A7300001201353B62001201352D63001201356E
:100A83002664001201352D6600120135216900121A
:100A93000135506A00120135546C00120135646D42
:100AA30000120135F36E00120135E46F00120135B7
:100AB300327000120135A17000120135C5700012A9
:100AC3000135167100120135B77500120135B8767C
:100AD30000120135197700120135447700120135F0
:100AE3000A7800120135DFAE04120135E9AE0412B3
:100AF30001352EAF0412013542AF04120135D2AFD6
:100B0300041201350BB00412013546B0041201354D
:100B13006FB004120135BDB004120135D2B0041216
:100B23000135E7B004120135FCB0041201353FB1C1
:100B33000412013554B10412013568B104120135B0
:100B43007CB10412013591B104120135CBB1041209
:100B53000135EFB1041201351BB20412013552B253
:100B630004120135B4B20412013526B3041201355F
:100B730069B30412013593B304120135BEB30412F1
:100B830001357C8305120135CAEF02120135ADF040
:100B93000212013528F10212013563F10212013507
:100BA300B4F2021201353DF30212013555F502127A
:100BB3000135E7F70212013599F802120135A5F95B
:100BC3000212013518FB0212013571FB02120135C5
:100BD300D9FA031201351CFB03120135A0FB0312E2
:100BE300013573FC031201354AFF0312013559E83D
:100BF3000412013506E90412013513EA0412013522
:100C030052EA04120135ACEA041201353FF804122A
:100C13000135A2F8041201353FF90412013574F9C4
:100C230004120135A4F904120135C5F90412013582
:100C330000FA0412013520FA04120135A8BD04128A
:100C4300013534BE04120135F3BE041201350BC065
:100C53000412013525C204120135F38B0312013549
:100C6300188C03120135E58C03120135B98D03127B
:100C73000135268E031201357C8E03120135188F40
:100C8300031201354C9003120135279103120135EC
:100C930086910312013512920312013580920312D9
:100CA30001350C93031201350F9303120135599348
:100CB30003120135CB93031201355D940312013501
:100CC300FE94031201351E95031201356695031236
:100CD3000135AF9503120135CB9503120135F1951B
:100CE300031201356B960312013579960312013510
:100CF3000897031201357197031201350EC70412C9
:100D0300013593C704120135D5C704120135B9C89B
:100D13000412013526C9041201356AC904120135CA
:100D2300AEC904120135DBC90412013503CA04122A
:100D330001353BCA0412013579CA04120135A0CA30
:100D4300041201351ACB0412013564CB04120135A8
:100D530079A20112013572A4011201355FA70112B4
:100D63000135B3A701120135DEA701120135B7A87A
:100D730001120135F2A80112013522A90112013530
:100D830035A90112013576A901120135A3A9011272
:100D93000135F1A90112013526AA011201355CAA18
:100DA30001120135BBAA0112013540AB0112013515
:100DB300DFAD01120135C7AF0112013503B00112D6
:100DC300013581B101120135C6B101120135C7B236
:100DD30001120135B1B40112013534B501120135E7
:100DE3000BB60112013563B60112013545B8011284
:100DF300013514BA0112013519BA01120135E7BAE6
:100E0300011201357EBB01120135CCBC0112013543
:100E1300DDBC01120135A3DF031201351CE003120F
:100E23000135D6E503120135E1E6031201358AE8FF
:100E33000312013518E903120135EE85011201355C
:100E43006F86011201359C8601120135E786011276
:100E53000135E887011201352D88011201355988C2
:100E630001120135D58901120135578A0112013565
:100E7300A68A01120135118B01120135C58B0112AE
:100E83000135628C01120135DD8C01120135678D4C
:100E930001120135BA8D01120135028F011201359C
:100EA3008190011201354C910112013559910112C2
:100EB3000135A99101120135B99101120135DD9175
:100EC30001120135E09101120135C9920112013578
:100ED300AB93011201354D9401120135E8940112CF
:100EE30001350F95011201356C9501120135C3953A
:100EF300011201351196011201355F960112013578
:100F0300C896011201356897011201350498011240
:100F1300013591980112013506990112013556994F
:100F230001120135B59901120135DC990112013520
:100F3300969A01120135879C01120135D09C01124A
:100F43000135029D01120135799D01120135039F7F
:100F530001120135B79F01120135E79F01120135D7
:100F6300FC9F011201356CA001120135ADA00112E5
:100F73000135C2A10112013543A201120135E3D5A6
:100F8300031201352ED6031201353AD60312013569
:100F93000ED70312013525D70312013562D7031289
:100FA300013593D703120135CBD70312013521D86D
:100FB3000312013537D80312013573D803120135F3
:100FC30086D803120135ADD803120135E1D80312D7
:100FD300013507DA0312013551DB031201354DDC0C
:100FE300031201356ADD03120135E8FF01120135F1
:100FF300A8A40412013556A8041201358AA90412C3
:101003000135008003120135C38203120135C98201
:1010130003120135868503120135E087031201357A
:101023005CC204120135F3C204120135B1C30412C8
:101033000135DBC30412013511C60412013500BDAD
:10104300011201353BBD0112013580C90112013581
:10105300ECCA01120135E9CB011201356ECF011241
:10106300013558D001120135A4D001120135BED08B
:1010730001120135FBD00112013506D101120135F0
:101083000FD101120135BFD1011201358FD20112E7
:101093000135D6D2011201353CD301120135AED34D
:1010A300011201353592021201357D950212013587
:1010B300839502120135D69C02120135E3A0021278
:1010C30001351AFC02120135B0FC02120135C6FCCF
:1010D300021201351FFD0212013563FD02120135B3
:1010E3009DFD0212013535FE02120135A4FE0212E6
:1010F3000135ADFE02120135B9FE02120135D3FEF0
:1011030002120135FDFE0212013512FF02120135F2
:1011130074FF021201359BFF02120135EE860412A1
:101123000135FB8604120135158704120135488702
:1011330004120135868704120135EB870412013549
:101143000088041201350B88041201351888041233
:1011530001352F88041201353D88041201354C886E
:1011630004120135618804120135768804120135B1
:101173008188041201358D88041201359A8804127E
:101183000135A98804120135B48804120135D988C0
:10119300041201357D89041201358D89041201354C
:1011A300A28904120135B78904120135D1890412C9
:1011B3000135EE89041201350B8A04120135168AB2
:1011C30004120135C28A04120135A38B04120135BE
:1011D300C88B04120135D38B04120135E88B04123A
:1011E3000135FC8B041201355D8C04120135638CCF
:1011F30004120135698C041201356F8C0412013518
:10120300878C04120135BA8C041201353DAD0312EB
:1012130001355FAD0312013527AE03120135E1B08D
:1012230003120135F7B10312013518B30312013567
:10123300F2B303120135A1B40312013503D502122F
:1012430001359AD50212013532D60212013522D761
:101253000212013559D7021201356CD7021201353A
:10126300DAD70212013575D9021201359CD902125F
:1012730001353EDA0212013573DA0212013584DADE
:1012830002120135FDDA021201351EDB02120135AD
:1012930036DB021201358EDC0212013597DE0212B3
:1012A3000135E7E002120135EAE10212013539E2C4
:1012B3000212013567C60212013564C702120135F5
:1012C3004FC80212013559C80212013563C8021210
:1012D300013585C80212013591C802120135E3C9EF
:1012E3000212013512CA0212013542CB0212013534
:1012F30084CB02120135B0CC0212013586CD021225
:101303000135D8CD0212013537CE021201356ECE2A
:1013130002120135A9CE0212013544D2021201355F
:101323005DD202120135DFD202120135EDD2021273
:10133300013542D30212013550D302120135BDD318
:10134300021201352FD40212013575D40212013570
:10135300949703120135B69703120135A09903122E
:101363000135459D03120135889E03120135629FA5
:10137300031201351BFC0412013540FC0412013534
:10138300B1FC04120135ACF203120135B5F20312BC
:101393000135BEF203120135EFF3031201350EF6E8
:1013A3000312013544F6031201357EF603120135AB
:1013B300B4F603120135EEF60312013522F70312D8
:1013C30001354EF70312013597F703120135D1F7B3
:1013D3000312013519F8031201356FF803120135B1
:1013E300A4F803120135FFF80312013539F903128A
:1013F30001358AF903120135C0F903120135FAF9EF
:101403000312013528FA031201354BFA0312013591
:10141300B58705120135E187051201353C880512B0
:10142300013546880512013556880512013576784F
:1014330000120135BA7800120135687900120135BE
:10144300BA7900120135547A00120135907A0012EC
:1014530001352A7B001201359F7B00120135F87C90
:1014630000120135117D00120135497E001201354C
:10147300DC7E00120135457F00120135B17F001279
:101483000135E1B80412013508B904120135608849
:1014930005120135E03700120135FB3A0012013520
:1014A300EB3C001201355D3D001201351B3E00127D
:1014B3000135C03E00120135553F00120135DD3FB5
:1014C3000012013507400012013541450012013574
:1014D300D445001201350347001201356747001256
:1014E30001351B4800120135CE4A00120135084B65
:1014F30000120135724B00120135CF4B001201353A
:101503002C4C00120135894C00120135744D001228
:101513000135BA4D00120135054E00120135264E34
:1015230000120135884F00120135A34F0012013517
:1015330029510012013556510012013596510012FE
:101543000135DC5100120135FA51001201353852D0
:1015530000120135775400120135B05400120135E1
:10156300475500120135E95500120135795600122D
:101573000135EB56001201352C58001201355EED92
:1015830004120135F2ED04120135C9EE04120135DE
:10159300F2EE0412013559EF041201350EFF041265
:1015A30001351FFF04120135F0FF0412013528E055
:1015B30004120135F3E204120135778B051201356C
:1015C300D1FD04120135E1FD0412013501FE0412BF
:1015D3000135FDFE04120135AFE50412013548E67D
:1015E300041201353EE8041201352E81051201353E
:1015F300588105120135B48105120135C2810512E6
:1016030001351482051201354782051201354A82DC
:1016130005120135E6B3041201350BB4041201358A
:1016230032B40412013559B40412013581B40412E1
:101633000135B9B404120135E9B404120135B0B56A
:10164300041201359BB604120135D5B604120135D7
:1016530037B8041201354299041201356199041215
:101663000135F39904120135F19A04120135069EEE
:1016730004120135669E04120135E39E04120135FE
:10168300F87F0012013534F404120135D8F5041241
:10169300013544F604120135019F04120135FEA001
:1016A3000412013584A10412013586A20412013506
:1016B3004AA304120135BFA3041201351FA4041267
:1016C300013522A40412013530A40412013544A4C7
:1016D300041201355CA40412013574A4041201350B
:1016E30082A4041201359AA4041201350A89051251
:1016F3000135808905120135908905120135A089CC
:10170300051201352EFA0412013557FA0412013578
:1017130081FA041201353CFB041201355CFB04120F
:101723000135B4FB04120135D9C103120135E7C1F8
:10173300031201352DC20312013580C20312013594
:10174300C8C20312013522C30312013543C3031276
:10175300013570C6031201357EC603120135DAC6A0
:10176300031201350DC70312013520C703120135DA
:10177300ABC70312013544C803120135C1C80312B4
:101783000135FAC80312013582C903120135D9C9DB
:101793000312013536CA0312013548CA0312013553
:1017A3007CCA0312013585CA03120135D2CB031259
:1017B300013532FE0112013591FE011201352EFF72
:1017C3000112013594FF01120135A4CB0412013536
:1017D300D7CB04120135FECC0412013523CD0412FC
:1017E3000135E8CD04120135C4CE04120135588207
:1017F30005120135248305120135F7EA0412013578
:101803003CEB041201357CEB0412013519ED041293
:101813000135908405120135AB8405120135BB8473
:1018230005120135208505120135F18605120135B2
:101833002D860512013506CC03120135E2CC0312C5
:10184300013529CD0312013566CD03120135D2CD01
:10185300031201352ACE031201359ACE0312013544
:101863006ACF0312013553D003120135D7D00312C7
:1018730001356CD203120135F5D20312013562D35F
:1018830003120135D8D303120135EFD30312013507
:1018930018D5031201356AD5031201356293041278
:1018A3000135829304120135729404120135BB94FD
:1018B30004120135DB940412013519950412013524
:1018C300749504120135B29504120135FC95041286
:1018D3000135C89804120135319904120135D9EA4A
:1018E30001120135F2EF01120135E9F2011201355E
:1018F3000FF30112013538F301120135EAF3011236
:101903000135CBF501120135E6F601120135FFF67B
:1019130001120135F5FB011201352EFC01120135CF
:1019230072FC011201357FFD011201350EF2041222
:10193300013542F2041201350BF30412013522F38F
:101943000412013584F30412013594F304120135B2
:1019530099F304120135CBF304120135D2F30412C7
:101963000135D5F30412013595B703120135ACB82F
:1019730003120135D3B8031201352FBC031201350D
:1019830068BC031201357BBC0312013517BD03127A
:1019930001351ABD03120135D1BE031201352DBF26
:1019A3000312013530BF0312013595BF0312013510
:1019B300A6C10312013586E202120135D9E40212EF
:1019C300013579EA02120135E0EA021201350EEB24
:1019D3000212013547EB02120135CFEB021201353A
:1019E300EEEB02120135B0EC0212013546EE0212A3
:1019F3000135EFEE021201352CEF0212013540EFF3
:101A0300021201357AEF0212013531D00412013589
:101A130030D104120135C8D20412013501B60212C5
:101A2300013514BB02120135DC8A05120135228B04
:101A330005120135468A05120135708A05120135F2
:101A4300C9FF021201354E8B05120135968B05E055
:101A530066701008A3E066700A08A3E066700408C5
:101A6300A3E06622C008C3E096F50808A3E0964207
:101A73000808A3E096420808A3E0964208A2D265AC
:101A8300D033E5087001D3D00822C3E7960809E7ED
:101A9300960809E7960809E79622C3E09608A3E0AB
:101AA3009608A3E09608A3E09622C008C3E096F543
:101AB3000808A3E096420808A3E096420808A3E0BA
:101AC3009645087001D3D00822080808E630E711CC
:101AD300122386121AE4080808C64480C618181888
:101AE30022181818E9799EC608CAC608CBC608CCBE
:101AF300C6C370207996CACBCC7019798ECBCC70C3
:101B0300137986CC700EF9802ACA33CACB33CBCC77
:101B130033CC331930E7F2CCCBCA3350147004EA18
:101B230030E00DE4CA3ACACB3BCBCC3CCC500209E3
:101B3300C3E913C6CC182313C6CB18C6CA18C6F9F3
:101B430022121B8420F01430E72B74FFFCFBFA7481
:101B53007F8022E4FCFBFA7480801AB48008BC0006
:101B6300F2BB00EF800F50EBF9E4C39AFAE49BFB5E
:101B7300E49CFCE499C6CC18C6CB18C6CA18C6F9AF
:101B830022E4C9C608CAC608CBC6D3330308CCC6E9
:101B93003392F0C3947F402E94184019C9B90704B7
:101BA300CACBCC225025C309CA33CACB33CBCC33DF
:101BB300CC33D9F422F4600DC9CCC313CB13CBCAF5
:101BC30013CAD9F6CC22E4FCFBFA2214FCFBFA225A
:101BD300E62618461846184622E7271947194719D3
:101BE3004722181818E60846087009E62608700503
:101BF300E633F4220822191919E70947097009E79E
:101C030027097005E733F4220922E6084608C313BF
:101C13004608336002E633F422E7094709C3134752
:101C230009336002E733F422121C0D6025121C1CD9
:101C33006020121BD37003021BDC080808E76670E0
:101C4300101819E766700A1819E76670041819E77F
:101C53006622F422121C0D601C121C1C6017121B3E
:101C6300D37007121BDC7001D322C0D0121BDC70AF
:101C730006D0D0B322C32233D0D0501430E0F6C301
:101C8300E7960809E7960809E7960809E796B32255
:101C930020E0D5E6970809E6970809E6970809E6DC
:101CA30097B322121C0D601B121C1C6016121BD34F
:101CB3007007121BDC600CB322C0D0121BDC700552
:101CC300D0D022C32233D0D0501330E0EBC3E796F9
:101CD3000809E7960809E7960809E7962220E0E451
:101CE300E6970809E6970809E6970809E6972200A8
:101CF300121C0D604F121C1C6012E7548066F61212
:101D03001BE57011121BDC703B090909F4F618F688
:101D130018F618F622121BF97015121BD3080808BF
:101D230060EAE6447FF618768018E4F618F6221285
:101D33001BD36016121BDC7012E4F608F608F608D3
:101D4300E65480F609090918181822EAC0E0EBC026
:101D5300E0ECC0E0EDC0E0E687F0A4FBACF008E601
:101D630087F0A42CFCE435F0FA1809E687F0A42CDC
:101D73004B60027401CA35F0FCE433FB09E687F0DB
:101D8300D2F7A42CCB35F0FC1908E687F0A42BCCB2
:101D930035F0FBE433FD0819E687F0D2E7A42C4ABB
:101DA300CB35F0CD3400FC09E687F0D2E7A42DCC87
:101DB30035F0FDE433FA0918E687F0D2F7A42CCD09
:101DC30035F0CA3400FC08E687F0D2E7D2F7A42A3C
:101DD300CC35F07A7E20E70B0ACB33CBCD33CDCC99
:101DE30033CC33CB3350147004ED30E00ED2F1E436
:101DF300CD3DCDCC3CCC3B5005DA05C2F1EB547F55
:101E0300C63308E63392F0FBE73309E733C39A504E
:101E13002D2B70190C0D4C4D70151806E608C333A5
:101E2300700D20F10AA2F013F6E418800B4024E4AD
:101E3300F630F002768018F618F618F68024D33BB5
:101E430014501074FFA2F013F6187680E418F618F5
:101E5300F6800FA2F013F618E63303F618ECF61823
:101E6300EDF6D0E0FDD0E0FCD0E0FBD0E0FA2212AA
:101E73001C1C6046121C0D603DE9687008F618F6DC
:101E830018F618F622748067F7121EA6090909745A
:101E93008067F722121C0D601D121C1C7005191996
:101EA30019801A121BE5701F121BF9C37003E66732
:101EB3003319191940071818182208080874FFF66F
:101EC30018F618F618F622121BF96017121BDC70AD
:101ED3002192F0121BD37019501720F01408080830
:101EE300090909E7F61819E7F61819E7F61819E7C3
:101EF300F622121BD360E6E869701F0808E6248007
:101F0300F608E436F618547FB47F0CE65480600775
:101F1300F6E418F618F622181822E9C6CC08C6CD3E
:101F230008C6CE08C6CFC0E0E8C0E0EAC0E0EBC018
:101F3300E009E9F809E7FA09E7FBE6F918E6F8C367
:101F4300EC98ED99EE9AEBC2E7F5F0EFC2E795F066
:101F5300500E600CEBCFFBEACEFAE9CDF9E8CCF8F2
:101F6300EAA2E7D2E7FAEB33FB13F5F0EEA2E7D2EE
:101F7300E7FEEF33FFC5F013A2E730E601B313C565
:101F8300F0C3C0E0C0F07F00C39BFB605E941860A9
:101F93000F401D14601AD0E023F9D0E0F802207836
:101FA3008AF0E9486003D2F0E4AFF0FAF9F8803B35
:101FB300EB30E40D89F0EA6003D2F0E4AFF0F9CA44
:101FC300F8EB30E30D88F0EF6002D2F0AFF0E4CA33
:101FD300C9F8EB54076014FBC3EA13FAE913F9E8F1
:101FE30013F8EF135002D2E0FFDBEDD0E0C0E03096
:101FF300E739C3E49FFFF5F0EC98FC42F0ED99FD5F
:1020030042F0EE9AFE42F0D0E0F9D0E0F8E5F0605D
:102013007AE923F9EE20E742D8028067C3EF33FF62
:10202300EC33FCED33FDEE33FE80EAEC28FCED39B6
:10203300FDEE3AFED0E023F9D0E0F84002801BC366
:10204300EE13FEED13FDEC13FCEF135002D2E0FF91
:1020530008B800067F7F74FF802EEF3350178CF093
:1020630020F00260100CBC000C0DBD00080EBE0079
:102073000408E860DFE933E813FFEE2313FE4F4D56
:102083004C8008E95480FFE4FEFDFCEE33EF33F4AB
:102093007004FCFD7E80D0E0FBD0E0FAD0E0F8D005
:1020A300E0CFC618CEC618CDC618CCC6F922121C6E
:1020B3000D700418181822121C1C700D74FFF618EA
:1020C30019F61819F61819F622E7548066F6121B4A
:1020D300D3700F121BDC70F014F608F608F608F63E
:1020E30080D1121BDC700CF608F608768008E644F3
:1020F3007F80EC121BFC700C121BE860BFE654805F
:10210300F6E480BB121BE8700519191980A5E8696C
:10211300700C763F18768018F618F6E8F922E6CDAB
:10212300C0E018ECC0E0E633CD33CDD313F6E719A6
:10213300FCE7191933CC33C3947F400ECD9D502453
:1021430008E65480F6E418F6800FF4043D145014A6
:1021530008E6447FF6187680E418F618F6D0E0FC1B
:10216300D0E0FD22CCD313CCFD18E4C6CBC0E018DD
:10217300E4C6CAC0E00808ED08C633E613F618E45F
:1021830033C675F003C3CA97CA09CB97CB199C40D2
:10219300047D08802EBD000302225A16B6FF0506F1
:1021A30006081618C3CA33CACB33CB33CA27CA09A6
:1021B300CB37CB193CC37D08803E187D0820E75CF4
:1021C300C633C6CA33CACB33CB33DDF1D5F0EB30DC
:1021D300E77BCA97CA09CB974ACB199C406F4B70D0
:1021E30025E620E0218066187D08C3CA97CA09CB7B
:1021F30097CB199CD3C633C6CA33CACB33CB335020
:10220300C9DDE7D5F0E1D3E4C636C608C636C6084D
:10221300C636C608C636C61818188031C3CA97CA48
:1022230009CB97CB199CB34097C633C6CA33CACBE5
:1022330033CB33DD34D5F02EC6A2E0C640C8CA275F
:10224300CA09CB37194A70BECB3CB480B90808E63B
:102253003308E633601F181818D0E0FAD0E0FBD03B
:10226300E0FCD0E0FD22187D08CA27CA09CB37CB92
:10227300193CD3808013F618E4B67F11F618B6FF25
:102283000EF618C60470D20808768080CAF618F6CF
:1022930018F680C5080808EAC0E0EBC0E086F0E75E
:1022A300A4FA180986F0E7A42AFA180986F0E7A425
:1022B3002AFA180986F0E7A42AFA1986F0E7A4FB9C
:1022C300E5F02AFA190886F0E7A42BFBE5F03AFAC1
:1022D300190886F0E7A42BFBE5F03AFA18180986EB
:1022E300F0E7A4C5F02BFBE43AFA1908E7C5F0C6FA
:1022F300A426F6E5F03BFBE43AFA1886F0E7A4F6E9
:10230300E5F00826F6E43B08F6E43A08F6D0E0FBED
:10231300D0E0FA22E4CFC0E0E4CEC0E0E4CDC0E0F8
:10232300E4CCC0E075F020E626F608E633F608E6CE
:1023330033F608E633F6181818EC33FCED33FDEEEC
:1023430033FEEF33FFC3EC9709ED9709EE9709EFDF
:1023530097191919400FFFEC97FC09ED97FD09EE4A
:1023630097FE191906D5F0BFECF709EDF709EEF75B
:1023730009EFF7191919D0E0FCD0E0FDD0E0FED049
:10238300E0FF22181818E4C396F608E496F608E46A
:1023930096F608E496F6226016080808C6C313C624
:1023A30018C613C618C613C618C613C6D5E0EA2244
:1023B3007009080808226016181818C6C333C6081F
:1023C300C633C608C633C608C633C6D5E0EA22E616
:1023D30027F60809E637F60809E637F60809E63767
:1023E300F622E026F608A3E036F608A3E036F60860
:1023F300A3E036F622E026F008A3E036F008A3E0D7
:1024030036F008A3E036F022C3E697F60809E6970C
:10241300F60809E697F60809E697F622C3E096F070
:1024230008A3E096F008A3E096F008A3E096F02254
:10243300E056F608A3E056F608A3E056F608A3E034
:1024430056F622E056F008A3E056F008A3E056F053
:1024530008A3E056F022E0F608A3E0F608A3E0F6AE
:1024630008A3E0F622E6F008A3E6F008A3E6F008E6
:10247300A3E6F022E0FAA3E0FBA3E0FCA3E0FD2245
:10248300EAF0A3EBF0A3ECF0A3EDF022E0F8A3E075
:10249300F9A3E0FAA3E0FB22E8F0A3E9F0A3EAF052
:1024A300A3EBF022CAC0E0E6F0A308DAFAD0E0FA20
:1024B30022CAC0E0E0A3C582CCC582C583CDC58353
:1024C300F0A3C582CCC582C583CDC583DAE6D0E04F
:1024D300CA22C3E498F8E499F91225168026C3E4C6
:1024E3009AFAE49BFBE920E7E9122516E498F8E45D
:1024F30099F922C3E498F8E499F9122516E498F8B7
:10250300E499F9C3E49AFAE49BFB22EB20E7CFE9D1
:1025130020E7E0B90010BB0008E88AF084F8AAF0CD
:1025230022E4FBC8FA22EB70227B10C833C8C933FC
:10253300C9335007C39AC3DBF280069A50012ADBE2
:10254300EAC833F4C8C933F4C9FA2275F008E4C8F9
:1025530033C8C933C933C99AC99B5004C92AC93B73
:10256300D5F0ECFBC833F4C8E4C9FA22600D08C601
:10257300A2E713C618C613C6D5E0F322600C08C63B
:10258300C313C618C613C6D5E0F422700422600D27
:1025930018C6C333C608C633C6D5E0F418222518B7
:1025A30010AF08F518400C15198008F518400215EE
:1025B30019D2AF2200C0D0251810AF08F518500C5F
:1025C30005198008F51850020519D2AFD0D022257D
:1025D30018F58210AF08F518400C15198008F51886
:1025E30040021519D2AF851983222518F582E435E7
:1025F30019F583222518F8E43519F9222518FAE488
:102603003519FB222518FCE43519FD22E47325183E
:10261300C582C0E0E51934FFC583C0E0E518C39562
:102623008224F810AF088583198582188008858372
:1026330019858218D2AFCEF0A3E520F0A37808E67F
:1026430008F0A3DEFAEFF0A3E58124FAF8E608F038
:10265300A3E608F0A3E608F0A30808E608F0A3E65B
:1026630008F0A315811581D0E0FED0E0F81581159F
:10267300811581E8C0E0EEC0E0222518C582C0E0E4
:10268300E51934FFC583C0E0E518C3958224F9102A
:10269300AF08858319858218800885831985821878
:1026A300D2AFCEF0A3E520F0A37808E608F0A3DECE
:1026B300FAEFF0A3E58124FBF8E608F0A3E608F0BF
:1026C300A30808E608F0A3E608F0A315811581D056
:1026D300E0FED0E0F815811581E8C0E0EEC0E0220D
:1026E300851983851882E0A3FEE0A3F5207808E02E
:1026F300A3F608DFFAE0A3FFE0A3C0E0E0A3C0E095
:10270300E0A3C0E0E0A3C0E0E0A3C0E010AF088511
:1027130082188583198008858218858319D2AFD0E2
:1027230083D082020132851983851882E0A3FEE0FB
:10273300A3F5207808E0A3F608DFFAE0A3FFE0A3FF
:10274300C0E0E0A3C0E0E0A3C0E0E0A3C0E010AFBE
:10275300088582188583198008858218858319D294
:10276300AFD083D08222C0D02518C582C0E0E5193E
:1027730034FFC583C0E0E518C3958224F310AF0886
:102783008583198582188008858319858218D2AFBD
:10279300C8F0A3E9F0A3EAF0A3EBF0A37908E709F3
:1027A300F0A3D8FAECF0A3EDF0A3EEF0A3EFF0A3BF
:1027B300D0E0F0A3D0E0F0A3D0E0F0A3E520F0A3B5
:1027C300E5F0F0A322851983851882E0C0E0A3E039
:1027D300F9A3E0FAA3E0FBA37808E0F608A3DFFA85
:1027E300E0FCA3E0FDA3E0FEA3E0FFA3E0C0E0A3C1
:1027F300E0C0E0A3E0F5D0A3E0F520A3E0A3F5F06B
:1028030010AF08858319858218800885831985820E
:1028130018D2AFD082D083D0E0F8D0E032740480F5
:1028230006740280027401C0E0F4041225D2D0E0E1
:102833001224A7227404800474028000CCC0E0ED4B
:10284300C0E0E518C39CCCAD1950011D10AF068C38
:10285300188D1980068C188D19D2AF1224B4D0E0CC
:10286300FDD0E0FC22D083D082E9C0E0E493A3C38F
:1028730086F0C5F095F0F908E493A386F0C5F095CA
:10288300F0700BE493A3C3994005E9048002A3E429
:1028930075F002A42582F582E5F03583F583D0E057
:1028A300F9E493A3C0E0E493C0E022D083D082ECA8
:1028B300C0E0EDC0E0E493A3FCE493A3FDED4C6022
:1028C3000D1228FAEC24FFFCED34FFFD80EFE493B6
:1028D300A3FCE493A3FDED4C600D122939EC24FF16
:1028E300FCED34FFFD80EFD0E0FDD0E0FCE493A3EA
:1028F300C0E0E493C0E022C0E0C3E493960874010F
:10290300939618400FE49366700808740193661851
:1029130070007019A3A3C3E49396087401939618E7
:10292300A3A3400DD0E0D0E0D0E00228EAA3A3A304
:10293300A3A3A3D0E022C0E0C0F088F0E4936670C4
:10294300080874019366187000A8F0A3A3700BD055
:10295300F0D0E0D0E0D0E00228EAA3A3D0F0D0E0AA
:102963002274F612267DEAFEEBFF8C088D09EE2415
:1029730034F8E43FF9E8FCE9FDEE2435122C80FA43
:10298300EE2437122C80F88508F0A4C885F00A8558
:1029930009F0A4250AF9EA28F8E439F97A257B0035
:1029A300122516EA8C828D83F0FA131313541FF841
:1029B300EE28F8E43FF9E8245DF582E439F583E095
:1029C300C0E074075AF8D0E0B800028004C313D8FB
:1029D300FCA2E0EE50082434F582E43F801824364C
:1029E300122C80F5F0EA84A8F0EE28F8E43FF9E829
:1029F3002438F582E439F583E0F97F03022729744B
:102A0300F712267DEAFEEBFFEE2434122C80C0E0A1
:102A1300EE2435F582E43FF583D0E0F08E828F8398
:102A2300A3A3A3A3A3A3A3C082C0838E828F83A3E4
:102A3300A3A3A3A3E0F8A3E0F9D083D082E0C398D3
:102A4300F508A3E099F509EE247F122C8064017048
:102A53003EEE2480F582E43FF583C082C0838E82FC
:102A63008F83A3A3A3A3A3E0240108A3E03400F965
:102A7300D083D082E0687003A3E06970127C1A7D72
:102A830008120F2AEE247FF582E43FF583E4F0ACCD
:102A930008AD09EEFAEFFB122964E9F91236D27F89
:102AA30002022729C082C083851882851983E0F832
:102AB300A3E0F9C3EA9CEB9D5010C3EC98ED994059
:102AC3001BC3EA98EB995014800EC3EA98EB994024
:102AD30007C3EC98ED994004790180027900D08313
:102AE300D08222EAC39CFAEB9DFB2274EF12267D6F
:102AF3009004C3E064086005E06407702A9061C82D
:102B0300E060249004F1E0F4601DE0F875F00DA49A
:102B1300C8AAF02AF974F328FE740439FF8E828F51
:102B230083A3A3A3E07003022BFC906060E0C0E0EA
:102B3300EE2468F582E43FF583D0E0F0750CB475BC
:102B43000D08750800750900E5D914F50AE5D9548F
:102B530003F50E60127403650E6043E50A600AEE26
:102B63002467122C80700280759008AFE0640160C6
:102B73001F122C7D60047A0480027A00E50AC39A4E
:102B8300FA95E0FB120D628A088B09EA4509700584
:102B93001211EE8064122C7D70048A0C8B0DE50AF1
:102BA3006012850C82850D83F50BE5D9F0A3150B17
:102BB300E50B70F6122C7D604474FC250AF50A7847
:102BC3000C122824AC0AA90EEEFAEFFB120FE474E0
:102BD300021225B7E97026AA08AB091217B8793D86
:102BE3008E828F83A3A3A3A3E0FA7B00120BB2EE22
:102BF300FAEFFB120F4E12104479008078740365CC
:102C03000E6051850A107511007810122824AC0C3F
:102C1300AD0DAA08AB09120FA874021225B7EE2452
:102C230068122C8064807004747F8001E0F50C7856
:102C33000C122828E50EF50C780C122828A90AACEA
:102C430008AD099004F1E0FA7B00120B82740212C2
:102C530025B7801C9004C3E06408AC0CAD0D70096B
:102C6300EEFAEFFB1210148007EEFAEFFB1210B628
:102C73001211FA79017F0A022729EE2483F582E4EF
:102C83003FF583E02274F212267D74FC1225A1EA3B
:102C9300FEEBFF8909A2AFE433F508C2AF022D5260
:102CA300E0601B780C122824AC0BA90EEEFAEFFBA4
:102CB300120FDE74021225B77404250BF50B740191
:102CC300250BF5D9850ED9E50B6018F50A850C821D
:102CD300850D83E0F5D9A385820C85830D150AE55F
:102CE3000A70EA75E195EE2463F8E43FF97A007B14
:102CF30000A2AFE433F50BC2AF88828983E0FCA363
:102D0300E0FDEC4D603A88828983E0FAA3E0FB8A18
:102D1300828B83E0FCA3E0FD88828983ECF0A3ED42
:102D2300F08A828B83E4F0A3F088828983E0FCA39A
:102D3300E0FDEC4D700A88828983A3A3E4F0A3F03D
:102D4300E50BA2E092AF1217B8900821E004F0EE71
:102D53002463122C80F8A3E0F9E8496064EE24634D
:102D6300122C802402F8A3E03400F988828983E5D9
:102D7300822402F50CE43583F50DE0F50BA3E0F5B1
:102D83000EEE2462122C80640170369061D0E0F85C
:102D9300122C7D60047C0480027C007480C398FA4A
:102DA30095E0FBE50B2CF8E43400F9E82402F85035
:102DB3000109C3EA98EB99A2D265D0334003022CF0
:102DC300A3900821E0604D900822E0F8900821E0EC
:102DD300C398500C74026509703A900823E060347C
:102DE3008E828F83A3A3A3A3E08518828519831200
:102DF3002E2774021225EDE8122E27900820E028D2
:102E0300F07402122607AA18AB197901120BE2908B
:102E13000821E4F0E508A2E092AF74041225B77F1D
:102E230007022729F0A3E4F0900821E0F82200002C
:102E3300008521878522C622C0E074EB122769A290
:102E4300AFE433F508C2AF759B00906182E0A2E066
:102E53005030E591A2E0502A7591FE74016521700E
:102E630021122FCE121104122FBC12283712347CD8
:102E730074041225B7E964017005790112114C122B
:102E83002AEE906182E0A2E5505DE591A2E55057FC
:102E93007591DF9004C3E064076005E06408702F58
:102EA300122FCE74016521703E121104122FBC1231
:102EB300283712347C74041225B7E964017005794C
:102EC3000112114C7901EEFAEFFB122C888018E005
:102ED300640D70139004E5E004F064287002E4F0DC
:102EE3007A00E0F9121200906182E0A2E640030248
:102EF3002F91E591A2E64003022F917591BF9004B3
:102F0300C3E0640570081210EC1210F8800312106D
:102F1300F275210012116AE99004C4F079001211CC
:102F23004C120E4C7A017B009004C2E0F912178810
:102F3300907803E0644270569008B3E014F0704E4A
:102F4300C2AF122F4800782AD0E0F618D0E0F6E599
:102F53009F5407F87005750DFF8003750D7FC4C07E
:102F6300E07829E6F50A08E6550DF50B740B780AA7
:102F730012257FD0E0250AF8906270E0A2E740F8BE
:102F8300E8C333906272F0906270E0D2E0F0906137
:102F930081E0A2E35009E5E9A2E3500375E9F7A351
:102FA300E0A2E75009E591A2E7500375917FE50898
:102FB300A2E092AF7F080227C88E828F83E0F8A336
:102FC300E0C82416F582E438F583229004F1E0F892
:102FD30075F00DA4C8AAF02AF974F328FE74043915
:102FE300FF22C0E0C0D0C082C083906183E0A2E032
:102FF3005009E5BFA2E0500375BFFEE0A2E150090E
:10300300E5BFA2E1500375BFFDE0A2E25009E5BFB1
:10301300A2E2500375BFFBE0A2E35009E5BFA2E3C0
:10302300500375BFF7E0A2E45009E5BFA2E45003E3
:1030330075BFEFE0A2E55009E5BFA2E5500375BFF8
:10304300DFE0A2E65009E5BFA2E6500375BFBFD09B
:1030530083D082D0D0D0E032C0E074F2122769E589
:10306300A7A2E6500FE5A1A2E6500953A7BF75A199
:10307300BF1230AFE5A7A2E5500CE5A1A2E55006CB
:1030830053A7DF75A1DFE5A7A2E15009E5A1A2E1FE
:10309300500375A1FDE5A7A2E2500CE5A1A2E25001
:1030A3000653A7FB75A1FB7F010227C874F71226FD
:1030B3007D7521019004C3E0640670151210688ABF
:1030C300828B83A3A3A3A3A3A3E0FAA3E0FB121021
:1030D300DAA2AFE433FED2AF9004C9E06401701802
:1030E3007A207B009004C2E0F91218C07A207B009A
:1030F3009004C2E0F912178E906182E0D2E6F0905C
:1031030008B0E0602185C62280169004C8E06401FF
:103113007008E5C654F84405F5C653BEFC122E34B8
:103123007401652160E4EEA2E092AF7F02022729D9
:10313300008E238F2485822885832785188285190D
:1031430083E0CEA3E0CF852882852783EBC9EAC835
:10315300EDCBECCA75F010C3E833C8E933C9EA33E1
:10316300CAEB33CBC3EA9EF526EB9FF525B3500498
:10317300AB25AA26EC33CCED33CDD5F0DAAE23AFB5
:10318300242274E912267D74FA1225A1EAFEEBFFCC
:103193008C0A8D0B121110EAF8EBF9ECFAEDFB8EA9
:1031A300828F8312249B9004C3E024F7C3940550B9
:1031B300067514010232EC1210688A088B09EA457D
:1031C3000970030232E9EEFCEFFDAA18AB191211E4
:1031D3000A850882850983A3A3780C122459908554
:1031E30018780C12243385188285198378101224D9
:1031F300599085187810122433780C7910121A8D8F
:10320300501F780C791012240B9084C4780C121A76
:10321300AD4047850C14850D15850E16850F178057
:10322300459084C4851014851115851216851317CE
:103233007814790C12240B7814121AAD501C7514DF
:10324300007515007516007517017814791012248E
:103253000B7814790C1223D2800C751401751500A8
:10326300751600751700740978141223B3908568D6
:10327300780C1224597814790C1223178508828547
:103283000983A3A3A3A3A3A312330A122516880CAD
:10329300890DE4F50EF50F7814790C1223D274041A
:1032A3001225ED12330A122516E8FA8A0CE4F50DFD
:1032B3007814790C121A8D50077814790C12240B98
:1032C3009004C3E06408600AE064066005E06405F6
:1032D30070209085647814121AAD50169085547836
:1032E300141223E5800C751400751500751600750E
:1032F3001700850A82850B837814122468740612DA
:1033030025B77F10022729E0F8A3E0F97AD07B03E1
:103313002274F712267D1211229008AEE064017028
:1033230010906245E4F0A3F053F4F343FE0C539082
:10333300F31210C8E5C654B84441F5C6E59E544798
:10334300644170F8906185740FF09008ACE0F470FC
:1033530002A3E0604E9008ADE0600814601B1460A7
:103363002E80407508017509009008ACE0780812BA
:10337300258EE508F45280802A75080175090090AE
:1033830008ACE0780812258EE508F4529080147595
:1033930008017509009008ACE0780812258EE5084D
:1033A300F452A079007F0202272974F712267DE9DF
:1033B300FEEAFF12112274016E700C7A807B00907A
:1033C30004C2E0F91217889037D8E493F46008E454
:1033D30093F9120E40800953C6B8E59E544770FA1C
:1033E3001210CE9008AEE064017003120E649008D0
:1033F300ACE0F47002A3E0604B9008ADE060081409
:10340300601A14602C803D7508017509009008ACA2
:10341300E0780812258EE50842808028750801753A
:1034230009009008ACE0780812258EE508429080E8
:10343300137508017509009008ACE0780812258E11
:10344300E50842A01210688A088B09A808A909E8B0
:10345300496014E5E170FCE82414F582E439F5834E
:10346300E0F46003E0F5E174016F700A7A019004FF
:10347300C2E0F912181E0233A874F112267D8A08DD
:103483008B098C0A8D0B9085187808122433740FDE
:103493001225ED780C122459908518780C122433D8
:1034A3007808790C121A8D9084C450107808790C1E
:1034B30012240B7808121AAD4014800E780C790888
:1034C30012240B780C121AAD500479018002790092
:1034D3007F0802272974ED12267D8A088B098C0A3E
:1034E3008D0B908518780812243374131225ED7808
:1034F3000C122459908518780C122433780C79080F
:10350300121A8D40117808790C12240BAA08AB0902
:10351300AC0AAD0B80227510007511007512007591
:1035230013017810790C12240B781079081223D226
:10353300AA10AB11AC12AD137F0C0227299085188A
:1035430078081224598A828B8378081224467F04D0
:1035530002272974F512267D8C828D837808122424
:10356300598A828B83780812241F1235AEC3E09CDC
:10357300F0A3E09D1235A0402290857078081224B4
:10358300598A828B8378081223F88A828B83A3A3B8
:10359300A3A3E02420F0A3E0344EF080A0F08882BF
:1035A3008983C3E09420A3E0944E22EA2404F8E440
:1035B3003BF98C828D83A3A3A3A3E0FCA3E0FD8846
:1035C3008289832274F512267DE9FE90083CE0FA95
:1035D300A3E0FBEE29F8E433F9748428F5827483BD
:1035E30039F583E02AF508A3E03BF50978081228AA
:1035F300249084E012247712313474021225B78A9E
:10360300088B098C0A8D0B7410780812239AAA0868
:10361300AB097F0402272974F112267D8A0C8B0DD6
:103623008C0E8D0F74111225ED12283B7411122587
:10363300EDE02401F508A3E03400F509E4F50AF50B
:103643000B780C7908122297908550780812245928
:10365300780C7908122297AA0CAB0DAC0EAD0F12A1
:10366300313474021225B78B09EA450960047A01E3
:1036730080027A00EC2AFCE43DFD74131225EDE090
:10368300F8A3E0F9E8FEE9FFECF8EDF97A717B02C3
:1036930012251688088909E4F50AF50B8E828F83B3
:1036A3007808122468ECF8EDF97A717B021225167A
:1036B3008A088B097405780812258E8E828F83A35E
:1036C300A3A3A3E508F0A3E509F07F08022729C017
:1036D30082C083E9906000F0D083D08222C0E0747E
:1036E300F2122769A2AFE433FED2AFC2C0E5D1A282
:1036F300E4500675D10F1216E6751A00EEF8EEA225
:10370300E092AF7F010227C8C0E074F2122769A2DA
:10371300AFE433FED2AFE589A2E750031216027578
:103723008900C2C5751A00EEF8EEA2E092AF7F01E0
:103733000227C8C0E0C0D0E8C0E0E9C0E0A2AFE41F
:1037430033F8D2AFC2C7751A00E8F9E8A2E092AF26
:10375300D0E0F9D0E0F8D0D0D0E032C0E0C0D0E87B
:10376300C0E0E9C0E0EAC0E0C082C083A2AFE433B6
:10377300FAD2AF901142E0F8901143E068700B5316
:103783009AFB9011447401F0802CC2E9901142E03D
:10379300F8740128901142F0790074C228F58274FC
:1037A3001039F583E0F5C1901142E0C394804006DF
:1037B3009011427400F0EAF8EAA2E092AFD083D00D
:1037C30082D0E0FAD0E0F9D0E0F8D0D0D0E032C235
:1037D300AF02000022FFFFFFFFFFFFFFFF74F212A3
:1037E300261174FA1225A1E9FF8C0C8D0D7E008A37
:1037F300088B097808122868000410CD3A2238454E
:103803003864388738AA38CD38FE382139383968D2
:1038130039173A3A3A5D3A823ACD3AAB3A9139742A
:10382300016F7019850C82850D83E0C39403500DDD
:10383300850C82850D83E0901A6BF080027E18025E
:103843003AEF74026F7015850C82850D83E0F8A33F
:10385300E0F9901A6CE8F0A3E9F080027E18023ACE
:10386300EF74016F7019850C82850D83E0C3940298
:10387300500D850C82850D83E0900EABF080027EA7
:1038830018023AEF74016F7019850C82850D83E07D
:10389300C39405500D850C82850D83E0900EACF02A
:1038A30080027E18023AEF74016F7019850C8285CD
:1038B3000D83E0C39402500D850C82850D83E09047
:1038C3000EADF080027E18023AEF74106F70277508
:1038D30008107509007808122824AC0CAD0D7AAED7
:1038E3007B0E12172E74021225B78A088B098508DE
:1038F3008285098380027E18023AEF74016F701982
:10390300850C82850D83E0C39402500D850C82855E
:103913000D83E0900EBEF080027E18023AEF740130
:103923006F700D850C82850D83E0901A6FF0800215
:103933007E18023AEF74046F70269084E0780812C0
:103943002459850C82850D837808121A9D501185A0
:103953000C82850D8312248F900EC012249B80024B
:103963007E18023AEFEF7021120852E97013121514
:1039730018E9F5097950121896E9F5081215068029
:103983000A900F537401F080027E18023AEF740715
:103993006F707C7508067509007808122824850C59
:1039A30082850D83A3AC82AD8374021225FF1217A7
:1039B3003474021225B78A088B0985080A85090B16
:1039C3007C007D00AA18AB19850C82850D83E0F974
:1039D3001214ACE9F508E508C3940A502E120852F4
:1039E300E97015A90812151EE9F509795012189600
:1039F300E9F5081215068019A8087900745428F50A
:103A030082740F39F5837401F080067E0280027E92
:103A130018023AEF74016F7019850C82850D83E0EB
:103A2300C39402500D850C82850D83E0900EBFF088
:103A330080027E18023AEF74016F7019850C82853B
:103A43000D83E0C3940A500D850C82850D83E090AD
:103A53001A6EF080027E18023AEF74016F701C85B3
:103A63000C82850D83E0C39407C3940A500D850C23
:103A730082850D83E0901A70F080717E18806D74DA
:103A8300016F7020900F52E0F8850C82850D83E062
:103A9300900F52F0E87055900F52E06401704D1290
:103AA300150680487E18804474016F7019850C8256
:103AB300850D83E0C39404500D850C82850D83E04E
:103AC300901A71F080267E188022C3EA9427EB9423
:103AD30000501774026F7012850C82850D83E0FC11
:103AE300A3E0FD1206C6E9FE80027E02EEF974062B
:103AF3001225B77F060226E374F012261174DA1238
:103B030025A1890DECFEEDFF9084A6AC18AD1974C8
:103B1300061224B4AC18AD19A90D1214ACE9F508BA
:103B230074361225EDE0F50CE508C3940A40030250
:103B33003C6DA9081214E8E9F509901A6BE06402D8
:103B43007004740180027400F50A780A122828AD03
:103B53000CAC09A908EEFAEFFB12156674011225E5
:103B6300B77C147D00790074121225FF1217468A60
:103B73000A8B0B850A0E850B0F74121226077A1017
:103B830075F006E508A42424F9121890E9703E7C28
:103B93001079FF74121225FF1217ACE9702F7422EB
:103BA3001225EDAC82AD837A0475F006E508A424F2
:103BB30025F9121890E9F50A7412122607E509A2ED
:103BC300E0E433F9EEFAEFFB120750E9F87406125A
:103BD30026077A0C74702508F9121890E970757429
:103BE300061225FF1214DC7508008061A80879000D
:103BF300E875F003A4C8AAF075F000A42AFA75F0DA
:103C030003E9A42AF974061225EDE58228F8E58371
:103C130039F9E8FAE9FB8A828B83E0F8A3E0F9E853
:103C23004960288A828B83A3A3E0F50A750B007889
:103C33000A1228248A828B83E0FCA3E0FDEEFAEFCC
:103C4300FB120ACE74021225B7E9F80508E508C38A
:103C530094044098E509A2E1506D900EAAE0F9EEB4
:103C6300FAEFFB120AD4E9F8805D7408650C70570B
:103C7300901A6BE06402704F7C007D00A90DEEFA90
:103C8300EFFB12154E900EC4E0F8A3E0F9E849608B
:103C930036900EC4E0F8A3E0F5838882A3A3E0F88E
:103CA300A3E0F9E84960207C007900EEFAEFFB908D
:103CB3000EC4E0F8A3E0F5838882A3A3E0F8A3E0B1
:103CC300F583888212260F7404650C700F901A6BAB
:103CD300E064027007EEFAEFFB12155479007426C4
:103CE3001225B77F080226E374F712261112085231
:103CF300E97062900F53E06401701A121518E9FE1F
:103D0300900F537400F07C0A7D0079007A547B0F86
:103D130012174680367E00802CEEF8790074542802
:103D2300F582740F39F583E064017018EEF912150A
:103D33001EE9FAEEF87900745428F582740F39F508
:103D4300837400F00EEEC3940A40CE795012189695
:103D5300E9FE1215067F010226E374F4122611749C
:103D6300FA1225A1EAFEEBFF9084ACAC18AD1974EE
:103D7300061224B4EEFAEFFB120D148A0A8B0B859C
:103D83000A08850B09E50845097003023E11901ADC
:103D93006BE064026078AC18AD19E5082405FAE419
:103DA3003509FB850882850983A3A3A3A3E0F91240
:103DB30014ACE9F50AE50AC3940A5021A90A1214BE
:103DC300E8E9FC75080178081228287D08A90AEE9D
:103DD300FAEFFB12156674011225B78031901A6B46
:103DE300E0700C7905EEFAEFFB12075CE9801F9097
:103DF3001A6BE0640170177C007D008508828509D9
:103E030083A3A3A3A3E0F9EEFAEFFB12154E740606
:103E13001225B77F040226E374F2122611890B8A56
:103E2300088B09ECFEEDFF750A0AE50B600B1460C5
:103E33000814604114605F807DAA08AB091214FA6C
:103E4300E9F50AE50AC3940A506CEE4F6068750CF5
:103E530006750D00780C122824AC08AD09EEFAEFB4
:103E6300FB12172E74021225B78A088B0985088264
:103E73008509838041AA08AB091214F4E9F50AE520
:103E83000AC3940A5030EE4F602CEEFAEFFBA90AF6
:103E93001214EEE98020AA08AB09121500E9F50A0D
:103EA300E50AC3940A500FEE4F600BEEFAEFFBA93D
:103EB3000A1214EEE9F8A90A7F060226E374F41243
:103EC3002611E9FF7E1574FF6A700374FF6B702A75
:103ED3007508008012EFFC7A027B00A9081214CA4D
:103EE300E960027E000508E508C3940A40E7EF6035
:103EF3005A7A427B15120D448051120D148A0A8B93
:103F03000B850A08850B09E5084509603C7C007DA3
:103F130000E5082405FAE43509FB85088285098351
:103F2300A3A3A3A3E0F91214ACE9F9E9C3940A50DB
:103F33000CEFFC7A027B001214CAE97E00EF600BDF
:103F4300AA08AB0912154280027E14EEF97F04021F
:103F530026E374F21226118C088D097E15740E1255
:103F630025EDE0F50AA3E0F50B74FF6A700374FF17
:103F73006B701D7F00EFC3940A5058AC0AAD0BAAB7
:103F830008AB09EFF91214D0E960027E000F80E557
:103F9300120D148A0C8B0D850C82850D83E58245E9
:103FA30083602E7C007D00E5822405FAE43583FBE3
:103FB300A3A3A3A3E0F91214ACE9F9E9C3940A504B
:103FC30012AC0AAD0BAA08AB091214D0E97E00802B
:103FD300027E14EEF97F060226E374F7122611908F
:103FE3000EC4EAF0A3EBF0900EAAE0FC7D007A2663
:103FF3007B001206C6E9FE900EAAE0F9120A387F8A
:10400300010226E374F212261174EC1225A1EAFED2
:10401300EBFF8E828F83A3A3E024FA70030245266D
:1040230024FD70030243951470030240F7146016D5
:1040330014700302451524FE7003024291147003A9
:104043000243CD024535900EC4E0F8A3E0F9E849F8
:104053006066900EC4E0F8A3E0F5838882E0F8A3DD
:10406300E0F9E8496052EE240CF582E43FF583E081
:10407300F5087808122828EE240BF582E43FF5832F
:10408300E0F98E828F83A3A3A3A3A3A3A3A3A3E097
:10409300FCA3E0FDEE2403FAE43FFB900EC4E0F83A
:1040A300A3E0F5838882E0F8A3E0F58388821226F3
:1040B3000F74011225B780398E828F83A3A3A3A324
:1040C300A3A3A3A3A312283B900EC0122477120725
:1040D3006274021225B7E9601879018E828F83A377
:1040E300A3A3A3A3A3A3A3A3E0FAA3E0FB12075CE8
:1040F300E90245357508008E828F83A3E0600302D1
:1041030042138E828F83A3A3A3A3A3E0A2E0400361
:10411300024213900F5EE0F8A3E0F9E8496003025E
:1041230042137C0E7D007900AA18AB191217468A38
:10413300088B09AA08AB09EE240CF582E43FF5834A
:10414300E0F8A3E0F9E849604675080675090078C8
:1041530008122824EE240CF582E43FF583E02410B2
:10416300FCA3E03400FD74021225FF12172E740223
:104173001225B78A088B098508828509838E828F69
:1041830083A3A3A3A3A3E0A2E2504DD2F0804B8E5E
:10419300828F83A3A3A3E0FAA3E0FB120D148A0882
:1041A3008B09AA08AB09EA4B602B75080675090051
:1041B3007808122824EA2405FCE43BFD7402122546
:1041C300FF12172E74021225B78A088B09850882FD
:1041D30085098380A8024535C2F0A2F0E433F8795B
:1041E30000740C1225EDE048F0A3E049F0EEFCEF7B
:1041F300FDAA18AB191214E2E970127A027B00903F
:104203000EAAE0F9121788E97900024537750815F7
:10421300900EC4E0F8A3E0F9E849606F900EC4E0A3
:10422300F8A3E0F5838882A3A3E0F8A3E0F9E849C3
:1042330060598E828F83A3E0FC79018E828F83A3E2
:10424300A3A3E0FAA3E0FB900EC4E0F8A3E0F58398
:104253008882A3A3E0F8A3E0F583888212260FE502
:10426300086028AC0879038E828F83A3A3A3E0FAA6
:10427300A3E0FB900EC4E0F8A3E0F5838882A3A338
:10428300E0F8A3E0F583888212260F0245358E0AF3
:104293008F0B850A82850B83A3E0640660030243C8
:1042A30041850A82850B83A3A3A3E0FAA3E0FB1253
:1042B3000D148A0C8B0D850C08850D09E50845093D
:1042C300607C901A71E014600814602814604380C5
:1042D3006D7C007D00850882850983A3A3A3A3E0E9
:1042E300F9850A82850B83A3A3A3E0FAA3E0FB125B
:1042F300154E804A7C05850A82850B83A3A3A3E020
:10430300FAA3E0FB850882850983E0F9120744E9F3
:10431300802C7C007D0079007A097B04121494E9D7
:10432300F50C7C05850A82850B83A3A3A3E0FAA37E
:10433300E0FB850882850983E0F9120744E9900EC2
:10434300C4E0F8A3E0F9E8496045900EC4E0F8A39F
:10435300E0F5838882A3A3E0F8A3E0F9E849602F9E
:104363008E828F83A3E0FC7902850A82850B83A367
:10437300A3A3E0FAA3E0FB900EC4E0F8A3E0F58367
:104383008882A3A3E0F8A3E0F583888212260F02B4
:1043930045357C007D00EE2404FAE43FFB8E828FDA
:1043A30083A3A3A3E0F91214ACE9F8E8C3940A5079
:1043B30016EE240AFCE43FFD7A0475F006E8A42413
:1043C30025F912188AE9F8024535900EBFE0601905
:1043D300901A6EE0F98E828F83A3A3A3E0FAA3E081
:1043E300FB12075CE9F8024535901A6BE070167909
:1043F300058E828F83A3A3A3E0FAA3E0FB12075CDD
:10440300E9F80245358E828F83A3A3A3E0FAA3E0E4
:10441300FB120D148A0A8B0B850A08850B09E50824
:10442300450970030245358E828F83A3A3A3A3A3FB
:10443300A3A3E0A2E0506D850882850983A3A3A30B
:10444300A3E060608E828F83A3A3A3A3A3A3A3A3EC
:10445300A3E0F50AA3E0F50B7409780A12257FE5BA
:104463000A5401F8E50B5400F9E8A2E04036740E53
:10447300122607E5082405FAE43509FB8508828539
:104483000983A3A3A3A3E0F91214ACE9701679037B
:104493008E828F83A3A3A3E0FAA3E0FB12075CE958
:1044A300F8024535EE2405FCE43FFD8508828509C5
:1044B30083A3A3A3A3E0F98E828F83A3A3A3E0FA2C
:1044C300A3E0FB12154E900EC4E0F8A3E0F9E8490F
:1044D3006060900EC4E0F8A3E0F5838882A3A3E0B4
:1044E300F8A3E0F9E849604A7C0079008E828F8363
:1044F300A3A3A3E0FAA3E0FB900EC4E0F8A3E0F5C6
:10450300838882A3A3E0F8A3E0F583888212260FB1
:1045130080208E828F83A3A3A3E0FAA3E0FB12146F
:10452300A6800F8E828F83A3A3A3E0FAA3E0FB12DE
:1045330014A0790174141225B77F060226E374F4DC
:1045430012261174F21225A18908EAFEEBFF8C09E9
:10455300AC18AD197A0E75F006E508A42420F912FB
:104563001890E970607C0679FFAA18AB191217AC92
:10457300E97052740C1225EDE0F8A3E0F9E8F50AAE
:10458300E5096005EE420A8004EEF4520AA80A79AE
:1045930000740C1225EDE0687003A3E069602275D6
:1045A3000B00740C1225EDE50AF0A3E50BF0AC1833
:1045B300AD197A0E75F006E508A42420F912188ABD
:1045C300E9790180027900740E1225B77F0402266F
:1045D300E374F212261174E61225A189098A0C8B61
:1045E3000DECFEEDFF740C1226077A0E75F006E54E
:1045F30009A42420F9121890E960030246F77C0607
:1046030079FF740C1225FF1217ACE960030246F719
:10461300AC18AD197A0C74702509F9121890E96079
:10462300030246F3750800AA18AB191214DCE50C53
:10463300450D702D7C0C7900AA18AB191217ACE943
:1046430060030246D97C0C7D007900AA18AB1912CD
:1046530017468A0A8B0B850A82850B8375080180AE
:1046630075AC18AD19AA0CAB0D1214D68A0A8B0BB4
:10467300A80AA90BE849702EEE4F601BAC18AD19C0
:104683007A007B001214D68A0A8B0BAA0AAB0BEAB8
:10469300F8EBF9EA4B70047900805B88828983E543
:1046A3000CF0A3E50DF088828983A3A3E0FA7B00D5
:1046B300EE6A7002EF6B601EEEC0E088828983A30E
:1046C300A3D0E0F0EE4F700B888289837400F0A3CF
:1046D3007400F0750801E5086016AA18AB191214E6
:1046E300DCAC18AD197A0C74702509F912188AE933
:1046F300790180027900741A1225B77F060226E336
:1047030074F71226117E0080010EEEC39404504B01
:10471300EEF87900E875F003A4C8AFF075F000A4D3
:104723002FFF75F003E9A42FF9EC28F582ED39F595
:1047330083E06A7003A3E06B70CFEEF87900E8754D
:10474300F003A4C8AAF075F000A42AFA75F003E9EF
:10475300A42AF9EC28FAED39FB80047A007B007F68
:10476300010226E374F71226117C0002480DECF8CF
:104773007900E875F003A4C8ADF075F000A42DFD31
:1047830075F003E9A42DF9EA28F582EB39F583E006
:10479300F4FEA3E0F4FFECF87900E875F003A4C895
:1047A300ADF075F000A42DFD75F003E9A42DF9EA31
:1047B30028F582EB39F583EEF0A3EFF0ECF87900FE
:1047C300E875F003A4C8ADF075F000A42DFD75F0F5
:1047D30003E9A42DF9EA28F582EB39F583A3A3E0D5
:1047E300F4C0E0ECF87900E875F003A4C8ADF07507
:1047F300F000A42DFD75F003E9A42DF9EA28F58254
:10480300EB39F583A3A3D0E0F00CECC3940450037D
:104813000247717F010226E374F012261174F41229
:1048230025A1EAFEEBFF8C088D09900F5EE0F8A34B
:10483300E0F9E849702CEE4F6006E508450970057C
:104843007901024AC4EEFAEFFB1214FAE9901A72E4
:10485300F0901A72E0C3940A400812150CE9901AFA
:1048630072F0901A72E0C3940A4003024AC2900F96
:104873005EE0F8A3E0F9E8496003024913EEFCEFB8
:10488300FD7A0E75F006901A72E0A42420F912182E
:104893008AE9F50B7C0C7D0079FFAA18AB19121776
:1048A300468A0C8B0D850C0E850D0FAC18AD197A4D
:1048B3000C901A72E02470F912188AE9F50A750C43
:1048C3000E750D00780C122824EEFCEFFD901A7281
:1048D300E0F87900E875F00EA4C8AAF075F000A41A
:1048E3002AFA75F00EE9A42AF974C628FA740E3967
:1048F300FB12172E74021225B78A0C8B0DA80CA974
:104903000D900F5EE508F0A3E509F07900024AC4B3
:10491300900F5EE0F8A3E0C82406F582C83400F5E2
:1049230083E0F8A3E0F9E8496042900F5EE0F8A362
:10493300E0C82406F582C83400F583E0FCA3E0FD5B
:104943007A1B75F006901A72E0A42421F912188AD2
:10495300E9F8900F5EE0F9A3E0C92406F582C934B3
:1049630000F5837400F0A37400F0809F900F5EE065
:10497300F8A3E0C8240AF582C83400F583E0F8A35D
:10498300E0F9E8496043900F5EE0F8A3E0C8240A29
:10499300F582C83400F583E0FCA3E0FD7A1B75F0D3
:1049A30006901A72E0A42422F912188AE9F8900FEB
:1049B3005EE0F9A3E0C9240AF582C93400F58374E3
:1049C30000F0A37400F002490E900F5EE0F8A3E03C
:1049D300C8240CF582C83400F583E0F8A3E0F9E8B5
:1049E300496043900F5EE0F8A3E0C8240CF582C849
:1049F3003400F583E0FCA3E0FD7A1075F006901A0D
:104A030072E0A42423F912188AE9F8900F5EE0F902
:104A1300A3E0C9240CF582C93400F5837400F0A324
:104A23007400F002490E900F5EE0F8A3E0C824087A
:104A3300F582C83400F583E0F8A3E0F9E849606F34
:104A4300900F5EE0F8A3E0C82408F582C83400F5AF
:104A530083E0FCA3E0FD7A1075F006901A72E0A4DF
:104A63002424F912188AE9FE900F5EE0F8A3E0C847
:104A73002408F582C83400F583E02410FCA3E03455
:104A830000FD7A0475F006901A72E0A42425F91249
:104A9300188AE9F8900F5EE0F9A3E0C92408F582CB
:104AA300C93400F5837400F0A37400F002490E903A
:104AB3000F52E0600312156C1215487901800279D8
:104AC30001740C1225B77F080226E374F71226112E
:104AD30074F21225A1E9FEAC18AD197A0E75F00631
:104AE300EEA42420F9121890E9700E740C1225ED2F
:104AF300E0F8A3E0F9E8F980027900740E1225B713
:104B03007F010226E374F412261174F21225A1899F
:104B130009EAFEEBFFE509C3940A5004EE4F700463
:104B230079028041AC18AD197A0E75F006E509A437
:104B33002420F9121890E9F508E5087026750A068D
:104B4300750B00780A1228247402122607EEFAEF76
:104B5300FB12172E74021225B78A0A8B0B850A8261
:104B6300850B83A908740E1225B77F040226E3740C
:104B7300F4122611EAFEEBFF75080080020508E532
:104B830008C3940A503F750A06750B00780A122869
:104B930024EEFCEFFDA8087900E875F00EA4C8AA7E
:104BA300F075F000A42AFA75F00EE9A42AF974CC82
:104BB30028FA740E39FB12174074021225B7E96004
:104BC300BCA9088002790A7F040226E374F4122642
:104BD30011EAFEEBFF75080080020508E508C3949F
:104BE3000A503F750A06750B00780A122824EEFC5A
:104BF300EFFDA8087900E875F00EA4C8AAF075F0D7
:104C030000A42AFA75F00EE9A42AF974C628FA74E6
:104C13000E39FB12174074021225B7E960BCA908CC
:104C23008002790A7F040226E374F712261174F0D6
:104C33001225A1EAFEEBFF75080080020508E508CE
:104C4300C3940A5035AC18AD197A1075F006E5080F
:104C5300A42423F9121890E970E27C1079FFAA18B2
:104C6300AB191217ACE970D4EEFCEFFDAA18AB191F
:104C730012072CE970C6A9088002790A741012255C
:104C8300B77F010226E374F4122611750800024D62
:104C930059A8087900E875F00EA4C8AAF075F000C9
:104CA300A42AFA75F00EE9A42AF974C628FC740E36
:104CB30039FD7A0E75F006E508A42420F912189040
:104CC300E97003024D577C067D0079FFAA087B003B
:104CD300EA75F00EA4CAA8F075F000A428F875F0E0
:104CE3000EEBA428FB74C62AFA740E3BFB1217467C
:104CF3008A0A8B0BAE0AAF0B7C067D0079FFAA08EC
:104D03007B00EA75F00EA4CAA8F075F000A428F899
:104D130075F00EEBA428FB74CC2AFA740E3BFB123D
:104D230017468A0A8B0BAC0AAD0BA8087900E87505
:104D3300F00EA4C8AAF075F000A42AFA75F00EE9E3
:104D4300A42AF974D228F582740E39F5837400F01D
:104D5300A37400F00508E508C3940A5003024C94B9
:104D6300900F52E0600312156C1215487F0402265F
:104D7300E374F71226117E0080010EEEC3940A50ED
:104D83002F7C0679FFEEFA7B00EA75F00EA4CAA821
:104D9300F075F000A428F875F00EEBA428FB74C698
:104DA3002AFA740E3BFB1217ACE960CEEEF98002CF
:104DB300790A7F010226E374F71226117E007F0031
:104DC30080337C0679FFC9FDC9EFF87900E875F0F7
:104DD3000EA4C8AAF075F000A42AFA75F00EE9A48F
:104DE3002AF974C628FA740E39FBCDF9CD1217AC23
:104DF300E970010E0FEFC3940A40C7EEF97F010279
:104E030026E374F712261179007E008008EEF9126A
:104E1300151EE9F90EEEC3940A5003E960EF7F0112
:104E23000226E374F012261174CB1225A18909908E
:104E33001A72E06509701D7A017B00900EAAE0F9F1
:104E430012178EE97A027B00900EAAE0F912178EF0
:104E5300E9121578901A73E0650970137A047B00E0
:104E6300900EAAE0F912178EE9901A73740AF0747F
:104E7300271226077A0E75F006E509A42420F912F5
:104E83001890E96003024F797C0679FF7427122595
:104E9300FF1217ACE96003024F797C0E7D0079FFA6
:104EA30074271225FF1217468A0A8B0B850A0E8573
:104EB3000B0F7C1B7D0079FF740C1225FF12174624
:104EC3008A0C8B0D850C0A850D0B7C0C7D0079FFFC
:104ED300AA18AB191217468A0C8B0DAE0CAF0D74C2
:104EE300271226077A0E75F006E509A42420F91285
:104EF300188AE9F508740C1226077A1B75F006E583
:104F030009A42421F912188AE94208740C1226070D
:104F13007A1B75F006E509A42422F912188AE942DE
:104F230008740C1226077A1075F006E509A42423E9
:104F3300F912188AE94208740C1226077A1075F0E0
:104F430006E509A42424F912188AE94208740C120C
:104F530026077A0475F006E509A42425F912188AB0
:104F6300E94208AC18AD197A0C74702509F91218C6
:104F73008AE942088003750800A90874351225B729
:104F83007F080226E374F7122611E9FEEE900EAABB
:104F9300F01215067A747B1A1208887F010226E341
:104FA30074F6122611EAFEEBFFEE5400F8EF54807C
:104FB300F9E8496035900EAAE0F91217708A088B58
:104FC30009A808A90988088909E8496012AA08AB51
:104FD30009121530E96008AA08AB0912175EE9EE59
:104FE3006400FAEF6480FB025124EE5402603E7CBD
:104FF300007D007A007B001214E2E960187A017BDD
:1050030000900EAAE0F9121788E9EE6402FAEF6441
:1050130000FB0251247A027B00900EAAE0F91217DA
:1050230088E9EE6402FAEF6400FB025124EEA2E089
:1050330040030250F8900F5EE0F8A3E0F583888206
:10504300A3A3A3E0FAA3E0FB121572E970030250D5
:10505300E1900EC4E0F8A3E0F9E8496074900EC44F
:10506300E0F8A3E0F5838882A3A3E0F8A3E0F9E8DE
:1050730049605E7C007901900F5EE0F8A3E0F58360
:105083008882A3A3A3E0FAA3E0FB900EC4E0F8A3F5
:10509300E0F5838882A3A3E0F8A3E0F58388821276
:1050A300260F7C007903900F5EE0F8A3E0F5838878
:1050B30082A3A3A3E0FAA3E0FB900EC4E0F8A3E06D
:1050C300F5838882A3A3E0F8A3E0F5838882122600
:1050D3000F121578EE6401FAEF6400FB80437A0146
:1050E3007B00900EAAE0F9121788E9EE6401FAEF4B
:1050F3006400FB802CEE54046023901A73E0C39485
:105103000A5010901A73E0F912155AE9F8901A73BD
:10511300740AF0EE6404FAEF6400FB80047A007B07
:10512300007F020226E374F71226117E018A828B26
:1051330083E02450600E14601024E1700F1214C435
:10514300E9FE8008121536800312153CEEF97F0143
:105153000226E374F7122611EAFEEBFF8E828F8399
:10516300A3A3A3A3E0641E701179008E828F83A38F
:10517300A3E0FAA3E0FB1214B2E98E828F83A3A308
:10518300A3A3E0F9EE2405FAE43FFB120A327F0100
:105193000226E3C082C0838A828B83A3A3A3A3E0F6
:1051A30070308A828B83A3A3A3A3A3A3A312283B58
:1051B3008A828B83A3A3A3A3A3E0FCA3E0FD8A823B
:1051C3008B83A3A3E0FAA3E0FB1214B874021225A5
:1051D300B7E9D083D082020132C082C083900EAA85
:1051E300E0F98A828B83A3E0FAA3E0FB120AD4E9F5
:1051F300D083D082020132C082C08374FF1225A102
:10520300121512E9C39402400B8518828519837421
:1052130002F08009851882851983740AF0AC18ADF1
:10522300197A017905120876E974011225B7D0833A
:10523300D08202013274F212261174E81225A18A77
:10524300088B09E9FE8C0A8D0B7C187D007900AA76
:1052530018AB191217468A0C8B0DAC0CAD0D8518C3
:1052630082851983E508F0A3E509F0900EACE0C050
:10527300E074021225EDD0E0F0900EADE0C0E074D2
:10528300031225EDD0E0F0901A70E0C0E07417121D
:1052930025EDD0E0F074151225EDE054FEFAA3E0FD
:1052A30054FFFB901A6FE0A2E0E433F87900EA4878
:1052B300F8EB49F974151225EDE8F0A3E9F0901A1B
:1052C3006FE0A2E15004D2F08002C2F074151225FF
:1052D300EDE054FDFAA3E054FFFBA2F0E433F879C8
:1052E30000E828F8E933F9EA48F8EB49F9741512AC
:1052F30025EDE8F0A3E9F0901A6FE0A2E45004D2A0
:10530300F08002C2F074151225EDE054FFFAA3E019
:1053130054FEFBA2F0E433F87900E4C8F9EA48F854
:10532300EB49F974151225EDE8F0A3E9F0901A6F33
:10533300E0A2E55004D2F08002C2F074151225ED0C
:10534300E054FFFAA3E054FDFBA2F0E433F5087543
:1053530009007409780812258EEA4508F8EB450917
:10536300F974151225EDE8F0A3E9F0901A6FE0A2A5
:10537300E65004D2F08002C2F074151225EDE05419
:10538300FFFAA3E054FBFBA2F0E433F50875090030
:10539300740A780812258EEA4508F8EB4509F97472
:1053A300151225EDE8F0A3E9F0901A6FE0A2E250A0
:1053B30004D2F08002C2F074151225EDE054FBFA1A
:1053C300A3E054FFFBA2F0E433F50875090074026F
:1053D300780812258EEA4508F8EB4509F974151289
:1053E30025EDE8F0A3E9F0900EADE0602A75081012
:1053F30075090078081228247CAE7D0E74061225E8
:10540300EDAA82AB8312172E74021225B78A088B7A
:1054130009850882850983900EBEE06011EE600E57
:1054230074151225EDE04402F0A3E04400F0900E61
:10543300BEE0600678017900800478007900741476
:105443001225EDE048F0900EABE060067804790099
:1054530080047800790074141225EDE048F0AC0A5A
:10546300AD0BAA18AB19120756E974181225B77FAA
:10547300060226E3C082C0837900900EBEE0600678
:105483007C017D0080047C007D00ECC949C9900E3D
:10549300ABE060067C047D0080047C007D00ECC9E9
:1054A30049C9120828E9D083D08202013274F41268
:1054B300261174F21225A18908AC18AD197A0E755C
:1054C300F006E508A42420F9121890E9706A7C0616
:1054D30079FFAA18AB191217ACE9705C750A067547
:1054E3000B00780A122824A8087900E875F00EA4A6
:1054F300C8AAF075F000A42AFA75F00EE9A42AF9F7
:1055030074CC28FC740E39FD74081225EDAA82AB05
:105513008312172E74021225B78A0A8B0BAE0AAFB9
:105523000BAC18AD197A0E75F006E508A42420F922
:1055330012188AE9790180027900740E1225B77F67
:10554300040226E374F412261174FA1225A18908C1
:105553007403650860030255DF120D148A0A8B0B6E
:10556300A80AA90BE8496074E82405FAE439FB1298
:1055730014FAE9F509E509C3940A5060AA18AB19AE
:10558300790312087CE97054750A06750B00780AD2
:105593001228247402122607A8097900E875F00E70
:1055A300A4C8AAF075F000A42AFA75F00EE9A42A9B
:1055B300F974CC28FA740E39FB12173474021225CD
:1055C300B78A0A8B0BAE0AAF0BE509901A73F07A10
:1055D300047B00900EAAE0F9121788E974061225DD
:1055E300B77F040226E374F012261174E51225A195
:1055F3008A0C8B0DE9FE8C09EDFF74086F700B7537
:10560300F006EEA42422F508800975F006EEA42422
:1056130021F5087C1B7D007900AA18AB19121746E7
:105623008A0A8B0B850A0E850B0FAC18AD197A1BF2
:10563300A908121890E97034741A1225EDE0C39486
:1056430007C3940A5026742B1225EDE0F508780859
:105653001228287401122607E509A2E0E433F9AA07
:105663000CAB0D12076874011225B7E9741B1225E0
:10567300B77F080226E374F7122611120B3AE97E6C
:1056830000805A7C0679FFC9FDC9EEF87900E875F8
:10569300F00EA4C8AAF075F000A42AFA75F00EE97A
:1056A300A42AF974C628FA740E39FBCDF9CD121762
:1056B300ACE97028EEF87900E875F00EA4C8AAF0FA
:1056C30075F000A42AFA75F00EE9A42AF974C62825
:1056D300FA740E39FB7900120B40E9F80EEEC3940D
:1056E3000A40A07F010226E374F612261174FD120C
:1056F30025A1EAFEEBFF900F60E0F8A3E0F9E8498B
:10570300703975086275090F780812282475080224
:1057130075090078081228247508C075098578086A
:105723001228247CFF7DFF7A017B00120954740642
:105733001225B7900F60EAF0A3EBF0900F60E0F84A
:10574300A3E0F9E84970030258107508FF780812BE
:105753002828E4F508F50978081228247405122589
:10576300F788088909780812282474051225F78810
:105773000889097808122824900F6212283B7902BD
:10578300900F60E0FCA3E0FDEEFAEFFB120AC27497
:10579300091225B7E9704A851882851983E0FA7BD7
:1057A3000074011225EDE0F87900E4C8F9EA28F560
:1057B30008EB39F509E5084509602678081228241D
:1057C300900F60E0F8A3E0F5838882A3A3A3A3E08E
:1057D300FCA3E0FDEEFAEFFB1214B874021225B736
:1057E300E9E4F508F5097808122824900F621228D5
:1057F3003B7CFF7DFF900F60E0FAA3E0FB120960A2
:1058030074041225B7900F60EAF0A3EBF0900F60D9
:10581300E0F8A3E0F9E849700479018002790074A3
:10582300031225B77F020226E3C082C083900F5E76
:10583300E0F8A3E0F9E8496017900F5EE0FAA3E00F
:10584300FB12175EE9F8900F5E7400F0A37400F08A
:10585300901A72740AF0D083D082020132C082C0DF
:1058630083E9901979F0D083D08202013274F61261
:105873002611E9900435F0900495E0F508750900C8
:105883007402780812258EAA08AB09121806900430
:1058930036126223900436126610606F900495E00E
:1058A30075F003A4FAABF0121806900453126223A6
:1058B300900453126610700B9004361265E11218AF
:1058C3000C80489004531275757AFF7BFF12157E86
:1058D3007A0080198A087509007402780812258EE7
:1058E30012701D74FF125A23E4F0A3F00A9004957A
:1058F300E0F8EAC39840DD7905120A50900435E0D8
:10590300F912093C7ADA7B0A120D020270C074F4B0
:105913001226118A088B09EB54806047900435E006
:10592300F91217708A0A8B0BAE0AAF0BEE4F602A7F
:105933008E828F83E064B0701A120A62E960148E5B
:10594300828F83A3A3A3A3E0F9EE2405FAE43FFB2C
:10595300120A32EEFAEFFB12175EAA08E509648019
:10596300FB80047A007B00025B7374F212261174CD
:10597300FB1225A1EAFEEBFFEE4F604574031225EF
:10598300EDEEF0A3EFF0851882851983ECF0A3ED1B
:10599300F074021225EDE9F0AA18AB19120936E9E1
:1059A300F508707574131225EDE0F50AA3E0F50B05
:1059B300E50A450B60638E828F83125FACEE4F70F6
:1059C3000575080280537A067B001218068A0C8B31
:1059D3000DA80CA90DE8497005750813803B888252
:1059E3008983E4125A23EEF0A3EF125B3FE50AF03A
:1059F300A3E50BF0900439125B389004396017E08B
:105A0300FCA3E08003EAFCEBFD8C828D83125B3800
:105A130070F38C828D83126C38A90874050277F5B4
:105A2300F0A3127557A32274F21226118908890C68
:105A3300750D007403780C12258E850C0A850D0BE9
:105A4300900438F0900436126A43125B36602E12CB
:105A5300180C7900801D890C750D007402780C12E6
:105A6300258E900436126EDC8882F583A3A3E4F0BE
:105A7300A3F009900495E0F8E9C39840D990049500
:105A8300E0FA850AF0A4CAA8F0850BF0A428FB125B
:105A930018068A0C8B0DAE0CAF0DEE4F7003025B34
:105AA3002C900495E0FC850AF0A4CCA8F0850BF0BB
:105AB300A428FD79001217467C0080318D0C750DEA
:105AC300007403780C12258E8A828B83125B3188D3
:105AD300828983E4F0125B3EA3A3F0A3F00DEDC330
:105AE300950840D8EE250AFEEF350BFF0C90049580
:105AF300E0F8ECC39850288C0C750D007402780CF8
:105B030012258E900436125B31E82402500109FA03
:105B1300E9FB8A828B83EEF0A3EFF07D0080BFE583
:105B230008900438F07900800279130277F8126E36
