:020000040000FA
:0600000002011A0230119A
:03002B0002377425
:03003B0002379CED
:0300430002370C75
:03005300023087F1
:03006B0002373722
:10008300022E67E5C754F84401F5C7790122000041
:100093000080FB120086B90003020104E479217891
:1000A30008B800028004F709D8FCE479297802B87B
:1000B30000028004F709D8FCE4900281782C7917B8
:1000C3008002F0A3D8FCD9FA781A90014A7A01BACF
:1000D30000028007E493A3F608DAF97AAC7B189060
:1000E300014B789C79048015E493A3AD82AE838A97
:1000F300828B83F0A3AA82AB838D828E83D8E9D9C6
:10010300E775820F75838A740512012C75829175C8
:100113008300740012012C75D00075813F7518811E
:10012300751902759F00020096C09FF59FE473D076
:100133009F22D083D082C09FE493C0E0740193C018
:10014300E0740293F59F22017E068A06BA06B4067E
:10015300FF0000B4000028002800283075A000A08C
:1001630000A000A00000080008E001F0001000104B
:10017300001000100010001000500050005000103C
:10018300001000D0070000000000000F0001000570
:1001930000307507001000010081FF00000000FF20
:1001A300FFFFF2071008F8073408FF0202020802F3
:1001B3005000A0000000E80302C2850100009B85F7
:1001C30002BC850100000F1902B6850100000A0474
:1001D30002BC85010000101902B285010000200451
:1001E30002BC85010000111902AC85010000220444
:1001F30002BC85010000121902AA8508000023042D
:1002030002BC85010000131902A88501000014191E
:10021300FFFF0100FF2002C285010000A18502BC8F
:1002230085010000791902A685000000000002B8CC
:100233008503000053041700EA0FEA0FEA0FEA0FE1
:10024300EA0FEA0FEA0FEA0FEA0FEA0FEA0FEA0FE3
:10025300EA0F1812361212125C136E1356130202AF
:1002630002020202020202010D000000100102C29A
:1002730085010000898402BC85010000C21902B413
:1002830085010000A20E02BC85010000C31902B063
:1002930085010000218402BC85010000C41902A469
:1002A30085010000C38302BC85010000C51902C893
:1002B30085010000EB8202BC85010000C61902CA59
:1002C30085010000D98202BC85010000C71902CC58
:1002D30085010000FD8202BC85010000C81902CE21
:1002E300850100000F8302BC85010000C91902D0FB
:1002F30085010000DF8302BC85010000CA1902D218
:1003030085010000CB1901E803057710020A0A6092
:1003130015FFFFFF00013075030201060000000016
:1003230000000000000000000000000000000000CA
:100333000000000000000000FFFF0600800CE8033F
:1003430001FEFF014C000215010A09446172726546
:100353006E424C45051206000600020A0002010621
:100363001AFF4C0002154953534D415254000000EB
:1003730001000402000100000000CD0301000A4354
:1003830068617261637465726973746963203100B3
:10039300024368617261637465726973746963208F
:1003A30032000843686172616374657269737469CA
:1003B300632033001043686172616374657269730B
:1003C3007469632034000243686172616374657207
:1003D30069737469632035001643686172616374DD
:1003E3006572697374696320360002C28501000077
:1003F300988502BC85010000E21A02D6850300003D
:10040300871802BA85010000E31A02BC85010000C7
:10041300F41A02D885010000881802BA8501000089
:10042300F51A02BC85010000061B02DA85020000F2
:10043300891802BA85010000071B02BC8501000070
:10044300181B02DC850000008A1802B8850300002F
:100453008B1802BA85010000191B02BC850100003C
:100463002A1B02DE850400008D1802BA85010000F4
:100473002B1B02BC850100003C1B02E0850300002E
:10048300921802B885030000A71802BA850100007C
:100493003D1B3031323334353637383941424344EA
:1004A300454600286E756C6C20706F696E746572BA
:1004B3002900303132333435363738396162636479
:1004C3006566003F3F3F000000807F0000803FF9EA
:1004D300021550B743BA510000204100E7DB2E005C
:1004E30000A04012013529FE0412013523FF041236
:1004F3000135D7EE04120135EAEE041201350BEF94
:100503000412013576EF04120135B7EF04120135F9
:10051300D8EF0412013519F004120135B1F00412B9
:100523000135F9F004120135BEDB04120135D1DBCC
:100533000412013502DC041201353CDC04120135DE
:1005430095DC04120135DCDC0412013524DD0412D0
:10055300013553DD0412013582DD04120135B9DDA5
:100563000412013500DE0412013519DE04120135CF
:100573006EDE041201359CDE04120135D6DE041250
:10058300013571A20312013574A303120135A1A32E
:1005930003120135F2A30312013515A40312013529
:1005A30027A4031201352AA40312013568A40312F8
:1005B3000135DCA40312013548A50312013510A649
:1005C300031201352CA60312013563A6031201356C
:1005D3009DA60312013534A70312013586A7031222
:1005E3000135B7A703120135E8A703120135F5A7B3
:1005F300031201355FA80312013562A80312013506
:100603006FA80312013572A803120135C9A803129A
:100613000135CCA80312013505A90312013508A938
:10062300031201353CA9031201353FA90312013519
:1006330093A903120135DCA903120135ECA90312B6
:1006430001351FAA031201352CAA031201352FAA63
:100653000312013597AA0312013599AB0312013531
:100663003DAC03120135A6AC03120135E4AC031211
:1006730001350FE9031201350CEA03120135A2EA31
:1006830003120135EDEA0312013551EB0312013573
:10069300DBEB0312013594EC03120135B6EF0312C1
:1006A300013533F10312013556F10312013524E20A
:1006B3000412013544E20412013565E304120135E5
:1006C300B8E30412013524D0041201354CD00412CE
:1006D300013579D004120135B1D0041201350FD19F
:1006E300041201355BD104120135C2D10412013564
:1006F30002D2041201353FD2041201356DD2041225
:10070300013517D30412013521D3041201352ED339
:100713000412013561D3041201356DD3041201357E
:1007230085D3041201358FD30412013524850512B4
:1007330001353285051201354A850512013561857A
:10074300051201355CA40212013506A5021201351A
:1007530019A60212013595A602120135B3A702129A
:100763000135EFA7021201358AA8021201356EA9DD
:100773000212013531AA02120135A9AA021201356A
:1007830037AC02120135A8AC0212013562AD021278
:10079300013554AE0212013594AE0212013548AF51
:1007A300021201357AAF0212013570B1021201351E
:1007B300B7B102120135D5B1021201353BB20212B3
:1007C30001350AB302120135CEB302120135EDB57C
:1007D30002120135F7B502120135B6780012013560
:1007E300A079001201354B7A001201359C7A001270
:1007F30001354C7B00120135BD7B00120135A27C13
:1008030000120135D67C00120135CF7D001201356F
:100813000C7E00120135E87E00120135277F00129D
:100823000135437F001201355DF504120135E1F511
:10083300041201350CF60412013526F704120135B2
:100843001DD40412013533D40412013551D40412DA
:10085300013562D5041201356CD50412013597D6E2
:10086300041201358ED704120135FBD7041201356A
:1008730005D804120135D08D04120135068F0412F8
:100883000135808F04120135B08F04120135C38FF7
:10089300041201351A90041201352F920412013506
:1008A30019D501120135CAD501120135E6D5011258
:1008B3000135AFD601120135C9D601120135D4D69F
:1008C30001120135AAD70112013587D8011201356A
:1008D30017D901120135CED901120135DCDC011221
:1008E3000135CBDE011201357DDF0112013546E012
:1008F300011201358BE30112013535E40112013593
:100903005EE5011201351AE701120135BAE701125A
:10091300013508E80112013547E8011201351AE9EA
:10092300011201354EE901120135DBE901120135EE
:100933000080021201358C8002120135F08102120F
:100943000135FC8102120135378202120135A6827C
:1009530002120135AF8302120135B8840212013548
:100963007F8502120135DC8602120135FA860212F6
:100973000135178702120135E287021201350A8811
:1009830002120135D48A02120135D98A02120135C5
:10099300F28C02120135408D02120135B08D021224
:1009A3000135EE8D02120135CA8E021201358A8F8E
:1009B30002120135D68F02120135D98F0212013589
:1009C3001D9002120135659002120135A4900212A6
:1009D3000135C69002120135FA90021201355D917C
:1009E300021201353CA50412013545A50412013557
:1009F30053A504120135A6A504120135C5A5041299
:100A030001350AA6041201354EA704120135E9A7E0
:100A1300041201352DA80412013557A8041201351B
:100A2300C6A8041201350CA90412013583A90412C6
:100A3300013534AA04120135A05800120135B0580B
:100A430000120135515900120135AD59001201351B
:100A53006A5A00120135865B00120135B85B001239
:100A63000135E75B00120135945D001201350B601F
:100A7300001201357B62001201356D6300120135EE
:100A83006664001201356D6600120135616900125A
:100A93000135906A00120135946C00120135A46D82
:100AA30000120135336F0012013524700012013535
:100AB300727000120135E1700012013505710012E8
:100AC3000135567100120135F77500120135F876BC
:100AD3000012013559770012013584770012013570
:100AE3004A780012013546AA0412013550AA0412AD
:100AF300013595AA04120135A9AA0412013539ABAF
:100B03000412013572AB04120135ADAB0412013589
:100B1300D6AB0412013524AC0412013539AC0412EE
:100B230001354EAC0412013563AC04120135A6AC99
:100B330004120135BBAC04120135CFAC04120135EC
:100B4300E3AC04120135F8AC0412013532AD0412E2
:100B5300013556AD0412013582AD04120135B9AD2C
:100B6300041201351BAE041201358DAE041201359A
:100B7300D0AE04120135FAAE0412013525AF0412CA
:100B830001354E820512013586E20212013569E311
:100B930002120135E4E3021201351FE402120135AA
:100BA30070E502120135F9E50212013511E802126E
:100BB3000135A3EA0212013555EB0212013561EC4E
:100BC30002120135D4ED021201352DEE0212013568
:100BD300A6FA03120135E9FA031201356DFB03127C
:100BE300013540FC0312013517FF031201356FE78E
:100BF300041201351CE80412013529E904120135F8
:100C030068E904120135C2E90412013547F90412F7
:100C13000135AAF90412013547FA041201357CFAA9
:100C230004120135ACFA04120135CDFA0412013570
:100C330008FB0412013528FB041201350FB9041215
:100C430001359BB9041201355ABA0412013572BB3E
:100C5300041201358CBD04120135C08B031201351A
:100C6300E58B03120135B28C03120135868D031215
:100C73000135F38D03120135498E03120135E58EDB
:100C830003120135199003120135F4900312013553
:100C9300539103120135DF91031201354D92031273
:100CA3000135D99203120135DC92031201352693E3
:100CB300031201359893031201352A940312013567
:100CC300CB9403120135EB940312013533950312D0
:100CD30001357C9503120135989503120135BE95B4
:100CE3000312013538960312013546960312013576
:100CF300D596031201353E970312013575C20412CE
:100D03000135FAC2041201353CC30412013520C473
:100D1300041201358DC404120135D1C40412013506
:100D230015C50412013542C5041201356AC5041202
:100D33000135A2C504120135E0C50412013507C609
:100D43000412013581C604120135CBC604120135E4
:100D530071A2011201356AA40112013557A70112CC
:100D63000135ABA701120135D6A701120135AFA892
:100D730001120135EAA8011201351AA90112013540
:100D83002DA9011201356EA9011201359BA901128A
:100D93000135E9A9011201351EAA0112013554AA30
:100DA30001120135B3AA0112013538AB0112013525
:100DB300D7AD01120135BFAF01120135FBAF0112EF
:100DC300013579B101120135BEB101120135BFB24E
:100DD30001120135A9B4011201352CB501120135F7
:100DE30003B6011201355BB6011201353DB801129C
:100DF30001350CBA0112013511BA01120135DFBAFE
:100E03000112013576BB01120135C4BC0112013553
:100E1300D5BC0112013570DF03120135E9DF03127E
:100E23000135A3E503120135AEE60312013557E898
:100E330003120135E5E803120135E6850112013598
:100E4300678601120135948601120135DF8601128E
:100E53000135E087011201352588011201355188DA
:100E630001120135CD89011201354F8A0112013575
:100E73009E8A01120135098B01120135BD8B0112C6
:100E830001355A8C01120135D58C011201355F8D64
:100E930001120135B28D01120135FA8E01120135AD
:100EA30079900112013544910112013551910112DA
:100EB3000135A19101120135B19101120135D5918D
:100EC30001120135D89101120135C1920112013588
:100ED300A39301120135459401120135E0940112E7
:100EE3000135079501120135649501120135BB9552
:100EF3000112013509960112013557960112013588
:100F0300C09601120135609701120135FC97011259
:100F13000135899801120135FE98011201354E9968
:100F230001120135AD9901120135D4990112013530
:100F33008E9A011201357F9C01120135C89C011262
:100F43000135FA9C01120135719D01120135FB9E99
:100F530001120135AF9F01120135DF9F01120135E7
:100F6300F49F0112013564A001120135A5A00112FD
:100F73000135BAA1011201353BA201120135B0D5E9
:100F830003120135FBD50312013507D603120135D0
:100F9300DBD603120135F2D6031201352FD7031224
:100FA300013560D70312013598D703120135EED707
:100FB3000312013504D80312013540D80312013559
:100FC30053D8031201357AD803120135AED8031270
:100FD3000135D4D9031201351EDB031201351ADCA6
:100FE3000312013537DD03120135EA7F00120135A3
:100FF300C9FA0212013577FE02120135ABFF021264
:101003000135D6EE0212013599F1021201359FF135
:10101300021201355CF402120135B6F602120135F3
:10102300C3BD041201355ABE0412013518BF0412A0
:10103300013542BF0412013578C104120135F8BCF1
:101043000112013533BD0112013578C90112013591
:10105300E4CA01120135E1CB0112013566CF011259
:10106300013550D0011201359CD001120135B6D0A3
:1010730001120135F3D001120135FED00112013501
:1010830007D101120135B7D10112013587D20112FF
:101093000135CED20112013534D301120135A6D365
:1010A300011201353592021201357D950212013587
:1010B300839502120135D69C02120135E3A0021278
:1010C30001350FD804120135A5D804120135BBD858
:1010D3000412013514D90412013558D9041201350B
:1010E30092D9041201352ADA0412013599DA04126D
:1010F3000135A2DA04120135AEDA04120135C8DA79
:1011030004120135F2DA0412013507DB041201354A
:1011130069DB0412013590DB041201358287041266
:1011230001358F8704120135A98704120135DC8745
:10113300041201351A88041201357F88041201351F
:101143009488041201359F8804120135AC88041277
:101153000135C38804120135D18804120135E088B2
:1011630004120135F588041201350A890412013588
:101173001589041201352189041201352E890412BF
:1011830001353D89041201354889041201356D8901
:1011930004120135118A04120135218A0412013522
:1011A300368A041201354B8A04120135658A04120A
:1011B3000135828A041201359F8A04120135AA8AF5
:1011C30004120135568B04120135378C0412013594
:1011D3005C8C04120135678C041201357C8C04127B
:1011E3000135908C04120135F18C04120135F78C12
:1011F30004120135FD8C04120135038D04120135EF
:101203001B8D041201354E8D041201350AAD0312F4
:1012130001352CAD03120135F4AD03120135AEB027
:1012230003120135C4B103120135E5B203120135CE
:10123300BFB3031201356EB40312013503D5021295
:1012430001359AD50212013532D60212013522D761
:101253000212013559D7021201356CD7021201353A
:10126300DAD70212013575D9021201359CD902125F
:1012730001353EDA0212013573DA0212013584DADE
:1012830002120135FDDA021201351EDB02120135AD
:1012930036DB021201358EDC0212013597DE0212B3
:1012A3000135E7E002120135EAE10212013539E2C4
:1012B3000212013567C60212013564C702120135F5
:1012C3004FC80212013559C80212013563C8021210
:1012D300013585C80212013591C802120135E3C9EF
:1012E3000212013512CA0212013542CB0212013534
:1012F30084CB02120135B0CC0212013586CD021225
:101303000135D8CD0212013537CE021201356ECE2A
:1013130002120135A9CE0212013544D2021201355F
:101323005DD202120135DFD202120135EDD2021273
:10133300013542D30212013550D302120135BDD318
:10134300021201352FD40212013575D40212013570
:101353006197031201358397031201356D990312C7
:101363000135129D03120135559E031201352F9F3E
:10137300031201352AFE011201354FFE0112013518
:10138300C0FE0112013579F20312013582F2031214
:1013930001358BF203120135BCF303120135DBF582
:1013A3000312013511F6031201354BF60312013511
:1013B30081F603120135BBF603120135EFF6031272
:1013C30001351BF70312013564F7031201359EF74C
:1013D30003120135E6F7031201353CF80312013518
:1013E30071F803120135CCF80312013506F9031223
:1013F300013557F9031201358DF903120135C7F988
:1014030003120135F5F90312013518FA03120135F8
:10141300798705120135A587051201350088051264
:1014230001350A88051201351A8805120135008035
:1014330004120135448004120135F280041201358F
:10144300448104120135DE81041201351A8204122B
:101453000135B482041201352983041201358284D3
:10146300041201359B8404120135D385041201351E
:10147300668604120135CF86041201353B870412B8
:10148300013548B4041201356FB404120135CF8815
:10149300051201352038001201353B3B001201359E
:1014A3002B3D001201359D3D001201355B3E0012BC
:1014B3000135003F00120135953F001201351D40F3
:1014C30000120135474000120135814500120135F4
:1014D300144600120135434700120135A747001295
:1014E30001355B48001201350E4B00120135484BA4
:1014F30000120135B24B001201350F4C00120135B9
:101503006C4C00120135C94C00120135B44D001268
:101513000135FA4D00120135454E00120135664E74
:1015230000120135C84F00120135E34F0012013597
:10153300695100120135965100120135D65100123E
:1015430001351C52001201353A520012013578520E
:1015530000120135B75400120135F0540012013561
:10156300875500120135295600120135B95600126C
:1015730001352B57001201356C580012013574ECFC
:101583000412013508ED04120135DFED04120135B3
:1015930008EE041201356FEE041201356283051261
:1015A30001357383051201354484051201353EDF8D
:1015B3000412013509E204120135E0FF011201357D
:1015C300ECFC04120135FCFC041201351CFD041271
:1015D300013518FE04120135C5E4041201355EE538
:1015E3000412013554E70412013500800512013558
:1015F3002A80051201358680051201359480051273
:101603000135E680051201351981051201351C816A
:10161300051201354DAF0412013572AF04120135C5
:1016230099AF04120135C0AF04120135E8AF0412BB
:10163300013520B00412013550B00412013517B141
:101643000412013502B2041201353CB20412013511
:101653009EB304120135D69904120135F59904128B
:101663000135879A04120135859B041201359A9E30
:1016730004120135FA9E04120135779F04120135D5
:10168300F87F001201354AF304120135EEF4041217
:1016930001355AF504120135959F0412013592A1C3
:1016A3000412013518A2041201351AA304120135DC
:1016B300DEA30412013553A404120135B3A40412AA
:1016C3000135B6A404120135C4A404120135D8A40B
:1016D30004120135F0A40412013508A504120135E2
:1016E30016A5041201352EA504120135248805120E
:1016F300013535880512013545880512013589887C
:1017030005120135B0880512013557FF0412013562
:10171300CDFF04120135DDFF04120135EDFF041284
:10172300013555F70412013583F704120135ADF77E
:101733000412013568F80412013588F804120135E2
:10174300E0F804120135A6C103120135B4C1031236
:101753000135FAC1031201354DC20312013595C299
:1017630003120135EFC20312013510C30312013511
:101773003DC6031201354BC603120135A7C603123A
:101783000135DAC603120135EDC60312013578C7F8
:101793000312013511C8031201358EC80312013536
:1017A300C7C8031201354FC903120135A6C9031275
:1017B300013503CA0312013515CA0312013549CA9B
:1017C3000312013552CA031201359FCB03120135AF
:1017D30036FB0412013595FB0412013532FC041269
:1017E300013598FC041201350BC7041201353EC7BD
:1017F3000412013565C8041201358AC80412013583
:101803004FC9041201352BCA041201352A8105126E
:101813000135F681051201350DEA0412013552EA4C
:101823000412013592EA041201352FEC041201353A
:101833005484051201356F84051201357F84051226
:101843000135E48405120135B58605120135F185AC
:1018530005120135D3CB03120135AFCC0312013589
:10186300F6CC0312013533CD031201359FCD03129C
:101873000135F7CD0312013567CE0312013537CF9A
:101883000312013520D003120135A4D00312013510
:1018930039D203120135C2D2031201352FD30312F9
:1018A3000135A5D303120135BCD303120135E5D4A9
:1018B3000312013537D503120135F69304120135AE
:1018C3001694041201350695041201354F9504123E
:1018D30001356F9504120135AD9504120135089653
:1018E300041201354696041201359096041201350F
:1018F3005C9904120135C59904120135D1EA01122C
:101903000135EAEF01120135E1F20112013507F366
:101913000112013530F301120135E2F301120135F1
:10192300C3F501120135DEF601120135F7F6011296
:101933000135EDFB0112013526FC011201356AFC6C
:101943000112013577FD0112013524F1041201352D
:1019530058F10412013521F20412013538F2041250
:1019630001359AF204120135AAF204120135AFF2DD
:1019730004120135E1F204120135E8F204120135D3
:10198300EBF20412013562B70312013579B8031281
:101993000135A0B803120135FCBB0312013535BC78
:1019A3000312013548BC03120135E4BC03120135AF
:1019B300E7BC031201359EBE03120135FABE0312C2
:1019C3000135FDBE0312013562BF0312013573C138
:1019D300031201350080031201353A8203120135E7
:1019E300618603120135C28603120135F0860312A4
:1019F30001352987031201357F87031201359E873D
:101A0300031201355E8803120135F489031201358F
:101A13009D8A03120135DA8A03120135F08A031213
:101A23000135278B031201353F8B03120135708B70
:101A33000312013598CB0412013597CC04120135FA
:101A43002FCE0412013501B60212013514BB021266
:101A53000135A47F00120135A58A05120135798964
:101A630005120135A38905120135C9FF031201359A
:101A7300D18A05120135FA8A05E066701008A3E0E1
:101A830066700A08A3E066700408A3E06622C00833
:101A9300C3E096F50808A3E096420808A3E096423F
:101AA3000808A3E0964208A2D265D033E508700186
:101AB300D3D00822C3E7960809E7960809E79608F2
:101AC30009E79622C3E09608A3E09608A3E09608E8
:101AD300A3E09622C008C3E096F50808A3E0964267
:101AE3000808A3E096420808A3E09645087001D3CE
:101AF300D00822080808E630E7111223B0121B0EA3
:101B0300080808C64480C618181822181818E97956
:101B13009EC608CAC608CBC608CCC6C37020799631
:101B2300CACBCC7019798ECBCC70137986CC700E5E
:101B3300F9802ACA33CACB33CBCC33CC331930E741
:101B4300F2CCCBCA3350147004EA30E00DE4CA3A45
:101B5300CACB3BCBCC3CCC500209C3E913C6CC184F
:101B63002313C6CB18C6CA18C6F922121BAE20F01F
:101B73001430E72B74FFFCFBFA747F8022E4FCFB38
:101B8300FA7480801AB48008BC00F2BB00EF800FA7
:101B930050EBF9E4C39AFAE49BFBE49CFCE499C69A
:101BA300CC18C6CB18C6CA18C6F922E4C9C608CAD7
:101BB300C608CBC6D3330308CCC63392F0C3947F95
:101BC300402E94184019C9B90704CACBCC2250251A
:101BD300C309CA33CACB33CBCC33CC33D9F422F4C5
:101BE300600DC9CCC313CB13CBCA13CAD9F6CC220D
:101BF300E4FCFBFA2214FCFBFA22E62618461846FC
:101C0300184622E72719471947194722181818E6D3
:101C13000846087009E626087005E633F422082210
:101C2300191919E70947097009E727097005E73307
:101C3300F4220922E6084608C3134608336002E685
:101C430033F422E7094709C3134709336002E73333
:101C5300F422121C376025121C466020121BFD70F3
:101C630003021C06080808E76670101819E7667077
:101C73000A1819E76670041819E76622F422121C81
:101C830037601C121C466017121BFD7007121C06DE
:101C93007001D322C0D0121C067006D0D0B322C369
:101CA3002233D0D0501430E0F6C3E7960809E79604
:101CB3000809E7960809E796B32220E0D5E69708D6
:101CC30009E6970809E6970809E697B322121C3735
:101CD300601B121C466016121BFD7007121C066067
:101CE3000CB322C0D0121C067005D0D022C32233FD
:101CF300D0D0501330E0EBC3E7960809E796080904
:101D0300E7960809E7962220E0E4E6970809E697B4
:101D13000809E6970809E6972200121C37604F125C
:101D23001C466012E7548066F6121C0F7011121CD9
:101D330006703B090909F4F618F618F618F622128C
:101D43001C237015121BFD08080860EAE6447FF6A1
:101D530018768018E4F618F622121BFD6016121C82
:101D6300067012E4F608F608F608E65480F6090948
:101D73000918181822EAC0E0EBC0E0ECC0E0EDC09F
:101D8300E0E687F0A4FBACF008E687F0A42CFCE4C3
:101D930035F0FA1809E687F0A42C4B60027401CAE7
:101DA30035F0FCE433FB09E687F0D2F7A42CCB35FE
:101DB300F0FC1908E687F0A42BCC35F0FBE433FDE7
:101DC3000819E687F0D2E7A42C4ACB35F0CD3400CE
:101DD300FC09E687F0D2E7A42DCC35F0FDE433FA15
:101DE3000918E687F0D2F7A42CCD35F0CA3400FCED
:101DF30008E687F0D2E7D2F7A42ACC35F07A7E2022
:101E0300E70B0ACB33CBCD33CDCC33CC33CB3350F1
:101E1300147004ED30E00ED2F1E4CD3DCDCC3CCCDA
:101E23003B5005DA05C2F1EB547FC63308E6339223
:101E3300F0FBE73309E733C39A502D2B70190C0DD0
:101E43004C4D70151806E608C333700D20F10AA235
:101E5300F013F6E418800B4024E4F630F0027680A9
:101E630018F618F618F68024D33B14501074FFA20A
:101E7300F013F6187680E418F618F6800FA2F01324
:101E8300F618E63303F618ECF618EDF6D0E0FDD0BD
:101E9300E0FCD0E0FBD0E0FA22121C466046121CA4
:101EA30037603DE9687008F618F618F618F62274DC
:101EB3008067F7121ED0090909748067F722121C84
:101EC30037601D121C467005191919801A121C0F50
:101ED300701F121C23C37003E667331919194007D7
:101EE3001818182208080874FFF618F618F618F6DA
:101EF30022121C236017121C06702192F0121BFD84
:101F03007019501720F014080808090909E7F61892
:101F130019E7F61819E7F61819E7F622121BFD6000
:101F2300E6E869701F0808E62480F608E436F61828
:101F3300547FB47F0CE654806007F6E418F618F675
:101F430022181822E9C6CC08C6CD08C6CE08C6CFCB
:101F5300C0E0E8C0E0EAC0E0EBC0E009E9F809E767
:101F6300FA09E7FBE6F918E6F8C3EC98ED99EE9A5F
:101F7300EBC2E7F5F0EFC2E795F0500E600CEBCF44
:101F8300FBEACEFAE9CDF9E8CCF8EAA2E7D2E7FA20
:101F9300EB33FB13F5F0EEA2E7D2E7FEEF33FFC519
:101FA300F013A2E730E601B313C5F0C3C0E0C0F0FD
:101FB3007F00C39BFB605E9418600F401D14601A82
:101FC300D0E023F9D0E0F80220A28AF0E9486003C8
:101FD300D2F0E4AFF0FAF9F8803BEB30E40D89F08E
:101FE300EA6003D2F0E4AFF0F9CAF8EB30E30D880E
:101FF300F0EF6002D2F0AFF0E4CAC9F8EB54076027
:1020030014FBC3EA13FAE913F9E813F8EF135002C8
:10201300D2E0FFDBEDD0E0C0E030E739C3E49FFF5F
:10202300F5F0EC98FC42F0ED99FD42F0EE9AFE4299
:10203300F0D0E0F9D0E0F8E5F0607AE923F9EE209A
:10204300E742D8028067C3EF33FFEC33FCED33FD87
:10205300EE33FE80EAEC28FCED39FDEE3AFED0E0EB
:1020630023F9D0E0F84002801BC3EE13FEED13FD0D
:10207300EC13FCEF135002D2E0FF08B800067F7F99
:1020830074FF802EEF3350178CF020F00260100C99
:10209300BC000C0DBD00080EBE000408E860DFE9BB
:1020A30033E813FFEE2313FE4F4D4C8008E95480B1
:1020B300FFE4FEFDFCEE33EF33F47004FCFD7E80A1
:1020C300D0E0FBD0E0FAD0E0F8D0E0CFC618CEC61F
:1020D30018CDC618CCC6F922121C3770041818186C
:1020E30022121C46700D74FFF61819F61819F6180B
:1020F30019F622E7548066F6121BFD700F121C06B8
:1021030070F014F608F608F608F680D1121C067073
:102113000CF608F608768008E6447F80EC121C264D
:10212300700C121C1260BFE65480F6E480BB121CD4
:1021330012700519191980A5E869700C763F187695
:102143008018F618F6E8F922E6CDC0E018ECC0E0F6
:10215300E633CD33CDD313F6E719FCE7191933CCA6
:1021630033C3947F400ECD9D502408E65480F6E49B
:1021730018F6800FF4043D14501408E6447FF61853
:102183007680E418F618F6D0E0FCD0E0FD22CCD33C
:1021930013CCFD18E4C6CBC0E018E4C6CAC0E008FF
:1021A30008ED08C633E613F618E433C675F003C327
:1021B300CA97CA09CB97CB199C40047D08802EBDD2
:1021C300000302228416B6FF050606081618C3CAC2
:1021D30033CACB33CB33CA27CA09CB37CB193CC35A
:1021E3007D08803E187D0820E75CC633C6CA33CA23
:1021F300CB33CB33DDF1D5F0EB30E77BCA97CA099C
:10220300CB974ACB199C406F4B7025E620E0218089
:1022130066187D08C3CA97CA09CB97CB199CD3C646
:1022230033C6CA33CACB33CB3350C9DDE7D5F0E16C
:10223300D3E4C636C608C636C608C636C608C6368A
:10224300C61818188031C3CA97CA09CB97CB199CF3
:10225300B34097C633C6CA33CACB33CB33DD34D589
:10226300F02EC6A2E0C640C8CA27CA09CB37194A0E
:1022730070BECB3CB480B90808E63308E633601F70
:10228300181818D0E0FAD0E0FBD0E0FCD0E0FD2233
:10229300187D08CA27CA09CB37CB193CD3808013D2
:1022A300F618E4B67F11F618B6FF0EF618C60470DA
:1022B300D20808768080CAF618F618F680C5080892
:1022C30008EAC0E0EBC0E086F0E7A4FA180986F05C
:1022D300E7A42AFA180986F0E7A42AFA180986F06F
:1022E300E7A42AFA1986F0E7A4FBE5F02AFA19080D
:1022F30086F0E7A42BFBE5F03AFA190886F0E7A489
:102303002BFBE5F03AFA18180986F0E7A4C5F02B81
:10231300FBE43AFA1908E7C5F0C6A426F6E5F03B54
:10232300FBE43AFA1886F0E7A4F6E5F00826F6E4AB
:102333003B08F6E43A08F6D0E0FBD0E0FA22E4CF1B
:10234300C0E0E4CEC0E0E4CDC0E0E4CCC0E075F092
:1023530020E626F608E633F608E633F608E633F613
:10236300181818EC33FCED33FDEE33FEEF33FFC3E7
:10237300EC9709ED9709EE9709EF97191919400F93
:10238300FFEC97FC09ED97FD09EE97FE191906D5A9
:10239300F0BFECF709EDF709EEF709EFF719191993
:1023A300D0E0FCD0E0FDD0E0FED0E0FF221818180A
:1023B300E4C396F608E496F608E496F608E496F67F
:1023C300226016080808C6C313C618C613C618C663
:1023D30013C618C613C6D5E0EA22700908080822F6
:1023E3006016181818C6C333C608C633C608C633E2
:1023F300C608C633C6D5E0EA22E627F60809E6375B
:10240300F60809E637F60809E637F622E026F60865
:10241300A3E036F608A3E036F608A3E036F622E09A
:1024230026F008A3E036F008A3E036F008A3E03670
:10243300F022C3E697F60809E697F60809E697F649
:102443000809E697F622C3E096F008A3E096F008A1
:10245300A3E096F008A3E096F022E056F608A3E086
:1024630056F608A3E056F608A3E056F622E056F027
:1024730008A3E056F008A3E056F008A3E056F022C4
:10248300E0F608A3E0F608A3E0F608A3E0F622E6E8
:10249300F008A3E6F008A3E6F008A3E6F022E0FACA
:1024A300A3E0FBA3E0FCA3E0FD22EAF0A3EBF0A38F
:1024B300ECF0A3EDF022E0F8A3E0F9A3E0FAA3E047
:1024C300FB22E8F0A3E9F0A3EAF0A3EBF022CAC0F1
:1024D300E0E6F0A308DAFAD0E0FA22CAC0E0E0A30B
:1024E300C582CCC582C583CDC583F0A3C582CCC5C7
:1024F30082C583CDC583DAE6D0E0CA22C3E498F867
:10250300E499F91225408026C3E49AFAE49BFBE997
:1025130020E7E9122540E498F8E499F922C3E49806
:10252300F8E499F9122540E498F8E499F9C3E49A98
:10253300FAE49BFB22EB20E7CFE920E7E0B90010A8
:10254300BB0008E88AF084F8AAF022E4FBC8FA2268
:10255300EB70227B10C833C8C933C9335007C39A01
:10256300C3DBF280069A50012ADBEAC833F4C8C9F8
:1025730033F4C9FA2275F008E4C833C8C933C93340
:10258300C99AC99B5004C92AC93BD5F0ECFBC8338F
:10259300F4C8E4C9FA22600D08C6A2E713C618C638
:1025A30013C6D5E0F322600C08C6C313C618C613BE
:1025B300C6D5E0F422700422600D18C6C333C608E2
:1025C300C633C6D5E0F41822251810AF08F5184015
:1025D3000C15198008F51840021519D2AF2200C056
:1025E300D0251810AF08F518500C05198008F518F8
:1025F30050020519D2AFD0D0222518F58210AF08AA
:10260300F518400C15198008F51840021519D2AFBA
:10261300851983222518F582E43519F583222518B7
:10262300F8E43519F9222518FAE43519FB2225189F
:10263300FCE43519FD22E4732518C582C0E0E519D1
:1026430034FFC583C0E0E518C3958224F810AF08B2
:102653008583198582188008858319858218D2AFEE
:10266300CEF0A3E520F0A37808E608F0A3DEFAEFA6
:10267300F0A3E58124FAF8E608F0A3E608F0A3E660
:1026830008F0A30808E608F0A3E608F0A3158115EF
:1026930081D0E0FED0E0F8158115811581E8C0E016
:1026A300EEC0E0222518C582C0E0E51934FFC583DA
:1026B300C0E0E518C3958224F910AF088583198516
:1026C30082188008858319858218D2AFCEF0A3E5DE
:1026D30020F0A37808E608F0A3DEFAEFF0A3E58183
:1026E30024FBF8E608F0A3E608F0A30808E608F0E0
:1026F300A3E608F0A315811581D0E0FED0E0F8151C
:10270300811581E8C0E0EEC0E02285198385188237
:10271300E0A3FEE0A3F5207808E0A3F608DFFAE0E3
:10272300A3FFE0A3C0E0E0A3C0E0E0A3C0E0E0A318
:10273300C0E0E0A3C0E010AF08858218858319804C
:1027430008858218858319D2AFD083D082020132E3
:10275300851983851882E0A3FEE0A3F5207808E0BD
:10276300A3F608DFFAE0A3FFE0A3C0E0E0A3C0E024
:10277300E0A3C0E0E0A3C0E010AF08858218858322
:10278300198008858218858319D2AFD083D082221D
:10279300C0D02518C582C0E0E51934FFC583C0E069
:1027A300E518C3958224F310AF0885831985821831
:1027B3008008858319858218D2AFC8F0A3E9F0A3F6
:1027C300EAF0A3EBF0A37908E709F0A3D8FAECF059
:1027D300A3EDF0A3EEF0A3EFF0A3D0E0F0A3D0E0DD
:1027E300F0A3D0E0F0A3E520F0A3E5F0F0A3228569
:1027F3001983851882E0C0E0A3E0F9A3E0FAA3E01F
:10280300FBA37808E0F608A3DFFAE0FCA3E0FDA34E
:10281300E0FEA3E0FFA3E0C0E0A3E0C0E0A3E0F597
:10282300D0A3E0F520A3E0A3F5F010AF088583194A
:102833008582188008858319858218D2AFD082D00B
:1028430083D0E0F8D0E0327404800674028002740E
:1028530001C0E0F4041225FCD0E01224D122740458
:10286300800474028000CCC0E0EDC0E0E518C39C96
:10287300CCAD1950011D10AF068C188D1980068C34
:10288300188D19D2AF1224DED0E0FDD0E0FC22D0A7
:1028930083D082E9C0E0E493A3C386F0C5F095F04A
:1028A300F908E493A386F0C5F095F0700BE493A3C5
:1028B300C3994005E9048002A3E475F002A42582CC
:1028C300F582E5F03583F583D0E0F9E493A3C0E026
:1028D300E493C0E022D083D082ECC0E0EDC0E0E41A
:1028E30093A3FCE493A3FDED4C600D122924EC2487
:1028F300FFFCED34FFFD80EFE493A3FCE493A3FD21
:10290300ED4C600D122963EC24FFFCED34FFFD80D8
:10291300EFD0E0FDD0E0FCE493A3C0E0E493C0E09B
:1029230022C0E0C3E49396087401939618400FE421
:102933009366700808740193661870007019A3A356
:10294300C3E49396087401939618A3A3400DD0E0B3
:10295300D0E0D0E0022914A3A3A3A3A3A3D0E02231
:10296300C0E0C0F088F0E4936670080874019366D1
:10297300187000A8F0A3A3700BD0F0D0E0D0E0D083
:0B298300E0022914A3A3D0F0D0E02252
:1029900074F61226A7EAFEEBFF8C088D09EE2434AC
:1029A000F8E43FF9E8FCE9FDEE2435122CACFAEE30
:1029B0002437122CACF88508F0A4C885F00A8509E4
:1029C000F0A4250AF9EA28F8E439F97A257B0012FF
:1029D0002540EA8C828D83F0FA131313541FF8EE0E
:1029E00028F8E43FF9E8245DF582E439F583E0C096
:1029F000E074075AF8D0E0B800028004C313D8FC92
:102A0000A2E0EE50082434F582E43F801824361208
:102A10002CACF5F0EA84A8F0EE28F8E43FF9E824BD
:102A200038F582E439F583E0F97F0302275374F720
:102A30001226A7EAFEEBFFEE2434122CACC0E0EE27
:102A40002435F582E43FF583D0E0F08E828F83A3B6
:102A5000A3A3A3A3A3A3C082C0838E828F83A3A3B7
:102A6000A3A3A3E0F8A3E0F9D083D082E0C398F554
:102A700008A3E099F509EE247F122CAC6401703EA6
:102A8000EE2480F582E43FF583C082C0838E828F7E
:102A900083A3A3A3A3A3E0240108A3E03400F9D0F7
:102AA00083D082E0687003A3E06970127C1A7D080D
:102AB000120F2AEE247FF582E43FF583E4F0AC08A0
:102AC000AD09EEFAEFFB122990E9F91236FE7F020A
:102AD000022753C082C083851882851983E0F8A33A
:102AE000E0F9C3EA9CEB9D5010C3EC98ED99401BB4
:102AF000C3EA98EB995014800EC3EA98EB9940070B
:102B0000C3EC98ED994004790180027900D083D01C
:102B10008222EAC39CFAEB9DFB2274EF1226A79057
:102B200004C3E064086005E06407702A9061C8E0AF
:102B300060249004F1E0F4601DE0F875F00DA4C885
:102B4000AAF02AF974F328FE740439FF8E828F8369
:102B5000A3A3A3E07003022C28906060E0C0E0EE25
:102B60002468F582E43FF583D0E0F0750CB4750D70
:102B700008750800750900E5D914F50AE5D954036C
:102B8000F50E60127403650E6043E50A600AEE24D8
:102B900067122CAC700280759008AFE06401601F72
:102BA000122CA960047A0480027A00E50AC39AFA1A
:102BB00095E0FB120D628A088B09EA45097005123F
:102BC00011EE8064122CA970048A0C8B0DE50A604A
:102BD00012850C82850D83F50BE5D9F0A3150BE565
:102BE0000B70F6122CA9604474FC250AF50A780CC7
:102BF00012284EAC0AA90EEEFAEFFB120FE4740293
:102C00001225E1E97026AA08AB091217D6793D8E84
:102C1000828F83A3A3A3A3E0FA7B00120BB2EEFA88
:102C2000EFFB120F4E121044790080787403650E8A
:102C30006051850A10751100781012284EAC0CAD49
:102C40000DAA08AB09120FA874021225E1EE246840
:102C5000122CAC64807004747F8001E0F50C780C59
:102C6000122852E50EF50C780C122852A90AAC086D
:102C7000AD099004F1E0FA7B00120B827402122578
:102C8000E1801C9004C3E06408AC0CAD0D7009EE4B
:102C9000FAEFFB1210148007EEFAEFFB1210B612D7
:102CA00011FA79017F0A022753EE2483F582E43F6B
:102CB000F583E02274F21226A774FC1225CBEAFEFB
:102CC000EBFF8909A2AFE433F508C2AF022D7EE025
:102CD000601B780C12284EAC0BA90EEEFAEFFB121B
:102CE0000FDE74021225E17404250BF50B74012527
:102CF0000BF5D9850ED9E50B6018F50A850C828590
:102D00000D83E0F5D9A385820C85830D150AE50AAC
:102D100070EA75E195EE2463F8E43FF97A007B00F0
:102D2000A2AFE433F50BC2AF88828983E0FCA3E055
:102D3000FDEC4D603A88828983E0FAA3E0FB8A8249
:102D40008B83E0FCA3E0FD88828983ECF0A3EDF0A7
:102D50008A828B83E4F0A3F088828983E0FCA3E07D
:102D6000FDEC4D700A88828983A3A3E4F0A3F0E50B
:102D70000BA2E092AF1217D6900821E004F0EE24E7
:102D800063122CACF8A3E0F9E8496064EE24631206
:102D90002CAC2402F8A3E03400F988828983E58210
:102DA0002402F50CE43583F50DE0F50BA3E0F50EF8
:102DB000EE2462122CAC640170369061D0E0F812FF
:102DC0002CA960047C0480027C007480C398FA956E
:102DD000E0FBE50B2CF8E43400F9E82402F850019C
:102DE00009C3EA98EB99A2D265D0334003022CCFF5
:102DF000900821E0604D900822E0F8900821E0C39F
:102E000098500C74026509703A900823E060348E83
:102E1000828F83A3A3A3A3E0851882851983122E32
:102E2000537402122617E8122E53900820E028F05F
:102E30007402122631AA18AB197901120BE290081C
:102E400021E4F0E508A2E092AF74041225E17F07C7
:102E5000022753F0A3E4F0900821E0F822000000DC
:102E60008521878522C622C0E074EB122793A2AF8A
:102E7000E433F508C2AF759B00906182E0A2E05098
:102E800030E591A2E0502A7591FE74016521702110
:102E9000122FFA121104122FE81228611234A874AA
:102EA000041225E1E964017005790112114C122B1D
:102EB0001A906182E0A2E5505DE591A2E550577558
:102EC00091DF9004C3E064076005E06408702F128E
:102ED0002FFA74016521703E121104122FE8122896
:102EE000611234A874041225E1E9640170057901C6
:102EF00012114C7901EEFAEFFB122CB48018E06449
:102F00000D70139004E5E004F064287002E4F07A98
:102F100000E0F9121200906182E0A2E64003022F65
:102F2000BDE591A2E64003022FBD7591BF9004C399
:102F3000E0640570081210EC1210F880031210F211
:102F400075210012116AE99004C4F0790012114C45
:102F5000120E4C7A017B009004C2E0F91217A69081
:102F60007803E0644270569008B3E014F0704EC2EB
:102F7000AF122F7400782AD0E0F618D0E0F6E59F63
:102F80005407F87005750DFF8003750D7FC4C0E010
:102F90007829E6F50A08E6550DF50B740B780A1248
:102FA00025A9D0E0250AF8906270E0A2E740F8E891
:102FB000C333906272F0906270E0D2E0F090618171
:102FC000E0A2E35009E5E9A2E3500375E9F7A3E0C5
:102FD000A2E75009E591A2E7500375917FE508A2A9
:102FE000E092AF7F080227F28E828F83E0F8A3E0A1
:102FF000C82416F582E438F583229004F1E0F875D0
:10300000F00DA4C8AAF02AF974F328FE740439FF5D
:1030100022C0E0C0D0C082C083906183E0A2E050B3
:1030200009E5BFA2E0500375BFFEE0A2E15009E54B
:10303000BFA2E1500375BFFDE0A2E25009E5BFA2C7
:10304000E2500375BFFBE0A2E35009E5BFA2E350E5
:103050000375BFF7E0A2E45009E5BFA2E450037591
:10306000BFEFE0A2E55009E5BFA2E5500375BFDF61
:10307000E0A2E65009E5BFA2E6500375BFBFD083CA
:10308000D082D0D0D0E032C0E074F2122793E5A70E
:10309000A2E6500FE5A1A2E6500953A7BF75A1BF54
:1030A0001230DBE5A7A2E5500CE5A1A2E5500653DE
:1030B000A7DF75A1DFE5A7A2E15009E5A1A2E150D4
:1030C0000375A1FDE5A7A2E2500CE5A1A2E250061E
:1030D00053A7FB75A1FB7F010227F274F71226A705
:1030E0007521019004C3E0640670151210688A828D
:1030F0008B83A3A3A3A3A3A3E0FAA3E0FB1210DA9C
:10310000A2AFE433FED2AF9004C9E0640170187A34
:10311000207B009004C2E0F91218DE7A207B009038
:1031200004C2E0F91217AC906182E0D2E6F0900898
:10313000B0E0602185C62280169004C8E06401706A
:1031400008E5C654F84405F5C653BEFC122E60745B
:1031500001652160E4EEA2E092AF7F0202275300F6
:103160008E238F248582288583278518828519835D
:10317000E0CEA3E0CF852882852783EBC9EAC8ED9E
:10318000CBECCA75F010C3E833C8E933C9EA33CAD7
:10319000EB33CBC3EA9EF526EB9FF525B35004AB8A
:1031A00025AA26EC33CCED33CDD5F0DAAE23AF240F
:1031B0002274E91226A774FA1225CBEAFEEBFF8CE3
:1031C0000A8D0B121110EAF8EBF9ECFAEDFB8E8286
:1031D0008F831224C59004C3E024F7C394055006DE
:1031E0007514010233181210688A088B09EA450920
:1031F0007003023315EEFCEFFDAA18AB1912110A89
:10320000850882850983A3A3780C122483908510F6
:10321000780C12245D851882851983781012248316
:10322000908510781012245D780C7910121AB7501E
:103230001F780C791012243590857C780C121AD7DF
:103240004047850C14850D15850E16850F17804592
:1032500090857C85101485111585121685131778B5
:1032600014790C1224357814121AD7501C751400D6
:10327000751500751600751701781479101224352C
:103280007814790C1223FC800C75140175150075E7
:103290001600751700740978141223DD908568787C
:1032A0000C1224837814790C122341850882850935
:1032B00083A3A3A3A3A3A3123336122540880C89AA
:1032C0000DE4F50EF50F7814790C1223FC7404123A
:1032D0002617123336122540E8FA8A0CE4F50D78E9
:1032E00014790C121AB750077814790C12243590FF
:1032F00004C3E06408600AE064066005E0640570E9
:10330000209085647814121AD7501690855478143A
:1033100012240F800C7514007515007516007517B2
:1033200000850A82850B8378141224927406122574
:10333000E17F10022753E0F8A3E0F97AD07B032263
:1033400074F71226A71211229008AEE064017010E3
:10335000906245E4F0A3F053F4F343FE0C5390F372
:103360001210C8E5C654B84441F5C6E59E544764FA
:103370004170F8906185740FF09008ACE0F4700231
:10338000A3E0604E9008ADE0600814601B14602E4E
:1033900080407508017509009008ACE07808122596
:1033A000B8E508F45280802A750801750900900874
:1033B000ACE078081225B8E508F45290801475083E
:1033C000017509009008ACE078081225B8E508F40A
:1033D00052A079007F0202275374F71226A7E9FE54
:1033E000EAFF12112274016E700C7A807B00900447
:1033F000C2E0F91217A6903818E493F46008E49339
:10340000F9120E40800953C6B8E59E544770FA126F
:1034100010CE9008AEE064017003120E649008AC08
:10342000E0F47002A3E0604B9008ADE06008146027
:103430001A14602C803D7508017509009008ACE0F5
:1034400078081225B8E508428080287508017509BA
:10345000009008ACE078081225B8E5084290801387
:103460007508017509009008ACE078081225B8E5E8
:103470000842A01210688A088B09A808A909E8491F
:103480006014E5E170FCE82414F582E439F583E08A
:10349000F46003E0F5E174016F700A7A019004C2F0
:1034A000E0F912183C0233D474F11226A78A088B73
:1034B000098C0A8D0B908510780812245D740F1208
:1034C0002617780C122483908510780C12245D78CE
:1034D00008790C121AB790857C50107808790C1274
:1034E00024357808121AD74014800E780C79081207
:1034F0002435780C121AD750047901800279007FA4
:103500000802275374ED1226A78A088B098C0A8DAE
:103510000B908510780812245D7413122617780C0E
:10352000122483908510780C12245D780C7908128F
:103530001AB740117808790C122435AA08AB09ACE7
:103540000AAD0B80227510007511007512007513FD
:10355000017810790C122435781079081223FCAA0E
:1035600010AB11AC12AD137F0C022753908510786D
:10357000081224838A828B8378081224707F0402C5
:10358000275374F51226A78C828D83780812248322
:103590008A828B8378081224491235DAC3E09CF0C2
:1035A000A3E09D1235CC40229085707808122483C8
:1035B0008A828B8378081224228A828B83A3A3A316
:1035C000A3E02420F0A3E0344EF080A0F0888289AC
:1035D00083C3E09420A3E0944E22EA2404F8E43B61
:1035E000F98C828D83A3A3A3A3E0FCA3E0FD8882D2
:1035F00089832274F51226A7E9FE90083CE0FAA31D
:10360000E0FBEE29F8E433F9748428F582748339F9
:10361000F583E02AF508A3E03BF509780812284E67
:103620009084E01224A112316074021225E18A080C
:103630008B098C0A8D0B741078081223C4AA08AB6E
:10364000097F0402275374F11226A78A0C8B0D8C74
:103650000E8D0F7411122617122865741112261779
:10366000E02401F508A3E03400F509E4F50AF50BC0
:10367000780C79081222C19085507808122483783A
:103680000C79081222C1AA0CAB0DAC0EAD0F123191
:103690006074021225E18B09EA450960047A018011
:1036A000027A00EC2AFCE43DFD7413122617E0F8C0
:1036B000A3E0F9E8FEE9FFECF8EDF97A717B02127C
:1036C000254088088909E4F50AF50B8E828F8378F6
:1036D00008122492ECF8EDF97A717B021225408AE7
:1036E000088B09740578081225B88E828F83A3A3EE
:1036F000A3A3E508F0A3E509F07F08022753C082E1
:10370000C083E9906000F0D083D08222C0E074F2E0
:10371000122793A2AFE433FED2AFC2C0E5D1A2E438
:10372000500675D10F1216E6751A00EEF8EEA2E0FB
:1037300092AF7F010227F2C0E074F2122793A2AF8A
:10374000E433FED2AFE589A2E75006121602538990
:103750007FE589A2E6500CE5ABA2E650031216F80D
:103760005389BFC2C5751A00EEF8EEA2E092AF7F92
:10377000010227F2C0E0C0D0E8C0E0E9C0E0A2AF9B
:10378000E433F8D2AFC2C7751A00E8F9E8A2E092B4
:10379000AFD0E0F9D0E0F8D0D0D0E032C0E0C0D077
:1037A000E8C0E0E9C0E0EAC0E0C082C083A2AFE4C4
:1037B00033FAD2AF901142E0F8901143E068700BF9
:1037C000539AFB9011447401F0802CC2E99011428D
:1037D000E0F8740128901142F0790074C228F58253
:1037E000741039F583E0F5C1901142E0C394804034
:1037F000069011427400F0EAF8EAA2E092AFD0839A
:10380000D082D0E0FAD0E0F9D0E0F8D0D0D0E032E9
:06381000C2AF020000221D
:10381800FFFFFFFFFFFFFFFF74F212263B74FA124F
:1038280025CBE9FF8C0C8D0D7E008A088B09780862
:103838001228920004100D3B62388538A438C73826
:10384800EA380D393E3961397839A839573A7A3A20
:103858009D3AC23A0D3BEB3AD13974016F70198524
:103868000C82850D83E0C39403500D850C82850D71
:1038780083E0901A6AF080027E18023B2F74026F70
:103888007015850C82850D83E0F8A3E0F9901A6B1A
:10389800E8F0A3E9F080027E18023B2F74016F70F4
:1038A80019850C82850D83E0C39402500D850C8226
:1038B800850D83E0900EABF080027E18023B2F74DA
:1038C800016F7019850C82850D83E0C39405500D36
:1038D800850C82850D83E0900EACF080027E180284
:1038E8003B2F74016F7019850C82850D83E0C3949A
:1038F80002500D850C82850D83E0900EADF080029C
:103908007E18023B2F74106F702775081075090018
:10391800780812284EAC0CAD0D7AAE7B0E12174CFF
:1039280074021225E18A088B09850882850983803B
:10393800027E18023B2F74016F7019850C82850D69
:1039480083E0C39402500D850C82850D83E0900EB0
:10395800BEF080027E18023B2F74016F700D850C3B
:1039680082850D83E0901A6EF080027E18023B2F4C
:1039780074046F70269084E07808122483850C8282
:10398800850D837808121AC75011850C82850D831E
:103998001224B9900EC01224C580027E18023B2F53
:1039A800EF7021120852E97013121518E9F5097918
:1039B800501218B4E9F508121506800A900F5374CE
:1039C80001F080027E18023B2F74076F707C750827
:1039D80006750900780812284E850C82850D83A388
:1039E800AC82AD8374021226291217527402122572
:1039F800E18A088B0985080A85090B7C007D00AAE5
:103A080018AB19850C82850D83E0F91214ACE9F521
:103A180008E508C3940A502E120852E97015A9083F
:103A280012151EE9F50979501218B4E9F5081215AE
:103A3800068019A8087900745428F582740F39F59E
:103A4800837401F080067E0280027E18023B2F7488
:103A5800016F7019850C82850D83E0C39402500DA7
:103A6800850C82850D83E0900EBFF080027E1802DF
:103A78003B2F74016F7019850C82850D83E0C39408
:103A88000A500D850C82850D83E0901A6DF0800236
:103A98007E18023B2F74016F701C850C82850D8384
:103AA800E0C39407C3940A500D850C82850D83E00A
:103AB800901A6FF080717E18806D74016F7020907D
:103AC8000F52E0F8850C82850D83E0900F52F0E8E4
:103AD8007055900F52E06401704D12150680487EB3
:103AE80018804474016F7019850C82850D83E0C3BA
:103AF8009404500D850C82850D83E0901A70F08037
:103B0800267E188022C3EA9427EB9400501774028B
:103B18006F7012850C82850D83E0FCA3E0FD120610
:103B2800C6E9FE80027E02EEF974061225E17F06E0
:103B380002270D74F012263B74DA1225CB890DEC9E
:103B4800FEEDFF9084A6AC18AD1974061224DEAC05
:103B580018AD19A90D1214ACE9F508743612261718
:103B6800E0F50CE508C3940A4003023CADA908122D
:103B780014E8E9F509901A6AE06402700474018097
:103B8800027400F50A780A122852AD0CAC09A9088B
:103B9800EEFAEFFB12156674011225E17C147D0024
:103BA800790074121226291217648A0A8B0B850A67
:103BB8000E850B0F74121226317A1075F006E5087F
:103BC800A42424F91218AEE9703E7C1079FF74120F
:103BD8001226291217CAE9702F7422122617AC82EE
:103BE800AD837A0475F006E508A42425F91218AE09
:103BF800E9F50A7412122631E509A2E0E433F9EE78
:103C0800FAEFFB120750E9F874061226317A0C74A1
:103C1800702508F91218AEE9707574061226291273
:103C280014DC7508008061A8087900E875F003A421
:103C3800C8AAF075F000A42AFA75F003E9A42AF9D5
:103C48007406122617E58228F8E58339F9E8FAE9B7
:103C5800FB8A828B83E0F8A3E0F9E84960288A822E
:103C68008B83A3A3E0F50A750B00780A12284E8A05
:103C7800828B83E0FCA3E0FDEEFAEFFB120ACE7420
:103C8800021225E1E9F80508E508C394044098E51F
:103C980009A2E1506D900EAAE0F9EEFAEFFB120AC4
:103CA800D4E9F8805D7408650C7057901A6AE0646E
:103CB80002704F7C007D00A90DEEFAEFFB12154E45
:103CC800900EC4E0F8A3E0F9E8496036900EC4E02D
:103CD800F8A3E0F5838882A3A3E0F8A3E0F9E84914
:103CE80060207C007900EEFAEFFB900EC4E0F8A3A8
:103CF800E0F5838882A3A3E0F8A3E0F58388821225
:103D080026397404650C700F901A6AE06402700713
:103D1800EEFAEFFB121554790074261225E17F089C
:103D280002270D74F712263B120852E97062900FB1
:103D380053E06401701A121518E9FE900F537400CD
:103D4800F07C0A7D0079007A547B0F121764803664
:103D58007E00802CEEF87900745428F582740F39AF
:103D6800F583E064017018EEF912151EE9FAEEF811
:103D78007900745428F582740F39F5837400F00EB5
:103D8800EEC3940A40CE79501218B4E9FE12150613
:103D98007F0102270D74F412263B74FA1225CBEA30
:103DA800FEEBFF9084ACAC18AD1974061224DEEE5D
:103DB800FAEFFB120D148A0A8B0B850A08850B098A
:103DC800E50845097003023E51901A6AE0640260F2
:103DD80078AC18AD19E5082405FAE43509FB85081F
:103DE80082850983A3A3A3A3E0F91214ACE9F50A19
:103DF800E50AC3940A5021A90A1214E8E9FC7508D7
:103E08000178081228527D08A90AEEFAEFFB12156C
:103E18006674011225E18031901A6AE0700C790508
:103E2800EEFAEFFB12075CE9801F901A6AE0640162
:103E380070177C007D00850882850983A3A3A3A34E
:103E4800E0F9EEFAEFFB12154E74061225E17F0435
:103E580002270D74F212263B890B8A088B09ECFEA7
:103E6800EDFF750A0AE50B600B1460081460411435
:103E7800605F807DAA08AB091214FAE9F50AE50A21
:103E8800C3940A506CEE4F6068750C06750D007887
:103E98000C12284EAC08AD09EEFAEFFB12174C7461
:103EA800021225E18A088B098508828509838041E9
:103EB800AA08AB091214F4E9F50AE50AC3940A50F2
:103EC80030EE4F602CEEFAEFFBA90A1214EEE980EF
:103ED80020AA08AB09121500E9F50AE50AC3940AF5
:103EE800500FEE4F600BEEFAEFFBA90A1214EEE941
:103EF800F8A90A7F0602270D74F412263BE9FF7E13
:103F08001574FF6A700374FF6B702A7508008012BD
:103F1800EFFC7A027B00A9081214CAE960027E004D
:103F28000508E508C3940A40E7EF605A7A427B1512
:103F3800120D448051120D148A0A8B0B850A0885CC
:103F48000B09E5084509603C7C007D00E50824056F
:103F5800FAE43509FB850882850983A3A3A3A3E0B6
:103F6800F91214ACE9F9E9C3940A500CEFFC7A028F
:103F78007B001214CAE97E00EF600BAA08AB091295
:103F8800154280027E14EEF97F0402270D74F212A6
:103F9800263B8C088D097E15740E122617E0F50A4B
:103FA800A3E0F50B74FF6A700374FF6B701D7F004C
:103FB800EFC3940A5058AC0AAD0BAA08AB09EFF945
:103FC8001214D0E960027E000F80E5120D148A0CED
:103FD8008B0D850C82850D83E5824583602E7C00E0
:103FE8007D00E5822405FAE43583FBA3A3A3A3E0BF
:103FF800F91214ACE9F9E9C3940A5012AC0AAD0BF2
:10400800AA08AB091214D0E97E0080027E14EEF9EA
:104018007F0602270D74F712263B900EC4EAF0A320
:10402800EBF0900EAAE0FC7D007A267B001206C613
:10403800E9FE900EAAE0F9120A387F0102270D74F2
:10404800F212263B74EC1225CBEAFEEBFF8E828F30
:1040580083A3A3E024FA700302456624FD700302DB
:1040680043D51470030241371460161470030245D7
:104078005524FE70030242D114700302440D024518
:1040880075900EC4E0F8A3E0F9E8496066900EC4A4
:10409800E0F8A3E0F5838882E0F8A3E0F9E8496056
:1040A80052EE240CF582E43FF583E0F50878081217
:1040B8002852EE240BF582E43FF583E0F98E828FD7
:1040C80083A3A3A3A3A3A3A3A3A3E0FCA3E0FDEE60
:1040D8002403FAE43FFB900EC4E0F8A3E0F58388DC
:1040E80082E0F8A3E0F5838882122639740112254C
:1040F800E180398E828F83A3A3A3A3A3A3A3A3A341
:10410800122865900EC01224A112076274021225AB
:10411800E1E9601879018E828F83A3A3A3A3A3A3E7
:10412800A3A3A3E0FAA3E0FB12075CE902457575B7
:1041380008008E828F83A3E060030242538E828F31
:1041480083A3A3A3A3A3E0A2E04003024253900FDA
:104158005EE0F8A3E0F9E84960030242537C0E7D73
:10416800007900AA18AB191217648A088B09AA08E3
:10417800AB09EE240CF582E43FF583E0F8A3E0F9FF
:10418800E8496046750806750900780812284EEE59
:10419800240CF582E43FF583E02410FCA3E034000E
:1041A800FD740212262912174C74021225E18A089E
:1041B8008B098508828509838E828F83A3A3A3A395
:1041C800A3E0A2E2504DD2F0804B8E828F83A3A34E
:1041D800A3E0FAA3E0FB120D148A088B09AA08AB26
:1041E80009EA4B602B750806750900780812284EF5
:1041F800EA2405FCE43BFD740212262912174C74CC
:10420800021225E18A088B0985088285098380A81E
:10421800024575C2F0A2F0E433F87900740C122656
:1042280017E048F0A3E049F0EEFCEFFDAA18AB193F
:104238001214E2E970127A027B00900EAAE0F912D9
:1042480017A6E97900024577750815900EC4E0F8BD
:10425800A3E0F9E849606F900EC4E0F8A3E0F583A5
:104268008882A3A3E0F8A3E0F9E84960598E828F19
:1042780083A3E0FC79018E828F83A3A3A3E0FAA332
:10428800E0FB900EC4E0F8A3E0F5838882A3A3E0E6
:10429800F8A3E0F5838882122639E5086028AC087F
:1042A80079038E828F83A3A3A3E0FAA3E0FB900E89
:1042B800C4E0F8A3E0F5838882A3A3E0F8A3E0F5BF
:1042C8008388821226390245758E0A8F0B850A82E9
:1042D800850B83A3E064066003024381850A828517
:1042E8000B83A3A3A3E0FAA3E0FB120D148A0C8BA3
:1042F8000D850C08850D09E5084509607C901A7044
:10430800E0146008146028146043806D7C007D0010
:10431800850882850983A3A3A3A3E0F9850A82857A
:104328000B83A3A3A3E0FAA3E0FB12154E804A7CFB
:1043380005850A82850B83A3A3A3E0FAA3E0FB8586
:104348000882850983E0F9120744E9802C7C007D06
:104358000079007A097B04121494E9F50C7C058530
:104368000A82850B83A3A3A3E0FAA3E0FB85088256
:10437800850983E0F9120744E9900EC4E0F8A3E048
:10438800F9E8496045900EC4E0F8A3E0F583888217
:10439800A3A3E0F8A3E0F9E849602F8E828F83A3F6
:1043A800E0FC7902850A82850B83A3A3A3E0FAA324
:1043B800E0FB900EC4E0F8A3E0F5838882A3A3E0B5
:1043C800F8A3E0F58388821226390245757C007DC2
:1043D80000EE2404FAE43FFB8E828F83A3A3A3E0BC
:1043E800F91214ACE9F8E8C3940A5016EE240AFC52
:1043F800E43FFD7A0475F006E8A42425F91218A80C
:10440800E9F8024575900EBFE06019901A6DE0F961
:104418008E828F83A3A3A3E0FAA3E0FB12075CE9D3
:10442800F8024575901A6AE0701679058E828F83B6
:10443800A3A3A3E0FAA3E0FB12075CE9F802457521
:104448008E828F83A3A3A3E0FAA3E0FB120D148A44
:104458000A8B0B850A08850B09E5084509700302D4
:1044680045758E828F83A3A3A3A3A3A3A3E0A2E091
:10447800506D850882850983A3A3A3A3E060608E9D
:10448800828F83A3A3A3A3A3A3A3A3A3E0F50AA353
:10449800E0F50B7409780A1225A9E50A5401F8E534
:1044A8000B5400F9E8A2E04036740E122631E508F4
:1044B8002405FAE43509FB850882850983A3A3A3AB
:1044C800A3E0F91214ACE9701679038E828F83A3E6
:1044D800A3A3E0FAA3E0FB12075CE9F8024575EE36
:1044E8002405FCE43FFD850882850983A3A3A3A3D3
:1044F800E0F98E828F83A3A3A3E0FAA3E0FB121551
:104508004E900EC4E0F8A3E0F9E8496060900EC44C
:10451800E0F8A3E0F5838882A3A3E0F8A3E0F9E834
:1045280049604A7C0079008E828F83A3A3A3E0FAB6
:10453800A3E0FB900EC4E0F8A3E0F5838882A3A370
:10454800E0F8A3E0F583888212263980208E828FD6
:1045580083A3A3A3E0FAA3E0FB1214A6800F8E8224
:104568008F83A3A3A3E0FAA3E0FB1214A07901743C
:10457800141225E17F0602270D74F412263B74F20B
:104588001225CB8908EAFEEBFF8C09AC18AD197A25
:104598000E75F006E508A42420F91218AEE970603B
:1045A8007C0679FFAA18AB191217CAE97052740C65
:1045B800122617E0F8A3E0F9E8F50AE5096005EE28
:1045C800420A8004EEF4520AA80A7900740C1226F2
:1045D80017E0687003A3E0696022750B00740C1281
:1045E8002617E50AF0A3E50BF0AC18AD197A0E759D
:1045F800F006E508A42420F91218A8E97901800238
:104608007900740E1225E17F0402270D74F2122638
:104618003B74E61225CB89098A0C8B0DECFEEDFF65
:10462800740C1226317A0E75F006E509A42420F9D7
:104638001218AEE960030247377C0679FF740C1242
:1046480026291217CAE96003024737AC18AD197A50
:104658000C74702509F91218AEE960030247337526
:104668000800AA18AB191214DCE50C450D702D7C56
:104678000C7900AA18AB191217CAE9600302471986
:104688007C0C7D007900AA18AB191217648A0A8B72
:104698000B850A82850B837508018075AC18AD19E6
:1046A800AA0CAB0D1214D68A0A8B0BA80AA90BE820
:1046B80049702EEE4F601BAC18AD197A007B0012C2
:1046C80014D68A0A8B0BAA0AAB0BEAF8EBF9EA4B69
:1046D80070047900805B88828983E50CF0A3E50D7E
:1046E800F088828983A3A3E0FA7B00EE6A7002EF68
:1046F8006B601EEEC0E088828983A3A3D0E0F0EE51
:104708004F700B888289837400F0A37400F07508D9
:1047180001E5086016AA18AB191214DCAC18AD191B
:104728007A0C74702509F91218A8E97901800279C0
:1047380000741A1225E17F0602270D74F712263B32
:104748007E0080010EEEC39404504BEEF87900E829
:1047580075F003A4C8AFF075F000A42FFF75F0033F
:10476800E9A42FF9EC28F582ED39F583E06A7003A6
:10477800A3E06B70CFEEF87900E875F003A4C8AA3F
:10478800F075F000A42AFA75F003E9A42AF9EC28D8
:10479800FAED39FB80047A007B007F0102270D7453
:1047A800F712263B7C0002484DECF87900E875F0DA
:1047B80003A4C8ADF075F000A42DFD75F003E9A4BD
:1047C8002DF9EA28F582EB39F583E0F4FEA3E0F44D
:1047D800FFECF87900E875F003A4C8ADF075F000B7
:1047E800A42DFD75F003E9A42DF9EA28F582EB392B
:1047F800F583EEF0A3EFF0ECF87900E875F003A488
:10480800C8ADF075F000A42DFD75F003E9A42DF9ED
:10481800EA28F582EB39F583A3A3E0F4C0E0ECF8CD
:104828007900E875F003A4C8ADF075F000A42DFD7B
:1048380075F003E9A42DF9EA28F582EB39F583A38D
:10484800A3D0E0F00CECC3940450030247B17F01FD
:1048580002270D74F012263B74F41225CBEAFEEB06
:10486800FF8C088D09900F5EE0F8A3E0F9E8497025
:104878002CEE4F6006E508450970057901024B04E6
:10488800EEFAEFFB1214FAE9901A71F0901A71E03F
:10489800C3940A400812150CE9901A71F0901A7125
:1048A800E0C3940A4003024B02900F5EE0F8A3E0D5
:1048B800F9E8496003024953EEFCEFFD7A0E75F002
:1048C80006901A71E0A42420F91218A8E9F50B7CC7
:1048D8000C7D0079FFAA18AB191217648A0C8B0D8E
:1048E800850C0E850D0FAC18AD197A0C901A71E075
:1048F8002470F91218A8E9F50A750C0E750D0078E0
:104908000C12284EEEFCEFFD901A71E0F87900E8E1
:1049180075F00EA4C8AAF075F000A42AFA75F00E76
:10492800E9A42AF974C628FA740E39FB12174C74D4
:10493800021225E18A0C8B0DA80CA90D900F5EE5DB
:1049480008F0A3E509F07900024B04900F5EE0F847
:10495800A3E0C82406F582C83400F583E0F8A3E094
:10496800F9E8496042900F5EE0F8A3E0C82406F534
:1049780082C83400F583E0FCA3E0FD7A1B75F006DD
:10498800901A71E0A42421F91218A8E9F8900F5E92
:10499800E0F9A3E0C92406F582C93400F583740060
:1049A800F0A37400F0809F900F5EE0F8A3E0C824A5
:1049B8000AF582C83400F583E0F8A3E0F9E8496015
:1049C80043900F5EE0F8A3E0C8240AF582C83400DB
:1049D800F583E0FCA3E0FD7A1B75F006901A71E000
:1049E800A42422F91218A8E9F8900F5EE0F9A3E0D0
:1049F800C9240AF582C93400F5837400F0A3740051
:104A0800F002494E900F5EE0F8A3E0C8240CF5824E
:104A1800C83400F583E0F8A3E0F9E8496043900F53
:104A28005EE0F8A3E0C8240CF582C83400F583E002
:104A3800FCA3E0FD7A1075F006901A71E0A4242317
:104A4800F91218A8E9F8900F5EE0F9A3E0C9240C60
:104A5800F582C93400F5837400F0A37400F00249AC
:104A68004E900F5EE0F8A3E0C82408F582C8340031
:104A7800F583E0F8A3E0F9E849606F900F5EE0F88D
:104A8800A3E0C82408F582C83400F583E0FCA3E05D
:104A9800FD7A1075F006901A71E0A42424F9121812
:104AA800A8E9FE900F5EE0F8A3E0C82408F582C8E4
:104AB8003400F583E02410FCA3E03400FD7A04758B
:104AC800F006901A71E0A42425F91218A8E9F890C4
:104AD8000F5EE0F9A3E0C92408F582C93400F58324
:104AE8007400F0A37400F002494E900F52E0600386
:104AF80012156C121548790180027901740C12257F
:104B0800E17F0802270D74F712263B74F21225CBB9
:104B1800E9FEAC18AD197A0E75F006EEA42420F95A
:104B28001218AEE9700E740C122617E0F8A3E0F91B
:104B3800E8F980027900740E1225E17F0102270D41
:104B480074F412263B74F21225CB8909EAFEEBFFB6
:104B5800E509C3940A5004EE4F700479028041AC11
:104B680018AD197A0E75F006E509A42420F9121873
:104B7800AEE9F508E5087026750A06750B00780A8F
:104B880012284E7402122631EEFAEFFB12174C74FB
:104B9800021225E18A0A8B0B850A82850B83A908F4
:104BA800740E1225E17F0402270D74F412263BEAE5
:104BB800FEEBFF75080080020508E508C3940A505B
:104BC8003F750A06750B00780A12284EEEFCEFFDB9
:104BD800A8087900E875F00EA4C8AAF075F000A43A
:104BE8002AFA75F00EE9A42AF974CC28FA740E3959
:104BF800FB12175E74021225E1E960BCA908800265
:104C0800790A7F0402270D74F412263BEAFEEBFFB3
:104C180075080080020508E508C3940A503F750A24
:104C280006750B00780A12284EEEFCEFFDA80879ED
:104C380000E875F00EA4C8AAF075F000A42AFA7569
:104C4800F00EE9A42AF974C628FA740E39FB121773
:104C58005E74021225E1E960BCA9088002790A7F26
:104C68000402270D74F712263B74F01225CBEAFED6
:104C7800EBFF75080080020508E508C3940A503563
:104C8800AC18AD197A1075F006E508A42423F912BA
:104C980018AEE970E27C1079FFAA18AB191217CA8E
:104CA800E970D4EEFCEFFDAA18AB1912072CE970D5
:104CB800C6A9088002790A74101225E17F0102272B
:104CC8000D74F412263B750800024D99A808790066
:104CD800E875F00EA4C8AAF075F000A42AFA75F0D9
:104CE8000EE9A42AF974C628FC740E39FD7A0E75EB
:104CF800F006E508A42420F91218AEE97003024D65
:104D0800977C067D0079FFAA087B00EA75F00EA45F
:104D1800CAA8F075F000A428F875F00EEBA428FBDB
:104D280074C62AFA740E3BFB1217648A0A8B0BAE00
:104D38000AAF0B7C067D0079FFAA087B00EA75F0B4
:104D48000EA4CAA8F075F000A428F875F00EEBA41C
:104D580028FB74CC2AFA740E3BFB1217648A0A8B60
:104D68000BAC0AAD0BA8087900E875F00EA4C8AA28
:104D7800F075F000A42AFA75F00EE9A42AF974D2A5
:104D880028F582740E39F5837400F0A37400F005D9
:104D980008E508C3940A5003024CD4900F52E0600F
:104DA8000312156C1215487F0402270D74F712269A
:104DB8003B7E0080010EEEC3940A502F7C0679FFDB
:104DC800EEFA7B00EA75F00EA4CAA8F075F000A40C
:104DD80028F875F00EEBA428FB74C62AFA740E3B6B
:104DE800FB1217CAE960CEEEF98002790A7F010248
:104DF800270D74F712263B7E007F0080337C0679EE
:104E0800FFC9FDC9EFF87900E875F00EA4C8AAF04B
:104E180075F000A42AFA75F00EE9A42AF974C628D8
:104E2800FA740E39FBCDF9CD1217CAE970010E0FCD
:104E3800EFC3940A40C7EEF97F0102270D74F712F9
:104E4800263B79007E008008EEF912151EE9F90E5E
:104E5800EEC3940A5003E960EF7F0102270D74F056
:104E680012263B74CB1225CB8909901A71E065098B
:104E7800701D7A017B00900EAAE0F91217ACE97A4E
:104E8800027B00900EAAE0F91217ACE9121578908F
:104E98001A72E0650970137A047B00900EAAE0F993
:104EA8001217ACE9901A72740AF074271226317A34
:104EB8000E75F006E509A42420F91218AEE960037E
:104EC800024FB97C0679FF74271226291217CAE9FE
:104ED8006003024FB97C0E7D0079FF7427122629E2
:104EE8001217648A0A8B0B850A0E850B0F7C1B7DB3
:104EF8000079FF740C1226291217648A0C8B0D8511
:104F08000C0A850D0B7C0C7D0079FFAA18AB1912D1
:104F180017648A0C8B0DAE0CAF0D74271226317AEC
:104F28000E75F006E509A42420F91218A8E9F50879
:104F3800740C1226317A1B75F006E509A42421F9B0
:104F48001218A8E94208740C1226317A1B75F0066B
:104F5800E509A42422F91218A8E94208740C1226BB
:104F6800317A1075F006E509A42423F91218A8E986
:104F78004208740C1226317A1075F006E509A4244B
:104F880024F91218A8E94208740C1226317A04751B
:104F9800F006E509A42425F91218A8E94208AC1876
:104FA800AD197A0C74702509F91218A8E94208801D
:104FB80003750800A90874351225E17F0802270D3A
:104FC80074F712263BE9FEEE900EAAF01215067A47
:104FD800737B1A1208887F0102270D74F612263B8C
:104FE800EAFEEBFFEE5400F8EF5480F9E84960352B
:104FF800900EAAE0F912178E8A088B09A808A90949
:1050080088088909E8496012AA08AB09121530E92D
:105018006008AA08AB0912177CE9EE6400FAEF648D
:1050280080FB025164EE5402603E7C007D007A00F1
:105038007B001214E2E960187A017B00900EAAE066
:10504800F91217A6E9EE6402FAEF6400FB02516454
:105058007A027B00900EAAE0F91217A6E9EE640224
:10506800FAEF6400FB025164EEA2E04003025138FB
:10507800900F5EE0F8A3E0F5838882A3A3A3E0FA8B
:10508800A3E0FB121572E97003025121900EC4E0EF
:10509800F8A3E0F9E8496074900EC4E0F8A3E0F5DD
:1050A800838882A3A3E0F8A3E0F9E849605E7C0066
:1050B8007901900F5EE0F8A3E0F5838882A3A3A3AB
:1050C800E0FAA3E0FB900EC4E0F8A3E0F583888241
:1050D800A3A3E0F8A3E0F58388821226397C00793F
:1050E80003900F5EE0F8A3E0F5838882A3A3A3E012
:1050F800FAA3E0FB900EC4E0F8A3E0F5838882A34E
:10510800A3E0F8A3E0F5838882122639121578EE19
:105118006401FAEF6400FB80437A017B00900EAAD9
:10512800E0F91217A6E9EE6401FAEF6400FB802C9F
:10513800EE54046023901A72E0C3940A5010901A37
:1051480072E0F912155AE9F8901A72740AF0EE64CE
:1051580004FAEF6400FB80047A007B007F020227D8
:105168000D74F712263B7E018A828B83E0245060FF
:105178000E14601024E1700F1214C4E9FE800812A6
:105188001536800312153CEEF97F0102270D74F7DE
:1051980012263BEAFEEBFF8E828F83A3A3A3A3E034
:1051A800641E701179008E828F83A3A3E0FAA3E0B6
:1051B800FB1214B2E98E828F83A3A3A3A3E0F9EEB6
:1051C8002405FAE43FFB120A327F0102270DC08250
:1051D800C0838A828B83A3A3A3A3E070308A828BC7
:1051E80083A3A3A3A3A3A3A31228658A828B83A363
:1051F800A3A3A3A3E0FCA3E0FD8A828B83A3A3E07F
:10520800FAA3E0FB1214B874021225E1E9D083D0A6
:1052180082020132C082C083900EAAE0F98A828B92
:1052280083A3E0FAA3E0FB120AD4E9D083D0820278
:105238000132C082C08374FF1225CB121512E9C354
:105248009402400B8518828519837402F0800985C1
:105258001882851983740AF0AC18AD197A0179059A
:10526800120876E974011225E1D083D08202013256
:1052780074F212263B74E81225CB8A088B09E9FEE2
:105288008C0A8D0B7C187D007900AA18AB191217AF
:10529800648A0C8B0DAC0CAD0D851882851983E5DD
:1052A80008F0A3E509F0900EACE0C0E07402122605
:1052B80017D0E0F0900EADE0C0E07403122617D0CE
:1052C800E0F0901A6FE0C0E07417122617D0E0F0F3
:1052D8007415122617E054FEFAA3E054FFFB901A47
:1052E8006EE0A2E0E433F87900EA48F8EB49F97493
:1052F80015122617E8F0A3E9F0901A6EE0A2E15023
:1053080004D2F08002C2F07415122617E054FDFA98
:10531800A3E054FFFBA2F0E433F87900E828F8E9A9
:1053280033F9EA48F8EB49F97415122617E8F0A39F
:10533800E9F0901A6EE0A2E45004D2F08002C2F0C4
:105348007415122617E054FFFAA3E054FEFBA2F0EE
:10535800E433F87900E4C8F9EA48F8EB49F9741538
:10536800122617E8F0A3E9F0901A6EE0A2E55004BF
:10537800D2F08002C2F07415122617E054FFFAA387
:10538800E054FDFBA2F0E433F508750900740978D0
:10539800081225B8EA4508F8EB4509F974151226EC
:1053A80017E8F0A3E9F0901A6EE0A2E65004D2F0F4
:1053B8008002C2F07415122617E054FFFAA3E054D5
:1053C800FBFBA2F0E433F508750900740A780812AB
:1053D80025B8EA4508F8EB4509F97415122617E8C7
:1053E800F0A3E9F0901A6EE0A2E25004D2F0800235
:1053F800C2F07415122617E054FBFAA3E054FFFB21
:10540800A2F0E433F508750900740278081225B88B
:10541800EA4508F8EB4509F97415122617E8F0A3D0
:10542800E9F0900EADE0602A75081075090078085B
:1054380012284E7CAE7D0E7406122617AA82AB8304
:1054480012174C74021225E18A088B098508828597
:105458000983900EBEE06011EE600E7415122617D7
:10546800E04402F0A3E04400F0900EBEE06006784D
:105478000179008004780079007414122617E04836
:10548800F0900EABE060067804790080047800792B
:10549800007414122617E048F0AC0AAD0BAA18AB3A
:1054A80019120756E974181225E17F0602270DC064
:1054B80082C0837900900EBEE060067C017D00808A
:1054C800047C007D00ECC949C9900EABE060067C05
:1054D800047D0080047C007D00ECC949C9120828BD
:1054E800E9D083D08202013274F412263B74F2129E
:1054F80025CB8908AC18AD197A0E75F006E508A415
:105508002420F91218AEE9706A7C0679FFAA18AB54
:10551800191217CAE9705C750A06750B00780A1229
:10552800284EA8087900E875F00EA4C8AAF075F00E
:1055380000A42AFA75F00EE9A42AF974CC28FC74A0
:105548000E39FD7408122617AA82AB8312174C7401
:10555800021225E18A0A8B0BAE0AAF0BAC18AD1903
:105568007A0E75F006E508A42420F91218A8E9793E
:105578000180027900740E1225E17F0402270D7460
:10558800F412263B74FA1225CB8908740365086067
:105598000302561F120D148A0A8B0BA80AA90BE8DE
:1055A800496074E82405FAE439FB1214FAE9F509AC
:1055B800E509C3940A5060AA18AB19790312087C4C
:1055C800E97054750A06750B00780A12284E7402A1
:1055D800122631A8097900E875F00EA4C8AAF0755A
:1055E800F000A42AFA75F00EE9A42AF974CC28FA76
:1055F800740E39FB12175274021225E18A0A8B0BBA
:10560800AE0AAF0BE509901A72F07A047B00900E8F
:10561800AAE0F91217A6E974061225E17F04022709
:105628000D74F012263B74E51225CB8A0C8B0DE91C
:10563800FE8C09EDFF74086F700B75F006EEA4245C
:1056480022F508800975F006EEA42421F5087C1BD4
:105658007D007900AA18AB191217648A0A8B0B858A
:105668000A0E850B0FAC18AD197A1BA9081218AED3
:10567800E97034741A122617E0C39407C3940A50C9
:1056880026742B122617E0F50878081228527401A0
:10569800122631E509A2E0E433F9AA0CAB0D120792
:1056A8006874011225E1E9741B1225E17F080227BD
:1056B8000D74F712263B120B3AE97E00805A7C06DD
:1056C80079FFC9FDC9EEF87900E875F00EA4C8AAFB
:1056D800F075F000A42AFA75F00EE9A42AF974C648
:1056E80028FA740E39FBCDF9CD1217CAE97028EEE5
:1056F800F87900E875F00EA4C8AAF075F000A42A9D
:10570800FA75F00EE9A42AF974C628FA740E39FB62
:105718007900120B40E9F80EEEC3940A40A07F010D
:1057280002270D74F612263B74FD1225CBEAFEEB18
:10573800FF900F60E0F8A3E0F9E849703975086256
:1057480075090F780812284E75080275090078083F
:1057580012284E7508B8750985780812284E7CFFFE
:105768007DFF7A017B0012095474061225E1900F1F
:1057780060EAF0A3EBF0900F60E0F8A3E0F9E849E5
:1057880070030258507508FF7808122852E4F5088B
:10579800F509780812284E74051226218808890907
:1057A800780812284E740512262188088909780875
:1057B80012284E900F621228657902900F60E0FC63
:1057C800A3E0FDEEFAEFFB120AC274091225E1E923
:1057D800704A851882851983E0FA7B0074011226C5
:1057E80017E0F87900E4C8F9EA28F508EB39F50973
:1057F800E50845096026780812284E900F60E0F801
:10580800A3E0F5838882A3A3A3A3E0FCA3E0FDEEB5
:10581800FAEFFB1214B874021225E1E9E4F508F571
:1058280009780812284E900F621228657CFF7DFFC8
:10583800900F60E0FAA3E0FB12096074041225E1FE
:10584800900F60EAF0A3EBF0900F60E0F8A3E0F9A6
:10585800E849700479018002790074031225E17F18
:105868000202270DC082C083900F5EE0F8A3E0F922
:10587800E8496017900F5EE0FAA3E0FB12177CE995
:10588800F8900F5E7400F0A37400F0901A71740A17
:10589800F0D083D082020132C082C083E9901978A7
:1058A800F0D083D08202013274F612263BE99004CC
:1058B80035F0900495E0F50875090074027808122F
:1058C80025B8AA08AB09121824900436126263900E
:1058D8000436126650606F900495E075F003A4FAE0
:1058E800ABF01218249004531262639004531266AA
:1058F80050700B90043612662112182A80489004C2
:10590800531275B57AFF7BFF12157E7A0080198ACB
:1059180008750900740278081225B812705D74FFC2
:10592800125A63E4F0A3F00A900495E0F8EAC398E9
:1059380040DD7905120A50900435E0F912093C7AE5
:10594800DA7B0A120D0202710074F412263B8A08EF
:105958008B09EB54806047900435E0F912178E8A62
:105968000A8B0BAE0AAF0BEE4F602A8E828F83E054
:1059780064B0701A120A62E960148E828F83A3A33E
:10598800A3A3E0F9EE2405FAE43FFB120A32EEFA8B
:10599800EFFB12177CAA08E5096480FB80047A00F3
:1059A8007B00025BB374F212263B74FB1225CBEA30
:1059B800FEEBFFEE4F60457403122617EEF0A3EFDF
:1059C800F0851882851983ECF0A3EDF07402122695
:1059D80017E9F0AA18AB19120936E9F508707574B9
:1059E80013122617E0F50AA3E0F50BE50A450B604C
:1059F800638E828F83125FECEE4F7005750802800C
:105A0800537A067B001218248A0C8B0DA80CA90D5A
:105A1800E8497005750813803B88828983E4125A27
:105A280063EEF0A3EF125B7FE50AF0A3E50BF090BD
:105A38000439125B789004396017E0FCA3E0800316
:105A4800EAFCEBFD8C828D83125B7870F38C828D7F
:105A580083126C78A9087405027835F0A31275973B
:105A6800A32274F212263B8908890C750D00740371
:105A7800780C1225B8850C0A850D0B900438F09027
:105A88000436126A83125B76602E12182A79008017
:105A98001D890C750D007402780C1225B890043617
:105AA800126F1C8882F583A3A3E4F0A3F009900485
:105AB80095E0F8E9C39840D9900495E0FA850AF092
:105AC800A4CAA8F0850BF0A428FB1218248A0C8B12
:105AD8000DAE0CAF0DEE4F7003025B6C900495E0B9
:105AE800FC850AF0A4CCA8F0850BF0A428FD790069
:105AF8001217647C0080318D0C750D007403780CCE
:105B08001225B88A828B83125B7188828983E4F0BC
:105B1800125B7EA3A3F0A3F00DEDC3950840D8EE69
:105B2800250AFEEF350BFF0C900495E0F8ECC398BE
