:040000050000FE6990
:020000040000FA
:100000005043002029AD000001CA011001CA0110AF
:1000100001CA011001CA011001CA011001CA011070
:1000200001CA011001CA011001CA011001CA011060
:1000300001CA011001CA01103FCA01102149086814
:10004000C2430A600A680242FAD170471E490A6830
:10005000002AFCD1CA610860C8690028FCD00020D1
:10006000C86148687047194801686FF00202114082
:1000700041F40071016003211548816041F23001B3
:1000800041610121C160502141610121C1604FF4F2
:10009000CA6141610121C160016070470D48026879
:1000A0000A6082684A60C2688A60406B20F07840CB
:1000B00040F08050C86070477047014610220648E3
:1000C00002F082BA101004400010044000000460E6
:1000D000004104404C1300501800002170470120DB
:1000E00070470000200000000A000000040000002B
:0400F000CD1C000023
:100100003C0000000000000000000000340100007E
:1001100000000000000000000100000000000000DE
:1001200000000000000000000000000001000000CE
:100130000000000008000000000000003400000083
:100140000000000000000000680100000000000046
:10015000000000000100000000000000010000009D
:100160000000000000000000080000000000000087
:1001700030000000000000000000000098010000B6
:10018000040000000000000001000000FFFFFFFF6E
:10019000FF00000001000000080000000000000057
:1001A0002C0000000000000000000000C40100005E
:1001B000040000000000000001000000FFFFFFFF3E
:1001C000FFFFFFFF080000000000000034050000F2
:1001D000E401000099A1011095A70110A5C201102A
:1001E00009B2011045B80110000000000000000035
:1001F0002F000000280000000000000000000000A8
:10020000140200000000000000000000FFFFFFFFDC
:1002100000000000080000000000000030050000A1
:100220003002000069C201106DC101101FC201102F
:1002300095BA011000000000000000002D00000031
:10024000300500005402000075C20110A9B601106B
:100250009DBF011049B60110000000000000000021
:100260002E0000002400000000000000000000003C
:1002700080020000000000000000000000000000FC
:100280000800000000000000240000000000000042
:1002900000000000A40200000000000000000000B8
:1002A0000000000008000000000000002400000022
:1002B0000000000000000000C80200000000000074
:1002C0000100000000000000080000000000000025
:1002D00000000000680F0020040000000000000083
:1002E000000000002000000070010000300000004D
:1002F0001C020000880F0020040000000000000025
:10030000000000000C000000300400001800000095
:1003100040020000900F00200400000000000000D8
:100320000000000024000000480400001800000045
:1003300000000000D00F00200400000000000000BA
:100340000000000010000000A00100002C000000D0
:10035000CC010000D80F00200400000000000000C5
:1003600000000000200000006402000024000000E3
:10037000FFFFFFFFF80F0020040000000000000056
:100380000000000028000000880200002400000097
:10039000FFFFFFFF28100020040000000000000005
:1003A00000000000580000003C0100003400000084
:1003B000FFFFFFFF301000200400000000000000DD
:1003C00000000000100000006004000018000000A1
:1003D000FFFFFFFF381000200400000000000000B5
:1003E000000000001C000000AC020000240000001F
:1003F000FFFFFFFF4010002004000000000000008D
:100400000000000038000000F40100002800000097
:10041000FFFFFFFFA8100020040000000000000004
:100420000000000054000000000100003C0000003B
:100430001800000000000000000000004004000060
:10044000080000000000000018000000000000008C
:100450000000000058040000080000000000000038
:100460001800000000000000000000007004000000
:10047000080000000000000001000000F000000083
:01048000007B
:100484000100000000000E0000000F003200000018
:1004940001000000700F00200002000000000000B6
:1004A40001CA011000000000000000000800000064
:1004B40000002300980F002001000000E00F00203E
:1004C4000800000000000000000000000000000020
:1004D400000000000000000001000000481000209F
:1004E4000600000001000000B01000200000000021
:0C04F400000000000002000000000000FA
:0F0502002900010025002D002E002F000100010F
:100514000400000054AD00000000000000000000D2
:10052400000001000000030087C40110380500002A
:10053400380500000000000090000000900000005A
:1005440000000000E00F0020E98E00002000000001
:1005540040AD0000C0AA00000DC30110211C000022
:10056400231C000099C801109BC801100000000062
:100574008004000080A9000098A9000068A9000078
:090584000800090001000000015B
:10059000000000000000000000000000000000005B
:1005A0006D1B00008D1B0000911A0000B71B00009E
:1005B000D91A0000AF1A00000B1B0000E31B00005B
:1005C000618E0000AD8F0000B18F000008000000B8
:1005D0002400000018000000280000002000000097
:1005E0003C0000000C00000034000000DFF800F0C8
:1005F00049C10110DFF800F019C20110DFF800F066
:1006000041AC0110DFF800F0CDA00110DFF800F0E0
:1006100085C10110DFF800F0C1C20110DFF800F061
:10062000E3BF0110DFF800F0CDC10110DFF800F0EA
:100630003DC10110DFF800F0DDB20110DFF800F07D
:1006400085B00110DFF800F029AF0110DFF800F0ED
:1006500079B50110DFF800F0C1C10110DFF800F03A
:1006600009B70110DFF800F0D5C00110DFF800F085
:10067000E1B5011020B1082328220021FFF7D2BFE5
:10068000704720B1082330220021FFF7CFBF704709
:1006900038B500F06FFE25680DB129682160FFF7BD
:1006A000A9FF284632BD70B504460D4626680020D5
:1006B00028601EB9FFF79AFF25600DE0FFF796FF4F
:1006C00000E0366831680029FBD1AE4203D1FFF764
:1006D00091FF002070BD3560FFF78CFF012070BDD9
:1006E0000022DFF8801C01EB4211CB7F1B0605D5F1
:1006F000B1F91C30834201D108467047521C082AC8
:10070000EFDB00207047F8B500F034FE0546DFF857
:100710001C0AC17D0A001CD0491EC175C9B2C1B9ED
:10072000DFF80C7A082107F14C0001F050F984B190
:10073000B86B703001F059F8B86BDFF82C1CC0684A
:100740000968201A07F1EC0600F0B4FD3046FFF707
:1007500065FF2846BDE8F240FFF74CBF10B50446E0
:10076000207B00F00F00022802BFDFF8C009007DE7
:10077000002817D100F0B4FCA1688908A1EB900013
:100780006FF0704188420DDAB0F1704FBCBFDFF8F6
:10079000041B0818DFF89819896BC96801F57A718C
:1007A000814200DB002010BD38B5DFF8EC0ADFF82D
:1007B000EC2A0168DFF8784902EA0105E9430160A3
:1007C000A90606D54068800603D54FF4005100F015
:1007D00090FB15F4602F0BD0A06905F4602108434D
:1007E000A061002104F19C00BDE8344001F0EFB8A5
:1007F00031BD70B5FFF7FAFEDFF834490646A0694F
:1008000010F4602F27D0A069C5012D0EE80748BF5E
:10081000002506D4A80748BF012502D4680748BFB1
:100820000225681D40B200F0E2FEA069012105F139
:10083000110291408843A0613046FFF7DBFE04EBD4
:1008400085008668300009D0606800224FF00063A0
:10085000691DB04702E03046FFF7CCFEA06920B129
:10086000002104F19C0001F0B2F8E07F80070DD573
:100870006569280006D0606800224FF000436FF0E1
:100880000101A847E07F00F0FD00E07770BD70B582
:10089000FFF7D4FBDFF89858DFF8D04AAB6A02467E
:1008A00090071DD4D3E90401104007D0EB62996989
:1008B000084398614FF4804100F0F8FCA86A0028D2
:1008C00049D16E6A002E46D0F068A96B884224D0C8
:1008D00005F14C00BDE870404FF4805101F077B84D
:1008E0000BB9A86AEAE70020A862D3E904019E696F
:1008F000024042F0020232439A61626982436261BD
:10090000E26822EA0100E060194605F13000FFF7D5
:10091000CAFE022100F0CAFCE3E7B068FFF71EFF41
:10092000A86418B1A86CBDE87040ECE6D6E90401F3
:10093000626902436261E26841EA0200E06000200D
:10094000E061B0682060E0690028FCD005F1240077
:10095000FFF79EFEAE6270BD0020D4E6F8B50646F5
:100960001446376E1D4607B1B847A00708D4D6E92C
:100970001601204029400022914208BF904207D032
:10098000C6E91A4506F13800BDE8F240FFF736BE69
:10099000F1BDFEE780B501F00BF8DFF894270146C2
:1009A000906BD26BBDE80840104710B5DFF8804768
:1009B0000FF23D01E06B884202D101F03FF9206463
:1009C00004F14C00BDE81040042101F000B880B5EE
:1009D000FFF734FBDFF89819084207D0BDE8044060
:1009E0004FF00051DFF8A40B00F0F1BF01BD000093
:1009F00038B5042951D1DFF83847606AA16B08B1D6
:100A0000C16803E0E07FC00748BF6168A163084692
:100A1000DFF8B42A41680B781360126809788A42BB
:100A20001CBF8569002D05D000224FF000736FF0C8
:100A3000FF01A847022001F03DFA112001F04FFA12
:100A4000DFF8E8060121C176A16B407E097C0142F6
:100A500004BF0E2001F043FAA06BDFF810194068C4
:100A60008268002A04BFC068002804D00020C86142
:100A7000DFF8C40A086040F2FF70DFF8C02A106097
:100A800000208861DFF8E80848610FF21100E06398
:100A90001920BDE83240FFF7CDBD31BD2DE9FF4142
:100AA0008046880040F19780DFF88456A86B406844
:100AB0004068010018BF8047A86BDFF8B068406845
:100AC0008168002904BFC168002912D0F16900299A
:100AD000FCD00021F1618068010018BF8047A86B3D
:100AE0004068C068010018BF8047DFF8A40AFFF71C
:100AF000ADFA0020F06108F10807DFF8980A3060CD
:100B00000120FFF7EBFA00220FF21D10E86340F618
:100B10000A01DFF8180642800180027B02F0F00231
:100B2000027300224260427B02F0F00242F00102B6
:100B3000427300223C68628000E014466268002A2A
:100B40001CBF13888B42F8D1606040F60302617BC2
:100B500001F0F0016173696A8968098891421CBFDC
:100B600040F60402914217D0398BA9B10021798354
:100B7000F96108F12C010A7802F0F0020A704A7853
:100B800002F0F00242F001024A7008F120014160D7
:100B9000417B01F0F001417369463868FFF77EFA46
:100BA0006846FFF78AFA3868FFF786FAF069002886
:100BB000FCD00020F061012001F050FC012808D099
:100BC000607B00F0F00040F0010060730FF20D0058
:100BD000E86338683060BDE8FF810000DFF84C0A48
:100BE000014200D17047012010B501F037FC012807
:100BF000DFF83C4508D10FF23100DFF87017E063F1
:100C0000DFF82805086010BDDFF8241A09683220D3
:100C1000EC34B0FBF1F12046FFF7FCFC2046BDE8C8
:100C20001040FFF7FBBC00002DE9FE4306460D46D1
:100C30006804DFF8FC4417D5FFF7D8FCE66AB7690B
:100C4000FFF7D8FCB8070CD45EB1B069B843B06107
:100C5000706830B1B6F91C10F06876683A46002327
:100C6000B04725F480453DE1A807DFF8C0747BD587
:100C7000266B002E70D0B168202001E04968401E2C
:100C800079B1C2B26AB10A8840F603039A421CBF26
:100C900040F604039A42F1D1F0681822203001F0A6
:100CA000A3FCB0690021B1617168E1B140F00202BA
:100CB000F07F002300F00700012807D0022809D0A8
:100CC000042804BF00224FF0805306E000224FF0BA
:100CD000005302E000224FF08043B6F91C10F06888
:100CE000D6F804C0E047FFF781FC8046E08E401C48
:100CF000C0F30B00E086206BC17F01F07F01C1775C
:100D000004F13000FFF7C4FC00F0EDFBB4F936103D
:100D1000F06800F19402B2F90030994204BF397DC5
:100D2000002919D1917809B9016821B90020907082
:100D3000FFF7E9FC10E0A26B126812F1010F0BD073
:100D4000DFF824261268B1FBF2F17030FFF762FC85
:100D5000F0687030FFF762FC206B002825F0020578
:100D600001D045F00205BDE0A80004F1800840F67E
:100D7000090957D5206CB8B1042001F06FFB98B178
:100D800000F05CFF216C814228BF401E401A000B1E
:100D900000F58D70F06040F2D761A0F2EE2088423D
:100DA00024BF40F6C410F06000202064D6F818C0BC
:100DB000BCF1000F0DD0787B0F21084204BF708C6E
:100DC000484506D100224FF000736FF48071304621
:100DD000E0470022DFF85C18404600F029FEB87EAC
:100DE00050B10220ADF800006846FFF72FF9BDF8BA
:100DF0000800A0830020B876012084F82000F87D48
:100E0000401CF8750020F876192000F014FE776970
:100E10002FB100224FF0806300213046B84725F003
:100E200000555FE0B87F25F0080620B1280702D5FD
:100E30000020B87743E0280743D5002084F820003D
:100E4000012038770020FFF749F90FF2B100DFF8F1
:100E5000E817DFF8D056E0630022404600F0E8FDD6
:100E6000B97E787E81F00101084202D101207876B6
:100E70000FE0A06CF8B100F0E1FE216C626C401A4A
:100E800002EB10306064A16CB0EBC11F13D30020E3
:100E90006064A7F80090787B00F0F00040F001005B
:100EA000787300207880387B00F0F00038730020E1
:100EB00078602F6003E04FF0005100F01AF83546DB
:100EC00010E0A8040ED5A66A002E1CBF706800288A
:100ED00006D0B6F91C10F068766800222023B047CF
:100EE00025F4005515B1294600F003F8BDE8F78355
:100EF000022104F14C0000F06ABD000070B5064606
:100F0000880028D5FFF7AFF8894CDFF83007874D08
:100F1000E063687D18B906F13800FFF76FFBDFF872
:100F20001C1600200860022000F05AFF112000F07B
:100F30006BFF307C10B90E2000F066FF0020A88304
:100F4000287E40B100202876042104F14C00BDE841
:100F5000704000F03CBD70BD30B58DB000F0C1FEFA
:100F6000DFF8DC06DFF8DC460168714D41F0020174
:100F7000016001A8FFF77EFBA078DFF8CC16079090
:100F8000002301AA05F14C00FFF758FB01A8FFF769
:100F900078FB0020ADF81C0001AB2078DFF8982624
:100FA000099019210020009005F18000FFF74AFB0D
:100FB00001A8FFF75FFBE078DFF8901607900023A9
:100FC00001AA05F19C00FFF739FB01A8FFF759FBC7
:100FD0000120ADF81C0001AB6078DFF874260990A1
:100FE0001A210020009005F1D000FFF72BFB002311
:100FF0000022DFF8601605F1EC00FFF727FBDFF8B1
:101000003C06E86301214FF6FF70A8830DB0DFF8BE
:10101000480681760021E9774176C1768183817720
:10102000296430BD2DE9F041404E0446707D8EB0FC
:101030000F4690461D4618B9FFF78EFF01207075C8
:10104000002F1CBF6760B8F1000F47D0C4F80880BC
:10105000FFF7CCFAB17D00293ED10121B175FFF730
:10106000C9FA35B909A80FF22061142201F0BCFABF
:1010700009AD286820606868E060287A2074E86814
:1010800060612869010018BFA061782104F1200087
:1010900001F0D6FA0823242200216846FFF7DAFA85
:1010A00001208DF818006A46002104F13800FFF78E
:1010B000D5FA0823242200216846FFF7A7FA0694F0
:1010C0006B460022DFF8941504F17000FFF7BEFABA
:1010D00020460EB0BDE8F081FFF78CFA0020F8E75B
:1010E00038B5FFF783FA124991F8201031B1DFF8D3
:1010F00074150C68FFF77EFA204632BDFFF77AFAC6
:1011000000F09CFD10F50030DFF85C2541F1000196
:10111000A2FB0045054802FB015501690020221889
:1011200045EB0103184632BD00000000B02E002040
:10113000A02D00202DE9F84F80460C4692469B4694
:10114000FFF754FADFF818558146B5F93400B5F9C0
:101150003610401AC0F30B0008286FF0010648DA79
:10116000A88E401CC0F30B00A886B5F93400ADF87A
:10117000000000207B4901EB4017F97F090604D5E8
:10118000401CC0B20828F5DB002708F1700000F011
:101190002CFBBC6087F81EA0C7F804B02021BDF866
:1011A0000000B883C7F80C80DDE90A23DFF8BC042F
:1011B00010401940C7E9040108F194040020F877B1
:1011C00040F6FF78686A0028394605F1240008D007
:1011D000FFF769FA40B1BDF8000000F061F8484639
:1011E0004BE0FFF760FA48B9A88E4044C0F30B000B
:1011F000A8864846FFF7FEF9304649E0BDF80000F2
:10120000DFF8546400F04CF80020A07095F820102E
:10121000707F084207D00120B07700207077B07649
:10122000F07D401CF0754846FFF7E4F9A86A68BBFA
:1012300095F8200018B1192000F0FDFB26E0F07EA3
:1012400020BBFFF7D3F90446307F10B10120307680
:1012500012E0B868FFF782FAA86488B1A86CA96B9D
:10126000C968401ADFF8C813096805F1EC0600F0F8
:1012700021F83046FFF7D2F92046FFF7BBF905E029
:101280002046FFF7B7F9042100F010F8BDF900007F
:10129000BDE8F28FF6FFFF1F0810044020000E008B
:1012A0002080F87F40F08000F877704705F14C000F
:1012B00000F08DBBB0FBF1F13046FFF7ABB92DE983
:1012C000F04106460F4614461D46FFF7CBF980460F
:1012D0003846FFF705FA070003D14046FFF7C6F985
:1012E0000AE0F87F0721084209D04046FFF7BEF91F
:1012F0000721F87F0842FCD10220002114E0796820
:10130000DFF86C03814202D0796831667860C6E903
:1013100016454046FFF7AAF94FF0FF3106F13800B5
:10132000FFF770F9D6E91A01BDE8F081DCB5DDE917
:1013300006670446CDE90067180008BFDFF83033C0
:101340002046FFF7F7FE002803D500204FF00041AC
:10135000DCBD0146204602B0BDE8D04002224FF07D
:10136000E043ACE770120020E800000000100440E9
:10137000020000400446FFF739B901E042F00202E2
:101380002DE9F843DFF8D842606A009089460327C8
:101390001546FFF72BF919F1010F05F001068046FC
:1013A0000AD1A06A002819BFA06AB0F91C90E08E8B
:1013B00000F101090020E0770FFA89F0FFF790F9BA
:1013C00001007CD0A06A814205F0020525D12800E9
:1013D00003D0606A0090002060620122C87FB240A2
:1013E0001043C877FFF73EF90746002E14BFDFF819
:1013F0008402DFF88402FEF729FE00F074F825B9B4
:1014000006E000F063F800F069F800980028F8D1D1
:101410003846FFF72BF9832753E0009A8A4204F1FC
:10142000EC0016D100F0E1F9280012BF0020606A3C
:101430000068606200F057F8009800F047F800F08C
:101440004DF8009818B32800F6D120E0009A1268F1
:101450000092009AEAB112688A42F7D100F0C5F909
:10146000009800681DB1009A0021116004E0016835
:10147000009A116000210160009003E000F026F85E
:1014800000F02CF800980028F8D100F02CF8832701
:1014900001E000F028F8DFF8C001C17E11B1FFF7CC
:1014A00027FD0EE0007F60B9DFF8D001E063FFF7B1
:1014B0001FFD94F8200020B96048E06301E000F0CF
:1014C00012F83846BDE8F283D0210840C07F009969
:1014D00040F00400C8776846FFF7DAB8014604F127
:1014E0003000FFF7E0B84046FFF784B838B5FFF7A3
:1014F00041FF05465A4890F8200068B12046FEF7A3
:10150000A5FD044600F048F804F0FF00012801D1D1
:10151000812032BD022032BD00F03EF8012032BDF4
:1015200000000000001004400A464D49896B8842C3
:1015300001D0032070470AE0510007060000046054
:101540000A464749896B884201D003207047002131
:101550001046CBE770B542498A6B90426FF07F042A
:1015600012D191F8200078B1FFF740F805464448C1
:10157000FEF76CFD064600F00FF806F0FF000128AC
:1015800002D13002001670BD204670BDEC2D002047
:101590000100070601010E042846FFF72BB870B5BD
:1015A0000E461546FFF722F883242D491EB1022E60
:1015B0000DD004D30FE08A6A3AB1896A02E0264A64
:1015C000927E12B9898B298006E0802404E091F88C
:1015D0002010297000E00324FFF70CF8204670BDAE
:1015E00080B50846FFF77CF800B1806802BD38B5C9
:1015F000FFF7C0FE1A49CA7F520702D58B7F9C4273
:1016000010D001228B8B02FA04F52B438B830C3410
:101610001C490B68A24023EA02020A60096809B962
:101620000D4A1175BDE83240FEF7E4BF040000200A
:10163000E80000008F080000CF090000F109000059
:1016400000200940B0A5000095090000F307000044
:10165000A9070000AB090000B02E002059090000C6
:10166000A02D00200430044000093D00F1EFFF9F51
:101670005D0900000100020401000104290C0000C2
:10168000010003040C100440FFFFFFFFC409000029
:10169000010000000000000093090000DFF800F0E6
:1016A000F5C00110DFF800F049BA0110DFF800F0D2
:1016B00013C10110DFF800F0E5C10110DFF800F000
:1016C000F5B80110DFF800F021B30110DFF800F0E9
:1016D00095C00110DFF800F00DA80110DFF800F050
:1016E000BDBE0110DFF800F021C10110DFF800F0ED
:1016F000A5B90110DFF800F021BA0110DFF800F001
:10170000BDC20110DFF800F0B5C10110DFF800F034
:1017100015B60110DFF800F019A70110DFF800F08E
:10172000D5C20110FEE7DFF89002007D70476EE041
:1017300038B5FFF7FCFFDFF888520446A86800219F
:10174000FFF7C4FF6969081AA969814238BF002000
:1017500084F3118832BD2DE9F041FFF7E8FFDFF88F
:1017600060520446A8680121FFF7B0FF0121A98358
:101770000021E9836E6929682A68871B801A711A1B
:10178000884204D20020A88384F311882BE084F3DC
:101790001188002406E0A61931460120FFF79AFFC0
:1017A0003F1B0446A742F6D2FFF7C1FF8046E88BF5
:1017B000012804D131460020FFF78CFF0446A969B7
:1017C00014F1010F08BF084603D0E01B814238BF67
:1017D00008468119FFF782FF012028840020A88392
:1017E0002E6088F31188BDE8F08100218182DFF846
:1017F000CC11C0684969884204D1DFF8F40100685F
:10180000FEF70CBF7047808A7047704700BFDFF853
:10181000E4110968EFF3118081F31188704700210A
:10182000DFF8D421016012681044FFF747BF38B5D4
:101830000446FFF7EBFF0546207C022808D120462E
:10184000FFF750FF002020742946A068FFF74EFFE5
:1018500000F0D6B803681A4003680B408B4208BFFB
:101860000A4312B1016891430160104670472DE9A7
:10187000F0411F4617F1010F18BF002F92B000F082
:10188000B3F80AD06B463A46DFF8701108A8FFF7A4
:1018900031FF08A80390022002E0002003900320FB
:1018A0008DF8100006950796FFF704FF0290FFF7EA
:1018B000ADFF8046324629462046FFF7CBFF0500A4
:1018C00009D0039818B1FFF719FF0020039088F39F
:1018D0001188284632E01FB988F3118800202DE0D6
:1018E000FFF7DCFE05460299DFF80C01C1F818D0BD
:1018F000694600682044FFF705FF0298FFF706FFDE
:101900009DF81000022804BF0398FFF703FF88F337
:1019100011882846FFF7C6FEFFF778FF04460398B4
:1019200018B1FFF7EBFE00200390002002998861B8
:1019300084F311889DF8100000B1059812B0BDE83D
:10194000F081F8B50446DFF8B00000680E462718AD
:10195000FFF75CFF05462068304320603846FFF7FC
:10196000A5FE10B185F31188F1BDFFF797FE06467D
:101970003846FFF7D3FE0746FA69B9692046FFF7F4
:1019800069FF786160B13846FFF7ACFE012038741A
:10199000F86808B1FFF729FFB8682946FFF7A6FEE7
:1019A00085F311883046BDE8F240FFF77BBE2EE795
:1019B000DFF8540080687047A401002078010020FF
:1019C00078010020616280F311882046704738B5A5
:1019D00004460D46FFF7EBFF616A2943FFF7F2FF6C
:1019E000BDE83240FFF76EBE04460D46164670470E
:1019F00038F80100E4000000EC0000002F1800009F
:101A000085F3118831BD0000C801002010280ED3D5
:101A1000A0F11002DFF83010520901EB82011038FA
:101A2000012200F01F0002FA00F0C1F880027047A6
:101A3000816042607047102804D3DFF80C10103822
:101A4000C1F8000F7047000000E000E000F0FCBDAE
:101A5000FFF7DDBEDFF89811C20744BF01220A601C
:101A6000820744BF4FF480720A60400744BF4FF4BE
:101A7000803008607047DFF87C21C30748BF1160E1
:101A8000830748BF5160400748BF9160704700001E
:101A900010B504460020D4E90A2347F6906101F00E
:101AA000CDF80123994228BF4FF0FF3010BD10B58B
:101AB0000C4600F0B9F8011D201AB0F1004F05D80E
:101AC000081BB0F1004F38BF8C4200D20C462146B3
:101AD000BDE810400120CEE72DE9F04180460A46DE
:101AE000D8E90A01D8E90C45A0FB026701FB02779F
:101AF000A6196F41340C002244EA07414046FFF723
:101B0000D6FFC8E90E67BDE8F081F8B50646FFF7D5
:101B10009FFF0446DFF8E050DFF8E0700120E86145
:101B2000FFF798FFF96A096A142088473069B0F511
:101B3000802F34BF0421010C0120FFF79CFF3A687D
:101B40001268232100209047DFF8B41001200860BC
:101B5000DFF8B400016821F4E02141F48031016034
:101B60000120286084F31188F1BD000000F066B800
:101B700010B5DFF89000446800F006F86069A169CC
:101B8000BDE8104008470000012063E7F8B50446AF
:101B90000D4600F053F8D4E90A6732463B4601F09F
:101BA0004DF83DB1A6FB002306FB013307FB0033D4
:101BB000C4E90C23F2BD10B5DFF83C00DFF84C405F
:101BC000002101600121C16121602068FFF7DCFF75
:101BD000DFF848100968096A14208847206810BD9A
:101BE000000080B500F02AF8000C40EA014002BD78
:101BF00004200940182009400000244384010010FB
:101C000080022443E4010020002009402C200940E8
:101C1000DFF81000C088704700000000B00100101D
:101C2000FEE77047F0010020094801684268036838
:101C30009942FAD1100C40EA0140704710B5044AAD
:101C4000136850681468A3421946F9D110BD00000A
:101C50000820094020B1082324220021FEF7D6BC29
:101C6000704780B50120009009234FF400720021D5
:101C7000DFF8080701F09FF801BD80B500230122BD
:101C80003421DFF8F80601F0A9F800B10120C0B254
:101C900002BDDFF8EC0680687047DFF8E4164018F4
:101CA00090F8ED0070470022022904D1012806D1E6
:101CB00040F2EE2203E0012808BF4FF47A7210468A
:101CC0007047DFF8BC06D0F8DC007047DFF8B006DC
:101CD00090F8E61021B1D0F80C01010018BF0047C0
:101CE00070472DE9F041DFF8988608F1E1058AB0E8
:101CF000A879002861D10120A871DFF88866DFF893
:101D00008876307B68717068C8F80C0101A8FFF70D
:101D1000A1FF00200690ADF81400079001AB00224F
:101D20000FF2F54108F10C00FEF790FC01AB002228
:101D30000FF2A15108F13000FEF788FC01AB002240
:101D40000FF2D94108F15400FEF780FCB168012080
:101D50008847DFF8380600787868C0F38154707BD4
:101D600020B1032C02D10120287003E0032C18BFFE
:101D7000022C16D1022000F09DF8032CDFF810167B
:101D80000CBF4FF47A7042F210700968B0FBF1F1A9
:101D900008F15400FEF73EFC08F15400FEF73EFC4B
:101DA00005E0012C03D100F063FAFFF75AFF386811
:101DB00040075CBF002000F07DF80AB0BDE8F0816C
:101DC00010B508B1140001D1022010BD8160C260BD
:101DD00003610146DFF8A80501F01AF8002010BDE4
:101DE00010B50446FEF702FCDFF89415621892F86D
:101DF000E8305B1E82F8E830DBB223B98A68012341
:101E0000A3409A438A6066E02DE9F0410546FEF75B
:101E1000EDFB8046DFF86815681890F8ED20521E3B
:101E200080F8ED20D2B2002A3FD10FF2A050DFF8A7
:101E3000644500EB85052E786F88300615D521683E
:101E4000096A384688472168896A38468847216880
:101E5000096B38468847DFF8401501200860DFF835
:101E60003C0500688007FAD512E0700606D501EB44
:101E700087010020D1F80011884709E021688969AD
:101E8000384688472168496B384688470228F9D187
:101E900006F03F003F2818BFFFF7B6FF687800F054
:101EA0003F003F2818BFFFF7AFFF4046BDE8F041B5
:101EB000FEF7A0BB10B50446FEF798FBDFF8C01490
:101EC0008A680123A3401A438A60611891F8E820C8
:101ED000521C81F8E820BDE81040FEF78BBBF8B536
:101EE0000646FEF783FB0446DFF89454701990F819
:101EF000ED104A1C002980F8ED2039D10FF2CC40BA
:101F000000EB8607387800F03F003F2818BFFFF746
:101F1000E6FF787800F03F003F2818BFFFF7DFFFAB
:101F20007E883878DFF86C7401060ED53968C96987
:101F3000304688473968496A304688473968C96AEF
:101F40003046884700F019F812E0400606D505EB48
:101F500086010120D1F80011884709E039684969F4
:101F6000304688473968496B304688470128F9D19F
:101F70002046BDE8F240FEF73DBBDFF81C1401200F
:101F80000860DFF8180400688007FAD570472DE96B
:101F9000F04F002483B04FF0000A0128D04618BF4C
:101FA000012664D1DFF8D893D9F8DC0001285DD18F
:101FB0000220C9F8DC00FFF771FB0090012000F05F
:101FC00062F9060054D1FEF74DFBDFF8D8130190FB
:101FD0000C60012000F042FA012804D1002000F03A
:101FE000A7F94FF0010ADFF8C013DFF8B4030C6063
:101FF00000681120FFF751FE08B14FF001081020D2
:10200000FFF74BFE08B148F002080F20FFF745FE2E
:1020100008B148F004080B20FFF73FFEDFF87463B7
:1020200020B13168096B4FF4806088470A20FFF7C0
:1020300034FE20B13168096B4FF481608847DFF8C6
:102040005813DFF86873DFF868B30120086048F0C0
:102050002000316889698847DFF85813012008603B
:1020600099F80800C00707D5012416E0042673E09C
:102070000120C9F8DC006CE0584600F0EBFE054694
:10208000042DF9D0012D04D1326A5268032158463B
:1020900090473868800880003860002000F0E2FE39
:1020A000BF4800683068806B804754B9012D04D167
:1020B000326A5268012158469047386840F0030060
:1020C00038600120B849086040463168496988474E
:1020D0000B20FFF7E2FD20B13168C96A4FF4806040
:1020E00088470A20FFF7D9FD20B13168C96A4FF44B
:1020F00081608847A849012008600020AD49086038
:102100000320C9F8DC003168496B40468847012844
:10211000F9D1042000F0B7F8A24901200860A048D6
:102120000068A54800688006FBD5BAF1000F1CBF07
:10213000012000F0FDF800F0E1FF082000F0A3F816
:1021400006460120C9F8DC000198FEF78FFA00F07E
:1021500059FF0098FFF7A6FA3046BDE8FE8F38B564
:102160000446FEF743FA05462146854800F064FE22
:1021700028464BE030B5002401288BB004D021D391
:1021800003281DD018D31DE001A8FFF763FD7C4D87
:102190008A490694ADF81440079401AB012205F179
:1021A0007800FEF753FA00940023854A2C2105F1AC
:1021B0009C00FEF747FA05E000F0C0FF044601E08E
:1021C00001F062F820460BB030BD00F054B938B5CC
:1021D000FEF70CFA05466A4890F8E000012410B1B9
:1021E000FFF74BFD04462846FEF704FA204632BDB1
:1021F00038B5FEF7FBF9624D044695F8E00020B1D2
:1022000000F080F9002085F8E0002046BDE832406B
:10221000FEF7F0B9000000007047000010B582B072
:10222000042000F01BF9022818BF032807D100F092
:102230001FF8FFF716FDBDE816400220D0E5614803
:10224000534900684E4CC0F3815003280CBF4FF433
:102250007A7041F288300968B0FBF1F104F1540062
:10226000FEF7D8F904F15400BDE81640FEF7D6B9E0
:10227000032000901C234FF0405200213F4800F003
:102280009ABD0020704770B504463D4E304600F0C0
:10229000B5FD002598B9304600F0B6FD0646B06899
:1022A000204207D03269F36800212046984705464E
:1022B000012D05D0304600F0A9FD0600EFD12846DB
:1022C00070BD414901280CBF40F2FF70002008603A
:1022D0000020704770B5FEF789F9294E294D044654
:1022E00096F8E00028B100F00DF968B1002086F8FA
:1022F000E0000220AD68A84706461020FFF7C3FFA4
:102300008EB10320A8470EE0214909683220B0FBB6
:10231000F1F101B9012106F13000FEF77BF906F178
:102320003000FEF77BF92046BDE87040FEF762B949
:1023300038B501281ED100F091F801281CD000F01A
:10234000D7F80F4C1249012084F8E00032200968C8
:10235000B0FBF1F505B9012504F13000FFF745FAAE
:10236000294604F13000FEF755F904F13000FEF77C
:1023700055F901E000F0E8F8002032BD00A00C4063
:102380003011002034A60000B03F00507E31002004
:10239000E8000000B801001028200860282008404C
:1023A0002C2009400C40094000022243242208400E
:1023B000004003408001044314100940C53300006D
:1023C00095310000B43F0050000004608F3F0000D2
:1023D0008F3F01008F3F02008F3F0300903F0001BD
:1023E0008F3F0101903F0002903F00038F3F0104A7
:1023F0008F3F00058F1208048F3F00048F3F0006B7
:10240000513F00007F3F01003F3F04003F3F02007B
:102410003F3F01007F3F020070B50446E00782B0F5
:102420000D46624E05D5A8B200900023012200F0AF
:1024300011F8A00705D5A8B200900123022200F0F0
:1024400009F8600705D5ADB2009502230C2200F013
:1024500001F873BD0021304600F0ADBC01460429EF
:1024600007BF1D234FF0C0421C234FF080524F483E
:10247000342100F0B3BC38B50546FFF7D5FB4C4C12
:10248000A168401A4FF47A71484305EB104501F0FA
:102490006FF82169401A48BF404240F6B9318D4279
:1024A00007D2062805DAA068E168814201D32268D4
:1024B0005AB940494A68D2074FF4FA6017D40868FD
:1024C00000F0FF007D21484308E0081A3A494843DC
:1024D000000C00EB9000904238BF1046C82801D293
:1024E000C82032BDB0F57A6F88BF4FF47A6032BD34
:1024F00080B501210320FFF78FFFFFF795FB2C49E3
:10250000886001BD80B50120FFF7A8FF012819D020
:10251000002301223421254800F060FC98B100F02E
:1025200026F8FFF781FB22498B680A68C860A2EB96
:102530009202C01A204B5843000C0860904238BFEA
:1025400010460860012002BD10B500210320FFF7EE
:1025500063FF0120FFF782FF08B100F008F8144C78
:10256000FFF762FB606001F003F8206110BD1348C3
:10257000006801F011B810B511490A6811490968DD
:10258000140424161B384443E41004EB22441206BE
:1025900000FB00F3121609065A435843091604EBD0
:1025A000A222484302EBA04010BD000000A00C4056
:1025B0004C310020AC3F005040420F008000001022
:1025C00090130050A410005062B38B0708D0521E25
:1025D00011F8013B00F8013B00F024808B07F6D195
:1025E000830740F0208000BF103A07D330B4B1E831
:1025F0003810103AA0E83810F9D230BC530724BF85
:10260000B1E80810A0E8081044BF51F8043B40F8B6
:10261000043BD20724BF31F8022B20F8022B44BF21
:102620000B7803707047083A07D3B1E80810083AEE
:1026300040F8043B40F804CBF7D25307E4E700002E
:10264000002200F0C5BF000010B5DFF824050468C3
:1026500014F1010F08BF002401F03CF8DFF8141555
:10266000002008600120DFF810150860DFF80C1565
:10267000086000F04CFADFF80805006828B1DFF8C0
:1026800004050068204600F022F8DFF8FC14DFF8AB
:10269000FC2400200860DFF8F80401686FF31B4198
:1026A00011430160DFF8EC040168C1F30131012935
:1026B00007D10168DFF8E024114041F400320260E4
:1026C0000160DFF8D80400680028FAD110BD70B5A9
:1026D0000546DFF8CC0401210160DFF8C814096861
:1026E0000029FAD0DFF8C044DFF8C024C0212160FF
:1026F0005368DFF8BC149B075DBF13681B0C43F0E5
:10270000F00372230B70002101639668304600F0DD
:1027100031F83146284600F061F8DFF89804816D01
:1027200089B240F20F22914214D201680068C1F3CD
:102730000361C0F3034001B1491E072805D00628F4
:102740000EBF0720801C00F00F0041EA0010DFF8E8
:1027500068140870304600F0B2F8DFF860140968B9
:10276000C96802208847402020600120DFF850140B
:10277000086070BD10B50446DFF848040068C0F377
:10278000046000F0C0F92117491C08181628A8BFDA
:10279000152004DA6FF009018842B8BF084600F03E
:1027A0001F00DFF8241440F4F8500880DFF81C0400
:1027B000006880074FBF44F040640020DFF8101429
:1027C0000860DFF81004C4F3C06181F0010101600A
:1027D000C4F3806181F00101816010BD70B50546D0
:1027E00082B0084600F0F0F80246DFF8EC4318210A
:1027F00000F062F800F014F980B20090002340F27B
:10280000FF322C21204600F0D6FADFF8D063F068C2
:10281000C0F30D021C2100F04FF8706800F0FC328C
:10282000142100F049F83068DFF8B413DFF8B4631E
:1028300001EA0002102100F03FF8284600F0FAF803
:1028400002460C2100F038F8284600F01EF940003E
:1028500040F020003072284600F020F940F01000CF
:102860003072284600F023F90246282100F024F8AF
:10287000284600F001F9400040F06000F072284660
:1028800000F02FF9C00040F080003070284600F0C2
:1028900031F98000DFF8501340F47C40088028466E
:1028A00000F012F90246082100F006F8DFF83C13A8
:1028B0004FF48000086073BD204600F077BAF8B589
:1028C000810C01F003010129C94CC84D02D0022935
:1028D0002AD026E0216A8A0323D44FF480422A605A
:1028E0006FF08F06C34AD2F8023033404E0A06F02A
:1028F00080063343C1F303363343C2F80230C1F3D9
:102900000326D2F801301B0946EA0313C2F801304E
:102910006FF0E7061368334001F0E70119431160D7
:1029200002E04FF000412960B34EB44AB168090794
:102930005CBF4021A9624FF400712964800D216AB7
:10294000C90C01F0030141F0300110F003001170D7
:1029500003D0022826D008D326E001210420FFF767
:102960005BFDA74800F0F4F822E00120FFF776FDB8
:10297000074639460420FFF74FFD0420FFF76EFDA0
:10298000B842FAD1366826F07F4000F0E1F89D4B5E
:102990001B681B684FF060220721300E98474FF4E8
:1029A00080602860032100E002210420FFF734FD4D
:1029B0002068954900F03F00087047F618009349D9
:1029C000088093480068F1BD92490968C1F38362A9
:1029D0008303C1F38F2120D4000400164FF6FF7348
:1029E00007E0490804D11946520804BF0122012119
:1029F000401C0028F5D401280FDB490041F00101FB
:102A0000B1F5803F21BF0121520042F00102102A9E
:102A100024BF0F221946401EEDE741EA02407047ED
:102A20007C48016800680002C1F3870100F440702F
:102A30000843704730B55D4C77490A686568ED0713
:102A4000C2F30351C2F303430AD42468250501EB02
:102A50002571240481F3040103EB247383F304033D
:102A60001B0443EA015193B21943222824BF02F008
:102A700080400143084630BD0021202803D3674829
:102A80000068C0F30151084670470121222803D392
:102A900063480068C0F3007108467047012122288E
:102AA00003D35F480068C0F34071084670470021B7
:102AB000202807D359480068C10C01F44071C0F3C5
:102AC00084500143084670472028564907D353488D
:102AD000554A0068810A02EA003040EA81510846FE
:102AE00070470021222803D34D480068C0F3C0611D
:102AF000084670470021222803D349480068C0F3E4
:102B00004551084670471628A8BF2038704723480B
:102B100000680028FBD14548454A41681268890889
:102B2000890041F0005141F00401520748BF41F0D3
:102B300001010BD4026812F0030F07D041F0030229
:102B40004260026802F00302032AFAD14160704732
:102B5000384982B20A60C0F30740486001208860AB
:102B6000354800680028FBD00020886070470000CE
:102B70001C130050840460425C600C400822044333
:102B800080012843000120438C21084000003901C6
:102B90004820034004000940FFFFFCFC0C00684291
:102BA000101009409402224300600C40AC3F0050DA
:102BB00056620840BC12005002600840A00100109C
:102BC00094046042B81200506E6208400000094050
:102BD00094042A430000204300A00C4070130050CE
:102BE000FFFFFC0041A10C40DCA10C4040A00C40C8
:102BF0006C1300500A600840A83F005008A10C4028
:102C0000BD378600B40100100BB00C4070B00C4012
:102C10002C20094050130050781300509813005096
:102C20008C13005000803F4000F03F000040034004
:102C3000B03F00503C600C4084088C431B4213D1D1
:102C4000094236D12AB18446B0FBF2F002FB10C231
:102C5000704700F049BDFCD30022002370470B00F1
:102C60000200002100207047904271EB030CF6D364
:102C700070B5B1FA81F4B3FA83F52C1BA340C4F10B
:102C8000200532FA05F63343A2405FF00046E640E5
:102C900002E05B085FEA3202841A71EB030524BF8D
:102CA000204629467641F4D302000B003000002173
:102CB00070BD012ACFD970B5140C20D0B1FA81F4BF
:102CC000B2FA82F5C4F120046419B4F12006D6D317
:102CD000B2405FF00044F440002502E052085FEA91
:102CE0003303C61A71EB020E24BF304671466441AD
:102CF0006D41F3D302000B002000290070BD0C468B
:102D0000B1FBF2F102FB11452D0445EA1045B5FB7C
:102D1000F2F402FB145580B240EA0545B5FBF2F02F
:102D200002FB105240EA044070BD000070B504463A
:102D30000D46164600F0DEF9401E8041C00F1A49CC
:102D40000A68002AFCD0012E02D0022E02D003E035
:102D5000257002E0258000E0256001220A6000283D
:102D60001CBFBDE8704000F0C9B970BD38B504465D
:102D70000D4600F0BFF9401E8041C00F0A490A68A5
:102D8000002AFCD0012D02D0022D02D003E02478CD
:102D900002E0248800E0246801220A6008B100F003
:102DA000ADF9204632BD000000800C400B461146B4
:102DB00004221818BAE710B500EB4100102B144696
:102DC00000F5007002D3103B001D240C02999940BD
:102DD00041EA0441BDE810400422A7E738B51D468A
:102DE0000818102D144602D3103D801C240C02211B
:102DF000FFF7BCFF204080B2E84032BD00680028E9
:102E00000CBF0120002070470068704700687047C1
:102E100038B504460D4600F068FC00212960616861
:102E200069606168002914BF0D6025606560FFE777
:102E3000BDE8324000F05BBC0B684A68002B0CBF59
:102E400042605A604A680968002A0CBF016011603C
:102E500070470000006801074CBF042000F0030029
:102E6000704700002DE9F84F06469348934C0068E0
:102E7000934D800704D50820A87192482060BFE0D8
:102E800000F076FB8046904800680090002700170D
:102E900000F101090098800208D4C8F13E00C0107A
:102EA0000928A8BF08208145B8BF81468748006827
:102EB000C0F30460FFF727FE824685480068C0F330
:102EC0000440FFF720FE09EB0A011629A8BF1521CF
:102ED00004DA6FF009029142B8BF114601F01F02F7
:102EE0007C4B42F4F8521A807B4A126812F0030FAE
:102EF00018BF0127520748BF47F002070EB147F03D
:102F0000040795F90720A8EB0202052A02DAAA793C
:102F100097425DD0A8F10F0C0026BCF1000FB64619
:102F200007F0010207F00403DFF8B09123D40CEBA3
:102F30000C1C4FEA2C2EBEF1080F28BF4FF0070ED5
:102F40007646072E28BF062609EB860A59F8266022
:102F5000DAF804A0AAEB060A0AF0FF0613B1CAF3D6
:102F6000072B5E445FEA877B44BFCAF3074B5E448E
:102F70000AB106EB1A6659F82E9009F0FF0A13B150
:102F8000C9F307239A44BB0744BFC9F307439A44D4
:102F90000AB10AEB196A401AACEB0E220099AF7124
:102FA000724380320128B8BF0120342301F0FF01B1
:102FB00058430AEB12224843B0FBF2F0B0F5803FD1
:102FC00028BF4FF6FF7008F30708A88085F8078030
:102FD00043480068A988286000201F2904D21F21C7
:102FE000A98004E04908401CB1F5007FFAD20F39EE
:102FF000090940EAC1003B490843206000206060A5
:10300000BDE8F18F10B53848006884B21CB300F0F9
:10301000AFFA2B4991F90720904205DA6FF07F0251
:103020009042B8BF1046C8718888844201D28C8013
:1030300010BD2B4A12680B68D21A921C202A28BF96
:103040001F22231A5208D3401818B0F5803F28BF1A
:103050004FF6FF70888010BD2448026802B970479F
:1030600010B5234B996801F04060B0F1406F21D05A
:1030700011480468A4071DD45C68A4071AD4046826
:103080001B68C3F303531C331B0114F0050F06D058
:103090009A420FD26FF005012140016010BD9342AA
:1030A00008D20A0158BF44F00104490158BF44F056
:1030B0000404046010BD0000000009403010094005
:1030C00060310020FDFDA400B43F0050B812005054
:1030D0003C1100506E620840242208409C130050AE
:1030E0000820094000E7A480341009402850094016
:1030F000AC3F0050EFF3108072B67047EFF31080D2
:1031000062B670470138FDD170477047DFF800F0B4
:1031100099C8011010B50C18FFF7ECFF401E804154
:10312000C00FDFF8F0130A68002AFCD024680122DF
:103130000A6008B1FFF7E2FF204610BD38B5DFF89E
:10314000D843DFF8D8132078897B002508430AD0BC
:10315000FDF74CFAA178002906BF0121A1700125D5
:10316000FDF748FA0DB1002032BD0220FEF7A2FEA5
:103170000E20FEF7B4FEDFF8A803016809B10120B4
:1031800032BDDFF8A023402111600121C161002080
:10319000607032BD70B5DFF88C0382B00021016031
:1031A0004821C160DFF8800300F1D804A17A00292A
:1031B00068D00129DFF8742329D110684BF2F5217A
:1031C0004843050ADFF868030068C0F3814001281E
:1031D00006D100F0CDF9FFF7CEF9684305EB905525
:1031E000607B10B10020607305E0D24800680002E7
:1031F00015EB10204508D0480560290C41600121DD
:103200008160C648807B00283AD0052039E0022939
:1032100009D11568284600F0FDF8A5F2FF500328F3
:103220002ED308202DE003292CD1116800F1B80518
:10323000A1F5C0612868E961002848BF4042002923
:1032400048BF49428842A8BF002018DA6868BB4ED0
:1032500080B2009008234FF47F4230213046FFF7C0
:10326000AAFDA86800F072F904213046FFF7A3FD1B
:10327000A86900F071F93046FFF79DFD012020702C
:103280000B202073BDE873402DE9F041A64CDFF818
:10329000AC82AB4FAB4EA34804F1E10582B0E978B4
:1032A0004A1E0B2A00F28080DFE802F00622334635
:1032B0005B33465B3346636EA34909680968202087
:1032C00088470F20F860072341F61D5038614FF4FE
:1032D000C0720220009000F070F807234FF4C07213
:1032E00000214046FFF77AFD01203060022044E0D3
:1032F0000120F861287800281DBF002030610320DC
:103300000620E87003203860002070607068800735
:1033100034D4E878032804D1022000F04BF80420CC
:1033200007E0002000F046F8E87806280CBF0720E8
:103330000A20E87001201AE0042903D12021B96194
:10334000012105E00122BA610A290CBF03210221F3
:103350006970002139600821C16001600120386076
:1033600026E005290CBF06200920E87000207060C7
:1033700004E00020306070600C20E87004F17800F8
:10338000BDE8F641FDF74AB900210160012064491A
:1033900008600E20FEF738FD0220FEF721FD012017
:1033A000E8700020A87003E0BDE8F341FFF7AEBE6F
:1033B000BDE8F38100900523602200214046FFF71D
:1033C000FABC000080B558495E4891F8E410891EA7
:1033D0000A291AD8DFE801F0060A0E190A0E190A9E
:1033E0000E19120001688907FCD510E041688907B1
:1033F000FCD40CE041688907FCD508E00168890726
:10340000FCD441688907FCD401E0FFF77FFEBDE8EA
:10341000014039E7F8B50746484C30212046FFF710
:1034200079FE414E06F1B805C0F30720686004211B
:103430002046FFF76FFEC0F38440A860202120469D
:10344000FFF768FEC0F38120A861B7F5C06028606F
:1034500002D186F8D800F1BD296996F8D8202AB99A
:103460006A68A968EA60E861AA696A61E86900288F
:103470004CBF6FF00102022200EB40001018421016
:1034800000EB927001EBA0006968E960012810DA96
:103490006A69032A04D1153001281DDA01201BE0D6
:1034A0000B300128B8BF0120491E48BF0021E96048
:1034B00007E01F2812DB6A692AB915381F28A8BF40
:1034C0001E20032109E00B381F28A8BF1E20491C1D
:1034D0004029A8BF3F21E9600021696128610823D4
:1034E000E86880B200904FF47F42302100F03CF851
:1034F0000120009011234FF4003200F034F82869C5
:1035000000F024F800F02FF8686900F025F800F0CA
:103510002BF8F1BD00800C401112002034A60000F1
:1035200004800C402C500C403011002008400C400E
:10353000B43F0050102009403C600C4000A00C40FB
:1035400000400C4034600C40A001001080B200909C
:1035500012234FF4F802704780B200900A234FF410
:1035600040622021704704212046FFF724BC000060
:103570000748084A81681278006852B2A0F5407086
:10358000C9035043C913A1EB2010803000127047CB
:10359000285009400C13005070B50446FFF7AAFDEF
:1035A000451EAD41ED0F074E30680028FCD0A04706
:1035B00001203060002D1CBFBDE87040FFF79EBDAC
:1035C00070BD000000800C4062F30F2262F31F42C6
:1035D00000B500BF130096469446103928BFA0E8F6
:1035E0000C50FAD85FEA417C28BF0CC048BF40F8B5
:1035F000042BC90728BF20F8022B48BF00F8012B75
:1036000000BD000030480068000C00F007000528ED
:1036100028BF4FF0FF3070472C490A68C2F30F32C1
:103620004BF69A139A424FF0FF3006D10868000F0C
:103630000B280CBF0420002070474BF6BE118A42B5
:1036400001D1012070474BF641318A4201D103205C
:1036500070474BF620318A4208BF022070470000B5
:103660001A48F8B50068050F1948006800F0FF0611
:10367000802E28BF0026FFF7CFFF04284FF0FF342D
:1036800006F10A071DD8DFE800F003121A1A1B0022
:10369000012D12D0032D06D0072D06D0082D08BF0E
:1036A00006F116040DE014240BE0152409E025B101
:1036B000022D08BF06F1140403E00A2401E005B955
:1036C0003C4660B2F2BD0000941200501813005046
:1036D000A010005080B5FFF79FFF20B9FFF7C0FF93
:1036E000162800DB01BDFEE77047FCF77FBFFCF743
:1036F00081BF0000DFF800F0D9C10110DFF800F051
:1037000025B10110E0B50821ADF8001001900421A9
:1037100000F00FF808B100200EBD02980EBD00B5F4
:1037200083B00821ADF800100190052100F001F8E8
:1037300007BDADF802106846DFF8DC1909680847D4
:1037400000B58FB008233C2200216846FFF7D2FF66
:10375000DFF8C80900F15001079100234FF4C87148
:1037600008916A46022106910FF20901FFF7C6FF90
:103770000FB000BDFEB500F0DCF80120DFF898497D
:10378000DFF89C592168DFF89C69ADF802006846B3
:1037900088479DF8040028730298E86105F17800D5
:1037A00000F02DFD286200230220019043F69822AC
:1037B0000020009005F130000FF6051100F0D4FC58
:1037C00000208DF800006A46012140F20D4001F012
:1037D0000DF84FF0FF3000F0AFFE4FF0FF3000F07B
:1037E0007EFE01F0E5F901F051FA01F06DFB0FF2F8
:1037F000F16001F072FA0FF2F16001F08CFB002031
:103800000190009000234FF47A720FF6ED0105F15C
:10381000840000F0A9FC3BE0A87501F0D3FD288BE3
:1038200081070CD54FF6FD7108402883687B062878
:1038300005D101F086FA05F1300000F0B9FC288BC3
:10384000010725D54FF6F77108402883A87B00288B
:103850001CBFA87D00281BD0287D6A7D904211D016
:10386000401C0B2190FBF1F10B2202FB110028758B
:103870000C21287D4843304482784178C31C00786D
:1038800000F060FB287D697D884201D000F0F1FAEC
:1038900000F04FF80A20ADF802004FF0FF30019021
:1038A00068462168884798BB00F043F80920ADF8C6
:1038B00002006846216888479DF80610029F10BBE9
:1038C000BDF80400102801BF287B81423878B02859
:1038D00004D1397907F1080000F0FFFF9FB100F033
:1038E00028F80320ADF80200019768462168884750
:1038F00009E0286A00F0AEFC070004D000F0E5F90A
:103900003846FFF70CFF286AFDF7D0FE0028F0D0FC
:10391000288B410783D54FF6FB7108402883687BCD
:10392000062805D1E87B00283FF476AF00F0A6F921
:1039300075E70820ADF80000704780B5DFF8E807AC
:1039400001F028FDBDE802400FF2E87000F088BDEC
:103950001CB5DFF8CC47A162E06200281CBF0268FA
:10396000002A0AD00420019000230020009004F1D6
:1039700054000FF24D7100F0F7FB13BDDFF8A027E4
:10398000516290747047F8B516460A2E04460D46EB
:103990001F461CDADFF88807417B06290BD1817BA3
:1039A00069B1017D407D814209D12946204601B09F
:1039B000BDE8F040C6E2022918BF00F075F93B46A9
:1039C00032462946204601B0BDE8F04012E3F1BD81
:1039D00070B5002490BB79BBDFF84457697828782C
:1039E00000F098FA06001AD0A9780A290ADA00220B
:1039F00000E0521CD3B28B420CD2D2B2AB18DB78AF
:103A0000002BF6D0E81C01F0DBFFA9783088EA1C17
:103A100000F0CAFA00200021002207C50C3D687B97
:103A2000062808BF01F0CEFCAC820022002140F243
:103A3000094000F0DBFE02E0182400E002242046EA
:103A400070BD00220128DFF8D83602D0022802D04B
:103A500004E0587B00E0587C087000E00222104629
:103A600070470A460146DFF8B806408B00F001BDFA
:103A7000F0B583B048681446027840781D460026A9
:103A800002EB002708980300BFB242F64B2203D096
:103A9000974227D00B20FEBD42F64D239F421CBF0C
:103AA00042F622239F4207D042F632239F421CBF98
:103AB00042F633239F4213D1488900F016FA08B921
:103AC000288049E0019400950123DFF85446A46A58
:103AD000417A007A24683A46A04706003ED13BE08E
:103AE000974214D1DFF8442613781F468446674571
:103AF00038BF072632D3099AA3EB0C039A42A8BF1A
:103B00003A1A2A80C8682A8800EB0C0107E042F6BE
:103B10004A20874207D1042028800422C968204611
:103B2000FEF752FD18E042F6081087420DD042F62B
:103B30004E20874205D101202880C8680078207077
:103B40000AE042F60710874206D102202880C868A2
:103B5000017821704178617000F090F83046FEBD28
:103B60002DE9FE430F460A991646002409B10B20A1
:103B700033E07968DFF8A8950A784978D9F82850B1
:103B800002EB01211FFA81F842F64D2188451CBF46
:103B900042F63221884510D1788900F0A6F9C8B1E3
:103BA00002A9009101960023417A007A2C684246CE
:103BB000A047044620000FD10CE042F64C21884576
:103BC0000FD1012B58D13078010008D0012851D1F4
:103BD0006968884700F052F82046BDE8FE8300205F
:103BE000F6E742F60211884531D101210191009496
:103BF0003246BDF80830394601F063FF0400D9D1E0
:103C0000307871787A8999F8123000EB0121D9F86F
:103C1000240001E05B1E0C30DDB2002DDAD04568D7
:103C2000002DF7D06D899542F4D10028D2D00196AD
:103C300089B2D9F82850012902A900910CBF0223AA
:103C40000323417A007A2D684246A847C2E742F62C
:103C50004E208045BED1012B0ED13078010018BF17
:103C6000012807D1F96808703078002814BF0320B4
:103C70000220ADE78024AFE70D24ADE7DFF8A00414
:103C8000C16A29B1096800291CBF543000F090BAFC
:103C90007047DFF88C04C16A29B1096800291CBF8C
:103CA000543000F0A3BA704780B500F0FCF948B179
:103CB0002021062000F04AFD3021072000F046FDBB
:103CC0000521D8E100F0CDF901BD70B50546DFF85A
:103CD00050642888012806D0102808D020284AD00F
:103CE000402818D070BDA878BDE8704063E0A9787E
:103CF000012908D1707B062852D106F13000BDE8B9
:103D0000704000F055BA02294AD106F13000BDE8F2
:103D1000704000F06BBA6868AC780278200002D17D
:103D20000120F07313E0012C06F1840006D100217C
:103D3000F17332745AB900F034F808E0022C08BF6D
:103D4000002A04D100F02DF8708B01F0E7F8B16A79
:103D50007474052049688847307D717D88421CBF96
:103D6000B07B002818D0308B40F008003083F06919
:103D7000FCF744FC10E06C68B16A637A227AE08850
:103D800031B18E68310003D001462046B04703E0D0
:103D90000022002100F06DFB6868BDE87040BEE4C1
:103DA00070BD0121B1734FF47A7100F003BA01467E
:103DB000002201208BE170B50446062C82B040F24F
:103DC0000536D74D15D100208DF8000005F11A01F8
:103DD00040F20E3001F04EFA0020A87300F050F8C7
:103DE000FFF74CFF287D697D88423CD000F041F808
:103DF00039E0687B062836D1FFF74BFF0020E881C9
:103E00000120CB490870FF206874002100200022A7
:103E100007C500F048F90C3DC0B1E86A0079800799
:103E200014D54FF4C861062000F090FC4FF4C8612F
:103E3000072000F08BFC0021012000F087FC00F03F
:103E400029F901208DF8000000F01AF8A96A4968E4
:103E5000052088470120E874287C042803D100F05D
:103E600000F9002028746C730420A96A4968884707
:103E700073BD288B40F008002883E869FCF7BEBBBF
:103E80006A460121304601F0B1B838B50C461546F6
:103E90000120FFF737FC020005D015702146BDE870
:103EA0003840402013E131BD2DE9F04180460D46F8
:103EB00016461F460A20FFF725FC04000CD00622F8
:103EC0004146FEF781FBE580267267722246BDE817
:103ED000F04100212020FAE0BDE8F0810000000060
:103EE000014600221020F2E0704710B58C4A516A5A
:103EF000927C01E0521E0C31D3B24BB10B8883424D
:103F000001BF8B7A8A4C2478A342F3D1084610BDB6
:103F1000002010BD30B5824B5A6A9B7C01E05B1ECD
:103F20000C32DCB264B1147A844204BF547A8C42FD
:103F300001BF947A7E4D2D78AC42F0D1104630BD51
:103F4000002030BD2DE9F84304460D4690469946C1
:103F5000FFF7E0FF060025D07068714FC068016868
:103F6000788B01F0D6FDC0071CD5F87C40B107F175
:103F70001302012140F2193001F038F80020F874E2
:103F80004A463088414600F00FF840B93C707D70D9
:103F900087F8028042464946F81CFEF715FBBDE84B
:103FA000F1436BE6BDE8F183F0B55D4F83B00446A5
:103FB0000D461646788B00232A461B2100F07EFC16
:103FC0000190A0B10198ADF80040ADF802502A462A
:103FD0003146FEF7F9FA788B0022694600F01FFBA4
:103FE000040005D01B21684600F077FC00E0132494
:103FF0002046FEBD2DE9F04104460D461646984682
:1040000000F051F858B3464F787D411C0B220B202D
:1040100091FBF2F200FB121179753A7D797D9142A4
:1040200006D1521C0B2392FBF3F300FB13203875CF
:104030000C223C4851430844047045708670324657
:104040004146C01CFEF7C0FAB87B40B1388B40F047
:1040500008003883F869BDE8F041FCF7CFBABDE845
:10406000F08180B53021062000F070FB5021072040
:1040700000F06CFB3C21012000F068FB00F00AF826
:1040800001208DF800006A46012140F2053000F061
:10409000ADFF01BD00208DF800006A46012140F20D
:1040A0000D3000F0A3BF80B500208DF800006946F8
:1040B00040F20E4000F0B5FB9DF8000002BD00008C
:1040C00017490A8B10430883C869FCF797BA70B583
:1040D00004460D4616460820FFF714FB50B1048035
:1040E000857046600246BDE870400D4BD969186A7C
:1040F00000F08CB870BD0000094801218175427D37
:10410000017D914206D0018B41F008010183C06915
:10411000FCF774BA70470000BC0C0020C0210020DE
:10412000FC090020A0230020A40A00205C1200202B
:1041300060120020A93E00008B3E0000DFF800F076
:104140002DBF0110DFF800F011BF011000B583B0E2
:104150000821ADF8001001900521ADF80210684665
:1041600043490968884707BDF0B589B004460D4644
:1041700016461F460823242200216846FCF746FA0B
:104180000F983C49096806906B464FF47A70B0FB73
:10419000F1F101FB07F0059001FB06F20E98ADF876
:1041A000100029462046FCF751FA204609B0F0BD20
:1041B000FCF734BA38B504460D46FDF724FB10B1C0
:1041C0002046FDF712FB00F013F800FB05F1204636
:1041D000FCF720FA2046BDE83240FCF71FBA80B554
:1041E000FDF711FB00B10120C0B202BDFDF7FDBA21
:1041F000204909684FF47A70B0FBF1F0704710B5B0
:1042000004460021FDF75AFA204610BD70B584B06F
:1042100004460820ADF800000D460420ADF8020069
:104220000C2013490968019016466846884758B91A
:10423000029949B18E602046FFF780FF15B12846EC
:10424000FCF7DCF9012003E03046FFF77FFF002098
:1042500004B070BD10B50446FFF774FFA04204D04F
:104260008468FFF773FF204610BD002010BD0000DA
:10427000BC0C0020E8000000E0B50821ADF80010FB
:104280000190022100F00FF808B100200EBD029845
:104290000EBD00B583B00821ADF8001001900321D8
:1042A00000F001F807BDADF802106846DFF83813DA
:1042B000096808471FB5ADF806108DF804000824FA
:1042C000DFF824138DF808200393ADF80040ADF813
:1042D000024068460968884704B010BD30B585B013
:1042E000144608220291ADF800201922DFF8F812D6
:1042F00009680190ADF802201D466846884714B150
:10430000BDF80C10218015B19DF80E102970089A87
:104310000499116005B030BD00B583B00820ADF838
:1043200000001A2000F015F810B99DF804000EBD29
:10433000FF200EBD00B583B0ADF800008DF806106B
:10434000002000F006F810B99DF807000EBDFF2010
:104350000EBDDFF894120968ADF802006846084700
:1043600050B110F1040F01D10420704710F1030F78
:1043700001D102207047012070478123037042EA77
:10438000C111002341F47C41C370818070478223B6
:10439000037081800023C370827170473EB504466C
:1043A0000820ADF800000D462020ADF802001020D6
:1043B000DFF834120968ADF804006846884720B970
:1043C000029810B16FF004003EBD0095002300225A
:1043D00021464FF0FF30FFF781FF3EBD10B582B0A0
:1043E0001446CA78012A03D18A88DFF800351A807A
:1043F00000F010F858B9009069462046FFF7CEFF4C
:1044000028B900984478FFF744FF204616BDFFF70F
:10441000A7FF16BD0B46022210214BE738B51C46FC
:104420001546FFF7F7FFC0B9009069462846FFF729
:10443000B5FF90B900984578280002BF0098C07970
:10444000A04205D10098816804982246FEF7BCF886
:104450000098FFF71EFF284632BDFFF781FF32BDEF
:1044600038B500F007FA050002D00422012157E018
:1044700031BDF8B500F0CFF907000AD0132200F0E3
:104480002CF800F072FB3946BDE8F840DFF86024F4
:10449000A4E70420F2BD2DE9F04100F04DF907003A
:1044A0000FD0142200F019F83C72FD603E8287F8AC
:1044B0001280FFF731FF3946BDE8F041DFF83424C0
:1044C0008CE725E038B500F028F8050004D0152267
:1044D00000F003F82C8126E031BD012157E70022CE
:1044E00004216CE02DE9F04100F026F907000FD01F
:1044F000022200F010F8BC60BD81BE73C7F81080C6
:10450000FFF70AFF3946BDE8F041DFF8EC2365E725
:104510000420BDE8F081042139E704460A20ABE617
:10452000FFF735FFAC60FFF7F7FE2B4601B0BDE8A3
:10453000304002221021BDE6002203213FE000B5F9
:1045400083B00FF24903019306230093032300F085
:104550004DF80EBD1078802802BF508840F27F6170
:10456000884208D19088984202BF91790098814290
:1045700001D1012070470020704710B582B0062499
:10458000FFE70094FFF7E6FF16BD00000323F4E702
:104590001078802802BF508840F27F6188420CD199
:1045A0009088032818BF042807D1907901001CBF08
:1045B0001028112801D10120704700207047F8B55C
:1045C00000F048FA07000CD032462946FFF7DFFE1C
:1045D000BC60FFF7A1FE3946BDE8F840DFF81C23B8
:1045E000FCE60420F2BD0000BC0C00202DE9F041E7
:1045F00000F02BF807000AD0069A4146FFF7C7FEE5
:104600003C817D8100F0B3FA079A00F050BA7FE751
:1046100004460D460C202FE642460321ADE670B558
:1046200082B000F082F9FFF777FE1B21009103466C
:1046300032462946204600F027F976BD10B582B0F3
:104640001D24009400F020F916BD04460D461646C0
:1046500098461020FFF710BE2DE9F04180460D4628
:1046600016461F461820FFF707FE040014D000224C
:1046700000F069F800F043FA20726572A672E760F4
:104680000698206107986061FFF746FE2146BDE865
:10469000F0410FF20D32A1E63AE70FF20933112291
:1046A000002146E10FF201331222F9E7F8B500F0DC
:1046B000E5F807000FD00A2200F045F800F00DF8E9
:1046C00038727D813E73FFF727FE3946BDE8F8401A
:1046D0000FF2D92282E60420F2BD21465020FFF7D6
:1046E00029BE0FF2CD23062234E12DE9F0418046A8
:1046F0000D4616461F461020FFF7BEFD040011D0E0
:10470000072200F020F800F0FAF920726572A67214
:10471000E760FFF701FE2146BDE8F0410FF2952268
:10472000FFF75CBEF4E60FF291230822002111E1AD
:104730000FF289231022E7E004460D4616469846FC
:104740001420FFF799BD0421FFF717BE70B5FFF7DE
:104750005FFF06000BD03022FFF7F5FF00F009F8ED
:104760003146BDE870400FF25922FFF737BE0420F2
:1047700070BD34817581FFF7CFBD30B583B004467D
:104780000020ADF8040000F013F805000DD0312230
:10479000FFF7D9FF2C81FFF7BFFD01A9009102238C
:1047A0000FF221222946FFF739FEBDF804003EBD75
:1047B0000A20FFF761BD1CB500F052F904000AD0D1
:1047C0001222FFF78AFEFFF7A7FD00F005F80FF2AF
:1047D000F91200F008F803E001A9009101237047E5
:1047E0009DF8040016BD2146FFF718BEF8B500F08D
:1047F00012F807000DD03622FFF7A5FF3C817D811E
:1048000000F0B5F93946BDE8F8400FF2CD12FFF7D8
:10481000E5BD0420F2BD04460D4616461020FFF704
:104820002BBD70B5054682B00C46FFF7C1FF0600F0
:104830001ED03722FFF787FF3581FFF76DFD334626
:10484000FFF7E9FD88B9009069460FF29110FFF774
:10485000A5FD50B900984578280001D100F0F3F883
:104860000098FFF716FD284676BDFFF779FD76BD67
:10487000042076BD04460C20FFF7FEBC04460D461E
:1048800016460E20FFF7F8BC2DE9F041FFF754FF64
:10489000070011D0069AFFF7C0FE3C813E74FD6010
:1048A00000F02DF97874FFF737FD3946BDE8F04187
:1048B0000FF25D12FFF792BDFFF72ABE38B514461E
:1048C0000F4A15682A0006D0009302460B4621467F
:1048D0000120A84732BD002032BD0A4A13681A00E1
:1048E00003D00A4601460120184770474E120020A7
:1048F000314A0000374A00003D4A0000914500005F
:10490000BC240020C02400202DE9F04100F00DF867
:1049100098460C20FFF7B0FC070004D000F016F812
:104920003C81BD72C0E0FFF7F3BD04460D4616465C
:1049300070472DE9F041FFF788FE070004D000F032
:1049400005F8BC60FD60AFE0FFF7E2BD3246042130
:10495000FFF713BD2DE9F041FFF777FE070006D002
:10496000FFF7F4FFFFF7B9FE3872FD609CE0FFF738
:10497000CFBD1078802802BF508840F27F61884206
:104980000CD190884FF680710140B1F57E4F04BF85
:1049900000F07F00984201D101207047002070474D
:1049A0000023E6E71123E4E71223E2E70A23E0E726
:1049B0000623DEE70723DCE70823DAE71023D8E73E
:1049C0003023D6E73123D4E780B5122300930123A7
:1049D000FFF7C0FD02BD00003623CAE73723C8E752
:1049E0001078802802BF508840F27F6188420DD144
:1049F00090884FF6807101404FF68052914204BF7B
:104A000000F07F00984201D10120704700207047DC
:104A100070B5FFF78AFF1D23FFF7E2FF30B932467A
:104A200029462046BDE870401B23D9E7012070BD10
:104A300080B51323CAE780B51423C7E780B50223E6
:104A400000930423C4E70098C27981682046FDF7EB
:104A5000BBBD000004460D4616460C20FFF70CBCFB
:104A600000208DF804000820FFF706BC2DE9F04176
:104A7000FFF75BFF98460E20FFF7FEFB070009D00B
:104A800000F00AF83D817E81A7F80C80FFF744FC16
:104A9000069A0CE0FFF73CBD812038700120F870C9
:104AA000BC8070473D81FE60FFF736FC42463946C8
:104AB000BDE8F041FFF792BC1078802802BF508813
:104AC00040F27F61884204BF9088984201D1012062
:104AD000704700207047000080B50FF22D0100F0F4
:104AE00006F84FF60140FFE7FFF7C0FF02BD009157
:104AF00000230146002270473C817D81BE814146F2
:104B00005020FFF717BC00004FF60143D4E7000028
:104B1000F8B5FFF780FE07000DD0012200F022F863
:104B20003C727D7200F023F83946BDE8F8400FF280
:104B30007902FFF753BC0420F2BDF8B5FFF76BFE16
:104B400007000DD0022200F00DF83C727D7200F0DB
:104B50000EF83946BDE8F8400FF25102FFF73EBCAF
:104B60000420F2BD0521FFF708BC3C81BD72FE6048
:104B7000FFF7D2BB1078802802BF508840F27F61D7
:104B800088420DD190884FF6807101404FF68062C7
:104B9000914204BF00F07F00984201D1012070478C
:104BA00000207047000000000123E3E70223E1E753
:104BB0000FF2CC03304810221321FFF793BC000002
:104BC0002DE9FE4990464A680A9C107852780B9D60
:104BD00000EB02201F46002680B242F62322274B1C
:104BE000801A03EB040C07D0401E052810D9801F43
:104BF0001ED0263829D03AE0092C28D2C4F108006A
:104C0000854228BFC4F108053D800CF1080129E068
:104C1000D1F80CB0584600F0E9FF80B2A04216DB94
:104C2000011B8D42A8BF051B3D800BEB040119E061
:104C300018780146A1420AD3001B8542A8BF0D1B6C
:104C40003D8058683A8801190DE0082C01D30726E9
:104C50000FE0C4F10700854228BFC4F107053D807D
:104C60000CF1B0013A884046FDF7AEFC01E03E8011
:104C70000A263046BDE8FE897C070020C4060020D5
:104C8000C14B0000000000000000000010B584B01F
:104C90000820ADF800000420ADF8020080498148EA
:104CA00000780968804C8000019068468847002899
:104CB00014BF002002982066010008BF13200AD00C
:104CC0004FF6FF7000F080FE0FF2F0131022062165
:104CD0002046FFF707FC04B010BD74490860704718
:104CE00010B50024012808D1107871498870C9785E
:104CF000814203D200F09EF800E00224204610BD5D
:104D000010B500220328684B694C17D8DFE800F083
:104D10000204070AE07800E0A07808700FE05889E4
:104D200008800CE02078087260784872588D0880FE
:104D300003F1300048600120887200E00222104632
:104D400010BD80B500F060F85949CA789042BCBFE8
:104D5000C87000F06FF8002002BD70B504981446CA
:104D60001D46002608B10B2070BD486802784078C7
:104D700002EB002080B242F6192290420DD100F0E1
:104D800043F84B49CB7802469A4288BF1A46CA700C
:104D900001202880C87820700CE042F6081290426A
:104DA00007D102202880C86801782170417861709D
:104DB00000E00A26304670BD30B583B014464A681C
:104DC0001578527805EB022292B242F60215AA42F9
:104DD00017D101220192069A0092224600F071FE3C
:104DE00005000FD13148016808000BD020786278A7
:104DF00000EB022080B200280CBF0220012088476F
:104E000000E00A2528463EBD38B52A4C60680100FE
:104E100018BF8047284800687D2148434009642125
:104E200048432188B0FBF1F5A068010018BF804716
:104E3000E8B232BDF0B583B000241B4D194E28E016
:104E4000296EE4B231F824704FF6FF7087421FD00C
:104E5000384600F05EFEC0071AD5002301221B2150
:104E60003846FFF72BFD019090B1698DADF8001029
:104E700000220121ADF802100D49C97801703846B1
:104E80006946FFF7CCFB18B11B216846FFF725FDEB
:104E9000641C3178E0B28842D2D3F7BD0000000034
:104EA000BC0C0020B80D00200C060020F01B0020D8
:104EB00048120020F8050020285009405B4D0000F2
:104EC000B94D00000000000010B584B00820ADF816
:104ED00000000420ADF802003D493E480078096812
:104EE0003D4C8000019068468847002814BF002090
:104EF00002982066010008BF13200AD04FF6FF7009
:104F000000F062FD0FF2D803102206212046FFF7C1
:104F1000E9FA04B010BD31490860704730B52E4D34
:104F2000296E83B0044600F0F4FDC0071BD50023B2
:104F300001221B212046FFF7C1FC019098B1B5F872
:104F40005A000199ADF8000000220120ADF80200DE
:104F50000020087069462046FFF761FB18B11B214D
:104F60006846FFF7BAFC37BD002070477CB50D4698
:104F700011461A46069B00240BB10B2076BD6B68C8
:104F80001E785B7806EB03239BB242F64F26B342B2
:104F90000BD1042A07D1E868FDF716FB0F49096811
:104FA0000120884711E00D240FE042F60214A342CD
:104FB0000AD1012301930023009313460A46294690
:104FC00000F07FFD044600E00A24204676BD000084
:104FD000BC0C0020B80D0020D40E0020D02E0020E4
:104FE000694F00006D4F0000000000002DE9F04EF9
:104FF000DFF8BC799246002640F2013B0C46BA78B5
:105000007B7997F804C097F80190B0EB0B0540F658
:105010007B4132D06D1E38D06D1E3DD0AD1E41D0CB
:105020006D1E00F07A806D1E00F07D806D1E00F018
:1050300087806D1E00F094806D1E00F099806D1EBB
:1050400000F09E806D1E00F0A5806D1E00F0AA800D
:10505000ED1E00F0AF806D1E00F0B4806D1E00F0FC
:10506000B9806D1E00F0BE806D1E00F0C3806D1F04
:1050700000F0CB80AD1E2DD0E1E0102C40F0DD80A3
:105080001022514607F1A40081E0102C69D11022B2
:10509000514607F1B4007AE0042C62D1DAF800003E
:1050A000F862D7E0012C5CD1012B34D09AF80000D3
:1050B0003871BCF1000F06D00028F2D1022A19D0B5
:1050C000052AEED116E00028EBD0012A1FD0042AD1
:1050D0001BD11CE0012C44D1BCF1010F1BD09AF86C
:1050E0000000787153B1002807D1032A1CBF072A9A
:1050F000052A02D14846FFF716FBABE00028FCD09A
:10510000012A1CBF042A062A01D0052A02D1012047
:1051100000F047FC9EE012269CE0022C21D1BAF858
:105120000000F88396E0202C0BDA07F1CC0600F0A3
:1051300094F800F09AF8BC713346224601210BE046
:10514000202C7ADA07F1EC0600F087F800F08DF8F1
:10515000FC713346224600214846FFF7C6FA76E046
:10516000012C6AD19AF80000052866DA387271E0DD
:10517000012C62D19AF8000004285EDA787269E0A6
:10518000062C5AD14FF48670062251463844FDF75A
:105190001BFA5FE0012C50D19AF8000008284CDA85
:1051A000B87257E0012C48D19AF80000042844DA7C
:1051B000F8724FE0012C40D19AF8000006283CDA42
:1051C000387447E000F04DF837D1821F8A4234D25C
:1051D00078823FE000F045F82FD1821F8A422CD21E
:1051E000B88237E000F03DF827D1B0F5FA7F24DA35
:1051F000F8822FE000F035F81FD1A0F10A0140F647
:105200007742914219D2388324E0012C04BF9AF8E6
:105210000000012811D107F18000FEF7E0FF50B92E
:1052200007F1100100F070FB060013D107F15C00DC
:10523000FEF7DCFF0EE016260CE018260AE0282810
:1052400007DA022C05D1BAF80010FFF77FFA0646FC
:1052500000E002263046BDE8F08E1F21304600F007
:10526000AFBBBAF80000022C7047224651463046C8
:10527000FDF7AAB938B500244FF440730D46C21AA1
:10528000DFF82C1736D0521E36D0521E37D0521EA1
:1052900038D0521E39D0521E3AD0521E3CD0521E27
:1052A0003CD0521E3DD0521E3ED0521E3ED0521E09
:1052B0003ED0521E40D0521E40D0521E40D0921EB0
:1052C00040D0521E40D0521E40D0521E40D0521EDE
:1052D00040D0521E40D0521E46D0521E46D0521EC2
:1052E00046D0921E48D0521E14D0521E42D0521E9A
:1052F00044D046E0C87842E01022A43130E01022C9
:10530000B4312DE0C86A286042E00622C43127E0AB
:10531000087934E0487932E0C88B36E08A79CC31BC
:105320001EE0CA79EC311BE0087A28E0487A26E0D2
:1053300006224FF4867012E0887A20E0C87A1EE0D8
:10534000088C22E0087C20E0488A1EE0888A1CE065
:10535000C88A1AE0088B18E006224FF48A700144CC
:105360002846FDF731F913E0488C0EE0888C0CE0FC
:10537000C88C0AE0087B02E0887800E0487B28704F
:1053800006E0282803DAFFF7F8F9288000E0022475
:10539000204632BD1CB5DFF81846A17881B900B1AE
:1053A000206304F12C00019004F1B400009004F19A
:1053B000A403E17860780022FFF74EF9002016BDC3
:1053C000112016BDDFF8E8058178062918BF0729E6
:1053D00004D1018C40781322FFF768B9122070477E
:1053E00000B58FB008233C2200216846FEF782F901
:1053F000DFF8C00500F15001079100234FF4DC7184
:1054000008916A46032106910FF2D101FEF776F961
:105410000FB000BD70B584B000F019F90120DFF8BD
:105420009815DFF88C4509680FF29155ADF8020028
:105430000026684688479DF8040060700298A062C4
:105440000020A0704FF6FF702084FFF7B4F92070A1
:10545000002301200190002200200090294604F141
:105460003800FEF781FE022000F02FF804F15C0006
:10547000FEF77AFE042000F028F804F18000FEF721
:1054800073FE0420E07004F1A40200200021002338
:1054900000252BC204F1B405103A4BC5E06220721E
:1054A0006072E1720720A07210210220FFF730FB2A
:1054B000103D2A4610210320FFF72AFB04F12C029D
:1054C00004210420FFF724FB7FBD0190002300206E
:1054D000009000222946704700000000FEB5FFF74B
:1054E00099FFDFF8CC54DFF8D04405F1800700F0D5
:1054F000AEF80A20ADF802004FF0FF300190684688
:105500002168884700284BD100F0A1F80920ADF8A8
:1055100002006846216888479DF80610029E002810
:105520003ED1BDF80400102804BF687881422DD117
:1055300030884FF6FF71884209D17088400425D524
:1055400005F12C0204210420FFF7F7FA1EE0307861
:10555000A22805D0D02804BF304600F07CF815E022
:105560007079132812D13089012804BFA87B022842
:1055700005D13846FEF73AFEFFF724FF06E0052086
:10558000FFF7FBF801463846FEF714FE46B100F07F
:105590005EF80320ADF8020001966846216888474E
:1055A000A88BC10730D54FF6FE710840A883297932
:1055B0006879014328D018B103208DF800000DE070
:1055C000287A8DF800000622687A8DF801004FF4E1
:1055D000867029180DF10200FCF7F6FFA87A8DF805
:1055E00008006946E87A8DF809006878FFF779F8CD
:1055F00000281FBF0820A870286B002804D001686D
:1056000008001CBF08208847A88B810708D54FF6E3
:10561000FD710840A88305F11001002000F074F925
:10562000A88B41070AD54FF6FB710840A883A87BD9
:10563000012804D0022808BFFFF7C4FE57E70090F6
:105640002B8BEA8AA98A688A00F093F94FE7082031
:10565000ADF800007047FEB5D54DA9784FF48A73B8
:105660000446EE18A2786879130005F1800715D07A
:10567000022A3CD0032A18BF042A5CD0052A00F075
:105680007F80062A00F0AC80072A00F0CD800F2A28
:1056900000F0E580112A00F0E780F7BD6078010096
:1056A0001AD105F1A40210210220FFF746FA05F1F4
:1056B000B40210210320FFF740FA0622E11C05F195
:1056C000C400FCF781FF0120A87005F1CC03AA7982
:1056D00068780121FFF709F808B10820A870286B45
:1056E00020B1016808001CBFA8788847F7BD627820
:1056F000EAB9E27842B1EA79687805F1EC03002171
:10570000FEF7F3FF607012E0022918BF07290ED0E0
:10571000062902D101280AD101E0032907D005F1A9
:105720003800FEF75CFD10B9012000F03AF960780E
:105730000028DBD0D1E763780BBB2B79032A08D193
:10574000062908BF0720C9D0002B0CBF0320022068
:10575000C4E7E98B0A0006D018430AD005F13800E7
:10576000FEF728FD05E0012B07BF0020287100206F
:105770006871A878072814BF04200620AEE7ACE7BC
:105780006078010026D10622211D3046FCF71CFF5F
:10579000608928840620A870E0896884208AA8840B
:1057A000608AE884E0782873287C012818BF0228E2
:1057B00009D11F20FEF7E1FF4FF47A71414305F153
:1057C0005C00FEF7F7FC6289E0780423211DFEF7F8
:1057D00062FE84E73128D2D10020287104207DE7C1
:1057E000A088FEF76FFE0621FFF738FD00206884D1
:1057F000A884E884A079687305F15C00FEF7F6FCE4
:105800003846FEF7F3FC4FF6FF702884687908B13C
:10581000032063E7A07908280CBF05200420A870A6
:10582000012000F0BEF85AE73846FEF7DFFC60784A
:10583000002813D1E08868842089A8846089E884DE
:1058400005F15C00FEF7CBFC002807D16B6B002B49
:1058500004D0EA8CA98C688C1B689847F7BDA08897
:105860000521FEF765FFF7BDA088ADF80000287C94
:10587000052803D100208DF80A0041E001208DF8B1
:105880000A0005F15C00FEF7B1FC287C012818BF76
:1058900004281AD1688AE188814228BF0846ADF8F9
:1058A0000200A98A2089884238BF0846ADF8040062
:1058B000E98A6089884238BF0846ADF80600298B1E
:1058C000A08988421AD2084618E0032818BF022887
:1058D0000AD1688AADF80200A88AADF80400E88A07
:1058E000ADF80600288B09E0E088ADF802002089B9
:1058F000ADF804006089ADF80600A089ADF8080095
:105900006846FEF7CFFEF7BDFEB50F46284D7A88F4
:105910000446688C904224BFB988814207D3A88C82
:10592000F988884202BFE88C398988421ED0052058
:10593000FEF723FF0646288CADF800007888ADF806
:105940000200B888ADF80400F888ADF80600388980
:10595000ADF808006846FEF7A0FE070007D1AC735B
:10596000314605F18000FEF725FC00E01827384697
:10597000FEBD3EB50E4CA578062D01D014203EBDCF
:10598000ADF80200ADF80410ADF80620ADF808300F
:1059900004F15C00FEF72AFC06986946FFF7B4FFA5
:1059A0003EBD03498A8B10438883886AFAF726BE76
:1059B000B80D0020982B0020BC0C0020F1E700005F
:1059C000002200F02FB9000038B54FF6FF74A04256
:1059D0000DD10020654A137898420EDA21F8204054
:1059E00001EB80050023401CAB70C0B2F3E700F070
:1059F000A9F810B104800021817031BD2DE9FE4F5E
:105A000080460026B8F1000F82B006D0080004D00E
:105A1000180002D0109F380001D1022035E00F9C01
:105A200000252CE0EDB2A94638F829004FF6FF71A9
:105A300088421EBF08EB890A9AF8020000281DD090
:105A4000029ABDF83810049800F02AF85FEA000BBB
:105A500014D09AF80200C00705D500F019F801210A
:105A600000F086F806439AF80200800706D500F099
:105A70000FF8022100F07CF80643F6B26D1C3B499A
:105A80000978E8B28842CDD3F0B205B0BDE8F08F16
:105A9000019700949DF80C2038F829005B46704768
:105AA00030B5002400E0641CA3B28B4207D2A4B23C
:105AB00000EB0413DD689542F5D1184630BD002097
:105AC00030BDF8B5044606980D460026F0B9022B05
:105AD0001AD11078517800EB01270798C043B9B26A
