:040000050000EB7993
:020000040000FA
:1000000088410020E1B2000001CA011001CA0110BC
:1000100001CA011001CA011001CA011001CA011070
:1000200001CA011001CA011001CA011001CA011060
:1000300001CA011001CA01103FCA011003000020CB
:1000400013F0030F09D0521E22BF13F8010B11F851
:1000500001CBB0EB0C00F3D07047121F22BF53F856
:10006000040B51F804CB6045F7D0121D0AD200BA38
:100070009CFA8CFCB0EB0C0038BF6FF0000088BF1E
:1000800001207047521E22BF13F8010B11F801CB5B
:10009000B0EB0C00F6D0521C08BF104670470000B1
:1000A000002206F0F3B80000002206F0ABBC00000E
:1000B000DFF800F0F1C5011001B90149FFF7F8BF01
:1000C000A00100000A18232A242A252A262A272AE2
:1000D000282A292A2A2A502A02000000C4000000E7
:100100003C0000000000000000000000340100007E
:1001100000000000000000000100000000000000DE
:1001200000000000000000000000000001000000CE
:100130000000000008000000000000003400000083
:100140000000000000000000680100000000000046
:10015000000000000100000000000000010000009D
:100160000000000000000000080000000000000087
:1001700030000000000000000000000098010000B6
:10018000040000000000000001000000FFFFFFFF6E
:10019000FF00000001000000080000000000000057
:1001A0002C0000000000000000000000C40100005E
:1001B000040000000000000001000000FFFFFFFF3E
:1001C000FFFFFFFF080000000000000034050000F2
:1001D000E401000099A1011095A70110A5C201102A
:1001E00009B2011045B80110000000000000000035
:1001F0002F000000280000000000000000000000A8
:10020000140200000000000000000000FFFFFFFFDC
:1002100000000000080000000000000030050000A1
:100220003002000069C201106DC101101FC201102F
:1002300095BA011000000000000000002D00000031
:10024000300500005402000075C20110A9B601106B
:100250009DBF011049B60110000000000000000021
:100260002E0000002400000000000000000000003C
:1002700080020000000000000000000000000000FC
:100280000800000000000000240000000000000042
:1002900000000000A40200000000000000000000B8
:1002A0000000000008000000000000002400000022
:1002B0000000000000000000C80200000000000074
:1002C0000100000000000000080000000000000025
:1002D00000000000E0070020040000000000000013
:1002E000000000002000000070010000300000004D
:1002F0001C020000000800200400000000000000B4
:10030000000000000C000000300400001800000095
:100310004002000008080020040000000000000067
:100320000000000024000000480400001800000045
:100330000000000048080020040000000000000049
:100340000000000010000000A00100002C000000D0
:10035000CC01000050080020040000000000000054
:1003600000000000200000006402000024000000E3
:10037000FFFFFFFF700800200400000000000000E5
:100380000000000028000000880200002400000097
:10039000FFFFFFFFA0080020040000000000000095
:1003A00000000000580000003C0100003400000084
:1003B000FFFFFFFFA808002004000000000000006D
:1003C00000000000100000006004000018000000A1
:1003D000FFFFFFFFB0080020040000000000000045
:1003E000000000001C000000AC020000240000001F
:1003F000FFFFFFFFB808002004000000000000001D
:100400000000000038000000F40100002800000097
:10041000FFFFFFFF20090020040000000000000093
:100420000000000054000000000100003C0000003B
:100430001800000000000000000000004004000060
:10044000080000000000000018000000000000008C
:100450000000000058040000080000000000000038
:100460001800000000000000000000007004000000
:100470000800000000000000010000002CB3000094
:100484000100000000000E0000000F003200000018
:1004940001000000E8070020000200000000000046
:1004A40001CA011000000000000000000800000064
:1004B400000023001008002001000000580800205C
:1004C4000800000000000000000000000000000020
:1004D400000000000000000001000000C00800202F
:1004E40006000000010000002809002000000000B0
:0C04F400000000000002000000000000FA
:0F0502002900010025002D002E002F000100010F
:10051400040000000CB30000000000000000000014
:10052400000001000000030087C40110380500002A
:10053400380500000000000090000000900000005A
:100544000000000058080020359E00002000000034
:10055400F8B20000E0B000000DC3011049500000E3
:100564004B50000099C801109BC801100000000006
:100574009E00000020B0000038B0000008B0000069
:090584000800090001000000015B
:10059000000000000000000000000000000000005B
:1005A000954F0000B54F0000B94E0000DF4F00002E
:1005B000014F0000D74E0000334F00000B500000E9
:1005C000AD9D0000F99E0000FD9E000008000000A7
:1005D0002400000018000000280000002000000097
:1005E0003C0000000C00000034000000DFF800F0C8
:1005F000D5C20110DFF800F0D9C20110E0B5082122
:10060000ADF800100190042100F00FF808B10020AF
:100610000EBD02980EBD00B583B00821ADF80010E4
:100620000190052100F001F807BDADF80210684601
:10063000DFF8B41C0968084710B5DFF8B04C00209B
:10064000207004F1100001F0C0F8A06004F11C005B
:1006500001F0BBF8E060DFF8984C207801F078FA00
:10066000207801F072FA0FF248021521002001F003
:1006700090FA4FF0FF3001F089FA4FF0FF3001F0AF
:100680002FFA01F0E3FFBDE81040002038B5DFF895
:10069000384D00202070A06940B10568FFF7BBFF0E
:1006A0002800FAD1A16900200860A06131BD0000D6
:1006B000534E500000000000000000000000000049
:1006C00000000000000000001CB5044620791E2830
:1006D00014D1608800F0FF01000A01EB0020ADF8A2
:1006E0000500022360788DF8040001AA0DF10500D1
:1006F00000908921552002F033FA15E07F2813D1AC
:1007000060888DF800006B466188090A8DF8011039
:10071000042221898DF8021000212089000A8DF819
:100720000300202002F073FA217904F1080001F09F
:100730007BFC13BD012800D0704710B5DFF8884C52
:100740006078122882B003D0182808D0FE2820D163
:10075000A06998B100F01EF8A088FFF797FFA06984
:1007600060B141790091038AC2884169C06800F094
:1007700060FDA06900210171406908E06078A389EB
:10078000628821690090A06800F053FD206901F0A3
:1007900054FC13BD00218DF8011087208E218DF8A7
:1007A00000008DF802106B46032200214FF4004038
:1007B00002F02DBAF8B5DFF8804CDFF8805CDFF886
:1007C0002C7B20E07069A8B1706802222946FFF7EF
:1007D00035FC28B1706802222146FFF72FFC30B9A2
:1007E00070694068B0F5801FA8BFFFF714FF7069FB
:1007F000FFF711FF7068B0F5801FA8BFFFF70BFF70
:100800003046FFF708FFB86801F00CF80600D9D1B0
:1008100001207870F1BDBFB504460F4603A940F230
:100820000E3003F00FF8DFF8A05B287800287BD0AB
:10083000002028702078932805D100202861A888FE
:10084000FFF724FF70E080B168788DF8040001A9FB
:10085000A8684089ADF8060020788DF80800A888BF
:1008600001F054FA002028615EE06888B84250D355
:10087000687808283ED00A2802D00C281CD048E00E
:10088000A88800233A460B2101F0BFFB029010B963
:1008900000F05CF83AE000F051F8A88801A901F0F6
:1008A0003BFA002840D000218DF80110872001215B
:1008B000FFF775FF0B2119E0A88800233A460D21A8
:1008C00001F0A3FB029010B900F040F81EE000F028
:1008D00035F8A88801A901F025FA010024D000F01C
:1008E00026F88DF8020000F038F80D2101A801F07B
:1008F0009BFB19E0A8684389D4F80710A8883A46FA
:1009000001F00CF901000FD000F011F88DF8020091
:1009100008E000218DF80110872084218DF8000067
:100920008DF8021000F019F8002004B0B0BD872146
:1009300000228DF800108DF801207047ADF804708A
:10094000D4F8071002983A4603F014BB8720002120
:100950008DF800008DF8011070476B4603220021CE
:100960004FF4004002F053B900BF30B5DFF8584AE9
:100970002178002983B079D0017893290ED081B1F4
:1009800061788DF80010A1684989ADF802106946B8
:1009900000788DF80400A08801F0B8F900F068F83C
:1009A00064E0A188B0F80100884207D000218DF8EA
:1009B000011088208421FFF7F2FE57E060781228AA
:1009C00004D0182808D0FE2834D035E0002020704C
:1009D000084601F0ADF92FE0A5692DB300E005460A
:1009E000287910B928680028F9D12879002804BF8F
:1009F0002868002809D12070084601F09FF9206975
:100A000001F01BFB00F034F816E0182000902B8A50
:100A1000EA886969E86800F00CFC002028716869C0
:100A200001F00BFB012006E000202070084601F0D9
:100A300085F901E000202070A06841680A784978B3
:100A400002EB012189B242F6021291420CD1C06838
:100A50000168227D8A70A08808806178FE2903D011
:100A6000A168498901F0BFFA0020206100203EBD45
:100A700000202061A08809E62DE9F84380468946D8
:100A80001546872605B12E700DF1010100F0A9F978
:100A90009DF8010020B9DFF854787878012804D156
:100AA0000DB186202870862039E00120787000F092
:100AB0001FF9040032D000F0F6F80220207098F8F8
:100AC0000000012802D002282BD02DE0DFF86C09AD
:100AD00000F065F808202082FFF790FD606198B370
:100AE0006A46494608F1010003F08CFD60B3626973
:100AF0009DF800101170616948606069E06001F064
:100B0000E7F8B88022463878401C38700021B86871
:100B100000F062FE68B1002605B12E703046BDE8D7
:100B2000F283DFF81409D3E70DB184202870842004
:100B3000F5E760694068B0F5801FA8BFFFF76BFD5F
:100B4000606908B1FFF767FD00F077F8E6E711B5D7
:100B500081B000F0CDF804001DD000F0A4F8022010
:100B60002070DFF8540B00F01AF801202082FFF704
:100B700045FD606168B1E06001A861690278DFF855
:100B80003C0B0A70224600F018F830B96069FFF794
:100B900042FD00F052F8002016BD012016BD606035
:100BA000012020720020608170479DF8000038709D
:100BB0007C603E723A46DFF8040B8068002100F04A
:100BC0000BBE18B50FB481B000F092F804002FD01E
:100BD00000F069F802202070DFF8E40AFFF7DFFF79
:100BE00006202082FFF70AFD6061F8B1E06001A9EC
:100BF00060690A78027002A9421C0B78137003A97D
:100C0000821C0B7813704B78537004A9021D0B786B
:100C1000137008A90A7800F8052F4A784270224616
:100C2000FFF7C9FF30B96069FFF7F5FC00F005F880
:100C3000002000E0012006B010BD2046EBE42DE9C5
:100C4000F04180460C4615461E4600F051F807005C
:100C500024D000F028F8022038703C82DFF8640AC3
:100C6000786008F0CF003872002078812046FFF7C6
:100C7000C5FC786178B1F8602A467869314603F09E
:100C800079F9DFF8380A80683A46FFF797FF38B9F4
:100C90007869FFF7C0FC3846FFF7BDFC002000E094
:100CA0000120BDE8F0811821FFF7FAB9F8B5144624
:100CB0001D4601F0CF0600F01BF8070014D0FFF727
:100CC000F2FF6A462146284603F09CFC040008D047
:100CD000FFF76BFF50B9B4F5801FA4BF2046FFF7A4
:100CE0009AFC3846FFF797FC0020F2BD0120F2BDC8
:100CF000182083E4F8B500F0CF060C461546FFF740
:100D0000F7FF070014D0FFF7CEFF6A4629462046BA
:100D100003F078FC040008D0FFF747FF50B9B4F5A2
:100D2000801FA4BF2046FFF776FC3846FFF773FC10
:100D30000020F2BD0120F2BD38B50546FFF7D8FF0F
:100D4000040037D0FFF7AFFF02202070DFF87809EA
:100D5000606005F0CF0040F001002072002060814B
:100D6000DFF8685928788000001D2082208AFFF76C
:100D700045FC6061E0B1011D016000216069E06037
:100D80006069001D07E0FF2220F8212000EB8103AD
:100D900000229A70491C2A789142F4DBDFF81C0982
:100DA00080682246FFF70AFF30B96069FFF733FC1D
:100DB000FFF743FF002032BD012032BD10B582B0E5
:100DC000044600F00DF89DF80000002802BFDFF88F
:100DD000EC084078012802D086202070002016BD43
:100DE000694640F21A3002F02DBD70B582B005465A
:100DF00087200E4614468DF8000024B10020A4F888
:100E00000100872020706846FFF7D8FF40B9FFF740
:100E1000D1FC14B19DF8000020709DF8000076BD53
:100E2000B5F80100C0B2FFF792FE10B9FFF7C2FC9F
:100E30000BE02978A888AB1D3246FFF737FF30B9A1
:100E4000FFF7B8FC0CB187202070872076BDDFF853
:100E50006C080178891C01704CB18288C9B289186C
:100E6000491E00F09EF8A4F8011000212170002115
:100E70008170002076BDF0B583B0044687208DF8E0
:100E800004000D46207800277021084268D101A88F
:100E9000FFF794FF00285ED0DFF820682078B17853
:100EA000014201D08620FEBDC0070ED5D4F8010056
:100EB000C11C00780222FFF71DFF00284BD000F074
:100EC0006DF86980401C012730702078800710D5AC
:100ED000D4F80500C11C00781022FFF70BFF002892
:100EE00039D000F05BF805EB4702401C51807F1CB5
:100EF0003070207840070BD5D4F809000078FFF750
:100F00001BFF002827D000F052F840F00400B0701A
:100F10002078000710D5D4F80D00B0F80510009126
:100F20000379428841780078FFF74BFE98B100F0D2
:100F30003EF840F00800B0702078000628D5D4F8BC
:100F40001100D0F80530B0F80320B0F80110007897
:100F5000FFF775FE40B9FFF72DFC9DF80400FEBDBC
:100F6000FFF728FC8420FEBD3078B188401C30702B
:100F7000FFB2C0B24018401E00F0FF0100F47F40F5
:100F8000401805EB47014880B07840F08000B07011
:100F900000202870207868700020FEBD3078B1886D
:100FA000411801F0FF0201F47F4189187047307841
:100FB000B188401C3070FFB2C0B24018401E00F033
:100FC000FF0100F47F40401805EB47017F1C48807B
:100FD000B07870472DE9F04782B0044600270CB97D
:100FE000842074E0A4F80170A4F8037087202070B6
:100FF000FFF7F6FE9DF80000002802BFDFF8BC56A0
:101000006878012802D08620207060E01020FFF769
:10101000F5FA060066D028780001FFF7EFFA5FEADC
:1010200000085CD028788000FFF7E8FA5FEA000942
:1010300001D1404651E0C6F80080C6F80890A88863
:10104000B08129780818401EF081317113E0A8881A
:10105000381829F8270009EB8701BAF810004880F2
:101060001022514608EB071002F084FF50467F1C07
:10107000FFF7D1FABFB2A86800F0D4FB5FEA000A1C
:10108000E5D1E8683246FFF799FD10B3AA8802F06F
:10109000FF01100A01EB0020A4F8010029780FF2EB
:1010A00038638818401E00F0FF0200F47F4080186B
:1010B000A4F80300102200206870404600F013FDE1
:1010C000207008B1FFF776FB002028702078BDE87B
:1010D000F6874046FFF79FFA4846FFF79CFA3046EE
:1010E000FFF799FAFFF766FBF0E7F8B5DFF8CC7584
:1010F0000446F8680D461646FFF778FA01E0FFF758
:1011000079FAF96888421FD0826893899C4224BF8B
:10111000D189A142F3D3106891681279A0B100235C
:1011200010E000EB0317B7F80AC0A44504BFFF683E
:101130002F6031F82370A74203D101EB83077F882A
:1011400037805B1C9342ECDB0020F2BD30B583B0EE
:101150000C4600210191154600886A4601A9FFF757
:10116000C4FF38B90198C4F80300BDF80000288016
:1011700000203EBD88203EBD7CB505460020019084
:101180000E46144628886A4601A9FFF7AEFF98B9B3
:10119000BDF8000008B9862076BDB04201D2842097
:1011A00076BDD5F802100198324602F0E3FE288899
:1011B000A4F80100002076BD882076BDFEB50A9C0B
:1011C0000A2C1CBF0C2C082C05460E462ED17E4F37
:1011D000387858BB01A940F20E3002F033FB708919
:1011E0007C7000F0FF0201A9000A02EB0020488099
:1011F000BD80BE600823089800F0FF02000A02EBE1
:10120000002088801624099800F0FF02010A02EBF2
:101210000121ADF80A107880012101A839700090F1
:1012200000228721552001F09BFC00E0112420467C
:10123000FEBD2DE9FE4304460D006068017840784C
:1012400090461F4601EB00294BD00720FFF7D6F947
:10125000060046D0314640F20E3002F0F3FA6089C3
:10126000B0701FFA89F26089000AF07042F602112C
:101270000A988A421ED1544901220A700D61A1F8D0
:10128000028048708F818C603271701D2A780270E4
:101290006A784270287808754878FE2804BF086983
:1012A000FFF7B9F90096072300228B21552001F0A2
:1012B00057FC11E052280CBF0020012030717771DB
:1012C000380AB0710295CDF80480009607230022F9
:1012D0008821552001F067FC3046BDE8FE43FFF74A
:1012E0009AB9BDE8F783000094040020AC1E0020EA
:1012F000440600202DE9F04F83B082460C9D9946AC
:1013000009EB0500B0F5007F8B469046C8BF18205A
:1013100057DC2D4E3078012808BF0E2051D00D9C8F
:10132000B769122C07D0162C23D0182C09D0522CB8
:1013300014D0FE2C0DD127B1FFF72CFAB088FFF79F
:10134000A5F9019400954B4642465946504600F097
:101350003DF8522C0CBF0020162032E000942B46A2
:101360004A4641465846FFF764FF404600F065FE96
:10137000EFE747B100E0074638680028FBD1FFF7E8
:10138000B7FC386002E0FFF7B3FCB06138B100F0A1
:1013900057F80582C0F80CB0A0F808A0D9E787205C
:1013A0008DF8000000218DF802008DF801106B46C9
:1013B00003224FF4004001F02AFCB088FFF766F9E1
:1013C0001320BDE8FE8F0000901E00202DE9F0479D
:1013D000BF4F089CBD6906468A46904699466DB146
:1013E00000E0054628680028FBD1FFF781FC286053
:1013F00000F026F80482C0F80CA0068101203870A5
:10140000099DFE2D08D14846FFF7F8F838614A4695
:10141000414602F0AFFD01E0C7F81080A7F8029046
:101420007D70BC81C7F808A0BE800121BDE8F047EF
:10143000022001F068BB000044620000406200002E
:1014400000210160C0F8148001210171A0F806900C
:10145000704710B514460278012A02D0022A06D03D
:101460000BE0821C4078C9B200F093FB06E0821CBE
:101470004078C9B201F0F2F800E0892020702078AD
:1014800010BD000010B50C4600211180C4F80210F8
:1014900041786170017821700178012902D0022918
:1014A00023D044E04078082811D8DFE800F0050791
:1014B0000D090B0D0D0D0D00152006E0022004E0B6
:1014C000062002E0082000E00120108002E01188E0
:1014D000842081B31088FFF791F8C4F8020020B38C
:1014E0000146607800F060FB1BE0407828B1401EA8
:1014F000062806D9C01F02D006E0082002E0072017
:1015000000E01520108002E01188842099B1108835
:10151000FFF774F80100C4F8021006D0607801F0FB
:1015200037F9022807D1842010BD872010BD002183
:101530008920C4F8021010BD2DE9FE4F04468846EC
:1015400060790027032108421CBF00F00300032834
:1015500000F0B0805948C068FFF748F842F6030928
:1015600001E0FFF747F85549C968884264D08168AF
:1015700063888A89934224BFCA899A42F1D30A6850
:1015800091F804C04FF0000E00E0F7B1E645E8DA4C
:1015900002EB0E110EF1010E4D899D42F6D1A1F123
:1015A0000C0529680E78497806EB012189B2494576
:1015B00001D0832072E0AD6861792D7811EA251F92
:1015C00001D190206AE0754600E06D1C6545DDDACA
:1015D00002EB0516D6F804A09AF800B09AF801A01C
:1015E0000BEB0A2A1FFA8AFA42F6021BDA451FD1D0
:1015F000F5682D684FF0000B01E00BF1010B334E45
:1016000096F800A05FFA8BF656450DD25FFA8BFB79
:1016100035F82BA02688B245EFD105EB8B07BD78B6
:101620000D4203D00127B1E7002FAFD18F2035E065
:10163000CA45AAD1912031E00FB988202EE0208838
:101640006B464FF6FF721B2100F0DFFC029008B9D9
:10165000872023E06088ADF804004246BDF8000012
:101660009042B4BFBDF800801FFA88F8ADF806803C
:10167000B8BFBDF800200298A11D02F07BFC607984
:10168000C1070DD52279208801A900F012FB0400C2
:1016900003D01B2101A800F0C7FC2046BDE8FE8F47
:1016A000800707D50B4803782279208801A900F02C
:1016B00026FBECE78420F1E74C620000AC1E002022
:1016C000606200005462000058620000280500209B
:1016D000901E002044060020BD110000F5120000FD
:1016E00000000000DFF800F085C10110DFF800F015
:1016F000C1C20110DFF800F0E3BF0110DFF800F015
:101700002DBF0110DFF800F011BF0110DFF800F06D
:1017100079B50110DFF800F0F5B8011000B583B01D
:101720000821ADF8001001900521ADF802106846BF
:1017300043490968884707BDF0B589B004460D469E
:1017400016461F460823242200216846FFF7CAFFD9
:101750000F983C49096806906B464FF47A70B0FBCD
:10176000F1F101FB07F0059001FB06F20E98ADF8D0
:10177000100029462046FFF7C9FF204609B0F0BDFA
:1017800038B504460D4603F064FA10B1204603F064
:1017900052FA00F013F800FB05F12046FFF7A6FF10
:1017A0002046BDE83240FFF7A5BF80B503F051FAEF
:1017B00000B10120C0B202BD03F03DBA2149096861
:1017C0004FF47A70B0FBF1F0704710B50446002179
:1017D000FFF7A0FF204610BD70B584B00446082076
:1017E000ADF800000D460420ADF802000C201449AD
:1017F0000968019016466846884768B9029959B148
:101800008E602046FFF77AFF25B14FF080412846D1
:1018100003F0BDFA012003E03046FFF77FFF002010
:1018200004B070BD10B50446FFF76CFFA04204D0B1
:101830008468FFF773FF204610BD002010BD000034
:101840009404002020B30000E0B50821ADF800109A
:101850000190022100F00FF808B100200EBD02989F
:101860000EBD00B583B00821ADF800100190032132
:1018700000F001F807BDADF802106846DFF8D81394
:10188000096808471FB5ADF806108DF80400082454
:10189000DFF8C4138DF808200393ADF80040ADF8CD
:1018A000024068460968884704B010BD30B585B06D
:1018B000144608220291ADF800201922DFF898138F
:1018C00009680190ADF802201D466846884714B1AA
:1018D000BDF80C10218015B19DF80E102970089AE2
:1018E0000499116005B030BD00B583B00820ADF893
:1018F00000001A2000F015F810B99DF804000EBD84
:10190000FF200EBD00B583B0ADF800008DF80610C5
:10191000002000F006F810B99DF807000EBDFF206A
:101920000EBDDFF834130968ADF8020068460847B9
:1019300050B110F1040F01D10420704710F1030FD2
:1019400001D102207047012070478123037042EAD1
:10195000C111002341F47C41C37081807047822310
:10196000037081800023C370827170473EB50446C6
:101970000820ADF800000D462020ADF80200102030
:10198000DFF8D4120968ADF804006846884720B92A
:10199000029810B16FF004003EBD009500230022B4
:1019A00021464FF0FF30FFF781FF3EBD10B582B0FA
:1019B0001446CA78012A03D18A88DFF890361A8043
:1019C00000F010F858B9009069462046FFF7CEFFA6
:1019D00028B900984478FFF744FF204616BDFFF76A
:1019E000A7FF16BD0B46022210214BE738B51C4657
:1019F0001546FFF7F7FFC0B9009069462846FFF784
:101A0000B5FF90B900984578280002BF0098C079CA
:101A1000A04205D1009881680498224602F0AAFAF3
:101A20000098FFF71EFF284632BDFFF781FF32BD49
:101A3000F8B500F02CFB00F047FA07000DD0324655
:101A40002946FFF78CFF00F0D4F93872FFF74CFFFE
:101A50003B4601B0BDE8F04095E0F1BD1022012108
:101A6000E6E738B500F096FA050002D0042201211D
:101A700080E031BDF8B500F05EFA07000AD013220D
:101A800000F02CF800F092FD3946BDE8F840DFF890
:101A9000C0258BE70420F2BD2DE9F04100F0D8F914
:101AA00007000FD0142200F019F83C72FD603E824E
:101AB00087F81280FFF718FF3946BDE8F041DFF8DC
:101AC000942573E725E038B500F04FF8050004D001
:101AD000152200F003F82C814FE031BD01213EE7D3
:101AE00000220421A3E02DE9F04100F0B1F9070044
:101AF0000FD0022200F010F8BC60BD81BE73C7F8A1
:101B00001080FFF7F1FE3946BDE8F041DFF84825C7
:101B10004CE70420BDE8F081042120E72DE9F041E5
:101B200000F096F907000FD00722FFF7F5FF3C8180
:101B3000FD603E82A7F81280FFF7D6FE3946BDE869
:101B4000F041DFF8182531E7E3E7102202216FE7C3
:101B500038B500F00AF8050006D0122200F008F8A7
:101B600000F047F9287208E031BD04460A206BE610
:101B70000221F4E6FFF7F3FEAC60FFF7B5FE2B465B
:101B800001B0BDE83040022210217BE60022032193
:101B90004DE000B583B00FF261030193062300937B
:101BA000032300F05BF80EBD80B50FF251020092E6
:101BB0000523032200F064F802BD1078802802BFDC
:101BC000508840F27F61884208D19088984202BFD5
:101BD00091790098814201D101207047002070471F
:101BE00010B582B0062402E010B582B0052400943E
:101BF000FFF7E3FF16BD00000323F1E70323F3E73C
:101C00001078802802BF508840F27F6188420CD152
:101C10009088032818BF042807D1907901001CBFC1
:101C20001028112801D10120704700207047F8B515
:101C300000F026FB07000CD032462946FFF78FFE46
:101C4000BC60FFF751FE3946BDE8F840DFF81024CC
:101C5000ACE60420F2BD0000940400202DE9F04120
:101C600000F07FF807000AD0069A4146FFF777FE9A
:101C70003C817D8100F09CFC079A00F062BB48E744
:101C80002DE9F04100F06DF807000AD042463146D8
:101C9000FFF765FE3C81FD60FFF726FE069A00F027
:101CA00050BB36E704460D460C20CDE542460321E5
:101CB0004BE670B582B000F0EAF9FFF715FE1B2184
:101CC0000091034632462946204600F072F976BD5F
:101CD0001CB50020ADF8040000F0FDFA04000BD0A4
:101CE000062200F060FCFFF7FFFD01A9009102232E
:101CF0000FF2854200F007F9BDF8040016BD10B5DB
:101D000082B01D24009400F054F916BD0A46014625
:101D10000FF2C143012017E00A4601460FF2B94312
:101D20000B2011E00A4601460FF2B1430D200BE0F3
:101D300001460FF2AD430022132005E001460FF2E9
:101D4000A54300221920FFE72DE9F04100F009F832
:101D5000070005D022460221FFF7F7FD00F0ECBA9C
:101D6000D7E604460D46164698461020FFF76CBD90
:101D70002DE9F04180460D4616461F461820FFF714
:101D800063FD040014D0002200F069F800F086FB27
:101D900020726572A672E7600698206107986061FC
:101DA000FFF7A2FD2146BDE8F0410FF25932FDE5F3
:101DB000AFE60FF25533112200216CE10FF24D33E3
:101DC0001222F9E7F8B500F0EEF807000FD00A226A
:101DD00000F045F800F00DF838727D813E73FFF792
:101DE00083FD3946BDE8F8400FF22532DEE50420D8
:101DF000F2BD21465020FFF785BD0FF219330622B0
:101E00005AE12DE9F04180460D4616461F46102046
:101E1000FFF71AFD040011D0072200F020F800F0AF
:101E20003DFB20726572A672E760FFF75DFD2146FB
:101E3000BDE8F0410FF2E122FFF7B8BD69E60FF20D
:101E4000DD230822002137E10FF2D52310220DE116
:101E500004460D46164698461420FFF7F5BC0421AB
:101E6000FFF773BD70B5FFF71DFF06000BD03022E2
:101E7000FFF7F5FF00F009F83146BDE870400FF2BA
:101E8000A522FFF793BD042070BD34817581FFF753
:101E90002BBD30B583B004460020ADF8040000F03F
:101EA00013F805000DD03122FFF7D9FF2C81FFF781
:101EB0001BFD01A9009102230FF26D222946FFF7B5
:101EC00095FDBDF804003EBD0A20FFF7BDBC0FF232
:101ED0005D230D22CAE01CB500F0FAF904000AD017
:101EE0001222FFF7FBFDFFF7FFFC00F005F80FF2F1
:101EF000412200F008F803E001A900910123704796
:101F00009DF8040016BD2146FFF770BDF8B500F03E
:101F100012F807000DD03622FFF7A1FF3C817D812A
:101F200000F046FB3946BDE8F8400FF21522FFF7F6
:101F30003DBD0420F2BD04460D4616461020FFF7B5
:101F400083BC70B5054682B00C46FFF7BDFF0600A6
:101F50001ED03722FFF783FF3581FFF7C5FC3346DC
:101F6000FFF741FD88B9009069460FF2D910FFF7DD
:101F7000FDFC50B900984578280001D100F044F9E3
:101F80000098FFF76EFC284676BDFFF7D1FC76BDC2
:101F9000042076BD04460C20FFF756BC3C817D81B1
:101FA000BE81FFF7A1BC04460D4616460E20FFF782
:101FB0004BBC2DE9F041FFF74BFF070011D0069A0B
:101FC000FFF775FE3C813E74FD6000F067FA78749F
:101FD000FFF78AFC3946BDE8F0410FF2A512FFF782
:101FE000E5BCFFF796BDF8B5FFF7DDFF07000BD0A6
:101FF0004322FFF75CFEFFF7D1FF3946BDE8F8400A
:102000000FF29D12FFF7D2BCF1BD38B51446154A48
:1020100015682A0006D0009302460B46214601208F
:10202000A84732BD002032BD0F4A13681A0003D002
:102030000A4601460120184770470B490B681900F2
:1020400003D001460022032018477047B80A002039
:10205000E9210000EF210000F5210000FF21000030
:10206000011C0000181600201C1600202DE9F0416C
:1020700000F00DF898460C20FFF7E6FB070004D0AF
:1020800000F016F83C81BD7258E1FFF742BD0446EE
:102090000D46164670472DE9F041FFF762FE070036
:1020A00004D000F005F8BC60FD6047E1FFF731BDEA
:1020B00032460421FFF749BC2DE9F041FFF751FEFC
:1020C000070006D0FFF7F4FFFFF793FE3872FD60BC
:1020D00034E1FFF71EBD1078802802BF508840F21F
:1020E0007F6188420CD190884FF680710140B1F534
:1020F0007E4F04BF00F07F00984201D1012070475D
:10210000002070470023E6E71123E4E71223E2E70B
:102110000A23E0E70623DEE70723DCE70823DAE704
:102120001023D8E73023D6E73123D4E70D23D2E7B5
:1021300080B5122300930123FFF73FFD02BD00008D
:102140003623C8E73723C6E71078802802BF5088B7
:1021500040F27F6188420DD190884FF68071014036
:102160004FF68052914204BF00F07F00984201D1A7
:102170000120704700207047062300F01CBA0000C1
:1021800070B5FFF784FF1D23FFF7DEFF30B932463D
:1021900029462046BDE870401B23D5E7012070BDCD
:1021A0004323D1E71078802802BF508840F27F6136
:1021B00088420CD190884FF680710140B1F57D4F77
:1021C00004BF00F07F00984201D101207047002039
:1021D000704700000123E5E70B23E3E70D23E1E768
:1021E0001323DFE71923DDE780B51323A2E780B5CA
:1021F00014239FE780B50223009304239CE780B556
:1022000007230093042397E70098C279816820464A
:1022100001F0B0BE000000F077F802BD00F05EF8FB
:1022200002BD0FF2491141F209003BE080B50FF207
:10223000451100F0C4F841F20540EFE780B50FF218
:102240003D1200F0E4F842F21700E4E7F8B500F0C0
:1022500017F8070012D0812038703C720120F87006
:102260007D7242F21E00B880BE72FFF73DFB394618
:10227000BDE8F8400FF20D12FFF798BB0420F2BD45
:1022800004460D4616460C20FFF7DEBA80B50FF265
:10229000FD0100F094F842F21D00BFE70FF2F501D6
:1022A00042F21F0070B504460D4600F014F8060017
:1022B0000CD081203070B4800120F070FFF714FB47
:1022C0002A463146BDE87040FFF770BB042070BD60
:1022D00000208DF804000820FFF7B6BA2DE9F04180
:1022E000FFF7D5FE98460E20FFF7AEFA070009D09B
:1022F00000F01CF83D817E81A7F80C80FFF7F4FA0E
:10230000069A1EE0FFF705BC2DE9F041FFF7A0FD9E
:10231000070009D000F00AF8BD60FE60C7F8108021
:10232000FFF7E2FA069A0CE0FFF7F3BB8120387062
:102330000120F870BC8070473D81FE60FFF7D4FA41
:1023400042463946BDE8F041FFF730BB107880289F
:1023500002BF508840F27F61884204BF9088984253
:1023600001D10120704700207047000041F20903AD
:10237000ECE7000041F20543E8E7000042F21703F2
:10238000E4E7000042F21E03E0E7000042F21D0312
:10239000DCE7000042F21F03D8E780B50FF22D11F1
:1023A00000F00DF84FF6014006E080B50FF2251160
:1023B00000F005F84FF60240FFF790FF02BD0091D4
:1023C000002301460022704780B50FF2111200F081
:1023D0001EF84FF60540FFE7FFF796FF02BD80B5F8
:1023E0000FF20111FFF7EBFF4FF60740E4E780B56E
:1023F0000FF2F901FFF7E3FF4FF61A40DCE780B573
:102400000FF2F10200F003F84FF60840D4E7009213
:1024100000230A46014670470FF2E1014FF60940DA
:1024200040E780B50FF2DD01FFF7C9FF4FF60A4024
:10243000C2E70FF2D9014FF60B4033E780B50FF238
:10244000D501FFF7BCFF4FF60C40C5E780B50FF292
:10245000CD01FFF7B4FF4FF60D40ADE70FF2C50118
:102460004FF60E401EE780B50FF2C101FFF7A7FF40
:102470004FF61140A0E780B50FF2B901FFF79FFFBB
:102480004FF6134098E780B50FF2B102FFF7BFFF98
:102490004FF6144090E73C817D81BE81414650203B
:1024A000FFF730BA80B50FF29D01FFF788FF4FF6B6
:1024B0001D4081E780B50FF29503009313460A464D
:1024C00001464FF6204087E7000000004FF6014329
:1024D0003CE700004FF6024338E700004FF60543A3
:1024E00034E700004FF6074330E700004FF61A4389
:1024F0002CE700004FF6084328E700004FF6094399
:1025000024E700004FF60A4320E700004FF60B4394
:102510001CE700004FF60C4318E700004FF60D4390
:1025200014E700004FF60E4310E700004FF611438A
:102530000CE700004FF6134308E700004FF6144382
:1025400004E700004FF61D4300E700004FF620436C
:10255000FCE6F8B5FFF7EFFC07000DD0012200F014
:1025600022F83C727D7200F023F83946BDE8F8404D
:102570000FF27502FFF71ABA0420F2BDF8B5FFF7A3
:10258000DAFC07000DD0022200F00DF83C727D72DB
:1025900000F00EF83946BDE8F8400FF25102FFF79F
:1025A00005BA0420F2BD0521FFF7CFB93C81BD7209
:1025B000FE60FFF799B91078802802BF508840F27A
:1025C0007F6188420DD190884FF6807101404FF6AF
:1025D0008062914204BF00F07F00984201D1012047
:1025E00070470020704700000123E4E70223E2E780
:1025F00038B5FFF7CFFC05000CD00422FFF7D3FF5E
:10260000AC60FFF771F92946BDE838400FF235029A
:10261000FFF7CCB9042032BD1CB500200190FFF7B4
:102620005AFE04000BD00522FFF7BDFFFFF75CF94F
:1026300001A9009104230FF21102FFF764FC019835
:1026400016BD00000423B6E70523B4E70FF26023AC
:10265000944810221321FFF746BA00002DE9F043F9
:102660000024082885B00E4691468F4F00F28A80DC
:10267000DFE800F0050C1824303C48537D00082E9C
:1026800076D13246494607F1080076E0152E77DA12
:10269000152107F11000FDF707FD3246494607F105
:1026A00010006AE0152E6BDA152107F12800FDF7FE
:1026B000FBFC3246494607F128005EE0152E5FDA42
:1026C000152107F14000FDF7EFFC3246494607F1BE
:1026D000400052E0152E53DA152107F15800FDF79E
:1026E000E3FC3246494607F1580046E0152E47DA2A
:1026F000152107F17000FDF7D7FC3246494607F176
:1027000070003AE0152E3BDA883715213846FDF780
:10271000CBFC3246494638462FE00820ADF8080089
:102720000420ADF80A00039602A8DFF88081D8F8EB
:1027300000108847C8B9049DBDB1786807F1A001B1
:1027400088420AD00821ADF8001001900521ADF8AB
:1027500002106846D8F80010884732464946284695
:1027600001F008FC7D603E700DE013240BE0072EA5
:1027700006D13246494607F1B00001F0FBFB02E00A
:10278000182400E00224204605B0BDE8F0830000D4
:1027900010B5024600240846082A434923D8DFE83A
:1027A00002F005080B0E1114171A1D00082208313B
:1027B00016E01422103113E01422283110E0142204
:1027C00040310DE0142258310AE01422703107E044
:1027D0001422883104E00A78496801E00722B03108
:1027E00001F0C8FB00E00224204610BD2DE9FE499F
:1027F00090464A680A9C107852780B9D00EB0220A4
:102800001F46002680B242F62322274B801A03EB94
:10281000040C07D0401E052810D9801F1ED0263872
:1028200029D03AE0092C28D2C4F10800854228BFFB
:10283000C4F108053D800CF1080129E0D1F80CB085
:10284000584602F005FC80B2A04216DB011B8D4207
:10285000A8BF051B3D800BEB040119E01878014669
:10286000A1420AD3001B8542A8BF0D1B3D805868BA
:102870003A8801190DE0082C01D307260FE0C4F1B6
:102880000700854228BFC4F107053D800CF1B00167
:102890003A88404601F06EFB01E03E800A26304651
:1028A000BDE8FE895C030020A402002094040020FF
:1028B000ED2700000000000000000000DFF800F03D
:1028C000D9C10110DFF800F013C10110DFF800F0EA
:1028D00025B10110E0B50821ADF8001001900421E8
:1028E00000F00FF808B100200EBD02980EBD00B533
:1028F00083B00821ADF800100190052100F001F827
:1029000007BDADF802106846DFF85417096808479C
:1029100000B58FB008233C2200216846FFF7CEFFA8
:10292000DFF8400700F150010791002340F2EE214B
:1029300008916A46012106910FF25901FFF7C6FF7F
:102940000FB000BD10B584B00820ADF80000012024
:10295000DFF80C17DFF810470968ADF80200684689
:1029600088479DF804000FF2C1112070029820647E
:10297000152002F005FD2078FFF770F804F15800EB
:10298000FEF723FF606402F003FEFDF755FE002012
:1029900020711FBD10B5DFF8D04682B004F10C01E4
:1029A000002002F053FC40F25A20A0811320206145
:1029B0000C20606140F21220E08104F10C0002F072
:1029C0005DFC0020FFF7BEFF0020009000230022E6
:1029D0000121552000F0C4F8206C4FF0FF334FF078
:1029E0004042002102F069F900F001F8F4E7F0B587
:1029F00085B00820ADF808000920DFF86456DFF83C
:102A000068462968ADF80A0002A888479DF80E10AC
:102A1000049E50BBBDF80C00102804BF20788142F2
:102A200011D1307891280BD0922805D0B02804BF5E
:102A30003046FDF749FE06E0304600F05EF802E061
:102A4000304600F053F886B10820ADF800000320AE
:102A5000ADF80200019668462968884705E0687865
:102A600002F0F0FE2846FFF742FF606CFFF72AFFF6
:102A7000B8BB606CFEF7D6FE0500F6D028780128BA
:102A8000EDD0022829D01028ECD16E68F1788809A1
:102A900011281BD203281EBF04EB8002926C002A6F
:102AA00014D0002300E05B1C04F1080717F800C0F5
:102AB000DFB267450AD2DBB232F83370B942F2D1E5
:102AC00002EBC30130464968884702E0304600F017
:102AD00036F9304602F088FCC4E76878FDF72AFE34
:102AE000C0E705B0F0BD014601200CE041780E2999
:102AF00014BFFF2900F041B9704741780E2908BF83
:102B000000F03BB9704738B504460D460820FFF782
:102B1000E1FE38B10470457000F01CF8BDE83840A3
:102B2000FEF75ABE31BD000010B504460820FFF77D
:102B3000D1FE50B11021017000214170446000F0BD
:102B400009F8BDE81040FEF747BE2046BDE810403A
:102B500002F04ABC0246DFF81035196C586C704719
:102B60002DE9F0478246884614469946002504B16F
:102B7000012505EB0907B8B202F029FC060010D0C8
:102B8000378086F802A086F8038015B17168207836
:102B900008704A4670680899284401F0EBF93046FD
:102BA00031E0BDE8F0872DE9F04792460026BAF102
:102BB000000F80461D4618BF0126099C7019201879
:102BC000894680B202F003FC07001AD06019301861
:102BD000388087F8028087F803901EB179689AF8E8
:102BE000000008702A4678680899801901F0C2F937
:102BF00078680A99AB192246184401F0BBF93846A7
:102C000001E0BDE8F087BDE8F04702F09ABB2DE98E
:102C1000F8430446DFF8540400880025044288463F
:102C20001646994636D1B8F1000F0AD0F01C80B292
:102C3000FFF750FE07001AD098F80000B870012581
:102C400005E0B01C80B2FFF745FE07000FD03C70D6
:102C5000200A7870300005D0781932464946801C29
:102C600001F088F97019831C00979BB209E00220DB
:102C7000FFF730FE07000DD03D7080207870009780
:102C80000223002205215520FFF76AFF3846BDE8E0
:102C9000F2432CE6BDE8F183E0B501A803F0F2F8B9
:102CA00001A8009006230022102109E000B583B09E
:102CB00001A803F0F0F801A80090042300220621E7
:102CC0005520FFF74DFF07BD00B585B001A803F003
:102CD000FFF80DF1050000900C2301AA03215EE22C
:102CE00000B583B001A803F020F901A800900423E7
:102CF000002208217520E4E7E0B500F055FA01A9AB
:102D0000BDF80800ADF8040002A803F014F901A80A
:102D100000900223002202217520D2E71CB54468EE
:102D20000088811E89B2204603F009F916288DF823
:102D3000040003D00094022300F059F913BD00B53C
:102D400083B081788DF8041001A9C2784A70862278
:102D50008A7080784009012807D100200090002364
:102D6000002207217520FFF7FBFE01AB03220021A3
:102D70004FF40040FFF74BFF07BD30B587B083210C
:102D80008DF8041041F209048288B749131B23D03F
:102D90004FF47F741B1B33D040F612441B1B00F012
:102DA000DF809B1F012B46D99B1E5AD04DF6E23483
:102DB0001B1B012B04D91B1F00F0BC809B1E072B83
:102DC00040F2A0800A3BFBD0DB1E60D09B1FF7D0F7
:102DD0009B1F00F0D880F2E0092200F00CF902BF3E
:102DE000CA888488A24212D100F00FF9097800291C
:102DF00005D18DF80410062200F0E9F80823DAE086
:102E0000052200F0EAF802BFCC888588AC4240F089
:102E1000CF8000F0D6F8F2D1491C0BD000218DF8FC
:102E2000041005238168497891700021D170806871
:102E3000C0781071BFE08DF808208288120A8DF8E2
:102E400009200A79012A02BFCA8883889A4204D1DC
:102E500000220A718068007800E08C2000F0A7FA58
:102E6000A9E01F2200F0B9F802BFCC888588AC42E7
:102E700067D100F0A6F8F3D1491C07D000218DF8E6
:102E800004100423806840789070D17093E014227D
:102E90008DF8082002AA83881B0A53700B79012B36
:102EA00002BFCB888488A34228D100230B7181689C
:102EB00089780B001BD100218DF804100B23816849
:102EC000C978917081680979D17000211171816888
:102ED00089795171002191718168097A8DF80F10FB
:102EE000002111728068807A5072917263E08DF8CF
:102EF000041003238068C07890705CE08C208DF80B
:102F000004005CE08DF806208288120A8DF8072004
:102F10000A79012A02BFCA8883889A4204D1002212
:102F20000A718068807800E08C2000F040FA0DF192
:102F3000060041E0052200F05EF802BFCA888488DE
:102F4000A24235D100F061F88978002933D18DF89B
:102F5000041011228068811C00F03BF813232AE042
:102F6000172200F048F802BFCA888488A2421FD105
:102F700000F04BF80978F1B98DF80410102200F038
:102F800026F8122317E0202200F035F802BFCA8885
:102F90008488A2420CD100F038F8897859B98DF8AC
:102FA00004100C228068C11C00F013F80E2302E00C
:102FB0008C208DF8040002A8009000F018F807B0EB
:102FC00030BD00240C7181680C78002C704780683B
:102FD000411C0DF10A0000F0CDBF8DF8082002AAB7
:102FE0008488240A547002230C79012C704701AAAA
:102FF00004215520B4E58DF8082002238288120AA6
:103000008DF809200A79012A704700220A71816827
:10301000704700B585B000218DF80010416809782F
:103020008DF8041000F0C4FAADF8051000F0BAFAFB
:10303000ADF807100E4909788DF809104068407BFB
:103040008DF8110001A802F067FC8DF8000028B18E
:103050000023002269460820FFF7D9FD05B000BD16
:1030600094040020501B002044060020C01F0020B4
:10307000B207002002F0EBBC00B585B041680978CA
:103080008DF808104168491CCDF809100088411ED0
:10309000C9B202A802F00EFD00F0C5F84321552088
:1030A0007EE000B585B000F055F841688A78C978AF
:1030B00002EB0121ADF80A1041680A79497902EB67
:1030C0000121ADF80C1041688A79C97902EB012120
:1030D000ADF80E104068017A407A00F0F7F802A8C7
:1030E00002F03BFD00F063F9BDF808008DF8060022
:1030F00001AABDF80800000A8DF8070045210DF16E
:103100000600009055204BE080B5406802F078FD45
:1031100068B1FF208DF800008DF801006B46842017
:103120008DF80200032200210220FFF770FD01BD8F
:10313000E0B500F00FF840688178C07801EB00201E
:10314000ADF80A0002A802F074FD00F06CF8482106
:103150007520B6E541680A78497802EB0121ADF89F
:103160000810704700B585B000F01EF802A802F004
:103170006BFD8DF804000423BDF80800BDF80810AD
:103180008DF80C00090A03A801AA4170BDF80A10C5
:103190008170080A8DF80F00492103A8009075205E
:1031A000FFF7DEFC05B000BD40680178407801EB18
:1031B0000020ADF808007047E0B541680978ADF827
:1031C000081040684078ADF80A0002A802F086FDB9
:1031D00000F029F84A21752073E580B502F0DAFD88
:1031E00001000AD001218DF800108DF801006B4616
:1031F000022200214020FFF70AFD01BDE0B5406832
:103200000178427801EB02218278C07801EB02411B
:1032100001EB0060029002A802F0F3FD00F003F859
:103220004C2175204DE58DF804000023002000900E
:1032300001AA7047E0B5406800788DF8080002A840
:1032400002F081FDFFF7EFFF4D21752039E500B554
:1032500083B001884068491E0022C9B2FDF70CFC0A
:10326000FFF7E1FF812175202BE500B585B002A8AD
:10327000FDF7B0FE8DF8040004230DF10900009065
:1032800001AA84218BE700B587B0406801784078B7
:1032900000F01CF803AA05A904A8FDF757FF8DF854
:1032A00014000223BDF81000ADF8150005AADDF8E2
:1032B000170002908521BDF80C0001900DF115005A
:1032C00000907520FFF76FFC07B000BD01EB0020F8
:1032D000ADF81000704700B585B0FFF73BFF01AABD
:1032E0004168891CCDF80A100088811E89B202A8A5
:1032F000FDF742FF8DF8040000F016F986214EE735
:10330000E0B501884068891E02AA89B2FEF7A1F8DB
:10331000FFF789FF8C217520D3E430B585B045686F
:103320000DF1060203A92846FEF7ACF88DF804005B
:10333000BDF80600801C80B2FFF7CCFA04001CBF69
:10334000DDF80E00002818D02878207068786070AA
:10335000BDF80620DDF80E10A01C00F00BFEBDF835
:1033600006000094831C9BB201AA8D2100F054F842
:10337000DDF80E00FFF7BBFA14E0872000F017F825
:1033800028788DF8080001AA68788DF809008D2149
:1033900002A8009000F040F8DDF80E0008B1FFF739
:1033A000A6FA14B12046FFF7A2FA05B030BD8DF899
:1033B00004000223704710B504468AB060680078A4
:1033C0008DF80C0060684178807801EB0020ADF842
:1033D0000D006068C0788DF80F0060680179407951
:1033E000FFF774FF2088821F6068811D0DF11200B5
:1033F00000F0C0FD2088811F02AAC9B203A8FDF712
:10340000F4FCFFF7D4FF0DF10900009001AA82211E
:1034100000F002F80AB010BD7520FFF7A1BB10B58F
:103420008EB0416809788DF8101000249DF81020A6
:103430000121D20705D54168491CCDF8111001249E
:1034400006219DF81020920706D542680A441331E0
:10345000CDF81520C9B2641C9DF81020520706D57E
:1034600042680A44491CCDF81920C9B2641C9DF871
:103470001020120706D542680A44C91DCDF81D2048
:10348000C9B2641C9DF81020120619D54268525C1E
:103490008DF80420491C4268C9B2641C00F024F86D
:1034A000ADF80520C9B2426800F01EF8ADF807205B
:1034B000C9B240680844CDF8090001A8CDF8210040
:1034C0000AA904A8FDF7D7FC010018BF8DF8280051
:1034D0000AA800902404E00B831C9BB200228321E5
:1034E000FFF79AFF0EB010BD535C0A44891C527856
:1034F00003EB022270471CB54468B0F90000811F3D
:1035000009B22046FEF718F88DF8040010B960796A
:10351000C00708D52088ADF8050000F005F889211E
:103520005520FFF71DFB13BD02230DF10500009090
:1035300001AA704780B500F009F8FDF716FA01BD41
:1035400080B500F003F8FDF70FFA01BD4168097876
:103550008DF8001040684178807801EB0020ADF8CC
:10356000010068467047E0B5416809788DF80010A1
:1035700000F01EF8ADF8011000F014F8ADF80310DB
:1035800041684A79897902EB0121ADF8051041685B
:10359000C91DCDF807100088C11F89B26846FDF724
:1035A0003AF907BD4168CA78097902EB01217047F1
:1035B00041684A78897802EB012170472DE9F04E85
:1035C000DFF89C799246002640F2013B0C46BA781F
:1035D0007B7997F804C097F80190B0EB0B0540F6A3
:1035E0007B4132D06D1E38D06D1E3DD0AD1E41D016
:1035F0006D1E00F07A806D1E00F07D806D1E00F063
:1036000087806D1E00F094806D1E00F099806D1E05
:1036100000F09E806D1E00F0A5806D1E00F0AA8057
:10362000ED1E00F0AF806D1E00F0B4806D1E00F046
:10363000B9806D1E00F0BE806D1E00F0C3806D1F4E
:1036400000F0CB80AD1E2DD0E1E0102C40F0DD80ED
:103650001022514607F1A40081E0102C69D11022FC
:10366000514607F1B4007AE0042C62D1DAF8000088
:10367000F862D7E0012C5CD1012B34D09AF800001D
:103680003871BCF1000F06D00028F2D1022A19D0FF
:10369000052AEED116E00028EBD0012A1FD0042A1B
:1036A0001BD11CE0012C44D1BCF1010F1BD09AF8B6
:1036B0000000787153B1002807D1032A1CBF072AE4
:1036C000052A02D14846FEF7BAFBABE00028FCD041
:1036D000012A1CBF042A062A01D0052A02D1012092
:1036E00000F039FC9EE012269CE0022C21D1BAF8B1
:1036F0000000B88396E0202C0BDA07F1CC0600F02E
:1037000094F800F09AF8BC713346224601210BE090
:10371000202C7ADA07F1EC0600F087F800F08DF83B
:10372000FC713346224600214846FEF76AFB76E0EC
:10373000012C6AD19AF80000052866DA387271E027
:10374000012C62D19AF8000004285EDA787269E0F0
:10375000062C5AD14FF4867006225146384400F0A8
:1037600009FC5FE0012C50D19AF8000008284CDADF
:10377000B87257E0012C48D19AF80000042844DAC6
:10378000F8724FE0012C40D19AF8000006283CDA8C
:10379000387447E000F04DF837D1821F8A4234D2A6
:1037A00078823FE000F045F82FD1821F8A422CD268
:1037B000B88237E000F03DF827D1B0F5FA7F24DA7F
:1037C000F8822FE000F035F81FD1A0F10A0140F691
:1037D0007742914219D2388324E0012C04BF9AF831
:1037E0000000012811D107F18000FDF7DEFF50B97C
:1037F00007F1100100F062FB060013D107F15C0035
:10380000FDF7DAFF0EE016260CE018260AE028285D
:1038100007DA022C05D1BAF80010FEF723FB0646A2
:1038200000E002263046BDE8F08E1F213046FCF74E
:1038300037BCBAF80000022C704722465146304689
:1038400000F098BB38B500244FF440730D46C21AFF
:10385000DFF80C1736D0521E36D0521E37D0521E0B
:1038600038D0521E39D0521E3AD0521E3CD0521E71
:103870003CD0521E3DD0521E3ED0521E3ED0521E53
:103880003ED0521E40D0521E40D0521E40D0921EFA
:1038900040D0521E40D0521E40D0521E40D0521E28
:1038A00040D0521E40D0521E46D0521E46D0521E0C
:1038B00046D0921E48D0521E14D0521E42D0521EE4
:1038C00044D046E0C87842E01022A43130E0102213
:1038D000B4312DE0C86A286042E00622C43127E0F6
:1038E000087934E0487932E0888B36E08A79CC3147
:1038F0001EE0CA79EC311BE0087A28E0487A26E01D
:1039000006224FF4867012E0887A20E0C87A1EE022
:10391000C88B22E0087C20E0488A1EE0888A1CE0F0
:10392000C88A1AE0088B18E006224FF48A70014416
:10393000284600F01FFB13E0088C0EE0488C0CE0DA
:10394000888C0AE0087B02E0887800E0487B2870D9
:1039500006E0282803DAFEF79CFA288000E002241B
:10396000204632BD1CB5DFF8F845A17881B900B119
:10397000206304F12C00019004F1B400009004F1E4
:10398000A403E17860780022FEF7F2F9002016BD6A
:10399000112016BD10B1DFF8C81548637047DFF875
:1039A000C0058178062918BF072904D1C18B40784A
:1039B0001322FEF707BA1220704700B58FB0082314
:1039C0003C2200216846FEF779FFDFF8980500F1F8
:1039D0005001079100234FF4DC7108916A460321DE
:1039E00006910FF2D101FEF771FF0FB000BD70B567
:1039F00084B00820ADF800000120DFF86C15DFF876
:103A0000604509680FF26955ADF802000026684666
:103A100088479DF8040060700298A0620020A070A2
:103A20004FF6FF70E083FEF756FA20700023012066
:103A30000190002200200090294604F13800FDF793
:103A40007BFE022000F02FF804F15C00FDF774FE0D
:103A5000042000F028F804F18000FDF76DFE04203A
:103A6000E07004F1A40200200021002300252BC2F5
:103A700004F1B405103A4BC5E06220726072E17245
:103A80000720A07210210220FEF763FD103D2A4698
:103A900010210320FEF75DFD04F12C020421042017
:103AA000FEF757FD7FBD019000230020009000220B
:103AB000294670472DE9F04184B0FFF798FFDFF801
:103AC000A054DFF8A44405F18008A86ADFF89C241C
:103AD0004FF0FF33002101F0F0F806004DD0082030
:103AE000ADF800000920ADF802006846216888475B
:103AF0009DF80610029F00283FD1BDF80400102851
:103B000004BF687881422DD138884FF6FF71884212
:103B100009D17888400425D505F12C020421042020
:103B2000FEF72CFD1EE03878A22805D0D02804BF6F
:103B3000384600F06AF815E07879132812D13889F0
:103B4000012804BFA87B022805D14046FDF734FEBA
:103B5000FFF725FF06E00520FEF79BF901464046EA
:103B6000FDF70EFE4FB10820ADF800000320ADF8C0
:103B700002000197684621688847F0072CD56879CC
:103B80002979014328D018B103208DF800000DE0F9
:103B9000287A8DF800000622687A8DF801004FF42B
:103BA000867029180DF1020000F0E4F9A87A8DF86A
:103BB00008006946E87A8DF809006878FEF71DF973
:103BC00000281FBF0820A870286B002804D00168B7
:103BD00008001CBF08208847B00704D505F1100174
:103BE000002000F06BF9700706D5A87B012804D0EF
:103BF000022808BFFFF7D3FE67E700902B8BEA8A05
:103C0000A98A688A00F08FF95FE7FEB5D44DA978DC
:103C10004FF48A730446EE18A2786879130005F110
:103C2000800715D0022A3CD0032A18BF042A5CD092
:103C3000052A00F07F80062A00F0AC80072A00F0F9
:103C4000CD800F2A00F0E580112A00F0E780F7BD53
:103C5000607801001AD105F1A40210210220FEF7BC
:103C60008DFC05F1B40210210320FEF787FC06222B
:103C7000E11C05F1C40000F07DF90120A87005F1F8
:103C8000CC03AA7968780121FEF7BBF808B10820B7
:103C9000A870286B20B1016808001CBFA87888476D
:103CA000F7BD6278EAB9E27842B1EA79687805F15D
:103CB000EC030021FEF7A5F8607012E0022918BF9E
:103CC00007290ED0062902D101280AD101E00329D3
:103CD00007D005F13800FDF768FD10B9012000F0AC
:103CE0003AF960780028DBD0D1E763780BBB2B79F9
:103CF000032A08D1062908BF0720C9D0002B0CBF12
:103D000003200220C4E7A98B0A0006D018430AD07A
:103D100005F13800FDF734FD05E0012B07BF002059
:103D2000287100206871A878072814BF0420062095
:103D3000AEE7ACE76078010026D10622211D3046AF
:103D400000F018F96089E8830620A870E0892884CB
:103D5000208A6884608AA884E0782873287C0128F7
:103D600018BF022809D11F20FEF793F84FF47A718B
:103D7000414305F15C00FDF703FD6289E07804230F
:103D8000211DFDF789FE84E73128D2D1002028715A
:103D900004207DE7A088FDF796FE0621FFF746FD8B
:103DA000002028846884A884A079687305F15C00E9
:103DB000FDF702FD3846FDF7FFFC4FF6FF70E88384
:103DC000687908B1032063E7A07908280CBF0520B3
:103DD0000420A870012000F0BEF85AE73846FDF72D
:103DE000EBFC6078002813D1E0882884208968845F
:103DF0006089A88405F15C00FDF7D7FC002807D195
:103E00006B6B002B04D0AA8C698C288C1B6898479C
:103E1000F7BDA0880521FEF717F8F7BDA088ADF81B
:103E20000000287C052803D100208DF80A0041E01D
:103E300001208DF80A0005F15C00FDF7BDFC287C2F
:103E4000012818BF04281AD1688AE188814228BF56
:103E50000846ADF80200A98A2089884238BF084682
:103E6000ADF80400E98A6089884238BF0846ADF899
:103E70000600298BA08988421AD2084618E0032838
:103E800018BF02280AD1688AADF80200A88AADF8E6
:103E90000400E88AADF80600288B09E0E088ADF858
:103EA00002002089ADF804006089ADF80600A08901
:103EB000ADF808006846FDF781FFF7BDFEB50F4677
:103EC000274D7A880446288C904224BFB9888142C5
:103ED00007D3688CF988884202BFA88C3989884248
:103EE0001ED00520FDF7D5FF0646E88BADF8000093
:103EF0007888ADF80200B888ADF80400F888ADF80D
:103F000006003889ADF808006846FDF752FF070043
:103F100007D1AC73314605F18000FDF731FC00E0BC
:103F200018273846FEBD3EB50D4CA578062D01D0AC
:103F300014203EBDADF80200ADF80410ADF8062027
:103F4000ADF8083004F15C00FDF736FC06986946D0
:103F5000FFF7B4FF3EBD01460148806A00F017BF7D
:103F60002805002008170020940400200700008086
:103F7000F1E7000062B38B0708D0521E11F8013B35
:103F800000F8013B00F024808B07F6D1830740F056
:103F9000208000BF103A07D330B4B1E83810103A8F
:103FA000A0E83810F9D230BC530724BFB1E808109C
:103FB000A0E8081044BF51F8043B40F8043BD20786
:103FC00024BF31F8022B20F8022B44BF0B7803707A
:103FD0007047083A07D3B1E80810083A40F8043BA4
:103FE00040F804CBF7D25307E4E7000030B50122D4
:103FF0000023C45CCD5C95EA040F01D0002202E0EE
:104000005B1C0B2BF5DB104630BD0022022940F073
:104010005A810178407801EB002080B241F602011C
:10402000401A00F0AC80401E00F0AC80401E00F052
:10403000AC80401E00F0AC80401E00F0AC80401E02
:1040400000F0AC80401E00F0AC80401E00F0AC8060
:10405000401E00F0AC80401E00F0AC80801E00F0DE
:10406000AC80401E00F0AC80401E00F0AC80401ED2
:1040700000F0AC80401E00F0AC80401E00F0AC8030
:10408000401E00F0AC80401E13D0801E00F0AA80BD
:1040900041F2F001401A00F0C9804FF48071401ADB
:1040A00000F0A680401E00F0A680113800F0A68027
:1040B000401E00F0C780C01E00F0AC80401E00F023
:1040C000AC80401E00F0AC80C01E00F0AC80401EF2
:1040D00000F0C4800F3800F0DC80401E00F0C48087
:1040E000401E00F0BE80401E00F08B80401E00F09D
:1040F000AC80401E00F0AF80401E00F09A80401E51
:1041000000F09A80401E00F09A80103800F0A080E5
:10411000401E00F0AC80401E00F0AC80401E00F05D
:10412000AC80401E00F0AC80401E00F0AC80401E11
:1041300000F0AC80801E67D0401E68D0401E00F0AA
:10414000AB80801E00F0AB80801F00F0AB80401E73
:1041500000F0AB804DF29451401A46D0401E00F062
:10416000A780401E00F0A780401E00F0A780401EE0
:1041700000F0A780401E08BF0FF68012A3E00FF6E4
:10418000A802A0E00FF69C029DE00FF6A0029AE0C4
:104190000FF63C1297E00FF63C1294E00FF638123F
:1041A00091E00FF694028EE00FF6A0028BE0DFF8AC
:1041B000BC2488E00FF6241285E00FF6A80282E006
:1041C0000FF61C127FE00FF6AC027CE00FF6A8029F
:1041D00079E00FF6101276E00FF6AC0273E00FF6FE
:1041E000CC0270E00FF6DC026DE00FF6FC026AE034
:1041F0000FF63C0267E00FF63C0264E00FF63C026B
:1042000061E00FF63C025EE00FF638025BE00FF66D
:10421000380258E00FF6380255E00FF6380252E047
:104220000FF634024FE00FF634024CE00FF6300286
:1042300049E00FF6340246E00FF6300243E00FF695
:10424000300240E00FF670023DE00FF630023AE037
:104250000FF6300237E00FF6280234E00FF62C029A
:1042600031E00FF62C022EE00FF628022BE00FF6BD
:10427000280228E00FF6240225E00FF6240222E0AF
:104280000FF620021FE00FF620021CE00FF62002BE
:1042900019E00FF6200216E00FF6200213E00FF6E9
:1042A000200210E00FF620020DE00FF620020AE0D7
:1042B0000FF6380207E00FF6380204E00FF634027A
:1042C00001E00FF634021046704770B50025022950
:1042D0000646144602D1307871780AE0102948D198
:1042E00000F08CF918B900F085F9002841D0307B36
:1042F000717B00EB012080B24FF6CB61401A21D0D8
:10430000401E2BD0401E2CD0401E1ED0401E1FD061
:10431000401E20D0401E27D0401E0DD0401E0ED083
:10432000401E06D04FF48E71401A1FD10FF2B8759F
:104330001CE00FF2606519E00FF2983516E00FF2FD
:10434000E43513E00FF2EC3510E00FF2F8350DE034
:104350000FF200450AE00FF20C4507E00FF214459A
:1043600004E00FF2204501E00FF228450DB10220D4
:104370002070284670BD70B50024022906461546F7
:1043800040F09A803078717800EB012080B20128EB
:1043900000F0B180052800F0B180082800F0B1805D
:1043A0000D2800F0B1800E2800F0B1800F2800F039
:1043B000B180102800F0B180112800F0B1801228DF
:1043C00000F0B780132800F0B780142800F0B78001
:1043D000192800F0B7801A2800F0B7801C2800F0D8
:1043E000B7801D2800F0B7801E2800F0B7801F2876
:1043F00000F0B780202800F0B780212800F0B780B7
:10440000222800F0B780232800F0B780242803D0AA
:10441000252800F0B580262800F0B580282800F077
:10442000B580292800F0B5802F2800F0B58030280D
:1044300000F0B580322800F0B880332800F0B88052
:10444000342800F0B880352800F0B880362800F015
:10445000B880372800F0B8804C282AD04E2841D0A8
:104460004F2842D0502843D0512800F0B080522825
:1044700059D053285AD0542800F094804FF6F17147
:10448000884200F0A7804FF6F271884200F0A580C4
:104490004FF6F371884200F0A3804FF6F471884222
:1044A00000F0A1804FF6F571884208BF0FF2142486
:1044B0009BE00FF2105498E0102912D100F09EF802
:1044C00010B900F097F810B1307B717B5CE70FF208
:1044D000A415102229463046FBF7B0FD002800D174
:1044E0002C4685E00FF2EC447FE00FF2F8447CE0CC
:1044F0000FF2005479E00FF2AC2476E00FF2B4240E
:1045000073E00FF2002470E00FF2B8246DE00FF2B8
:10451000C4246AE00FF2CC2467E00FF2D82464E0F0
:104520000FF2E02461E00FF2EC245EE00FF2F424DD
:104530005BE00FF2003458E00FF2B81455E00FF2D0
:10454000043452E00FF20C344FE00FF218344CE018
:104550000FF2203449E00FF22C3446E00FF23434ED
:1045600043E00FF2403440E00FF248343DE00FF2F8
:1045700054343AE00FF25C3437E00FF2384434E060
:104580000FF2601431E00FF25C342EE00FF264346D
:104590002BE00FF2703428E00FF2781425E00FF2D0
:1045A000743422E00FF27C341FE00FF288341CE0F8
:1045B0000FF2903419E00FF29C3416E00FF2A4349D
:1045C00013E00FF2B03410E00FF2B8340DE00FF248
:1045D000D4340AE00FF2AC0407E00FF2B80404E0B0
:1045E0000FF2C00401E00FF2CC040CB110202870CF
:1045F000204670BD31460FF21C40F7E431460FF201
:104600000440F3E4FEB517460D4604463D7001F044
:104610009DFD060004D129462046FFF7F6FC06461C
:104620002EB93A4629462046FFF74FFE06462EB9D8
:104630003A4629462046FFF79EFE06469EB90820C8
:10464000ADF8000004200A490968ADF802000195A0
:104650006846884738B9029F2FB12A462146384616
:10466000FFF788FC3E463046FEBD0000C400000057
:10467000940400209A9396D7BD6AD9B51646D28184
:10468000FEF046DCFB349B5F8000008000100000E1
:10469000F1FF0000FB349B5F8000008000100000F1
:1046A000F2FF0000FB349B5F8000008000100000E0
:1046B000F3FF0000FB349B5F8000008000100000CF
:1046C000F4FF0000FB349B5F8000008000100000BE
:1046D000F5FF0000D2FE0000000000000000000016
:1046E00000000000915276BB260000800010000000
:1046F00025000000915276BB2600008000100000CB
:1047000013000000915276BB2600008000100000CC
:1047100008000000915276BB2600008000100000C7
:104720002F000000D3FE0000000000000000000089
:1047300000000000CBFE00000000000000000000B0
:1047400000000000CEFE000000000000000000009D
:1047500000000000CFFE000000000000000000008C
:1047600000000000D0FE000000000000000000007B
:1047700000000000CCFE000000000000000000006F
:1047800000000000CDFE000000000000000000005E
:1047900000000000D1FE000000000000000000004A
:1047A00000000000915276BB26000080001000003F
:1047B00001000000915276BB26000080001000002E
:1047C00005000000915276BB26000080001000001A
:1047D0000D000000915276BB260000800010000002
:1047E0000E000000915276BB2600008000100000F1
:1047F0000F000000915276BB2600008000100000E0
:1048000010000000915276BB2600008000100000CE
:1048100011000000915276BB2600008000100000BD
:1048200052000000915276BB26000080001000006C
:1048300053000000915276BB26000080001000005B
:1048400012000000915276BB26000080001000008C
:1048500014000000915276BB26000080001000007A
:1048600019000000915276BB260000800010000065
:104870001A000000915276BB260000800010000054
:104880001C000000915276BB260000800010000042
:104890001D000000915276BB260000800010000031
:1048A0001E000000915276BB260000800010000020
:1048B0001F000000915276BB26000080001000000F
:1048C00020000000915276BB2600008000100000FE
:1048D00021000000915276BB2600008000100000ED
:1048E00022000000915276BB2600008000100000DC
:1048F00024000000915276BB2600008000100000CA
:1049000028000000915276BB2600008000100000B5
:1049100029000000915276BB2600008000100000A4
:1049200030000000915276BB26000080001000008D
:1049300054000000915276BB260000800010000059
:1049400032000000915276BB26000080001000006B
:1049500033000000915276BB26000080001000005A
:1049600034000000915276BB260000800010000049
:1049700035000000915276BB260000800010000038
:1049800036000000915276BB260000800010000027
:1049900037000000D4FE000000000000000000000E
:1049A00000000000915276BB26000080001000003D
:1049B00051000000915276BB2600008000100000DC
:1049C00023000000915276BB2600008000100000FA
:1049D0004C000000915276BB2600008000100000C1
:1049E0004E000000915276BB2600008000100000AF
:1049F0004F000000915276BB26000080001000009E
:104A000050000000FB349B5F80000080001000001D
:104A100000000000915276BB2600008000100000CC
:104A20000000000003180000021800000418000035
:104A3000062A0000072A000008180000182A0000B3
:104A4000342A0000512A0000522A000009180000F0
:104A50001C2A00001D2A00001E2A0000212A000036
:104A6000062900000D180000372A0000382A00002F
:104A7000392A00000F18000010180000352A000025
:104A8000362A0000492A000012180000222A0000DD
:104A9000332A0000322A00004A2A00004B2A000074
:104AA0004C2A00004D2A00004E2A00001318000076
:104AB0004F2A0000312A000014180000532A000079
:104AC000552A0000161800005B2A00005C2A00002E
:104AD0000518000006180000071800000B18000059
:104AE0000E18000011180000F0FF0000F1FF000098
:104AF000F2FF0000F3FF0000F4FF0000F5FF0000EC
:104B0000DFF800F0F5C00110DFF800F049BA01103D
:104B1000DFF800F0E5C10110DFF800F021B301106B
:104B2000DFF800F095C00110DFF800F00DA80110CB
:104B3000DFF800F0BDBE0110DFF800F021C1011068
:104B4000DFF800F0A5B90110DFF800F021BA01107C
:104B5000DFF800F0BDC20110DFF800F0B5C10110B0
:104B6000DFF800F015B60110DFF800F019A701100A
:104B7000FEE7DFF89002007D70476EE038B5FFF782
:104B8000FCFFDFF888520446A8680021FFF7C8FF41
:104B90006969081AA969814238BF002084F3118825
:104BA00032BD2DE9F041FFF7E8FFDFF8605204461F
:104BB000A8680121FFF7B4FF0121A9830021E9833F
:104BC0006E6929682A68871B801A711A884204D284
:104BD0000020A88384F311882BE084F3118800243B
:104BE00006E0A61931460120FFF79EFF3F1B044651
:104BF000A742F6D2FFF7C1FF8046E88B012804D117
:104C000031460020FFF790FF0446A96914F1010F17
:104C100008BF084603D0E01B814238BF084681190F
:104C2000FFF786FF012028840020A8832E6088F3E8
:104C30001188BDE8F08100218182DFF8CC11C068C5
:104C40004969884204D1DFF8F4010068FCF752BDDD
:104C50007047808A7047704700BFDFF8E411096829
:104C6000EFF3118081F3118870470021DFF8D42120
:104C7000016012681044FCF74DBD38B50446FFF7DB
:104C8000EBFF0546207C022808D12046FFF754FFA1
:104C9000002020742946A068FFF752FF00F0D6B824
:104CA00003681A4003680B408B4208BF0A4312B1E5
:104CB000016891430160104670472DE9F0411F469D
:104CC00017F1010F18BF002F92B000F0B3F80AD00F
:104CD0006B463A46DFF8701108A8FFF735FF08A8C1
:104CE0000390022002E00020039003208DF81000C2
:104CF00006950796FFF70CFF0290FFF7ADFF804681
:104D0000324629462046FFF7CBFF050009D003981D
:104D100018B1FFF71DFF0020039088F31188284683
:104D200032E01FB988F3118800202DE0FFF7E8FE7C
:104D300005460299DFF80C01C1F818D069460068F1
:104D40002044FFF709FF0298FFF70AFF9DF81000C3
:104D5000022804BF0398FFF707FF88F3118828464D
:104D6000FFF7D2FEFFF778FF0446039818B1FFF76C
:104D7000EFFE0020039000200299886184F31188DF
:104D80009DF8100000B1059812B0BDE8F081F8B5AB
:104D90000446DFF8B00000680E462718FFF75CFFF6
:104DA00005462068304320603846FDF78BFD10B182
:104DB00085F31188F1BDFFF7A3FE06463846FBF7E1
:104DC00015FC0746FA69B9692046FFF769FF786163
:104DD00060B13846FFF7B0FE01203874F86808B1BA
:104DE000FFF729FFB8682946FFF7AAFE85F3118867
:104DF0003046BDE8F240FFF787BE2EE7DFF85400EB
:104E000080687047A401002078010020780100200C
:104E1000616280F311882046704738B504460D461C
:104E2000FFF7EBFF616A2943FFF7F2FFBDE832406D
:104E3000FFF772BE04460D461646704724B30000C5
:104E40001CB3000028B300007B4C000085F31188E0
:104E500031BD0000C8010020816042607047102809
:104E600004D3DFF80C101038C1F8000F70470000B1
:104E700000E000E001F03ABAFFF7EFBEDFF898116A
:104E8000C20744BF01220A60820744BF4FF4807208
:104E90000A60400744BF4FF4803008607047DFF875
:104EA0007C21C30748BF1160830748BF516040079A
:104EB00048BF91607047000010B504460020D4E957
:104EC0000A2347F6906101F00BFD0123994228BFA8
:104ED0004FF0FF3010BD10B50C4601F079FD011DFB
:104EE000201AB0F1004F05D8081BB0F1004F38BFB1
:104EF0008C4200D20C462146BDE810400120CEE78E
:104F00002DE9F04180460A46D8E90A01D8E90C4566
:104F1000A0FB026701FB0277A6196F41340C002247
:104F200044EA07414046FFF7D6FFC8E90E67BDE8EF
:104F3000F081F8B50646FFF79FFF0446DFF8E05022
:104F4000DFF8E0700120E861FFF798FFF96A096A6D
:104F5000142088473069B0F5802F34BF0421010C3C
:104F60000120FFF79CFF3A68126823210020904738
:104F7000DFF8B41001200860DFF8B400016821F404
:104F8000E02141F4803101600120286084F3118820
:104F9000F1BD000001F026BD10B5DFF890004468B7
:104FA00000F006F86069A169BDE8104008470000FC
:104FB000012063E7F8B504460D4601F013FDD4E97E
:104FC0000A6732463B4601F08BFC3DB1A6FB00234D
:104FD00006FB013307FB0033C4E90C23F2BD10B517
:104FE000DFF83C00DFF84C40002101600121C16185
:104FF00021602068FFF7DCFFDFF848100968096AC4
:1050000014208847206810BD000080B501F0EAFC3C
:10501000000C40EA014002BD04200940182009406C
:10502000000024438401001080022443E401002096
:10503000002009402C200940DFF81000C08870478C
:1050400000000000B0010010FEE77047F0010020F2
:1050500000F10103810704D010F8011B89B1810719
:10506000FAD10268B2F10131914311F0803F04BFDF
:1050700050F8042FF6E710F8011B11B110F8011BCE
:10508000FBE7C01A70470000DFF800F019AE01100E
:10509000DFF800F021B90110E0B500F010F80421AC
:1050A00000F012F808B100200EBD02980EBD00B548
:1050B00083B000F004F8052100F006F807BD0821D0
:1050C000ADF8001001907047ADF802106846DFF8A7
:1050D0004C14096808472DE9F0418AB00820ADF862
:1050E00014000020ADF816003820ADF8180000209C
:1050F000DFF82844DFF828542168079005A888477E
:105100009DF8200068700998686422E0686C0421AA
:10511000FFF73DFEF0071CD595F90000C8B901F076
:10512000A1FC0646686B01F0DBFC0746304601F047
:10513000A4FC37B1384600F034F910B13846FFF717
:10514000B6FF686BFDF7BEFB18B9686C0121FFF76D
:105150001EFE686CDFF8CC234FF0FF330021FFF711
:10516000ACFD0600F5D001F07DFC01F086FCF006F8
:1051700048BF01F060FD300704D5286CFFF797FFAA
:1051800000202864B00706F0040717D501F02FFDB2
:10519000A0B9A86BFDF796FB20B92856002858BF88
:1051A000A86B09D5002F04BFE857002806D1286B4B
:1051B000FDF788FB10B9286B00F017F90820ADF84F
:1051C00008000920ADF80A0002A8216888470100FC
:1051D000BDF80C20049812D1002105EBC10393F80F
:1051E00008E072452FD0491CC9B20429F5DBFFF74E
:1051F00066FF0321ADF80210684621688847002F3A
:1052000088D095F9000001281CDA01F02BFC074634
:10521000E86B01F065FC8046384601F02EFCB8F1E1
:10522000000F09D02878401C2870404600F0B9F8DB
:1052300010B14046FFF73BFFE86BFDF743FB00284A
:105240007FF468AF62E7D9688847D8E710B50C00EB
:1052500012D020460FF2D8213422FEF79BFE1034E4
:10526000204619F0E5FE00206075A0750120207031
:1052700060700020E07510BD082010BD30B5A84C4E
:105280000546A0780028ABB054D10120A07025B904
:105290001EA90020FFF7DAFF1EAD002020640021C8
:1052A000FFF7F6FE206300F048F8606300F045F871
:1052B000E06300F042F8A06305F110016888ADF8E2
:1052C0000000242268680190A8680290287B8DF86D
:1052D0000C00687B8DF80D0004A8FEF75BFE0FF252
:1052E0008420D0E90023CDE90D23684601F019FCA4
:1052F00020218D48FAF7D8FE202104F10800FAF7A2
:10530000CFFE08233C2200210FA8FDF7D7FA2888FA
:10531000FFF7C2FEE06268B116900022288817905D
:105320000FA9022015908148FFF7AEFEA06208B1D8
:10533000002000E007202BB030BD00210020FFF747
:10534000A7BE70B5044601F08DFB0646A2787448EE
:1053500000255209416C012A04D00BD3032A01D045
:1053600002D307E0806B00E0006B2346022201F0CD
:105370008FFB00E00425304601F07FFB284670BD1E
:1053800030B50022684B03EBC204656825B903F809
:1053900032006160002030BD521C042AF3DB012082
:1053A00030BD10B58178604B01F01F01002213F869
:1053B0003240A14205D103EBC20149688847002071
:1053C00010BD521CD2B2042AF1DB022010BD10B570
:1053D000044604F1080080B2FFF75EFE18B10480B5
:1053E00000F10801416010BD61E6B0B5044601F06E
:1053F00039FB0546204601F073FB0446284601F0C0
:105400003CFB54B32088001D80B2FFF745FE050029
:105410000DD0208828702088000A6870A078A870B5
:10542000E078E87022886168281DFEF7A3FD3C4FF4
:105430003D6475B12088011D89B2284601F06DFCDC
:10544000A0784009012818BF032802D13878401EEF
:1054500038702046BDE8B04029E6B0BD70B582B0D6
:105460000C462F4DC0B32879401C28710121684695
:1054700001F03DFC9DF800600121684601F037FC19
:105480009DF8000006EB002080B2FFF7A0FF0600A9
:1054900022D00121B01C01F02AFC0121F01C01F0F6
:1054A00026FC3188706801F022FCB078696C4009F4
:1054B000012804D00DD3032801D004D309E0E86B00
:1054C0003346042202E0686B3346012201F0E0FA21
:1054D00002E03046FFF7EBFD002C1CBF286C0028D3
:1054E00006D0E878401CE8700821686CFFF74FFC94
:1054F000A86BFDF7E7F918B1286BFDF7E3F918B9C8
:10550000686C0221FFF743FC73BD30B90448406C5E
:1055100000281CBF1021FFF73ABC704794040020FC
:10552000201600201F00008068160020D7500000C1
:1055300000041202FFFFFFFFFFFFFFFF000000005B
:10554000000000000000000000000000000000005B
:10555000000000000000000000000000000000004B
:10556000000000000B5500005D540000E0B508216C
:10557000ADF8001001900421ADF802106846DFF884
:1055800008180968884708B100200EBD02980EBDB2
:105590001FB506211F20FCF765FC00F042F9ADF8AD
:1055A0000E006A4604208DF8010001215020ADF85C
:1055B0000C00A020ADF80A000020ADF808004FF460
:1055C0007A70ADF8060040F20530FDF7F7FF0DF1F7
:1055D0000E02022140F20630FDF7F0FFDFF8AC4783
:1055E00004F1200209214FF44270FDF7E7FF04F1B6
:1055F0002C02082140F20730FDF7E0FF00F01CFA12
:105600004FF44470FDF7DAFF03AA022140F2113093
:10561000FDF7D4FF0DF10A02022140F21230FDF72E
:10562000CDFF02AA022140F21330FDF7C7FF0DF1B2
:10563000060202214FF44570FDF7C0FF0820FFF776
:1056400095FFE06030B108212172082204F12C019D
:10565000FEF790FCA0210620FCF704FCA021072007
:10566000FCF700FCA0210820FCF7FCFBA02109208E
:10567000FCF7F8FB04F13800FEF78CF901208DF8F7
:1056800001006A4603208DF80000012101208DF8F9
:1056900005008DF804008DF8030021208DF802002C
:1056A00040F20340FCF732FC0DF10502012140F20B
:1056B0000640FCF72BFC00F0BFF94FF48060FCF7CC
:1056C00025FC01AA012140F20D40FCF71FFC0DF161
:1056D0000202012140F20740FCF718FC0DF1030221
:1056E00001214FF48360FCF711FC04F13C00FCF74E
:1056F000B8F91FBDF8B5DFF89446227E062840F2BF
:10570000073540F21B3740F2053629D1072904D16D
:1057100000F08BF80022694618E000F082F8D0070C
:105720006A4608D501213046FDF748FF012000F008
:1057300081F801200EE001213046FDF73FFF0020F7
:105740008DF80100002300220DF101011020FDF76A
:105750005EFA0020E076217C080061D0626933E0C7
:10576000E37E072852D004281CBF052803284BD10C
:10577000062918BF07292BD1900718D5607E73B171
:1057800003281CD0012020776A4600F04AF8012146
:105790003846FDF713FF01208DF800000AE00121D3
:1057A00003288DF800106A4606D1384605E000202F
:1057B00000F040F86A4601213046FDF7FFFE207CEC
:1057C00000282DD0E268217A2846FDF7F7FEF1BDCA
:1057D000227F032805D112B900F027F81AE0002033
:1057E00007E0EBB1022906D1002000F05BF90020B0
:1057F000E0762077F1BD9AB900F017F869461020DD
:10580000FDF705FA00200AE0022809D133B900F0BB
:1058100008F8002269460820FDF7F9F90120E07632
:10582000F1BD00208DF80000704700208DF80000C9
:10583000002370478DF800006A4601213846FDF7C5
:10584000BDBE0000F0B5DFF848556A882B78110A14
:105850000446671E052F87B040F20E3640F21D3019
:1058600053D8DFE807F003523D3B3D08A91C304602
:10587000FDF7E8FF49E0002B47D105A940F21530BC
:10588000FDF7E0FFA91C3046FDF7DCFF01A930461B
:10589000FDF7D8FF0DF1060140F21630FDF7D2FFFB
:1058A00002A940F21730FDF7CDFF0DF10A014FF4C8
:1058B0004670FDF7C7FF03A94FF44770FDF7C2FF1D
:1058C000062205A90DF10D00FEF754FB01AB0F22D6
:1058D00000210120FDF79BF9012015E0ABB100E0AC
:1058E0008BB18DF801108DF800200DF10201FDF74C
:1058F000A9FFBDF80000FAF7C9FE6B46032200219C
:105900000220FDF784F90020287069782046FFF70F
:10591000F1FE6C7007B0F0BD2DE9F8430646DFF8E4
:105920006C5405F13400FEF71DF83078002701288B
:1059300008BF84277DD040F21A3869464046FDF7FB
:1059400081FF9DF8000002281CBF0328072801D111
:105950008A276EE0B6F80100010012D04FF47A7188
:1059600090FBF1F0ADF802000DF1020202210120DE
:10597000FDF724FE0746721C02210020FDF71EFEE3
:105980000743B6F80310080019D00620FCF76AFA9E
:105990000446B6F803100720FCF764FA8146B6F80F
:1059A00003100820FCF75EFA49EA040140EA01040A
:1059B000B6F803100920FCF755FA2043074305F118
:1059C0001A02012140F20D30FDF7F8FD074332467F
:1059D000012140F20930FDF7F1FD384318BF87205F
:1059E00028D1707B00F00300287630786876032891
:1059F00010D100F025F89DF80000062807D1287C7A
:105A000028B1EA68297A40F20730FDF7D7FD00F0A7
:105A100043F80BE000F014F89DF80000062808BFDA
:105A2000862007D000F008F840F20530FDF7C6FDEB
:105A300007463846BDE8F2830DF1010201217047A7
:105A400001208DF8010069464046FDF7FBBE80B598
:105A500000208DF802008DF800000DF1020140F2E7
:105A60001A30FDF7EFFE9DF8020002281CBF032844
:105A7000072803D08B2000F015F80AE0002000F082
:105A8000B9F840F20530FDF799FD00F005F8FDF793
:105A900095FD9DF8000002BD0DF10102012140F2CB
:105AA0001B3070478DF8000000230022694610204B
:105AB000FDF7ADB82DE9F0410446DFF8D08284B09F
:105AC0000D4608F13400FDF74DFF2078002603282D
:105AD00001DB202D3CDB08EBC000406850B1082101
:105AE000ADF8041002900521ADF8061001A8A649F2
:105AF000096888472846FFF739FD0700207808EB3A
