:0400000500000C1BD0
:020000040000FA
:1000000000370020050C0000150C0000170C000044
:10001000190C0000190C0000190C00000000000071
:10002000000000000000000000000000190C0000AB
:10003000190C000000000000190C0000190C000051
:10004000190C0000190C0000190C0000190C00001C
:10005000190C0000190C0000190C0000190C00000C
:10006000190C0000190C0000190C0000190C0000FC
:10007000190C0000190C0000190C0000190C0000EC
:10008000190C0000190C0000190C0000190C0000DC
:10009000190C0000190C0000190C0000190C0000CC
:1000A000190C0000190C0000190C0000190C0000BC
:1000B000190C0000190C0000190C0000190C0000AC
:1000C000190C0000190C000010B5DFF824050468B5
:1000D00014F1010F08BF002400F04CFBDFF81415E9
:1000E000002008600120DFF810150860DFF80C150B
:1000F000086000F04CFADFF80805006828B1DFF866
:1001000004050068204600F022F8DFF8FC14DFF850
:10011000FC2400200860DFF8F80401686FF31B413D
:1001200011430160DFF8EC040168C1F301310129DA
:1001300007D10168DFF8E024114041F40032026089
:100140000160DFF8D80400680028FAD110BD70B54E
:100150000546DFF8CC0401210160DFF8C814096806
:100160000029FAD0DFF8C044DFF8C024C0212160A4
:100170005368DFF8BC149B075DBF13681B0C43F08A
:10018000F00372230B70002101639668304600F083
:1001900031F83146284600F061F8DFF89804816DA7
:1001A00089B240F20F22914214D201680068C1F373
:1001B0000361C0F3034001B1491E072805D006289A
:1001C0000EBF0720801C00F00F0041EA0010DFF88E
:1001D00068140870304600F0B2F8DFF8601409685F
:1001E000C96802208847402020600120DFF85014B1
:1001F000086070BD10B50446DFF848040068C0F31D
:10020000046000F0C0F92117491C08181628A8BF7F
:10021000152004DA6FF009018842B8BF084600F0E3
:100220001F00DFF8241440F4F8500880DFF81C04A5
:10023000006880074FBF44F040640020DFF81014CE
:100240000860DFF81004C4F3C06181F001010160AF
:10025000C4F3806181F00101816010BD70B5054675
:1002600082B0084600F0F0F80246DFF8EC431821AF
:1002700000F062F800F014F980B20090002340F220
:10028000FF322C21204600F0C4FADFF8D063F0687A
:10029000C0F30D021C2100F04FF8706800F0FC3232
:1002A000142100F049F83068DFF8B413DFF8B463C4
:1002B00001EA0002102100F03FF8284600F0FAF8A9
:1002C00002460C2100F038F8284600F01EF94000E4
:1002D00040F020003072284600F020F940F0100075
:1002E0003072284600F023F90246282100F024F855
:1002F000284600F001F9400040F06000F072284606
:1003000000F02FF9C00040F080003070284600F067
:1003100031F98000DFF8501340F47C400880284613
:1003200000F012F90246082100F006F8DFF83C134D
:100330004FF48000086073BD204600F065BAF8B540
:10034000810C01F003010129C94CC84D02D00229DA
:100350002AD026E0216A8A0323D44FF480422A60FF
:100360006FF08F06C34AD2F8023033404E0A06F0CF
:1003700080063343C1F303363343C2F80230C1F37E
:100380000326D2F801301B0946EA0313C2F80130F4
:100390006FF0E7061368334001F0E701194311607D
:1003A00002E04FF000412960B34EB44AB16809073A
:1003B0005CBF4021A9624FF400712964800D216A5D
:1003C000C90C01F0030141F0300110F0030011707D
:1003D00003D0022826D008D326E00121042000F013
:1003E0003BFAA74800F0F4F822E0012000F056FAAA
:1003F00007463946042000F02FFA042000F04EFA98
:10040000B842FAD1366826F07F4000F0E1F89D4B03
:100410001B681B684FF060220721300E98474FF48D
:1004200080602860032100E00221042000F014FA1B
:100430002068954900F03F00087047F6180093497E
:10044000088093480068F1BD92490968C1F383624E
:100450008303C1F38F2120D4000400164FF6FF73ED
:1004600007E0490804D11946520804BF01220121BE
:10047000401C0028F5D401280FDB490041F00101A0
:10048000B1F5803F21BF0121520042F00102102A44
:1004900024BF0F221946401EEDE741EA0240704793
:1004A0007C48016800680002C1F3870100F44070D5
:1004B0000843704730B55D4C77490A686568ED07B9
:1004C000C2F30351C2F303430AD42468250501EBA8
:1004D0002571240481F3040103EB247383F30403E3
:1004E0001B0443EA015193B21943222824BF02F0AE
:1004F00080400143084630BD0021202803D36748CF
:100500000068C0F30151084670470121222803D337
:1005100063480068C0F30071084670470121222833
:1005200003D35F480068C0F340710846704700215C
:10053000202807D359480068C10C01F44071C0F36A
:1005400084500143084670472028564907D3534832
:10055000554A0068810A02EA003040EA81510846A3
:1005600070470021222803D34D480068C0F3C061C2
:10057000084670470021222803D349480068C0F389
:100580004551084670471628A8BF203870472348B1
:1005900000680028FBD14548454A4168126889082F
:1005A000890041F0005141F00401520748BF41F079
:1005B00001010BD4026812F0030F07D041F00302CF
:1005C0004260026802F00302032AFAD141607047D8
:1005D000384982B20A60C0F3074048600120886051
:1005E000354800680028FBD0002088607047000074
:1005F0001C130050840460425C600C4008220443D9
:1006000080012843000120438C210840000039016B
:100610004820034004000940FFFFFCFC0C00684236
:10062000101009409402224300600C40AC3F00507F
:1006300056620840BC12005002600840A001001041
:1006400094046042B81200506E62084000000940F5
:1006500094042A430000204300A00C407013005073
:10066000FFFFFC0041A10C40DCA10C4040A00C406D
:100670006C1300500A600840A83F005008A10C40CD
:10068000BD378600B40100100BB00C4070B00C40B8
:100690002C2009405013005078130050981300503C
:1006A0008C13005000803F4000F03F0000400340AA
:1006B000B03F00503C600C4084088C432B490A68D2
:1006C000C2F30F324BF69A139A424FF0FF3006D125
:1006D0000868000F0B280CBF0420002070474BF661
:1006E000BE118A4201D1012070474BF641318A4246
:1006F00001D1032070474BF620318A4208BF022007
:10070000704700001948F8B50068050F18480068E0
:1007100000F0FF06802E28BF0026FFF7CFFF042839
:100720004FF0FF3406F10A071DD8DFE800F003128E
:100730001A1A1B00012D12D0032D06D0072D06D04A
:10074000082D08BF06F116040DE014240BE0152453
:1007500009E025B1022D08BF06F1140403E00A24C4
:1007600001E005B93C4660B2F2BD0000181300502C
:10077000A010005080B5FFF7A1FF20B9FFF7C2FF1E
:10078000162800DB01BDFEE770B504460D4616468F
:1007900000F094F8401E8041C00F1A490A68002AF0
:1007A000FCD0012E02D0022E02D003E0257002E020
:1007B000258000E0256001220A6000281CBFBDE8FA
:1007C000704000F07FB870BD38B504460D4600F0AB
:1007D00075F8401E8041C00F0A490A68002AFCD003
:1007E000012D02D0022D02D003E0247802E02488FB
:1007F00000E0246801220A6008B100F063F8204696
:1008000032BD000000800C400B461146042218182F
:10081000BAE710B500EB4100102B144600F500704C
:1008200002D3103B001D240C0299994041EA044177
:10083000BDE810400422A7E738B51D460818102D62
:10084000144602D3103D801C240C0221FFF7BCFF8C
:10085000204080B2E84032BD70B50446E00782B067
:100860000D46154E05D5A8B200900023012200F0D8
:1008700011F8A00705D5A8B200900123022200F0CC
:1008800009F8600705D5ADB2009502230C2200F0EF
:1008900001F873BD00213046FFF7BBBF01460429B4
:1008A00007BF1D234FF0C0421C234FF08052024867
:1008B0003421FFF7C1BF000000A00C40EFF310800F
:1008C00072B67047EFF3108062B6704780B5084982
:1008D0000968496905E080B5054B1B689B69984725
:1008E00000E08847034A0021116002BD00000000BB
:1008F000A80100108404604280B51EF081FE00282B
:1009000001D0002001E05FF0FF3002BD80B51EF095
:10091000A9FE01BD70B504000D00160032002900CB
:1009200020001EF0A7FE002801D0002001E05FF0AB
:10093000FF3070BD70B504000D00160032002900B4
:1009400020001EF0C8FE002801D0002001E05FF06A
:10095000FF3070BD011D096851F00201021D1160D8
:10096000704710F1140212688A4310F114031A60E0
:10097000704710F120021160704701206349086040
:10098000704763480068400810F00100704738B5B0
:1009900004000D00002D10D021785FF080405D4AEA
:1009A00012685268904769465FF08040594A126861
:1009B000D26890476D1E641CECE7002032BD38B54C
:1009C00004000D00002D17D000215FF08040514A37
:1009D000126892689047002802D15FF0FF300CE067
:1009E00069465FF080404B4A1268D2689047009891
:1009F00020706D1E641CE5E7002032BD80B569469D
:100A00005FF08040434A1268126990470028F6D18F
:100A100001BD7CB504000D0006203F490968496905
:100A2000884706203C490968496B88470128F8D166
:100A30004FF4A06038490968C9698847FFF79DFFEE
:100A4000FFF79FFF0028FBD04FF480703249096800
:100A5000C9698847FFF791FFFFF793FF0028FBD094
:100A60000F215FF08040FFF77CFF03215FF08040A3
:100A7000FFF77FFF08200190009400230022274900
:100A80005FF08040234E36683668B04700955FF0CF
:100A9000FF33132212215FF08040214E3668766CBE
:100AA000B0475FF08040FFF755FF69465FF0804038
:100AB000184A1268126990470028F6D173BD80B5B4
:100AC0004FF4807014490968096A8847FFF755FF99
:100AD000FFF757FF0028FBD04FF4A0600E490968CC
:100AE000096A8847FFF749FFFFF74BFF0028FBD053
:100AF0000620094909688969884706200649096866
:100B0000496B88470228F8D101BD00002820086001
:100B100028200840C4010010B8010010006CDC025D
:100B2000B401001019E050F8041BCB0744BFA9F131
:100B300001035918121F0023042A41F8043BF9D27B
:100B40005FEA827C0B4604D54FF0000CA1F800C090
:100B50009B1CD10744BF0021197050F8042B002AB8
:100B6000E1D1704700002000C21500000000100015
:100B7000C214000000000800EF1200000000040092
:100B8000EF110000000000000000000010B5074950
:100B900079441831064C7C44163404E00A68081D78
:100BA000114488470146A142F8D110BD0800000059
:100BB0001400000071FFFFFF08000000000000208B
:100BC000000000000120C046002801D0FFF7DEFF32
:100BD0000020AFF300801EF0E7FB00F000F800F00B
:100BE00001B800000746384600F002F8FBE70000B5
:100BF00080B5AFF30080024A11001820ABBEFBE7BE
:100C00002600020080B5FFF75FFA00F006F800F05A
:100C100002F801BDFEE7FEE7FEE7AFF30080AFF3A9
:0C0C20000080FFF7CFFF000090FFFF00F6
:10100000FFFFFFFFFFFFFFFFFFFFFFFFFFFFFFFFF0
:1010100048430020EDE200009DD900009DD900006A
:101020009DD900009DD900009DD900009DD90000E8
:101030009DD900009DD900009DD900009DD90000D8
:0C1040009DD900009DD9000069D9000076
:10105000FEE7DFF89808007D7047DFF89028117DE3
:10106000107508467047DFF88418D1E90023C0E9FD
:1010700000237047DFF87408C0690047DFF86C1878
:10108000096A08473DE110B501F064FC38B1DFF8AA
:10109000C048A06801F067FCA0614FF0FF3010BDB0
:1010A00010B5FFF7EFFF0446DFF8A40880680021C1
:1010B00001F05DFC00F02FBC38B5FFF7E3FFDFF86F
:1010C00018590446A868002101F051FC6969081A02
:1010D000A969814238BF002084F3118832BD70B500
:1010E000DFF8F46804460D46B068214601F03DFC87
:1010F0003461756170BD2DE9F8430446DFF8CC0812
:101100000768DFF8D408C55988464FF0FF390BE06F
:10111000F069B1698847B08A012805D1F068A0EB71
:101120000800484598BF8146DFF8AC08384485423E
:1011300011D02E462D68B08A0128F5D1012C04BFAC
:10114000F0684045E7D13169002907BF0020B0822F
:101150000818F060DCE74846BDE8F2832DE9F0416D
:10116000FFF790FFDFF870580446A868012101F0EE
:10117000FEFB0121A9830021E9836E6929682A68A1
:10118000871B801A711A884204D20020A88384F336
:1011900011882BE084F31188002406E0A61931465B
:1011A0000120FFF7A8FF3F1B0446A742F6D2FFF736
:1011B00069FF8046E88B012804D131460020FFF703
:1011C0009AFF0446A96914F1010F08BF084603D02D
:1011D000E01B814238BF08468119FFF780FF0120DC
:1011E00028840020A8832E6088F31188BDE8F08150
:1011F00038B504461D46A2606869DFF8D027206133
:10120000A1612146A869E0610020A0821268DFF890
:10121000C807104400F0A2F8288A18B12046BDE89B
:1012200032403CE031BD8260816100220261C361D5
:1012300082820146DFF89427DFF89C071268104489
:101240008CE038B5DFF890570446288C012804BF9D
:10125000A88B002817D1A868012101F088FB296814
:101260006A692B68D21A411A8A420CD3A2681118F3
:10127000E1600123A3826B69181A82420ED21046E4
:10128000BDE834402BE7FFF70BFFA1680818E060CA
:101290000120A082A88B012808BFE88331BD38B5A2
:1012A0000446FFF7EFFE05462046FFF7CAFF00F0B1
:1012B000A1BC00218182DFF89816C0684969884284
:1012C00003D1DFF8DC080068E9E770470161704787
:1012D000816070477047808A7047704780B500F022
:1012E00001F8FCE738B50024DFF8B85804E0686876
:1012F00050F824008047641C28688442F7DB31BD25
:1013000000BFEFF31180202181F31188704721E0A5
:1013100001680A68026050600846704701688142AF
:1013200001D10120704700207047426808604A6080
:1013300011604160704710B50446FFF7E1FF0146B8
:1013400020680268226002685460FFE781F3118818
:1013500010BD00BF406000607047E6E738B5044646
:101360000D46FFF7CDFF2C606168696061680D6014
:101370006560FFE780F3118831BD01684268116044
:101380004168006841607047BBE710B50446107EB5
:10139000207261810021DFF8D0080068204401F04C
:1013A000D3FB002020600120606010BDDFF8B8187A
:1013B0000968084401F0DCBB38B50446FFF7E4FFD8
:1013C0000546207C022808D12046FFF7D6FF0020E2
:1013D00020742946A06800F010FC00F00BBC70B52A
:1013E0000E4616F1010F18BF002E8EB004460AD02B
:1013F0006B463246DFF8741805A8FFF714FF05A8FE
:101400000390022002E00020039003208DF81000DA
:10141000FFF7BAFF0546608990BB16B985F31188BE
:101420003AE000F039FA0646DFF844080069029015
:10143000C0F818D000F0BAFBDFF82C080068694645
:101440002044FFF772FF9DF81000022804BF0398A4
:10145000FFF7F7FE85F31188304600F024FAFFF716
:1014600093FF0546039818B1FFF787FF002003900C
:1014700000200299886185F311889DF810000BE027
:101480006089401E6081039818B1FFF776FF002045
:10149000039085F3118801200EB070BD70B505462C
:1014A000FFF772FF0446DFF8C00700682E183046C9
:1014B000FFF734FF38B1287AC0074EBF0120688992
:1014C000401C688135E100F0E7F905463046FFF73A
:1014D0001FFF064601203074F06808B1FFF7E9FEEF
:1014E000B068214600F089FB84F311882846BDE8E6
:1014F0007040D8E105E7EFF31180002104E72DE902
:10150000F8430446DFF86C57A06AD5F81080EF68FE
:10151000AE682861EC60606AA860206A60620020A2
:10152000A08328800120FFF798FD8146FFF7E3FFA5
:101530002169E068A2689047FFF7DCFF4846FFF7A3
:101540008CFD01202880C5F81080EF60AE60BDE8FA
:10155000F1830000F8B5DFF81C4725696068B0FA30
:1015600080F0C0F11F00616901EBC0063046FFF753
:10157000CFFE07463046FFF7D1FE00F097F86068CF
:1015800040B1B0FA80F0C0F11F00616901EBC00604
:10159000B542EBD3F1BD000070B5DFF8D84626693F
:1015A000FFF7A8FF05466068B0FA80F0C0F11F00A1
:1015B000616901EBC00086420ED200F06DF906466B
:1015C000DFF8680701F0D8FB0020208085F3118840
:1015D0003046BDE8704066E10020208085F3118828
:1015E00070BD10B5002404E02146002001F015FB79
:1015F000641CDFF83C0700688442F5DB002000E053
:10160000401CDFF8301709688842F9D34FF0FF30EB
:1016100010BD09E0DFF85C060188481E8041C00F5C
:101620007047DFF8501639E1002080B590B9FFF718
:1016300061FFDFF840164A6822B180F31188FFF796
:10164000ABFF02E00A8080F3118800F025F9BDE8C5
:10165000024028E101BD000000B17047F8B5DFF895
:1016600014466068F8B1FFF746FFFFF743FF2569AE
:101670006068B0FA80F0C0F11F0003E0B0FA80F0BB
:10168000C0F11F00616901EBC006B5420BD23046C4
:10169000FFF73EFE07463046FFF740FE00F006F833
:1016A00060680028EAD100202080F1BD18B1606890
:1016B000B96988436060384621E7DFF8B80580687B
:1016C0007047F8B504460F4616461D46FFF741FE23
:1016D000A76000F048F808BF052000F03EF80020A1
:1016E000A08300F048F8A062284600F0CCFE00B1CC
:1016F0000220F2BD704770B50546FFF7FBFE0446B9
:10170000A88B00B115E00120A883FFF78AFF0646E9
:10171000A86A2946FFF709FEDFF85805AA6941685B
:101720001143416084F3118816B9BDE8704033E776
:1017300070BD84F3118870BD616280F3118820460A
:10174000704738B504460D46FFF7D4FE616A294359
:10175000FFF7F2FFBDE83240CDE76061012061692B
:101760008840A06170473069E06070692061B069AD
:1017700010F1010F7047F06960622062DFF8F40435
:101780006169406901F0D9B9BBE5EFF3118000212F
:10179000BAE5000010B5DFF8D8440020208101E050
:1017A00000F042FA60680028FAD06068B0FA80F071
:1017B000C0F11F00A16901EBC0006169814209D23B
:1017C000226960610068206100F1100102F11000DF
:1017D00001F0D3F820890028DFD110BD10B5DFF863
:1017E0009044208908B1FFF7D5FF00202080BDE894
:1017F0001040CAE738B501F0BCF800B3002407E098
:101800002146002001F03FFA002100F03CF9641C61
:10181000DFF8BC0700688442F2DB0024DFF8905751
:1018200006E0286B50F82400002100F02CF9641C1D
:10183000DFF8CC0700688442F3D34FF0FF3032BDAD
:101840005FF0000010B594B0FFF79EFFDFF8204472
:1018500001E000F0E9F960680028FAD06068B0FAA9
:1018600080F0C0F11F00A16901EBC0006061006859
:101870002061002020810220FFF7EFFBFFF785FFAA
:10188000FFF782FF01F060F8206900F1100104A861
:1018900001F073F814B010BDDFF8D41308880122EA
:1018A0000A807047002010B558B9FFF76DFFDFF8C8
:1018B000C043208920B1FFF7ADFE08B1FFF76AFFF2
:1018C00093E710BD00B1704710B5DFF8A44320893D
:1018D00020B1FFF79FFE08B1FFF75CFF00202080DA
:1018E00010BDDFF88C03006970470000181C002051
:1018F000808F012800D0704710B5FFF745FF0446E0
:10190000DFF86C03C168491EC16004D184F31188FB
:101910000020FFF7B3FB84F3118810BD70B5DFF82A
:1019200050030469FFF7B8FF0546FFF72DFF064691
:10193000204600F03BF9032020752046FFF7D8FF32
:1019400086F311882046FFF704FD284640E000009A
:10195000781C002038B500F027F90546A068294614
:1019600046E100B9704730B58DB002466B46DFF8EE
:10197000941604A8FFF757FC04A80390FFF704FF90
:101980000446FFF789FF0546DFF8E402006902908C
:1019900000F00CF90398FFF754FC6846FFF7D9FCF8
:1019A0000299C1F818D084F311882846FFF77BFF0D
:1019B000FFF7EAFE04460398FFF7DFFC00200390E0
:1019C00084F31188029988610DB030BD78E300007E
:1019D000BDE8704067E70000781C00202DE9F04169
:1019E00016460446B069A0600D46706A984610B964
:1019F000DFF8140600686062376A17B9DFF80C0672
:101A0000076800F0BCFFF26941424AB340B1401E92
:101A1000801808402062381A10180840E06101E080
:101A20002262E7614FF0FF306062A5623069E062D8
:101A300070692063B06A6063B08DA087012804D10B
:101A4000DFF86C05C168491CC1604146204600F0C2
:101A50001AF80446404600F016FD90B1E01C10E074
:101A600020B1C219521E1140E16100E0E761024657
:101A7000E169606A434600F028FD00282062D4D165
:101A80000120BDE8F08170B50D4604462B46DFF815
:101A90008025DFF8801500F06EFF2061284600F0F9
:101AA000F2FC38BB012020750020A061A168DFF89E
:101AB000000500290AD50021E160DFF85C150968FE
:101AC000084420642146FFF749FC13E0A268012185
:101AD0009140E160A168806901F02FF82064FFF770
:101AE000DBFE0546FFF750FE0646204600F07AF87A
:101AF00000F002F8002070BD86F311882846D2E677
:101B00002DE9F84F04460D46FFF7C6FE8146FFF764
:101B10003BFED4F80880A845834638D0002D544EAB
:101B200006D5DFF8F40400684FF0000A371805E026
:101B3000012000FA05FAB06900EBC507207D0128F5
:101B40001BD12046FFF719FC206CFFF7E7FB18B10B
:101B50007068E168884370603069A04205D17761A0
:101B600021463868FFF7F9FB03E021463846FFF7C6
:101B7000DCFB70684AEA00007060A560C4F80CA045
:101B80002764002D44BF00207061012030818BF359
:101B900011884846FFF787FE4046BDE8F28F0000F7
:101BA00080E3000038E300000446EDE52DE9F04154
:101BB00004462F4D266C6F68D4F80C80FFF7DDFBD0
:101BC0003046FFF7ABFB10B127EA080068602869D0
:101BD000A04204BF002068610220207501202881F6
:101BE000BDE8F08138B5FFF7DFFF054629462046FE
:101BF00000F003F885F3118831BD2DE9F041DFF8DD
:101C0000B063776804468846E568206C2146FFF794
:101C10008CFB45EA0700706001202075308188F355
:101C20001188BDE8F041AFE580B5DFF8F003DFF8DB
:101C3000F0230068904204D1FFF7A7FDFFF752FBA5
:101C40000DE001000AD1FFF7A0FD002001E000989F
:101C5000401C009000980028F9D000E08047BDE8C3
:101C6000014091E50000000088E30000B913000086
:101C7000C01C0020A41C002080B500F039FE08B173
:101C80004FF0FF3002BD00F061BE00F061BE00F019
:101C900057BE38B5044608461146049D1A462B46E1
:101CA00000F02FFE6060284600F0EDFB00B101203F
:101CB00032BD00B585B0002101A8FFF7E8FF039809
:101CC00004E00099BE2008700098401C0090009825
:101CD0006845F6D305B000BD00F034BEFFF711BB78
:101CE000EFF311800021FFF70FBB10B5FFF7F6FFF0
:101CF000DFF8300341698269C90802EBC101083984
:101D0000016100244FF0FF31016007E0214600200F
:101D100000F049FE002100F050F8641CDFF80803D1
:101D200000688442F2DBFFF771BC0000551500002B
:101D30008CE3000090E30000FEB51746DFF8EC22CC
:101D400005460846DFF8DC1268821E46C96912683B
:101D500051F82010089C914210D001900021DFF82A
:101D6000D0020068009002918F23DFF8C80201883A
:101D70000022204600F095FB0120FEBD00F0A6F8F1
:101D8000AF6070696860306A10F1010F08BFFF2012
:101D900028740020318B01B10120B18C09B140F0D1
:101DA0000200E8602146284600F007F80546204674
:101DB00000F069FB00B1E81CFEBD38B50446217B8C
:101DC000B4F912008907054602D5217C202907D2E3
:101DD000A16800F0BFF8B4F912004042608209E047
:101DE000DFF84002DFF85012406A40F825402846EC
:101DF00000F0B0F8217C284600F0DCF8207BC0071A
:101E000044BF284600F084F80020E06032BD01297C
:101E100000D1704710B5B0F91240002C48BF6442A1
:101E2000204600F053F8DFF804020168204600F075
:101E300091F8DFF8F011496A002041F8240010BD44
:101E400010B5DFF8E001DFF8F421C169DFF8F00137
:101E500001600368934211D0002302E041F823405F
:101E60005B1CDFF8E0412468A34207D20F2B32BF8E
:101E700052F82340DFF8B4412468EFE7DFF8C821C7
:101E80004168126821F47F4101EB0221DFF8BC2197
:101E90005118416020218176DFF8B4110968C160D2
:101EA00010BD1DE7000000002021EFF3118081F339
:101EB0001188704780F311887047000040F2000CD1
:101EC000EFF311808CF31188704700001028DFF8C1
:101ED00084110FD3A0F1100252091038012300F031
:101EE0001F0001EB82018340D1F80001C1F880316D
:101EF00018400AE00F2807D108690A6932F0020287
:101F000000F002000A6100E0002000BF70470000FE
:101F10001028DFF840110FD3A0F110025209103839
:101F2000012300F01F0001EB82018340D1F8000182
:101F3000C1F8003118400AE00F2807D108690A6982
:101F400052F0020200F002000A6100E0002000BF2F
:101F500070470000DFF8CC20D26902EB80000268F5
:101F60008A4218BF0160704710B5DFF8EC40206965
:101F700000F012FF0020206010BD30B5DFF8D8203F
:101F8000936943605469846025462A78BE2A04D048
:101F9000012200210160104630BD00220029F8D046
:101FA00015F8011BBE29FBD0691E591A6118F1E70B
:101FB000C01C0020DFF89C201028024402D382F8C5
:101FC000F0137047042828BF82F8141D70470000E2
:101FD00098E30000816042607047102804D3DFF866
:101FE00074101038C1F8000F7047DFF838305B68A4
:101FF00001221A80DFF8602112681300FED010471A
:10200000A8E3000055190000A0E30000A4E30000CD
:102010001D190000DD17000094E300009CE30000A0
:10202000E5120000441C00205CE3000068E30000AF
:1020300054E30000462E0000B1D80000101000004C
:1020400008ED00E058E300006CE300000000FA0532
:1020500060E3000000E000E0441C00202DE9F041B6
:102060000446FFF73BFEFFF717FC0546FFF7D9FADA
:1020700006460020FEF7F1FF8046DFF86C059A491E
:10208000406AD1F8041D01F0FF0150F82170FC6096
:10209000FFF726FE7868B9688847FFF71FFE4046BD
:1020A000FEF7DBFF06EB0520BDE8F08100F0FF0046
:1020B000FFF7D2BA000AFFF705BC7CB504460D460F
:1020C000E169164619B1206ABE2200F089FE206B34
:1020D00001902B46E06A00903246A16A206AE469CA
:1020E0002018001F00F0B0FE76BDDFF85405006830
:1020F00070477047FFF705B9FFF706B90020704732
:1021000010B50446DFF83C05006800220121204498
:1021100000F059FD0020606010BD38B50446534DF5
:102120006068296988420BD0DFF8180500684FF015
:10213000FF312044FFF753F928696060002032BD69
:10214000012032BD31B94160DFF8F8140968084454
:10215000FFF7A4B97047000064E300000120704756
:1021600000F0A8BEFFF7CDB8DFF8A015C20744BF46
:1021700001220A60820744BF4FF480720A60400760
:1021800044BF4FF48030086070470000DFF8C4257A
:10219000C30748BF1160830748BF5160400748BF6D
:1021A0009160704710B504460020D4E90A2347F631
:1021B000906101F079F90123994228BF4FF0FF3077
:1021C00010BD10B50C4601F0E7F9011D201AB0F161
:1021D000004F05D8081BB0F1004F38BF8C4200D229
:1021E0000C462146BDE810400120CFE72DE9F04123
:1021F00080460A46D8E90A01D8E90C45A0FB0267E7
:1022000001FB0277A6196F41340C002244EA074112
:102210004046FFF7D6FFC8E90E67BDE8F08180B5FC
:10222000DFF8F804006800281EBFDFF87805406872
:10223000002804D0818811B1002100F084F84FF00B
:10224000FF3002BDDFF8D404006800281EBFDFF8AD
:1022500054054068002806D0818821B1017B0029FF
:1022600008BF00F005B8704700000000C01C002047
:10227000F8B50646FFF776FF0446DFF82C55DFF881
:102280002C750120E861FFF76FFFF96A096A1420D5
:1022900088473069B0F5802F34BF0421010C01203C
:1022A000FFF774FF3A681268232100209047DFF897
:1022B000001501200860DFF8FC04016821F4E0212A
:1022C00041F4803101600120286084F31188F1BD60
:1022D00010B5DFF8D004446800F008F86069A1691F
:1022E000BDE810400847000000E000E001203BE7A7
:1022F000F8B504460D4601F059F9D4E90A673246AB
:102300003B4601F0D1F83DB1A6FB002306FB0133AB
:1023100007FB0033C4E90C23F2BD10B5DFF88804D5
:10232000DFF89444002101600121C161216020682F
:10233000FFF7DCFFDFF884140968096A1420884776
:10234000206810BD000038B50446FFF70BFF0546B6
:102350002046FFF7E2FF85F31188002032BD2DE90A
:10236000F04105461646EA69984630460F46A96987
:1023700001F028F9B8F1000F3C46766005D0EA6913
:1023800008234146304600F05CF8F6686969CFB929
:10239000079BAA68E86800F0CBF8070008BF002098
:1023A0001BD000F0B5F96968396007F10804696865
:1023B00049687960696849680F6069684F6000F032
:1023C0007EF803E00839204601F038F9286810F15A
:1023D000010F18BF206000F023F8BDE8F081F8B5C8
:1023E00005460C461646EA69A9691F46304601F0C3
:1023F000E9F876602FB1EA6908233946304600F0E3
:1024000020F86869F668A0F10801204601F016F985
:10241000286810F1010F18BF206000F001F8F2BD2C
:10242000286908B171682150204670470800194694
:1024300006D0130004D011F1010F08BF1047104758
:1024400070472DE9F843D1F80C80D8F80090044685
:10245000086815461E46AF1BA0EB0902BA4288BFAA
:102460003A46204601F0AEF825606460E519B145B2
:1024700088BFB146E5604A464146284601F0B2F8B9
:102480002E60BDE8F183DFF84C130978012904D1EF
:1024900018B1C06810B1012000E00020C0B2704740
:1024A000000010B584B0089C0294079C0194069C1F
:1024B0000094DFF824432468A0471FBDFEE70146CF
:1024C000DFF8FC02006800F063BA2DE9F041054630
:1024D000984684B00E4617464046FFF7D4FF0446A0
:1024E00017B9DFF8F8020768002D12BF2846DFF899
:1024F000F002006843463A46314600F042FA0700CF
:1025000012D11CB94046FFF7BEFF68B9DFF8D4020C
:1025100000680090029601953423DFF8CC02018810
:1025200000224046FFF7BDFF384604B0BDE8F08109
:1025300080B50093002300F001F802BD70B51D4680
:10254000049B0C46FFF7C1FF060003D02A46214634
:1025500000F046FC304670BD0A6942604A698260FC
:102560004969C1607047F8B50446DFF88002006829
:102570000D46174600F00AFA616800267A1E0A40E6
:1025800018BFBE1AA26873199A4203D2FFF797FFC9
:102590000020F2BD8F19521B921B1944A26061608A
:1025A000FFF78DFF3846F2BDDFF8440200880128AE
:1025B00000D07047E0B50020029001905523DFF86D
:1025C0003402006800900022DFF82C02018800200D
:1025D000FFF767FF07BD00207047C2680A60806888
:1025E0004860886070470000441C0020DFF80C023F
:1025F000818801B1704738B5012181800024DFF85E
:10260000005204E0686850F824008047641C286881
:102610008442F7DBDFF8EC01DFF8EC51006880471B
:10262000002404E0686850F824008047641C28688F
:102630008442F7DB31BDDFF8C401C0887047000079
:1026400070E3000074E300002DE9F0470D4600261A
:102650008246012DA4BFA90000F0F4FFDFF89C71B1
:10266000DFF8A801C7F800A00024D0F800800CE033
:10267000DFF89C01006830F8140028B158F82410E5
:10268000002088474AF82400641CAC42F0DB01209B
:10269000F880B14601E009F10109DFF8780100682E
:1026A000814518DA0126002402E000200640641C5F
:1026B000AC420EDA5AF8240010F1010F07D058F896
:1026C000241088474AF8240010F1010FEDD10120B1
:1026D000ECE73000DFD01EB90FF2541000F008F81C
:1026E00000203860BDE8F08700BF4FF0FF30704732
:1026F00010B5044600F00CF8204600F04BF9DFF866
:1027000018010068BDE8104000470000042009409F
:10271000DFF8D800006800F039B9000050E300008D
:1027200038B50546FFF7F4FFDFF8F010DFF8F030BA
:102730004A681B6801249A4206DA0B6843F8225063
:102740004A68521C4A6000E00024FFF7B8FE2046A9
:1027500032BD00001820094010B5044600F00AF808
:102760002046DFF8C0100968BDE8104008470000A7
:10277000FEE7FEE770B50446DFF84400DFF89C5042
:10278000FFF7C8FF6E6806E0296801EB8601761E38
:1027900051F8041C8847012E2046F5DABDE8704048
:1027A00000F0FAB83C1C0020000024438401001013
:1027B00080022443002009402C200940B001001071
:1027C000E0E3000018490968084718490968084704
:1027D000FEE770474A360000B0E30000041D002009
:1027E000C4E30000ACE3000042360000E0E3000078
:1027F0003A360000B4E3000096350000081D0020C2
:1028000040E30000C8E3000048E30000D4E3000018
:10281000D0E30000CCE30000E4E30000101D002042
:10282000ECE30000E8E30000D8E30000DCE3000094
:102830007864632E72756E74696D652E537461725F
:102840007475703A20276D617850617373657327D2
:1028500020657863656564656400000000B587B035
:1028600007216846FFF7F0FE07B000BDFFF778BC10
:1028700000B581B0FEF72EFDDFF8C001C06801B0E1
:102880005DF804EBFEF737BF00B581B0FFF7D3FE6C
:10289000012818BFFEF7DCFB0FF21D00FFF740FF19
:1028A000FFF7D0FCFFF718FAFEF7B3FE01B05DF8B2
:1028B00004EBFEF7C5BF000000B581B0FEF7B1FE26
:1028C000FEF7EAFF01B05DF804EB0320FEF7C5BB9D
:1028D00010B504460320FEF7C0FB2046BDE81040BB
:1028E000FFF73ABFDFF85811DFF8580188617047E9
:1028F000DFF8FC00006810B14069C00F704701208C
:102900007047F0B5044630208FB00D4600901E464B
:102910001346019602AA0021DFF8A801FFF71FFD68
:10292000070009D0009602AB2A462146FFF704FAB9
:102930003046FFF7A8FD00B1002738460FB0F0BDC4
:10294000FFF71BBBFFF7ADBAFFF70EBBFFF7BEBA31
:10295000FFF7DEBADFF89800006810B18069C00F99
:10296000704701207047FFF71DBCFFF73FBCFFF722
:10297000BFBC01207047FFF7A0BB00F08BBAFFF788
:10298000B4BB10B50468A468A04710BDFFF7B2BB84
:10299000FFF7B2BBFFF716BFFFF717BF09B9DFF8A4
:1029A0003411FFF74EBD01EB410208B9DFF8E40234
:1029B00000EBC2007047F0B58FB004463020149F82
:1029C00000900D461646019702AA2146DFF8F40052
:1029D000FFF705FD009702AB324629462046FFF778
:1029E000ABF93846FFF74FFD0FB0F0BD0000000017
:1029F000081D002000B581B001210091002301468F
:102A0000DFF80423DFF8BC00FFF710FD01B000BDC4
:102A100010B588B002AA0B990191182100910146C6
:102A2000DFF82001FFF79BFC040008BF002003D063
:102A300002A9FFF75EFB204608B010BD781C0020FD
:102A4000441C00200004000010B588B002AA0B99B5
:102A500001911821009101460848FFF780FC04000D
:102A600008BF002003D002A9FFF74AFB204608B0A8
:102A700010BD09B9DFF8C012FFF7E3BCACE00000FD
:102A8000F0B504462C208DB00D4600901E4613462E
:102A9000019602AA0021DFF8A402FFF760FC0700FC
:102AA00009D0009602AB2A462146FFF7F2F83046DD
:102AB000FFF7E9FC10B100200DB0F0BD38460DB0B5
:102AC000F0BD00006CE0000009B9DFF87412FFF7F8
:102AD000B8BC0000E8DE000070B58CB0044601937D
:102AE000242000900D46134602AA0021DFF854026C
:102AF000FFF735FC060008BF002005D002AB2A46D0
:102B00002146FEF775FB30460CB070BD70B58CB039
:102B10000446002001900D4624200090164602AA8B
:102B20002146DFF82002FFF75AFC02AB3246294665
:102B30002046FEF75DFB0CB070BD08B100EBC10094
:102B4000704700008CE0000010B588B004460020FB
:102B500001900B461820009002AA2146DFF8E801F8
:102B6000FFF73DFC02A92046FEF7D1FB08B010BDDF
:102B700000B581B0012100914FF0FF3301460022E2
:102B8000DFF8C401FFF752FC01B000BD09B9DFF85E
:102B9000BC11FFF756BC30B58BB00446242001921F
:102BA00000900B4602AA0021DFF8A401FFF7D7FB33
:102BB000050008BF002004D002AA2146FEF7E5FB6D
:102BC00028460BB030BD30B58BB0044600200190D4
:102BD0000D4624200090134602AA2146DFF870011A
:102BE000FFF7FDFB02AA29462046FEF7CEFB0BB0FD
:102BF00030BD00B581B0012100914FF0FF33014697
:102C0000DFF85021DFF84801FFF710FC01B000BDEC
:102C100009B9DFF84411FFF714BC01EB410208B910
:102C2000DFF8380100EB0210704770B50446282029
:102C30008CB00D4600901E461346019602AA21460E
:102C4000DFF81C01FFF7CBFB334602AA29462046DA
:102C5000FEF737FD3046FFF716FC0CB070BD00B52F
:102C600081B00121009100230146DFF8F820DFF850
:102C7000F000FFF7DBFB01B000BD000009B9DFF891
:102C8000E810FFF7DEBB4C22514300B93748084437
:102C9000704700007819002070B504463C2092B0BF
:102CA000154600900B46019502AA00213048FFF717
:102CB00056FB060008D02B4602AA2146FEF78EFEE0
:102CC0002846FFF7E0FB10B1002012B070BD30467F
:102CD00012B070BD70B504463C2092B00D46009015
:102CE0001E461346019602AA21462148FFF777FBAC
:102CF000334602AA29462046FEF770FE3046FFF70B
:102D0000C2FB12B070BD00000F1E000010B58AB0EB
:102D100002AA0D9901912021009101461548FFF763
:102D20001EFB040008BF002003D002A9FFF714FC1B
:102D300020460AB010BD000018DF0000CCE0000003
:102D400004E00000ECE000000CE1000028E00000DE
:102D50002CE10000AD13000044DF0000081A002041
:102D60004CE10000F516000074DE0000701A00202F
:102D70006CE100008CE1000010B5EFF31484002C2E
:102D80001CBF002181F314888047002C1CBF022146
:102D900081F3148810BD000000B5EFF3038212F038
:102DA000FF0F0DD06A46A2F1200282F309886FF06E
:102DB000020E10604FF08071D16108499161704737
:102DC0005DF804EB694681F3098880F308884FF0C9
:102DD0000200EFF3148180F314887047C12D0000C6
:102DE00062F30F2262F31F42401810F0030308D071
:102DF000C91A1FD3DB0748BF00F8012D28BF20F8F0
:102E0000022D130030B414461546103928BF20E9AE
:102E10003C00FAD8490728BF20E90C0048BF40F819
:102E2000042D890028BF20F8022D48BF00F8012D8D
:102E300030BC7047C91818BF00F8012DCB0728BF58
:102E400000F8012D7047220040F8043D40F8042DA1
:102E500040F8041D019940F8041D009940F8041D34
:102E60000B4940F8041D81EA0101A1F1010140F87C
:102E7000041D40F8041D40F8041D40F8041D40F8EE
:102E8000041D40F8041D40F8041D40F8041D70475F
:102E9000A52E00002DE9F04FC0F800D0D1F800D0E9
:102EA000BDE8F08F0498804700980199029ADDF8F8
:102EB0000CE0104710B5DFF82405046814F1010F89
:102EC00008BF002400F02AFCDFF814150020086079
:102ED0000120DFF810150860DFF80C15086000F01D
:102EE0004CFADFF80805006828B1DFF8040500682F
:102EF000204600F022F8DFF8FC14DFF8FC24002064
:102F00000860DFF8F80401686FF31B4111430160AA
:102F1000DFF8EC040168C1F30131012907D1016830
:102F2000DFF8E024114041F4003202600160DFF874
:102F3000D80400680028FAD110BD70B50546DFF846
:102F4000CC0401210160DFF8C81409680029FAD017
:102F5000DFF8C044DFF8C024C02121605368DFF8E7
:102F6000BC149B075DBF13681B0C43F0F003722376
:102F70000B70002101639668304600F031F831464D
:102F8000284600F061F8DFF89804816D89B240F2BC
:102F90000F22914214D201680068C1F30361C0F3AB
:102FA000034001B1491E072805D006280EBF07209F
:102FB000801C00F00F0041EA0010DFF86814087070
:102FC000304600F0B2F8DFF860140968C9680220E2
:102FD0008847402020600120DFF85014086070BD51
:102FE00010B50446DFF848040068C0F3046000F040
:102FF000C0F92117491C08181628A8BF152004DAA3
:103000006FF009018842B8BF084600F01F00DFF8E2
:10301000241440F4F8500880DFF81C04006880078E
:103020004FBF44F040640020DFF810140860DFF860
:103030001004C4F3C06181F001010160C4F3806138
:1030400081F00101816010BD70B5054682B008466F
:1030500000F0F0F80246DFF8EC43182100F062F8C7
:1030600000F014F980B20090002340F2FF322C21CE
:10307000204600F0A2FBDFF8D063F068C0F30D0239
:103080001C2100F04FF8706800F0FC32142100F0B1
:1030900049F83068DFF8B413DFF8B46301EA0002DE
:1030A000102100F03FF8284600F0FAF802460C2103
:1030B00000F038F8284600F01EF9400040F02000EB
:1030C0003072284600F020F940F010003072284697
:1030D00000F023F90246282100F024F8284600F0E9
:1030E00001F9400040F06000F072284600F02FF92E
:1030F000C00040F080003070284600F031F98000B8
:10310000DFF8501340F47C400880284600F012F9A4
:103110000246082100F006F8DFF83C134FF4800067
:10312000086073BD204600F043BBF8B5810C01F088
:1031300003010129C94CC84D02D002292AD026E03A
:10314000216A8A0323D44FF480422A606FF08F06ED
:10315000C34AD2F8023033404E0A06F080063343A9
:10316000C1F303363343C2F80230C1F30326D2F869
:1031700001301B0946EA0313C2F801306FF0E7067D
:103180001368334001F0E7011943116002E04FF08A
:1031900000412960B34EB44AB16809075CBF4021C1
:1031A000A9624FF400712964800D216AC90C01F0F5
:1031B000030141F0300110F00300117003D0022828
:1031C00026D008D326E00121042000F019FBA748EF
:1031D00000F0F4F822E0012000F034FB0746394605
:1031E000042000F00DFB042000F02CFBB842FAD1C3
:1031F000366826F07F4000F0E1F89D4B1B681B68A5
:103200004FF060220721300E98474FF4806028600D
:10321000032100E00221042000F0F2FA2068954921
:1032200000F03F00087047F6180093490880934863
:103230000068F1BD92490968C1F383628303C1F359
:103240008F2120D4000400164FF6FF7307E04908D1
:1032500004D11946520804BF01220121401C002854
:10326000F5D401280FDB490041F00101B1F5803FA1
:1032700021BF0121520042F00102102A24BF0F2277
:103280001946401EEDE741EA024070477C4801685C
:1032900000680002C1F3870100F4407008437047E2
:1032A00030B55D4C77490A686568ED07C2F3035194
:1032B000C2F303430AD42468250501EB25712404D5
:1032C00081F3040103EB247383F304031B0443EA37
:1032D000015193B21943222824BF02F080400143D8
:1032E000084630BD0021202803D367480068C0F39A
:1032F0000151084670470121222803D36348006822
:10330000C0F30071084670470121222803D35F48AB
:103310000068C0F34071084670470021202807D399
:1033200059480068C10C01F44071C0F38450014356
:10333000084670472028564907D35348554A006825
:10334000810A02EA003040EA8151084670470021B4
:10335000222803D34D480068C0F3C0610846704777
:103360000021222803D349480068C0F3455108468C
:1033700070471628A8BF20387047234800680028E7
:10338000FBD14548454A416812688908890041F0E7
:10339000005141F00401520748BF41F001010BD434
:1033A000026812F0030F07D041F003024260026886
:1033B00002F00302032AFAD141607047384982B211
:1033C0000A60C0F307404860012088603548006803
:1033D0000028FBD000208860704700001C130050BC
:1033E000840460425C600C4008220443800128434E
:1033F000000120438C21084000003901482003408F
:1034000004000940FFFFFCFC0C006842101009405A
:103410009402224300600C40AC3F005056620840CA
:10342000BC12005002600840A001001094046042E9
:10343000B81200506E6208400000094094042A430C
:103440000000204300A00C4070130050FFFFFC0060
:1034500041A10C40DCA10C4040A00C406C1300507A
:103460000A600840A83F005008A10C40BD37860004
:10347000B40100100BB00C4070B00C402C2009407F
:103480005013005078130050981300508C130050C4
:1034900000803F4000F03F0000400340B03F00503C
:1034A0003C600C4084088C431B4213D1094236D146
:1034B0002AB18446B0FBF2F002FB10C2704700F064
:1034C00077BAFCD30022002370470B0002000021D2
:1034D00000207047904271EB030CF6D370B5B1FA3F
:1034E00081F4B3FA83F52C1BA340C4F1200532FA12
:1034F00005F63343A2405FF00046E64002E05B0879
:103500005FEA3202841A71EB030524BF2046294684
:103510007641F4D302000B003000002170BD012A77
:10352000CFD970B5140C20D0B1FA81F4B2FA82F57B
:10353000C4F120046419B4F12006D6D3B2405FF080
:103540000044F440002502E052085FEA3303C61A43
:1035500071EB020E24BF3046714664416D41F3D3D6
:1035600002000B002000290070BD0C46B1FBF2F1F7
:1035700002FB11452D0445EA1045B5FBF2F402FBB0
:10358000145580B240EA0545B5FBF2F002FB10523B
:1035900040EA044070BD0A000948016842680368B7
:1035A0009942FAD1100C40EA0140704710B5044A24
:1035B000136850681468A3421946F9D110BD000081
:1035C0000820094062B38B0708D0521E11F8013B56
:1035D00000F8013B00F024808B07F6D1830740F010
:1035E000208000BF103A07D330B4B1E83810103A49
:1035F000A0E83810F9D230BC530724BFB1E8081056
:10360000A0E8081044BF51F8043B40F8043BD2073F
:1036100024BF31F8022B20F8022B44BF0B78037033
:103620007047083A07D3B1E80810083A40F8043B5D
:1036300040F804CBF7D25307E4E701000022FFF77C
:10364000D3BB0900002200F0B9B90100304800687E
:10365000000C00F00700052828BF4FF0FF3070472E
:103660002C490A68C2F30F324BF69A139A424FF074
:10367000FF3006D10868000F0B280CBF0420002083
:1036800070474BF6BE118A4201D1012070474BF6BC
:1036900041318A4201D1032070474BF620318A42E2
:1036A00008BF0220704700001A48F8B50068050FEF
:1036B0001948006800F0FF06802E28BF0026FFF79B
:1036C000CFFF04284FF0FF3406F10A071DD8DFE8CA
:1036D00000F003121A1A1B00012D12D0032D06D080
:1036E000072D06D0082D08BF06F116040DE014249E
:1036F0000BE0152409E025B1022D08BF06F11404E2
:1037000003E00A2401E005B93C4660B2F2BD0000C6
:103710009412005018130050A010005080B5FFF70D
:103720009FFF20B9FFF7C0FF162800DB01BDFEE7B1
:1037300070B504460D46164600F05AF9401E804109
:10374000C00F1A490A68002AFCD0012E02D0022EAE
:1037500002D003E0257002E0258000E02560012210
:103760000A6000281CBFBDE8704000F045B970BD7C
:1037700038B504460D4600F03BF9401E8041C00FAD
:103780000A490A68002AFCD0012D02D0022D02D07D
:1037900003E0247802E0248800E0246801220A6023
:1037A00008B100F029F9204632BD000000800C402D
:1037B0000B46114604221818BAE710B500EB410079
:1037C000102B144600F5007002D3103B001D240C92
:1037D0000299994041EA0441BDE810400422A7E75C
:1037E00038B51D460818102D144602D3103D801C14
:1037F000240C0221FFF7BCFF204080B2E84032BD1C
:1038000070B50446E00782B00D46624E05D5A8B2F9
:1038100000900023012200F011F8A00705D5A8B2FE
:1038200000900123022200F009F8600705D5ADB22F
:10383000009502230C2200F001F873BD00213046F0
:10384000FFF7BBBF0146042907BF1D234FF0C0424D
:103850001C234FF080524F483421FFF7C1BF38B5C9
:103860000546FFF799FE4C4CA168401A4FF47A7157
:10387000484305EB104500F0C7F82169401A48BFDE
:10388000404240F6B9318D4207D2062805DAA068D9
:10389000E168814201D322685AB940494A68D20797
:1038A0004FF4FA6017D4086800F0FF007D21484308
:1038B00008E0081A3A494843000C00EB9000904297
:1038C00038BF1046C82801D2C82032BDB0F57A6F83
:1038D00088BF4FF47A6032BD80B501210320FFF725
:1038E0008FFFFFF759FE2C49886001BD80B501208C
:1038F000FFF7A8FF012819D0002301223421254811
:10390000FFF76EFF98B100F026F8FFF745FE224959
:103910008B680A68C860A2EB9202C01A204B584319
:10392000000C0860904238BF10460860012002BDBC
:1039300010B500210320FFF763FF0120FFF782FF8E
:1039400008B100F008F8144CFFF726FE606000F0A4
:103950005BF8206110BD1348006800F069B810B52D
:1039600011490A6811490968140424161B38444394
:10397000E41004EB2244120600FB00F312160906C1
:103980005A435843091604EBA222484302EBA040D5
:1039900010BD000000A00C40C0340020AC3F00501F
:1039A00040420F008000001090130050A4100050FF
:1039B0007047000062F30F2262F31F4200B500BFA0
:1039C000130096469446103928BFA0E80C50FAD848
:1039D0005FEA417C28BF0CC048BF40F8042BC907F0
:1039E00028BF20F8022B48BF00F8012B00BD0000C3
:1039F000EFF3108072B67047EFF3108062B6704735
:103A00000138FDD1704770470748084A816812782D
:103A1000006852B2A0F54070C9035043C913A1EB2E
:103A20002010803000127047285009400C130050BD
:103A300070B50446FFF7DCFF451EAD41ED0F074EA4
:103A400030680028FCD0A04701203060002D1CBF4A
:103A5000BDE87040FFF7D0BF70BD000000800C4093
:103A600020B1082328220021FFF7D2B8704720B1E7
:103A7000082330220021FEF791BF704738B500F0CF
:103A80006FFE25680DB129682160FEF713FA2846FC
:103A900032BD70B504460D462668002028601EB968
:103AA000FEF702FA25600DE0FEF7FEF900E0366849
:103AB00031680029FBD1AE4203D1FEF7FBF90020AB
:103AC00070BD3560FEF7F6F9012070BD0022DFF809
:103AD000801C01EB4211CB7F1B0605D5B1F91C30D0
:103AE000834201D108467047521C082AEFDB0020B0
:103AF0007047F8B500F034FE0546DFF81C0AC17DBA
:103B00000A001CD0491EC175C9B2C1B9DFF80C7AD0
:103B1000082107F14C00FDF714FE84B1B86B70303A
:103B2000FDF7C7FBB86BDFF82C1CC0680968201ACA
:103B300007F1EC0600F0B4FD3046FDF7B0FB284677
:103B4000BDE8F240FEF7B6B910B50446207B00F0A0
:103B50000F00022802BFDFF8C009007D002817D13E
:103B600000F0B4FCA1688908A1EB90006FF07041EF
:103B700088420DDAB0F1704FBCBFDFF8041B0818A3
:103B8000DFF89819896BC96801F57A71814200DB09
:103B9000002010BD38B5DFF8EC0ADFF8EC2A016828
:103BA000DFF8784902EA0105E9430160A90606D574
:103BB0004068800603D54FF4005100F090FB15F4E7
:103BC000602F0BD0A06905F460210843A06100219B
:103BD00004F19C00BDE83440FDF7B3BD31BD70B5C4
:103BE000FEF762F9DFF834490646A06910F4602F49
:103BF00027D0A069C5012D0EE80748BF002506D4CF
:103C0000A80748BF012502D4680748BF0225681DE0
:103C100040B200F0E2FEA069012105F111029140DD
:103C20008843A0613046FEF745F904EB85008668BD
:103C3000300009D0606800224FF00063691DB04772
:103C400002E03046FEF736F9A06920B1002104F108
:103C50009C00FDF776FDE07F80070DD565692800A3
:103C600006D0606800224FF000436FF00101A847C2
:103C7000E07F00F0FD00E07770BD70B500F004FF5C
:103C8000DFF89858DFF8D04AAB6A024690071DD497
:103C9000D3E90401104007D0EB62996908439861A9
:103CA0004FF4804100F0F8FCA86A002849D16E6A00
:103CB000002E46D0F068A96B884224D005F14C0054
:103CC000BDE870404FF48051FDF73BBD0BB9A86AC9
:103CD000EAE70020A862D3E904019E69024042F0AD
:103CE000020232439A61626982436261E26822EAB7
:103CF0000100E060194605F13000FFF7CAFE02211D
:103D000000F0CAFCE3E7B068FFF71EFFA86418B133
:103D1000A86CBDE87040ECE6D6E904016269024394
:103D20006261E26841EA0200E0600020E061B068A0
:103D30002060E0690028FCD005F12400FFF79EFE1A
:103D4000AE6270BD0020D4E6F8B506461446376E64
:103D50001D4607B1B847A00708D4D6E91601204090
:103D600029400022914208BF904207D0C6E91A4577
:103D700006F13800BDE8F240FDF790BBF1BDFEE76B
:103D800080B5FDF79AFCDFF894270146906BD26B63
:103D9000BDE80840104710B5DFF880470FF23D013D
:103DA000E06B884202D1FFF701FC206404F14C0073
:103DB000BDE810400421FDF7C4BC80B500F064FEEE
:103DC000DFF89819084207D0BDE804404FF00051D1
:103DD000DFF8A40BFDF7B5BC01BD000038B5042920
:103DE00051D1DFF83847606AA16B08B1C16803E0C0
:103DF000E07FC00748BF6168A1630846DFF8B42AC6
:103E000041680B781360126809788A421CBF856983
:103E1000002D05D000224FF000736FF0FF01A8477E
:103E2000022000F0B3FF112000F0C5FFDFF8E80624
:103E30000121C176A16B407E097C014204BF0E20A6
:103E400000F0B9FFA06BDFF8101940688268002A03
:103E500004BFC068002804D00020C861DFF8C40A8D
:103E6000086040F2FF70DFF8C02A1060002088610F
:103E7000DFF8E80848610FF21100E0631920BDE89F
:103E80003240FEF745B831BD2DE9FF41804688003C
:103E900040F19780DFF88456A86B406840680100C5
:103EA00018BF8047A86BDFF8B068406881680029B8
:103EB00004BFC168002912D0F1690029FCD000219B
:103EC000F1618068010018BF8047A86B4068C06836
:103ED000010018BF8047DFF8A40A00F0DDFD0020D4
:103EE000F06108F10807DFF8980A3060012000F05F
:103EF0001BFE00220FF21D10E86340F60A01DFF8F6
:103F0000180642800180027B02F0F0020273002258
:103F10004260427B02F0F00242F001024273002252
:103F20003C68628000E014466268002A1CBF138867
:103F30008B42F8D1606040F60302617B01F0F00132
:103F40006173696A8968098891421CBF40F604025E
:103F5000914217D0398BA9B100217983F96108F119
:103F60002C010A7802F0F0020A704A7802F0F0029E
:103F700042F001024A7008F120014160417B01F0EA
:103F8000F00141736946386800F0AEFD684600F004
:103F9000BAFD386800F0B6FDF0690028FCD00020BA
:103FA000F0610120FFF74EFC012808D0607B00F093
:103FB000F00040F0010060730FF20D00E863386814
:103FC0003060BDE8FF810000DFF84C0A014200D1FB
:103FD0007047012010B5FFF735FC0128DFF83C459C
:103FE00008D10FF23100DFF87017E063DFF8280521
:103FF000086010BDDFF8241A09683220EC34B0FBE9
:10400000F1F12046FDF764F92046BDE81040FDF7C8
:1040100046B900002DE9FE4306460D466804DFF868
:10402000FC4417D5FDF740FFE66AB769FDF742FF8C
:10403000B8070CD45EB1B069B843B061706830B1F4
:10404000B6F91C10F06876683A460023B04725F4AC
:1040500080453DE1A807DFF8C0747BD5266B002EB4
:1040600070D0B168202001E04968401E79B1C2B229
:104070006AB10A8840F603039A421CBF40F6040363
:104080009A42F1D1F06818222030FFF7ABFAB069FC
:104090000021B1617168E1B140F00202F07F0023BC
:1040A00000F00700012807D0022809D0042804BF27
:1040B00000224FF0805306E000224FF0005302E050
:1040C00000224FF08043B6F91C10F068D6F804C007
:1040D000E047FDF7E9FE8046E08E401CC0F30B0090
:1040E000E086206BC17F01F07F01C17704F13000D1
:1040F000FFF7C4FC00F0EDFBB4F93610F06800F1F6
:104100009402B2F90030994204BF397D002919D1D7
:10411000917809B9016821B900209070FFF7E9FC96
:1041200010E0A26B126812F1010F0BD0DFF8242609
:104130001268B1FBF2F17030FDF7CAF8F068703028
:10414000FDF7ADF8206B002825F0020501D045F001
:104150000205BDE0A80004F1800840F6090957D522
:10416000206CB8B10420FFF76DFB98B1FFF71EFA81
:10417000216C814228BF401E401A000B00F58D7053
:10418000F06040F2D761A0F2EE20884224BF40F6F2
:10419000C410F06000202064D6F818C0BCF1000FF5
:1041A0000DD0787B0F21084204BF708C484506D1A2
:1041B00000224FF000736FF480713046E047002218
:1041C000DFF85C184046FDF705FFB87E50B10220CD
:1041D000ADF80000684600F05FFCBDF80800A08361
:1041E0000020B876012084F82000F87D401CF87586
:1041F0000020F8761920FDF7F0FE77692FB1002234
:104200004FF0806300213046B84725F000555FE04D
:10421000B87F25F0080620B1280702D50020B8771E
:1042200043E0280743D5002084F820000120387798
:10423000002000F079FC0FF2B100DFF8E817DFF89A
:10424000D056E06300224046FDF7C4FEB97E787E7A
:1042500081F00101084202D1012078760FE0A06CC4
:10426000F8B1FFF7A3F9216C626C401A02EB103031
:104270006064A16CB0EBC11F13D300206064A7F889
:104280000090787B00F0F00040F00100787300208F
:104290007880387B00F0F0003873002078602F6061
:1042A00003E04FF0005100F01AF8354610E0A80482
:1042B0000ED5A66A002E1CBF7068002806D0B6F97D
:1042C0001C10F068766800222023B04725F40055C2
:1042D00015B1294600F003F8BDE8F783022104F187
:1042E0004C00FDF72EBA000070B50646880028D5B0
:1042F00000F0DFFB894CDFF83007874DE063687D15
:1043000018B906F13800FDF7C9F8DFF81C160020CF
:104310000860022000F0D0FC112000F0E1FC307CAD
:1043200010B90E2000F0DCFC0020A883287E40B1EC
:1043300000202876042104F14C00BDE87040FDF710
:1043400000BA70BD30B58DB000F037FCDFF8DC0688
:10435000DFF8DC460168714D41F00201016001A8FF
:10436000FFF77EFBA078DFF8CC160790002301AAA8
:1043700005F14C00FEF759FC01A8FFF778FB00207F
:10438000ADF81C0001AB2078DFF8982609901921C0
:104390000020009005F18000FEF70DFB01A8FFF75B
:1043A0005FFBE078DFF890160790002301AA05F183
:1043B0009C00FEF73AFC01A8FFF759FB0120ADF87D
:1043C0001C0001AB6078DFF8742609901A210020E8
:1043D000009005F1D000FEF7EEFA00230022DFF88E
:1043E000601605F1EC00FEF791FBDFF83C06E86390
:1043F00001214FF6FF70A8830DB0DFF848068176E3
:104400000021E9774176C17681838177296430BDC7
:104410002DE9F041404E0446707D8EB00F46904627
:104420001D4618B9FFF78EFF01207075002F1CBFC5
:104430006760B8F1000F47D0C4F80880FDF734FD7D
:10444000B17D00293ED10121B175FDF733FD35B9AC
:1044500009A80FF220611422FFF7C4F809AD2868FB
:1044600020606868E060287A2074E86860612869E4
:10447000010018BFA061782104F12000FFF7E2F8E5
:104480000823242200216846FEF780FB01208DF8D6
:1044900018006A46002104F13800FEF794FB082357
:1044A000242200216846FEF70FFB06946B4600228B
:1044B000DFF8941504F17000FEF728FB20460EB0DB
:1044C000BDE8F081FDF7F6FC0020F8E738B5FDF710
:1044D000EBFC124991F8201031B1DFF874150C682B
:1044E000FDF7E8FC204632BDFDF7E4FCFFF75EF87F
:1044F00010F50030DFF85C2541F10001A2FB00451A
:10450000054802FB015501690020221845EB010313
:10451000184632BD00000000E02E0020D02D002003
:104520002DE9F84F80460C4692469B46FDF7BCFCB1
:10453000DFF818558146B5F93400B5F93610401A40
:10454000C0F30B0008286FF0010648DAA88E401C63
:10455000C0F30B00A886B5F93400ADF800000020C8
:104560007B4901EB4017F97F090604D5401CC0B216
:104570000828F5DB002708F17000FCF79AFEBC6004
:1045800087F81EA0C7F804B02021BDF80000B8834A
:10459000C7F80C80DDE90A23DFF8BC04104019409D
:1045A000C7E9040108F194040020F87740F6FF7889
:1045B000686A0028394605F1240008D0FFF769FA37
:1045C00040B1BDF8000000F061F848464BE0FFF74D
:1045D00060FA48B9A88E4044C0F30B00A88648464C
:1045E000FDF768FC304649E0BDF80000DFF8546490
:1045F00000F04CF80020A07095F82010707F084261
:1046000007D00120B07700207077B076F07D401C95
:10461000F0754846FDF74EFCA86A68BB95F8200087
:1046200018B11920FDF7D9FC26E0F07E20BBFDF77C
:104630003BFC0446307F10B10120307612E0B868B0
:10464000FFF782FAA86488B1A86CA96BC968401A00
:10465000DFF8C813096805F1EC0600F021F83046D0
:10466000FCF71DFE2046FDF725FC05E02046FDF782
:1046700021FC042100F010F8BDF90000BDE8F28F24
:10468000F6FFFF1F0810044020000E002080F87F76
:1046900040F08000F877704705F14C00FDF751B805
:1046A000B0FBF1F13046FCF713BE2DE9F0410646B0
:1046B0000F4614461D46FCF7B4FF80463846FFF708
:1046C00005FA070003D14046FCF7AFFF0AE0F87F88
:1046D0000721084209D04046FCF7A7FF0721F87FD1
:1046E0000842FCD10220002114E07968DFF86C0355
:1046F000814202D0796831667860C6E91645404645
:10470000FCF793FF4FF0FF3106F13800FCF767FE2E
:10471000D6E91A01BDE8F081DCB5DDE9066704469B
:10472000CDE90067180008BFDFF830332046FFF7F7
:10473000F7FE002803D500204FF00041DCBD014604
:10474000204602B0BDE8D04002224FF0E043ACE783
:10475000481D00207CE300000010044002000040DF
:104760000446FDF7A1BB01E042F002022DE9F84347
:10477000DFF8D842606A0090894603271546FDF7A6
:1047800093FB19F1010F05F0010680460AD1A06ADA
:10479000002819BFA06AB0F91C90E08E00F1010951
:1047A0000020E0770FFA89F0FFF790F901007CD044
:1047B000A06A814205F0020525D1280003D0606A75
:1047C0000090002060620122C87FB2401043C87789
:1047D000FCF727FF0746002E14BFDFF88402DFF83E
:1047E000840200F059F900F074F825B906E000F0F1
:1047F00063F800F069F800980028F8D13846FCF713
:1048000014FF832753E0009A8A4204F1EC0016D18A
:10481000FCF74FFD280012BF0020606A006860624C
:1048200000F057F8009800F047F800F04DF80098B5
:1048300018B32800F6D120E0009A12680092009A7E
:10484000EAB112688A42F7D1FCF733FD009800689C
:104850001DB1009A0021116004E00168009A116006
:1048600000210160009003E000F026F800F02CF831
:1048700000980028F8D100F02CF8832701E000F020
:1048800028F8DFF8C001C17E11B1FFF727FD0EE067
:10489000007F60B9DFF8D001E063FFF71FFD94F8F7
:1048A000200020B96048E06301E000F012F83846CB
:1048B000BDE8F283D0210840C07F009940F0040099
:1048C000C8776846FFF7DAB8014604F13000FFF711
:1048D000E0B84046FDF7EEBA38B5FFF741FF0546B0
:1048E0005A4890F8200068B1204600F0D5F80446F8
:1048F00000F048F804F0FF00012801D1812032BD0A
:10490000022032BD00F03EF8012032BD0000000060
:10491000001004400A464D49896B884201D00320AB
:1049200070470AE051000706000004600A46474944
:10493000896B884201D00320704700211046CBE7E5
:1049400070B542498A6B90426FF07F0412D191F8A2
:10495000200078B1FDF7A8FA0546444800F09CF81D
:10496000064600F00FF806F0FF00012802D13002E1
:10497000001670BD204670BD1C2E002001000706E9
:1049800001010E042846FDF795BA70B50E4615468E
:10499000FDF78AFA83242D491EB1022E0DD004D3CF
:1049A0000FE08A6A3AB1896A02E0264A927E12B919
:1049B000898B298006E0802404E091F8201029707A
:1049C00000E00324FDF776FA204670BD80B5084666
:1049D000FFF77CF800B1806802BD38B5FFF7C0FE74
:1049E0001A49CA7F520702D58B7F9C4210D0012200
:1049F0008B8B02FA04F52B438B830C341C490B6818
:104A0000A24023EA02020A60096809B90D4A117539
:104A1000BDE83240FDF74EBA040000207CE3000000
:104A20007B3C0000BB3D0000DD3D00000020094054
:104A30005CD70000813D0000DF3B0000953B00009B
:104A4000973D0000E02E0020453D0000D02D0020C5
:104A50000430044000093D00F1EFFF9F493D000094
:104A600001000204010001041540000001000304DC
:104A70000C100440FFFFFFFFC4090000010000000C
:104A8000000000007F3D000021490868C2430A6021
:104A90000A680242FAD170471E490A68002AFCD10E
:104AA000CA610860C8690028FCD00020C861486855
:104AB0007047194801686FF00202114041F400711B
:104AC000016003211548816041F2300141610121FB
:104AD000C160502141610121C1604FF4CA6141614F
:104AE0000121C160016070470D4802680A60826858
:104AF0004A60C2688A60406B20F0784040F0805085
:104B0000C86070477047014610220648FEF75ABD3C
:104B100010100440001004400000046000410440F4
:104B20004C130050180000217047000020B10823EA
:104B300024220021FDF7C8BF704780B501200090F6
:104B400009234FF400720021DFF80807FEF735FE55
:104B500001BD80B5002301223421DFF8F806FEF7FD
:104B60003FFE00B10120C0B202BDDFF8EC06806854
:104B70007047DFF8E416401890F8ED007047002207
:104B8000022904D1012806D140F2EE2203E00128D7
:104B900008BF4FF47A7210467047DFF8BC06D0F8B1
:104BA000DC007047DFF8B00690F8E61021B1D0F8CD
:104BB0000C01010018BF004770472DE9F041DFF8F4
:104BC000988608F1E1058AB0A879002861D1012012
:104BD000A871DFF88866DFF88876307B68717068C6
:104BE000C8F80C0101A8FFF7A1FF00200690ADF85E
:104BF0001400079001AB00220FF2F54108F10C0000
:104C0000FDF784FF01AB00220FF2A15108F1300043
:104C1000FDF77CFF01AB00220FF2D94108F15400EF
:104C2000FDF774FFB16801208847DFF83806007887
:104C30007868C0F38154707B20B1032C02D101202D
:104C4000287003E0032C18BF022C16D1022000F0BC
:104C50009DF8032CDFF810160CBF4FF47A7042F267
:104C600010700968B0FBF1F108F15400FCF730FB5B
:104C700008F15400FCF713FB05E0012C03D100F010
:104C800063FAFFF75AFF386840075CBF002000F066
:104C90007DF80AB0BDE8F08110B508B1140001D16B
:104CA000022010BD8160C26003610146DFF8A805E3
:104CB00000F028FB002010BD10B50446FDF7F4F805
:104CC000DFF89415621892F8E8305B1E82F8E8303D
:104CD000DBB223B98A680123A3409A438A6066E065
:104CE0002DE9F0410546FDF7DFF88046DFF868154D
:104CF000681890F8ED20521E80F8ED20D2B2002AFC
:104D00003FD10FF2A050DFF8644500EB85052E7807
:104D10006F88300615D52168096A384688472168AA
:104D2000896A384688472168096B38468847DFF822
:104D3000401501200860DFF83C0500688007FAD5BF
:104D400012E0700606D501EB87010020D1F80011B2
:104D5000884709E021688969384688472168496B96
:104D6000384688470228F9D106F03F003F2818BF8F
:104D7000FFF7B6FF687800F03F003F2818BFFFF745
:104D8000AFFF4046BDE8F041FDF794B810B50446CA
:104D9000FDF78AF8DFF8C0148A680123A3401A439C
:104DA0008A60611891F8E820521C81F8E820BDE87B
:104DB0001040FDF77FB8F8B50646FDF775F80446D4
:104DC000DFF89454701990F8ED104A1C002980F80F
:104DD000ED2039D10FF2CC4000EB8607387800F097
:104DE0003F003F2818BFFFF7E6FF787800F03F004C
:104DF0003F2818BFFFF7DFFF7E883878DFF86C7434
:104E000001060ED53968C969304688473968496A4C
:104E1000304688473968C96A3046884700F019F833
:104E200012E0400606D505EB86010120D1F80011FD
:104E3000884709E039684969304688473968496BCD
:104E4000304688470128F9D12046BDE8F240FDF7F9
:104E500031B8DFF81C1401200860DFF8180400687E
:104E60008007FAD570472DE9F04F002483B04FF04A
:104E7000000A0128D04618BF012664D1DFF8D89374
:104E8000D9F8DC0001285DD10220C9F8DC00FCF76C
:104E900003FD0090012000F062F9060054D1FCF7F8
:104EA000C0FBDFF8D81301900C600120FEF7CAFCAC
:104EB000012804D1002000F0A7F94FF0010ADFF823
:104EC000C013DFF8B4030C6000681120FFF751FE37
:104ED00008B14FF001081020FFF74BFE08B148F071
:104EE00002080F20FFF745FE08B148F004080B2028
:104EF000FFF73FFEDFF8746320B13168096B4FF4B0
:104F0000806088470A20FFF734FE20B13168096BC2
:104F10004FF481608847DFF85813DFF86873DFF8D3
:104F200068B30120086048F020003168896988472B
:104F3000DFF858130120086099F80800C00707D56A
:104F4000012416E0042673E00120C9F8DC006CE0BF
:104F5000584600F0F9F90546042DF9D0012D04D189
:104F6000326A5268032158469047386880088000AA
:104F70003860002000F0F0F9BF4800683068806BAE
:104F8000804754B9012D04D1326A52680121584634
:104F90009047386840F0030038600120B849086045
:104FA00040463168496988470B20FFF7E2FD20B190
:104FB0003168C96A4FF4806088470A20FFF7D9FD3D
:104FC00020B13168C96A4FF481608847A84901203F
:104FD00008600020AD4908600320C9F8DC00316892
:104FE000496B404688470128F9D1042000F0B7F802
:104FF000A24901200860A0480068A5480068800612
:10500000FBD5BAF1000F1CBF012000F0FDF8FEF740
:10501000F3FC082000F0A3F806460120C9F8DC00E4
:105020000198FCF702FB00F067FA0098FCF73BFCE4
:105030003046BDE8FE8F38B50446FCF735FF05461F
:105040002146854800F072F928464BE030B500242F
:1050500001288BB004D021D303281DD018D31DE024
:1050600001A8FFF763FD7C4D8A490694ADF8144012
:10507000079401AB012205F17800FDF747FD00948C
:105080000023854A2C2105F19C00FDF794FC05E0E6
:1050900000F0BEFA044601E000F060FB20460BB0D1
:1050A00030BDFEF7DCBB38B5FCF7FEFE05466A48AE
:1050B00090F8E000012410B1FFF74BFD04462846AC
:1050C000FCF7F8FE204632BD38B5FCF7EDFE624D28
:1050D000044695F8E00020B1FEF708FC002085F8B2
:1050E000E0002046BDE83240FCF7E4BE00000000CE
:1050F0007047000010B582B00420FEF7A3FB022821
:1051000018BF032807D100F01FF8FFF716FDBDE810
:1051100016400220D0E56148534900684E4CC0F368
:10512000815003280CBF4FF47A7041F2883009682F
:10513000B0FBF1F104F15400FCF7CAF804F154009B
:10514000BDE81640FCF7ABB8032000901C234FF0DD
:10515000405200213F48FEF730BB0020704770B539
:1051600004463D4E304600F0C3F8002598B930465D
:1051700000F0C4F80646B068204207D03269F368F0
:105180000021204698470546012D05D0304600F005
:10519000B7F80600EFD1284670BD414901280CBF81
:1051A00040F2FF70002008600020704770B5FCF7E7
:1051B0007BFE294E294D044696F8E00028B1FEF703
:1051C00095FB68B1002086F8E0000220AD68A84792
:1051D00006461020FFF7C3FF8EB10320A8470EE05C
:1051E000214909683220B0FBF1F101B9012106F132
:1051F0003000FCF76DF806F13000FCF750F820465F
:10520000BDE87040FCF756BE38B501281ED1FEF748
:1052100019FB01281CD0FEF75FFB0F4C124901203F
:1052200084F8E00032200968B0FBF1F505B90125EA
:1052300004F13000FCF73DF8294604F13000FCF79A
:1052400047F804F13000FCF72AF801E0FEF770FBA4
:10525000002032BD00A00C40081B0020A8D6000092
:10526000B03F0050E13400207CE30000B8010010A2
:1052700028200860282008402C2009400C400940C4
:1052800000022243242208400040034080010443DE
:10529000141009409958000069560000B43F0050AE
:1052A000000004608F3F00008F3F01008F3F02002D
:1052B0008F3F0300903F00018F3F0101903F0002AC
:1052C000903F00038F3F01048F3F00058F120804B9
:1052D0008F3F00048F3F0006513F00007F3F0100D9
:1052E0003F3F04003F3F02003F3F01007F3F02007D
:1052F000006800280CBF012000207047006870473C
:105300000068704738B504460D4600F09AFB00214E
:105310002960616869606168002914BF0D602560BB
:105320006560FFE7BDE8324000F08DBB0B684A685E
:10533000002B0CBF42605A604A680968002A0CBF03
:105340000160116070470000006801074CBF042035
:1053500000F00300704700002DE9F84F064693481F
:10536000934C0068934D800704D50820A87192489B
:105370002060BFE0FEF748FB804690480068009040
:105380000027001700F101090098800208D4C8F135
:105390003E00C0100928A8BF08208145B8BF81463B
:1053A00087480068C0F30460FDF7E3FF8246854844
:1053B0000068C0F30440FDF7DCFF09EB0A01162981
:1053C000A8BF152104DA6FF009029142B8BF114657
:1053D00001F01F027C4B42F4F8521A807B4A12689B
:1053E00012F0030F18BF0127520748BF47F002070A
:1053F0000EB147F0040795F90720A8EB0202052A31
:1054000002DAAA7997425DD0A8F10F0C0026BCF110
:10541000000FB64607F0010207F00403DFF8B09171
:1054200023D40CEB0C1C4FEA2C2EBEF1080F28BF26
:105430004FF0070E7646072E28BF062609EB860A90
:1054400059F82660DAF804A0AAEB060A0AF0FF066B
:1054500013B1CAF3072B5E445FEA877B44BFCAF3EC
:10546000074B5E440AB106EB1A6659F82E9009F014
:10547000FF0A13B1C9F307239A44BB0744BFC9F31A
:1054800007439A440AB10AEB196A401AACEB0E22A0
:105490000099AF71724380320128B8BF01203423D4
:1054A00001F0FF0158430AEB12224843B0FBF2F02F
:1054B000B0F5803F28BF4FF6FF7008F30708A880BB
:1054C00085F8078043480068A988286000201F29C4
:1054D00004D21F21A98004E04908401CB1F5007FD7
:1054E000FAD20F39090940EAC1003B49084320605C
:1054F00000206060BDE8F18F10B53848006884B2C4
:105500001CB3FEF781FA2B4991F90720904205DA86
:105510006FF07F029042B8BF1046C87188888442FD
:1055200001D28C8010BD2B4A12680B68D21A921CD3
:10553000202A28BF1F22231A5208D3401818B0F57A
:10554000803F28BF4FF6FF70888010BD2448026856
:1055500002B9704710B5234B996801F04060B0F173
:10556000406F21D011480468A4071DD45C68A407CB
:105570001AD404681B68C3F303531C331B0114F0D3
:10558000050F06D09A420FD26FF00501214001604D
:1055900010BD934208D20A0158BF44F001044901EA
:1055A00058BF44F00404046010BD0000000009402E
:1055B00030100940D4340020FDFDA400B43F005059
:1055C000B81200503C1100506E620840242208407E
:1055D0009C1300500820094000E7A48034100940C3
:1055E00028500940AC3F005010B50C18FEF700FAE7
:1055F000401E8041C00FDFF8F0130A68002AFCD07B
:10560000246801220A6008B1FEF7F6F9204610BDB1
:1056100038B5DFF8D843DFF8D8132078897B002528
:1056200008430AD0FCF740FCA178002906BF0121FD
:10563000A1700125FCF73EFC0DB1002032BD022017
:10564000FFF7A4FB0E20FFF7B6FBDFF8A803016805
:1056500009B1012032BDDFF8A023402111600121F2
:10566000C1610020607032BD70B5DFF88C0382B07C
:10567000002101604821C160DFF8800300F1D804F7
:10568000A17A002968D00129DFF8742329D1106894
:105690004BF2F5214843050ADFF868030068C0F3C0
:1056A0008140012806D1FEF7AFF9FEF758F96843AB
:1056B00005EB9055607B10B10020607305E0D24887
:1056C0000068000215EB10204508D0480560290C41
:1056D000416001218160C648807B00283AD00520C6
:1056E00039E0022909D11568284600F0FDF8A5F235
:1056F000FF5003282ED308202DE003292CD1116858
:1057000000F1B805A1F5C0612868E961002848BF2B
:105710004042002948BF49428842A8BF002018DA09
:105720006868BB4E80B2009008234FF47F4230215E
:105730003046FEF742F8A86800F072F904213046BE
:10574000FEF73BF8A86900F071F93046FEF735F82E
:10575000012020700B202073BDE873402DE9F0413B
:10576000A64CDFF8AC82AB4FAB4EA34804F1E10589
:1057700082B0E9784A1E0B2A00F28080DFE802F04E
:10578000062233465B33465B3346636EA3490968A2
:105790000968202088470F20F860072341F61D5034
:1057A00038614FF4C0720220009000F070F80723B7
:1057B0004FF4C07200214046FEF712F8012030601D
:1057C000022044E00120F861287800281DBF002055
:1057D000306103200620E8700320386000207060EC
:1057E0007068800734D4E878032804D1022000F0E0
:1057F0004BF8042007E0002000F046F8E87806287F
:105800000CBF07200A20E87001201AE0042903D108
:105810002021B961012105E00122BA610A290CBFEA
:10582000032102216970002139600821C1600160F3
:105830000120386026E005290CBF06200920E87009
:105840000020706004E00020306070600C20E87080
:1058500004F17800BDE8F641FBF721BD00210160AD
:105860000120644908600E20FFF73AFA0220FFF792
:1058700023FA0120E8700020A87003E0BDE8F3419E
:10588000FCF776BFBDE8F38100900523602200217C
:105890004046FDF792BF000080B558495E4891F838
:1058A000E410891E0A291AD8DFE801F0060A0E1949
:1058B0000A0E190A0E19120001688907FCD510E0BA
:1058C00041688907FCD40CE041688907FCD508E0F1
:1058D00001688907FCD441688907FCD401E0FCF722
:1058E00047FFBDE8014039E7F8B50746484C30218D
:1058F0002046FFF779FE414E06F1B805C0F30720B8
:10590000686004212046FFF76FFEC0F38440A86062
:1059100020212046FFF768FEC0F38120A861B7F57B
:10592000C060286002D186F8D800F1BD296996F8D8
:10593000D8202AB96A68A968EA60E861AA696A6138
:10594000E86900284CBF6FF00102022200EB400022
:105950001018421000EB927001EBA0006968E9603A
:10596000012810DA6A69032A04D1153001281DDAEA
:1059700001201BE00B300128B8BF0120491E48BFA1
:105980000021E96007E01F2812DB6A692AB915388F
:105990001F28A8BF1E20032109E00B381F28A8BF1D
:1059A0001E20491C4029A8BF3F21E96000216961F0
:1059B00028610823E86880B200904FF47F423021CC
:1059C00000F03CF80120009011234FF4003200F069
:1059D00034F8286900F024F800F02FF8686900F026
:1059E00025F800F02BF8F1BD00800C40E91B0020E9
:1059F000A8D6000004800C402C500C40081B00204E
:105A000008400C40B43F0050102009403C600C405E
:105A100000A00C4000400C4034600C40A00100107D
:105A200080B2009012234FF4F802704780B20090C9
:105A30000A234FF440622021704704212046FDF7DD
:105A4000BCBEFCF731BAFCF735BA000020B1082320
:105A50002C220021FDF70DB8704720B108233C220D
:105A60000021FDF70BB9704780B5FBF715FFADF8C6
:105A70000000FCF719FAADF80200009802BD01B56C
:105A8000BDF80200FCF716FABDF80000BDE80240C0
:105A9000FBF709BF38B5DFF8A008DFF8A018DFF87A
:105AA000A04880088000091A2161E060034602E0F6
:105AB000002523F8025B0D18AB42F9D38B0800EBED
:105AC0008303002223F8042CE82202804FF6FC72A4
:105AD0001140EC39A0F8E810E8306060002000F0D8
:105AE00004F8A060E068606031BDF8B500240025CE
:105AF000061D16F003001CBF311D0E1AFFF7B4FF80
:105B0000DFF83C28B6B21060112EB4BF5768976812
:105B10003A88130403D582F4004200251AE02B00D2
:105B200014D0238839880B4423809BB2B34211D30D
:105B300027461A46B7B1921B92B2042AA7BFBA539E
:105B400046F40041398841F4004109E0B242F1DAFB
:105B500001253C4617443A88002ADAD1002701E0A3
:105B600027F8041BFFF78BFF3846F2BD10B504463B
:105B7000FFF77AFFDFF8C817086034F8042CC2F387
:105B80000E0224F8042C221F4B689A4238BF4A6048
:105B9000BDE8104073E770B50446FFF765FF0021CC
:105BA000DFF8A0570C2202FB01F6AA5942B1944239
:105BB00003D1FFF764FFA81970BD491C0829F1D370
:105BC00021E070B50546FFF74FFF044600200C2288
:105BD000DFF8701742438E18316849B90020B06071
:105BE00035600022FCF7D7FF706018B900F048FC60
:105BF0008D4204D12046FFF742FF304670BD401C65
:105C00000828E4D32046FFF73AFF002070BD38B5DE
:105C10000446FFF729FF0025DFF82C170C226A4302
:105C20008A5A130008D0944203D1FFF728FFE8B244
:105C300032BD6D1C0B2DF1D3FFF721FFFF2032BDCC
:105C400010B504462088FFF7E2FFFF2800D170E17D
:105C50000C22DFF8F416504308448168080002D192
:105C60006FF0010010BD2046BDE810400847024615
:105C70000FF24470104710B500200C21DFF8C42645
:105C8000002401FB00F3401CD450134408289C60FE
:105C9000F7D30020DFF8B026002301FB00F4401CFE
:105CA00013530B28F9D3082010800FF2F560906091
:105CB000BDE81040EEE670B590B0FBF7EDFD044690
:105CC0006846FFF7CAFE05200690002240F2B63073
:105CD000089069464FF669600490DFF870060590F9
:105CE000DFF86C06FCF7D8FF050006D0FFF7BCFE16
:105CF00006462846FFF765FF08B900F0C1FB3046AD
:105D0000FFF7BDFE2046FBF7CEFD10B070BDF8B525
:105D100000F0E9F8FFF755FF05006FF0020616D016
:105D2000FFF7A2FEA28800210C27DFF81C364F43A4
:105D30003B441F883FB91A805D60A2689A60217356
:105D400069682161C7E2BA4203D1FFF798FE304685
:105D5000F2BD491C0B29E7D300F092FB00BF38B518
:105D600000F0C1F8FFF72DFF050019D0FFF77CFE0A
:105D700000210C23DFF8D0254B431A44138863B964
:105D80004FF6F873138055600023936021716968A2
:105D9000A160FFF774FE002032BD491C0B29E8D337
:105DA00000F06EFB00BF10B5044660680C3080B296
:105DB000FFF79BFE00B91AE06168018100210160D4
:105DC000FF2181720C30A060002010BD80B54068BA
:105DD0000C3811E080B288E610B50446606880B2E5
:105DE000FFF783FEA06000B901E0002010BD6FF056
:105DF000030010BD80B54068FFF7B8FE002002BD6B
:105E000038B504460D46FFF72FFE002145F80C1C5F
:105E1000216811B9256006E0114651F80C2C002AC2
:105E2000FAD141F80C5CBDE8324028E62DE9F0419A
:105E300004466FF00206E068A0F10C05A0790B287B
:105E4000BCBF20790B280BDAFFF70EFEA179DFF833
:105E5000F8840C2779434144496819B9FFF70FFECC
:105E6000304617E0FFF70BFE20792871A0796871A2
:105E7000207AA871A079E1687843404440680830EE
:105E8000FFF7BEFFA0797843404440684068FBF7C5
:105E900005FB0020BDE8F08170B500F024F8FFF7A5
:105EA0007AFE060002D16FF0040070BDFFF7DCFD42
