:040000050000DB1DFF
:020000040000FA
:1000000040430020F17F000001CA011001CA011025
:1000100001CA011001CA011001CA011001CA011070
:1000200001CA011001CA011001CA011001CA011060
:0C00300001CA011001CA01103FCA0110F2
:100100003C0000000000000000000000340100007E
:1001100000000000000000000100000000000000DE
:1001200000000000000000000000000001000000CE
:100130000000000008000000000000003400000083
:100140000000000000000000680100000000000046
:10015000000000000100000000000000010000009D
:100160000000000000000000080000000000000087
:1001700030000000000000000000000098010000B6
:10018000040000000000000001000000FFFFFFFF6E
:10019000FF00000001000000080000000000000057
:1001A0002C0000000000000000000000C40100005E
:1001B000040000000000000001000000FFFFFFFF3E
:1001C000FFFFFFFF080000000000000034050000F2
:1001D000E401000099A1011095A70110A5C201102A
:1001E00009B2011045B80110000000000000000035
:1001F0002F000000280000000000000000000000A8
:10020000140200000000000000000000FFFFFFFFDC
:1002100000000000080000000000000030050000A1
:100220003002000069C201106DC101101FC201102F
:1002300095BA011000000000000000002D00000031
:10024000300500005402000075C20110A9B601106B
:100250009DBF011049B60110000000000000000021
:100260002E0000002400000000000000000000003C
:1002700080020000000000000000000000000000FC
:100280000800000000000000240000000000000042
:1002900000000000A40200000000000000000000B8
:1002A0000000000008000000000000002400000022
:1002B0000000000000000000C80200000000000074
:1002C0000100000000000000080000000000000025
:1002D00000000000F4060020040000000000000000
:1002E000000000002000000070010000300000004D
:1002F0001C020000140700200400000000000000A1
:10030000000000000C000000300400001800000095
:10031000400200001C070020040000000000000054
:100320000000000024000000480400001800000045
:10033000000000005C070020040000000000000036
:100340000000000010000000A00100002C000000D0
:10035000CC01000064070020040000000000000041
:1003600000000000200000006402000024000000E3
:10037000FFFFFFFF840700200400000000000000D2
:100380000000000028000000880200002400000097
:10039000FFFFFFFFAC07002004000000000000008A
:1003A00000000000580000003C0100003400000084
:1003B000FFFFFFFFB4070020040000000000000062
:1003C00000000000100000006004000018000000A1
:1003D000FFFFFFFFBC07002004000000000000003A
:1003E000000000001C000000AC020000240000001F
:1003F000FFFFFFFFC4070020040000000000000012
:100400000000000038000000F40100002800000097
:10041000FFFFFFFF2C080020040000000000000088
:100420000000000054000000000100003C0000003B
:100430001800000000000000000000004004000060
:10044000080000000000000018000000000000008C
:100450000000000058040000080000000000000038
:100460001800000000000000000000007004000000
:1004700008000000000000000100000038800000BB
:100484000100000000000E0000000F003200000018
:1004940001000000FC060020000200000000000033
:1004A40001CA011000000000000000000800000064
:1004B4000000230024070020010000006C07002036
:1004C4000800000000000000000000000000000020
:1004D400000000000000000001000000CC07002024
:1004E40006000000010000003408002000000000A5
:0C04F400000000000002000000000000FA
:0F0502002900010025002D002E002F000100010F
:10051400040000001C800000000000000000000037
:10052400000001000000030087C40110380500002A
:10053400380500000000000090000000900000005A
:10054400000000006C0700203D3200002000000085
:1005540008800000F47D00000DC30110531D00004D
:10056400551D000099C801109BC80110000000002F
:100574003E2A00005C7D0000747D0000447D000084
:090584000800090001000000015B
:10059000000000000000000000000000000000005B
:1005A00039190000591900005D1800008319000076
:1005B000A51800007B180000D7180000AF19000034
:1005C000B5310000C5330000C93300000800000049
:1005D0002400000018000000280000002000000097
:1005E0003C0000000C00000034000000DFF800F0C8
:1005F00049C10110DFF800F019C20110DFF800F066
:1006000041AC0110DFF800F0CDA00110DFF800F0E0
:1006100085C10110DFF800F0C1C20110DFF800F061
:10062000E3BF0110DFF800F0C1C10110DFF800F0F6
:1006300009B70110DFF800F03DC10110DFF800F04C
:1006400029AF0110DFF800F0CDC10110DFF800F094
:1006500085B00110DFF800F0DDB20110DFF800F026
:1006600079B50110DFF800F0D5C00110DFF800F017
:10067000E1B5011020B1082328220021FFF7E2BFD5
:10068000704720B1082330220021FFF7D3BF704705
:1006900038B500F06FFE25680DB129682160FFF7BD
:1006A000A9FF284632BD70B504460D4626680020D5
:1006B00028601EB9FFF79AFF25600DE0FFF796FF4F
:1006C00000E0366831680029FBD1AE4203D1FFF764
:1006D00091FF002070BD3560FFF78CFF012070BDD9
:1006E0000022DFF8801C01EB4211CB7F1B0605D5F1
:1006F000B1F91C30834201D108467047521C082AC8
:10070000EFDB00207047F8B500F034FE0546DFF857
:100710001C0AC17D0A001CD0491EC175C9B2C1B9ED
:10072000DFF80C7A082107F14C0001F054F884B18D
:10073000B86B703001F025F8B86BDFF82C1CC0687E
:100740000968201A07F1EC0600F0B4FD3046FFF707
:1007500065FF2846BDE8F240FFF74CBF10B50446E0
:10076000207B00F00F00022802BFDFF8C009007DE7
:10077000002817D100F0B4FCA1688908A1EB900013
:100780006FF0704188420DDAB0F1704FBCBFDFF8F6
:10079000041B0818DFF89819896BC96801F57A718C
:1007A000814200DB002010BD38B5DFF8EC0ADFF82D
:1007B000EC2A0168DFF8784902EA0105E9430160A3
:1007C000A90606D54068800603D54FF4005100F015
:1007D00090FB15F4602F0BD0A06905F4602108434D
:1007E000A061002104F19C00BDE8344000F0F3BF9B
:1007F00031BD70B5FFF7FAFEDFF834490646A0694F
:1008000010F4602F27D0A069C5012D0EE80748BF5E
:10081000002506D4A80748BF012502D4680748BFB1
:100820000225681D40B200F0E2FEA069012105F139
:10083000110291408843A0613046FFF7DBFE04EBD4
:1008400085008668300009D0606800224FF00063A0
:10085000691DB04702E03046FFF7CCFEA06920B129
:10086000002104F19C0000F0B6FFE07F80070DD569
:100870006569280006D0606800224FF000436FF0E1
:100880000101A847E07F00F0FD00E07770BD70B582
:1008900001F06CFBDFF89858DFF8D04AAB6A0246EB
:1008A00090071DD4D3E90401104007D0EB62996989
:1008B000084398614FF4804100F0F8FCA86A0028D2
:1008C00049D16E6A002E46D0F068A96B884224D0C8
:1008D00005F14C00BDE870404FF4805100F07BBF43
:1008E0000BB9A86AEAE70020A862D3E904019E696F
:1008F000024042F0020232439A61626982436261BD
:10090000E26822EA0100E060194605F13000FFF7D5
:10091000CAFE022100F0CAFCE3E7B068FFF71EFF41
:10092000A86418B1A86CBDE87040ECE6D6E90401F3
:10093000626902436261E26841EA0200E06000200D
:10094000E061B0682060E0690028FCD005F1240077
:10095000FFF79EFEAE6270BD0020D4E6F8B50646F5
:100960001446376E1D4607B1B847A00708D4D6E92C
:100970001601204029400022914208BF904207D032
:10098000C6E91A4506F13800BDE8F240FFF736BE69
:10099000F1BDFEE780B500F00EFFDFF894270146B9
:1009A000906BD26BBDE80840104710B5DFF8804768
:1009B0000FF23D01E06B884202D101F033FB20646D
:1009C00004F14C00BDE81040042100F004BF80B5E4
:1009D00001F0CCFADFF89819084207D0BDE80440CE
:1009E0004FF00051DFF8A40B00F0F5BE01BD000090
:1009F00038B5042951D1DFF83847606AA16B08B1D6
:100A0000C16803E0E07FC00748BF6168A163084692
:100A1000DFF8B42A41680B781360126809788A42BB
:100A20001CBF8569002D05D000224FF000736FF0C8
:100A3000FF01A847022001F039FC112001F04BFC16
:100A4000DFF8E8060121C176A16B407E097C0142F6
:100A500004BF0E2001F03FFCA06BDFF810194068C6
:100A60008268002A04BFC068002804D00020C86142
:100A7000DFF8C40A086040F2FF70DFF8C02A106097
:100A800000208861DFF8E80848610FF21100E06398
:100A90001920BDE83240FFF7DDBD31BD2DE9FF4132
:100AA0008046880040F19780DFF88456A86B406844
:100AB0004068010018BF8047A86BDFF8B068406845
:100AC0008168002904BFC168002912D0F16900299A
:100AD000FCD00021F1618068010018BF8047A86B3D
:100AE0004068C068010018BF8047DFF8A40A01F021
:100AF00045FA0020F06108F10807DFF8980A306035
:100B0000012001F083FA00220FF21D10E86340F685
:100B10000A01DFF8180642800180027B02F0F00231
:100B2000027300224260427B02F0F00242F00102B6
:100B3000427300223C68628000E014466268002A2A
:100B40001CBF13888B42F8D1606040F60302617BC2
:100B500001F0F0016173696A8968098891421CBFDC
:100B600040F60402914217D0398BA9B10021798354
:100B7000F96108F12C010A7802F0F0020A704A7853
:100B800002F0F00242F001024A7008F120014160D7
:100B9000417B01F0F00141736946386801F016FAB3
:100BA000684601F022FA386801F01EFAF069002860
:100BB000FCD00020F061012001F04CFE012808D09B
:100BC000607B00F0F00040F0010060730FF20D0058
:100BD000E86338683060BDE8FF810000DFF84C0A48
:100BE000014200D17047012010B501F033FE012809
:100BF000DFF83C4508D10FF23100DFF87017E063F1
:100C0000DFF82805086010BDDFF8241A09683220D3
:100C1000EC34B0FBF1F12046FFF7FCFC2046BDE8C8
:100C20001040FFF7FBBC00002DE9FE4306460D46D1
:100C30006804DFF8FC4417D5FFF7D8FCE66AB7690B
:100C4000FFF7D8FCB8070CD45EB1B069B843B06107
:100C5000706830B1B6F91C10F06876683A46002327
:100C6000B04725F480453DE1A807DFF8C0747BD587
:100C7000266B002E70D0B168202001E04968401E2C
:100C800079B1C2B26AB10A8840F603039A421CBF26
:100C900040F604039A42F1D1F0681822203001F0A6
:100CA0009FFEB0690021B1617168E1B140F00202BC
:100CB000F07F002300F00700012807D0022809D0A8
:100CC000042804BF00224FF0805306E000224FF0BA
:100CD000005302E000224FF08043B6F91C10F06888
:100CE000D6F804C0E047FFF781FC8046E08E401C48
:100CF000C0F30B00E086206BC17F01F07F01C1775C
:100D000004F13000FFF7C4FC00F0EDFBB4F936103D
:100D1000F06800F19402B2F90030994204BF397DC5
:100D2000002919D1917809B9016821B90020907082
:100D3000FFF7E9FC10E0A26B126812F1010F0BD073
:100D4000DFF824261268B1FBF2F17030FFF762FC85
:100D5000F0687030FFF762FC206B002825F0020578
:100D600001D045F00205BDE0A80004F1800840F67E
:100D7000090957D5206CB8B1042001F06BFD98B17A
:100D800001F050F9216C814228BF401E401A000B2F
:100D900000F58D70F06040F2D761A0F2EE2088423D
:100DA00024BF40F6C410F06000202064D6F818C0BC
:100DB000BCF1000F0DD0787B0F21084204BF708C6E
:100DC000484506D100224FF000736FF48071304621
:100DD000E0470022DFF85C18404600F00FFDB87EC7
:100DE00050B10220ADF80000684601F0C7F8BDF828
:100DF0000800A0830020B876012084F82000F87D48
:100E0000401CF8750020F876192000F0FAFC77698C
:100E10002FB100224FF0806300213046B84725F003
:100E200000555FE0B87F25F0080620B1280702D5FD
:100E30000020B87743E0280743D5002084F820003D
:100E400001203877002001F0E1F80FF2B100DFF85F
:100E5000E817DFF8D056E0630022404600F0CEFCF1
:100E6000B97E787E81F00101084202D101207876B6
:100E70000FE0A06CF8B101F0D5F8216C626C401A5B
:100E800002EB10306064A16CB0EBC11F13D30020E3
:100E90006064A7F80090787B00F0F00040F001005B
:100EA000787300207880387B00F0F00038730020E1
:100EB00078602F6003E04FF0005100F01AF83546DB
:100EC00010E0A8040ED5A66A002E1CBF706800288A
:100ED00006D0B6F91C10F068766800222023B047CF
:100EE00025F4005515B1294600F003F8BDE8F78355
:100EF000022104F14C0000F06EBC000070B5064603
:100F0000880028D501F047F8894CDFF83007874D75
:100F1000E063687D18B906F13800FFF76FFBDFF872
:100F20001C1600200860022001F056F9112001F083
:100F300067F9307C10B90E2001F062F90020A88317
:100F4000287E40B100202876042104F14C00BDE841
:100F5000704000F040BC70BD30B58DB001F0BDF800
:100F6000DFF8DC06DFF8DC460168714D41F0020174
:100F7000016001A8FFF77EFBA078DFF8CC16079090
:100F8000002301AA05F14C00FFF760FB01A8FFF761
:100F900078FB0020ADF81C0001AB2078DFF8982624
:100FA000099019210020009005F18000FFF746FB11
:100FB00001A8FFF75FFBE078DFF8901607900023A9
:100FC00001AA05F19C00FFF741FB01A8FFF759FBBF
:100FD0000120ADF81C0001AB6078DFF874260990A1
:100FE0001A210020009005F1D000FFF727FB002315
:100FF0000022DFF8601605F1EC00FFF72FFBDFF8A9
:101000003C06E86301214FF6FF70A8830DB0DFF8BE
:10101000480681760021E9774176C1768183817720
:10102000296430BD2DE9F041404E0446707D8EB0FC
:101030000F4690461D4618B9FFF78EFF01207075C8
:10104000002F1CBF6760B8F1000F47D0C4F80880BC
:10105000FFF7CCFAB17D00293ED10121B175FFF730
:10106000C9FA35B909A80FF22061142201F0B8FCC1
:1010700009AD286820606868E060287A2074E86814
:1010800060612869010018BFA061782104F1200087
:1010900001F0D2FC0823242200216846FFF7C2FA9F
:1010A00001208DF818006A46002104F13800FFF78E
:1010B000BDFA0823242200216846FFF7A7FA069408
:1010C0006B460022DFF8941504F17000FFF7C6FAB2
:1010D00020460EB0BDE8F081FFF78CFA0020F8E75B
:1010E00038B5FFF783FA124991F8201031B1DFF8D3
:1010F00074150C68FFF77EFA204632BDFFF77AFAC6
:1011000000F090FF10F50030DFF85C2541F10001A0
:10111000A2FB0045054802FB015501690020221889
:1011200045EB0103184632BD00000000601E0020A0
:10113000501D00202DE9F84F80460C4692469B46F4
:10114000FFF754FADFF818558146B5F93400B5F9C0
:101150003610401AC0F30B0008286FF0010648DA79
:10116000A88E401CC0F30B00A886B5F93400ADF87A
:10117000000000207B4901EB4017F97F090604D5E8
:10118000401CC0B20828F5DB002708F1700000F011
:10119000F8FABC6087F81EA0C7F804B02021BDF89B
:1011A0000000B883C7F80C80DDE90A23DFF8BC042F
:1011B00010401940C7E9040108F194040020F877B1
:1011C00040F6FF78686A0028394605F1240008D007
:1011D000FFF769FA40B1BDF8000000F061F8484639
:1011E0004BE0FFF760FA48B9A88E4044C0F30B000B
:1011F000A8864846FFF7FEF9304649E0BDF80000F2
:10120000DFF8546400F04CF80020A07095F820102E
:10121000707F084207D00120B07700207077B07649
:10122000F07D401CF0754846FFF7E4F9A86A68BBFA
:1012300095F8200018B1192000F0E3FA26E0F07EBE
:1012400020BBFFF7D3F90446307F10B10120307680
:1012500012E0B868FFF782FAA86488B1A86CA96B9D
:10126000C968401ADFF8C813096805F1EC0600F0F8
:1012700021F83046FFF7D2F92046FFF7BBF905E029
:101280002046FFF7B7F9042100F010F8BDF900007F
:10129000BDE8F28FF6FFFF1F0810044020000E008B
:1012A0002080F87F40F08000F877704705F14C000F
:1012B00000F091BAB0FBF1F13046FFF7ABB92DE980
:1012C000F04106460F4614461D46FFF7CBF980460F
:1012D0003846FFF705FA070003D14046FFF7C6F985
:1012E0000AE0F87F0721084209D04046FFF7BEF91F
:1012F0000721F87F0842FCD10220002114E0796820
:10130000DFF86C03814202D0796831667860C6E903
:1013100016454046FFF7AAF94FF0FF3106F13800B5
:10132000FFF770F9D6E91A01BDE8F081DCB5DDE917
:1013300006670446CDE90067180008BFDFF83033C0
:101340002046FFF7F7FE002803D500204FF00041AC
:10135000DCBD0146204602B0BDE8D04002224FF07D
:10136000E043ACE7D00900203080000000100440CA
:10137000020000400446FFF739B901E042F00202E2
:101380002DE9F843DFF8D842606A009089460327C8
:101390001546FFF72BF919F1010F05F001068046FC
:1013A0000AD1A06A002819BFA06AB0F91C90E08E8B
:1013B00000F101090020E0770FFA89F0FFF790F9BA
:1013C00001007CD0A06A814205F0020525D12800E9
:1013D00003D0606A0090002060620122C87FB240A2
:1013E0001043C877FFF73EF90746002E14BFDFF819
:1013F0008402DFF8840200F0C1FD00F074F825B922
:1014000006E000F063F800F069F800980028F8D1D1
:101410003846FFF72BF9832753E0009A8A4204F1FC
:10142000EC0016D100F0ADF9280012BF0020606A70
:101430000068606200F057F8009800F047F800F08C
:101440004DF8009818B32800F6D120E0009A1268F1
:101450000092009AEAB112688A42F7D100F091F93D
:10146000009800681DB1009A0021116004E0016835
:10147000009A116000210160009003E000F026F85E
:1014800000F02CF800980028F8D100F02CF8832701
:1014900001E000F028F8DFF8C001C17E11B1FFF7CC
:1014A00027FD0EE0007F60B9DFF8D001E063FFF7B1
:1014B0001FFD94F8200020B96048E06301E000F0CF
:1014C00012F83846BDE8F283D0210840C07F009969
:1014D00040F00400C8776846FFF7DAB8014604F127
:1014E0003000FFF7E0B84046FFF784B838B5FFF7A3
:1014F00041FF05465A4890F8200068B1204600F0A8
:101500003DFD044600F048F804F0FF00012801D139
:10151000812032BD022032BD00F03EF8012032BDF4
:1015200000000000001004400A464D49896B8842C3
:1015300001D0032070470AE0510007060000046054
:101540000A464749896B884201D003207047002131
:101550001046CBE770B542498A6B90426FF07F042A
:1015600012D191F8200078B1FFF740F805464448C1
:1015700000F004FD064600F00FF806F0FF00012819
:1015800002D13002001670BD204670BD9C1D0020A7
:101590000100070601010E042846FFF72BB870B5BD
:1015A0000E461546FFF722F883242D491EB1022E60
:1015B0000DD004D30FE08A6A3AB1896A02E0264A64
:1015C000927E12B9898B298006E0802404E091F88C
:1015D0002010297000E00324FFF70CF8204670BDAE
:1015E00080B50846FFF77CF800B1806802BD38B5C9
:1015F000FFF7C0FE1A49CA7F520702D58B7F9C4273
:1016000010D001228B8B02FA04F52B438B830C3410
:101610001C490B68A24023EA02020A60096809B962
:101620000D4A1175BDE83240FEF7E4BF040000200A
:10163000308000008F080000CF090000F109000091
:1016400000200940847A000095090000F30700009B
:10165000A9070000AB090000601E00205909000026
:10166000501D00200430044000093D00F1EFFF9FB1
:101670005D0900000100020401000104290C0000C2
:10168000010003040C100440FFFFFFFFC409000029
:10169000010000000000000093090000DFF800F0E6
:1016A00021B30110DFF800F095C00110DFF800F061
:1016B0000DA80110DFF800F0BDBE0110FEE7DFF855
:1016C0000001007D70476DE038B5FFF7FCFFDFF8E3
:1016D000F8500446A8680021FFF7E4FF6969081A7A
:1016E000A969814238BF002084F3118832BD2DE9F9
:1016F000F041FFF7E8FFDFF8D0500446A868012169
:10170000FFF7D0FF0121A9830021E9836E692968D1
:101710002A68871B801A711A884204D20020A88385
:1017200084F311882BE084F31188002406E0A619C5
:1017300031460120FFF7BAFF3F1B0446A742F6D20D
:10174000FFF7C1FF8046E88B012804D13146002015
:10175000FFF7ACFF0446A96914F1010F08BF084662
:1017600003D0E01B814238BF08468119FFF7A2FF72
:10177000012028840020A8832E6088F31188BDE80A
:10178000F08100218182DFF83C10C06849698842FD
:1017900004D1DFF85C000068FEF740BF7047808A24
:1017A00070477047DFF84C100968EFF3118081F340
:1017B00011887047F6E7DFF8400080687047000046
:1017C000A40100207801002078010020616280F3EC
:1017D00011882046704738B504460D46FFF7EAFFEA
:1017E000616A2943FFF7F2FFBDE83240FFF756BFB9
:1017F000348000002C800000C8010020816042601D
:101800007047102804D3DFF80C101038C1F8000F0F
:101810007047000000E000E001F012B9FFF7C2BF1E
:10182000DFF89811C20744BF01220A60820744BF53
:101830004FF480720A60400744BF4FF48030086064
:101840007047DFF87C21C30748BF1160830748BF9A
:101850005160400748BF91607047000010B50446D2
:101860000020D4E90A2347F6906101F0E3FB01234D
:10187000994228BF4FF0FF3010BD10B50C4600F064
:10188000C7FB011D201AB0F1004F05D8081BB0F1AD
:10189000004F38BF8C4200D20C462146BDE81040B4
:1018A0000120CEE72DE9F04180460A46D8E90A0139
:1018B000D8E90C45A0FB026701FB0277A6196F412E
:1018C000340C002244EA07414046FFF7D6FFC8E93E
:1018D0000E67BDE8F081F8B50646FFF79FFF0446A6
:1018E000DFF8E050DFF8E0700120E861FFF798FFD3
:1018F000F96A096A142088473069B0F5802F34BF2F
:101900000421010C0120FFF79CFF3A681268232193
:1019100000209047DFF8B41001200860DFF8B40021
:10192000016821F4E02141F4803101600120286048
:1019300084F31188F1BD000000F074BB10B5DFF82E
:101940009000446800F006F86069A169BDE81040A5
:1019500008470000012063E7F8B504460D4600F093
:1019600061FBD4E90A6732463B4601F063FB3DB1B7
:10197000A6FB002306FB013307FB0033C4E90C235D
:10198000F2BD10B5DFF83C00DFF8644000210160D3
:101990000121C16121602068FFF7DCFFDFF86010E2
:1019A0000968096A14208847206810BD000080B5C6
:1019B00000F038FB000C40EA014002BD0420094061
:1019C00018200940000024438401001080022443B1
:1019D000E401002000200940DFF8EC14096821B17F
:1019E0000A898242FAD108467047002070470000F9
:1019F0002C200940DFF8D804C088704700000000A0
:101A0000B001001000F008F80EBD00BF08B582B0AC
:101A10000023009302ABF5E777B58DB01C46149810
:101A2000ADF8180000250F9828B92CE10EAA0DA8D2
:101A300000F070F96D1C00F032F9080000F01D8113
:101A40002529F3D100F02BF92D2905D10120ADF87E
:101A5000060000F024F902E00020ADF8060030296D
:101A600004D10120049000F01AF901E00020049054
:101A7000002000904FF0FF3002900A202A2918D150
:101A80002168216051F8042B2160009200F0FDF8DC
:101A9000009A002A11D50122ADF80620009A524280
:101AA00000920AE0009A00FB02113039009100F028
:101AB000ECF8A1F130020A2AF4D32E291AD1002120
:101AC00000F0F2F82A290F9210D100F0F9F80291F3
:101AD000002944BF0020029000F0E1F80AE0029AD9
:101AE00000FB0211303900F0DFF80F92A1F1300253
:101AF0000A2AF4D3049808B1009804906C2918BFFE
:101B00004C2905D10120ADF8040000F0C8F802E02E
:101B10000020ADF8040008A807900CA8059000204C
:101B2000642918BF692903900DD1BDF81800002859
:101B3000FFD000F0BFF86FF009030298049A8242C8
:101B4000B8BF049019E00A2375291FBF1023782914
:101B500008236F2903D1BDF8180038B906E07029B1
:101B600013D1049320682060016814E000F0A2F80B
:101B7000049A02988242B8BF0490049A059800F033
:101B8000A5F807900599081A2FE0632919D1206854
:101B9000206001680FE0001D2060102305980822D6
:101BA00000F094F8401E07904020079908700598AF
:101BB0000799401A19E0001D206007980170012064
:101BC00013E0732913D100F07BF8079111B90FF2DC
:101BD00044300790079801F0A5FA0390029810F19D
:101BE000010F1ED0039988421BDA039019E00F9869
:101BF000401E0F900E98022813D3029810F1010F87
:101C000002D00E99884201D30E9800E0401CDFF804
:101C1000C462366802906B4622460FA90DA8B047F1
:101C2000451900980399401A0090BDF8060038B98C
:101C300002E000F030F86D1C0098401E0090F8D5CE
:101C40000398411E039150B10798401C07900EAABB
:101C500010F8011D0DA800F05DF86D1CF0E7BDF84F
:101C6000060000283FF4E7AE0098401E00903FF5C4
:101C7000E2AE00F010F86D1CF6E70D9810B10D996A
:101C800000200870284610B070BD0F990F9A09788F
:101C9000521C0F9270470EAA20210DA83AE00F980F
:101CA00010F8011B0F90704702910F990F9A097855
:101CB000521C7047206820600168001D206070473A
:101CC0002068206050F8041B20607047F0B50024A5
:101CD0000025002B44BF5B42002902D54942521E19
:101CE0002D25B1FBF3F60FF2342703FB1611641C0C
:101CF000795C00F8011D31460029F2D19442BEBF43
:101D0000302100F8011D641CF8DB290018BF00F821
:101D1000015DF0BD10B50C46116802290BD3491EB8
:101D20001160016819B14A1C02600C7010BD01F00D
:101D30004FFB00B100E010BD2046BDE8104001F0AF
:101D400045BB6549096808476448006800470120A9
:101D50007047FEE77047704710B50446606808B9E1
:101D6000012010BD0B460146206852A200F0BCF8CD
:101D7000A1684118A16061680129A4BF081A6060C8
:101D8000002010BD2DE9F04104468846A088164683
:101D900000F021F80746F11B002E01D40A2904DBCC
:101DA000236845A200F083F8C719A08980B1F51B0C
:101DB000A468002E05D4204601F0B4F9401D8542E8
:101DC00006DB23460FF26812294600F070F8C719A7
:101DD0003846BDE8F0813EB50D463A4909881446BB
:101DE0008142034628BF0FF2501210D237490988AA
:101DF000814207D3FFF7F0FD21464268284600F0F4
:101E000073F83EBD2D49098831B90FF238122146C9
:101E1000284600F069F83EBD314B1B680095002C48
:101E200048BF47F6FF740021029101946A462D498C
:101E3000984702983EBD2DE9F843170048BF47F682
:101E4000FF7704468846002674B32088010004D03A
:101E50003A464146FFF7BFFF0646B91B012922DB80
:101E6000208820B116A2404600F03EF88619A068EE
:101E7000C8B1656875B1284601F054F9A7EB0609A9
:101E8000401D814506DB2B460FF2CC02494600F08F
:101E90000EF88619B91B122905DBA3680FF2C002E0
:101EA00000F005F886193046BDE8F2830000404690
:101EB0001AE0000025730000257000008A0500006C
:101EC0003A200000362A0000C40900200E2000003D
:101ED000F0010020448000003C80000040800000B1
:101EE00048800000591D000008B478B504001ABFEE
:101EF0002668002E00260D4605AB3046FFF786FD0E
:101F0000854238BF681E16B121680144216072BC49
:101F10005DF808FB286E756C6C2900003031323397
:101F20003435363738396162636465660000000015
:101F300028272573272900007B6D6F64756C652346
:101F400025647D007B6D6F64756C652D726F7065A7
:101F50003A25787D00000000222573222C20000005
:101F60006C696E652025643A2000000021490868EC
:101F7000C2430A600A680242FAD170471E490A68E1
:101F8000002AFCD1CA610860C8690028FCD0002082
:101F9000C86148687047194801686FF00202114033
:101FA00041F40071016003211548816041F2300164
:101FB00041610121C160502141610121C1604FF4A3
:101FC000CA6141610121C160016070470D4802682A
:101FD0000A6082684A60C2688A60406B20F078407C
:101FE00040F08050C8607047704701461022064894
:101FF00000F0E6BC10100440001004400000046033
:10200000004104404C130050180000217047FF7F2E
:1020100009480168426803689942FAD1100C40EA05
:102020000140704710B5044A136850681468A34211
:102030001946F9D110BD000008200940DFF800F072
:10204000F5C00110DFF800F049BA011020B10823F3
:1020500024220021FEF7DABA704780B501200090F3
:1020600009234FF400720021DFF8080701F005FA98
:1020700001BD80B5002301223421DFF8F80601F00C
:102080000FFA00B10120C0B202BDDFF8EC06806893
:102090007047DFF8E416401890F8ED007047002212
:1020A000022904D1012806D140F2EE2203E00128E2
:1020B00008BF4FF47A7210467047DFF8BC06D0F8BC
:1020C000DC007047DFF8B00690F8E61021B1D0F8D8
:1020D0000C01010018BF004770472DE9F041DFF8FF
:1020E000988608F1E1058AB0A879002861D101201D
:1020F000A871DFF88866DFF88876307B68717068D1
:10210000C8F80C0101A8FFF7A1FF00200690ADF868
:102110001400079001AB00220FF2F54108F10C000A
:10212000FEF79CFA01AB00220FF2A15108F130003A
:10213000FEF794FA01AB00220FF2D94108F15400E6
:10214000FEF78CFAB16801208847DFF8380600787E
:102150007868C0F38154707B20B1032C02D1012038
:10216000287003E0032C18BF022C16D1022000F0C7
:102170009DF8032CDFF810160CBF4FF47A7042F272
:1021800010700968B0FBF1F108F15400FEF742FA53
:1021900008F15400FEF742FA05E0012C03D100F0EB
:1021A00063FAFFF75AFF386840075CBF002000F071
:1021B0007DF80AB0BDE8F08110B508B1140001D176
:1021C000022010BD8160C26003610146DFF8A805EE
:1021D00001F080F9002010BD10B50446FEF706FAA4
:1021E000DFF89415621892F8E8305B1E82F8E83048
:1021F000DBB223B98A680123A3409A438A6066E070
:102200002DE9F0410546FEF7F1F98046DFF8681543
:10221000681890F8ED20521E80F8ED20D2B2002A06
:102220003FD10FF2A050DFF8644500EB85052E7812
:102230006F88300615D52168096A384688472168B5
:10224000896A384688472168096B38468847DFF82D
:10225000401501200860DFF83C0500688007FAD5CA
:1022600012E0700606D501EB87010020D1F80011BD
:10227000884709E021688969384688472168496BA1
:10228000384688470228F9D106F03F003F2818BF9A
:10229000FFF7B6FF687800F03F003F2818BFFFF750
:1022A000AFFF4046BDE8F041FEF7A4B910B50446C3
:1022B000FEF79CF9DFF8C0148A680123A3401A4393
:1022C0008A60611891F8E820521C81F8E820BDE886
:1022D0001040FEF78FB9F8B50646FEF787F90446B9
:1022E000DFF89454701990F8ED104A1C002980F81A
:1022F000ED2039D10FF2CC4000EB8607387800F0A2
:102300003F003F2818BFFFF7E6FF787800F03F0056
:102310003F2818BFFFF7DFFF7E883878DFF86C743E
:1023200001060ED53968C969304688473968496A57
:10233000304688473968C96A3046884700F019F83E
:1023400012E0400606D505EB86010120D1F8001108
:10235000884709E039684969304688473968496BD8
:10236000304688470128F9D12046BDE8F240FEF703
:1023700041B9DFF81C1401200860DFF81804006878
:102380008007FAD570472DE9F04F002483B04FF055
:10239000000A0128D04618BF012664D1DFF8D8937F
:1023A000D9F8DC0001285DD10220C9F8DC00FFF774
:1023B00045FE0090012000F062F9060054D1FEF7BE
:1023C00051F9DFF8D81301900C60012000F042FAB7
:1023D000012804D1002000F0A7F94FF0010ADFF82E
:1023E000C013DFF8B4030C6000681120FFF751FE42
:1023F00008B14FF001081020FFF74BFE08B148F07C
:1024000002080F20FFF745FE08B148F004080B2032
:10241000FFF73FFEDFF8746320B13168096B4FF4BA
:10242000806088470A20FFF734FE20B13168096BCD
:102430004FF481608847DFF85813DFF86873DFF8DE
:1024400068B30120086048F0200031688969884736
:10245000DFF858130120086099F80800C00707D575
:10246000012416E0042673E00120C9F8DC006CE0CA
:10247000584601F051F80546042DF9D0012D04D13C
:10248000326A5268032158469047386880088000B5
:102490003860002001F048F8BF4800683068806B61
:1024A000804754B9012D04D1326A5268012158463F
:1024B0009047386840F0030038600120B849086050
:1024C00040463168496988470B20FFF7E2FD20B19B
:1024D0003168C96A4FF4806088470A20FFF7D9FD48
:1024E00020B13168C96A4FF481608847A84901204A
:1024F00008600020AD4908600320C9F8DC0031689D
:10250000496B404688470128F9D1042000F0B7F80C
:10251000A24901200860A0480068A548006880061C
:10252000FBD5BAF1000F1CBF012000F0FDF801F04F
:1025300047F9082000F0A3F806460120C9F8DC009E
:102540000198FEF793F801F0BFF80098FFF77AFDC5
:102550003046BDE8FE8F38B50446FEF747F805461D
:102560002146854800F0CAFF28464BE030B50024DC
:1025700001288BB004D021D303281DD018D31DE02F
:1025800001A8FFF763FD7C4D8A490694ADF814401D
:10259000079401AB012205F17800FEF75FF8009483
:1025A0000023854A2C2105F19C00FEF747F805E041
:1025B00001F022F9044601E001F0C4F920460BB015
:1025C00030BD00F054B938B5FEF710F805466A483A
:1025D00090F8E000012410B1FFF74BFD04462846B7
:1025E000FEF708F8204632BD38B5FDF7FFFF624D13
:1025F000044695F8E00020B100F080F9002085F84D
:10260000E0002046BDE83240FDF7F4BF00000000C6
:102610007047000010B582B0042000F01BF90228BA
:1026200018BF032807D100F01FF8FFF716FDBDE81B
:1026300016400220D0E56148534900684E4CC0F373
:10264000815003280CBF4FF47A7041F2883009683A
:10265000B0FBF1F104F15400FDF7DCFF04F154008C
:10266000BDE81640FDF7DABF032000901C234FF0B1
:10267000405200213F4800F000BF0020704770B575
:1026800004463D4E304600F01BFF002598B9304609
:1026900000F01CFF0646B068204207D03269F3689C
:1026A0000021204698470546012D05D0304600F010
:1026B0000FFF0600EFD1284670BD414901280CBF2D
:1026C00040F2FF70002008600020704770B5FDF7F1
:1026D0008DFF294E294D044696F8E00028B100F000
:1026E0000DF968B1002086F8E0000220AD68A84727
:1026F00006461020FFF7C3FF8EB10320A8470EE067
:10270000214909683220B0FBF1F101B9012106F13C
:102710003000FDF77FFF06F13000FDF77FFF204618
:10272000BDE87040FDF766BF38B501281ED100F046
:1027300091F801281CD000F0D7F80F4C1249012065
:1027400084F8E00032200968B0FBF1F505B90125F5
:1027500004F13000FFF715F8294604F13000FDF7C9
:1027600059FF04F13000FDF759FF01E000F0E8F8EF
:10277000002032BD00A00C40B4080020DC7900002D
:10278000B03F00507F23002030800000B8010010CF
:1027900028200860282008402C2009400C400940CF
:1027A00000022243242208400040034080010443E9
:1027B00014100940813A000051380000B43F005025
:1027C000000004608F3F00008F3F01008F3F020038
:1027D0008F3F0300903F00018F3F0101903F0002B7
:1027E000903F00038F3F01048F3F00058F120804C4
:1027F0008F3F00048F3F0006513F00007F3F0100E4
:102800003F3F04003F3F02003F3F01007F3F020087
:1028100070B50446E00782B00D46624E05D5A8B2F9
:1028200000900023012200F011F8A00705D5A8B2FE
:1028300000900123022200F009F8600705D5ADB22F
:10284000009502230C2200F001F873BD00213046F0
:1028500000F013BE0146042907BF1D234FF0C042FC
:102860001C234FF080524F48342100F019BE38B578
:102870000546FFF7CDFB4C4CA168401A4FF47A7126
:10288000484305EB104501F0D1F92169401A48BFD2
:10289000404240F6B9318D4207D2062805DAA068D9
:1028A000E168814201D322685AB940494A68D20797
:1028B0004FF4FA6017D4086800F0FF007D21484308
:1028C00008E0081A3A494843000C00EB9000904297
:1028D00038BF1046C82801D2C82032BDB0F57A6F83
:1028E00088BF4FF47A6032BD80B501210320FFF725
:1028F0008FFFFFF78DFB2C49886001BD80B501205B
:10290000FFF7A8FF012819D0002301223421254810
:1029100000F0C6FD98B100F026F8FFF779FB2249D8
:102920008B680A68C860A2EB9202C01A204B584319
:10293000000C0860904238BF10460860012002BDBC
:1029400010B500210320FFF763FF0120FFF782FF8E
:1029500008B100F008F8144CFFF75AFB606001F072
:1029600065F9206110BD1348006801F073B910B516
:1029700011490A6811490968140424161B38444394
:10298000E41004EB2244120600FB00F312160906C1
:102990005A435843091604EBA222484302EBA040D5
:1029A00010BD000000A00C4060230020AC3F005090
:1029B00040420F008000001090130050A4100050FF
:1029C00062B38B0708D0521E11F8013B00F8013B9F
:1029D00000F024808B07F6D1830740F0208000BFF1
:1029E000103A07D330B4B1E83810103AA0E83810E4
:1029F000F9D230BC530724BFB1E80810A0E8081092
:102A000044BF51F8043B40F8043BD20724BF31F8DF
:102A1000022B20F8022B44BF0B7803707047083A52
:102A200007D3B1E80810083A40F8043B40F804CB5B
:102A3000F7D25307E4E70040002201F027B9000075
:102A400010B5DFF82405046814F1010F08BF002455
:102A500001F09EF9DFF81415002008600120DFF86E
:102A600010150860DFF80C15086000F04CFADFF86C
:102A70000805006828B1DFF804050068204600F06A
:102A800022F8DFF8FC14DFF8FC2400200860DFF8EF
:102A9000F80401686FF31B4111430160DFF8EC0497
:102AA0000168C1F30131012907D10168DFF8E02491
:102AB000114041F4003202600160DFF8D804006880
:102AC0000028FAD110BD70B50546DFF8CC0401210D
:102AD0000160DFF8C81409680029FAD0DFF8C044A3
:102AE000DFF8C024C02121605368DFF8BC149B07C5
:102AF0005DBF13681B0C43F0F00372230B700021C1
:102B000001639668304600F031F83146284600F0FF
:102B100061F8DFF89804816D89B240F20F2291428A
:102B200014D201680068C1F30361C0F3034001B12E
:102B3000491E072805D006280EBF0720801C00F07C
:102B40000F0041EA0010DFF868140870304600F00A
:102B5000B2F8DFF860140968C9680220884740208D
:102B600020600120DFF85014086070BD10B50446E5
:102B7000DFF848040068C0F3046000F0C0F92117D2
:102B8000491C08181628A8BF152004DA6FF009019F
:102B90008842B8BF084600F01F00DFF8241440F454
:102BA000F8500880DFF81C04006880074FBF44F02D
:102BB00040640020DFF810140860DFF81004C4F34C
:102BC000C06181F001010160C4F3806181F0010105
:102BD000816010BD70B5054682B0084600F0F0F87F
:102BE0000246DFF8EC43182100F062F800F014F917
:102BF00080B20090002340F2FF322C21204600F0EA
:102C00003CFCDFF8D063F068C0F30D021C2100F03B
:102C10004FF8706800F0FC32142100F049F8306879
:102C2000DFF8B413DFF8B46301EA0002102100F00A
:102C30003FF8284600F0FAF802460C2100F038F878
:102C4000284600F01EF9400040F02000307228466F
:102C500000F020F940F010003072284600F023F90F
:102C60000246282100F024F8284600F001F940002F
:102C700040F06000F072284600F02FF9C00040F0EC
:102C800080003070284600F031F98000DFF85013E2
:102C900040F47C400880284600F012F902460821E2
:102CA00000F006F8DFF83C134FF48000086073BDB5
:102CB000204600F0DDBBF8B5810C01F003010129CD
:102CC000C94CC84D02D002292AD026E0216A8A03C5
:102CD00023D44FF480422A606FF08F06C34AD2F8A3
:102CE000023033404E0A06F080063343C1F3033608
:102CF0003343C2F80230C1F30326D2F801301B0976
:102D000046EA0313C2F801306FF0E7061368334058
:102D100001F0E7011943116002E04FF00041296022
:102D2000B34EB44AB16809075CBF4021A9624FF4B1
:102D300000712964800D216AC90C01F0030141F082
:102D4000300110F00300117003D0022826D008D300
:102D500026E001210420FFF75BFDA74800F0F4F80E
:102D600022E00120FFF776FD074639460420FFF7F1
:102D70004FFD0420FFF76EFDB842FAD1366826F009
:102D80007F4000F0E1F89D4B1B681B684FF060220C
:102D90000721300E98474FF480602860032100E03F
:102DA00002210420FFF734FD2068954900F03F0020
:102DB000087047F618009349088093480068F1BDF1
:102DC00092490968C1F383628303C1F38F2120D440
:102DD000000400164FF6FF7307E0490804D11946B6
:102DE000520804BF01220121401C0028F5D401280B
:102DF0000FDB490041F00101B1F5803F21BF012106
:102E0000520042F00102102A24BF0F221946401E30
:102E1000EDE741EA024070477C4801680068000223
:102E2000C1F3870100F440700843704730B55D4C32
:102E300077490A686568ED07C2F30351C2F303439B
:102E40000AD42468250501EB2571240481F30401CB
:102E500003EB247383F304031B0443EA015193B28D
:102E60001943222824BF02F080400143084630BDA8
:102E70000021202803D367480068C0F301510846A9
:102E800070470121222803D363480068C0F3007112
:102E9000084670470121222803D35F480068C0F329
:102EA0004071084670470021202807D35948006820
:102EB000C10C01F44071C0F38450014308467047CF
:102EC0002028564907D35348554A0068810A02EA28
:102ED000003040EA8151084670470021222803D380
:102EE0004D480068C0F3C0610846704700212228A1
:102EF00003D349480068C0F3455108467047162877
:102F0000A8BF20387047234800680028FBD14548F7
:102F1000454A416812688908890041F0005141F032
:102F20000401520748BF41F001010BD4026812F0BE
:102F3000030F07D041F003024260026802F003026F
:102F4000032AFAD141607047384982B20A60C0F35F
:102F50000740486001208860354800680028FBD0A1
:102F600000208860704700001C13005084046042F9
:102F70005C600C4008220443800128430001204388
:102F80008C2108400000390148200340040009401A
:102F9000FFFFFCFC0C006842101009409402224321
:102FA00000600C40AC3F005056620840BC1200501C
:102FB00002600840A001001094046042B812005062
:102FC0006E6208400000094094042A430000204338
:102FD00000A00C4070130050FFFFFC0041A10C400A
:102FE000DCA10C4040A00C406C1300500A6008406B
:102FF000A83F005008A10C40BD378600B401001066
:103000000BB00C4070B00C402C2009405013005005
:1030100078130050981300508C13005000803F40EC
:1030200000F03F0000400340B03F00503C600C40C7
:1030300084088C431B4213D1094236D12AB18446FD
:10304000B0FBF2F002FB10C2704700F0ABBEFCD345
:103050000022002370470B0002000021002070476F
:10306000904271EB030CF6D370B5B1FA81F4B3FA68
:1030700083F52C1BA340C4F1200532FA05F6334337
:10308000A2405FF00046E64002E05B085FEA3202E1
:10309000841A71EB030524BF204629467641F4D3F8
:1030A00002000B003000002170BD012ACFD970B59D
:1030B000140C20D0B1FA81F4B2FA82F5C4F12004E4
:1030C0006419B4F12006D6D3B2405FF00044F44056
:1030D000002502E052085FEA3303C61A71EB020EC4
:1030E00024BF3046714664416D41F3D302000B00AA
:1030F0002000290070BD0C46B1FBF2F102FB114526
:103100002D0445EA1045B5FBF2F402FB145580B2DC
:1031100040EA0545B5FBF2F002FB105240EA0440DC
:1031200070BD000000F10103810704D010F8011BFD
:1031300089B18107FAD10268B2F10131914311F0EE
:10314000803F04BF50F8042FF6E710F8011B11B1BF
:1031500010F8011BFBE7C01A70470000DFF800F011
:103160000DC30110DFF800F081C60110DFF800F098
:1031700095B70110DFF800F08DC20110DFF800F004
:103180003DC20110DFF800F009C30110DFF800F0C4
:1031900045C00110DFF800F0D1C70110DFF800F0E2
:1031A00067BE0110DFF800F011C80110DFF800F071
:1031B00021C801100C381F283ED8DFE800F0103D70
:1031C0003D3D3D3D3D3D3D3D3D3D3D153D3D3D1A7A
:1031D0003D3D1F243D3D3D293D3D3D2E3338DFF82B
:1031E000F401006800687047DFF8E8010068406893
:1031F0007047DFF8E001006880687047DFF8D401AD
:103200000068C0687047DFF8CC010068006970474B
:10321000DFF8C001006840697047DFF8B801006856
:1032200080697047DFF8AC010068C0697047DFF85B
:10323000A4010068006A70470020704700B589B09B
:1032400009216846FFF78AFF09B000BD00B581B0CB
:10325000FEF7E2FADFF88001DFF8801100688842AB
:1032600018BF00F09BF8DFF87801B0F5B26F03D01B
:1032700001B05DF804EB92E001B000BD2DE9F04132
:1032800084B01D460B6880461446002226681F78CD
:10329000002003F1010C242FC1F800C038D15F7861
:1032A0000CF101034C2F0B6006D156F8040BAA68F1
:1032B0004146FEF767FD25E0462F0DD156F8041B69
:1032C0000191414656F8040BADF800200290684683
:1032D000AA68FEF7B0FD15E0532F19D156F8040B7C
:1032E000E86126602346288B0090EA69A968D8F82F
:1032F0000000FEF791FBD8F8001011B10144C8F8A6
:10330000001026680021E96001222968091A296055
:10331000662F08D1298B002911BF361DF11D21F020
:10332000070101F108061AB9E9690F700121E96086
:10333000266004B0BDE8F0814FF0FF309060704728
:1033400000B581B0FEF756FB012818BFFEF7B6F9AD
:103350000FF21D00FFF706FFFFF708FFFFF70AFF58
:10336000FFF70CFF01B05DF804EBFFF70BBF0000A7
:1033700000B581B0FDF776F9FEF760FE01B05DF8AB
:1033800004EB0320FFF702BF10B504460320FFF74C
:10339000FDFE2046BDE81040FFF7FCBEFEE7FEE75D
:1033A00000B581B0FFF7FAFEDFF83800C06801B061
:1033B0005DF804EBFEF772B9DFF82C10DFF82C0093
:1033C00088617047FFF7EEBEFFF7F0BEFEF7B9BCAD
:1033D000FEF7BABCF001002098CA011070472820FF
:1033E0009005000078010020440100200004000046
:1033F00070B504460D46164600F0DEF9401E8041C9
:10340000C00F1A490A68002AFCD0012E02D0022EF1
:1034100002D003E0257002E0258000E02560012253
:103420000A6000281CBFBDE8704000F0C9B970BD3B
:1034300038B504460D4600F0BFF9401E8041C00F6C
:103440000A490A68002AFCD0012D02D0022D02D0C0
:1034500003E0247802E0248800E0246801220A6066
:1034600008B100F0ADF9204632BD000000800C40EC
:103470000B46114604221818BAE710B500EB4100BC
:10348000102B144600F5007002D3103B001D240CD5
:103490000299994041EA0441BDE810400422A7E79F
:1034A00038B51D460818102D144602D3103D801C57
:1034B000240C0221FFF7BCFF204080B2E84032BD5F
:1034C000006800280CBF012000207047006870478A
:1034D0000068704738B504460D4600F064FC0021D2
:1034E0002960616869606168002914BF0D6025600A
:1034F0006560FFE7BDE8324000F057BC0B684A68E2
:10350000002B0CBF42605A604A680968002A0CBF51
:103510000160116070470000006801074CBF042083
:1035200000F00300704700002DE9F84F064693486D
:10353000934C0068934D800704D50820A8719248E9
:103540002060BFE000F072FB804690480068009069
:103550000027001700F101090098800208D4C8F183
:103560003E00C0100928A8BF08208145B8BF814689
:1035700087480068C0F30460FFF7C1FC82468548B5
:103580000068C0F30440FFF7BAFC09EB0A011629F2
:10359000A8BF152104DA6FF009029142B8BF1146A5
:1035A00001F01F027C4B42F4F8521A807B4A1268E9
:1035B00012F0030F18BF0127520748BF47F0020758
:1035C0000EB147F0040795F90720A8EB0202052A7F
:1035D00002DAAA7997425DD0A8F10F0C0026BCF15F
:1035E000000FB64607F0010207F00403DFF8B091C0
:1035F00023D40CEB0C1C4FEA2C2EBEF1080F28BF75
:103600004FF0070E7646072E28BF062609EB860ADE
:1036100059F82660DAF804A0AAEB060A0AF0FF06B9
:1036200013B1CAF3072B5E445FEA877B44BFCAF33A
:10363000074B5E440AB106EB1A6659F82E9009F062
:10364000FF0A13B1C9F307239A44BB0744BFC9F368
:1036500007439A440AB10AEB196A401AACEB0E22EE
:103660000099AF71724380320128B8BF0120342322
:1036700001F0FF0158430AEB12224843B0FBF2F07D
:10368000B0F5803F28BF4FF6FF7008F30708A88009
:1036900085F8078043480068A988286000201F2912
:1036A00004D21F21A98004E04908401CB1F5007F25
:1036B000FAD20F39090940EAC1003B4908432060AA
:1036C00000206060BDE8F18F10B53848006884B212
:1036D0001CB300F0ABFA2B4991F90720904205DAB0
:1036E0006FF07F029042B8BF1046C871888884424C
:1036F00001D28C8010BD2B4A12680B68D21A921C22
:10370000202A28BF1F22231A5208D3401818B0F5C8
:10371000803F28BF4FF6FF70888010BD24480268A4
:1037200002B9704710B5234B996801F04060B0F1C1
:10373000406F21D011480468A4071DD45C68A40719
:103740001AD404681B68C3F303531C331B0114F021
:10375000050F06D09A420FD26FF00501214001609B
:1037600010BD934208D20A0158BF44F00104490138
:1037700058BF44F00404046010BD0000000009407C
:103780003010094074230020FDFDA400B43F005018
:10379000B81200503C1100506E62084024220840CC
:1037A0009C1300500820094000E7A4803410094011
:1037B00028500940AC3F0050EFF3108072B67047BC
:1037C000EFF3108062B67047DFF800F099C801107F
:1037D00010B50C18FFF7F0FF401E8041C00FDFF856
:1037E000F0130A68002AFCD0246801220A6008B19C
:1037F000FFF7E6FF204610BD38B5DFF8D843DFF805
:10380000D8132078897B002508430AD0FCF7EEFE08
:10381000A178002906BF0121A1700125FCF7EAFE6D
:103820000DB1002032BD0220FEF740FD0E20FEF754
:1038300052FDDFF8A803016809B1012032BDDFF8AD
:10384000A023402111600121C1610020607032BDC0
:1038500070B5DFF88C0382B0002101604821C1609F
:10386000DFF8800300F1D804A17A002968D001298B
:10387000DFF8742329D110684BF2F5214843050A7B
:10388000DFF868030068C0F38140012806D100F02A
:10389000CDF9FFF76CF8684305EB9055607B10B1EC
:1038A0000020607305E0D2480068000215EB10208C
:1038B0004508D0480560290C416001218160C64857
:1038C000807B00283AD0052039E0022909D115680B
:1038D000284600F0FDF8A5F2FF5003282ED308205B
:1038E0002DE003292CD1116800F1B805A1F5C061C4
:1038F0002868E961002848BF4042002948BF494282
:103900008842A8BF002018DA6868BB4E80B20090D9
:1039100008234FF47F4230213046FFF7AEFDA86800
:1039200000F072F904213046FFF7A7FDA86900F006
:1039300071F93046FFF7A1FD012020700B202073A4
:10394000BDE873402DE9F041A64CDFF8AC82AB4FE7
:10395000AB4EA34804F1E10582B0E9784A1E0B2A78
:1039600000F28080DFE802F0062233465B33465BDC
:103970003346636EA34909680968202088470F20F1
:10398000F860072341F61D5038614FF4C0720220E1
:10399000009000F070F807234FF4C07200214046F9
:1039A000FFF77EFD01203060022044E00120F86135
:1039B000287800281DBF0020306103200620E87011
:1039C00003203860002070607068800734D4E87885
:1039D000032804D1022000F04BF8042007E0002067
:1039E00000F046F8E87806280CBF07200A20E870A7
:1039F00001201AE0042903D12021B961012105E049
:103A00000122BA610A290CBF032102216970002139
:103A100039600821C16001600120386026E0052975
:103A20000CBF06200920E8700020706004E0002030
:103A3000306070600C20E87004F17800BDE8F64159
:103A4000FCF7ECBD002101600120644908600E20F4
:103A5000FEF7D6FB0220FEF7BFFB0120E870002036
:103A6000A87003E0BDE8F341FFF7AEBEBDE8F38107
:103A700000900523602200214046FFF7FEBC0000B5
:103A800080B558495E4891F8E410891E0A291AD871
:103A9000DFE801F0060A0E190A0E190A0E191200C3
:103AA00001688907FCD510E041688907FCD40CE067
:103AB00041688907FCD508E001688907FCD44168A2
:103AC0008907FCD401E0FFF77FFEBDE8014039E73C
:103AD000F8B50746484C30212046FFF779FE414EA5
:103AE00006F1B805C0F30720686004212046FFF7FF
:103AF0006FFEC0F38440A86020212046FFF768FED7
:103B0000C0F38120A861B7F5C060286002D186F8B3
:103B1000D800F1BD296996F8D8202AB96A68A96841
:103B2000EA60E861AA696A61E86900284CBF6FF041
:103B30000102022200EB40001018421000EB9270CC
:103B400001EBA0006968E960012810DA6A69032ABC
:103B500004D1153001281DDA01201BE00B300128AB
:103B6000B8BF0120491E48BF0021E96007E01F28B7
:103B700012DB6A692AB915381F28A8BF1E20032145
:103B800009E00B381F28A8BF1E20491C4029A8BFE8
:103B90003F21E9600021696128610823E86880B25B
:103BA00000904FF47F42302100F03CF8012000905B
:103BB00011234FF4003200F034F8286900F024F8A3
:103BC00000F02FF8686900F025F800F02BF8F1BD3F
:103BD00000800C4095090020DC79000004800C4036
:103BE0002C500C40B408002008400C40B43F00505A
:103BF000102009403C600C4000A00C4000400C40EC
:103C000034600C40A001001080B2009012234FF4E9
:103C1000F802704780B200900A234FF440622021DE
:103C2000704704212046FFF728BC00000748084AD7
:103C300081681278006852B2A0F54070C903504301
:103C4000C913A1EB201080300012704728500940A2
:103C50000C13005070B50446FFF7AEFD451EAD4194
:103C6000ED0F074E30680028FCD0A04701203060DF
:103C7000002D1CBFBDE87040FFF7A2BD70BD000065
:103C800000800C4062F30F2262F31F4200B500BFB8
:103C9000130096469446103928BFA0E80C50FAD875
:103CA0005FEA417C28BF0CC048BF40F8042BC9071D
:103CB00028BF20F8022B48BF00F8012B00BD0000F0
:103CC00030480068000C00F00700052828BF4FF0BE
:103CD000FF3070472C490A68C2F30F324BF69A1333
:103CE0009A424FF0FF3006D10868000F0B280CBF36
:103CF0000420002070474BF6BE118A4201D10120FA
:103D000070474BF641318A4201D1032070474BF690
:103D100020318A4208BF0220704700001A48F8B5D7
:103D20000068050F1948006800F0FF06802E28BFC4
:103D30000026FFF7CFFF04284FF0FF3406F10A07F3
:103D40001DD8DFE800F003121A1A1B00012D12D053
:103D5000032D06D0072D06D0082D08BF06F1160446
:103D60000DE014240BE0152409E025B1022D08BF55
:103D700006F1140403E00A2401E005B93C4660B2F0
:103D8000F2BD00009412005018130050A010005013
:103D900080B5FFF79FFF20B9FFF7C0FF162800DBB3
:103DA00001BDFEE77047FCF721BCFCF723BC000017
:103DB000DFF800F0D9C10110DFF800F025B10110E3
:103DC000DFF800F013C10110DFF800F0B9C20110F4
:103DD00000B583B000F00DF8032114E0E0B500F069
:103DE00008F8042100F012F808B100200EBD029876
:103DF0000EBD0821ADF800100190704700B583B0EA
:103E0000FFF7F7FF052100F001F807BDADF802103C
:103E10006846DFF8CC1A0968084700B58FB0082358
:103E20003C2200216846FFF7C3FFDFF8B80A00F123
:103E30005001079100234FF4587108916A460121FF
:103E400006910FF24D11FFF7B7FF0FB000BD10B58F
:103E500086B00820ADF800000120DFF8841ADFF8F2
:103E6000884A0968ADF80200684688479DF8040052
:103E700020700298606204F1500000F09BFEA06286
:103E800000230020019000904FF47A720FF6012178
:103E900004F12C0000F04AFE0FF6052000F0F6FEBB
:103EA00000214FF0004000F08DFF20626A464FF67F
:103EB000FF70E08101210020206108208DF80000C2
:103EC00040F2044000F0E4FF4FF47A61022001F078
:103ED000DCFB4FF47A61032001F0D7FB0FF60042C0
:103EE0001521002001F0DCFA44F6C740019001AA38
:103EF00001208DF80300042100208DF802008DF8C8
:103F0000010001208DF800004FF4816001F00CFCED
:103F10000DF1030201214FF4806001F005FC0DF169
:103F20000202012140F2024001F0FEFB0DF101020C
:103F3000012140F2034001F0F7FB6A46012140F203
:103F4000064001F0F1FB01F075FA207801F084FAE7
:103F50004FF0FF3001F0A1FA4FF0FF3001F061FAAD
:103F600004F15C0000F082FF04F1600001F00BFA44
:103F7000207801F005FA207801F059FA00F0EDFA06
:103F8000206A0FF67013002100F047FF06B010BD45
:103F900070B586B0FFF75BFFDFF84C49DFF840599A
:103FA00024E0A06A00F031FE060004D000F073F8AF
:103FB0003046FFF723FFA06AFFF702FF0028F0D08A
:103FC000A08AC10712D54FF6FE710840A0820020DA
:103FD000A083608320830120607105A9E08B227893
:103FE000001FADF81400E08A01F0C4FA0820ADF813
:103FF00000000A20ADF802004FF0FF300190684643
:10400000296888470028D6D10820ADF80800092083
:10401000ADF80A0002A8296888479DF80E10049E92
:104020000028C8D1BDF80C00102801BF20788142BB
:10403000304600F006F8002EBDD03046FFF7C8FE2F
:10404000B9E700B585B0017891290BD0B02905D02A
:10405000D0291ED105B05DF804EB79E005B05DF81C
:1040600004EB82E241780E2902BF818841F20542C9
:1040700091420ED100F06AFA80680FF6BC1390F9F5
:104080000300404200900421DFF85C08006A00F061
:10409000C4FE05B000BD2DE9F041044686B020887D
:1040A000022829D004282DD0082811D0102809D0A2
:1040B00020284CD16068FFF7C4FF606806B0BDE8F7
:1040C000F04185E6A17806B0BDE8F04100201FE18F
:1040D000646860884FF6FF71884238D0012101F092
:1040E000EEFAA0B32188606800F046FD608806B053
:1040F000BDE8F04101F018BC60680178A07800F0DC
:10410000C7FA1FE06068DFF8E0670578F78A01F01A
:10411000B5FCDFF8D817DFF8D427B0FBF1F102FBCC
:10412000110855B100F0DEF8CDF800800022306AA9
:104130000FF68413042100F070FE42460021384639
:1041400001F02AF9606806B0BDE8F04156E6EEE1FC
:1041500070B5DFF8945786B00446286AA2780FF24B
:10416000EC764FF6FE7162B1012A46D0052A5CD08A
:10417000062A00F08B80072A00F0A8800D2A11D0B3
:10418000ADE06089E883E01C00F04CFD00F0D6F95A
:10419000286A0022012100F040FE00F0B0F80FF282
:1041A000607399E02069217B0144491E00E01044BE
:1041B0008842E5D210F8012B002AF9D00378022BAF
:1041C00018BF032BF3D1401C521E01E0801C921E2D
:1041D000D2B2022A01DB884203D3012AE8D1401C73
:1041E000E6E70378F02B04BF4378FF2BEED121796B
:1041F000601D06B0BDE87040FAE20021E97004914C
:10420000039102910191002269780FF2007300F08E
:1042100091F9687830B100F072F80FF2047303215D
:1042200000F0FBFD6878A87059E06278C2B90220FE
:1042300028716089E88201202872A88B18B905F1DD
:104240002C0000F097FC00F05AF80FF2E46300F045
:1042500072F9201D00F0E6FC034600F043F810E080
:104260000022E9822A716A710492039202920192F9
:10427000009202210FF2C46300F0CFFD00F038F885
:10428000607800900022286A032126E0002028712F
:104290006871A8832872E982A08800F0D4F900F040
:1042A0002EF80FF2B46300F046F900F021F8A0797F
:1042B00000900022286A032100F0AFFD286A06B0B2
:1042C000BDE870400022042100F0A2BD00F03EF9DC
:1042D000E1780FF294630091022100F09EFD06B098
:1042E00070BD00220020049003900290019070475E
:1042F0000020049003900290019033467047002004
:10430000049003900290019000900022286A704768
:104310002DE9F041DFF8D045DFF8D465206AA378B5
:104320006278E7780D0786B01CD5002F38D11100D0
:1043300036D0591CCBB2934228BF0021A17000F0A7
:1043400005F9A1780FF23463491C00F0F3F8A07866
:1043500006EBC000801C00F065FC034600F0FDF891
:104360000321E2E094F804C0E58A5FEA817853D53E
:10437000BCF1020F18D0A7B90121E17000216170D2
:1043800000F0B9F90FF2006300F0D5F8206A0422BA
:10439000032100F03DFD00220121032000F0E1FD9A
:1043A000C5E000F0F4FDC2E0A08B0100FBD0217A53
:1043B0000029F8D1E179F9B1002301221221284620
:1043C00001F0F2F900280190EDD0A08B0199ADF831
:1043D00000000120ADF80200A07908700020ADF8BF
:1043E000080069462278E08A01F0E6F868B11221F7
:1043F000684601F0E8F99AE0ADF8000069462278D5
:10440000284601F0D5F8002805D101202072E07976
:1044100080F00100E0718AE0C8060ED5BCF1020F01
:10442000F9D14FF41670009000234FF448724FF406
:10443000C871284600F085FD79E0C80736D5BCF183
:10444000000F1BD1002A72D00121217106EBC3009D
:10445000851C42782B460021002000F057FD00F01B
:104460007CF8206A0FF2305300F065F8284600F01F
:10447000D9FB00F063F8002203210FE0BCF1010F2B
:1044800018BFBCF1020F52D103202071284600F062
:1044900037FD00F062F80FF20C53022100F0A5F98D
:1044A000206A0022042100F0B3FC40E048073ED51A
:1044B000BCF1020F3BD1284600F0E1F868BB0121B6
:1044C000284601F0FCF8002831D0284600F0D7F843
:1044D00007004FF47A7604D0786800F062FB3E80E3
:1044E00016E0E0894FF6FF71884220D12420FFF7C3
:1044F00075FC2061D8B100210191009100230022B8
:104500000FF2A53100F012FBE58104F10C07A68142
:104510003146786800F030FB09E0284600F093F857
:1045200000F01BF80FF28C43042100F05EF906B096
:10453000BDE8F0810091022100F06FBC00210491E0
:10454000039102910191009103467047002104916B
:104550000391029101910022704700200490039082
:104560000290019000900022704730B5DFF8785338
:1045700004462879022885B04FD16278286A2179CB
:10458000162A05D100F051F800910FF238433BE0B4
:104590000B2909D001290FD1217A0A291CD100F059
:1045A0004AF80FF2344305E0FFF7D0FFE1680FF25D
:1045B00038430978009109E0132914D1A9790FF241
:1045C000484300914A1CAA7100F02FF8042100F022
:1045D00024FC0020287220E0122919D100F02BF8C9
:1045E0000FF21443E6E77E2905D100F08CF80FF2B4
:1045F0002843217A06E07F290AD100F084F80FF2DF
:104600002843218900910022042100F006FC04E0E7
:10461000687910B1204600F07CF8217904F1080097
:1046200005B0BDE8304001F0CEB8002204920392FC
:10463000029201927047002104910391029101912D
:104640000022217B704738B5044600F018F8A0B16D
:104650004068A54D00F0A5FAE889A0420BD1286971
:1046600030B1FFF7B1FB2869FFF7C8FB00202861D4
:104670004FF6FF70E881002032BD122032BD9A490A
:10468000CA89824202D101F10C00704700207047B4
:104690000200954800B5006A85B005D100F033F8F6
:1046A00000910FF2A43321E0012A0B460AD121B96F
:1046B00000F021F80FF2A03319E000F023F80FF218
:1046C000A83313E0022A05D199B900F014F80FF2CB
:1046D000AC330CE0032A0CD121B900F00CF80FF236
:1046E000AC3304E000F00EF80FF2B4330022FFF711
:1046F00022FF05B000BD0491039102910191009148
:1047000000227047009300210491039102910191CE
:10471000704710B5744C6179012986B019D10079C0
:10472000032860D10FF2A0300FF2FC230088ADF80F
:104730001400FFF7D6FD04211720009000F055F873
:104740000220607102222378E08A05A900F019FF97
:1047500049E002292ED10179072928D1018951B1D7
:10476000C1680A784B7802EB032222838A78C978E1
:1047700002EB0121618340781A2834D1208B01009B
:1047800031D0ADF800000321608B2278ADF8020033
:10479000617102208DF804006946F1208DF8050052
:1047A000FF208DF80600E08A00F004FF1BE00129DD
:1047B00019D1E3E7032916D10179092911D101891A
:1047C00079B1C1680FF204330878497800EB012011
:1047D000A083FFF786FD0090022100F006F800207C
:1047E00020720020607106B010BD206A00F015BB79
:1047F0002DE9F0473C4E7778082F80468A461DDA2F
:104800000025DFF8EC9000E06D1CE8B2B8420AD257
:10481000EDB209EBC500811C0622404601F046F9C5
:104820000028F1D10AE009EBC70406224146A01C8A
:10483000FEF7C6F884F801A0781C7070BDE8F08718
:1048400080B502460021202000F036F8401E80414D
:10485000C00F02BD38B50C4615460120FFF7BEFA61
:10486000020005D015702146BDE83840022023E043
:1048700031BD10B51C460120FFF7B0FA30B104700D
:104880000246BDE810400021042015E010BD0000E4
:104890001548818A41F001018182406AFBF7AEBE72
:1048A00001460022102007E00F4901EBC00000F193
:1048B0000C0200215FF0080070B504460D46164654
:1048C0000820FFF78BFA50B10480857046600246DD
:1048D000BDE87040044B596A986A00F072B970BD27
:1048E0004C060020801E00208806002040420F0059
:1048F00030220020424C452043656E7472616C008A
:10490000496E697469616C697A65640044657669A9
:1049100063657320466F756E642025640000000097
:104920003C2D20546F2053656C65637400000000BB
:10493000436F6E6E6563746564000000436F6E6E56
:10494000656374204661696C65640000526561733B
:104950006F6E3A2025640000446973636F6E6E6564
:104960006374656400000000506172616D205570D1
:10497000646174653A20256400000000446576692E
:104980006365202564000000446973636F76657277
:10499000696E672E2E2E0000436F6E6E656374691C
:1049A0006E670000446973636F6E6E656374696E51
:1049B00067000000525353492043616E63656C6C7D
:1049C00065640000415454205273702064726F700B
:1049D0007065642025640000526561642045727230
:1049E0006F7220256400000052656164207273704C
:1049F0003A202564000000005772697465204572F2
:104A0000726F7220256400005772697465207365A7
:104A10006E743A202564000046432056696F6C612D
:104A20007465643A202564004D54552053697A65B5
:104A30003A2025640000000052535349202D64425F
:104A40003A2025640000000050616972696E672099
:104A5000737461727465640050616972696E672075
:104A6000737563636573730050616972696E672063
:104A70006661696C3A20256400000000426F6E6434
:104A8000696E67207375636365737300426F6E644C
:104A9000207361766520737563636573730000002E
:104AA000426F6E642073617665206661696C65642F
:104AB0003A2025640000000050617373636F6465E1
:104AC0003A20256400000000F0FF000053696D707B
:104AD0006C652053766320466F756E64000000009D
:104AE00053696D706C6520424C452043656E74724D
:104AF000616C000000000000DFF800F0F5B8011064
:104B0000DFF800F02DBF0110DFF800F011BF011039
:104B100000B583B00821ADF8001001900521ADF873
:104B20000210684651490968884707BDF0B589B049
:104B300004460D4616461F460823242200216846D7
:104B4000FBF764FD0F984A49096806906B464FF4DD
:104B50007A70B0FBF1F101FB07F0059001FB06F262
:104B60000E98ADF8100029462046FBF777FD204649
:104B700009B0F0BDFBF752BD38B504460D46FCF751
:104B80000EFE10B12046FCF7FCFD00F00CF800FB17
:104B900005F12046FBF73EFD2046BDE83240FBF71D
:104BA0003DBDFCF7EEBD324909684FF47A70B0FBA9
:104BB000F1F0704710B504460021FFF79DFF204635
:104BC00010BD70B584B004460820ADF800000D4655
:104BD0000420ADF802000C20244909680190164613
:104BE0006846884758B9029949B18E602046FFF758
:104BF00087FF15B12846FBF701FD012003E0304691
:104C0000FFF786FF002004B070BD10B50446FFF723
:104C10007BFFA04204D08468FFF77AFF204610BDD6
:104C2000002010BD30B585B0044668460FF248013B
:104C30001422FDF7D5FE0F4830210170A21D782106
:104C400041700623811C12F8015D2D095B1E1DF8C1
:104C5000055001F8015B157805F00F051DF80550AA
:104C600001F8015BEFD105B030BD00004C0600201B
:104C70003080000070220020303132333435363736
:104C800038394142434445460000000030B50446EF
:104C9000414D83B005F1300105F1480001F08FF876
:104CA000A8600FF2810101F05FF9A8683B4A00F0AB
:104CB00035F8A8683A4A00F031F8A868394A00F097
:104CC0002DF8A868384A00F029F8A868374A00F09B
:104CD00025F8A868364A00F01DF8A868354A00F0A3
:104CE00019F8A868344A00F015F8A868334A00F0AB
:104CF00011F8A868324A00F00DF8002001900090E9
:104D00000023C8220FF2810105F10C00FFF70EFF0E
:104D10006C6037BD4FF0C05101F036B94FF4E0215F
:104D200001F032B910B51C4C002020700B2001F0AE
:104D3000E4F818B9207840F001002070132001F049
:104D4000DCF818B9207840F0020020700C2001F047
:104D5000D4F818B9207840F0040020700F2001F03A
:104D6000CCF818B9207840F008002070122001F02B
:104D7000C4F818B9207840F01000207004F10C003D
:104D8000BDE81040FFF7F6BE034841680A001CBFAB
:104D90000078084770470000BC0500200B00058024
:104DA000130005800C0005800F00058012000580AF
:104DB0000B000010130000100C0000100F0000107A
:104DC000120000102DE9F8430D0008BF0FF2700526
:104DD00004460027DFF8349000E07F1C0C2000FB25
:104DE00007F859F8086076B1BC4203D0B069804733
:104DF0002042F2D0C84432682946404690470028F5
:104E0000EBD0404600E00020BDE8F283907A00003D
:104E100010B103689B681847704700B9704710B518
:104E200086B00C9C04940B9C03940A9C0294099CED
:104E30000194089C00940468E468A04706B010BD83
:104E40000300000000B583B0ADF800008DF8061037
:104E50000020DFF80C130968ADF8020068468847A7
:104E600010B99DF807000EBDFF200EBD1CB5BD4C4E
:104E700000B1606004F10800019004F11C00009092
:104E800004F10C03A2786078082100F0A1FB16BDA4
:104E900070B5034600244FF4806610469B1B0A46FB
:104EA000B04D08D05B1E0CD05B1E12D09B1E15D0DF
:104EB0005B1E1AD021E0102915D1014605F10C0026
:104EC00004E010290FD1014605F11C00FDF778FD23
:104ED00014E0042907D10068A8600FE0012902D17D
:104EE0000078A8700AE0182408E038B1012905D13B
:104EF0000078032802DAE87000E00224204670BD42
:104F0000014698484078132200F090BBFEB5064653
:104F100094480F46417814461D465020FFF792FFF3
:104F20008DF800008DF801608DF802708DF8034057
:104F30000622294601A8FDF743FD684600F069FBFB
:104F4000FEBDE0B5ADF80000ADF80210ADF80420EC
:104F5000ADF806300498ADF80800684600F05DFB37
:104F60000EBD70B504467F480D46417882B01646A6
:104F70005020FFF767FF8DF800008DF801408DF895
:104F800002508DF80360684600F06BFB76BD7548F3
:104F9000407800F06ABB00B58FB008233C220021A6
:104FA0006846FEF705FF704800F1500107910023A5
:104FB0004FF4DC7108916A46032106910FF2090152
:104FC000FEF7FAFE0FB000BDF0B585B00820ADF8D1
:104FD00008000120624C634D2168ADF80A0002A868
:104FE00088479DF80C00687000F083FB287005F17D
:104FF0000C021021022000F0F1FC05F11C0210212E
:10500000032000F0EBFC05F108020421042000F06D
:10501000E5FC14E03078D02803D1304600F042F8A7
:105020000746002E18BF002F09D00820ADF8000059
:105030000320ADF8020001966846216888470820E1
:10504000ADF800000A20ADF802004FF0FF300190EB
:105050006846216888470028F1D10820ADF808008B
:105060000920ADF80A0002A821688847BDF80C1095
:105070009DF80E20049E0028E1D10127102904BFCD
:1050800068788242CDD130884FF6FF718842C1D115
:1050900070884004C5D505F108020421042000F001
:1050A000B2FCBEE73EB504462E4DA07840B10528BF
:1050B0001CD0062823D00C2825D0112828D045E064
:1050C0006078002842D105F10C021021022000F086
:1050D0009AFC05F11C021021032000F094FC06222A
:1050E000E11C05F12C00FDF76BFC2FE0607868BB3C
:1050F0006289E0780823211D00F060F926E0A0888D
:1051000000F073F922E0217BA08800F079F91DE01E
:10511000E878012810D1A088ADF80000E088ADF84B
:1051200002002089ADF804006089ADF80600A0896E
:10513000ADF80800012004E040B9A088ADF80000F7
:1051400000208DF80A00684600F06CFA686828B103
:105150000168080002D0204688473EBD01203EBDC0
:105160004C06002010060020B0190020E0B50821F0
:10517000ADF800100190022100F00FF808B10020F6
:105180000EBD02980EBD00B583B00821ADF8001029
:105190000190032100F001F807BDADF80210684648
:1051A000DFF8A813096808471FB5ADF806108DF899
:1051B00004000824DFF894138DF808200393ADF859
:1051C0000040ADF8024068460968884704B010BD49
:1051D00030B585B0144608220291ADF8002019229E
:1051E000DFF8681309680190ADF802201D46684693
:1051F000884714B1BDF80C10218015B19DF80E1030
:105200002970089A0499116005B030BD00B583B0CB
:105210000820ADF800001A2000F015F810B99DF82C
:1052200004000EBDFF200EBD00B583B0ADF8000038
:105230008DF80610002000F006F810B99DF8070060
:105240000EBDFF200EBDDFF804130968ADF80200A3
:105250006846084750B110F1040F01D1042070478F
:1052600010F1030F01D10220704701207047812304
:10527000037042EAC111002341F47C41C370818074
:1052800070478223037081800023C370827170474E
:105290003EB504460820ADF800000D462020ADF8CC
:1052A00002001020DFF8A4120968ADF80400684677
:1052B000884720B9029810B16FF004003EBD0095F8
:1052C0000023002221464FF0FF30FFF781FF3EBD53
:1052D00010B582B01446CA78012A03D18A88DFF853
:1052E000F8341A8000F010F858B90090694620464A
:1052F000FFF7CEFF28B900984478FFF744FF204617
:1053000016BDFFF7A7FF16BD0B46022210214BE783
:1053100038B51C461546FFF7F7FFC0B9009069463F
:105320002846FFF7B5FF90B900984578280002BFDE
:105330000098C079A04205D100988168049822465F
:10534000FDF73EFB0098FFF71EFF284632BDFFF732
:1053500081FF32BDF8B500F04DFA00F0ADF907005D
:105360000DD032462946FFF78CFF00F076F93872EF
:10537000FFF74CFF3B4601B0BDE8F0408AE0F1BDCD
:1053800010220121E6E738B500F0ECF9050002D063
:105390000422012175E031BDF8B500F0DAF907000B
:1053A0000AD0132200F03BF800F045FB3946BDE877
:1053B000F840DFF828248BE70420F2BD2DE9F04106
:1053C00000F059F907000FD0142200F028F83C72C1
:1053D000FD603E8287F81280FFF718FF3946BDE86E
:1053E000F041DFF8FC2373E71EE038B500F041F828
:1053F000050004D0152200F012F82C8144E031BDE4
:1054000070B500F0BAF8060008D0162200F007F8D0
:1054100000F032F83346BDE870403BE070BD01213A
:105420002FE7002204217CE00420BDE8F081102257
:1054300002218FE710B500F088FA04000AD011228B
:1054400000F01DF8FFF7E2FE2146BDE81040DFF84E
:1054500094233DE7042010BD38B500F00AF805009C
:1054600006D0122200F00BF800F0F7F828720BE0DB
:1054700031BD04460A2079E63481B572C6E60221C0
:10548000FFE6FFF7FEFEAC60FFF7C0FE2B4601B063
:10549000BDE830400222102186E60022032140E0D0
:1054A00000B583B00FF24903019306230093032351
:1054B00000F04EF80EBD1078802802BF508840F2F0
:1054C0007F61884208D19088984202BF9179009804
:1054D000814201D1012070470020704710B582B091
:1054E0000624FFE70094FFF7E6FF16BD000000006A
:1054F0000323F3E71078802802BF508840F27F61D1
:1055000088420CD19088032818BF042807D19079CD
:1055100001001CBF1028112801D101207047002074
:105520007047F8B500F008FA07000CD0324629465B
:10553000FFF7A7FEBC60FFF769FE3946BDE8F840FB
:10554000DFF8A422C4E60420F2BD00004C060020CF
:105550002DE9F04100F035F807000AD0069A4146DF
:10556000FFF78FFE3C817D8100F067FA079A00F01B
:1055700010BA59E7022300F0FFB804460D460C208C
:10558000F4E52DE9F04100F076F807000FD006228F
:1055900000F015F83C81BE72FD6000F01BFA00F0CF
:1055A000DEF83946BDE8F0410FF25D3290E63BE7A8
:1055B0000A23E1E03423DFE01223DDE04246032149
:1055C00055E604460D46164698461020FFF7CEBD18
:1055D0002DE9F04180460D4616461F461820FFF77C
:1055E000C5FD040014D0002200F04CF800F0F2F9E0
:1055F00020726572A672E760069820610798606164
:10560000FFF704FE2146BDE8F0410FF261225FE69C
:105610000AE70FF25D23092202E00FF2592311225B
:105620000021EBE00FF251231222F9E7F8B500F068
:105630009DF807000FD00A2200F024F800F00DF8C2
:1056400038727D813E73FFF7E1FD3946BDE8F840D1
:105650000FF229223CE60420F2BD21465020FFF73C
:10566000E3BD0FF21D230422DAE70FF2192305220E
:10567000FFE70021D3E004460D4616469846142065
:10568000FFF774BD0421FFF7F2BD70B5FFF775FF9A
:1056900006000BD03022FFF7F5FF00F009F8314685
:1056A000BDE870400FF2E112FFF712BE042070BD9A
:1056B00034817581FFF7AABD0A20FFF757BD7CB57D
:1056C000044600208DF804000D460C20FFF74EFD27
:1056D00006000BD01122FFF7A2FEFFF7CDFE00F06F
:1056E00019F80FF2A9123146FFF712FE9DF80400D7
:1056F00076BD1CB500F026F904000AD01222FFF78F
:105700008EFEFFF783FD00F005F80FF2891200F01E
:1057100008F803E001A90091012370479DF80400F7
:1057200016BD2146FFF7F4BDF8B500F012F80700EA
:105730000DD03622FFF7A6FF3C817D8100F07DF978
:105740003946BDE8F8400FF25D12FFF7C1BD0420F5
:10575000F2BD04460D4616461020FFF707BD38740B
:10576000FFF754BD04460C20FFF700BD04460D466C
:1057700016460E20FFF7FABC2DE9F041FFF77BFF3C
:1057800007000FD0FFF71AFF3C81FD60314600F0A3
:1057900022F9FFF7E4FF3946BDE8F0410FF20912A4
:1057A000FFF796BDFFF740BE38B514460F4A15689F
:1057B0002A0006D0009302460B4621460120A84746
:1057C00032BD002032BD0A4A13681A0003D00A46CF
:1057D0000146012018477047CC0900200D590000F0
:1057E0001359000019590000F5540000381C00201E
:1057F0003C1C002004460D46164670472DE9F0413A
:10580000FFF7DFFE070004D000F005F8BC60FD6084
:10581000BCE0FFF709BE32460421FFF728BD2DE9A1
:10582000F041FFF7CEFE070006D0FFF7F4FFFFF7C9
:1058300014FF3872FD60A9E0FFF7F6BD10788028EC
:1058400002BF508840F27F6188420CD190884FF6A9
:1058500080710140B1F57E4F04BF00F07F00984297
:1058600001D1012070470020704700000023E5E7C8
:105870000923E3E71123E1E71223DFE70A23DDE74A
:105880000423DBE70523D9E73023D7E780B51123CD
:1058900002E0000080B5122300930123FFF70BFE06
:1058A00002BD00003623C9E71078802802BF508867
:1058B00040F27F6188420DD190884FF6807101409F
:1058C0004FF68052914205D100F07F00012801DBA4
:1058D00001207047002070471078802802BF508850
:1058E00040F27F6188420DD190884FF6807101406F
:1058F0004FF68052914204BF00F07F00984201D1E0
:1059000001207047002070470623E5E780B5132388
:10591000C2E780B51423BFE780B5112300930223AB
:10592000BCE700F015F802BD80B50FF2910100F060
:1059300049F841F20540F4E704460D4616460C20AE
:10594000FFF714BC00208DF804000820FFF70EBC00
:105950002DE9F041FFF74EFF98460E20FFF706FCB9
:10596000070009D000F00AF83D817E81A7F80C807D
:10597000FFF74CFC069A0CE0FFF756BD812038700B
:105980000120F870BC8070473D81FE60FFF73EFC4F
:1059900042463946BDE8F041FFF79ABC10788028AE
:1059A00002BF508840F27F61884204BF90889842CD
:1059B00001D10120704700207047000041F20543EB
:1059C000ECE70000009100230146002270473C8173
:1059D0007D81BE8141465020FFF726BCF8B5FFF718
:1059E000B8FE07000DD0012200F022F83C727D7253
:1059F00000F023F83946BDE8F8400FF27902FFF7CE
:105A000067BC0420F2BDF8B5FFF7A3FE07000DD078
:105A1000022200F00DF83C727D7200F00EF839465B
:105A2000BDE8F8400FF25102FFF752BC0420F2BD6E
:105A30000521FFF71CBC3C81BD72FE60FFF7E6BB91
:105A40001078802802BF508840F27F6188420DD1D3
:105A500090884FF6807101404FF68062914204BFFA
:105A600000F07F00984201D101207047002070476C
:105A7000000000000123E3E70223E1E71CB500205A
:105A80000190FFF762FF04000BD00522FFF7D0FF63
:105A9000FFF7BCFB01A9009104230FF20D02FFF7F1
:105AA00040FE019816BD00000523C9E70300002051
:105AB00013F0030F09D0521E22BF13F8010B11F887
:105AC00001CBB0EB0C00F3D07047121F22BF53F88C
:105AD000040B51F804CB6045F7D0121D0AD200BA6E
:105AE0009CFA8CFCB0EB0C0038BF6FF0000088BF54
:105AF00001207047521E22BF13F8010B11F801CB91
:105B0000B0EB0C00F6D0521C08BF104670470000E6
:105B100070B5FBF750FE04460026DFF8EC540DE0AC
:105B200024FA06F0C00708D505EB8600406820B1CE
:105B3000026811001CBF31469047761C2868F6B2F7
:105B40008642EDD370BDDFF8C4040168DFF8C004FD
:105B50000160DFF8C004FBF73EBEF8B50D00ECB203
:105B600044BF85F0204585F4C045A10001F1804186
:105B700001F5012100EA05060A68DFF89C743E4041
:105B800085EA020382433243034000F4E0261B0E01
:105B9000B6F5E02F03F0010302D1D30105D411E0E3
