:040000050000FE6990
:020000040000FA
:1000000050430020F56E000001CA011001CA011022
:1000100001CA011001CA011001CA011001CA011070
:1000200001CA011001CA011001CA011001CA011060
:0C00300001CA011001CA01103FCA0110F2
:100100003C0000000000000000000000340100007E
:1001100000000000000000000100000000000000DE
:1001200000000000000000000000000001000000CE
:100130000000000008000000000000003400000083
:100140000000000000000000680100000000000046
:10015000000000000100000000000000010000009D
:100160000000000000000000080000000000000087
:1001700030000000000000000000000098010000B6
:10018000040000000000000001000000FFFFFFFF6E
:10019000FF00000001000000080000000000000057
:1001A0002C0000000000000000000000C40100005E
:1001B000040000000000000001000000FFFFFFFF3E
:1001C000FFFFFFFF080000000000000034050000F2
:1001D000E401000099A1011095A70110A5C201102A
:1001E00009B2011045B80110000000000000000035
:1001F0002F000000280000000000000000000000A8
:10020000140200000000000000000000FFFFFFFFDC
:1002100000000000080000000000000030050000A1
:100220003002000069C201106DC101101FC201102F
:1002300095BA011000000000000000002D00000031
:10024000300500005402000075C20110A9B601106B
:100250009DBF011049B60110000000000000000021
:100260002E0000002400000000000000000000003C
:1002700080020000000000000000000000000000FC
:100280000800000000000000240000000000000042
:1002900000000000A40200000000000000000000B8
:1002A0000000000008000000000000002400000022
:1002B0000000000000000000C80200000000000074
:1002C0000100000000000000080000000000000025
:1002D00000000000080800200400000000000000EA
:1002E000000000002000000070010000300000004D
:1002F0001C0200002808002004000000000000008C
:10030000000000000C000000300400001800000095
:10031000400200003008002004000000000000003F
:100320000000000024000000480400001800000045
:100330000000000070080020040000000000000021
:100340000000000010000000A00100002C000000D0
:10035000CC0100007808002004000000000000002C
:1003600000000000200000006402000024000000E3
:10037000FFFFFFFF980800200400000000000000BD
:100380000000000028000000880200002400000097
:10039000FFFFFFFFC0080020040000000000000075
:1003A00000000000580000003C0100003400000084
:1003B000FFFFFFFFC808002004000000000000004D
:1003C00000000000100000006004000018000000A1
:1003D000FFFFFFFFD0080020040000000000000025
:1003E000000000001C000000AC020000240000001F
:1003F000FFFFFFFFD80800200400000000000000FD
:100400000000000038000000F40100002800000097
:10041000FFFFFFFF40090020040000000000000073
:100420000000000054000000000100003C0000003B
:100430001800000000000000000000004004000060
:10044000080000000000000018000000000000008C
:100450000000000058040000080000000000000038
:100460001800000000000000000000007004000000
:10047000080000000000000001000000606F0000A4
:100484000100000000000E0000000F003200000018
:10049400010000001008002000020000000000001D
:1004A40001CA011000000000000000000800000064
:1004B400000023003808002001000000800800200C
:1004C4000800000000000000000000000000000020
:1004D400000000000000000001000000E00800200F
:1004E4000600000001000000480900200000000090
:0C04F400000000000002000000000000FA
:0F0502002900010025002D002E002F000100010F
:1005140004000000346F0000000000000000000030
:10052400000001000000030087C40110380500002A
:10053400380500000000000090000000900000005A
:100544000000000080080020ED670000200000008B
:100554000C6F0000146D00000DC30110ED190000B4
:10056400EF19000099C801109BC801100000000099
:10057400961A00007C6C0000946C0000646C00000F
:090584000800090001000000015B
:10059000000000000000000000000000000000005B
:1005A00039190000591900005D1800008319000076
:1005B000A51800007B180000D7180000AF19000034
:1005C00065670000B1680000B56800000800000021
:1005D0002400000018000000280000002000000097
:1005E0003C0000000C00000034000000DFF800F0C8
:1005F00049C10110DFF800F019C20110DFF800F066
:1006000041AC0110DFF800F0CDA00110DFF800F0E0
:1006100085C10110DFF800F0C1C20110DFF800F061
:10062000E3BF0110DFF800F0CDC10110DFF800F0EA
:100630003DC10110DFF800F0DDB20110DFF800F07D
:1006400085B00110DFF800F029AF0110DFF800F0ED
:1006500079B50110DFF800F0C1C10110DFF800F03A
:1006600009B70110DFF800F0D5C00110DFF800F085
:10067000E1B5011020B1082328220021FFF7D2BFE5
:10068000704720B1082330220021FFF7CFBF704709
:1006900038B500F06FFE25680DB129682160FFF7BD
:1006A000A9FF284632BD70B504460D4626680020D5
:1006B00028601EB9FFF79AFF25600DE0FFF796FF4F
:1006C00000E0366831680029FBD1AE4203D1FFF764
:1006D00091FF002070BD3560FFF78CFF012070BDD9
:1006E0000022DFF8801C01EB4211CB7F1B0605D5F1
:1006F000B1F91C30834201D108467047521C082AC8
:10070000EFDB00207047F8B500F034FE0546DFF857
:100710001C0AC17D0A001CD0491EC175C9B2C1B9ED
:10072000DFF80C7A082107F14C0001F054F884B18D
:10073000B86B703001F025F8B86BDFF82C1CC0687E
:100740000968201A07F1EC0600F0B4FD3046FFF707
:1007500065FF2846BDE8F240FFF74CBF10B50446E0
:10076000207B00F00F00022802BFDFF8C009007DE7
:10077000002817D100F0B4FCA1688908A1EB900013
:100780006FF0704188420DDAB0F1704FBCBFDFF8F6
:10079000041B0818DFF89819896BC96801F57A718C
:1007A000814200DB002010BD38B5DFF8EC0ADFF82D
:1007B000EC2A0168DFF8784902EA0105E9430160A3
:1007C000A90606D54068800603D54FF4005100F015
:1007D00090FB15F4602F0BD0A06905F4602108434D
:1007E000A061002104F19C00BDE8344000F0F3BF9B
:1007F00031BD70B5FFF7FAFEDFF834490646A0694F
:1008000010F4602F27D0A069C5012D0EE80748BF5E
:10081000002506D4A80748BF012502D4680748BFB1
:100820000225681D40B200F0E2FEA069012105F139
:10083000110291408843A0613046FFF7DBFE04EBD4
:1008400085008668300009D0606800224FF00063A0
:10085000691DB04702E03046FFF7CCFEA06920B129
:10086000002104F19C0000F0B6FFE07F80070DD569
:100870006569280006D0606800224FF000436FF0E1
:100880000101A847E07F00F0FD00E07770BD70B582
:1008900001F0B0F8DFF89858DFF8D04AAB6A0246AA
:1008A00090071DD4D3E90401104007D0EB62996989
:1008B000084398614FF4804100F0F8FCA86A0028D2
:1008C00049D16E6A002E46D0F068A96B884224D0C8
:1008D00005F14C00BDE870404FF4805100F07BBF43
:1008E0000BB9A86AEAE70020A862D3E904019E696F
:1008F000024042F0020232439A61626982436261BD
:10090000E26822EA0100E060194605F13000FFF7D5
:10091000CAFE022100F0CAFCE3E7B068FFF71EFF41
:10092000A86418B1A86CBDE87040ECE6D6E90401F3
:10093000626902436261E26841EA0200E06000200D
:10094000E061B0682060E0690028FCD005F1240077
:10095000FFF79EFEAE6270BD0020D4E6F8B50646F5
:100960001446376E1D4607B1B847A00708D4D6E92C
:100970001601204029400022914208BF904207D032
:10098000C6E91A4506F13800BDE8F240FFF736BE69
:10099000F1BDFEE780B500F00EFFDFF894270146B9
:1009A000906BD26BBDE80840104710B5DFF8804768
:1009B0000FF23D01E06B884202D101F077F820642C
:1009C00004F14C00BDE81040042100F004BF80B5E4
:1009D00001F010F8DFF89819084207D0BDE804408C
:1009E0004FF00051DFF8A40B00F0F5BE01BD000090
:1009F00038B5042951D1DFF83847606AA16B08B1D6
:100A0000C16803E0E07FC00748BF6168A163084692
:100A1000DFF8B42A41680B781360126809788A42BB
:100A20001CBF8569002D05D000224FF000736FF0C8
:100A3000FF01A847022001F07DF9112001F08FF994
:100A4000DFF8E8060121C176A16B407E097C0142F6
:100A500004BF0E2001F083F9A06BDFF81019406885
:100A60008268002A04BFC068002804D00020C86142
:100A7000DFF8C40A086040F2FF70DFF8C02A106097
:100A800000208861DFF8E80848610FF21100E06398
:100A90001920BDE83240FFF7CDBD31BD2DE9FF4142
:100AA0008046880040F19780DFF88456A86B406844
:100AB0004068010018BF8047A86BDFF8B068406845
:100AC0008168002904BFC168002912D0F16900299A
:100AD000FCD00021F1618068010018BF8047A86B3D
:100AE0004068C068010018BF8047DFF8A40A00F022
:100AF00089FF0020F06108F10807DFF8980A3060EC
:100B0000012000F0C7FF00220FF21D10E86340F63D
:100B10000A01DFF8180642800180027B02F0F00231
:100B2000027300224260427B02F0F00242F00102B6
:100B3000427300223C68628000E014466268002A2A
:100B40001CBF13888B42F8D1606040F60302617BC2
:100B500001F0F0016173696A8968098891421CBFDC
:100B600040F60402914217D0398BA9B10021798354
:100B7000F96108F12C010A7802F0F0020A704A7853
:100B800002F0F00242F001024A7008F120014160D7
:100B9000417B01F0F00141736946386800F05AFF6B
:100BA000684600F066FF386800F062FFF0690028D0
:100BB000FCD00020F061012001F084FB012808D066
:100BC000607B00F0F00040F0010060730FF20D0058
:100BD000E86338683060BDE8FF810000DFF84C0A48
:100BE000014200D17047012010B501F06BFB0128D4
:100BF000DFF83C4508D10FF23100DFF87017E063F1
:100C0000DFF82805086010BDDFF8241A09683220D3
:100C1000EC34B0FBF1F12046FFF7FCFC2046BDE8C8
:100C20001040FFF7FBBC00002DE9FE4306460D46D1
:100C30006804DFF8FC4417D5FFF7D8FCE66AB7690B
:100C4000FFF7D8FCB8070CD45EB1B069B843B06107
:100C5000706830B1B6F91C10F06876683A46002327
:100C6000B04725F480453DE1A807DFF8C0747BD587
:100C7000266B002E70D0B168202001E04968401E2C
:100C800079B1C2B26AB10A8840F603039A421CBF26
:100C900040F604039A42F1D1F0681822203001F0A6
:100CA000D7FBB0690021B1617168E1B140F0020287
:100CB000F07F002300F00700012807D0022809D0A8
:100CC000042804BF00224FF0805306E000224FF0BA
:100CD000005302E000224FF08043B6F91C10F06888
:100CE000D6F804C0E047FFF781FC8046E08E401C48
:100CF000C0F30B00E086206BC17F01F07F01C1775C
:100D000004F13000FFF7C4FC00F0EDFBB4F936103D
:100D1000F06800F19402B2F90030994204BF397DC5
:100D2000002919D1917809B9016821B90020907082
:100D3000FFF7E9FC10E0A26B126812F1010F0BD073
:100D4000DFF824261268B1FBF2F17030FFF762FC85
:100D5000F0687030FFF762FC206B002825F0020578
:100D600001D045F00205BDE0A80004F1800840F67E
:100D7000090957D5206CB8B1042001F0A3FA98B145
:100D800000F094FE216C814228BF401E401A000BE7
:100D900000F58D70F06040F2D761A0F2EE2088423D
:100DA00024BF40F6C410F06000202064D6F818C0BC
:100DB000BCF1000F0DD0787B0F21084204BF708C6E
:100DC000484506D100224FF000736FF48071304621
:100DD000E0470022DFF85C18404600F00FFDB87EC7
:100DE00050B10220ADF80000684600F00BFEBDF8DF
:100DF0000800A0830020B876012084F82000F87D48
:100E0000401CF8750020F876192000F0FAFC77698C
:100E10002FB100224FF0806300213046B84725F003
:100E200000555FE0B87F25F0080620B1280702D5FD
:100E30000020B87743E0280743D5002084F820003D
:100E400001203877002000F025FE0FF2B100DFF816
:100E5000E817DFF8D056E0630022404600F0CEFCF1
:100E6000B97E787E81F00101084202D101207876B6
:100E70000FE0A06CF8B100F019FE216C626C401A12
:100E800002EB10306064A16CB0EBC11F13D30020E3
:100E90006064A7F80090787B00F0F00040F001005B
:100EA000787300207880387B00F0F00038730020E1
:100EB00078602F6003E04FF0005100F01AF83546DB
:100EC00010E0A8040ED5A66A002E1CBF706800288A
:100ED00006D0B6F91C10F068766800222023B047CF
:100EE00025F4005515B1294600F003F8BDE8F78355
:100EF000022104F14C0000F06EBC000070B5064603
:100F0000880028D500F08BFD894CDFF83007874D2D
:100F1000E063687D18B906F13800FFF76FFBDFF872
:100F20001C1600200860022000F09AFE112000F03C
:100F3000ABFE307C10B90E2000F0A6FE0020A88386
:100F4000287E40B100202876042104F14C00BDE841
:100F5000704000F040BC70BD30B58DB000F001FEB7
:100F6000DFF8DC06DFF8DC460168714D41F0020174
:100F7000016001A8FFF77EFBA078DFF8CC16079090
:100F8000002301AA05F14C00FFF758FB01A8FFF769
:100F900078FB0020ADF81C0001AB2078DFF8982624
:100FA000099019210020009005F18000FFF74AFB0D
:100FB00001A8FFF75FFBE078DFF8901607900023A9
:100FC00001AA05F19C00FFF739FB01A8FFF759FBC7
:100FD0000120ADF81C0001AB6078DFF874260990A1
:100FE0001A210020009005F1D000FFF72BFB002311
:100FF0000022DFF8601605F1EC00FFF727FBDFF8B1
:101000003C06E86301214FF6FF70A8830DB0DFF8BE
:10101000480681760021E9774176C1768183817720
:10102000296430BD2DE9F041404E0446707D8EB0FC
:101030000F4690461D4618B9FFF78EFF01207075C8
:10104000002F1CBF6760B8F1000F47D0C4F80880BC
:10105000FFF7CCFAB17D00293ED10121B175FFF730
:10106000C9FA35B909A80FF22061142201F0F0F98C
:1010700009AD286820606868E060287A2074E86814
:1010800060612869010018BFA061782104F1200087
:1010900001F00AFA0823242200216846FFF7DAFA51
:1010A00001208DF818006A46002104F13800FFF78E
:1010B000D5FA0823242200216846FFF7A7FA0694F0
:1010C0006B460022DFF8941504F17000FFF7BEFABA
:1010D00020460EB0BDE8F081FFF78CFA0020F8E75B
:1010E00038B5FFF783FA124991F8201031B1DFF8D3
:1010F00074150C68FFF77EFA204632BDFFF77AFAC6
:1011000000F0D4FC10F50030DFF85C2541F100015F
:10111000A2FB0045054802FB015501690020221889
:1011200045EB0103184632BD0000000008180020FE
:10113000F81600202DE9F84F80460C4692469B4653
:10114000FFF754FADFF818558146B5F93400B5F9C0
:101150003610401AC0F30B0008286FF0010648DA79
:10116000A88E401CC0F30B00A886B5F93400ADF87A
:10117000000000207B4901EB4017F97F090604D5E8
:10118000401CC0B20828F5DB002708F1700000F011
:10119000F8FABC6087F81EA0C7F804B02021BDF89B
:1011A0000000B883C7F80C80DDE90A23DFF8BC042F
:1011B00010401940C7E9040108F194040020F877B1
:1011C00040F6FF78686A0028394605F1240008D007
:1011D000FFF769FA40B1BDF8000000F061F8484639
:1011E0004BE0FFF760FA48B9A88E4044C0F30B000B
:1011F000A8864846FFF7FEF9304649E0BDF80000F2
:10120000DFF8546400F04CF80020A07095F820102E
:10121000707F084207D00120B07700207077B07649
:10122000F07D401CF0754846FFF7E4F9A86A68BBFA
:1012300095F8200018B1192000F0E3FA26E0F07EBE
:1012400020BBFFF7D3F90446307F10B10120307680
:1012500012E0B868FFF782FAA86488B1A86CA96B9D
:10126000C968401ADFF8C813096805F1EC0600F0F8
:1012700021F83046FFF7D2F92046FFF7BBF905E029
:101280002046FFF7B7F9042100F010F8BDF900007F
:10129000BDE8F28FF6FFFF1F0810044020000E008B
:1012A0002080F87F40F08000F877704705F14C000F
:1012B00000F091BAB0FBF1F13046FFF7ABB92DE980
:1012C000F04106460F4614461D46FFF7CBF980460F
:1012D0003846FFF705FA070003D14046FFF7C6F985
:1012E0000AE0F87F0721084209D04046FFF7BEF91F
:1012F0000721F87F0842FCD10220002114E0796820
:10130000DFF86C03814202D0796831667860C6E903
:1013100016454046FFF7AAF94FF0FF3106F13800B5
:10132000FFF770F9D6E91A01BDE8F081DCB5DDE917
:1013300006670446CDE90067180008BFDFF83033C0
:101340002046FFF7F7FE002803D500204FF00041AC
:10135000DCBD0146204602B0BDE8D04002224FF07D
:10136000E043ACE7E80A0020586F0000001004409A
:10137000020000400446FFF739B901E042F00202E2
:101380002DE9F843DFF8D842606A009089460327C8
:101390001546FFF72BF919F1010F05F001068046FC
:1013A0000AD1A06A002819BFA06AB0F91C90E08E8B
:1013B00000F101090020E0770FFA89F0FFF790F9BA
:1013C00001007CD0A06A814205F0020525D12800E9
:1013D00003D0606A0090002060620122C87FB240A2
:1013E0001043C877FFF73EF90746002E14BFDFF819
:1013F0008402DFF8840200F005FB00F074F825B9E0
:1014000006E000F063F800F069F800980028F8D1D1
:101410003846FFF72BF9832753E0009A8A4204F1FC
:10142000EC0016D100F0ADF9280012BF0020606A70
:101430000068606200F057F8009800F047F800F08C
:101440004DF8009818B32800F6D120E0009A1268F1
:101450000092009AEAB112688A42F7D100F091F93D
:10146000009800681DB1009A0021116004E0016835
:10147000009A116000210160009003E000F026F85E
:1014800000F02CF800980028F8D100F02CF8832701
:1014900001E000F028F8DFF8C001C17E11B1FFF7CC
:1014A00027FD0EE0007F60B9DFF8D001E063FFF7B1
:1014B0001FFD94F8200020B96048E06301E000F0CF
:1014C00012F83846BDE8F283D0210840C07F009969
:1014D00040F00400C8776846FFF7DAB8014604F127
:1014E0003000FFF7E0B84046FFF784B838B5FFF7A3
:1014F00041FF05465A4890F8200068B1204600F0A8
:1015000081FA044600F048F804F0FF00012801D1F8
:10151000812032BD022032BD00F03EF8012032BDF4
:1015200000000000001004400A464D49896B8842C3
:1015300001D0032070470AE0510007060000046054
:101540000A464749896B884201D003207047002131
:101550001046CBE770B542498A6B90426FF07F042A
:1015600012D191F8200078B1FFF740F805464448C1
:1015700000F048FA064600F00FF806F0FF000128D8
:1015800002D13002001670BD204670BD4417002005
:101590000100070601010E042846FFF72BB870B5BD
:1015A0000E461546FFF722F883242D491EB1022E60
:1015B0000DD004D30FE08A6A3AB1896A02E0264A64
:1015C000927E12B9898B298006E0802404E091F88C
:1015D0002010297000E00324FFF70CF8204670BDAE
:1015E00080B50846FFF77CF800B1806802BD38B5C9
:1015F000FFF7C0FE1A49CA7F520702D58B7F9C4273
:1016000010D001228B8B02FA04F52B438B830C3410
:101610001C490B68A24023EA02020A60096809B962
:101620000D4A1175BDE83240FEF7E4BF040000200A
:10163000586F00008F080000CF090000F10900007A
:10164000002009404C6C000095090000F3070000E1
:10165000A9070000AB090000081800205909000084
:10166000F81600200430044000093D00F1EFFF9F10
:101670005D0900000100020401000104290C0000C2
:10168000010003040C100440FFFFFFFFC409000029
:10169000010000000000000093090000DFF800F0E6
:1016A00021B30110DFF800F095C00110DFF800F061
:1016B0000DA80110DFF800F0BDBE0110FEE7DFF855
:1016C0000001007D70476DE038B5FFF7FCFFDFF8E3
:1016D000F8500446A8680021FFF7E4FF6969081A7A
:1016E000A969814238BF002084F3118832BD2DE9F9
:1016F000F041FFF7E8FFDFF8D0500446A868012169
:10170000FFF7D0FF0121A9830021E9836E692968D1
:101710002A68871B801A711A884204D20020A88385
:1017200084F311882BE084F31188002406E0A619C5
:1017300031460120FFF7BAFF3F1B0446A742F6D20D
:10174000FFF7C1FF8046E88B012804D13146002015
:10175000FFF7ACFF0446A96914F1010F08BF084662
:1017600003D0E01B814238BF08468119FFF7A2FF72
:10177000012028840020A8832E6088F31188BDE80A
:10178000F08100218182DFF83C10C06849698842FD
:1017900004D1DFF85C000068FEF740BF7047808A24
:1017A00070477047DFF84C100968EFF3118081F340
:1017B00011887047F6E7DFF8400080687047000046
:1017C000A40100207801002078010020616280F3EC
:1017D00011882046704738B504460D46FFF7EAFFEA
:1017E000616A2943FFF7F2FFBDE83240FFF756BFB9
:1017F0005C6F0000546F0000C801002081604260EF
:101800007047102804D3DFF80C101038C1F8000F0F
:101810007047000000E000E000F04ABEFFF7C2BFE2
:10182000DFF89811C20744BF01220A60820744BF53
:101830004FF480720A60400744BF4FF48030086064
:101840007047DFF87C21C30748BF1160830748BF9A
:101850005160400748BF91607047000010B50446D2
:101860000020D4E90A2347F6906101F01BF9012317
:10187000994228BF4FF0FF3010BD10B50C4600F064
:101880000BF9011D201AB0F1004F05D8081BB0F16B
:10189000004F38BF8C4200D20C462146BDE81040B4
:1018A0000120CEE72DE9F04180460A46D8E90A0139
:1018B000D8E90C45A0FB026701FB0277A6196F412E
:1018C000340C002244EA07414046FFF7D6FFC8E93E
:1018D0000E67BDE8F081F8B50646FFF79FFF0446A6
:1018E000DFF8E050DFF8E0700120E861FFF798FFD3
:1018F000F96A096A142088473069B0F5802F34BF2F
:101900000421010C0120FFF79CFF3A681268232193
:1019100000209047DFF8B41001200860DFF8B40021
:10192000016821F4E02141F4803101600120286048
:1019300084F31188F1BD000000F0B8B810B5DFF8ED
:101940009000446800F006F86069A169BDE81040A5
:1019500008470000012063E7F8B504460D4600F093
:10196000A5F8D4E90A6732463B4601F09BF83DB141
:10197000A6FB002306FB013307FB0033C4E90C235D
:10198000F2BD10B5DFF83C00DFF84C4000210160EB
:101990000121C16121602068FFF7DCFFDFF84810FA
:1019A0000968096A14208847206810BD000080B5C6
:1019B00000F07CF8000C40EA014002BD0420094020
:1019C00018200940000024438401001080022443B1
:1019D000E4010020002009402C200940DFF810001D
:1019E000C088704700000000B0010010FEE770479B
:1019F000F001002021490868C2430A600A680242D7
:101A0000FAD170471E490A68002AFCD1CA610860F1
:101A1000C8690028FCD00020C86148687047194890
:101A200001686FF00202114041F40071016003216E
:101A30001548816041F2300141610121C1605021AE
:101A400041610121C1604FF4CA6141610121C1605E
:101A5000016070470D4802680A6082684A60C26887
:101A60008A60406B20F0784040F08050C86070473A
:101A7000704701461022064800F0DABC10100440FE
:101A80000010044000000460004104404C1300506A
:101A90001800002170470000094801684268036887
:101AA0009942FAD1100C40EA0140704710B5044A3F
:101AB000136850681468A3421946F9D110BD00009C
:101AC00008200940DFF800F0F5C00110DFF800F051
:101AD00049BA011020B1082324220021FEF796BD47
:101AE000704780B50120009009234FF40072002157
:101AF000DFF8F00601F093F801BD80B50023012264
:101B00003421DFF8E00601F09DF800B10120C0B2F9
:101B100002BDDFF8D40680687047DFF8CC164018A5
:101B200090F8ED0070470022022904D1012806D167
:101B300040F2EE2203E0012808BF4FF47A7210460B
:101B40007047DFF8A406D0F8DC007047DFF898068D
:101B500090F8E61021B1D0F80C01010018BF004741
:101B600070472DE9F041DFF8808608F1E1058AB081
:101B7000A879002861D10120A871DFF87066DFF82C
:101B80007076307B68717068C8F80C0101A8FFF7A7
:101B9000A1FF00200690ADF81400079001AB0022D1
:101BA0000FF2DD4108F10C00FEF750FD01AB002201
:101BB0000FF2895108F13000FEF748FD01AB002219
:101BC0000FF2C14108F15400FEF740FDB168012059
:101BD0008847DFF8200600787868C0F38154707B6E
:101BE00020B1032C02D10120287003E0032C18BF80
:101BF000022C16D1022000F09DF8032CDFF8F81516
:101C00000CBF4FF47A7042F210700968B0FBF1F12A
:101C100008F15400FEF7FEFC08F15400FEF7FEFC4C
:101C200005E0012C03D100F057FAFFF75AFF38689E
:101C300040075CBF002000F07DF80AB0BDE8F081ED
:101C400010B508B1140001D1022010BD8160C2603E
:101C500003610146DFF8900501F00EF8002010BD89
:101C600010B50446FEF7C2FCDFF87C15621892F846
:101C7000E8305B1E82F8E830DBB223B98A680123C2
:101C8000A3409A438A6066E02DE9F0410546FEF7DD
:101C9000ADFC8046DFF85015681890F8ED20521E14
:101CA00080F8ED20D2B2002A3FD10FF28850DFF841
:101CB0004C4500EB85052E786F88300615D52168D8
:101CC000096A384688472168896A38468847216802
:101CD000096B38468847DFF8281501200860DFF8CF
:101CE000240500688007FAD512E0700606D501EBDE
:101CF00087010020D1F80011884709E0216889692F
:101D0000384688472168496B384688470228F9D108
:101D100006F03F003F2818BFFFF7B6FF687800F0D5
:101D20003F003F2818BFFFF7AFFF4046BDE8F04136
:101D3000FEF760BC10B50446FEF758FCDFF8A814A7
:101D40008A680123A3401A438A60611891F8E82049
:101D5000521C81F8E820BDE81040FEF74BBCF8B5F6
:101D60000646FEF743FC0446DFF87C54701990F8F1
:101D7000ED104A1C002980F8ED2039D10FF2B44053
:101D800000EB8607387800F03F003F2818BFFFF7C8
:101D9000E6FF787800F03F003F2818BFFFF7DFFF2D
:101DA0007E883878DFF8547401060ED53968C96921
:101DB000304688473968496A304688473968C96A71
:101DC0003046884700F019F812E0400606D505EBCA
:101DD00086010120D1F80011884709E03968496976
:101DE000304688473968496B304688470128F9D121
:101DF0002046BDE8F240FEF7FDBBDFF804140120E9
:101E00000860DFF8000400688007FAD570472DE904
:101E1000F04F002483B04FF0000A0128D04618BFCD
:101E2000012664D1DFF8C093D9F8DC0001285DD128
:101E30000220C9F8DC00FFF745FE0090012000F009
:101E400056F9060054D1FEF70DFCDFF8C0130190DF
:101E50000C60012000F036FA012804D1002000F0C7
:101E60009BF94FF0010ADFF8A813DFF89C030C6020
:101E700000681120FFF751FE08B14FF00108102053
:101E8000FFF74BFE08B148F002080F20FFF745FEB0
:101E900008B148F004080B20FFF73FFEDFF85C6351
:101EA00020B13168096B4FF4806088470A20FFF742
:101EB00034FE20B13168096B4FF481608847DFF848
:101EC0004013DFF85073DFF850B30120086048F08A
:101ED0002000316889698847DFF8401301200860D5
:101EE00099F80800C00707D5012416E0042673E01E
:101EF0000120C9F8DC006CE0584600F0D1FE054630
:101F0000042DF9D0012D04D1326A526803215846BC
:101F100090473868800880003860002000F0C8FED4
:101F2000B94800683068806B804754B9012D04D1EE
:101F3000326A5268012158469047386840F00300E1
:101F400038600120B24908604046316849698847D5
:101F50000B20FFF7E2FD20B13168C96A4FF48060C1
:101F600088470A20FFF7D9FD20B13168C96A4FF4CC
:101F700081608847A249012008600020A7490860C5
:101F80000320C9F8DC003168496B404688470128C6
:101F9000F9D1042000F0ABF89C49012008609A4870
:101FA00000689F4800688006FBD5BAF1000F1CBF8F
:101FB000012000F0F1F800F0C7FF082000F097F8CA
:101FC00006460120C9F8DC000198FEF74FFB00F03F
:101FD0003FFF0098FFF77AFD3046BDE8FE8F30B531
:101FE000002401288BB004D021D303281DD018D39E
:101FF0001DE001A8FFF76EFD7B4D8A490694ADF800
:102000001440079401AB012205F17800FEF71EFB96
:1020100000940023844A2C2105F19C00FEF712FB5A
:1020200005E000F0ADFF044601E001F04FF8204666
:102030000BB030BD00F053B938B5FEF7D7FA0546FE
:10204000694890F8E000012410B1FFF756FD0446FE
:102050002846FEF7CFFA204632BD38B5FEF7C6FA5D
:10206000614D044695F8E00020B100F07FF90020B2
:1020700085F8E0002046BDE83240FEF7BBBA00001C
:102080007047000010B582B0042000F01BF9022850
:1020900018BF032807D100F01FF8FFF722FDBDE8A5
:1020A00016400220DCE56148534900684E4CC0F3FD
:1020B000815003280CBF4FF47A7041F288300968D0
:1020C000B0FBF1F104F15400FEF7A4FA04F154005E
:1020D000BDE81640FEF7A2BA032000901C234FF083
:1020E000405200213F4800F09ABD0020704770B573
:1020F00004463D4E304600F0B5FD002598B9304607
:1021000000F0B6FD0646B068204207D03269F36899
:102110000021204698470546012D05D0304600F0A5
:10212000A9FD0600EFD1284670BD414901280CBF2A
:1021300040F2FF70002008600020704770B5FEF785
:1021400055FA294E294D044696F8E00028B100F0D2
:102150000DF968B1002086F8E0000220AD68A847BC
:1021600006461020FFF7C3FF8EB10320A8470EE0FC
:10217000214909683220B0FBF1F101B9012106F1D2
:102180003000FEF747FA06F13000FEF747FA204626
:10219000BDE87040FEF72EBA38B501281ED100F018
:1021A00091F801281CD000F0D7F80F4C12490120FB
:1021B00084F8E00032200968B0FBF1F505B901258B
:1021C00004F13000FFF7DDFA294604F13000FEF794
:1021D00021FA04F13000FEF721FA01E000F0E8F8FE
:1021E000002032BD00A00C40C80900203C6C00005B
:1021F000B03F0050FB1C0020586F0000B8010010D9
:1022000028200860282008402C2009400C40094064
:10221000000222432422084000400340800104437E
:102220001410094009320000D92F0000B43F0050BB
:10223000000004608F3F00008F3F01008F3F0200CD
:102240008F3F0300903F00018F3F0101903F00024C
:10225000903F00038F3F01048F3F00058F12080459
:102260008F3F00048F3F0006513F00007F3F010079
:102270003F3F04003F3F02003F3F01007F3F02001D
:1022800070B50446E00782B00D46624E05D5A8B28F
:1022900000900023012200F011F8A00705D5A8B294
:1022A00000900123022200F009F8600705D5ADB2C5
:1022B000009502230C2200F001F873BD0021304686
:1022C00000F0ADBC0146042907BF1D234FF0C042FA
:1022D0001C234FF080524F48342100F0B3BC38B576
:1022E0000546FFF7D9FB4C4CA168401A4FF47A71B0
:1022F000484305EB104501F05DF82169401A48BFDD
:10230000404240F6B9318D4207D2062805DAA0686E
:10231000E168814201D322685AB940494A68D2072C
:102320004FF4FA6017D4086800F0FF007D2148439D
:1023300008E0081A3A494843000C00EB900090422C
:1023400038BF1046C82801D2C82032BDB0F57A6F18
:1023500088BF4FF47A6032BD80B501210320FFF7BA
:102360008FFFFFF799FB2C49886001BD80B50120E4
:10237000FFF7A8FF012819D00023012234212548A6
:1023800000F060FC98B100F026F8FFF785FB2249C9
:102390008B680A68C860A2EB9202C01A204B5843AF
:1023A000000C0860904238BF10460860012002BD52
:1023B00010B500210320FFF763FF0120FFF782FF24
:1023C00008B100F008F8144CFFF766FB606000F0FD
:1023D000F1FF206110BD1348006800F0FFBF10B589
:1023E00011490A6811490968140424161B3844432A
:1023F000E41004EB2244120600FB00F31216090657
:102400005A435843091604EBA222484302EBA0406A
:1024100010BD000000A00C40DC1C0020AC3F0050B0
:1024200040420F008000001090130050A410005094
:1024300062B38B0708D0521E11F8013B00F8013B34
:1024400000F024808B07F6D1830740F0208000BF86
:10245000103A07D330B4B1E83810103AA0E8381079
:10246000F9D230BC530724BFB1E80810A0E8081027
:1024700044BF51F8043B40F8043BD20724BF31F875
:10248000022B20F8022B44BF0B7803707047083AE8
:1024900007D3B1E80810083A40F8043B40F804CBF1
:1024A000F7D25307E4E70000002200F0B3BF0000BA
:1024B00010B5DFF82405046814F1010F08BF0024EB
:1024C00001F02AF8DFF81415002008600120DFF879
:1024D00010150860DFF80C15086000F04CFADFF802
:1024E0000805006828B1DFF804050068204600F000
:1024F00022F8DFF8FC14DFF8FC2400200860DFF885
:10250000F80401686FF31B4111430160DFF8EC042C
:102510000168C1F30131012907D10168DFF8E02426
:10252000114041F4003202600160DFF8D804006815
:102530000028FAD110BD70B50546DFF8CC040121A2
:102540000160DFF8C81409680029FAD0DFF8C04438
:10255000DFF8C024C02121605368DFF8BC149B075A
:102560005DBF13681B0C43F0F00372230B70002156
:1025700001639668304600F031F83146284600F095
:1025800061F8DFF89804816D89B240F20F22914220
:1025900014D201680068C1F30361C0F3034001B1C4
:1025A000491E072805D006280EBF0720801C00F012
:1025B0000F0041EA0010DFF868140870304600F0A0
:1025C000B2F8DFF860140968C96802208847402023
:1025D00020600120DFF85014086070BD10B504467B
:1025E000DFF848040068C0F3046000F0C0F9211768
:1025F000491C08181628A8BF152004DA6FF0090135
:102600008842B8BF084600F01F00DFF8241440F4E9
:10261000F8500880DFF81C04006880074FBF44F0C2
:1026200040640020DFF810140860DFF81004C4F3E1
:10263000C06181F001010160C4F3806181F001019A
:10264000816010BD70B5054682B0084600F0F0F814
:102650000246DFF8EC43182100F062F800F014F9AC
:1026600080B20090002340F2FF322C21204600F07F
:10267000D6FADFF8D063F068C0F30D021C2100F039
:102680004FF8706800F0FC32142100F049F830680F
:10269000DFF8B413DFF8B46301EA0002102100F0A0
:1026A0003FF8284600F0FAF802460C2100F038F80E
:1026B000284600F01EF9400040F020003072284605
:1026C00000F020F940F010003072284600F023F9A5
:1026D0000246282100F024F8284600F001F94000C5
:1026E00040F06000F072284600F02FF9C00040F082
:1026F00080003070284600F031F98000DFF8501378
:1027000040F47C400880284600F012F90246082177
:1027100000F006F8DFF83C134FF48000086073BD4A
:10272000204600F077BAF8B5810C01F003010129C9
:10273000C94CC84D02D002292AD026E0216A8A035A
:1027400023D44FF480422A606FF08F06C34AD2F838
:10275000023033404E0A06F080063343C1F303369D
:102760003343C2F80230C1F30326D2F801301B090B
:1027700046EA0313C2F801306FF0E70613683340EE
:1027800001F0E7011943116002E04FF000412960B8
:10279000B34EB44AB16809075CBF4021A9624FF447
:1027A00000712964800D216AC90C01F0030141F018
:1027B000300110F00300117003D0022826D008D396
:1027C00026E001210420FFF75BFDA74800F0F4F8A4
:1027D00022E00120FFF776FD074639460420FFF787
:1027E0004FFD0420FFF76EFDB842FAD1366826F09F
:1027F0007F4000F0E1F89D4B1B681B684FF06022A2
:102800000721300E98474FF480602860032100E0D4
:1028100002210420FFF734FD2068954900F03F00B5
:10282000087047F618009349088093480068F1BD86
:1028300092490968C1F383628303C1F38F2120D4D5
:10284000000400164FF6FF7307E0490804D119464B
:10285000520804BF01220121401C0028F5D40128A0
:102860000FDB490041F00101B1F5803F21BF01219B
:10287000520042F00102102A24BF0F221946401EC6
:10288000EDE741EA024070477C48016800680002B9
:10289000C1F3870100F440700843704730B55D4CC8
:1028A00077490A686568ED07C2F30351C2F3034331
:1028B0000AD42468250501EB2571240481F3040161
:1028C00003EB247383F304031B0443EA015193B223
:1028D0001943222824BF02F080400143084630BD3E
:1028E0000021202803D367480068C0F3015108463F
:1028F00070470121222803D363480068C0F30071A8
:10290000084670470121222803D35F480068C0F3BE
:102910004071084670470021202807D359480068B5
:10292000C10C01F44071C0F3845001430846704764
:102930002028564907D35348554A0068810A02EABD
:10294000003040EA8151084670470021222803D315
:102950004D480068C0F3C061084670470021222836
:1029600003D349480068C0F345510846704716280C
:10297000A8BF20387047234800680028FBD145488D
:10298000454A416812688908890041F0005141F0C8
:102990000401520748BF41F001010BD4026812F054
:1029A000030F07D041F003024260026802F0030205
:1029B000032AFAD141607047384982B20A60C0F3F5
:1029C0000740486001208860354800680028FBD037
:1029D00000208860704700001C130050840460428F
:1029E0005C600C400822044380012843000120431E
:1029F0008C210840000039014820034004000940B0
:102A0000FFFFFCFC0C0068421010094094022243B6
:102A100000600C40AC3F005056620840BC120050B1
:102A200002600840A001001094046042B8120050F7
:102A30006E6208400000094094042A4300002043CD
:102A400000A00C4070130050FFFFFC0041A10C409F
:102A5000DCA10C4040A00C406C1300500A60084000
:102A6000A83F005008A10C40BD378600B4010010FB
:102A70000BB00C4070B00C402C200940501300509B
:102A800078130050981300508C13005000803F4082
:102A900000F03F0000400340B03F00503C600C405D
:102AA00084088C431B4213D1094236D12AB1844693
:102AB000B0FBF2F002FB10C2704700F037BDFCD350
:102AC0000022002370470B00020000210020704705
:102AD000904271EB030CF6D370B5B1FA81F4B3FAFE
:102AE00083F52C1BA340C4F1200532FA05F63343CD
:102AF000A2405FF00046E64002E05B085FEA320277
:102B0000841A71EB030524BF204629467641F4D38D
:102B100002000B003000002170BD012ACFD970B532
:102B2000140C20D0B1FA81F4B2FA82F5C4F1200479
:102B30006419B4F12006D6D3B2405FF00044F440EB
:102B4000002502E052085FEA3303C61A71EB020E59
:102B500024BF3046714664416D41F3D302000B003F
:102B60002000290070BD0C46B1FBF2F102FB1145BB
:102B70002D0445EA1045B5FBF2F402FB145580B272
:102B800040EA0545B5FBF2F002FB105240EA044072
:102B900070BD000070B504460D46164600F0D0F931
:102BA000401E8041C00F1A490A68002AFCD0012E3D
:102BB00002D0022E02D003E0257002E0258000E062
:102BC000256001220A6000281CBFBDE8704000F0AB
:102BD000BBB970BD38B504460D4600F0B1F9401ED2
:102BE0008041C00F0A490A68002AFCD0012D02D09A
:102BF000022D02D003E0247802E0248800E024685B
:102C000001220A6008B100F09FF9204632BD0000A1
:102C100000800C400B46114604221818BAE710B584
:102C200000EB4100102B144600F5007002D3103B5E
:102C3000001D240C0299994041EA0441BDE810406E
:102C40000422A7E738B51D460818102D144602D3F4
:102C5000103D801C240C0221FFF7BCFF204080B2F5
:102C6000E84032BD006800280CBF012000207047FA
:102C7000006870470068704738B504460D4600F09C
:102C800056FC00212960616869606168002914BFF1
:102C90000D6025606560FFE7BDE8324000F049BC8B
:102CA000006801074CBF042000F0030070470000DB
:102CB0002DE9F84F06469348934C0068934D8007E2
:102CC00004D50820A87192482060BFE000F072FB94
:102CD00080469048006800900027001700F1010925
:102CE0000098800208D4C8F13E00C0100928A8BF8F
:102CF00008208145B8BF814687480068C0F304605A
:102D0000FFF735FE824685480068C0F30440FFF7B0
:102D10002EFE09EB0A011629A8BF152104DA6FF06F
:102D200009029142B8BF114601F01F027C4B42F4E8
:102D3000F8521A807B4A126812F0030F18BF01275D
:102D4000520748BF47F002070EB147F0040795F954
:102D50000720A8EB0202052A02DAAA7997425DD081
:102D6000A8F10F0C0026BCF1000FB64607F00102D7
:102D700007F00403DFF8B09123D40CEB0C1C4FEAEE
:102D80002C2EBEF1080F28BF4FF0070E7646072EF7
:102D900028BF062609EB860A59F82660DAF804A04F
:102DA000AAEB060A0AF0FF0613B1CAF3072B5E442A
:102DB0005FEA877B44BFCAF3074B5E440AB106EB68
:102DC0001A6659F82E9009F0FF0A13B1C9F30723C8
:102DD0009A44BB0744BFC9F307439A440AB10AEBBC
:102DE000196A401AACEB0E220099AF71724380321F
:102DF0000128B8BF0120342301F0FF0158430AEB3A
:102E000012224843B0FBF2F0B0F5803F28BF4FF6E6
:102E1000FF7008F30708A88085F80780434800681A
:102E2000A988286000201F2904D21F21A98004E05E
:102E30004908401CB1F5007FFAD20F39090940EA70
:102E4000C1003B490843206000206060BDE8F18F6D
:102E500010B53848006884B21CB300F0ABFA2B49B7
:102E600091F90720904205DA6FF07F029042B8BFD7
:102E70001046C8718888844201D28C8010BD2B4ACC
:102E800012680B68D21A921C202A28BF1F22231A0C
:102E90005208D3401818B0F5803F28BF4FF6FF7096
:102EA000888010BD2448026802B9704710B5234BD2
:102EB000996801F04060B0F1406F21D0114804687A
:102EC000A4071DD45C68A4071AD404681B68C3F364
:102ED00003531C331B0114F0050F06D09A420FD286
:102EE0006FF005012140016010BD934208D20A0134
:102EF00058BF44F00104490158BF44F00404046081
:102F000010BD00000000094030100940F01C0020F6
:102F1000FDFDA400B43F0050B81200503C11005019
:102F20006E620840242208409C130050082009408B
:102F300000E7A4803410094028500940AC3F0050FD
:102F4000EFF3108072B67047EFF3108062B67047EF
:102F5000DFF800F099C8011010B50C18FFF7F0FF6A
:102F6000401E8041C00FDFF8F0130A68002AFCD031
:102F7000246801220A6008B1FFF7E6FF204610BD71
:102F800038B5DFF8D843DFF8D8132078897B0025DF
:102F900008430AD0FDF72AFBA178002906BF0121CA
:102FA000A1700125FDF726FB0DB1002032BD0220E6
:102FB000FEF7C0FE0E20FEF7D2FEDFF8A803016880
:102FC00009B1012032BDDFF8A023402111600121A9
:102FD000C1610020607032BD70B5DFF88C0382B033
:102FE000002101604821C160DFF8800300F1D804AE
:102FF000A17A002968D00129DFF8742329D110684B
:103000004BF2F5214843050ADFF868030068C0F376
:103010008140012806D100F0CDF9FFF7E0F96843BF
:1030200005EB9055607B10B10020607305E0D2483D
:103030000068000215EB10204508D0480560290CF7
:10304000416001218160C648807B00283AD005207C
:1030500039E0022909D11568284600F0FDF8A5F2EB
:10306000FF5003282ED308202DE003292CD111680E
:1030700000F1B805A1F5C0612868E961002848BFE2
:103080004042002948BF49428842A8BF002018DAC0
:103090006868BB4E80B2009008234FF47F42302115
:1030A0003046FFF7BCFDA86800F072F904213046F5
:1030B000FFF7B5FDA86900F071F93046FFF7AFFDE5
:1030C000012020700B202073BDE873402DE9F041F2
:1030D000A64CDFF8AC82AB4FAB4EA34804F1E10540
:1030E00082B0E9784A1E0B2A00F28080DFE802F005
:1030F000062233465B33465B3346636EA349096859
:103100000968202088470F20F860072341F61D50EA
:1031100038614FF4C0720220009000F070F807236D
:103120004FF4C07200214046FFF78CFD0120306053
:10313000022044E00120F861287800281DBF00200B
:10314000306103200620E8700320386000207060A2
:103150007068800734D4E878032804D1022000F096
:103160004BF8042007E0002000F046F8E878062835
:103170000CBF07200A20E87001201AE0042903D1BF
:103180002021B961012105E00122BA610A290CBFA1
:10319000032102216970002139600821C1600160AA
:1031A0000120386026E005290CBF06200920E870C0
:1031B0000020706004E00020306070600C20E87037
:1031C00004F17800BDE8F641FDF728BA002101605E
:1031D0000120644908600E20FEF756FD0220FEF72C
:1031E0003FFD0120E8700020A87003E0BDE8F34136
:1031F000FFF7AEBEBDE8F3810090052360220021F9
:103200004046FFF70CBD000080B558495E4891F874
:10321000E410891E0A291AD8DFE801F0060A0E19FF
:103220000A0E190A0E19120001688907FCD510E070
:1032300041688907FCD40CE041688907FCD508E0A7
:1032400001688907FCD441688907FCD401E0FFF7D5
:103250007FFEBDE8014039E7F8B50746484C30210C
:103260002046FFF779FE414E06F1B805C0F307206E
:10327000686004212046FFF76FFEC0F38440A86019
:1032800020212046FFF768FEC0F38120A861B7F532
:10329000C060286002D186F8D800F1BD296996F88F
:1032A000D8202AB96A68A968EA60E861AA696A61EF
:1032B000E86900284CBF6FF00102022200EB4000D9
:1032C0001018421000EB927001EBA0006968E960F1
:1032D000012810DA6A69032A04D1153001281DDAA1
:1032E00001201BE00B300128B8BF0120491E48BF58
:1032F0000021E96007E01F2812DB6A692AB9153846
:103300001F28A8BF1E20032109E00B381F28A8BFD3
:103310001E20491C4029A8BF3F21E96000216961A6
:1033200028610823E86880B200904FF47F42302182
:1033300000F03CF80120009011234FF4003200F01F
:1033400034F8286900F024F800F02FF8686900F0DC
:1033500025F800F02BF8F1BD00800C40A90A0020F0
:103360003C6C000004800C402C500C40C80900202C
:1033700008400C40B43F0050102009403C600C4015
:1033800000A00C4000400C4034600C40A001001034
:1033900080B2009012234FF4F802704780B2009080
:1033A0000A234FF440622021704704212046FFF792
:1033B00036BC00000748084A81681278006852B29B
:1033C000A0F54070C9035043C913A1EB2010803011
:1033D00000127047285009400C13005070B5044685
:1033E000FFF7AEFD451EAD41ED0F074E30680028DA
:1033F000FCD0A04701203060002D1CBFBDE870400C
:10340000FFF7A2BD70BD000000800C4062F30F22E8
:1034100062F31F4200B500BF130096469446103970
:1034200028BFA0E80C50FAD85FEA417C28BF0CC046
:1034300048BF40F8042BC90728BF20F8022B48BF1B
:1034400000F8012B00BD000030480068000C00F0BF
:103450000700052828BF4FF0FF3070472C490A6845
:10346000C2F30F324BF69A139A424FF0FF3006D157
:103470000868000F0B280CBF0420002070474BF693
:10348000BE118A4201D1012070474BF641318A4278
:1034900001D1032070474BF620318A4208BF022039
:1034A000704700001A48F8B50068050F1948006811
:1034B00000F0FF06802E28BF0026FFF7CFFF04286C
:1034C0004FF0FF3406F10A071DD8DFE800F00312C1
:1034D0001A1A1B00012D12D0032D06D0072D06D07D
:1034E000082D08BF06F116040DE014240BE0152486
:1034F00009E025B1022D08BF06F1140403E00A24F7
:1035000001E005B93C4660B2F2BD000094120050E3
:1035100018130050A010005080B5FFF79FFF20B98E
:10352000FFF7C0FF162800DB01BDFEE77047FDF77F
:103530005DB8FDF75FB80000DFF800F0D9C10110F9
:10354000DFF800F0ADB50110DFF800F019AE0110A2
:10355000DFF800F0E5C10110DFF800F085C20110CE
:10356000DFF800F081C20110DFF800F055C1011052
:10357000DFF800F043C20110DFF800F079AB011072
:10358000DFF800F0D9B60110DFF800F0EDB301105C
:1035900020B108232C22002100F012BD704720B179
:1035A00008233C220021FFF7C7BF704780B5FEF714
:1035B00089FAADF80000FDF719F8ADF8020000989F
:1035C00002BD01B5BDF80200FDF714F8BDF800001A
:1035D000BDE80240FEF77ABA38B5DFF8A008DFF898
:1035E000A018DFF8A04880088000091A2161E06077
:1035F000034602E0002523F8025B0D18AB42F9D325
:103600008B0800EB8303002223F8042CE8220280BD
:103610004FF6FC721140EC39A0F8E810E830606019
:10362000002000F004F8A060E068606031BDF8B5EB
:1036300000240025061D16F003001CBF311D0E1AC4
:10364000FFF7B4FFDFF83C28B6B21060112EB4BF0C
:10365000576897683A88130403D582F4004200251E
:103660001AE02B0014D0238839880B4423809BB2A6
:10367000B34211D327461A46B7B1921B92B2042A1D
:10368000A7BFBA5346F40041398841F4004109E02C
:10369000B242F1DA01253C4617443A88002ADAD1D1
:1036A000002701E027F8041BFFF78BFF3846F2BD27
:1036B00010B50446FFF77AFFDFF8C817086034F842
:1036C000042CC2F30E0224F8042C221F4B689A42E9
:1036D00038BF4A60BDE8104073E738B50446FFF7CD
:1036E00065FF00210C23DFF8A0274B43D518AA6CF7
:1036F0004AB1944204D1FFF764FF05F1480032BD9E
:10370000491C0329EED3FFF75CFF002032BD70B5E2
:103710000546FFF74BFF044600200C22DFF8681730
:1037200042438E18B16C49B900203065B56400225F
:10373000FFF706FFF06418B900F04CFC8D4205D18C
:103740002046FFF73EFF06F1480070BD401C0328ED
:10375000E3D32046FFF735FF002070BD38B504469F
:10376000FFF724FF0025DFF820170C226A438A5A4E
:10377000130008D0944203D1FFF723FFE8B232BD13
:103780006D1C062DF1D3FFF71CFFFF2032BD10B5D5
:1037900004462088FFF7E2FFFF2800D16BE10C22EE
:1037A000DFF8E416504308448168080002D16FF046
:1037B000010010BD2046BDE81040084702460FF248
:1037C0003870104710B500200C21DFF8BC2600240B
:1037D00001FB00F31344401C03289C641C65F7D3D1
:1037E0000020002301FB00F4401C13530628F9D3EA
:1037F000082010800FF2E9609060BDE81040EBE611
:1038000070B590B0FEF75EF904466846FFF7C7FE54
:1038100005200690002240F2B630089069464FF627
:1038200069600490DFF864060590DFF86406FFF72E
:103830008BFE050006D0FFF7B9FE06462846FFF7C7
:1038400066FF08B900F0C6FB3046FFF7BAFE204617
:10385000FEF73CF910B070BDF8B500F0E6F8FFF7E0
:1038600056FF05006FF0020616D0FFF79FFEA288F4
:1038700000210C27DFF810364F433B441F883FB927
:103880001A805D60A2689A60217369682161C4E250
:10389000BA4203D1FFF795FE3046F2BD491C062916
:1038A000E7D300F097FB00BF38B500F0BEF8FFF794
:1038B0002EFF050016D0FFF779FE00210C23DFF85C
:1038C000C8254B431A4413884BB94FF6F87313803D
:1038D00055600023936021716968A16013E7491C5A
:1038E0000629EBD300F076FB00BF10B504466068F4
:1038F0000C3080B2FFF79BFE00B91AE061680181CD
:1039000000210160FF2181720C30A060002010BDF9
:1039100080B540680C3811E080B288E610B50446E6
:10392000606880B2FFF783FEA06000B901E000206C
:1039300010BD6FF0030010BD80B54068FFF7B8FE02
:10394000002002BD38B504460D46FFF72FFE0021CA
:1039500045F80C1C216811B9256006E0114651F8A4
:103960000C2C002AFAD141F80C5CBDE8324028E664
:103970002DE9F04104466FF00206E068A0F10C0565
:10398000A0790628BCBF207906280BDAFFF70EFEC7
:10399000A179DFF8F4840C2779434144496819B9C7
:1039A000FFF70FFE304617E0FFF70BFE2079287176
:1039B000A0796871207AA871A079E16878434044C1
:1039C00040680830FFF7BEFFA07978434044406864
:1039D0004068FCF713FE0020BDE8F08170B500F0F0
:1039E00024F8FFF77AFE060002D16FF0040070BDE4
:1039F000FFF7DCFDB168002541B10D46A5F10C01D2
:103A00000A68B26000220A60FF228A72FFF7D9FDBD
:103A10002800A56001D1022070BDA5F10C0001793C
:103A200021714079A071002070BD0446FFF790BD60
:103A300006280ADA0C23DFF850245843105A0200F3
:103A40001CBF4FF6F872904202D14FF0FF30704722
:103A5000088000207047811D0079E9E710B5044611
:103A6000E088FFF77BFEFF2800D104E0A07120462C
:103A7000BDE810407CE74FF0FF3010BD3EB5044676
:103A8000FFF7ACFF050017D120796946FFF7D0FF9B
:103A900078B10820ADF804000320ADF80600DFF887
:103AA000F413A0688968029001A888476FF00500A8
:103AB0003EBDBDF80000A08028463EBD10B5DFF831
:103AC000D82312680C464FF47A71A1FB0001002341
:103AD000FEF7E8FF002399424FF0004201D89042E0
:103AE00002D36FF0020010BD2060002010BD38B579
:103AF000FFF79BFFFFF7F1FD0546FDF7E0FD00280E
:103B000018BF012800D015B96FF0040032BD6068FD
:103B100040B9009000996868FCF774FD401E804130
:103B2000C00F32BD10F1010F08BF4FF0FF30F0D0D1
:103B30006946FFF7C3FF0028ECD032BD80B540686E
:103B4000FCF75CFD002002BD00F044FA00BF80B528
:103B50004068FFF701FD002002BD80B54068FFF717
:103B6000FFFC002002BD80B5FFF7FEFCFFF700FD63
:103B7000002002BD80B5FDF7A5FFFCF737FD002052
:103B800002BD10B58CB004466846FFF701FDE02089
:103B900000F013F808B900F01DFA0BE010B58CB076
:103BA00004466846FFF7F4FCE06800F006F808B940
:103BB00000F010FA00200CB010BD08900023A1689E
:103BC00060686A46FFF7D8BC10B50446FFF7D8FC1A
:103BD0006060002010BD0146886849680847F0B55C
:103BE00007468BB0BC68AB4D6CBB0C20FFF71FFDCC
:103BF00004006FF003061ED008232422002101A830
:103C0000FCF704FD0020ADF8140006900794002393
:103C10007968A24801AAFFF7B7FC206068B90820BC
:103C2000ADF800000C20ADF802006846A96888478E
:103C30002046FFF73DFD304618E0F86860603869BF
:103C4000A060BC600AE02868804706462068FDF74F
:103C500098FD3869A06030466968884779682068AF
:103C6000FCF7D8FC2068FCF7D9FC00200BB0F0BDB5
:103C700010B5044682B060686946FFF71FFF20B99F
:103C8000009860602046FFF7AAFF16BD80B5406827
:103C900010B96FF0020002BD0068FDF772FD002050
:103CA00002BD7D49096841600020704750B5044657
:103CB000794802686FF00046A6FB020100234FF42A
:103CC0007A72FEF7EFFE002399424FF0004201D8CE
:103CD000904200D330466060002050BD2DE9F04195
:103CE00086B00646FFF734FCFFF7F7FC04460020D9
:103CF00002900025FDF7E3FC002818BF012800D042
:103D000014B96FF0040063E0706820B110F1010F86
:103D100003D14FF0FF30009004E06946FFF7CEFE7C
:103D2000070054D1FFF72CFC0099012701EB000894
:103D300000E0009000996068FCF764FC78B303A889
:103D4000FFF74CFE07001AD19DF8100001A9FFF7FC
:103D50006FFE80B9059A9DF81210BDF80400B36893
:103D6000984740B1BDF80400B0819DF81200B073CF
:103D70000598306113E0059902A8FFF7E3FD00986C
:103D800001276D1C10F1010F18BF0028D2D0FFF7DA
:103D9000F7FBB8EB000002D000998142C9D2029E25
:103DA000FFF704FC56B1314600E0114651F80C2CE7
:103DB000002AFAD1A26841F80C2CA660FFF701FC9A
:103DC000002D03E06068FCF719FC6D1EFAD138463F
:103DD00006B0BDE8F081F8B5FFF727FE0546FDF710
:103DE0006EFC002818BF01286FF0040613D0FFF7FF
:103DF000DDFB0021244A0C234B43D75A4FB1134417
:103E00005B681B68AB4201D1217106E0491C0629A1
:103E1000F1D3FFF7D6FB3046F2BDFFF7D2FB00200F
:103E2000F2BDF8B50446FDF74AFC002818BF01288A
:103E300002D16FF00400F2BDFFF78AFB0546FFF7E1
:103E4000B5FB0021104A0C234B43D65A37000ED045
:103E5000A788BE4208D1D11849680968A9420CBF99
:103E600001210021A160D8E7491C0629EBD3FFF707
:103E7000A8FB4FF0FF30F2BD00000000001D002045
:103E8000503F0020D414002068140020A00400201B
:103E9000BD3700008C040020586F0000D73B0000A5
:103EA00070B504463C20FFF7C2FB05006FF0030627
:103EB00011D0FFF774FB207AA86100226089286284
:103EC0002946E06828616068FFF73EFB0446284603
:103ED000FFF7EEFB0CB9304670BD002070BD00004E
:103EE00041882D2902D36FF0010070470FF21402B0
:103EF00052F82110084700008F370000AD35000050
:103F0000C335000059380000A9380000EB38000024
:103F1000113900001D3900003939000071390000E5
:103F2000DD3900005D3A00007D3A0000EF3A000004
:103F30003D3B0000493B00004F3B00005B3B000065
:103F4000673B0000753B0000833B0000C93B00005D
:103F5000713C0000A33C0000AD3C0000573A00005B
:103F6000CF650000A3660000DD3C0000D73D0000E7
:103F7000DF3B00008D3C00003D66000075660000E0
:103F800089660000233E0000D5660000ED66000053
:103F9000A13E00000000000000000000E3660000F9
:103FA000FB6600009D3B00000000000000000000D8
:103FB0000000000000000000DFF800F0F1C5011073
:103FC00001B90149FFF7F8BFA0010000DFF800F0D8
:103FD000ED8C01100120FFF7F9BF0000DFF800F0C1
:103FE00025B101102DE9F04EDFF8BC79924600268C
:103FF00040F2013B0C46BA787B7997F804C097F8F9
:104000000190B0EB0B0540F67B4132D06D1E38D0ED
:104010006D1E3DD0AD1E41D06D1E00F07A806D1E2C
:1040200000F07D806D1E00F087806D1E00F0948092
:104030006D1E00F099806D1E00F09E806D1E00F0D8
:10404000A5806D1E00F0AA80ED1E00F0AF806D1EF1
:1040500000F0B4806D1E00F0B9806D1E00F0BE80CF
:104060006D1E00F0C3806D1F00F0CB80AD1E2DD003
:10407000E1E0102C40F0DD801022514607F1A40051
:1040800081E0102C69D11022514607F1B4007AE08A
:10409000042C62D1DAF80000F862D7E0012C5CD180
:1040A000012B34D09AF800003871BCF1000F06D013
:1040B0000028F2D1022A19D0052AEED116E00028F4
:1040C000EBD0012A1FD0042A1BD11CE0012C44D1C3
:1040D000BCF1010F1BD09AF80000787153B1002891
:1040E00007D1032A1CBF072A052A02D1484600F03F
:1040F000D8FEABE00028FCD0012A1CBF042A062A07
:1041000001D0052A02D1012000F047FC9EE01226D2
:104110009CE0022C21D1BAF80000F88396E0202C14
:104120000BDA07F1CC0600F094F800F09AF8BC71B5
:104130003346224601210BE0202C7ADA07F1EC0607
:1041400000F087F800F08DF8FC713346224600211C
:10415000484600F088FE76E0012C6AD19AF800000B
:10416000052866DA387271E0012C62D19AF80000F5
:1041700004285EDA787269E0062C5AD14FF4867012
:10418000062251463844FEF753F95FE0012C50D126
:104190009AF8000008284CDAB87257E0012C48D190
:1041A0009AF80000042844DAF8724FE0012C40D15C
:1041B0009AF8000006283CDA387447E000F04DF821
:1041C00037D1821F8A4234D278823FE000F045F82E
:1041D0002FD1821F8A422CD2B88237E000F03DF8FE
:1041E00027D1B0F5FA7F24DAF8822FE000F035F815
:1041F0001FD1A0F10A0140F67742914219D23883CB
:1042000024E0012C04BF9AF80000012811D107F125
:10421000800001F004F950B907F1100100F070FBC3
:10422000060013D107F15C0001F000F90EE016263C
:104230000CE018260AE0282807DA022C05D1BAF883
:10424000001000F041FE064600E002263046BDE8C0
:10425000F08E1F21304601F02FB9BAF80000022C71
:104260007047224651463046FEF7E2B838B5002482
:104270004FF440730D46C21ADFF82C1736D0521E89
:1042800036D0521E37D0521E38D0521E39D0521E50
:104290003AD0521E3CD0521E3CD0521E3DD0521E2F
:1042A0003ED0521E3ED0521E3ED0521E40D0521E14
:1042B00040D0521E40D0921E40D0521E40D0521EBE
:1042C00040D0521E40D0521E40D0521E40D0521EEE
:1042D00046D0521E46D0521E46D0921E48D0521E84
:1042E00014D0521E42D0521E44D046E0C87842E05C
:1042F0001022A43130E01022B4312DE0C86A2860C9
:1043000042E00622C43127E0087934E0487932E0FF
:10431000C88B36E08A79CC311EE0CA79EC311BE0DB
:10432000087A28E0487A26E006224FF4867012E0E8
:10433000887A20E0C87A1EE0088C22E0087C20E021
:10434000488A1EE0888A1CE0C88A1AE0088B18E0B8
:1043500006224FF48A7001442846FEF769F813E0FC
:10436000488C0EE0888C0CE0C88C0AE0087B02E0E8
:10437000887800E0487B287006E0282803DA00F0FF
:10438000BAFD288000E00224204632BD1CB5DFF8CB
:104390001846A17881B900B1206304F12C00019086
:1043A00004F1B400009004F1A403E17860780022E5
:1043B00000F010FD002016BD112016BDDFF8E80545
:1043C0008178062918BF072904D1018C407813226F
:1043D00000F02ABD1220704700B58FB008233C22A0
:1043E00000216846FFF7A8F8DFF8C00500F150018A
:1043F000079100234FF4DC7108916A46032106916E
:104400000FF2D101FFF7EAFD0FB000BD70B584B027
:1044100000F019F90120DFF89815DFF88C450968DC
:104420000FF29155ADF802000026684688479DF8C6
:10443000040060700298A0620020A0704FF6FF7028
:10444000208400F076FD20700023012001900022DE
:1044500000200090294604F1380000F0A5FF02205A
:1044600000F02FF804F15C0000F09EFF042000F043
:1044700028F804F1800000F097FF0420E07004F1B8
:10448000A40200200021002300252BC204F1B40562
:10449000103A4BC5E06220726072E1720720A07290
:1044A0001021022000F016FF103D2A4610210320A3
:1044B00000F010FF04F12C020421042000F00AFF98
:1044C0007FBD019000230020009000222946704704
:1044D00000000000FEB5FFF799FFDFF8CC54DFF8CD
:1044E000D04405F1800700F0AEF80A20ADF80200D4
:1044F0004FF0FF30019068462168884700284BD173
:1045000000F0A1F80920ADF802006846216888474C
:104510009DF80610029E00283ED1BDF80400102828
:1045200004BF687881422DD130884FF6FF718842F0
:1045300009D17088400425D505F12C0204210420FE
:1045400000F0DDFE1EE03078A22805D0D02804BFA0
:10455000304600F07CF815E07079132812D13089CC
:10456000012804BFA87B022805D1384600F05EFF71
:10457000FFF724FF06E0052000F0BDFC01463846A9
:1045800000F038FF46B100F05EF80320ADF80200FD
:104590000196684621688847A88BC10730D54FF639
:1045A000FE710840A88329796879014328D018B1A1
:1045B00003208DF800000DE0287A8DF80000062217
:1045C000687A8DF801004FF4867029180DF1020009
:1045D000FDF72EFFA87A8DF808006946E87A8DF875
:1045E0000900687800F03BFC00281FBF0820A87075
:1045F000286B002804D0016808001CBF08208847E9
:10460000A88B810708D54FF6FD710840A88305F1F6
:104610001001002000F074F9A88B41070AD54FF66D
:10462000FB710840A883A87B012804D0022808BF9A
:10463000FFF7C4FE57E700902B8BEA8AA98A688AA5
:1046400000F093F94FE70820ADF800007047FEB581
:10465000D54DA9784FF48A730446EE18A27868798C
:10466000130005F1800715D0022A3CD0032A18BF99
:10467000042A5CD0052A00F07F80062A00F0AC8076
:10468000072A00F0CD800F2A00F0E580112A00F003
:10469000E780F7BD607801001AD105F1A40210216E
:1046A000022000F02CFE05F1B4021021032000F0DE
:1046B00026FE0622E11C05F1C400FDF7B9FE01202B
:1046C000A87005F1CC03AA796878012100F0CBFB32
:1046D00008B10820A870286B20B1016808001CBF31
:1046E000A8788847F7BD6278EAB9E27842B1EA79FA
:1046F000687805F1EC03002100F0B5FB607012E072
:10470000022918BF07290ED0062902D101280AD193
:1047100001E0032907D005F1380000F080FE10B950
:10472000012000F03AF960780028DBD0D1E7637807
:104730000BBB2B79032A08D1062908BF0720C9D053
:10474000002B0CBF03200220C4E7E98B0A0006D02F
:1047500018430AD005F1380000F04CFE05E0012BAB
:1047600007BF0020287100206871A878072814BFAF
:1047700004200620AEE7ACE76078010026D10622CF
:10478000211D3046FDF754FE608928840620A8705C
:10479000E0896884208AA884608AE884E0782873A5
:1047A000287C012818BF022809D11F2000F0A3FB94
:1047B0004FF47A71414305F15C0000F01BFE628901
:1047C000E0780423211D00F00DFA84E73128D2D1CE
:1047D0000020287104207DE7A08800F01AFA062145
:1047E000FFF738FD00206884A884E884A079687306
:1047F00005F15C0000F01AFE384600F017FE4FF697
:10480000FF702884687908B1032063E7A07908283D
:104810000CBF05200420A870012000F0BEF85AE764
:10482000384600F003FE6078002813D1E0886884E1
:104830002089A8846089E88405F15C0000F0EFFD20
:10484000002807D16B6B002B04D0EA8CA98C688CF4
:104850001B689847F7BDA088052100F027FBF7BD2E
:10486000A088ADF80000287C052803D100208DF831
:104870000A0041E001208DF80A0005F15C0000F01B
:10488000D5FD287C012818BF04281AD1688AE18840
:10489000814228BF0846ADF80200A98A20898842D3
:1048A00038BF0846ADF80400E98A6089884238BFFD
:1048B0000846ADF80600298BA08988421AD208461E
:1048C00018E0032818BF02280AD1688AADF8020050
:1048D000A88AADF80400E88AADF80600288B09E044
:1048E000E088ADF802002089ADF804006089ADF8D9
:1048F0000600A089ADF80800684600F091FAF7BDFF
:10490000FEB50F46284D7A880446688C904224BF35
:10491000B988814207D3A88CF988884202BFE88C05
:10492000398988421ED0052000F0E5FA0646288C19
:10493000ADF800007888ADF80200B888ADF8040042
:10494000F888ADF806003889ADF80800684600F030
:1049500062FA070007D1AC73314605F1800000F020
:1049600049FD00E018273846FEBD3EB50E4CA5783F
:10497000062D01D014203EBDADF80200ADF80410A4
:10498000ADF80620ADF8083004F15C0000F04EFDF3
:1049900006986946FFF7B4FF3EBD03498A8B104372
:1049A0008883886AFBF72ABED0040020F014002018
:1049B00094040020F1E70000E0B50821ADF80010F4
:1049C0000190022100F00FF808B100200EBD0298FE
:1049D0000EBD00B583B00821ADF800100190032191
:1049E00000F001F807BDADF802106846DFF8741357
:1049F000096808471FB5ADF806108DF804000824B3
:104A0000DFF860138DF808200393ADF80040ADF88F
:104A1000024068460968884704B010BD30B585B0CB
:104A2000144608220291ADF800201922DFF8341351
:104A300009680190ADF802201D466846884714B108
:104A4000BDF80C10218015B19DF80E102970089A40
:104A50000499116005B030BD00B583B00820ADF8F1
:104A600000001A2000F015F810B99DF804000EBDE2
:104A7000FF200EBD00B583B0ADF800008DF8061024
:104A8000002000F006F810B99DF807000EBDFF20C9
:104A90000EBDDFF8D0120968ADF80200684608477D
:104AA00050B110F1040F01D10420704710F1030F31
:104AB00001D102207047012070478123037042EA30
:104AC000C111002341F47C41C3708180704782236F
:104AD000037081800023C370827170473EB5044625
:104AE0000820ADF800000D462020ADF8020010208F
:104AF000DFF870120968ADF804006846884720B9ED
:104B0000029810B16FF004003EBD00950023002212
:104B100021464FF0FF30FFF781FF3EBD10B582B058
:104B20001446CA78012A03D18A88DFF844351A80EE
:104B300000F010F858B9009069462046FFF7CEFF04
:104B400028B900984478FFF744FF204616BDFFF7C8
:104B5000A7FF16BD0B46022210214BE738B51C46B5
:104B60001546FFF7F7FFC0B9009069462846FFF7E2
:104B7000B5FF90B900984578280002BF0098C07929
:104B8000A04205D10098816804982246FDF750FCA8
:104B90000098FFF71EFF284632BDFFF781FF32BDA8
:104BA000F8B500F084FA00F0C1F907000DD03246E4
:104BB0002946FFF78CFF00F04EF93872FFF74CFFE3
:104BC0003B4601B0BDE8F0405FE0F1BD102201219D
:104BD000E6E738B500F00FFA050002D00422012103
:104BE0004AE031BD2DE9F04100F064F907000FD033
:104BF000142200F019F83C72FD603E8287F81280A2
:104C0000FFF72AFF3946BDE8F041DFF8682485E761
:104C100025E038B500F02BF8050004D0152200F08F
:104C200003F82C812BE031BD012150E70022042143
:104C300083E02DE9F04100F03DF907000FD002229A
:104C400000F010F8BC60BD81BE73C7F81080FFF79C
:104C500003FF3946BDE8F041DFF81C245EE704207D
:104C6000BDE8F081042132E71022022198E70446D2
:104C70000A20A1E602212AE7FFF729FFAC60FFF72F
:104C8000EBFE2B4601B0BDE8304002221021B1E618
:104C9000F8B500F0AAF907000AD01522FFF7EAFFDD
:104CA00000F045FB3946BDE8F840DFF8D02335E792
:104CB0000420F2BD002203213FE000B583B00FF2D3
:104CC0004903019306230093032300F04DF80EBD22
:104CD0001078802802BF508840F27F61884208D156
:104CE0009088984202BF91790098814201D10120B9
:104CF00070470020704710B582B00624FFE700948B
:104D0000FFF7E6FF16BD00000323F4E710788028C4
:104D100002BF508840F27F6188420CD190880328FE
:104D200018BF042807D1907901001CBF1028112852
:104D300001D10120704700207047F8B500F057FA04
:104D400007000CD032462946FFF7C1FEBC60FFF7D2
:104D500083FE3946BDE8F840DFF82423DEE6042070
:104D6000F2BD0000940400202DE9F04100F02BF882
:104D700007000AD0069A4146FFF7A9FE3C817D81D3
:104D800000F0D7FA079A00F075BA68E704460D46B6
:104D90000C2011E6424603218FE670B582B000F088
:104DA00086F9FFF759FE1B2100910346324629463A
:104DB000204600F02AF976BD10B582B01D2400947B
:104DC00000F023F916BD04460D46164698461020FD
:104DD000FFF7F2BD2DE9F04180460D4616461F460D
:104DE0001820FFF7E9FD040014D0002200F069F854
:104DF00000F068FA20726572A672E760069820617A
:104E000007986061FFF728FE2146BDE8F0410FF2E8
:104E1000153283E623E70FF21133112200214AE114
:104E20000FF209331222F9E7F8B500F0E8F80700AD
:104E30000FD00A2200F045F800F00DF838727D819D
:104E40003E73FFF709FE3946BDE8F8400FF2E12254
:104E500064E60420F2BD21465020FFF70BBE0FF29E
:104E6000D523062238E12DE9F04180460D4616464D
:104E70001F461020FFF7A0FD040011D0072200F00C
:104E800020F800F01FFA20726572A672E760FFF743
:104E9000E3FD2146BDE8F0410FF29D22FFF73EBE43
:104EA000DDE60FF299230822002115E10FF291238C
:104EB0001022EBE004460D46164698461420FFF7F4
:104EC0007BBD0421FFF7F9BD70B5FFF75FFF06005A
:104ED0000BD03022FFF7F5FF00F009F83146BDE8AE
:104EE00070400FF26122FFF719BE042070BD3481BB
:104EF0007581FFF7B1BD30B583B004460020ADF831
:104F0000040000F013F805000DD03122FFF7D9FF9F
:104F10002C81FFF7A1FD01A9009102230FF22922A4
:104F20002946FFF71BFEBDF804003EBD0A20FFF72F
:104F300043BD1CB500F077F904000AD01222FFF738
:104F400073FEFFF789FD00F005F80FF2012200F073
:104F500018F813E001A90091012370471CB500F077
:104F600062F904000AD01822FFF75EFEFFF774FD15
:104F7000FFF7F0FF0FF2E51200F003F89DF80400D0
:104F800016BD2146FFF7EABD70B500F014F8060023
:104F90000BD01922FFF748FE00F009F83146BDE8B2
:104FA00070400FF2C112FFF7B9BD042070BD34810B
:104FB000F560FFF751BD04460D461020FFF7FCBC1D
:104FC000F8B500F012F807000DD03622FFF779FF90
:104FD0003C817D8100F0ADF93946BDE8F8400FF223
:104FE0008D12FFF79BBD0420F2BD04460D46164608
:104FF0001020FFF7E1BC04460C20FFF7DDBC04469F
:105000000D4616460E20FFF7D7BC2DE9F041FFF7FD
:1050100051FF070011D0069AFFF7BDFE3C813E7498
:10502000FD6000F04FF97874FFF716FD3946BDE8D2
:10503000F0410FF26D12FFF771BDFFF710BE38B5EA
:105040001446104A15682A0006D0009302460B4603
:1050500021460120A84732BD002032BD0A4A13680C
:105060001A0003D00A460146012018477047000085
:10507000D80A0020C1510000D1510000C7510000E2
:105080000D4D0000E8140020EC1400202DE9F04143
:1050900000F00DF898460C20FFF78EFC070004D0B6
:1050A00000F016F83C81BD72E1E0FFF7D8BD044680
:1050B0000D46164670472DE9F041FFF784FE0700C4
:1050C00004D000F005F8BC60FD60D0E0FFF7C7BD7C
:1050D00032460421FFF7F1BC2DE9F041FFF773FEE2
:1050E000070006D0FFF7F4FFFFF7B5FE3872FD604A
:1050F000BDE0FFF7B4BD1078802802BF508840F2B1
:105100007F6188420CD190884FF680710140B1F5E3
:105110007E4F04BF00F07F00984201D1012070470C
:10512000002070470023E6E71123E4E71223E2E7BB
:105130000A23E0E70623DEE70723DCE70823DAE7B4
:105140001023D8E73023D6E73123D4E780B51223E4
:1051500000930123FFF7BCFD02BD000080B51823BA
:10516000F6E7000080B51923F2E700003623C2E716
:105170001078802802BF508840F27F6188420DD1AC
:1051800090884FF6807101404FF68052914204BFE3
:1051900000F07F00984201D1012070470020704745
:1051A00070B5FFF784FF1D23FFF7E2FF30B93246E9
:1051B00029462046BDE870401B23D9E7012070BD79
:1051C00080B51423C4E780B5152300930223C1E7FB
:1051D00080B5022300930423BCE70FF20D0142F2D5
:1051E0002F000AE00000000042F22F0347E00446CF
:1051F0000D4616460C20FFF7DFBB70B504460D4682
:1052000000F014F806000CD081203070B48001202A
:10521000F070FFF721FC2A463146BDE87040FFF7E9
:105220007DBC042070BD00208DF804000820FFF72D
:10523000C3BB2DE9F041FFF73AFF98460E20FFF778
:10524000BBFB070009D000F00AF83D817E81A7F87A
:105250000C80FFF701FC069A0CE0FFF700BD8120EF
:1052600038700120F870BC8070473D81FE60FFF708
:10527000F3FB42463946BDE8F041FFF74FBC1078DA
:10528000802802BF508840F27F61884204BF908826
:10529000984201D10120704700207047000038B5C6
:1052A0000446154600F00FF80FF221010091C2B23A
:1052B0002B4621464FF61840FFF7BBFF32BD3C811D
:1052C0007D81BE8141465020FFF7D4BB4FF6184385
:1052D000D5E70000F8B5FFF788FE07000DD00122E2
:1052E00000F022F83C727D7200F023F83946BDE8E8
:1052F000F8400FF27902FFF711BC0420F2BDF8B5B7
:10530000FFF773FE07000DD0022200F00DF83C728B
:105310007D7200F00EF83946BDE8F8400FF25102F8
:10532000FFF7FCBB0420F2BD0521FFF7C6BB3C81A3
:10533000BD72FE60FFF790BB1078802802BF5088D6
:1053400040F27F6188420DD190884FF68071014014
:105350004FF68062914204BF00F07F00984201D175
:105360000120704700207047000000000123E3E7A0
:105370000223E1E7DFF800F0F5B80110DFF800F0F4
:105380002DBF0110DFF800F011BF011000B583B090
:105390000821ADF8001001900521ADF80210684613
:1053A00043490968884707BDF0B589B004460D46F2
:1053B00016461F460823242200216846FBF726F9DB
:1053C0000F983C49096806906B464FF47A70B0FB21
:1053D000F1F101FB07F0059001FB06F20E98ADF824
:1053E000100029462046FBF731F9204609B0F0BDF0
:1053F000FBF714B938B504460D46FCF7D0F910B1E7
:105400002046FCF7BEF900F013F800FB05F120463A
:10541000FBF700F92046BDE83240FBF7FFB880B546
:10542000FCF7BDF900B10120C0B202BDFCF7A9B97B
:10543000204909684FF47A70B0FBF1F0704710B55D
:1054400004460021FFF796FF204610BD70B584B0DA
:1054500004460820ADF800000D460420ADF8020017
:105460000C2013490968019016466846884758B9C8
:10547000029949B18E602046FFF780FF15B128469A
:10548000FBF7BCF8012003E03046FFF77FFF002068
:1054900004B070BD10B50446FFF774FFA04204D0FD
:1054A0008468FFF773FF204610BD002010BD000088
:1054B00094040020586F0000002200F001B80000A2
:1054C000401810F0030308D0C91A1FD3DB0748BFE8
:1054D00000F8012D28BF20F8022D130030B4144627
:1054E0001546103928BF20E93C00FAD8490728BFE3
:1054F00020E90C0048BF40F8042D890028BF20F89F
:10550000022D48BF00F8012D30BC7047C91818BFE4
:1055100000F8012DCB0728BF00F8012D70470000CF
:10552000DFF800F013C1011000B583B00821ADF819
:10553000001001900321ADF802106846DFF8B414A2
:105540000968884707BD00B58FB008233C220021B9
:105550006846FDF7F1FFDFF8A00400F15001079164
:1055600000234FF4217108916A46012106910FF240
:105570003521FEF733FD0FB000BD10B584B000F04B
:10558000FDF90120DFF86C14DFF870440968ADF80C
:105590000200684688479DF8040020700298A060C9
:1055A00004F13800FFF74BFFE06000230420019076
:1055B00041F288320020009004F114000FF2F5311E
:1055C000FFF7F2FE0020606006211F20FFF77CFC41
:1055D00001208DF801000DF101020020ADF80A0054
:1055E000012101208DF800005020ADF808004FF493
:1055F0004870ADF806000020ADF804004FF47A7052
:10560000ADF8020040F20530FEF7ECFC0DF10A02A5
:10561000022140F20630FEF7E5FC04F144021E21AF
:105620004FF44270FEF7DEFC04F16402072140F201
:105630000730FEF7D7FC6A4601214FF44470FEF7AD
:10564000D1FC02AA022140F21130FEF7CBFC0DF191
:105650000602022140F21230FEF7C4FC01AA022128
:1056600040F21330FEF7BEFC0DF1020202214FF4AE
:105670004570FEF7B7FC04F16C0215210020FFF71E
:105680001CFBA0210620FFF71FFCA0210720FFF72D
:105690001BFCA0210820FFF717FCA0210920FFF721
:1056A00013FC0020019001AA01208DF803008DF861
:1056B0000200042100208DF8010001208DF8000077
:1056C0004FF48160FFF77CFC0DF1030201214FF4E0
:1056D0008060FFF775FC0DF10202012140F20240EB
:1056E000FFF76EFC0DF10102012140F20340FFF7CC
:1056F00067FC6A46012140F20640FFF761FC4FF06B
:10570000FF30FFF7D7FA4FF0FF30FFF78FFA00F0C6
:105710007BF94FF0FF3000F081FA01208DF8030093
:1057200002208DF8020003208DF8010004200FF202
:10573000D0218DF80000D1E9002301A80121C0E9A2
:10574000002300200DF1030200F09AFA0DF102028D
:105750000121012000F094FA0DF101020121022043
:1057600000F08EFA6A460121032000F089FA01AAAE
:105770000521042000F084FA04F1900000F079FA89
:1057800004F18400FEF702FE04F18800FFF721FA1D
:105790002078FFF71BFA2078FFF766FAFFF71DFD68
:1057A0001FBD00002DE9F04E8EB0FFF7E6FE06AEFD
:1057B0004FF6FF7A914DDFF83C9214E0688841077C
:1057C00011D54FF6FB710840688005F11400FFF712
:1057D0000FFE02A9022000F08FFA20B902AA0121CF
:1057E000032000F04DFA00F0C9F80A20ADF80200DD
:1057F0004FF0FF30019000F0BDF80028DED1082006
:10580000ADF80C000920ADF80E0003A800F0B3F8C5
:105810009DF81220059F00286DD1BDF810000124CD
:10582000102804BF29788A4235D1388850451CD1C8
:10583000B87800072FD5286968B36978491C697062
:1058400000F1080201794088FFF722FA162818BFF4
:10585000042883461FD02869297840880022FFF752
:105860001EFD584600F08EF815E03878B02812D1A9
:10587000787816280AD178880822FFF710FD28B911
:10588000012000F07FF82F61002404E0397907F14E
:105890000800FFF7E3FB77B36CB33846FFF744FE2D
:1058A00029E006A94FF44170FEF7E0FC9DF81800CE
:1058B0008DF800006A4670788DF801000821B078F4
:1058C0008DF8020000208DF804008DF80300707937
:1058D0008DF8070030798DF80600F0788DF8050016
:1058E000002000F099F800F049F80520ADF802001A
:1058F000019400F03FF8E868FFF712FE00287FF4FB
:105900005DAFE868FFF7C6FD0400F4D020880128E9
:105910000AD00228E7D1A078002818BF0228E2D1D7
:1059200002A900F0E9F9DEE7A0780128B9D004283F
:1059300008D0052802D0062809D0D4E7142000F0AA
:1059400021F8D0E705F11400FFF770FDF6E705F147
:105950001400FFF74DFDFFF701FB504408A980B28A
:10596000FFF712FB0028BED0694640F21530FEF763
:105970007DFCB8E76846D9F8001008470820ADF864
:105980000000704710B51D4C22695AB120B1117941
:1059900002F10800FFF762FB2069FFF7C5FD002058
:1059A0002061607010BD014601200AE0014602201E
:1059B00007E0000011494A88104348808868FAF7D8
:1059C0001DBE3EB50446FFF7D9FF0D460420094928
:1059D000ADF80200019068460968884740B9029A0C
:1059E00032B11480957005488168C068FFF72EFDBC
:1059F00037BD000094040020281800207407002000
:105A000001020304050000000FF204237D48102268
:105A10001321FFF70EB900002DE9F04300240828F8
:105A200085B00E469146784F00F28A80DFE800F09C
:105A3000050C1824303C48537D00082E76D13246A0
:105A4000494607F1080076E0152E77DA152107F1AF
:105A50001000FCF729FD3246494607F110006AE0C4
:105A6000152E6BDA152107F12800FCF71DFD3246D3
:105A7000494607F128005EE0152E5FDA152107F18F
:105A80004000FCF711FD3246494607F1400052E064
:105A9000152E53DA152107F15800FCF705FD3246A3
:105AA000494607F1580046E0152E47DA152107F15F
:105AB0007000FCF7F9FC3246494607F170003AE005
:105AC000152E3BDA883715213846FCF7EDFC3246B7
:105AD000494638462FE00820ADF808000420ADF80C
:105AE0000A00039602A8DFF82481D8F8001088473E
:105AF000C8B9049DBDB1786807F1A00188420AD0F9
:105B00000821ADF8001001900521ADF8021068469B
:105B1000D8F800108847324649462846FCF788FCEA
:105B20007D603E700DE013240BE0072E06D1324657
:105B3000494607F1B000FCF77BFC02E0182400E0C6
:105B40000224204605B0BDE8F08300002DE9FE499F
:105B500090464A680A9C107852780B9D00EB022010
:105B60001F46002680B242F62322274B801A03EB01
:105B7000040C07D0401E052810D9801F1ED02638DF
:105B800029D03AE0092C28D2C4F10800854228BF68
:105B9000C4F108053D800CF1080129E0D1F80CB0F2
