:10000000F0420020998F000001CA011001CA0110BE
:1000100001CA011001CA011001CA011001CA011070
:1000200001CA011001CA011001CA011001CA011060
:0C00300001CA011001CA01103FCA0110F2
:10003C0021490868C2430A600A680242FAD1704733
:10004C001E490A68002AFCD1CA610860C8690028E8
:10005C00FCD00020C86148687047194801686FF0EF
:10006C000202114041F400710160032115488160C6
:10007C0041F2300141610121C160502141610121F6
:10008C00C1604FF4CA6141610121C16001607047D8
:10009C000D4802680A6082684A60C2688A60406BD8
:1000AC0020F0784040F08050C8607047704701469F
:1000BC001022064802F084B91010044000100440CD
:1000CC0000000460004104404C1300501800002153
:1000DC007047012070470000200000000A0000005B
:0800EC0078090020E91A000068
:100100003C0000000000000000000000340100007E
:1001100000000000000000000100000000000000DE
:1001200000000000000000000000000001000000CE
:0C013000000000000800000000000000BB
:10013C003400000000000000000000006801000016
:10014C0000000000000000000100000000000000A2
:10015C00010000000000000000000000080000008A
:04016C00000000008F
:1001700030000000000000000000000098010000B6
:10018000040000000000000001000000FFFFFFFF6E
:10019000FF00000001000000080000000000000057
:1001A0002C0000000000000000000000C40100005E
:1001B000040000000000000001000000FFFFFFFF3E
:0C01C000FFFFFFFF08000000000000002F
:1001CC0034050000E401000099A1011095A701106D
:1001DC00A5C2011009B2011045B8011000000000C1
:0801EC00000000002F000000DC
:1001F40028000000000000000000000014020000BD
:100204000000000000000000FFFFFFFF00000000EE
:080214000800000000000000DA
:10021C00300500003002000069C201106DC10110F0
:10022C001FC2011095BA0110000000000000000070
:04023C002D00000091
:10024000300500005402000075C20110A9B601106B
:100250009DBF011049B60110000000000000000021
:040260002E0000006C
:1002640024000000000000000000000080020000E4
:100274000000000000000000000000000800000072
:040284000000000076
:10028800240000000000000000000000A40200009C
:10029800000000000000000000000000080000004E
:0402A8000000000052
:1002AC00240000000000000000000000C802000054
:1002BC000000000001000000000000000800000029
:0402CC00000000002E
:1002D00000000000E0080020040000000000000012
:1002E000000000002000000070010000300000004D
:1002F0001C020000000900200400000000000000B3
:10030000000000000C000000300400001800000095
:100310004002000008090020040000000000000066
:100320000000000024000000480400001800000045
:100330000000000048090020040000000000000048
:100340000000000010000000A00100002C000000D0
:10035000CC01000050090020040000000000000053
:1003600000000000200000006402000024000000E3
:10037000FFFFFFFF700900200400000000000000E4
:100380000000000028000000880200002400000097
:10039000FFFFFFFF9809002004000000000000009C
:1003A00000000000580000003C0100003400000084
:1003B000FFFFFFFFA0090020040000000000000074
:1003C00000000000100000006004000018000000A1
:1003D000FFFFFFFFA809002004000000000000004C
:1003E000000000001C000000AC020000240000001F
:1003F000FFFFFFFFB0090020040000000000000024
:100400000000000038000000F40100002800000097
:10041000FFFFFFFF180A002004000000000000009A
:100420000000000054000000000100003C0000003B
:100430001800000000000000000000004004000060
:080440000800000000000000AC
:100448001800000000000000000000005804000030
:08045800080000000000000094
:100460001800000000000000000000007004000000
:0804700008000000000000007C
:0804780001000000F00000008B
:01048000007B
:040484000100000073
:0404880000000E0062
:04048C0000000F005D
:040490003200000036
:040494000100000063
:04049800E808002050
:04049C00000200005A
:0404A0000000000058
:0404A40001CA011078
:0404A8000000000050
:0404AC00000000004C
:0404B0000800000040
:0404B4000000230021
:0404B8001009002007
:0404BC00010000003B
:0404C00058090020B7
:0404C400080000002C
:0404C8000000000030
:0404CC00000000002C
:0404D0000000000028
:0404D4000000000024
:0404D8000000000020
:0404DC00010000001B
:0404E000B809002037
:0404E400060000000E
:0404E800010000000F
:0404EC00200A0020C2
:0404F0000000000008
:0404F4000000000004
:0404F80000020000FE
:0404FC0000000000FC
:020502002900CE
:020504000100F4
:020506002500CE
:020508002D00C4
:02050A002E00C1
:02050C002F00BE
:02050E000100EA
:0105100001E9
:0805140004000000D88F000074
:08051C000000000000000000D7
:0405240000000100D2
:0405280000000300CC
:04052C0087C401106F
:04053000380500008A
:040534003805000086
:0405380000000000BF
:04053C00900000002B
:040540009000000027
:0405440000000000B3
:04054800580900202E
:04054C00D989000049
:040550002000000087
:04055400B08F000064
:04055800BC8D000056
:04055C000DC30110BA
:04056000111A00006C
:04056400131A000066
:0405680099C801101D
:04056C009BC8011017
:040570000000000087
:0405740080040000FF
:04057800248D0000CE
:04057C003C8D0000B2
:040580000C8D0000DE
:0205840008006D
:0205860009006A
:02058800010070
:02058A0000006F
:01058C00016D
:040590000000000067
:040594000000000063
:04059800000000005F
:04059C00000000005B
:0405A0005D190000E1
:0405A4007D190000BD
:0405A80081180000B6
:0405AC00A71900008B
:0405B000C918000066
:0405B4009F1800008C
:0405B800FB1800002C
:0405BC00D31900004F
:0405C000518900005D
:0405C4009D8A00000C
:0405C800A18A000004
:0405CC000800000023
:0405D0002400000003
:0405D400180000000B
:0405D80028000000F7
:0405DC0020000000FB
:0405E0003C000000DB
:0405E4000C00000007
:0405E80034000000DB
:1005EC00DFF800F049C10110DFF800F019C201106A
:1005FC00DFF800F041AC0110DFF800F0CDA00110E5
:10060C00DFF800F085C10110DFF800F0C1C2011065
:10061C00DFF800F0E3BF0110DFF800F0CDC10110EE
:10062C00DFF800F03DC10110DFF800F0DDB2011081
:10063C00DFF800F085B00110DFF800F029AF0110F1
:10064C00DFF800F079B50110DFF800F0C1C101103E
:10065C00DFF800F009B70110DFF800F0D5C0011089
:10066C00DFF800F0E1B5011020B1082328220021A9
:10067C00FFF7D2BF704720B1082330220021FFF7CB
:10068C00CFBF704738B500F06FFE25680DB12968F3
:10069C002160FFF7A9FF284632BD70B504460D4610
:1006AC002668002028601EB9FFF79AFF25600DE030
:1006BC00FFF796FF00E0366831680029FBD1AE42A7
:1006CC0003D1FFF791FF002070BD3560FFF78CFF61
:1006DC00012070BD0022DFF8801C01EB4211CB7FA2
:1006EC001B0605D5B1F91C30834201D10846704771
:1006FC00521C082AEFDB00207047F8B500F034FEDE
:10070C000546DFF81C0AC17D0A001CD0491EC175C4
:10071C00C9B2C1B9DFF80C7A082107F14C0001F01D
:10072C0054F884B1B86B703001F025F8B86BDFF871
:10073C002C1CC0680968201A07F1EC0600F0B4FD07
:10074C003046FFF765FF2846BDE8F240FFF74CBF87
:10075C0010B50446207B00F00F00022802BFDFF822
:10076C00C009007D002817D100F0B4FCA1688908ED
:10077C00A1EB90006FF0704188420DDAB0F1704F30
:10078C00BCBFDFF8041B0818DFF89819896BC9681F
:10079C0001F57A71814200DB002010BD38B5DFF81D
:1007AC00EC0ADFF8EC2A0168DFF8784902EA010567
:1007BC00E9430160A90606D54068800603D54FF4CD
:1007CC00005100F090FB15F4602F0BD0A06905F4DC
:1007DC0060210843A061002104F19C00BDE8344075
:1007EC0000F0F3BF31BD70B5FFF7FAFEDFF8344906
:1007FC000646A06910F4602F27D0A069C5012D0E04
:10080C00E80748BF002506D4A80748BF012502D435
:10081C00680748BF0225681D40B200F0E2FEA069DF
:10082C00012105F1110291408843A0613046FFF788
:10083C00DBFE04EB85008668300009D0606800227E
:10084C004FF00063691DB04702E03046FFF7CCFE65
:10085C00A06920B1002104F19C0000F0B6FFE07FFC
:10086C0080070DD56569280006D0606800224FF01E
:10087C0000436FF00101A847E07F00F0FD00E07736
:10088C0070BD70B5FFF7D4FBDFF89858DFF8D04A8D
:10089C00AB6A024690071DD4D3E90401104007D07F
:1008AC00EB629969084398614FF4804100F0F8FCC1
:1008BC00A86A002849D16E6A002E46D0F068A96B50
:1008CC00884224D005F14C00BDE870404FF48051B3
:1008DC0000F07BBF0BB9A86AEAE70020A862D3E955
:1008EC0004019E69024042F0020232439A6162693D
:1008FC0082436261E26822EA0100E060194605F178
:10090C003000FFF7CAFE022100F0CAFCE3E7B06832
:10091C00FFF71EFFA86418B1A86CBDE87040ECE6A8
:10092C00D6E90401626902436261E26841EA0200AD
:10093C00E0600020E061B0682060E0690028FCD035
:10094C0005F12400FFF79EFEAE6270BD0020D4E6D8
:10095C00F8B506461446376E1D4607B1B847A007D2
:10096C0008D4D6E91601204029400022914208BF44
:10097C00904207D0C6E91A4506F13800BDE8F240AE
:10098C00FFF736BEF1BDFEE780B500F00EFFDFF8D5
:10099C0094270146906BD26BBDE80840104710B508
:1009AC00DFF880470FF23D01E06B884202D101F085
:1009BC0045F8206404F14C00BDE81040042100F01F
:1009CC0004BF80B5FFF734FBDFF89819084207D055
:1009DC00BDE804404FF00051DFF8A40B00F0F5BE69
:1009EC0001BD000038B5042951D1DFF83847606AE1
:1009FC00A16B08B1C16803E0E07FC00748BF616824
:100A0C00A1630846DFF8B42A41680B7813601268BA
:100A1C0009788A421CBF8569002D05D000224FF051
:100A2C0000736FF0FF01A847022001F04BF9112071
:100A3C0001F05DF9DFF8E8060121C176A16B407E7B
:100A4C00097C014204BF0E2001F051F9A06BDFF8C4
:100A5C00101940688268002A04BFC068002804D0BE
:100A6C000020C861DFF8C40A086040F2FF70DFF8AC
:100A7C00C02A106000208861DFF8E80848610FF296
:100A8C001100E0631920BDE83240FFF7CDBD31BD48
:100A9C002DE9FF418046880040F19780DFF88456AD
:100AAC00A86B40684068010018BF8047A86BDFF84E
:100ABC00B06840688168002904BFC168002912D061
:100ACC00F1690029FCD00021F1618068010018BF98
:100ADC008047A86B4068C068010018BF8047DFF8EA
:100AEC00A40AFFF7ADFA0020F06108F10807DFF85F
:100AFC00980A30600120FFF7EBFA00220FF21D106C
:100B0C00E86340F60A01DFF8180642800180027B98
:100B1C0002F0F002027300224260427B02F0F0020B
:100B2C0042F00102427300223C68628000E01446ED
:100B3C006268002A1CBF13888B42F8D1606040F6B3
:100B4C000302617B01F0F0016173696A89680988AD
:100B5C0091421CBF40F60402914217D0398BA9B1C7
:100B6C0000217983F96108F12C010A7802F0F00276
:100B7C000A704A7802F0F00242F001024A7008F161
:100B8C0020014160417B01F0F001417369463868F6
:100B9C00FFF77EFA6846FFF78AFA3868FFF786FA9D
:100BAC00F0690028FCD00020F061012001F052FB1C
:100BBC00012808D0607B00F0F00040F00100607369
:100BCC000FF20D00E86338683060BDE8FF8100006B
:100BDC00DFF84C0A014200D17047012010B501F03A
:100BEC0039FB0128DFF83C4508D10FF23100DFF862
:100BFC007017E063DFF82805086010BDDFF8241AD1
:100C0C0009683220EC34B0FBF1F12046FFF7FCFC14
:100C1C002046BDE81040FFF7FBBC00002DE9FE4369
:100C2C0006460D466804DFF8FC4417D5FFF7D8FCE0
:100C3C00E66AB769FFF7D8FCB8070CD45EB1B069A7
:100C4C00B843B061706830B1B6F91C10F0687668C2
:100C5C003A460023B04725F480453DE1A807DFF86C
:100C6C00C0747BD5266B002E70D0B168202001E0BB
:100C7C004968401E79B1C2B26AB10A8840F60303D2
:100C8C009A421CBF40F604039A42F1D1F068182234
:100C9C00203001F0A5FBB0690021B1617168E1B1B0
:100CAC0040F00202F07F002300F00700012807D07B
:100CBC00022809D0042804BF00224FF0805306E01C
:100CCC0000224FF0005302E000224FF08043B6F9AF
:100CDC001C10F068D6F804C0E047FFF781FC804692
:100CEC00E08E401CC0F30B00E086206BC17F01F04E
:100CFC007F01C17704F13000FFF7C4FC00F0EDFB7D
:100D0C00B4F93610F06800F19402B2F9003099424F
:100D1C0004BF397D002919D1917809B9016821B92D
:100D2C0000209070FFF7E9FC10E0A26B126812F142
:100D3C00010F0BD0DFF824261268B1FBF2F17030F2
:100D4C00FFF762FCF0687030FFF762FC206B002844
:100D5C0025F0020501D045F00205BDE0A80004F124
:100D6C00800840F6090957D5206CB8B1042001F071
:100D7C0071FA98B100F062FE216C814228BF401ECE
:100D8C00401A000B00F58D70F06040F2D761A0F2B4
:100D9C00EE20884224BF40F6C410F060002020648E
:100DAC00D6F818C0BCF1000F0DD0787B0F2108428B
:100DBC0004BF708C484506D100224FF000736FF4CD
:100DCC0080713046E0470022DFF85C18404600F0A6
:100DDC0021FDB87E50B10220ADF800006846FFF747
:100DEC002FF9BDF80800A0830020B876012084F804
:100DFC002000F87D401CF8750020F876192000F0D2
:100E0C000CFD77692FB100224FF080630021304632
:100E1C00B84725F000555FE0B87F25F0080620B1F3
:100E2C00280702D50020B87743E0280743D50020D7
:100E3C0084F82000012038770020FFF749F90FF2E1
:100E4C00B100DFF8E817DFF8D056E0630022404627
:100E5C0000F0E0FCB97E787E81F00101084202D1FD
:100E6C00012078760FE0A06CF8B100F0E7FD216C62
:100E7C00626C401A02EB10306064A16CB0EBC11FC5
:100E8C0013D300206064A7F80090787B00F0F0008A
:100E9C0040F00100787300207880387B00F0F0007F
:100EAC003873002078602F6003E04FF0005100F0A1
:100EBC001AF8354610E0A8040ED5A66A002E1CBF01
:100ECC007068002806D0B6F91C10F068766800220D
:100EDC002023B04725F4005515B1294600F003F83E
:100EEC00BDE8F783022104F14C0000F06EBC000059
:100EFC0070B50646880028D5FFF7AFF8894CDFF8A7
:100F0C003007874DE063687D18B906F13800FFF7AC
:100F1C006FFBDFF81C1600200860022000F068FE52
:100F2C00112000F079FE307C10B90E2000F074FE18
:100F3C000020A883287E40B100202876042104F1EB
:100F4C004C00BDE8704000F040BC70BD30B58DB0B9
:100F5C0000F0CFFDDFF8DC06DFF8DC460168714DF0
:100F6C0041F00201016001A8FFF77EFBA078DFF8D9
:100F7C00CC160790002301AA05F14C00FFF758FB93
:100F8C0001A8FFF778FB0020ADF81C0001AB20781E
:100F9C00DFF89826099019210020009005F18000B7
:100FAC00FFF74AFB01A8FFF75FFBE078DFF890162C
:100FBC000790002301AA05F19C00FFF739FB01A85B
:100FCC00FFF759FB0120ADF81C0001AB6078DFF88E
:100FDC00742609901A210020009005F1D000FFF72B
:100FEC002BFB00230022DFF8601605F1EC00FFF765
:100FFC0027FBDFF83C06E86301214FF6FF70A8835E
:10100C000DB0DFF8480681760021E9774176C1768C
:10101C0081838177296430BD2DE9F041404E04462F
:10102C00707D8EB00F4690461D4618B9FFF78EFFA7
:10103C0001207075002F1CBF6760B8F1000F47D0FE
:10104C00C4F80880FFF7CCFAB17D00293ED101210C
:10105C00B175FFF7C9FA35B909A80FF2206114224E
:10106C0001F0BEF909AD286820606868E060287A54
:10107C002074E86860612869010018BFA0617821BC
:10108C0004F1200001F0D8F908232422002168463D
:10109C00FFF7DAFA01208DF818006A46002104F1F6
:1010AC003800FFF7D5FA0823242200216846FFF701
:1010BC00A7FA06946B460022DFF8941504F1700031
:1010CC00FFF7BEFA20460EB0BDE8F081FFF78CFAB0
:1010DC000020F8E738B5FFF783FA124991F8201091
:1010EC0031B1DFF874150C68FFF77EFA204632BD7B
:1010FC00FFF77AFA00F0A2FC10F50030DFF85C255F
:10110C0041F10001A2FB0045054802FB01550169B4
:10111C000020221845EB0103184632BD00000000E8
:10112C00F4160020E41500202DE9F84F80460C46FB
:10113C0092469B46FFF754FADFF818558146B5F9ED
:10114C003400B5F93610401AC0F30B0008286FF0C4
:10115C00010648DAA88E401CC0F30B00A886B5F92E
:10116C003400ADF8000000207B4901EB4017F97FFB
:10117C00090604D5401CC0B20828F5DB002708F18D
:10118C00700000F0F8FABC6087F81EA0C7F804B035
:10119C002021BDF80000B883C7F80C80DDE90A23D4
:1011AC00DFF8BC0410401940C7E9040108F19404AD
:1011BC000020F87740F6FF78686A0028394605F178
:1011CC00240008D0FFF769FA40B1BDF8000000F028
:1011DC0061F848464BE0FFF760FA48B9A88E4044E6
:1011EC00C0F30B00A8864846FFF7FEF9304649E0ED
:1011FC00BDF80000DFF8546400F04CF80020A0703B
:10120C0095F82010707F084207D00120B07700209D
:10121C007077B076F07D401CF0754846FFF7E4F926
:10122C00A86A68BB95F8200018B1192000F0F5FAEF
:10123C0026E0F07E20BBFFF7D3F90446307F10B1D7
:10124C000120307612E0B868FFF782FAA86488B102
:10125C00A86CA96BC968401ADFF8C813096805F1B6
:10126C00EC0600F021F83046FFF7D2F92046FFF7E4
:10127C00BBF905E02046FFF7B7F9042100F010F8A0
:10128C00BDF90000BDE8F28FF6FFFF1F0810044007
:10129C0020000E002080F87F40F08000F877704727
:1012AC0005F14C0000F091BAB0FBF1F13046FFF7BC
:1012BC00ABB92DE9F04106460F4614461D46FFF723
:1012CC00CBF980463846FFF705FA070003D14046B4
:1012DC00FFF7C6F90AE0F87F0721084209D040461B
:1012EC00FFF7BEF90721F87F0842FCD1022000214C
:1012FC0014E07968DFF86C03814202D079683166BA
:10130C007860C6E916454046FFF7AAF94FF0FF3161
:10131C0006F13800FFF770F9D6E91A01BDE8F08143
:10132C00DCB5DDE906670446CDE90067180008BFA7
:10133C00DFF830332046FFF7F7FE002803D50020F6
:10134C004FF00041DCBD0146204602B0BDE8D04064
:10135C0002224FF0E043ACE7C80B0020E80000008D
:10136C0000100440020000400446FFF739B901E0C8
:10137C0042F002022DE9F843DFF8D842606A00908F
:10138C00894603271546FFF72BF919F1010F05F0D4
:10139C00010680460AD1A06A002819BFA06AB0F9DC
:1013AC001C90E08E00F101090020E0770FFA89F023
:1013BC00FFF790F901007CD0A06A814205F002058C
:1013CC0025D1280003D0606A0090002060620122C1
:1013DC00C87FB2401043C877FFF73EF90746002E8E
:1013EC0014BFDFF88402DFF88402FEF729FE00F058
:1013FC0074F825B906E000F063F800F069F800987D
:10140C000028F8D13846FFF72BF9832753E0009AD0
:10141C008A4204F1EC0016D100F0ADF9280012BF9D
:10142C000020606A0068606200F057F8009800F0D5
:10143C0047F800F04DF8009818B32800F6D120E0DA
:10144C00009A12680092009AEAB112688A42F7D1A7
:10145C0000F091F9009800681DB1009A002111600C
:10146C0004E00168009A116000210160009003E023
:10147C0000F026F800F02CF800980028F8D100F0C5
:10148C002CF8832701E000F028F8DFF8C001C17EBA
:10149C0011B1FFF727FD0EE0007F60B9DFF8D00136
:1014AC00E063FFF71FFD94F8200020B96048E0636B
:1014BC0001E000F012F83846BDE8F283D021084074
:1014CC00C07F009940F00400C8776846FFF7DAB88F
:1014DC00014604F13000FFF7E0B84046FFF784B84E
:1014EC0038B5FFF741FF05465A4890F8200068B11F
:1014FC002046FEF7A5FD044600F048F804F0FF0076
:10150C00012801D1812032BD022032BD00F03EF80D
:10151C00012032BD00000000001004400A464D4975
:10152C00896B884201D0032070470AE051000706FE
:10153C00000004600A464749896B884201D00320A9
:10154C00704700211046CBE770B542498A6B904238
:10155C006FF07F0412D191F8200078B1FFF740F8BA
:10156C0005464448FEF76CFD064600F00FF806F001
:10157C00FF00012802D13002001670BD204670BD5C
:10158C00301600200100070601010E042846FFF763
:10159C002BB870B50E461546FFF722F883242D495B
:1015AC001EB1022E0DD004D30FE08A6A3AB1896ABB
:1015BC0002E0264A927E12B9898B298006E08024AB
:1015CC0004E091F82010297000E00324FFF70CF8D8
:1015DC00204670BD80B50846FFF77CF800B18068E6
:1015EC0002BD38B5FFF7C0FE1A49CA7F520702D5B3
:1015FC008B7F9C4210D001228B8B02FA04F52B437B
:10160C008B830C341C490B68A24023EA02020A604B
:10161C00096809B90D4A1175BDE83240FEF7E4BFFF
:10162C0004000020E80000008F080000CF09000033
:10163C00F109000000200940F48C0000950900001D
:10164C00F3070000A9070000AB090000F416002006
:10165C0059090000E41500200430044000093D0045
:10166C00F1EFFF9F5D09000001000204010001047D
:10167C00290C0000010003040C100440FFFFFFFFC5
:10168C00C4090000010000000000000093090000E4
:10169C00DFF800F021B30110DFF800F095C0011065
:1016AC00DFF800F00DA80110DFF800F0BDBE01104E
:1016BC00FEE7DFF80001007D70476DE038B5FFF7FD
:1016CC00FCFFDFF8F8500446A8680021FFF7E4FFA0
:1016DC006969081AA969814238BF002084F311880E
:1016EC0032BD2DE9F041FFF7E8FFDFF8D05004469A
:1016FC00A8680121FFF7D0FF0121A9830021E9830C
:10170C006E6929682A68871B801A711A884204D26C
:10171C000020A88384F311882BE084F31188002423
:10172C0006E0A61931460120FFF7BAFF3F1B04461D
:10173C00A742F6D2FFF7C1FF8046E88B012804D1FF
:10174C0031460020FFF7ACFF0446A96914F1010FE4
:10175C0008BF084603D0E01B814238BF08468119F8
:10176C00FFF7A2FF012028840020A8832E6088F3B5
:10177C001188BDE8F08100218182DFF83C10C0683F
:10178C004969884204D1DFF85C000068FEF740BF6D
:10179C007047808A70477047DFF84C100968EFF388
:1017AC00118081F311887047F6E7DFF840008068FC
:1017BC0070470000A401002078010020780100206F
:1017CC00616280F311882046704738B504460D4697
:1017DC00FFF7EAFF616A2943FFF7F2FFBDE83240E9
:1017EC00FFF756BFEC000000E4000000C801002029
:1017FC0010280ED3A0F11002DFF83010520901EBC3
:10180C0082011038012200F01F0002FA00F0C1F82A
:10181C0080027047816042607047102804D3DFF863
:10182C000C101038C1F8000F7047000000E000E009
:10183C0000F006BEFFF7B0BFDFF89811C20744BF37
:10184C0001220A60820744BF4FF480720A6040078D
:10185C0044BF4FF4803008607047DFF87C21C30729
:10186C0048BF1160830748BF5160400748BF916073
:10187C007047000010B504460020D4E90A2347F64F
:10188C00906101F0D7F80123994228BF4FF0FF3047
:10189C0010BD10B50C4600F0C7F8011D201AB0F1B0
:1018AC00004F05D8081BB0F1004F38BF8C4200D256
:1018BC000C462146BDE810400120CEE72DE9F04151
:1018CC0080460A46D8E90A01D8E90C45A0FB026714
:1018DC0001FB0277A6196F41340C002244EA074140
:1018EC004046FFF7D6FFC8E90E67BDE8F081F8B5B2
:1018FC000646FFF79FFF0446DFF8E050DFF8E07084
:10190C000120E861FFF798FFF96A096A14208847FB
:10191C003069B0F5802F34BF0421010C0120FFF792
:10192C009CFF3A681268232100209047DFF8B4101E
:10193C0001200860DFF8B400016821F4E02141F4D3
:10194C00803101600120286084F31188F1BD000012
:10195C0000F074B810B5DFF89000446800F006F899
:10196C006069A169BDE8104008470000012063E7E9
:10197C00F8B504460D4600F061F8D4E90A67324622
:10198C003B4601F057F83DB1A6FB002306FB0133A3
:10199C0007FB0033C4E90C23F2BD10B5DFF83C00A3
:1019AC00DFF84C40002101600121C16121602068F9
:1019BC00FFF7DCFFDFF848100968096A1420884734
:1019CC00206810BD000080B500F038F8000C40EA2B
:1019DC00014002BD042009401820094000002443A6
:1019EC008401001080022443E401002000200940FF
:1019FC002C200940DFF81000C08870470000000060
:101A0C00B0010010FEE77047F00100208268521C04
:101A1C008260426832B10268531C036011704168E5
:101A2C00491E41607047000009480168426803681C
:101A3C009942FAD1100C40EA0140704710B5044AA3
:101A4C00136850681468A3421946F9D110BD000000
:101A5C0008200940DFF800F0F5C00110DFF800F0B5
:101A6C0049BA011020B1082324220021FEF7C8BD79
:101A7C00704780B50120009009234FF400720021BB
:101A8C00DFF8F00601F093F801BD80B500230122C8
:101A9C003421DFF8E00601F09DF800B10120C0B25E
:101AAC0002BDDFF8D40680687047DFF8CC1640180A
:101ABC0090F8ED0070470022022904D1012806D1CC
:101ACC0040F2EE2203E0012808BF4FF47A72104670
:101ADC007047DFF8A406D0F8DC007047DFF89806F2
:101AEC0090F8E61021B1D0F80C01010018BF0047A6
:101AFC0070472DE9F041DFF8808608F1E1058AB0E6
:101B0C00A879002861D10120A871DFF87066DFF890
:101B1C007076307B68717068C8F80C0101A8FFF70B
:101B2C00A1FF00200690ADF81400079001AB002235
:101B3C000FF2DD4108F10C00FEF782FD01AB002233
:101B4C000FF2895108F13000FEF77AFD01AB00224B
:101B5C000FF2C14108F15400FEF772FDB16801208B
:101B6C008847DFF8200600787868C0F38154707BD2
:101B7C0020B1032C02D10120287003E0032C18BFE4
:101B8C00022C16D1022000F09DF8032CDFF8F8157A
:101B9C000CBF4FF47A7042F210700968B0FBF1F18F
:101BAC0008F15400FEF730FD08F15400FEF730FD4B
:101BBC0005E0012C03D100F057FAFFF75AFF386803
:101BCC0040075CBF002000F07DF80AB0BDE8F08152
:101BDC0010B508B1140001D1022010BD8160C260A3
:101BEC0003610146DFF8900501F00EF8002010BDEE
:101BFC0010B50446FEF7F4FCDFF87C15621892F879
:101C0C00E8305B1E82F8E830DBB223B98A68012326
:101C1C00A3409A438A6066E02DE9F0410546FEF741
:101C2C00DFFC8046DFF85015681890F8ED20521E46
:101C3C0080F8ED20D2B2002A3FD10FF28850DFF8A5
:101C4C004C4500EB85052E786F88300615D521683C
:101C5C00096A384688472168896A38468847216866
:101C6C00096B38468847DFF8281501200860DFF833
:101C7C00240500688007FAD512E0700606D501EB42
:101C8C0087010020D1F80011884709E02168896993
:101C9C00384688472168496B384688470228F9D16D
:101CAC0006F03F003F2818BFFFF7B6FF687800F03A
:101CBC003F003F2818BFFFF7AFFF4046BDE8F0419B
:101CCC00FEF792BC10B50446FEF78AFCDFF8A814A8
:101CDC008A680123A3401A438A60611891F8E820AE
:101CEC00521C81F8E820BDE81040FEF77DBCF8B529
:101CFC000646FEF775FC0446DFF87C54701990F824
:101D0C00ED104A1C002980F8ED2039D10FF2B440B7
:101D1C0000EB8607387800F03F003F2818BFFFF72C
:101D2C00E6FF787800F03F003F2818BFFFF7DFFF91
:101D3C007E883878DFF8547401060ED53968C96985
:101D4C00304688473968496A304688473968C96AD5
:101D5C003046884700F019F812E0400606D505EB2E
:101D6C0086010120D1F80011884709E039684969DA
:101D7C00304688473968496B304688470128F9D185
:101D8C002046BDE8F240FEF72FBCDFF8041401201A
:101D9C000860DFF8000400688007FAD570472DE969
:101DAC00F04F002483B04FF0000A0128D04618BF32
:101DBC00012664D1DFF8C093D9F8DC0001285DD18D
:101DCC000220C9F8DC00FFF745FE0090012000F06E
:101DDC0056F9060054D1FEF73FFCDFF8C013019012
:101DEC000C60012000F036FA012804D1002000F02C
:101DFC009BF94FF0010ADFF8A813DFF89C030C6085
:101E0C0000681120FFF751FE08B14FF001081020B7
:101E1C00FFF74BFE08B148F002080F20FFF745FE14
:101E2C0008B148F004080B20FFF73FFEDFF85C63B5
:101E3C0020B13168096B4FF4806088470A20FFF7A6
:101E4C0034FE20B13168096B4FF481608847DFF8AC
:101E5C004013DFF85073DFF850B30120086048F0EE
:101E6C002000316889698847DFF840130120086039
:101E7C0099F80800C00707D5012416E0042673E082
:101E8C000120C9F8DC006CE0584600F0D1FE054694
:101E9C00042DF9D0012D04D1326A52680321584621
:101EAC0090473868800880003860002000F0C8FE39
:101EBC00B94800683068806B804754B9012D04D153
:101ECC00326A5268012158469047386840F0030046
:101EDC0038600120B249086040463168496988473A
:101EEC000B20FFF7E2FD20B13168C96A4FF4806026
:101EFC0088470A20FFF7D9FD20B13168C96A4FF431
:101F0C0081608847A249012008600020A749086029
:101F1C000320C9F8DC003168496B4046884701282A
:101F2C00F9D1042000F0ABF89C49012008609A48D4
:101F3C0000689F4800688006FBD5BAF1000F1CBFF3
:101F4C00012000F0F1F800F0C7FF082000F097F82E
:101F5C0006460120C9F8DC000198FEF781FB00F071
:101F6C003FFF0098FFF77AFD3046BDE8FE8F30B595
:101F7C00002401288BB004D021D303281DD018D302
:101F8C001DE001A8FFF76EFD7B4D8A490694ADF864
:101F9C001440079401AB012205F17800FEF750FBC9
:101FAC0000940023844A2C2105F19C00FEF744FB8D
:101FBC0005E000F0ADFF044601E001F04FF82046CB
:101FCC000BB030BD00F053B938B5FEF709FB054630
:101FDC00694890F8E000012410B1FFF756FD044663
:101FEC002846FEF701FB204632BD38B5FEF7F8FA5D
:101FFC00614D044695F8E00020B100F07FF9002017
:10200C0085F8E0002046BDE83240FEF7EDBA00004E
:10201C007047000010B582B0042000F01BF90228B4
:10202C0018BF032807D100F01FF8FFF722FDBDE809
:10203C0016400220DCE56148534900684E4CC0F361
:10204C00815003280CBF4FF47A7041F28830096834
:10205C00B0FBF1F104F15400FEF7D6FA04F1540090
:10206C00BDE81640FEF7D4BA032000901C234FF0B5
:10207C00405200213F4800F09ABD0020704770B5D7
:10208C0004463D4E304600F0B5FD002598B930466B
:10209C0000F0B6FD0646B068204207D03269F368FE
:1020AC000021204698470546012D05D0304600F00A
:1020BC00A9FD0600EFD1284670BD414901280CBF8F
:1020CC0040F2FF70002008600020704770B5FEF7EA
:1020DC0087FA294E294D044696F8E00028B100F005
:1020EC000DF968B1002086F8E0000220AD68A84721
:1020FC0006461020FFF7C3FF8EB10320A8470EE061
:10210C00214909683220B0FBF1F101B9012106F136
:10211C003000FEF779FA06F13000FEF779FA204626
:10212C00BDE87040FEF760BA38B501281ED100F04A
:10213C0091F801281CD000F0D7F80F4C124901205F
:10214C0084F8E00032200968B0FBF1F505B90125EF
:10215C0004F13000FFF70FFB294604F13000FEF7C5
:10216C0053FA04F13000FEF753FA01E000F0E8F8FE
:10217C00002032BD00A00C40A00A0020E48C00001E
:10218C00B03F005042230020E8000000B8010010CE
:10219C0028200860282008402C2009400C400940C9
:1021AC0000022243242208400040034080010443E3
:1021BC0014100940A5310000752F0000B43F0050E9
:1021CC00000004608F3F00008F3F01008F3F020032
:1021DC008F3F0300903F00018F3F0101903F0002B1
:1021EC00903F00038F3F01048F3F00058F120804BE
:1021FC008F3F00048F3F0006513F00007F3F0100DE
:10220C003F3F04003F3F02003F3F01007F3F020081
:10221C0070B50446E00782B00D46624E05D5A8B2F3
:10222C0000900023012200F011F8A00705D5A8B2F8
:10223C0000900123022200F009F8600705D5ADB229
:10224C00009502230C2200F001F873BD00213046EA
:10225C0000F0ADBC0146042907BF1D234FF0C0425E
:10226C001C234FF080524F48342100F0B3BC38B5DA
:10227C000546FFF7D9FB4C4CA168401A4FF47A7114
:10228C00484305EB104501F05DF82169401A48BF41
:10229C00404240F6B9318D4207D2062805DAA068D3
:1022AC00E168814201D322685AB940494A68D20791
:1022BC004FF4FA6017D4086800F0FF007D21484302
:1022CC0008E0081A3A494843000C00EB9000904291
:1022DC0038BF1046C82801D2C82032BDB0F57A6F7D
:1022EC0088BF4FF47A6032BD80B501210320FFF71F
:1022FC008FFFFFF799FB2C49886001BD80B5012049
:10230C00FFF7A8FF012819D000230122342125480A
:10231C0000F060FC98B100F026F8FFF785FB22492D
:10232C008B680A68C860A2EB9202C01A204B584313
:10233C00000C0860904238BF10460860012002BDB6
:10234C0010B500210320FFF763FF0120FFF782FF88
:10235C0008B100F008F8144CFFF766FB606000F061
:10236C00F1FF206110BD1348006800F0FFBF10B5ED
:10237C0011490A6811490968140424161B3844438E
:10238C00E41004EB2244120600FB00F312160906BB
:10239C005A435843091604EBA222484302EBA040CF
:1023AC0010BD000000A00C4020230020AC3F0050CA
:1023BC0040420F008000001090130050A4100050F9
:1023CC0062B38B0708D0521E11F8013B00F8013B99
:1023DC0000F024808B07F6D1830740F0208000BFEB
:1023EC00103A07D330B4B1E83810103AA0E83810DE
:1023FC00F9D230BC530724BFB1E80810A0E808108C
:10240C0044BF51F8043B40F8043BD20724BF31F8D9
:10241C00022B20F8022B44BF0B7803707047083A4C
:10242C0007D3B1E80810083A40F8043B40F804CB55
:10243C00F7D25307E4E70000002200F0B3BF00001E
:10244C0010B5DFF82405046814F1010F08BF00244F
:10245C0001F02AF8DFF81415002008600120DFF8DD
:10246C0010150860DFF80C15086000F04CFADFF866
:10247C000805006828B1DFF804050068204600F064
:10248C0022F8DFF8FC14DFF8FC2400200860DFF8E9
:10249C00F80401686FF31B4111430160DFF8EC0491
:1024AC000168C1F30131012907D10168DFF8E0248B
:1024BC00114041F4003202600160DFF8D80400687A
:1024CC000028FAD110BD70B50546DFF8CC04012107
:1024DC000160DFF8C81409680029FAD0DFF8C0449D
:1024EC00DFF8C024C02121605368DFF8BC149B07BF
:1024FC005DBF13681B0C43F0F00372230B700021BB
:10250C0001639668304600F031F83146284600F0F9
:10251C0061F8DFF89804816D89B240F20F22914284
:10252C0014D201680068C1F30361C0F3034001B128
:10253C00491E072805D006280EBF0720801C00F076
:10254C000F0041EA0010DFF868140870304600F004
:10255C00B2F8DFF860140968C96802208847402087
:10256C0020600120DFF85014086070BD10B50446DF
:10257C00DFF848040068C0F3046000F0C0F92117CC
:10258C00491C08181628A8BF152004DA6FF0090199
:10259C008842B8BF084600F01F00DFF8241440F44E
:1025AC00F8500880DFF81C04006880074FBF44F027
:1025BC0040640020DFF810140860DFF81004C4F346
:1025CC00C06181F001010160C4F3806181F00101FF
:1025DC00816010BD70B5054682B0084600F0F0F879
:1025EC000246DFF8EC43182100F062F800F014F911
:1025FC0080B20090002340F2FF322C21204600F0E4
:10260C00D6FADFF8D063F068C0F30D021C2100F09D
:10261C004FF8706800F0FC32142100F049F8306873
:10262C00DFF8B413DFF8B46301EA0002102100F004
:10263C003FF8284600F0FAF802460C2100F038F872
:10264C00284600F01EF9400040F020003072284669
:10265C0000F020F940F010003072284600F023F909
:10266C000246282100F024F8284600F001F9400029
:10267C0040F06000F072284600F02FF9C00040F0E6
:10268C0080003070284600F031F98000DFF85013DC
:10269C0040F47C400880284600F012F902460821DC
:1026AC0000F006F8DFF83C134FF48000086073BDAF
:1026BC00204600F077BAF8B5810C01F0030101292E
:1026CC00C94CC84D02D002292AD026E0216A8A03BF
:1026DC0023D44FF480422A606FF08F06C34AD2F89D
:1026EC00023033404E0A06F080063343C1F3033602
:1026FC003343C2F80230C1F30326D2F801301B0970
:10270C0046EA0313C2F801306FF0E7061368334052
:10271C0001F0E7011943116002E04FF0004129601C
:10272C00B34EB44AB16809075CBF4021A9624FF4AB
:10273C0000712964800D216AC90C01F0030141F07C
:10274C00300110F00300117003D0022826D008D3FA
:10275C0026E001210420FFF75BFDA74800F0F4F808
:10276C0022E00120FFF776FD074639460420FFF7EB
:10277C004FFD0420FFF76EFDB842FAD1366826F003
:10278C007F4000F0E1F89D4B1B681B684FF0602206
:10279C000721300E98474FF480602860032100E039
:1027AC0002210420FFF734FD2068954900F03F001A
:1027BC00087047F618009349088093480068F1BDEB
:1027CC0092490968C1F383628303C1F38F2120D43A
:1027DC00000400164FF6FF7307E0490804D11946B0
:1027EC00520804BF01220121401C0028F5D4012805
:1027FC000FDB490041F00101B1F5803F21BF012100
:10280C00520042F00102102A24BF0F221946401E2A
:10281C00EDE741EA024070477C480168006800021D
:10282C00C1F3870100F440700843704730B55D4C2C
:10283C0077490A686568ED07C2F30351C2F3034395
:10284C000AD42468250501EB2571240481F30401C5
:10285C0003EB247383F304031B0443EA015193B287
:10286C001943222824BF02F080400143084630BDA2
:10287C000021202803D367480068C0F301510846A3
:10288C0070470121222803D363480068C0F300710C
:10289C00084670470121222803D35F480068C0F323
:1028AC004071084670470021202807D3594800681A
:1028BC00C10C01F44071C0F38450014308467047C9
:1028CC002028564907D35348554A0068810A02EA22
:1028DC00003040EA8151084670470021222803D37A
:1028EC004D480068C0F3C06108467047002122289B
:1028FC0003D349480068C0F3455108467047162871
:10290C00A8BF20387047234800680028FBD14548F1
:10291C00454A416812688908890041F0005141F02C
:10292C000401520748BF41F001010BD4026812F0B8
:10293C00030F07D041F003024260026802F0030269
:10294C00032AFAD141607047384982B20A60C0F359
:10295C000740486001208860354800680028FBD09B
:10296C0000208860704700001C13005084046042F3
:10297C005C600C4008220443800128430001204382
:10298C008C21084000003901482003400400094014
:10299C00FFFFFCFC0C00684210100940940222431B
:1029AC0000600C40AC3F005056620840BC12005016
:1029BC0002600840A001001094046042B81200505C
:1029CC006E6208400000094094042A430000204332
:1029DC0000A00C4070130050FFFFFC0041A10C4004
:1029EC00DCA10C4040A00C406C1300500A60084065
:1029FC00A83F005008A10C40BD378600B401001060
:102A0C000BB00C4070B00C402C20094050130050FF
:102A1C0078130050981300508C13005000803F40E6
:102A2C0000F03F0000400340B03F00503C600C40C1
:102A3C0084088C431B4213D1094236D12AB18446F7
:102A4C00B0FBF2F002FB10C2704700F037BDFCD3B4
:102A5C000022002370470B00020000210020704769
:102A6C00904271EB030CF6D370B5B1FA81F4B3FA62
:102A7C0083F52C1BA340C4F1200532FA05F6334331
:102A8C00A2405FF00046E64002E05B085FEA3202DB
:102A9C00841A71EB030524BF204629467641F4D3F2
:102AAC0002000B003000002170BD012ACFD970B597
:102ABC00140C20D0B1FA81F4B2FA82F5C4F12004DE
:102ACC006419B4F12006D6D3B2405FF00044F44050
:102ADC00002502E052085FEA3303C61A71EB020EBE
:102AEC0024BF3046714664416D41F3D302000B00A4
:102AFC002000290070BD0C46B1FBF2F102FB114520
:102B0C002D0445EA1045B5FBF2F402FB145580B2D6
:102B1C0040EA0545B5FBF2F002FB105240EA0440D6
:102B2C0070BD000070B504460D46164600F0D0F995
:102B3C00401E8041C00F1A490A68002AFCD0012EA1
:102B4C0002D0022E02D003E0257002E0258000E0C6
:102B5C00256001220A6000281CBFBDE8704000F00F
:102B6C00BBB970BD38B504460D4600F0B1F9401E36
:102B7C008041C00F0A490A68002AFCD0012D02D0FE
:102B8C00022D02D003E0247802E0248800E02468BF
:102B9C0001220A6008B100F09FF9204632BD000006
:102BAC0000800C400B46114604221818BAE710B5E9
:102BBC0000EB4100102B144600F5007002D3103BC3
:102BCC00001D240C0299994041EA0441BDE81040D3
:102BDC000422A7E738B51D460818102D144602D359
:102BEC00103D801C240C0221FFF7BCFF204080B25A
:102BFC00E84032BD006800280CBF0120002070475F
:102C0C00006870470068704738B504460D4600F000
:102C1C0056FC00212960616869606168002914BF55
:102C2C000D6025606560FFE7BDE8324000F049BCEF
:102C3C00006801074CBF042000F00300704700003F
:102C4C002DE9F84F06469348934C0068934D800746
:102C5C0004D50820A87192482060BFE000F072FBF8
:102C6C0080469048006800900027001700F1010989
:102C7C000098800208D4C8F13E00C0100928A8BFF3
:102C8C0008208145B8BF814687480068C0F30460BE
:102C9C00FFF735FE824685480068C0F30440FFF715
:102CAC002EFE09EB0A011629A8BF152104DA6FF0D4
:102CBC0009029142B8BF114601F01F027C4B42F44D
:102CCC00F8521A807B4A126812F0030F18BF0127C2
:102CDC00520748BF47F002070EB147F0040795F9B9
:102CEC000720A8EB0202052A02DAAA7997425DD0E6
:102CFC00A8F10F0C0026BCF1000FB64607F001023C
:102D0C0007F00403DFF8B09123D40CEB0C1C4FEA52
:102D1C002C2EBEF1080F28BF4FF0070E7646072E5B
:102D2C0028BF062609EB860A59F82660DAF804A0B3
:102D3C00AAEB060A0AF0FF0613B1CAF3072B5E448E
:102D4C005FEA877B44BFCAF3074B5E440AB106EBCC
:102D5C001A6659F82E9009F0FF0A13B1C9F307232C
:102D6C009A44BB0744BFC9F307439A440AB10AEB20
:102D7C00196A401AACEB0E220099AF717243803283
:102D8C000128B8BF0120342301F0FF0158430AEB9E
:102D9C0012224843B0FBF2F0B0F5803F28BF4FF64B
:102DAC00FF7008F30708A88085F80780434800687F
:102DBC00A988286000201F2904D21F21A98004E0C3
:102DCC004908401CB1F5007FFAD20F39090940EAD5
:102DDC00C1003B490843206000206060BDE8F18FD2
:102DEC0010B53848006884B21CB300F0ABFA2B491C
:102DFC0091F90720904205DA6FF07F029042B8BF3C
:102E0C001046C8718888844201D28C8010BD2B4A30
:102E1C0012680B68D21A921C202A28BF1F22231A70
:102E2C005208D3401818B0F5803F28BF4FF6FF70FA
:102E3C00888010BD2448026802B9704710B5234B36
:102E4C00996801F04060B0F1406F21D011480468DE
:102E5C00A4071DD45C68A4071AD404681B68C3F3C8
:102E6C0003531C331B0114F0050F06D09A420FD2EA
:102E7C006FF005012140016010BD934208D20A0198
:102E8C0058BF44F00104490158BF44F004040460E5
:102E9C0010BD000000000940301009403423002010
:102EAC00FDFDA400B43F0050B81200503C1100507E
:102EBC006E620840242208409C13005008200940F0
:102ECC0000E7A4803410094028500940AC3F005062
:102EDC00EFF3108072B67047EFF3108062B6704754
:102EEC00DFF800F099C8011010B50C18FFF7F0FFCF
:102EFC00401E8041C00FDFF8F0130A68002AFCD096
:102F0C00246801220A6008B1FFF7E6FF204610BDD5
:102F1C0038B5DFF8D843DFF8D8132078897B002543
:102F2C0008430AD0FDF75CFBA178002906BF0121FC
:102F3C00A1700125FDF758FB0DB1002032BD022018
:102F4C00FEF7C0FE0E20FEF7D2FEDFF8A8030168E4
:102F5C0009B1012032BDDFF8A0234021116001210D
:102F6C00C1610020607032BD70B5DFF88C0382B097
:102F7C00002101604821C160DFF8800300F1D80412
:102F8C00A17A002968D00129DFF8742329D11068AF
:102F9C004BF2F5214843050ADFF868030068C0F3DB
:102FAC008140012806D100F0CDF9FFF7E0F9684324
:102FBC0005EB9055607B10B10020607305E0D248A2
:102FCC000068000215EB10204508D0480560290C5C
:102FDC00416001218160C648807B00283AD00520E1
:102FEC0039E0022909D11568284600F0FDF8A5F250
:102FFC00FF5003282ED308202DE003292CD1116873
:10300C0000F1B805A1F5C0612868E961002848BF46
:10301C004042002948BF49428842A8BF002018DA24
:10302C006868BB4E80B2009008234FF47F42302179
:10303C003046FFF7BCFDA86800F072F90421304659
:10304C00FFF7B5FDA86900F071F93046FFF7AFFD49
:10305C00012020700B202073BDE873402DE9F04156
:10306C00A64CDFF8AC82AB4FAB4EA34804F1E105A4
:10307C0082B0E9784A1E0B2A00F28080DFE802F069
:10308C00062233465B33465B3346636EA3490968BD
:10309C000968202088470F20F860072341F61D504F
:1030AC0038614FF4C0720220009000F070F80723D2
:1030BC004FF4C07200214046FFF78CFD01203060B8
:1030CC00022044E00120F861287800281DBF002070
:1030DC00306103200620E870032038600020706007
:1030EC007068800734D4E878032804D1022000F0FB
:1030FC004BF8042007E0002000F046F8E87806289A
:10310C000CBF07200A20E87001201AE0042903D123
:10311C002021B961012105E00122BA610A290CBF05
:10312C00032102216970002139600821C16001600E
:10313C000120386026E005290CBF06200920E87024
:10314C000020706004E00020306070600C20E8709B
:10315C0004F17800BDE8F641FDF75ABA0021016090
:10316C000120644908600E20FEF756FD0220FEF790
:10317C003FFD0120E8700020A87003E0BDE8F3419A
:10318C00FFF7AEBEBDE8F38100900523602200215D
:10319C004046FFF70CBD000080B558495E4891F8D9
:1031AC00E410891E0A291AD8DFE801F0060A0E1964
:1031BC000A0E190A0E19120001688907FCD510E0D5
:1031CC0041688907FCD40CE041688907FCD508E00C
:1031DC0001688907FCD441688907FCD401E0FFF73A
:1031EC007FFEBDE8014039E7F8B50746484C302171
:1031FC002046FFF779FE414E06F1B805C0F30720D3
:10320C00686004212046FFF76FFEC0F38440A8607D
:10321C0020212046FFF768FEC0F38120A861B7F596
:10322C00C060286002D186F8D800F1BD296996F8F3
:10323C00D8202AB96A68A968EA60E861AA696A6153
:10324C00E86900284CBF6FF00102022200EB40003D
:10325C001018421000EB927001EBA0006968E96055
:10326C00012810DA6A69032A04D1153001281DDA05
:10327C0001201BE00B300128B8BF0120491E48BFBC
:10328C000021E96007E01F2812DB6A692AB91538AA
:10329C001F28A8BF1E20032109E00B381F28A8BF38
:1032AC001E20491C4029A8BF3F21E960002169610B
:1032BC0028610823E86880B200904FF47F423021E7
:1032CC0000F03CF80120009011234FF4003200F084
:1032DC0034F8286900F024F800F02FF8686900F041
:1032EC0025F800F02BF8F1BD00800C40810B00207C
:1032FC00E48C000004800C402C500C40A00A0020F0
:10330C0008400C40B43F0050102009403C600C4079
:10331C0000A00C4000400C4034600C40A001001098
:10332C0080B2009012234FF4F802704780B20090E4
:10333C000A234FF440622021704704212046FFF7F6
:10334C0036BC00000748084A81681278006852B2FF
:10335C00A0F54070C9035043C913A1EB2010803075
:10336C0000127047285009400C13005070B50446E9
:10337C00FFF7AEFD451EAD41ED0F074E306800283E
:10338C00FCD0A04701203060002D1CBFBDE8704070
:10339C00FFF7A2BD70BD000000800C4062F30F224D
:1033AC0062F31F4200B500BF1300964694461039D5
:1033BC0028BFA0E80C50FAD85FEA417C28BF0CC0AB
:1033CC0048BF40F8042BC90728BF20F8022B48BF80
:1033DC0000F8012B00BD000030480068000C00F024
:1033EC000700052828BF4FF0FF3070472C490A68AA
:1033FC00C2F30F324BF69A139A424FF0FF3006D1BC
:10340C000868000F0B280CBF0420002070474BF6F7
:10341C00BE118A4201D1012070474BF641318A42DC
:10342C0001D1032070474BF620318A4208BF02209D
:10343C00704700001A48F8B50068050F1948006875
:10344C0000F0FF06802E28BF0026FFF7CFFF0428D0
:10345C004FF0FF3406F10A071DD8DFE800F0031225
:10346C001A1A1B00012D12D0032D06D0072D06D0E1
:10347C00082D08BF06F116040DE014240BE01524EA
:10348C0009E025B1022D08BF06F1140403E00A245B
:10349C0001E005B93C4660B2F2BD00009412005048
:1034AC0018130050A010005080B5FFF79FFF20B9F3
:1034BC00FFF7C0FF162800DB01BDFEE77047FDF7E4
:1034CC008FB8FDF791B800002DE9F04FA1B08246FE
:1034DC0001AE002017461D467160B0620DF1440923
:1034EC000AE017F8011B7068D0470028706000F0E4
:1034FC00B382B06A401CB0623878010001D1B06A66
:10350C00ACE22528EDD1002030617061B061F06132
:10351C003062706201E040F0010017F8011F2029B1
:10352C00F9D023290DD02B2904D02D2906D03029F0
:10353C000AD00CE040F0020080B2EEE740F004004C
:10354C00FAE740F00800F7E740F01000F4E72A290A
:10355C000ED12968296051F8042B2960002A3263A6
:10356C0004D5514240F00400316380B27F1C13E05B
:10357C00002131630BE0316B6FF00043994205D0B1
:10358C0001EB810302EB4301303931637F1C3A7844
:10359C00A2F130010A29EED339782E2903D04FF04D
:1035AC00FF31F1621FE017F8011F2A2907D12968A2
:1035BC0029607F1C51F8042B2960F26213E0002172
:1035CC00F1620BE0F16A6FF00043994205D001EB18
:1035DC00810302EB43013039F1627F1C3A78A2F18E
:1035EC0030010A29EED3B0860FF6EC20397800F0C2
:1035FC0081FD08B117F8010B8DF83A009DF83A00DF
:10360C00682802BF39786829622005D06C2804BF6D
:10361C0038786C2803D171208DF83A007F1C11A8E2
:10362C00F06017F8014BB4F1250024D020380228A3
:10363C0040F2C380133800F0E7800B3800F054815F
:10364C00401E00F02B81401E022840F2B680001F65
:10365C0000F02481401F00F08180401E00F0D480D7
:10366C00401E26D0C01E0BD0801E00F0CD80C01E88
:10367C0000F0CA8042E125208DF84400012046E18B
:10368C002868286050F8048B2860C6F80880F46A13
:10369C00002C04D5404600F039FD044607E02246D4
:1036AC000021404600F04EFD08B1A0EB0804746107
:1036BC002EE129682960002251F8040B29604FF093
:1036CC003C0E0021CDE9000111A8B060DDE900013C
:1036DC009142F46808BF904201D1F26AC2B100F085
:1036EC000F033033DBB23A2BA8BF2733AEF1010204
:1036FC000009A354964640EA017009090022914240
:10370C0008BF904204D0B26804EB0E039A42E6D391
:10371C0004EB0E01B160CEF13C00F16A706188429D
:10372C0007DA081AF0614FF6EF71B08E0840B086D8
:10373C00EEE0002940F1EC8096F8341001F0140111
:10374C00102940F0E580316B3269891AF269891AC7
:10375C00081A0128C0F2DC80F061D9E09DF83A002B
:10376C0062281AD0682806D06A280CD06C281CD085
:10377C00712808D019E02868286050F8041B2860CC
:10378C00B06A0880C4E02868286050F8042B2860D0
:10379C00B06AC117C2E90001BAE02868286050F885
:1037AC00041B2860B06A0870B2E02868286050F8E2
:1037BC00041B2860B06A0860AAE02868C01D20F0CD
:1037CC0007022A60D2E9000108322A60CDE9000123
:1037DC00002902D530692D2109E0B08E810702D570
:1037EC0030692B2103E0C00705D53069202109F889
:1037FC000010401C306111A831690844B0602146AA
:10380C00684600F0EBF983E09DF83A006C280DD087
:10381C00712818BF6A2809D12868C01D20F007023A
:10382C002A60D2E9000108322A6005E02968296083
:10383C0051F8040B29600021CDE900019DF83A00F4
:10384C00682803D1DDE9000180B20BE0622803D1C6
:10385C00DDE90001C0B205E0742818BF7A2804D154
:10386C00DDE900010021CDE9000196F834000007E4
:10387C0031D5DDE900230020834208BF82422AD0E3
:10388C0044F02000782826D13069302109F8001046
:10389C00401C411C316109F800401CE09DF83A00C5
:1038AC00294600F0DEF8CDE90001DDE90023002116
:1038BC008B4202DA30692D2109E0B08E810702D5E6
:1038CC0030692B2103E0C00705D53069202109F8A8
:1038DC000010401C306111A831690844B0602146C9
:1038EC00684600F0F5F813E0012030612868286084
:1038FC0050F8041B28608DF8441009E025208DF841
:10390C004400012030611CB189F801400220306173
:10391C00306B3169401AF169401A7169401A316A89
:10392C00401AB169401A716AA0EB010896F834008C
:10393C00400711D42020B8F1010F8DF840000BDBAB
:10394C004446012310AA6946504600F0AEFB0028FD
:10395C0040F08280641EF4D1D6F810B0BBF1000F99
:10396C0011AC0CD014F8011B7068D04700287060A3
:10397C0072D0B06A401CBBF1010BB062F2D13020A6
:10398C008DF84000F469012C09DB012310AA69466B
:10399C00504600F08AFB00285ED1641EF5D1D6F8A3
:1039AC0014B0B468BBF1000F0CD014F8011B706894
:1039BC00D047002870604FD0B06A401CBBF1010B9F
:1039CC00B062F2D130208DF84000346A012C09DB52
:1039DC00012310AA6946504600F067FB00283BD132
:1039EC00641EF5D1B0687169D6F818B04418BBF1F3
:1039FC00000F0BD014F8011B7068D047706058B3DF
:103A0C00B06A401CBBF1010BB062F3D130208DF8D1
:103A1C004000746A012C08DB012310AA6946504649
:103A2C0000F043FBC0B9641EF6D196F83400400791
:103A3C007FF562AD2020B8F1010F8DF84000FFF644
:103A4C005BAD012310AA6946504600F02EFB18B955
:103A5C00B8F10108F5D14FE54FF0FF3021B0BDE8CA
:103A6C00F08F622826D068281DD06A2808D06C28D0
:103A7C0027D0712804D0742823D07A280CD020E0C9
:103A8C000868C01D20F007000860D0E9002308304A
:103A9C0008601946104670470A680A6052F8040B11
:103AAC000A60002170470A680A6052F8040B0A6029
:103ABC0000B20BE00A680A6052F8040B0A6040B2CC
:103ACC0004E00A680A6052F8040B0A60C1177047D8
:103ADC002DE9F343054608462F696F2808BF0824D3
:103AEC0005D041F02001782914BF0A2410243C266B
:103AFC00D5E90023642818BF69289046994606D159
:103B0C0000218B4203DAD8F1000869EB4909002047
:103B1C00814508BF80450CD1286B50B9082C38D191
:103B2C0095F83800000734D530203B2687F83B0049
:103B3C002FE0701E00900646404649462246E31789
:103B4C00FEF778FF02F13000C0B23A2803DB9DF893
:103B5C00041051390818B855494640462246E31717
:103B6C00FEF768FF804689460020814508BF8045E6
:103B7C0003D0E868B9198842DBD3082C09D195F831
:103B8C003800000705D5B85D302802D0761E3020ED
:103B9C00B855B919E960C6F13C00296BA861884297
:103BAC0008DA081A28624FF6EF71288F0840288728
:103BBC00BDE8F38300290ED595F8381001F01401F7
:103BCC00102908D1696B6A69891A2A6A891A0E1A2E
:103BDC00012EA8BF2E62BDE8F38300002DE9F34F40
:103BEC008BB0D0E90089006B002801AF48BF0620DC
:103BFC0005D404BF41F02000672802D101200B99A5
:103C0C00086340F2FF720B984168C1F30A5090426E
:103C1C0020D1080302BF0B98006800280AD10B9929
:103C2C00032088619DF8300061381A2858D30FF2B0
:103C3C00BC4109E00B99032088619DF83000613884
:103C4C001A284AD30FF29C410B98C0680322FEF746
:103C5C00B7FBFFE0012807DA0B9800F09FFA012868
:103C6C0002DB00230026ECE00B9ADFF854B152681B
:103C7C0040F2FE3161F31E520B994A6040F2FE3164
:103C8C00401A00B247F2975148434E4990FBF1F667
:103C9C00404649460022002300F0A2FA36B238BF53
:103CAC0089F00049C6F10707012F92461BDBF80784
:103CBC0007D552465B464046494600F0A9FA804675
:103CCC0089465046594652465B467F1000F0A0FA92
:103CDC00002F82468B46EAD126E00FF20441B3E76F
:103CEC000FF20441B0E77F420024374D12E0F80791
:103CFC0007D552465B462046294600F089FA044611
:103D0C000D465046594652465B4600F081FA7F10EC
:103D1C0082468B46002FEAD14046494622462B4626
:103D2C0000F048FB804689469DF830000B99DFF87F
:103D3C009CB0096B40F02005662D0CBF06F10A0003
:103D4C0006204718142FA8BF132730208DF8040025
:103D5C000DF10504012F3BDB4046494600F056FCB3
:103D6C00014604F1080204234FF00A0CB1FBFCFCE1
:103D7C000CEB8C04A1EB4401303102F8011C0A213C
:103D8C00BCFBF1FE0EEB8E04ACEB440430345B1E3A
:103D9C00714602F8024DE7D1083F012F02F10804E9
:103DAC00D8DB00F049FC02460B464046494600F081
:103DBC0051FC00225B4600F02BFA80468946CBE78B
:103DCC0000002440A08601000000F03F84D79741FA
:103DDC000DF10500201A0DF1050702E0401E761EBC
:103DEC007F1C39783029F9D0662D08BF711C03D09F
:103DFC00652D0CBF012100210B9A126B8B181BB285
:103E0C009842B8BF03461BB219001AD4814204DA97
:103E1C00785C3528A8BF392000DA30207A18521E79
:103E2C0000E05B1E12F80149491E8442F9D0392882
:103E3C0002D1785C401C7854002902D57F1E5B1C93
:103E4C00761C36B29DF830100B9800961BB23A4691
:103E5C0000F003F80DB0BDE8F08F2DE9F0430546F6
:103E6C0085B01F46D5F83080012F8946164602DAF8
:103E7C0001270FF27C2649F02000BDF9304066285E
:103E8C0008BF641C16D0672840F0968014F1040F0C
:103E9C00C0F27F8044457CDA95F83800641C00073A
:103EAC0002D44745B8BFB84624B2B8EB040848BFA3
:103EBC004FF0000824B2E868A969012C27DA4A1CE3
:103ECC0030234354B8F1010F03DA95F8380000079A
:103EDC0003D5E9682E208854521C18EB040FB8BF88
:103EEC00C8F1000424B260426862A044B845AA61DB
:103EFC00B8BF4746E868AB693FB2EF613A46314616
:103F0C001844FEF75DFAA8EB0700A862B6E022465B
:103F1C009742084418DA3A463146FEF751FAA96935
:103F2C007918E01BB8F1010FA961686203DA95F802
:103F3C003800000705D5EA682E205054E869401C6B
:103F4C00E861C5F8288099E03146FEF739FAA8698E
:103F5C0020183F1BB8F1010F03DA95F83810090748
:103F6C0003D5EA682E211154401CA8613FB2B84514
:103F7C00B8BF4746E868AB693FB23A4631191844B6
:103F8C00FEF71EFAA8693818A861A8EB070068624A
:103F9C0074E0474504DA95F83810090758BFB8465D
:103FAC00B8F1010848BF4FF00008B9F1670F0CBF1A
:103FBC004FF065094FF04509A969EB68481CA861E9
:103FCC00B8F1010F16F8012B5A5403DA95F8381092
:103FDC00090719D5EA68431CAB612E211154B8F1BD
:103FEC00010F11DB7F1E3FB2B845B8BF4746E868EA
:103FFC003FB23A4631461844FEF7E2F9A869381840
:10400C00A861A8EB07006862E868A9690144200070
:10401C0081F8009003D42B2048708E1C03E02D22D5
:10402C004A708E1C644200270DF1080808E00A2231
:10403C00684600F0CFFB019808F8010B7F1C009C30
:10404C0021B20129F3DA022F06DA49F020006528A3
:10405C0004BF302006F8010B4FB9302006F8010BD5
:10406C0007E07F1E02A8C05D303006F8010B012F5F
:10407C00F7DAE868A9690844301AE86195F838005D
:10408C0000F0140010280DD16869A9690818696A34
:10409C000818E9690818A96A0818696B8842BCBF36
:1040AC00081A286205B0BDE8F083F8B504460D4641
:1040BC0016461F46002077B116F8011BA868A047CA
:1040CC00A86030B1E86A401CE86200207F1EF3D182
:1040DC00F2BD4FF0FF30F2BD686A6C747A4C000090
:1040EC006E616E004E414E00696E6600494E460090
:1040FC00300000000278C9B28A421AB11CBF10F815
:10410C00012FF9E718BF00207047000000F10103F0
:10411C00810704D010F8011B89B18107FAD102681C
:10412C00B2F10131914311F0803F04BF50F8042FDC
:10413C00F6E710F8011B11B110F8011BFBE7C01AD0
:10414C0070470000C9B2830706D0521E22D310F864
:10415C00013B9942F7D11FE0083A13D302F1040254
:10416C0041EA012141EA014150F8043B121F21BFF1
:10417C004B40A3F1013C2CEA030C1CF0803FF3D024
:10418C00C9B2001F083210F8013B521E28BF91EA39
:10419C00030FF8D818BF0120401E704730B4436895
:1041AC0003F000420121C3F313034360002B04BF4F
:1041BC000368002B08D10DE00368DD0F45EA4404C9
:1041CC0044605B000360491E4468E302F4D5C4F309
:1041DC001303436043681A434260084630BC70477F
:1041EC004FF4001C1CEB410F94BF1CEB430F09E078
:1041FC0041EA030C50EA4C0C52EA0C0C03D29942E3
:10420C0008BF9042704714BF8B4282427047000037
:10421C00B0B581EA030C0CF0004C40F2FF7515EAC6
:10422C0011541DBF15EA1357AC42AF4239E0E419E3
:10423C0023EA455343F48013C90241F0004141EA9B
:10424C00505EC7021100A7FB020200284FF00000CD
:10425C00EEFB01204FF00001E3FB072118BF42F0F9
:10426C000102401800214941E3FB0E01A4F58064D2
:10427C000F0302D252004041494154F101046CDD5C
:10428C00470872F1004250F1000051EB0451A1F5C6
:10429C0080115CBF41EA0C01B0BD4CEA0551002015
:1042AC00B0BD05EA1357AC4214BFAF4241E050EA2F
:1042BC00410E1CBF52EA430E02E061460020B0BD25
:1042CC0024423C441BD15FEA070EF6D0090302BF1F
:1042DC0001460020AEF1140EB1FA81F7AEEB0704E3
:1042EC0001FA07FE0C37C7F1200100FA07F7C840A6
:1042FC004EEA000E23EA455343F48013A2E733F051
:10430C000043B3FA83F704BFB2FA82FE77440B3F43
:10431C00E41BB7F1200E2FBF02FA0EF3BB40C7F11E
:10432C00200E22FA0EFE38BF43EA0E03BA40641C7C
:10433C0082E750EA410E14BF52EA430E6FF00001BF
:10434C004FF4001717EB430F8ABF194617EB410FB9
:10435C00B5E74CEA05510020B0BDD4F10104B4F12D
:10436C0020070FDAC4F12007520828BF42F00102DF
:10437C0010FA07F501FA07F7E1BF2A43E04038438A
:10438C00E1400FE0352C98DCC7F1200452EA4002E2
:10439C0020FA07F218BF42F0010231FA07F0A140EF
:1043AC000A43002172F1004250F1000051EB0C0164
:1043BC00B0BD00002DE9F04140F2FF7581EA030C1D
:1043CC000CF0004C15EA11541DBF15EA1357AC4202
:1043DC00AF42E9E0BC41C1F31301C3F31303801AEC
:1043EC00994143F4801304D2641E40004941801863
:1043FC005941C90241EA5051B1FBF3F603FB1611C6
:10440C00A2FB0675D7EBC020A94102D2761E8018FC
:10441C005941C90241EA5051B1FBF3FE03FB1E1195
:10442C00A2FB0E75D7EBC020A94103D2AEF1010E51
:10443C0080185941890241EA9051760546EA8E2E40
:10444C00B1FBF3F603FB1611A2FB0675D7EB80202C
:10445C00A94102D2761E80185941C90241EA505135
:10446C004EEA060EB1FBF3F603FB1611A2FB067522
:10447C00D7EBC020A94102D2761E80185941C9023F
:10448C0041EA5051B1FBF3F703FB1711A2FB0735BF
:10449C00D3EBC020A94167F100070CBF004247F0E5
:1044AC00010766F3D5274FEA1E31B80814F580646E
:1044BC0014DDBD0775F1004250EB0E5051EB045169
:1044CC0011F5801F5CBF41EA0C01BDE8F0814CF096
:1044DC007F6141F0E0410020BDE8F081BD076D082F
:1044EC0040EA0E5041F48011D4F10104B4F12006DD
:1044FC000ADAC4F120060200E04001FA06F3E140BA
:10450C001843B24015430EE0342C14DCC6F12004E1
:10451C0045EA40056D0820FA06F2154321FA06F02B
:10452C00A1400D43002175F1004250F1000051EB08
:10453C000C01BDE8F08100205FEA0C01BDE8F081C0
:10454C00CFB992185B41B3FA83F704BFB2FA82F683
:10455C00BF190B3FB7F120062FBF02FA06F3BB4081
:10456C00C7F1200622FA06F638BF3343BA401CB115
:10457C00E419641E2FE77F4231F00041B1FA81F457
:10458C0004BFB0FA80F6A4190B3CB4F120062FBF7F
:10459C0000FA06F1A140C4F1200620FA06F638BF55
:1045AC003143A0403C1B16E7AC421ABF05EA135737
:1045BC00AF4214E050EA41061CBF52EA4306BFE783
:1045CC0050EA4107304661461CBF41EA0551BDE83F
:1045DC00F08152EA430C08BFC143BDE8F0810020D2
:1045EC004FF4001616EB410F98BF16EB430F08BFA4
:1045FC0016EB410F24BFC14305E016EB430F0CBF74
:10460C0061464CEA0551BDE8F0810000400D40EADE
:10461C00C120490080F00D8040F00040490DA1F50B
:10462C008061491C05D4D1F11F0154BFC840C0178B
:10463C0070474FF000007047010000BF09D0B0FA7E
:10464C0080F18840C91CC1F58461090501EBD021BA
:10465C0040057047F0B44FF0004591EA030F44BF9A
:10466C006B4000F0BFB800BF841A71EB030604D294
:10467C006E40001BB141121973414FF4001C1CEB2E
:10468C00410F34BF7CEB430684E00C0DA4EB1356B6
:10469C00362E7DDC012E43DC45EAC32343EA52531C
:1046AC0012BFD20292025B08240545EAC12141EAFD
:1046BC005051D2EBC020994125D407D1B0FA80F6E5
:1046CC0010FA06F164D00020203608E0B1FA81F629
:1046DC00B140C6F1200220FA02F21143B0404FEA79
:1046EC00F474B4EB465434F001064FEA74040AD85F
:1046FC00D6F50016760D04F00044F04061FA06F28F
:10470C005040F1404840C00A40EA415021F000417D
:10471C0028BF5FEA500550F1000044EBD12137E08F
:10472C0045EAC323DB0A45EAC121C90AB6F12005D3
:10473C000EDD42EA0242120CC5F1200603FA06F61F
:10474C00EB4042EA06056D42984161F100010DE033
:10475C0062FA06F5F240554063FA06FC82EA0C0256
:10476C00F3405A406D42904161EB030111F4801FFC
:10477C0005D1641E620502D06D004041494121F40F
:10478C008011430875F1004350F1000041EB0451D6
:10479C00F0BC70471CEB410F15D223F0004352EADA
:1047AC0043060BD04FEA4C0CBCEB410F04D80C0D5C
:1047BC00661E342EB7DDEBE7801A994150EA4106AC
:1047CC0008BF0021E4E708BF1CEB430F28BF6FF0C4
:1047DC000001DDE791FBF2F303FB1211C0E900319C
:1047EC0070470000841A71EB030603D2001BB14121
:1047FC00121973414FF4001C1CEB410F34BF7CEBBE
:10480C00430443E00C0DA4EB1356352E50DC45EA63
:10481C00C323DB0A45EAC121C912B6F120050DDD1F
:10482C0063FA05F6EB4086EA0305124218BF45F021
:10483C000105C01851F100010CD213E062FA06F523
:10484C00F2405540F3415A40B340F3405A4080186F
:10485C00594107D349085FEA30005FEA350528BFA4
:10486C0045F0010501F58011420875F1004250F147
:10487C00000041EB0451F0BC4FF4001C1CEB410F49
:10488C0038BF70470020090D090570471CEB410F1C
:10489C0010D252EA43060BD0BCEB410F05D80C0DDD
:1048AC00AB43661E342EB5DD02E0AB438018594194
:1048BC00F0BC7047F0BC7047DFF800F0D9C10110B4
:1048CC00DFF800F0ADB50110DFF800F019AE011003
:1048DC00DFF800F0E5C10110DFF800F085C201102F
:1048EC00DFF800F081C20110DFF800F055C10110B3
:1048FC00DFF800F043C20110DFF800F079AB0110D3
:10490C00DFF800F0D9B60110DFF800F0EDB30110BC
:10491C0020B108232C22002100F050BD704720B19B
:10492C0008233C220021FFF7C7BF704780B5FDF775
:10493C0091F8ADF80000FBF753FEADF802000098BB
:10494C0002BD01B5BDF80200FBF74EFEBDF800003C
:10495C00BDE80240FDF782B838B5DFF81C09DFF876
:10496C001C19DFF81C4980088000091A2162E061DB
:10497C00034602E0002523F8025B0D18AB42F9D385
:10498C008B0800EB8303002223F8042CE82202801E
:10499C004FF6FC721140EC39A0F8E810E830606179
:1049AC00002000F009F8A061E06960610220A0809D
:1049BC0060800020A08131BDF8B500260027051DC0
:1049CC0015F003001CBF291D0D1AFFF7AFFFDFF810
:1049DC00B018ADB20861112DB4BF4C698C69238835
:1049EC001A0403D583F40043002719E0A7B14A88C1
:1049FC00521E4A808A88521E8A80B6F800C02288CD
:104A0C006244328092B2AA420AD3344613466CB93D
:104A1C008A89521C8A8140E0AB42F8DA012726468B
:104A2C001C442388002BDBD10024F1E75B1B9BB2D9
:104A3C00CE69042B17DB635345F4004323804B886A
:104A4C000F885B1C9AB24B80974238BF0B80CB8887
:104A5C00EB18CB806219921B4B8995B2AB4238BFD5
:104A6C002B464B8113E0CA8823889A18CA808A88FF
:104A7C004B89521E8A8022882244921B95B2AB42EB
:104A8C0038BF2B464B81228842F400422280CA88D0
:104A9C000B89934238BF0A81241DFFF752FF204631
:104AAC00F2BD10B50446FFF741FFDFF8D4170861DB
:104ABC0034F8042CC2F30E0224F8042CCB889A1A76
:104ACC00CA808A884B69521C8A80221F9A4238BF3E
:104ADC004A61BDE8104034E738B50446FFF726FFBD
:104AEC0000210C23DFF89C274B43D518AA6C4AB144
:104AFC00944204D1FFF725FF05F1480032BD491C53
:104B0C000329EED3FFF71DFF002032BD70B505461B
:104B1C00FFF70CFF044600200C22DFF86817424315
:104B2C008E18B16C49B900203065B5640022FFF7CE
:104B3C00C7FEF06418B900F04BFC8D4205D120463D
:104B4C00FFF7FFFE06F1480070BD401C0328E3D3BD
:104B5C002046FFF7F6FE002070BD38B50446FFF77F
:104B6C00E5FE0025DFF81C170C226A438A5A130055
:104B7C0008D0944203D1FFF7E4FEE8B232BD6D1CBD
:104B8C00062DF1D3FFF7DDFEFF2032BD10B5044634
:104B9C002088FFF7E2FFFF2800D16BE10C22DFF841
:104BAC00E416504308448168080002D16FF00100FC
:104BBC0010BD2046BDE81040084702460FF2347085
:104BCC00104710B500200C21DFF8B826002401FB9B
:104BDC0000F31344401C03289C641C65F7D300208D
:104BEC00002301FB00F4401C13530628F9D30820C2
:104BFC0010800FF2E9609060BDE81040ACE670B533
:104C0C0090B0FCF727FF04466846FFF788FE0520A6
:104C1C000690002240F2B630089069464CF29D5046
:104C2C000490DFF864060590DFF86006FFF74CFE91
:104C3C00050006D0FFF77AFE06462846FFF766FF0A
:104C4C0008B900F0C5FB3046FFF77BFE2046FCF7A9
:104C5C0005FF10B070BDF8B500F0E6F8FFF756FF91
:104C6C0005006FF0020616D0FFF760FEA288002147
:104C7C000C27DFF810364F433B441F883FB91A808E
:104C8C005D60A2689A60217369682161C4E2BA42CE
:104C9C0003D1FFF756FE3046F2BD491C0629E7D377
:104CAC0000F096FB00BF38B500F0BEF8FFF72EFF02
:104CBC00050016D0FFF73AFE00210C23DFF8C425BF
:104CCC004B431A4413884BB94FF6F8731380556055
:104CDC000023936021716968A16013E7491C0629C0
:104CEC00EBD300F075FB00BF10B5044660680C30C8
:104CFC0080B2FFF761FE00B91AE061680181002102
:104D0C000160FF2181720C30A060002010BD80B5C5
:104D1C0040680C3811E080B24EE610B5044660686D
:104D2C0080B2FFF749FEA06000B901E0002010BD81
:104D3C006FF0030010BD80B54068FFF7B2FE002095
:104D4C0002BD38B504460D46FFF7F0FD002145F8CD
:104D5C000C1C216811B9256006E0114651F80C2C89
:104D6C00002AFAD141F80C5CBDE83240E9E52DE9A6
:104D7C00F04104466FF00206E068A0F10C05A07942
:104D8C000628BCBF207906280BDAFFF7CFFDA179E6
:104D9C00DFF8F0840C2779434144496819B9FFF7CF
:104DAC00D0FD304617E0FFF7CCFD20792871A079B3
:104DBC006871207AA871A079E16878434044406812
:104DCC000830FFF7BEFFA079784340444068406844
:104DDC00FBF70EFC0020BDE8F08170B500F024F864
:104DEC00FFF77AFE060002D16FF0040070BDFFF7EA
:104DFC009DFDB168002541B10D46A5F10C010A6875
:104E0C00B26000220A60FF228A72FFF79AFD280026
:104E1C00A56001D1022070BDA5F10C0001792171B2
:104E2C004079A071002070BD0446FFF751BD0628E3
:104E3C000ADA0C23DFF84C245843105A02001CBF2A
:104E4C004FF6F872904202D14FF0FF307047088055
:104E5C0000207047811D0079E9E710B50446E08811
:104E6C00FFF77BFEFF2800D104E0A0712046BDE8CF
:104E7C0010407CE74FF0FF3010BD3EB50446FFF705
:104E8C00ACFF050017D120796946FFF7D0FF78B148
:104E9C000820ADF804000320ADF80600DFF8F0138D
:104EAC00A0688968029001A888476FF005003EBD94
:104EBC00BDF80000A08028463EBD10B5DFF8D42315
:104ECC0012680C464FF47A71A1FB00010023FDF728
:104EDC00B1FD002399424FF0004201D8904202D319
:104EEC006FF0020010BD2060002010BD38B5FFF738
:104EFC009BFFFFF7F1FD0546FCF7DBFB002818BF15
:104F0C00012800D015B96FF0040032BD606840B9BB
:104F1C00009000996868FBF76FFB401E8041C00F42
:104F2C0032BD10F1010F08BF4FF0FF30F0D06946D1
:104F3C00FFF7C3FF0028ECD032BD80B54068FBF70B
:104F4C0057FB002002BD00F043FA00BF80B540685B
:104F5C00FFF7C2FC002002BD80B54068FFF7C0FC23
:104F6C00002002BD80B5FFF7BFFCFFF7C1FC00209D
:104F7C0002BD80B5FCF76EFDFBF732FB002002BDD5
:104F8C0010B58CB004466846FFF7C2FCE02000F078
:104F9C0013F808B900F01CFA0BE010B58CB00446FD
:104FAC006846FFF7B5FCE06800F006F808B900F0B9
:104FBC000FFA00200CB010BD08900023A1686068A7
:104FCC006A46FFF799BC10B50446FFF799FC606080
:104FDC00002010BD0146886849680847F0B50746AF
:104FEC008BB0BC68AA4D6CBB0C20FFF7E5FC040031
:104FFC006FF003061ED008232422002101A8FBF722
:10500C00FFFA0020ADF8140006900794002379688D
:10501C00A14801AAFFF778FC206068B90820ADF818
:10502C0000000C20ADF802006846A96888472046AD
:10503C00FFF737FD304618E0F86860603869A0600B
:10504C00BC600AE02868804706462068FCF793FBA2
:10505C003869A06030466968884779682068FBF732
:10506C00D3FA2068FBF7D4FA00200BB0F0BD10B5D2
:10507C00044682B060686946FFF71FFF20B90098AC
:10508C0060602046FFF7AAFF16BD80B5406810B9D6
:10509C006FF0020002BD0068FCF76DFB002002BD42
:1050AC007C49096841600020704750B50446794836
:1050BC0002686FF00046A6FB020100234FF47A72DF
:1050CC00FDF7B8FC002399424FF0004201D8904202
:1050DC0000D330466060002050BD2DE9F04186B011
:1050EC000646FFF7F5FBFFF7F7FC0446002002909D
:1050FC000025FCF7DEFA002818BF012800D014B9EF
:10510C006FF0040063E0706820B110F1010F03D15F
:10511C004FF0FF30009004E06946FFF7CEFE070029
:10512C0054D1FFF7EDFB0099012701EB000800E0DB
:10513C00009000996068FBF75FFA78B303A8FFF75B
:10514C004CFE07001AD19DF8100001A9FFF76FFE65
:10515C0080B9059A9DF81210BDF80400B368984701
:10516C0040B1BDF80400B0819DF81200B0730598F1
:10517C00306113E0059902A8FFF7E3FD00980127C1
:10518C006D1C10F1010F18BF0028D2D0FFF7B8FB2F
:10519C00B8EB000002D000998142C9D2029EFFF701
:1051AC00C5FB56B1314600E0114651F80C2C002AD3
:1051BC00FAD1A26841F80C2CA660FFF7C2FB002DB7
:1051CC0003E06068FBF714FA6D1EFAD1384606B09E
:1051DC00BDE8F081F8B5FFF727FE0546FCF769FA44
:1051EC00002818BF01286FF0040613D0FFF79EFBB0
:1051FC000021244A0C234B43D75A4FB113445B680C
:10520C001B68AB4201D1217106E0491C0629F1D380
:10521C00FFF797FB3046F2BDFFF793FB0020F2BD82
:10522C00F8B50446FCF745FA002818BF012802D14E
:10523C006FF00400F2BDFFF74BFB0546FFF776FB62
:10524C000021104A0C234B43D65A37000ED0A788A6
:10525C00BE4208D1D11849680968A9420CBF012186
:10526C000021A160D8E7491C0629EBD3FFF769FBA5
:10527C004FF0FF30F2BD000048230020F03E00202C
:10528C00B415002048150020E8040020C74B00008E
:10529C00D4040020E8000000E14F000070B5044683
:1052AC003C20FFF789FB05006FF0030611D0FFF7D8
:1052BC0036FB207AA8610022608928622946E068C2
:1052CC0028616068FFF700FB04462846FFF7E9FBFE
:1052DC000CB9304670BD002070BD000041882D29EE
:1052EC0002D36FF0010070470FF2140252F8211034
:1052FC0008470000994B0000394900004F49000055
:10530C00634C0000B34C0000F54C00001B4D00003A
:10531C00274D0000434D00007B4D0000E74D000081
:10532C00674E0000874E0000F94E0000474F00000A
:10533C00534F0000594F0000654F0000714F0000A3
:10534C007F4F00008D4F0000D34F00007B500000BA
:10535C00AD500000B7500000614E0000BB8700004C
:10536C008F880000E7500000E1510000E94F000079
:10537C0097500000298800006188000075880000A3
:10538C002D520000C1880000D9880000A9520000ED
:10539C000000000000000000CF880000E78800003B
:1053AC00A74F0000000000000000000000000000FB
:1053BC0000000000DFF800F0F1C5011001B901494F
:1053CC00FFF7F8BFA0010000DFF800F0ED8C011032
:1053DC000120FFF7F9BF0000E0B50821ADF800107F
:1053EC000190022100F00FF808B100200EBD0298C8
:1053FC000EBD00B583B00821ADF80010019003215B
:10540C0000F001F807BDADF802106846DFF8741320
:10541C00096808471FB5ADF806108DF8040008247C
:10542C00DFF860138DF808200393ADF80040ADF859
:10543C00024068460968884704B010BD30B585B095
:10544C00144608220291ADF800201922DFF834131B
:10545C0009680190ADF802201D466846884714B1D2
:10546C00BDF80C10218015B19DF80E102970089A0A
:10547C000499116005B030BD00B583B00820ADF8BB
:10548C0000001A2000F015F810B99DF804000EBDAC
:10549C00FF200EBD00B583B0ADF800008DF80610EE
:1054AC00002000F006F810B99DF807000EBDFF2093
:1054BC000EBDDFF8D0120968ADF802006846084747
:1054CC0050B110F1040F01D10420704710F1030FFB
:1054DC0001D102207047012070478123037042EAFA
:1054EC00C111002341F47C41C37081807047822339
:1054FC00037081800023C370827170473EB50446EF
:10550C000820ADF800000D462020ADF80200102058
:10551C00DFF870120968ADF804006846884720B9B6
:10552C00029810B16FF004003EBD009500230022DC
:10553C0021464FF0FF30FFF781FF3EBD10B582B022
:10554C001446CA78012A03D18A88DFF84C351A80B0
:10555C0000F010F858B9009069462046FFF7CEFFCE
:10556C0028B900984478FFF744FF204616BDFFF792
:10557C00A7FF16BD0B46022210214BE738B51C467F
:10558C001546FFF7F7FFC0B9009069462846FFF7AC
:10559C00B5FF90B900984578280002BF0098C079F3
:1055AC00A04205D10098816804982246FCF708FFB8
:1055BC000098FFF71EFF284632BDFFF781FF32BD72
:1055CC00F8B500F088FA00F0C5F907000DD03246A6
:1055DC002946FFF78CFF00F04AF93872FFF74CFFB1
:1055EC003B4601B0BDE8F0405FE0F1BD1022012167
:1055FC00E6E738B500F013FA050002D004220121C9
:10560C004AE031BD2DE9F04100F068F907000FD0F8
:10561C00142200F019F83C72FD603E8287F812806B
:10562C00FFF72AFF3946BDE8F041DFF8702485E723
:10563C0025E038B500F02BF8050004D0152200F059
:10564C0003F82C812BE031BD012150E7002204210D
:10565C0083E02DE9F04100F041F907000FD0022260
:10566C0000F010F8BC60BD81BE73C7F81080FFF766
:10567C0003FF3946BDE8F041DFF824245EE704203F
:10568C00BDE8F081042132E71022022198E704469C
:10569C000A20A1E602212AE7FFF729FFAC60FFF7F9
:1056AC00EBFE2B4601B0BDE8304002221021B1E6E2
:1056BC00F8B500F0AEF907000AD01522FFF7EAFFA3
:1056CC0000F05FFB3946BDE8F840DFF8D82335E73A
:1056DC000420F2BD002203213FE000B583B00FF29D
:1056EC004903019306230093032300F04DF80EBDEC
:1056FC001078802802BF508840F27F61884208D120
:10570C009088984202BF91790098814201D1012082
:10571C0070470020704710B582B00624FFE7009454
:10572C00FFF7E6FF16BD00000323F4E7107880288E
:10573C0002BF508840F27F6188420CD190880328C8
:10574C0018BF042807D1907901001CBF102811281C
:10575C0001D10120704700207047F8B500F05DFAC8
:10576C0007000CD032462946FFF7C1FEBC60FFF79C
:10577C0083FE3946BDE8F840DFF82C23DEE6042032
:10578C00F2BD0000DC0400202DE9F04100F02BF804
:10579C0007000AD0069A4146FFF7A9FE3C817D819D
:1057AC0000F0F1FA079A00F07BBA68E704460D4660
:1057BC000C2011E6424603218FE670B582B000F052
:1057CC008AF9FFF759FE1B21009103463246294600
:1057DC00204600F02EF976BD10B582B01D24009441
:1057EC0000F027F916BD04460D46164698461020C3
:1057FC00FFF7F2BD2DE9F04180460D4616461F46D7
:10580C001820FFF7E9FD040014D0002200F06DF819
:10581C0000F07EFA20726572A672E760069820612D
:10582C0007986061FFF728FE2146BDE8F0410FF2B2
:10583C001D3283E623E70FF21933112200214EE1CA
:10584C00F8B500F0F0F807000FD00A2200F04DF880
:10585C0000F00DF838727D813E73FFF70DFE39466E
:10586C00BDE8F8400FF2ED2268E60420F2BD2146B7
:10587C005020FFF70FBE0FF2E1230422DEE70FF2F8
:10588C00DD23052224E00FF2D923062238E12DE98D
:10589C00F04180460D4616461F461020FFF79CFD32
:1058AC00040011D0072200F020F800F031FA207229
:1058BC006572A672E760FFF7DFFD2146BDE8F04197
:1058CC000FF2A122FFF73ABED9E60FF29D23082270
:1058DC00002115E10FF295231022EBE004460D4652
:1058EC00164698461420FFF777BD0421FFF7F5BD47
:1058FC0070B5FFF75BFF06000BD03022FFF7F5FF0A
:10590C0000F009F83146BDE870400FF26522FFF750
:10591C0015BE042070BD34817581FFF7ADBD30B567
:10592C0083B004460020ADF8040000F013F8050025
:10593C000DD03122FFF7D9FF2C81FFF79DFD01A976
:10594C00009102230FF22D222946FFF717FEBDF816
:10595C0004003EBD0A20FFF73FBD1CB500F079F9ED
:10596C0004000AD01222FFF76FFEFFF785FD00F04E
:10597C0005F80FF2052200F018F813E001A90091C8
:10598C00012370471CB500F064F904000AD01822FA
